{
  "contractName": "Bank",
  "abi": [
    {
      "inputs": [
        {
          "internalType": "uint256",
          "name": "interestRate",
          "type": "uint256"
        },
        {
          "internalType": "uint256",
          "name": "originationFee",
          "type": "uint256"
        },
        {
          "internalType": "uint256",
          "name": "collateralizationRatio",
          "type": "uint256"
        },
        {
          "internalType": "uint256",
          "name": "liquidationPenalty",
          "type": "uint256"
        },
        {
          "internalType": "uint256",
          "name": "period",
          "type": "uint256"
        },
        {
          "internalType": "address",
          "name": "collateralToken",
          "type": "address"
        },
        {
          "internalType": "uint256",
          "name": "collateralTokenTellorRequestId",
          "type": "uint256"
        },
        {
          "internalType": "uint256",
          "name": "collateralTokenPriceGranularity",
          "type": "uint256"
        },
        {
          "internalType": "uint256",
          "name": "collateralTokenPrice",
          "type": "uint256"
        },
        {
          "internalType": "address",
          "name": "debtToken",
          "type": "address"
        },
        {
          "internalType": "uint256",
          "name": "debtTokenTellorRequestId",
          "type": "uint256"
        },
        {
          "internalType": "uint256",
          "name": "debtTokenPriceGranularity",
          "type": "uint256"
        },
        {
          "internalType": "uint256",
          "name": "debtTokenPrice",
          "type": "uint256"
        },
        {
          "internalType": "address payable",
          "name": "oracleContract",
          "type": "address"
        }
      ],
      "payable": false,
      "stateMutability": "nonpayable",
      "type": "constructor"
    },
    {
      "anonymous": false,
      "inputs": [
        {
          "indexed": false,
          "internalType": "address",
          "name": "_descriptorSet",
          "type": "address"
        }
      ],
      "name": "NewDescriptorSet",
      "type": "event"
    },
    {
      "anonymous": false,
      "inputs": [
        {
          "indexed": true,
          "internalType": "address",
          "name": "previousOwner",
          "type": "address"
        },
        {
          "indexed": true,
          "internalType": "address",
          "name": "newOwner",
          "type": "address"
        }
      ],
      "name": "OwnershipTransferred",
      "type": "event"
    },
    {
      "anonymous": false,
      "inputs": [
        {
          "indexed": false,
          "internalType": "uint256",
          "name": "amount",
          "type": "uint256"
        }
      ],
      "name": "ReserveDeposit",
      "type": "event"
    },
    {
      "anonymous": false,
      "inputs": [
        {
          "indexed": false,
          "internalType": "address",
          "name": "token",
          "type": "address"
        },
        {
          "indexed": false,
          "internalType": "uint256",
          "name": "amount",
          "type": "uint256"
        }
      ],
      "name": "ReserveWithdraw",
      "type": "event"
    },
    {
      "anonymous": false,
      "inputs": [
        {
          "indexed": false,
          "internalType": "address",
          "name": "borrower",
          "type": "address"
        },
        {
          "indexed": false,
          "internalType": "uint256",
          "name": "amount",
          "type": "uint256"
        }
      ],
      "name": "VaultBorrow",
      "type": "event"
    },
    {
      "anonymous": false,
      "inputs": [
        {
          "indexed": false,
          "internalType": "address",
          "name": "owner",
          "type": "address"
        },
        {
          "indexed": false,
          "internalType": "uint256",
          "name": "amount",
          "type": "uint256"
        }
      ],
      "name": "VaultDeposit",
      "type": "event"
    },
    {
      "anonymous": false,
      "inputs": [
        {
          "indexed": false,
          "internalType": "address",
          "name": "borrower",
          "type": "address"
        },
        {
          "indexed": false,
          "internalType": "uint256",
          "name": "amount",
          "type": "uint256"
        }
      ],
      "name": "VaultRepay",
      "type": "event"
    },
    {
      "anonymous": false,
      "inputs": [
        {
          "indexed": false,
          "internalType": "address",
          "name": "borrower",
          "type": "address"
        }
      ],
      "name": "VaultWithdraw",
      "type": "event"
    },
    {
      "constant": true,
      "inputs": [],
      "name": "getCollateralTokenAddress",
      "outputs": [
        {
          "internalType": "address",
          "name": "",
          "type": "address"
        }
      ],
      "payable": false,
      "stateMutability": "view",
      "type": "function"
    },
    {
      "constant": true,
      "inputs": [],
      "name": "getCollateralTokenPrice",
      "outputs": [
        {
          "internalType": "uint256",
          "name": "",
          "type": "uint256"
        }
      ],
      "payable": false,
      "stateMutability": "view",
      "type": "function"
    },
    {
      "constant": true,
      "inputs": [],
      "name": "getCollateralTokenPriceGranularity",
      "outputs": [
        {
          "internalType": "uint256",
          "name": "",
          "type": "uint256"
        }
      ],
      "payable": false,
      "stateMutability": "view",
      "type": "function"
    },
    {
      "constant": true,
      "inputs": [],
      "name": "getCollateralizationRatio",
      "outputs": [
        {
          "internalType": "uint256",
          "name": "",
          "type": "uint256"
        }
      ],
      "payable": false,
      "stateMutability": "view",
      "type": "function"
    },
    {
      "constant": true,
      "inputs": [
        {
          "internalType": "uint256",
          "name": "_requestId",
          "type": "uint256"
        }
      ],
      "name": "getCurrentValue",
      "outputs": [
        {
          "internalType": "bool",
          "name": "ifRetrieve",
          "type": "bool"
        },
        {
          "internalType": "uint256",
          "name": "value",
          "type": "uint256"
        },
        {
          "internalType": "uint256",
          "name": "_timestampRetrieved",
          "type": "uint256"
        }
      ],
      "payable": false,
      "stateMutability": "view",
      "type": "function"
    },
    {
      "constant": true,
      "inputs": [],
      "name": "getDebtTokenAddress",
      "outputs": [
        {
          "internalType": "address",
          "name": "",
          "type": "address"
        }
      ],
      "payable": false,
      "stateMutability": "view",
      "type": "function"
    },
    {
      "constant": true,
      "inputs": [],
      "name": "getDebtTokenPrice",
      "outputs": [
        {
          "internalType": "uint256",
          "name": "",
          "type": "uint256"
        }
      ],
      "payable": false,
      "stateMutability": "view",
      "type": "function"
    },
    {
      "constant": true,
      "inputs": [],
      "name": "getDebtTokenPriceGranularity",
      "outputs": [
        {
          "internalType": "uint256",
          "name": "",
          "type": "uint256"
        }
      ],
      "payable": false,
      "stateMutability": "view",
      "type": "function"
    },
    {
      "constant": true,
      "inputs": [],
      "name": "getInterestRate",
      "outputs": [
        {
          "internalType": "uint256",
          "name": "",
          "type": "uint256"
        }
      ],
      "payable": false,
      "stateMutability": "view",
      "type": "function"
    },
    {
      "constant": true,
      "inputs": [],
      "name": "getLiquidationPenalty",
      "outputs": [
        {
          "internalType": "uint256",
          "name": "",
          "type": "uint256"
        }
      ],
      "payable": false,
      "stateMutability": "view",
      "type": "function"
    },
    {
      "constant": true,
      "inputs": [],
      "name": "getOriginationFee",
      "outputs": [
        {
          "internalType": "uint256",
          "name": "",
          "type": "uint256"
        }
      ],
      "payable": false,
      "stateMutability": "view",
      "type": "function"
    },
    {
      "constant": true,
      "inputs": [],
      "name": "getReserveBalance",
      "outputs": [
        {
          "internalType": "uint256",
          "name": "",
          "type": "uint256"
        }
      ],
      "payable": false,
      "stateMutability": "view",
      "type": "function"
    },
    {
      "constant": true,
      "inputs": [],
      "name": "getReserveCollateralBalance",
      "outputs": [
        {
          "internalType": "uint256",
          "name": "",
          "type": "uint256"
        }
      ],
      "payable": false,
      "stateMutability": "view",
      "type": "function"
    },
    {
      "constant": true,
      "inputs": [],
      "name": "getVaultCollateralAmount",
      "outputs": [
        {
          "internalType": "uint256",
          "name": "",
          "type": "uint256"
        }
      ],
      "payable": false,
      "stateMutability": "view",
      "type": "function"
    },
    {
      "constant": true,
      "inputs": [
        {
          "internalType": "address",
          "name": "vaultOwner",
          "type": "address"
        }
      ],
      "name": "getVaultCollateralizationRatio",
      "outputs": [
        {
          "internalType": "uint256",
          "name": "",
          "type": "uint256"
        }
      ],
      "payable": false,
      "stateMutability": "view",
      "type": "function"
    },
    {
      "constant": true,
      "inputs": [],
      "name": "getVaultDebtAmount",
      "outputs": [
        {
          "internalType": "uint256",
          "name": "",
          "type": "uint256"
        }
      ],
      "payable": false,
      "stateMutability": "view",
      "type": "function"
    },
    {
      "constant": true,
      "inputs": [],
      "name": "getVaultRepayAmount",
      "outputs": [
        {
          "internalType": "uint256",
          "name": "principal",
          "type": "uint256"
        }
      ],
      "payable": false,
      "stateMutability": "view",
      "type": "function"
    },
    {
      "constant": true,
      "inputs": [],
      "name": "isOwner",
      "outputs": [
        {
          "internalType": "bool",
          "name": "",
          "type": "bool"
        }
      ],
      "payable": false,
      "stateMutability": "view",
      "type": "function"
    },
    {
      "constant": true,
      "inputs": [],
      "name": "oracleIDDescriptionsAddress",
      "outputs": [
        {
          "internalType": "address",
          "name": "",
          "type": "address"
        }
      ],
      "payable": false,
      "stateMutability": "view",
      "type": "function"
    },
    {
      "constant": true,
      "inputs": [],
      "name": "owner",
      "outputs": [
        {
          "internalType": "address",
          "name": "",
          "type": "address"
        }
      ],
      "payable": false,
      "stateMutability": "view",
      "type": "function"
    },
    {
      "constant": false,
      "inputs": [],
      "name": "renounceOwnership",
      "outputs": [],
      "payable": false,
      "stateMutability": "nonpayable",
      "type": "function"
    },
    {
      "constant": false,
      "inputs": [
        {
          "internalType": "address",
          "name": "_oracleDescriptors",
          "type": "address"
        }
      ],
      "name": "setOracleIDDescriptors",
      "outputs": [],
      "payable": false,
      "stateMutability": "nonpayable",
      "type": "function"
    },
    {
      "constant": true,
      "inputs": [],
      "name": "tellorStorageAddress",
      "outputs": [
        {
          "internalType": "address payable",
          "name": "",
          "type": "address"
        }
      ],
      "payable": false,
      "stateMutability": "view",
      "type": "function"
    },
    {
      "constant": false,
      "inputs": [
        {
          "internalType": "address",
          "name": "newOwner",
          "type": "address"
        }
      ],
      "name": "transferOwnership",
      "outputs": [],
      "payable": false,
      "stateMutability": "nonpayable",
      "type": "function"
    },
    {
      "constant": true,
      "inputs": [
        {
          "internalType": "bytes32",
          "name": "_bytesId",
          "type": "bytes32"
        }
      ],
      "name": "valueFor",
      "outputs": [
        {
          "internalType": "int256",
          "name": "value",
          "type": "int256"
        },
        {
          "internalType": "uint256",
          "name": "timestamp",
          "type": "uint256"
        },
        {
          "internalType": "uint256",
          "name": "status",
          "type": "uint256"
        }
      ],
      "payable": false,
      "stateMutability": "view",
      "type": "function"
    },
    {
      "constant": true,
      "inputs": [
        {
          "internalType": "address",
          "name": "",
          "type": "address"
        }
      ],
      "name": "vaults",
      "outputs": [
        {
          "internalType": "uint256",
          "name": "collateralAmount",
          "type": "uint256"
        },
        {
          "internalType": "uint256",
          "name": "debtAmount",
          "type": "uint256"
        },
        {
          "internalType": "uint256",
          "name": "createdAt",
          "type": "uint256"
        }
      ],
      "payable": false,
      "stateMutability": "view",
      "type": "function"
    },
    {
      "constant": false,
      "inputs": [
        {
          "internalType": "uint256",
          "name": "amount",
          "type": "uint256"
        }
      ],
      "name": "reserveDeposit",
      "outputs": [],
      "payable": false,
      "stateMutability": "nonpayable",
      "type": "function"
    },
    {
      "constant": false,
      "inputs": [
        {
          "internalType": "uint256",
          "name": "amount",
          "type": "uint256"
        }
      ],
      "name": "reserveWithdraw",
      "outputs": [],
      "payable": false,
      "stateMutability": "nonpayable",
      "type": "function"
    },
    {
      "constant": false,
      "inputs": [
        {
          "internalType": "uint256",
          "name": "amount",
          "type": "uint256"
        }
      ],
      "name": "reserveWithdrawCollateral",
      "outputs": [],
      "payable": false,
      "stateMutability": "nonpayable",
      "type": "function"
    },
    {
      "constant": false,
      "inputs": [],
      "name": "updatePrice",
      "outputs": [],
      "payable": false,
      "stateMutability": "nonpayable",
      "type": "function"
    },
    {
      "constant": false,
      "inputs": [
        {
          "internalType": "address",
          "name": "vaultOwner",
          "type": "address"
        }
      ],
      "name": "liquidate",
      "outputs": [],
      "payable": false,
      "stateMutability": "nonpayable",
      "type": "function"
    },
    {
      "constant": false,
      "inputs": [
        {
          "internalType": "uint256",
          "name": "amount",
          "type": "uint256"
        }
      ],
      "name": "vaultDeposit",
      "outputs": [],
      "payable": false,
      "stateMutability": "nonpayable",
      "type": "function"
    },
    {
      "constant": false,
      "inputs": [
        {
          "internalType": "uint256",
          "name": "amount",
          "type": "uint256"
        }
      ],
      "name": "vaultBorrow",
      "outputs": [],
      "payable": false,
      "stateMutability": "nonpayable",
      "type": "function"
    },
    {
      "constant": false,
      "inputs": [
        {
          "internalType": "uint256",
          "name": "amount",
          "type": "uint256"
        }
      ],
      "name": "vaultRepay",
      "outputs": [],
      "payable": false,
      "stateMutability": "nonpayable",
      "type": "function"
    },
    {
      "constant": false,
      "inputs": [
        {
          "internalType": "uint256",
          "name": "amount",
          "type": "uint256"
        }
      ],
      "name": "vaultWithdraw",
      "outputs": [],
      "payable": false,
      "stateMutability": "nonpayable",
      "type": "function"
    },
    {
      "constant": true,
      "inputs": [
        {
          "internalType": "uint256",
          "name": "_requestId",
          "type": "uint256"
        },
        {
          "internalType": "uint256",
          "name": "_timestamp",
          "type": "uint256"
        }
      ],
      "name": "getDataBefore",
      "outputs": [
        {
          "internalType": "bool",
          "name": "_ifRetrieve",
          "type": "bool"
        },
        {
          "internalType": "uint256",
          "name": "_value",
          "type": "uint256"
        },
        {
          "internalType": "uint256",
          "name": "_timestampRetrieved",
          "type": "uint256"
        }
      ],
      "payable": false,
      "stateMutability": "view",
      "type": "function"
    }
  ],
  "bytecode": "0x608060405234801561001057600080fd5b506040516133c93803806133c983398181016040526101c081101561003457600080fd5b8101908080519060200190929190805190602001909291908051906020019092919080519060200190929190805190602001909291908051906020019092919080519060200190929190805190602001909291908051906020019092919080519060200190929190805190602001909291908051906020019092919080519060200190929190805190602001909291905050508033601360006101000a81548173ffffffffffffffffffffffffffffffffffffffff021916908373ffffffffffffffffffffffffffffffffffffffff160217905550601360009054906101000a900473ffffffffffffffffffffffffffffffffffffffff1673ffffffffffffffffffffffffffffffffffffffff16600073ffffffffffffffffffffffffffffffffffffffff167f8be0079c531659141344cd1fd0a4f28419497f9722a3daafe3b4186f6b6457e060405160405180910390a380601460006101000a81548173ffffffffffffffffffffffffffffffffffffffff021916908373ffffffffffffffffffffffffffffffffffffffff160217905550601460009054906101000a900473ffffffffffffffffffffffffffffffffffffffff16601660006101000a81548173ffffffffffffffffffffffffffffffffffffffff021916908373ffffffffffffffffffffffffffffffffffffffff160217905550508d600b600201819055508c600b600301819055508b600b600401819055508a600b6005018190555089600b6007018190555088600660000160006101000a81548173ffffffffffffffffffffffffffffffffffffffff021916908373ffffffffffffffffffffffffffffffffffffffff16021790555084600160000160006101000a81548173ffffffffffffffffffffffffffffffffffffffff021916908373ffffffffffffffffffffffffffffffffffffffff16021790555080600b60060160006101000a81548173ffffffffffffffffffffffffffffffffffffffff021916908373ffffffffffffffffffffffffffffffffffffffff16021790555081600180018190555082600160020181905550836001600301819055508560066001018190555086600660020181905550876006600301819055505050505050505050505050505050613048806103816000396000f3fe608060405234801561001057600080fd5b506004361061021b5760003560e01c80637649b93811610125578063c969ac06116100ad578063f2fde38b1161007c578063f2fde38b1461081e578063f78eea8314610862578063f91614eb146108b2578063fb839dda146108d0578063fc2e39a6146108fe5761021b565b8063c969ac061461076a578063cb765c1d14610788578063d267974c146107a6578063ec5e5e7d146107f05761021b565b8063a622ee7c116100f4578063a622ee7c1461063a578063a8020973146106a0578063a860988c146106ea578063b71d7a6e14610708578063bb97f31d146107265761021b565b80637649b9381461058257806386ef5738146105b05780638da5cb5b146105ce5780638f32d59b146106185761021b565b80634fd88951116101a857806366b446111161017757806366b44611146104a8578063673a7e2814610506578063685a5808146105105780636d483fe61461052e578063715018a6146105785761021b565b80634fd88951146103e45780635257b56614610412578063526366b4146104305780635729b3941461047a5761021b565b80631e522b29116101ef5780631e522b29146102e25780632f86556814610300578063317c9e42146103445780633fcad96414610362578063435726c4146103b65761021b565b806291a4461461022057806308dcd7c61461024e578063151439501461026c5780631b9084b41461028a575b600080fd5b61024c6004803603602081101561023657600080fd5b810190808035906020019092919050505061091c565b005b610256610b07565b6040518082815260200191505060405180910390f35b610274610b14565b6040518082815260200191505060405180910390f35b6102cc600480360360208110156102a057600080fd5b81019080803573ffffffffffffffffffffffffffffffffffffffff169060200190929190505050610b21565b6040518082815260200191505060405180910390f35b6102ea610c3c565b6040518082815260200191505060405180910390f35b6103426004803603602081101561031657600080fd5b81019080803573ffffffffffffffffffffffffffffffffffffffff169060200190929190505050610c49565b005b61034c610e3b565b6040518082815260200191505060405180910390f35b61038e6004803603602081101561037857600080fd5b8101908080359060200190929190505050610e48565b6040518084151515158152602001838152602001828152602001935050505060405180910390f35b6103e2600480360360208110156103cc57600080fd5b8101908080359060200190929190505050610e64565b005b610410600480360360208110156103fa57600080fd5b81019080803590602001909291905050506110ef565b005b61041a61155c565b6040518082815260200191505060405180910390f35b610438611569565b604051808273ffffffffffffffffffffffffffffffffffffffff1673ffffffffffffffffffffffffffffffffffffffff16815260200191505060405180910390f35b6104a66004803603602081101561049057600080fd5b810190808035906020019092919050505061158f565b005b6104de600480360360408110156104be57600080fd5b810190808035906020019092919080359060200190929190505050611770565b6040518084151515158152602001838152602001828152602001935050505060405180910390f35b61050e611ac4565b005b610518611b10565b6040518082815260200191505060405180910390f35b610536611b59565b604051808273ffffffffffffffffffffffffffffffffffffffff1673ffffffffffffffffffffffffffffffffffffffff16815260200191505060405180910390f35b610580611b86565b005b6105ae6004803603602081101561059857600080fd5b8101908080359060200190929190505050611cc1565b005b6105b8612074565b6040518082815260200191505060405180910390f35b6105d6612081565b604051808273ffffffffffffffffffffffffffffffffffffffff1673ffffffffffffffffffffffffffffffffffffffff16815260200191505060405180910390f35b6106206120ab565b604051808215151515815260200191505060405180910390f35b61067c6004803603602081101561065057600080fd5b81019080803573ffffffffffffffffffffffffffffffffffffffff169060200190929190505050612103565b60405180848152602001838152602001828152602001935050505060405180910390f35b6106a861212d565b604051808273ffffffffffffffffffffffffffffffffffffffff1673ffffffffffffffffffffffffffffffffffffffff16815260200191505060405180910390f35b6106f2612153565b6040518082815260200191505060405180910390f35b61071061219c565b6040518082815260200191505060405180910390f35b6107686004803603602081101561073c57600080fd5b81019080803573ffffffffffffffffffffffffffffffffffffffff16906020019092919050505061227f565b005b61077261242b565b6040518082815260200191505060405180910390f35b610790612437565b6040518082815260200191505060405180910390f35b6107ae612444565b604051808273ffffffffffffffffffffffffffffffffffffffff1673ffffffffffffffffffffffffffffffffffffffff16815260200191505060405180910390f35b61081c6004803603602081101561080657600080fd5b8101908080359060200190929190505050612471565b005b6108606004803603602081101561083457600080fd5b81019080803573ffffffffffffffffffffffffffffffffffffffff1690602001909291905050506126df565b005b61088e6004803603602081101561087857600080fd5b8101908080359060200190929190505050612765565b60405180848152602001838152602001828152602001935050505060405180910390f35b6108ba612b4a565b6040518082815260200191505060405180910390f35b6108fc600480360360208110156108e657600080fd5b8101908080359060200190929190505050612b57565b005b610906612e4f565b6040518082815260200191505060405180910390f35b6109246120ab565b610996576040517f08c379a00000000000000000000000000000000000000000000000000000000081526004018080602001828103825260208152602001807f4f776e61626c653a2063616c6c6572206973206e6f7420746865206f776e657281525060200191505060405180910390fd5b600160000160009054906101000a900473ffffffffffffffffffffffffffffffffffffffff1673ffffffffffffffffffffffffffffffffffffffff166323b872dd3330846040518463ffffffff1660e01b8152600401808473ffffffffffffffffffffffffffffffffffffffff1673ffffffffffffffffffffffffffffffffffffffff1681526020018373ffffffffffffffffffffffffffffffffffffffff1673ffffffffffffffffffffffffffffffffffffffff1681526020018281526020019350505050602060405180830381600087803b158015610a7657600080fd5b505af1158015610a8a573d6000803e3d6000fd5b505050506040513d6020811015610aa057600080fd5b8101908080519060200190929190505050610aba57600080fd5b80600b600101600082825401925050819055507f71eb3e5df75ef293b81b4c7b38db51f7a6cec007d12529cb74d4eafb7fa53222816040518082815260200191505060405180910390a150565b6000600160020154905090565b6000600660010154905090565b6000806000808473ffffffffffffffffffffffffffffffffffffffff1673ffffffffffffffffffffffffffffffffffffffff168152602001908152602001600020600101541415610b755760009050610c37565b610c346006600201546103e86006600101546000808773ffffffffffffffffffffffffffffffffffffffff1673ffffffffffffffffffffffffffffffffffffffff16815260200190815260200160002060000154020281610bd257fe5b046001600201546103e860018001546000808873ffffffffffffffffffffffffffffffffffffffff1673ffffffffffffffffffffffffffffffffffffffff16815260200190815260200160002060010154020281610c2c57fe5b046004612e5c565b90505b919050565b6000600b60050154905090565b6064600b6004015402610c5b82610b21565b10610cce576040517f08c379a000000000000000000000000000000000000000000000000000000000815260040180806020018281038252601d8152602001807f5641554c54204e4f5420554e444552434f4c4c41544552414c495a454400000081525060200191505060405180910390fd5b6000606480600b6005015460646000808773ffffffffffffffffffffffffffffffffffffffff1673ffffffffffffffffffffffffffffffffffffffff16815260200190815260200160002060010154020281610d2657fe5b0481610d2e57fe5b046000808473ffffffffffffffffffffffffffffffffffffffff1673ffffffffffffffffffffffffffffffffffffffff1681526020019081526020016000206001015401905060006006600101546001800154830281610d8a57fe5b04905080600b60000160008282540192505081905550806000808573ffffffffffffffffffffffffffffffffffffffff1673ffffffffffffffffffffffffffffffffffffffff1681526020019081526020016000206000016000828254039250508190555060008060008573ffffffffffffffffffffffffffffffffffffffff1673ffffffffffffffffffffffffffffffffffffffff16815260200190815260200160002060010181905550505050565b6000600660020154905090565b6000806000610e578442611770565b9250925092509193909250565b610e6c6120ab565b610ede576040517f08c379a00000000000000000000000000000000000000000000000000000000081526004018080602001828103825260208152602001807f4f776e61626c653a2063616c6c6572206973206e6f7420746865206f776e657281525060200191505060405180910390fd5b80600b600001541015610f59576040517f08c379a00000000000000000000000000000000000000000000000000000000081526004018080602001828103825260208152602001807f4e4f5420454e4f55474820434f4c4c41544552414c20494e205245534552564581525060200191505060405180910390fd5b600660000160009054906101000a900473ffffffffffffffffffffffffffffffffffffffff1673ffffffffffffffffffffffffffffffffffffffff1663a9059cbb33836040518363ffffffff1660e01b8152600401808373ffffffffffffffffffffffffffffffffffffffff1673ffffffffffffffffffffffffffffffffffffffff16815260200182815260200192505050602060405180830381600087803b15801561100557600080fd5b505af1158015611019573d6000803e3d6000fd5b505050506040513d602081101561102f57600080fd5b810190808051906020019092919050505061104957600080fd5b80600b600001600082825403925050819055507f0529afc4538720fe0b3eadc40486369ab962002d72fead1387b300c66073e7bf600660000160009054906101000a900473ffffffffffffffffffffffffffffffffffffffff1682604051808373ffffffffffffffffffffffffffffffffffffffff1673ffffffffffffffffffffffffffffffffffffffff1681526020018281526020019250505060405180910390a150565b60008060003373ffffffffffffffffffffffffffffffffffffffff1673ffffffffffffffffffffffffffffffffffffffff16815260200190815260200160002060010154146111865761114061219c565b6000803373ffffffffffffffffffffffffffffffffffffffff1673ffffffffffffffffffffffffffffffffffffffff168152602001908152602001600020600101819055505b60006064600b6004015460018001546006600101546000803373ffffffffffffffffffffffffffffffffffffffff1673ffffffffffffffffffffffffffffffffffffffff1681526020019081526020016000206000015402816111e557fe5b04816111ed57fe5b0402905060016002015481029050600660020154818161120957fe5b0490506000803373ffffffffffffffffffffffffffffffffffffffff1673ffffffffffffffffffffffffffffffffffffffff16815260200190815260200160002060010154810390508082106112c7576040517f08c379a00000000000000000000000000000000000000000000000000000000081526004018080602001828103825260158152602001807f4e4f5420454e4f55474820434f4c4c41544552414c000000000000000000000081525060200191505060405180910390fd5b600b60010154821115611342576040517f08c379a00000000000000000000000000000000000000000000000000000000081526004018080602001828103825260138152602001807f4e4f5420454e4f5547482052455345525645530000000000000000000000000081525060200191505060405180910390fd5b6064600b6003015483028161135357fe5b0482016000803373ffffffffffffffffffffffffffffffffffffffff1673ffffffffffffffffffffffffffffffffffffffff16815260200190815260200160002060010160008282540192505081905550426000803373ffffffffffffffffffffffffffffffffffffffff1673ffffffffffffffffffffffffffffffffffffffff1681526020019081526020016000206002018190555081600b60010160008282540392505081905550600160000160009054906101000a900473ffffffffffffffffffffffffffffffffffffffff1673ffffffffffffffffffffffffffffffffffffffff1663a9059cbb33846040518363ffffffff1660e01b8152600401808373ffffffffffffffffffffffffffffffffffffffff1673ffffffffffffffffffffffffffffffffffffffff16815260200182815260200192505050602060405180830381600087803b1580156114a957600080fd5b505af11580156114bd573d6000803e3d6000fd5b505050506040513d60208110156114d357600080fd5b81019080805190602001909291905050506114ed57600080fd5b7f0232862a021d33ea4a70f5d509b754f0f6986aaa0ffdd5c7db4910422afc768a3383604051808373ffffffffffffffffffffffffffffffffffffffff1673ffffffffffffffffffffffffffffffffffffffff1681526020018281526020019250505060405180910390a15050565b6000600b60020154905090565b601560009054906101000a900473ffffffffffffffffffffffffffffffffffffffff1681565b600660000160009054906101000a900473ffffffffffffffffffffffffffffffffffffffff1673ffffffffffffffffffffffffffffffffffffffff166323b872dd3330846040518463ffffffff1660e01b8152600401808473ffffffffffffffffffffffffffffffffffffffff1673ffffffffffffffffffffffffffffffffffffffff1681526020018373ffffffffffffffffffffffffffffffffffffffff1673ffffffffffffffffffffffffffffffffffffffff1681526020018281526020019350505050602060405180830381600087803b15801561166f57600080fd5b505af1158015611683573d6000803e3d6000fd5b505050506040513d602081101561169957600080fd5b81019080805190602001909291905050506116b357600080fd5b806000803373ffffffffffffffffffffffffffffffffffffffff1673ffffffffffffffffffffffffffffffffffffffff168152602001908152602001600020600001600082825401925050819055507f89d28cf06bdb2ee1b92cd046d58450042ad113e9f4cdabfc4d43e7c5557758d73382604051808373ffffffffffffffffffffffffffffffffffffffff1673ffffffffffffffffffffffffffffffffffffffff1681526020018281526020019250505060405180910390a150565b600080600080601660009054906101000a900473ffffffffffffffffffffffffffffffffffffffff1673ffffffffffffffffffffffffffffffffffffffff166346eee1c4876040518263ffffffff1660e01b81526004018082815260200191505060206040518083038186803b1580156117e957600080fd5b505afa1580156117fd573d6000803e3d6000fd5b505050506040513d602081101561181357600080fd5b810190808051906020019092919050505090506000811115611aaa576000600190505b8181116119da576000601660009054906101000a900473ffffffffffffffffffffffffffffffffffffffff1673ffffffffffffffffffffffffffffffffffffffff166377fbb66389600185036040518363ffffffff1660e01b8152600401808381526020018281526020019250505060206040518083038186803b1580156118bd57600080fd5b505afa1580156118d1573d6000803e3d6000fd5b505050506040513d60208110156118e757600080fd5b810190808051906020019092919050505090508681111580156119c3575060001515601660009054906101000a900473ffffffffffffffffffffffffffffffffffffffff1673ffffffffffffffffffffffffffffffffffffffff16633df0777b8a846040518363ffffffff1660e01b8152600401808381526020018281526020019250505060206040518083038186803b15801561198457600080fd5b505afa158015611998573d6000803e3d6000fd5b505050506040513d60208110156119ae57600080fd5b81019080805190602001909291905050501515145b156119cc578093505b508080600101915050611836565b506000821115611aa9576001601660009054906101000a900473ffffffffffffffffffffffffffffffffffffffff1673ffffffffffffffffffffffffffffffffffffffff166393fa491588856040518363ffffffff1660e01b8152600401808381526020018281526020019250505060206040518083038186803b158015611a6157600080fd5b505afa158015611a75573d6000803e3d6000fd5b505050506040513d6020811015611a8b57600080fd5b81019080805190602001909291905050508393509350935050611abd565b5b6000806000819150809050935093509350505b9250925092565b600080611ad5600160030154610e48565b6001800160008295508391905055829450505050611af7600660030154610e48565b6006600101600082955083919050558294505050505050565b60008060003373ffffffffffffffffffffffffffffffffffffffff1673ffffffffffffffffffffffffffffffffffffffff16815260200190815260200160002060010154905090565b6000600660000160009054906101000a900473ffffffffffffffffffffffffffffffffffffffff16905090565b611b8e6120ab565b611c00576040517f08c379a00000000000000000000000000000000000000000000000000000000081526004018080602001828103825260208152602001807f4f776e61626c653a2063616c6c6572206973206e6f7420746865206f776e657281525060200191505060405180910390fd5b600073ffffffffffffffffffffffffffffffffffffffff16601360009054906101000a900473ffffffffffffffffffffffffffffffffffffffff1673ffffffffffffffffffffffffffffffffffffffff167f8be0079c531659141344cd1fd0a4f28419497f9722a3daafe3b4186f6b6457e060405160405180910390a36000601360006101000a81548173ffffffffffffffffffffffffffffffffffffffff021916908373ffffffffffffffffffffffffffffffffffffffff160217905550565b611cc961219c565b6000803373ffffffffffffffffffffffffffffffffffffffff1673ffffffffffffffffffffffffffffffffffffffff168152602001908152602001600020600101819055506000803373ffffffffffffffffffffffffffffffffffffffff1673ffffffffffffffffffffffffffffffffffffffff16815260200190815260200160002060010154811115611dc5576040517f08c379a000000000000000000000000000000000000000000000000000000000815260040180806020018281038252601b8152602001807f43414e4e4f54205245504159204d4f5245205448414e204f574544000000000081525060200191505060405180910390fd5b600160000160009054906101000a900473ffffffffffffffffffffffffffffffffffffffff1673ffffffffffffffffffffffffffffffffffffffff166323b872dd3330846040518463ffffffff1660e01b8152600401808473ffffffffffffffffffffffffffffffffffffffff1673ffffffffffffffffffffffffffffffffffffffff1681526020018373ffffffffffffffffffffffffffffffffffffffff1673ffffffffffffffffffffffffffffffffffffffff1681526020018281526020019350505050602060405180830381600087803b158015611ea557600080fd5b505af1158015611eb9573d6000803e3d6000fd5b505050506040513d6020811015611ecf57600080fd5b8101908080519060200190929190505050611ee957600080fd5b806000803373ffffffffffffffffffffffffffffffffffffffff1673ffffffffffffffffffffffffffffffffffffffff1681526020019081526020016000206001016000828254039250508190555080600b600101600082825401925050819055506000600b600701546000803373ffffffffffffffffffffffffffffffffffffffff1673ffffffffffffffffffffffffffffffffffffffff1681526020019081526020016000206002015481611f9c57fe5b04600b600701544281611fab57fe5b04039050600b6007015481026000803373ffffffffffffffffffffffffffffffffffffffff1673ffffffffffffffffffffffffffffffffffffffff168152602001908152602001600020600201600082825401925050819055507f34d657cd4dec79d6716ce5ac15b81de5751705030cbef01b43b15eae44cbc1123383604051808373ffffffffffffffffffffffffffffffffffffffff1673ffffffffffffffffffffffffffffffffffffffff1681526020018281526020019250505060405180910390a15050565b6000600b60040154905090565b6000601360009054906101000a900473ffffffffffffffffffffffffffffffffffffffff16905090565b6000601360009054906101000a900473ffffffffffffffffffffffffffffffffffffffff1673ffffffffffffffffffffffffffffffffffffffff163373ffffffffffffffffffffffffffffffffffffffff1614905090565b60006020528060005260406000206000915090508060000154908060010154908060020154905083565b601460009054906101000a900473ffffffffffffffffffffffffffffffffffffffff1681565b60008060003373ffffffffffffffffffffffffffffffffffffffff1673ffffffffffffffffffffffffffffffffffffffff16815260200190815260200160002060000154905090565b60008060003373ffffffffffffffffffffffffffffffffffffffff1673ffffffffffffffffffffffffffffffffffffffff1681526020019081526020016000206001015490506000600b600701546000803373ffffffffffffffffffffffffffffffffffffffff1673ffffffffffffffffffffffffffffffffffffffff168152602001908152602001600020600201548161223357fe5b0490505b600b60070154428161224557fe5b0481101561227b5761016d6064600b6002015484028161226157fe5b048161226957fe5b04820191508080600101915050612237565b5090565b600073ffffffffffffffffffffffffffffffffffffffff16601560009054906101000a900473ffffffffffffffffffffffffffffffffffffffff1673ffffffffffffffffffffffffffffffffffffffff1614612343576040517f08c379a000000000000000000000000000000000000000000000000000000000815260040180806020018281038252600b8152602001807f416c72656164792053657400000000000000000000000000000000000000000081525060200191505060405180910390fd5b80601560006101000a81548173ffffffffffffffffffffffffffffffffffffffff021916908373ffffffffffffffffffffffffffffffffffffffff16021790555080601760006101000a81548173ffffffffffffffffffffffffffffffffffffffff021916908373ffffffffffffffffffffffffffffffffffffffff1602179055507f5c6c85f31e475f047482022539bfe2a3941c15e582053b7420f22e5e8cc5d7f681604051808273ffffffffffffffffffffffffffffffffffffffff1673ffffffffffffffffffffffffffffffffffffffff16815260200191505060405180910390a150565b60006001800154905090565b6000600b60010154905090565b6000600160000160009054906101000a900473ffffffffffffffffffffffffffffffffffffffff16905090565b6124796120ab565b6124eb576040517f08c379a00000000000000000000000000000000000000000000000000000000081526004018080602001828103825260208152602001807f4f776e61626c653a2063616c6c6572206973206e6f7420746865206f776e657281525060200191505060405180910390fd5b80600b600101541015612549576040517f08c379a0000000000000000000000000000000000000000000000000000000008152600401808060200182810382526021815260200180612ff36021913960400191505060405180910390fd5b600160000160009054906101000a900473ffffffffffffffffffffffffffffffffffffffff1673ffffffffffffffffffffffffffffffffffffffff1663a9059cbb33836040518363ffffffff1660e01b8152600401808373ffffffffffffffffffffffffffffffffffffffff1673ffffffffffffffffffffffffffffffffffffffff16815260200182815260200192505050602060405180830381600087803b1580156125f557600080fd5b505af1158015612609573d6000803e3d6000fd5b505050506040513d602081101561261f57600080fd5b810190808051906020019092919050505061263957600080fd5b80600b600101600082825403925050819055507f0529afc4538720fe0b3eadc40486369ab962002d72fead1387b300c66073e7bf600160000160009054906101000a900473ffffffffffffffffffffffffffffffffffffffff1682604051808373ffffffffffffffffffffffffffffffffffffffff1673ffffffffffffffffffffffffffffffffffffffff1681526020018281526020019250505060405180910390a150565b6126e76120ab565b612759576040517f08c379a00000000000000000000000000000000000000000000000000000000081526004018080602001828103825260208152602001807f4f776e61626c653a2063616c6c6572206973206e6f7420746865206f776e657281525060200191505060405180910390fd5b61276281612e86565b50565b600080600080601760009054906101000a900473ffffffffffffffffffffffffffffffffffffffff1673ffffffffffffffffffffffffffffffffffffffff1663c4e9e950866040518263ffffffff1660e01b81526004018082815260200191505060206040518083038186803b1580156127de57600080fd5b505afa1580156127f2573d6000803e3d6000fd5b505050506040513d602081101561280857600080fd5b810190808051906020019092919050505090506000601760009054906101000a900473ffffffffffffffffffffffffffffffffffffffff1673ffffffffffffffffffffffffffffffffffffffff166373b33318876040518263ffffffff1660e01b81526004018082815260200191505060206040518083038186803b15801561289057600080fd5b505afa1580156128a4573d6000803e3d6000fd5b505050506040513d60208110156128ba57600080fd5b810190808051906020019092919050505090506000821115612a825760008060006128e58542611770565b80935081945082955050505082156129ba5783820281601760009054906101000a900473ffffffffffffffffffffffffffffffffffffffff1673ffffffffffffffffffffffffffffffffffffffff166367cfa3f860016040518263ffffffff1660e01b81526004018082815260200191505060206040518083038186803b15801561296f57600080fd5b505afa158015612983573d6000803e3d6000fd5b505050506040513d602081101561299957600080fd5b81019080805190602001909291905050509750975097505050505050612b43565b600080601760009054906101000a900473ffffffffffffffffffffffffffffffffffffffff1673ffffffffffffffffffffffffffffffffffffffff166367cfa3f860026040518263ffffffff1660e01b81526004018082815260200191505060206040518083038186803b158015612a3157600080fd5b505afa158015612a45573d6000803e3d6000fd5b505050506040513d6020811015612a5b57600080fd5b81019080805190602001909291905050508292508191509750975097505050505050612b43565b600080601760009054906101000a900473ffffffffffffffffffffffffffffffffffffffff1673ffffffffffffffffffffffffffffffffffffffff166367cfa3f860006040518263ffffffff1660e01b81526004018082815260200191505060206040518083038186803b158015612af957600080fd5b505afa158015612b0d573d6000803e3d6000fd5b505050506040513d6020811015612b2357600080fd5b810190808051906020019092919050505082925081915094509450945050505b9193909250565b6000600b60000154905090565b60006064600b600401546001800154600660010154856000803373ffffffffffffffffffffffffffffffffffffffff1673ffffffffffffffffffffffffffffffffffffffff16815260200190815260200160002060000154030281612bb857fe5b0481612bc057fe5b04029050600160020154810290506006600201548181612bdc57fe5b049050806000803373ffffffffffffffffffffffffffffffffffffffff1673ffffffffffffffffffffffffffffffffffffffff168152602001908152602001600020600101541115612c96576040517f08c379a000000000000000000000000000000000000000000000000000000000815260040180806020018281038252601f8152602001807f43414e4e4f5420554e444552434f4c4c41544552414c495a45205641554c540081525060200191505060405180910390fd5b600660000160009054906101000a900473ffffffffffffffffffffffffffffffffffffffff1673ffffffffffffffffffffffffffffffffffffffff1663a9059cbb33846040518363ffffffff1660e01b8152600401808373ffffffffffffffffffffffffffffffffffffffff1673ffffffffffffffffffffffffffffffffffffffff16815260200182815260200192505050602060405180830381600087803b158015612d4257600080fd5b505af1158015612d56573d6000803e3d6000fd5b505050506040513d6020811015612d6c57600080fd5b8101908080519060200190929190505050612d8657600080fd5b816000803373ffffffffffffffffffffffffffffffffffffffff1673ffffffffffffffffffffffffffffffffffffffff1681526020019081526020016000206000016000828254039250508190555081600b600001600082825403925050819055507ff832ce844512907ab1b857d63eb3c9ae0a77839589762d0396db214e9f03a3b933604051808273ffffffffffffffffffffffffffffffffffffffff1673ffffffffffffffffffffffffffffffffffffffff16815260200191505060405180910390a15050565b6000600b60030154905090565b6000600a60058460018501600a0a870281612e7357fe5b040181612e7c57fe5b0490509392505050565b600073ffffffffffffffffffffffffffffffffffffffff168173ffffffffffffffffffffffffffffffffffffffff161415612f0c576040517f08c379a0000000000000000000000000000000000000000000000000000000008152600401808060200182810382526026815260200180612fcd6026913960400191505060405180910390fd5b8073ffffffffffffffffffffffffffffffffffffffff16601360009054906101000a900473ffffffffffffffffffffffffffffffffffffffff1673ffffffffffffffffffffffffffffffffffffffff167f8be0079c531659141344cd1fd0a4f28419497f9722a3daafe3b4186f6b6457e060405160405180910390a380601360006101000a81548173ffffffffffffffffffffffffffffffffffffffff021916908373ffffffffffffffffffffffffffffffffffffffff1602179055505056fe4f776e61626c653a206e6577206f776e657220697320746865207a65726f20616464726573734e4f5420454e4f554748204445425420544f4b454e5320494e2052455345525645a265627a7a72315820d620301728756d3d9ce8f095f7a177fd19ce23f1a1a230802304e52dbeeea0e664736f6c63430005100032",
  "source": "pragma solidity ^0.5.0;\n\nimport \"./BankStorage.sol\";\nimport \"@openzeppelin/contracts/token/ERC20/IERC20.sol\";\nimport \"@openzeppelin/contracts/ownership/Ownable.sol\";\n\n/**\n* @title Bank\n* This contract allows the owner to deposit reserves(debt token), earn interest and\n* origination fees from users that borrow against their collateral.\n* The oracle for Bank is Tellor.\n*/\ncontract Bank is BankStorage, Ownable, UsingTellor {\n  /*Events*/\n  event ReserveDeposit(uint256 amount);\n  event ReserveWithdraw(address token, uint256 amount);\n  event VaultDeposit(address owner, uint256 amount);\n  event VaultBorrow(address borrower, uint256 amount);\n  event VaultRepay(address borrower, uint256 amount);\n  event VaultWithdraw(address borrower);\n\n  /*Constructor*/\n  constructor(\n    uint256 interestRate,\n    uint256 originationFee,\n    uint256 collateralizationRatio,\n    uint256 liquidationPenalty,\n    uint256 period,\n    address collateralToken,\n    uint256 collateralTokenTellorRequestId,\n    uint256 collateralTokenPriceGranularity,\n    uint256 collateralTokenPrice,\n    address debtToken,\n    uint256 debtTokenTellorRequestId,\n    uint256 debtTokenPriceGranularity,\n    uint256 debtTokenPrice,\n    address payable oracleContract ) public UsingTellor(oracleContract) {\n    reserve.interestRate = interestRate;\n    reserve.originationFee = originationFee;\n    reserve.collateralizationRatio = collateralizationRatio;\n    reserve.liquidationPenalty = liquidationPenalty;\n    reserve.period = period;\n    collateral.tokenAddress = collateralToken;\n    debt.tokenAddress = debtToken;\n    reserve.oracleContract = oracleContract;\n    debt.price = debtTokenPrice;\n    debt.priceGranularity = debtTokenPriceGranularity;\n    debt.tellorRequestId = debtTokenTellorRequestId;\n    collateral.price = collateralTokenPrice;\n    collateral.priceGranularity = collateralTokenPriceGranularity;\n    collateral.tellorRequestId = collateralTokenTellorRequestId;\n  }\n\n  /*Functions*/\n  /**\n  * @dev This function allows the Bank owner to deposit the reserve (debt tokens)\n  * @param amount is the amount to deposit\n  */\n  function reserveDeposit(uint256 amount) external onlyOwner {\n    require(IERC20(debt.tokenAddress).transferFrom(msg.sender, address(this), amount));\n    reserve.debtBalance += amount;\n    emit ReserveDeposit(amount);\n  }\n\n  /**\n  * @dev This function allows the Bank owner to withdraw the reserve (debt tokens)\n  * @param amount is the amount to withdraw\n  */\n  function reserveWithdraw(uint256 amount) external onlyOwner {\n    require(reserve.debtBalance >= amount, \"NOT ENOUGH DEBT TOKENS IN RESERVE\");\n    require(IERC20(debt.tokenAddress).transfer(msg.sender, amount));\n    reserve.debtBalance -= amount;\n    emit ReserveWithdraw(debt.tokenAddress, amount);\n  }\n\n  /**\n  * @dev This function allows the user to withdraw their collateral\n  * @param amount is the amount to withdraw\n  */\n  function reserveWithdrawCollateral(uint256 amount) external onlyOwner {\n    require(reserve.collateralBalance >= amount, \"NOT ENOUGH COLLATERAL IN RESERVE\");\n    require(IERC20(collateral.tokenAddress).transfer(msg.sender, amount));\n    reserve.collateralBalance -= amount;\n    emit ReserveWithdraw(collateral.tokenAddress, amount);\n  }\n\n  /**\n  * @dev Use this function to get and update the price for the collateral and debt token\n  * using the Tellor Oracle.\n  */\n  function updatePrice() external {\n    bool ifRetrieve;\n    uint256 _timestampRetrieved;\n    (ifRetrieve, debt.price, _timestampRetrieved) = getCurrentValue(debt.tellorRequestId); //,now - 1 hours);\n    (ifRetrieve, collateral.price, _timestampRetrieved) = getCurrentValue(collateral.tellorRequestId); //,now - 1 hours);\n  }\n\n  /**\n  * @dev Anyone can use this function to liquidate a vault's debt, the bank owner gets the collateral liquidated\n  * @param vaultOwner is the user the bank owner wants to liquidate\n  */\n  function liquidate(address vaultOwner) external {\n    // Require undercollateralization\n    require(getVaultCollateralizationRatio(vaultOwner) < reserve.collateralizationRatio * 100, \"VAULT NOT UNDERCOLLATERALIZED\");\n    uint256 debtOwned = vaults[vaultOwner].debtAmount + (vaults[vaultOwner].debtAmount * 100 * reserve.liquidationPenalty / 100 / 100);\n    uint256 collateralToLiquidate = debtOwned * debt.price / collateral.price;\n    reserve.collateralBalance +=  collateralToLiquidate;\n    vaults[vaultOwner].collateralAmount -= collateralToLiquidate;\n    vaults[vaultOwner].debtAmount = 0;\n  }\n\n\n  /**\n  * @dev Use this function to allow users to deposit collateral to the vault\n  * @param amount is the collateral amount\n  */\n  function vaultDeposit(uint256 amount) external {\n    require(IERC20(collateral.tokenAddress).transferFrom(msg.sender, address(this), amount));\n    vaults[msg.sender].collateralAmount += amount;\n    emit VaultDeposit(msg.sender, amount);\n  }\n\n  /**\n  * @dev Use this function to allow users to borrow against their collateral\n  * @param amount to borrow\n  */\n  function vaultBorrow(uint256 amount) external {\n    if (vaults[msg.sender].debtAmount != 0) {\n      vaults[msg.sender].debtAmount = getVaultRepayAmount();\n    }\n    uint256 maxBorrow = vaults[msg.sender].collateralAmount * collateral.price / debt.price / reserve.collateralizationRatio * 100;\n    maxBorrow *= debt.priceGranularity;\n    maxBorrow /= collateral.priceGranularity;\n    maxBorrow -= vaults[msg.sender].debtAmount;\n    require(amount < maxBorrow, \"NOT ENOUGH COLLATERAL\");\n    require(amount <= reserve.debtBalance, \"NOT ENOUGH RESERVES\");\n    vaults[msg.sender].debtAmount += amount + ((amount * reserve.originationFee) / 100);\n    vaults[msg.sender].createdAt = block.timestamp;\n    reserve.debtBalance -= amount;\n    require(IERC20(debt.tokenAddress).transfer(msg.sender, amount));\n    emit VaultBorrow(msg.sender, amount);\n  }\n\n  /**\n  * @dev This function allows users to pay the interest and origination fee to the\n  *  vault before being able to withdraw\n  * @param amount owed\n  */\n  function vaultRepay(uint256 amount) external {\n    vaults[msg.sender].debtAmount = getVaultRepayAmount();\n    require(amount <= vaults[msg.sender].debtAmount, \"CANNOT REPAY MORE THAN OWED\");//I get that they should not pay more than they owe\n    //but there is no harm if they do, then just allow them to  withdraw so long as debt< 0\n    require(IERC20(debt.tokenAddress).transferFrom(msg.sender, address(this), amount));\n    vaults[msg.sender].debtAmount -= amount;\n    reserve.debtBalance += amount;\n    uint256 periodsElapsed = (block.timestamp / reserve.period) - (vaults[msg.sender].createdAt / reserve.period);\n    vaults[msg.sender].createdAt += periodsElapsed * reserve.period;\n    emit VaultRepay(msg.sender, amount);\n  }\n\n  /**\n  * @dev Allows users to withdraw their collateral from the vault\n  */\n  function vaultWithdraw(uint256 amount) external {\n    uint256 maxBorrowAfterWithdraw = (vaults[msg.sender].collateralAmount - amount) * collateral.price / debt.price / reserve.collateralizationRatio * 100;\n    maxBorrowAfterWithdraw *= debt.priceGranularity;\n    maxBorrowAfterWithdraw /= collateral.priceGranularity;\n    require(vaults[msg.sender].debtAmount <= maxBorrowAfterWithdraw, \"CANNOT UNDERCOLLATERALIZE VAULT\");\n    require(IERC20(collateral.tokenAddress).transfer(msg.sender, amount));\n    vaults[msg.sender].collateralAmount -= amount;\n    reserve.collateralBalance -= amount;\n    emit VaultWithdraw(msg.sender);\n  }\n\n  /**\n  * @dev Allows the user to get the first value for the requestId after the specified timestamp\n  * @param _requestId is the requestId to look up the value for\n  * @param _timestamp after which to search for first verified value\n  * @return bool true if it is able to retreive a value, the value, and the value's timestamp\n  */\n  function getDataBefore(uint256 _requestId, uint256 _timestamp)\n      public\n      view\n      returns (bool _ifRetrieve, uint256 _value, uint256 _timestampRetrieved)\n  {\n      uint256 _count = _tellorm.getNewValueCountbyRequestId(_requestId);\n      if (_count > 0) {\n          for (uint256 i = 1; i <= _count; i++) {\n              uint256 _time = _tellorm.getTimestampbyRequestIDandIndex(_requestId, i - 1);\n              if (_time <= _timestamp && _tellorm.isInDispute(_requestId,_time) == false) {\n                  _timestampRetrieved = _time;\n              }\n          }\n          if (_timestampRetrieved > 0) {\n              return (true, _tellorm.retrieveData(_requestId, _timestampRetrieved), _timestampRetrieved);\n          }\n      }\n      return (false, 0, 0);\n  }\n\n}\n",
  "sourcePath": "/Users/mikeghen/Documents/Projects/bank/contracts/Bank.sol",
  "compiler": {
    "name": "solc",
    "version": "0.5.16+commit.9c3226ce.Emscripten.clang"
  },
  "schemaVersion": "3.2.0",
  "updatedAt": "2020-06-21T22:02:25.523Z",
  "networkType": "ethereum",
  "devdoc": {
    "methods": {
      "getCollateralTokenAddress()": {
        "details": "Getter function for debt token address",
        "return": "debt token price"
      },
      "getCollateralTokenPrice()": {
        "details": "Getter function for the collateral token price",
        "return": "collateral token price"
      },
      "getCollateralTokenPriceGranularity()": {
        "details": "Getter function for the collateral token price granularity",
        "return": "collateral token price granularity"
      },
      "getCollateralizationRatio()": {
        "details": "Getter function for the current collateralization ratio",
        "return": "collateralization ratio"
      },
      "getCurrentValue(uint256)": {
        "details": "Allows the user to get the latest value for the requestId specified",
        "params": {
          "_requestId": "is the requestId to look up the value for"
        },
        "return": "bool true if it is able to retreive a value, the value, and the value's timestamp"
      },
      "getDataBefore(uint256,uint256)": {
        "details": "Allows the user to get the first value for the requestId after the specified timestamp",
        "params": {
          "_requestId": "is the requestId to look up the value for",
          "_timestamp": "after which to search for first verified value"
        },
        "return": "bool true if it is able to retreive a value, the value, and the value's timestamp"
      },
      "getDebtTokenAddress()": {
        "details": "Getter function for debt token address",
        "return": "debt token price"
      },
      "getDebtTokenPrice()": {
        "details": "Getter function for the debt token(reserve) price",
        "return": "debt token price"
      },
      "getDebtTokenPriceGranularity()": {
        "details": "Getter function for the debt token price granularity",
        "return": "debt token price granularity"
      },
      "getInterestRate()": {
        "details": "Getter function for the current interest rate",
        "return": "interest rate"
      },
      "getLiquidationPenalty()": {
        "details": "Getter function for the liquidation penalty",
        "return": "liquidation penalty"
      },
      "getOriginationFee()": {
        "details": "Getter function for the origination fee",
        "return": "origination fee"
      },
      "getReserveBalance()": {
        "details": "Getter function for the debt token(reserve) balance",
        "return": "debt reserve balance"
      },
      "getReserveCollateralBalance()": {
        "details": "Getter function for the debt reserve collateral balance",
        "return": "collateral reserve balance"
      },
      "getVaultCollateralAmount()": {
        "details": "Getter function for the user's vault collateral amount",
        "return": "collateral amount"
      },
      "getVaultCollateralizationRatio(address)": {
        "details": "Getter function for the collateralization ratio",
        "return": "collateralization ratio"
      },
      "getVaultDebtAmount()": {
        "details": "Getter function for the user's vault debt amount",
        "return": "debt amount"
      },
      "getVaultRepayAmount()": {
        "details": "Getter function for the user's vault debt amount",
        "return": "debt amount"
      },
      "isOwner()": {
        "details": "Returns true if the caller is the current owner."
      },
      "liquidate(address)": {
        "details": "Anyone can use this function to liquidate a vault's debt, the bank owner gets the collateral liquidated",
        "params": {
          "vaultOwner": "is the user the bank owner wants to liquidate"
        }
      },
      "owner()": {
        "details": "Returns the address of the current owner."
      },
      "renounceOwnership()": {
        "details": "Leaves the contract without owner. It will not be possible to call `onlyOwner` functions anymore. Can only be called by the current owner.     * > Note: Renouncing ownership will leave the contract without an owner, thereby removing any functionality that is only available to the owner."
      },
      "reserveDeposit(uint256)": {
        "details": "This function allows the Bank owner to deposit the reserve (debt tokens)",
        "params": {
          "amount": "is the amount to deposit"
        }
      },
      "reserveWithdraw(uint256)": {
        "details": "This function allows the Bank owner to withdraw the reserve (debt tokens)",
        "params": {
          "amount": "is the amount to withdraw"
        }
      },
      "reserveWithdrawCollateral(uint256)": {
        "details": "This function allows the user to withdraw their collateral",
        "params": {
          "amount": "is the amount to withdraw"
        }
      },
      "transferOwnership(address)": {
        "details": "Transfers ownership of the contract to a new account (`newOwner`). Can only be called by the current owner."
      },
      "updatePrice()": {
        "details": "Use this function to get and update the price for the collateral and debt token using the Tellor Oracle."
      },
      "valueFor(bytes32)": {
        "details": "Allows the user to get the latest value for the requestId specified using the  ADO specification for the standard inteface for price oracles",
        "params": {
          "_bytesId": "is the ADO standarized bytes32 price/key value pair identifier"
        },
        "return": "the timestamp, outcome or value/ and the status code (for retreived, null, etc...)"
      },
      "vaultBorrow(uint256)": {
        "details": "Use this function to allow users to borrow against their collateral",
        "params": {
          "amount": "to borrow"
        }
      },
      "vaultDeposit(uint256)": {
        "details": "Use this function to allow users to deposit collateral to the vault",
        "params": {
          "amount": "is the collateral amount"
        }
      },
      "vaultRepay(uint256)": {
        "details": "This function allows users to pay the interest and origination fee to the vault before being able to withdraw",
        "params": {
          "amount": "owed"
        }
      },
      "vaultWithdraw(uint256)": {
        "details": "Allows users to withdraw their collateral from the vault"
      }
    },
    "title": "Bank This contract allows the owner to deposit reserves(debt token), earn interest and origination fees from users that borrow against their collateral. The oracle for Bank is Tellor."
  },
  "userdoc": {
    "methods": {}
  }
}