{
  "contractName": "Bank",
  "abi": [
    {
      "inputs": [
        {
          "internalType": "uint256",
          "name": "interestRate",
          "type": "uint256"
        },
        {
          "internalType": "uint256",
          "name": "originationFee",
          "type": "uint256"
        },
        {
          "internalType": "uint256",
          "name": "collateralizationRatio",
          "type": "uint256"
        },
        {
          "internalType": "uint256",
          "name": "liquidationPenalty",
          "type": "uint256"
        },
        {
          "internalType": "uint256",
          "name": "period",
          "type": "uint256"
        },
        {
          "internalType": "address",
          "name": "collateralToken",
          "type": "address"
        },
        {
          "internalType": "uint256",
          "name": "collateralTokenTellorRequestId",
          "type": "uint256"
        },
        {
          "internalType": "uint256",
          "name": "collateralTokenPriceGranularity",
          "type": "uint256"
        },
        {
          "internalType": "uint256",
          "name": "collateralTokenPrice",
          "type": "uint256"
        },
        {
          "internalType": "address",
          "name": "debtToken",
          "type": "address"
        },
        {
          "internalType": "uint256",
          "name": "debtTokenTellorRequestId",
          "type": "uint256"
        },
        {
          "internalType": "uint256",
          "name": "debtTokenPriceGranularity",
          "type": "uint256"
        },
        {
          "internalType": "uint256",
          "name": "debtTokenPrice",
          "type": "uint256"
        },
        {
          "internalType": "address payable",
          "name": "oracleContract",
          "type": "address"
        }
      ],
      "payable": false,
      "stateMutability": "nonpayable",
      "type": "constructor"
    },
    {
      "anonymous": false,
      "inputs": [
        {
          "indexed": false,
          "internalType": "address",
          "name": "_descriptorSet",
          "type": "address"
        }
      ],
      "name": "NewDescriptorSet",
      "type": "event"
    },
    {
      "anonymous": false,
      "inputs": [
        {
          "indexed": true,
          "internalType": "address",
          "name": "previousOwner",
          "type": "address"
        },
        {
          "indexed": true,
          "internalType": "address",
          "name": "newOwner",
          "type": "address"
        }
      ],
      "name": "OwnershipTransferred",
      "type": "event"
    },
    {
      "anonymous": false,
      "inputs": [
        {
          "indexed": false,
          "internalType": "uint256",
          "name": "amount",
          "type": "uint256"
        }
      ],
      "name": "ReserveDeposit",
      "type": "event"
    },
    {
      "anonymous": false,
      "inputs": [
        {
          "indexed": false,
          "internalType": "address",
          "name": "token",
          "type": "address"
        },
        {
          "indexed": false,
          "internalType": "uint256",
          "name": "amount",
          "type": "uint256"
        }
      ],
      "name": "ReserveWithdraw",
      "type": "event"
    },
    {
      "anonymous": false,
      "inputs": [
        {
          "indexed": false,
          "internalType": "address",
          "name": "borrower",
          "type": "address"
        },
        {
          "indexed": false,
          "internalType": "uint256",
          "name": "amount",
          "type": "uint256"
        }
      ],
      "name": "VaultBorrow",
      "type": "event"
    },
    {
      "anonymous": false,
      "inputs": [
        {
          "indexed": false,
          "internalType": "address",
          "name": "owner",
          "type": "address"
        },
        {
          "indexed": false,
          "internalType": "uint256",
          "name": "amount",
          "type": "uint256"
        }
      ],
      "name": "VaultDeposit",
      "type": "event"
    },
    {
      "anonymous": false,
      "inputs": [
        {
          "indexed": false,
          "internalType": "address",
          "name": "borrower",
          "type": "address"
        },
        {
          "indexed": false,
          "internalType": "uint256",
          "name": "amount",
          "type": "uint256"
        }
      ],
      "name": "VaultRepay",
      "type": "event"
    },
    {
      "anonymous": false,
      "inputs": [
        {
          "indexed": false,
          "internalType": "address",
          "name": "borrower",
          "type": "address"
        }
      ],
      "name": "VaultWithdraw",
      "type": "event"
    },
    {
      "constant": true,
      "inputs": [],
      "name": "getCollateralTokenAddress",
      "outputs": [
        {
          "internalType": "address",
          "name": "",
          "type": "address"
        }
      ],
      "payable": false,
      "stateMutability": "view",
      "type": "function"
    },
    {
      "constant": true,
      "inputs": [],
      "name": "getCollateralTokenPrice",
      "outputs": [
        {
          "internalType": "uint256",
          "name": "",
          "type": "uint256"
        }
      ],
      "payable": false,
      "stateMutability": "view",
      "type": "function"
    },
    {
      "constant": true,
      "inputs": [],
      "name": "getCollateralTokenPriceGranularity",
      "outputs": [
        {
          "internalType": "uint256",
          "name": "",
          "type": "uint256"
        }
      ],
      "payable": false,
      "stateMutability": "view",
      "type": "function"
    },
    {
      "constant": true,
      "inputs": [],
      "name": "getCollateralizationRatio",
      "outputs": [
        {
          "internalType": "uint256",
          "name": "",
          "type": "uint256"
        }
      ],
      "payable": false,
      "stateMutability": "view",
      "type": "function"
    },
    {
      "constant": true,
      "inputs": [
        {
          "internalType": "uint256",
          "name": "_requestId",
          "type": "uint256"
        }
      ],
      "name": "getCurrentValue",
      "outputs": [
        {
          "internalType": "bool",
          "name": "ifRetrieve",
          "type": "bool"
        },
        {
          "internalType": "uint256",
          "name": "value",
          "type": "uint256"
        },
        {
          "internalType": "uint256",
          "name": "_timestampRetrieved",
          "type": "uint256"
        }
      ],
      "payable": false,
      "stateMutability": "view",
      "type": "function"
    },
    {
      "constant": true,
      "inputs": [],
      "name": "getDebtTokenAddress",
      "outputs": [
        {
          "internalType": "address",
          "name": "",
          "type": "address"
        }
      ],
      "payable": false,
      "stateMutability": "view",
      "type": "function"
    },
    {
      "constant": true,
      "inputs": [],
      "name": "getDebtTokenPrice",
      "outputs": [
        {
          "internalType": "uint256",
          "name": "",
          "type": "uint256"
        }
      ],
      "payable": false,
      "stateMutability": "view",
      "type": "function"
    },
    {
      "constant": true,
      "inputs": [],
      "name": "getDebtTokenPriceGranularity",
      "outputs": [
        {
          "internalType": "uint256",
          "name": "",
          "type": "uint256"
        }
      ],
      "payable": false,
      "stateMutability": "view",
      "type": "function"
    },
    {
      "constant": true,
      "inputs": [],
      "name": "getInterestRate",
      "outputs": [
        {
          "internalType": "uint256",
          "name": "",
          "type": "uint256"
        }
      ],
      "payable": false,
      "stateMutability": "view",
      "type": "function"
    },
    {
      "constant": true,
      "inputs": [],
      "name": "getLiquidationPenalty",
      "outputs": [
        {
          "internalType": "uint256",
          "name": "",
          "type": "uint256"
        }
      ],
      "payable": false,
      "stateMutability": "view",
      "type": "function"
    },
    {
      "constant": true,
      "inputs": [],
      "name": "getOriginationFee",
      "outputs": [
        {
          "internalType": "uint256",
          "name": "",
          "type": "uint256"
        }
      ],
      "payable": false,
      "stateMutability": "view",
      "type": "function"
    },
    {
      "constant": true,
      "inputs": [],
      "name": "getReserveBalance",
      "outputs": [
        {
          "internalType": "uint256",
          "name": "",
          "type": "uint256"
        }
      ],
      "payable": false,
      "stateMutability": "view",
      "type": "function"
    },
    {
      "constant": true,
      "inputs": [],
      "name": "getReserveCollateralBalance",
      "outputs": [
        {
          "internalType": "uint256",
          "name": "",
          "type": "uint256"
        }
      ],
      "payable": false,
      "stateMutability": "view",
      "type": "function"
    },
    {
      "constant": true,
      "inputs": [],
      "name": "getVaultCollateralAmount",
      "outputs": [
        {
          "internalType": "uint256",
          "name": "",
          "type": "uint256"
        }
      ],
      "payable": false,
      "stateMutability": "view",
      "type": "function"
    },
    {
      "constant": true,
      "inputs": [
        {
          "internalType": "address",
          "name": "vaultOwner",
          "type": "address"
        }
      ],
      "name": "getVaultCollateralizationRatio",
      "outputs": [
        {
          "internalType": "uint256",
          "name": "",
          "type": "uint256"
        }
      ],
      "payable": false,
      "stateMutability": "view",
      "type": "function"
    },
    {
      "constant": true,
      "inputs": [],
      "name": "getVaultDebtAmount",
      "outputs": [
        {
          "internalType": "uint256",
          "name": "",
          "type": "uint256"
        }
      ],
      "payable": false,
      "stateMutability": "view",
      "type": "function"
    },
    {
      "constant": true,
      "inputs": [],
      "name": "getVaultRepayAmount",
      "outputs": [
        {
          "internalType": "uint256",
          "name": "principal",
          "type": "uint256"
        }
      ],
      "payable": false,
      "stateMutability": "view",
      "type": "function"
    },
    {
      "constant": true,
      "inputs": [],
      "name": "isOwner",
      "outputs": [
        {
          "internalType": "bool",
          "name": "",
          "type": "bool"
        }
      ],
      "payable": false,
      "stateMutability": "view",
      "type": "function"
    },
    {
      "constant": true,
      "inputs": [],
      "name": "oracleIDDescriptionsAddress",
      "outputs": [
        {
          "internalType": "address",
          "name": "",
          "type": "address"
        }
      ],
      "payable": false,
      "stateMutability": "view",
      "type": "function"
    },
    {
      "constant": true,
      "inputs": [],
      "name": "owner",
      "outputs": [
        {
          "internalType": "address",
          "name": "",
          "type": "address"
        }
      ],
      "payable": false,
      "stateMutability": "view",
      "type": "function"
    },
    {
      "constant": false,
      "inputs": [],
      "name": "renounceOwnership",
      "outputs": [],
      "payable": false,
      "stateMutability": "nonpayable",
      "type": "function"
    },
    {
      "constant": false,
      "inputs": [
        {
          "internalType": "address",
          "name": "_oracleDescriptors",
          "type": "address"
        }
      ],
      "name": "setOracleIDDescriptors",
      "outputs": [],
      "payable": false,
      "stateMutability": "nonpayable",
      "type": "function"
    },
    {
      "constant": true,
      "inputs": [],
      "name": "tellorStorageAddress",
      "outputs": [
        {
          "internalType": "address payable",
          "name": "",
          "type": "address"
        }
      ],
      "payable": false,
      "stateMutability": "view",
      "type": "function"
    },
    {
      "constant": false,
      "inputs": [
        {
          "internalType": "address",
          "name": "newOwner",
          "type": "address"
        }
      ],
      "name": "transferOwnership",
      "outputs": [],
      "payable": false,
      "stateMutability": "nonpayable",
      "type": "function"
    },
    {
      "constant": true,
      "inputs": [
        {
          "internalType": "bytes32",
          "name": "_bytesId",
          "type": "bytes32"
        }
      ],
      "name": "valueFor",
      "outputs": [
        {
          "internalType": "int256",
          "name": "value",
          "type": "int256"
        },
        {
          "internalType": "uint256",
          "name": "timestamp",
          "type": "uint256"
        },
        {
          "internalType": "uint256",
          "name": "status",
          "type": "uint256"
        }
      ],
      "payable": false,
      "stateMutability": "view",
      "type": "function"
    },
    {
      "constant": true,
      "inputs": [
        {
          "internalType": "address",
          "name": "",
          "type": "address"
        }
      ],
      "name": "vaults",
      "outputs": [
        {
          "internalType": "uint256",
          "name": "collateralAmount",
          "type": "uint256"
        },
        {
          "internalType": "uint256",
          "name": "debtAmount",
          "type": "uint256"
        },
        {
          "internalType": "uint256",
          "name": "createdAt",
          "type": "uint256"
        }
      ],
      "payable": false,
      "stateMutability": "view",
      "type": "function"
    },
    {
      "constant": false,
      "inputs": [
        {
          "internalType": "uint256",
          "name": "amount",
          "type": "uint256"
        }
      ],
      "name": "reserveDeposit",
      "outputs": [],
      "payable": false,
      "stateMutability": "nonpayable",
      "type": "function"
    },
    {
      "constant": false,
      "inputs": [
        {
          "internalType": "uint256",
          "name": "amount",
          "type": "uint256"
        }
      ],
      "name": "reserveWithdraw",
      "outputs": [],
      "payable": false,
      "stateMutability": "nonpayable",
      "type": "function"
    },
    {
      "constant": false,
      "inputs": [
        {
          "internalType": "uint256",
          "name": "amount",
          "type": "uint256"
        }
      ],
      "name": "reserveWithdrawCollateral",
      "outputs": [],
      "payable": false,
      "stateMutability": "nonpayable",
      "type": "function"
    },
    {
      "constant": false,
      "inputs": [],
      "name": "updateCollateralPrice",
      "outputs": [],
      "payable": false,
      "stateMutability": "nonpayable",
      "type": "function"
    },
    {
      "constant": false,
      "inputs": [],
      "name": "updateDebtPrice",
      "outputs": [],
      "payable": false,
      "stateMutability": "nonpayable",
      "type": "function"
    },
    {
      "constant": false,
      "inputs": [
        {
          "internalType": "address",
          "name": "vaultOwner",
          "type": "address"
        }
      ],
      "name": "liquidate",
      "outputs": [],
      "payable": false,
      "stateMutability": "nonpayable",
      "type": "function"
    },
    {
      "constant": false,
      "inputs": [
        {
          "internalType": "uint256",
          "name": "amount",
          "type": "uint256"
        }
      ],
      "name": "vaultDeposit",
      "outputs": [],
      "payable": false,
      "stateMutability": "nonpayable",
      "type": "function"
    },
    {
      "constant": false,
      "inputs": [
        {
          "internalType": "uint256",
          "name": "amount",
          "type": "uint256"
        }
      ],
      "name": "vaultBorrow",
      "outputs": [],
      "payable": false,
      "stateMutability": "nonpayable",
      "type": "function"
    },
    {
      "constant": false,
      "inputs": [
        {
          "internalType": "uint256",
          "name": "amount",
          "type": "uint256"
        }
      ],
      "name": "vaultRepay",
      "outputs": [],
      "payable": false,
      "stateMutability": "nonpayable",
      "type": "function"
    },
    {
      "constant": false,
      "inputs": [
        {
          "internalType": "uint256",
          "name": "amount",
          "type": "uint256"
        }
      ],
      "name": "vaultWithdraw",
      "outputs": [],
      "payable": false,
      "stateMutability": "nonpayable",
      "type": "function"
    },
    {
      "constant": true,
      "inputs": [
        {
          "internalType": "uint256",
          "name": "_requestId",
          "type": "uint256"
        },
        {
          "internalType": "uint256",
          "name": "_timestamp",
          "type": "uint256"
        }
      ],
      "name": "getDataBefore",
      "outputs": [
        {
          "internalType": "bool",
          "name": "_ifRetrieve",
          "type": "bool"
        },
        {
          "internalType": "uint256",
          "name": "_value",
          "type": "uint256"
        },
        {
          "internalType": "uint256",
          "name": "_timestampRetrieved",
          "type": "uint256"
        }
      ],
      "payable": false,
      "stateMutability": "view",
      "type": "function"
    }
  ],
  "bytecode": "0x608060405234801561001057600080fd5b506040516133e53803806133e583398181016040526101c081101561003457600080fd5b8101908080519060200190929190805190602001909291908051906020019092919080519060200190929190805190602001909291908051906020019092919080519060200190929190805190602001909291908051906020019092919080519060200190929190805190602001909291908051906020019092919080519060200190929190805190602001909291905050508033601360006101000a81548173ffffffffffffffffffffffffffffffffffffffff021916908373ffffffffffffffffffffffffffffffffffffffff160217905550601360009054906101000a900473ffffffffffffffffffffffffffffffffffffffff1673ffffffffffffffffffffffffffffffffffffffff16600073ffffffffffffffffffffffffffffffffffffffff167f8be0079c531659141344cd1fd0a4f28419497f9722a3daafe3b4186f6b6457e060405160405180910390a380601460006101000a81548173ffffffffffffffffffffffffffffffffffffffff021916908373ffffffffffffffffffffffffffffffffffffffff160217905550601460009054906101000a900473ffffffffffffffffffffffffffffffffffffffff16601660006101000a81548173ffffffffffffffffffffffffffffffffffffffff021916908373ffffffffffffffffffffffffffffffffffffffff160217905550508d600b600201819055508c600b600301819055508b600b600401819055508a600b6005018190555089600b6007018190555088600660000160006101000a81548173ffffffffffffffffffffffffffffffffffffffff021916908373ffffffffffffffffffffffffffffffffffffffff16021790555084600160000160006101000a81548173ffffffffffffffffffffffffffffffffffffffff021916908373ffffffffffffffffffffffffffffffffffffffff16021790555080600b60060160006101000a81548173ffffffffffffffffffffffffffffffffffffffff021916908373ffffffffffffffffffffffffffffffffffffffff16021790555081600180018190555082600160020181905550836001600301819055508560066001018190555086600660020181905550876006600301819055505050505050505050505050505050613064806103816000396000f3fe608060405234801561001057600080fd5b50600436106102265760003560e01c80637649b93811610130578063bb97f31d116100b8578063f2fde38b1161007c578063f2fde38b14610833578063f78eea8314610877578063f91614eb146108c7578063fb839dda146108e5578063fc2e39a61461091357610226565b8063bb97f31d1461073b578063c969ac061461077f578063cb765c1d1461079d578063d267974c146107bb578063ec5e5e7d1461080557610226565b80638f32d59b116100ff5780638f32d59b1461062d578063a622ee7c1461064f578063a8020973146106b5578063a860988c146106ff578063b71d7a6e1461071d57610226565b80637649b9381461058d57806385b4e543146105bb57806386ef5738146105c55780638da5cb5b146105e357610226565b806345fd80e4116101b35780635729b394116101825780635729b3941461048f57806366b44611146104bd578063685a58081461051b5780636d483fe614610539578063715018a61461058357610226565b806345fd80e4146103ef5780634fd88951146103f95780635257b56614610427578063526366b41461044557610226565b80631e522b29116101fa5780631e522b29146102ed5780632f8655681461030b578063317c9e421461034f5780633fcad9641461036d578063435726c4146103c157610226565b806291a4461461022b57806308dcd7c61461025957806315143950146102775780631b9084b414610295575b600080fd5b6102576004803603602081101561024157600080fd5b8101908080359060200190929190505050610931565b005b610261610b1c565b6040518082815260200191505060405180910390f35b61027f610b29565b6040518082815260200191505060405180910390f35b6102d7600480360360208110156102ab57600080fd5b81019080803573ffffffffffffffffffffffffffffffffffffffff169060200190929190505050610b36565b6040518082815260200191505060405180910390f35b6102f5610c51565b6040518082815260200191505060405180910390f35b61034d6004803603602081101561032157600080fd5b81019080803573ffffffffffffffffffffffffffffffffffffffff169060200190929190505050610c5e565b005b610357610e50565b6040518082815260200191505060405180910390f35b6103996004803603602081101561038357600080fd5b8101908080359060200190929190505050610e5d565b6040518084151515158152602001838152602001828152602001935050505060405180910390f35b6103ed600480360360208110156103d757600080fd5b8101908080359060200190929190505050610e79565b005b6103f7611104565b005b6104256004803603602081101561040f57600080fd5b810190808035906020019092919050505061112d565b005b61042f61159a565b6040518082815260200191505060405180910390f35b61044d6115a7565b604051808273ffffffffffffffffffffffffffffffffffffffff1673ffffffffffffffffffffffffffffffffffffffff16815260200191505060405180910390f35b6104bb600480360360208110156104a557600080fd5b81019080803590602001909291905050506115cd565b005b6104f3600480360360408110156104d357600080fd5b8101908080359060200190929190803590602001909291905050506117ae565b6040518084151515158152602001838152602001828152602001935050505060405180910390f35b610523611b02565b6040518082815260200191505060405180910390f35b610541611b4b565b604051808273ffffffffffffffffffffffffffffffffffffffff1673ffffffffffffffffffffffffffffffffffffffff16815260200191505060405180910390f35b61058b611b78565b005b6105b9600480360360208110156105a357600080fd5b8101908080359060200190929190505050611cb3565b005b6105c3612066565b005b6105cd612090565b6040518082815260200191505060405180910390f35b6105eb61209d565b604051808273ffffffffffffffffffffffffffffffffffffffff1673ffffffffffffffffffffffffffffffffffffffff16815260200191505060405180910390f35b6106356120c7565b604051808215151515815260200191505060405180910390f35b6106916004803603602081101561066557600080fd5b81019080803573ffffffffffffffffffffffffffffffffffffffff16906020019092919050505061211f565b60405180848152602001838152602001828152602001935050505060405180910390f35b6106bd612149565b604051808273ffffffffffffffffffffffffffffffffffffffff1673ffffffffffffffffffffffffffffffffffffffff16815260200191505060405180910390f35b61070761216f565b6040518082815260200191505060405180910390f35b6107256121b8565b6040518082815260200191505060405180910390f35b61077d6004803603602081101561075157600080fd5b81019080803573ffffffffffffffffffffffffffffffffffffffff16906020019092919050505061229b565b005b610787612447565b6040518082815260200191505060405180910390f35b6107a5612453565b6040518082815260200191505060405180910390f35b6107c3612460565b604051808273ffffffffffffffffffffffffffffffffffffffff1673ffffffffffffffffffffffffffffffffffffffff16815260200191505060405180910390f35b6108316004803603602081101561081b57600080fd5b810190808035906020019092919050505061248d565b005b6108756004803603602081101561084957600080fd5b81019080803573ffffffffffffffffffffffffffffffffffffffff1690602001909291905050506126fb565b005b6108a36004803603602081101561088d57600080fd5b8101908080359060200190929190505050612781565b60405180848152602001838152602001828152602001935050505060405180910390f35b6108cf612b66565b6040518082815260200191505060405180910390f35b610911600480360360208110156108fb57600080fd5b8101908080359060200190929190505050612b73565b005b61091b612e6b565b6040518082815260200191505060405180910390f35b6109396120c7565b6109ab576040517f08c379a00000000000000000000000000000000000000000000000000000000081526004018080602001828103825260208152602001807f4f776e61626c653a2063616c6c6572206973206e6f7420746865206f776e657281525060200191505060405180910390fd5b600160000160009054906101000a900473ffffffffffffffffffffffffffffffffffffffff1673ffffffffffffffffffffffffffffffffffffffff166323b872dd3330846040518463ffffffff1660e01b8152600401808473ffffffffffffffffffffffffffffffffffffffff1673ffffffffffffffffffffffffffffffffffffffff1681526020018373ffffffffffffffffffffffffffffffffffffffff1673ffffffffffffffffffffffffffffffffffffffff1681526020018281526020019350505050602060405180830381600087803b158015610a8b57600080fd5b505af1158015610a9f573d6000803e3d6000fd5b505050506040513d6020811015610ab557600080fd5b8101908080519060200190929190505050610acf57600080fd5b80600b600101600082825401925050819055507f71eb3e5df75ef293b81b4c7b38db51f7a6cec007d12529cb74d4eafb7fa53222816040518082815260200191505060405180910390a150565b6000600160020154905090565b6000600660010154905090565b6000806000808473ffffffffffffffffffffffffffffffffffffffff1673ffffffffffffffffffffffffffffffffffffffff168152602001908152602001600020600101541415610b8a5760009050610c4c565b610c496006600201546103e86006600101546000808773ffffffffffffffffffffffffffffffffffffffff1673ffffffffffffffffffffffffffffffffffffffff16815260200190815260200160002060000154020281610be757fe5b046001600201546103e860018001546000808873ffffffffffffffffffffffffffffffffffffffff1673ffffffffffffffffffffffffffffffffffffffff16815260200190815260200160002060010154020281610c4157fe5b046004612e78565b90505b919050565b6000600b60050154905090565b6064600b6004015402610c7082610b36565b10610ce3576040517f08c379a000000000000000000000000000000000000000000000000000000000815260040180806020018281038252601d8152602001807f5641554c54204e4f5420554e444552434f4c4c41544552414c495a454400000081525060200191505060405180910390fd5b6000606480600b6005015460646000808773ffffffffffffffffffffffffffffffffffffffff1673ffffffffffffffffffffffffffffffffffffffff16815260200190815260200160002060010154020281610d3b57fe5b0481610d4357fe5b046000808473ffffffffffffffffffffffffffffffffffffffff1673ffffffffffffffffffffffffffffffffffffffff1681526020019081526020016000206001015401905060006006600101546001800154830281610d9f57fe5b04905080600b60000160008282540192505081905550806000808573ffffffffffffffffffffffffffffffffffffffff1673ffffffffffffffffffffffffffffffffffffffff1681526020019081526020016000206000016000828254039250508190555060008060008573ffffffffffffffffffffffffffffffffffffffff1673ffffffffffffffffffffffffffffffffffffffff16815260200190815260200160002060010181905550505050565b6000600660020154905090565b6000806000610e6c84426117ae565b9250925092509193909250565b610e816120c7565b610ef3576040517f08c379a00000000000000000000000000000000000000000000000000000000081526004018080602001828103825260208152602001807f4f776e61626c653a2063616c6c6572206973206e6f7420746865206f776e657281525060200191505060405180910390fd5b80600b600001541015610f6e576040517f08c379a00000000000000000000000000000000000000000000000000000000081526004018080602001828103825260208152602001807f4e4f5420454e4f55474820434f4c4c41544552414c20494e205245534552564581525060200191505060405180910390fd5b600660000160009054906101000a900473ffffffffffffffffffffffffffffffffffffffff1673ffffffffffffffffffffffffffffffffffffffff1663a9059cbb33836040518363ffffffff1660e01b8152600401808373ffffffffffffffffffffffffffffffffffffffff1673ffffffffffffffffffffffffffffffffffffffff16815260200182815260200192505050602060405180830381600087803b15801561101a57600080fd5b505af115801561102e573d6000803e3d6000fd5b505050506040513d602081101561104457600080fd5b810190808051906020019092919050505061105e57600080fd5b80600b600001600082825403925050819055507f0529afc4538720fe0b3eadc40486369ab962002d72fead1387b300c66073e7bf600660000160009054906101000a900473ffffffffffffffffffffffffffffffffffffffff1682604051808373ffffffffffffffffffffffffffffffffffffffff1673ffffffffffffffffffffffffffffffffffffffff1681526020018281526020019250505060405180910390a150565b600080611115600160030154610e5d565b60018001600082955083919050558294505050505050565b60008060003373ffffffffffffffffffffffffffffffffffffffff1673ffffffffffffffffffffffffffffffffffffffff16815260200190815260200160002060010154146111c45761117e6121b8565b6000803373ffffffffffffffffffffffffffffffffffffffff1673ffffffffffffffffffffffffffffffffffffffff168152602001908152602001600020600101819055505b60006064600b6004015460018001546006600101546000803373ffffffffffffffffffffffffffffffffffffffff1673ffffffffffffffffffffffffffffffffffffffff16815260200190815260200160002060000154028161122357fe5b048161122b57fe5b0402905060016002015481029050600660020154818161124757fe5b0490506000803373ffffffffffffffffffffffffffffffffffffffff1673ffffffffffffffffffffffffffffffffffffffff1681526020019081526020016000206001015481039050808210611305576040517f08c379a00000000000000000000000000000000000000000000000000000000081526004018080602001828103825260158152602001807f4e4f5420454e4f55474820434f4c4c41544552414c000000000000000000000081525060200191505060405180910390fd5b600b60010154821115611380576040517f08c379a00000000000000000000000000000000000000000000000000000000081526004018080602001828103825260138152602001807f4e4f5420454e4f5547482052455345525645530000000000000000000000000081525060200191505060405180910390fd5b6064600b6003015483028161139157fe5b0482016000803373ffffffffffffffffffffffffffffffffffffffff1673ffffffffffffffffffffffffffffffffffffffff16815260200190815260200160002060010160008282540192505081905550426000803373ffffffffffffffffffffffffffffffffffffffff1673ffffffffffffffffffffffffffffffffffffffff1681526020019081526020016000206002018190555081600b60010160008282540392505081905550600160000160009054906101000a900473ffffffffffffffffffffffffffffffffffffffff1673ffffffffffffffffffffffffffffffffffffffff1663a9059cbb33846040518363ffffffff1660e01b8152600401808373ffffffffffffffffffffffffffffffffffffffff1673ffffffffffffffffffffffffffffffffffffffff16815260200182815260200192505050602060405180830381600087803b1580156114e757600080fd5b505af11580156114fb573d6000803e3d6000fd5b505050506040513d602081101561151157600080fd5b810190808051906020019092919050505061152b57600080fd5b7f0232862a021d33ea4a70f5d509b754f0f6986aaa0ffdd5c7db4910422afc768a3383604051808373ffffffffffffffffffffffffffffffffffffffff1673ffffffffffffffffffffffffffffffffffffffff1681526020018281526020019250505060405180910390a15050565b6000600b60020154905090565b601560009054906101000a900473ffffffffffffffffffffffffffffffffffffffff1681565b600660000160009054906101000a900473ffffffffffffffffffffffffffffffffffffffff1673ffffffffffffffffffffffffffffffffffffffff166323b872dd3330846040518463ffffffff1660e01b8152600401808473ffffffffffffffffffffffffffffffffffffffff1673ffffffffffffffffffffffffffffffffffffffff1681526020018373ffffffffffffffffffffffffffffffffffffffff1673ffffffffffffffffffffffffffffffffffffffff1681526020018281526020019350505050602060405180830381600087803b1580156116ad57600080fd5b505af11580156116c1573d6000803e3d6000fd5b505050506040513d60208110156116d757600080fd5b81019080805190602001909291905050506116f157600080fd5b806000803373ffffffffffffffffffffffffffffffffffffffff1673ffffffffffffffffffffffffffffffffffffffff168152602001908152602001600020600001600082825401925050819055507f89d28cf06bdb2ee1b92cd046d58450042ad113e9f4cdabfc4d43e7c5557758d73382604051808373ffffffffffffffffffffffffffffffffffffffff1673ffffffffffffffffffffffffffffffffffffffff1681526020018281526020019250505060405180910390a150565b600080600080601660009054906101000a900473ffffffffffffffffffffffffffffffffffffffff1673ffffffffffffffffffffffffffffffffffffffff166346eee1c4876040518263ffffffff1660e01b81526004018082815260200191505060206040518083038186803b15801561182757600080fd5b505afa15801561183b573d6000803e3d6000fd5b505050506040513d602081101561185157600080fd5b810190808051906020019092919050505090506000811115611ae8576000600190505b818111611a18576000601660009054906101000a900473ffffffffffffffffffffffffffffffffffffffff1673ffffffffffffffffffffffffffffffffffffffff166377fbb66389600185036040518363ffffffff1660e01b8152600401808381526020018281526020019250505060206040518083038186803b1580156118fb57600080fd5b505afa15801561190f573d6000803e3d6000fd5b505050506040513d602081101561192557600080fd5b81019080805190602001909291905050509050868111158015611a01575060001515601660009054906101000a900473ffffffffffffffffffffffffffffffffffffffff1673ffffffffffffffffffffffffffffffffffffffff16633df0777b8a846040518363ffffffff1660e01b8152600401808381526020018281526020019250505060206040518083038186803b1580156119c257600080fd5b505afa1580156119d6573d6000803e3d6000fd5b505050506040513d60208110156119ec57600080fd5b81019080805190602001909291905050501515145b15611a0a578093505b508080600101915050611874565b506000821115611ae7576001601660009054906101000a900473ffffffffffffffffffffffffffffffffffffffff1673ffffffffffffffffffffffffffffffffffffffff166393fa491588856040518363ffffffff1660e01b8152600401808381526020018281526020019250505060206040518083038186803b158015611a9f57600080fd5b505afa158015611ab3573d6000803e3d6000fd5b505050506040513d6020811015611ac957600080fd5b81019080805190602001909291905050508393509350935050611afb565b5b6000806000819150809050935093509350505b9250925092565b60008060003373ffffffffffffffffffffffffffffffffffffffff1673ffffffffffffffffffffffffffffffffffffffff16815260200190815260200160002060010154905090565b6000600660000160009054906101000a900473ffffffffffffffffffffffffffffffffffffffff16905090565b611b806120c7565b611bf2576040517f08c379a00000000000000000000000000000000000000000000000000000000081526004018080602001828103825260208152602001807f4f776e61626c653a2063616c6c6572206973206e6f7420746865206f776e657281525060200191505060405180910390fd5b600073ffffffffffffffffffffffffffffffffffffffff16601360009054906101000a900473ffffffffffffffffffffffffffffffffffffffff1673ffffffffffffffffffffffffffffffffffffffff167f8be0079c531659141344cd1fd0a4f28419497f9722a3daafe3b4186f6b6457e060405160405180910390a36000601360006101000a81548173ffffffffffffffffffffffffffffffffffffffff021916908373ffffffffffffffffffffffffffffffffffffffff160217905550565b611cbb6121b8565b6000803373ffffffffffffffffffffffffffffffffffffffff1673ffffffffffffffffffffffffffffffffffffffff168152602001908152602001600020600101819055506000803373ffffffffffffffffffffffffffffffffffffffff1673ffffffffffffffffffffffffffffffffffffffff16815260200190815260200160002060010154811115611db7576040517f08c379a000000000000000000000000000000000000000000000000000000000815260040180806020018281038252601b8152602001807f43414e4e4f54205245504159204d4f5245205448414e204f574544000000000081525060200191505060405180910390fd5b600160000160009054906101000a900473ffffffffffffffffffffffffffffffffffffffff1673ffffffffffffffffffffffffffffffffffffffff166323b872dd3330846040518463ffffffff1660e01b8152600401808473ffffffffffffffffffffffffffffffffffffffff1673ffffffffffffffffffffffffffffffffffffffff1681526020018373ffffffffffffffffffffffffffffffffffffffff1673ffffffffffffffffffffffffffffffffffffffff1681526020018281526020019350505050602060405180830381600087803b158015611e9757600080fd5b505af1158015611eab573d6000803e3d6000fd5b505050506040513d6020811015611ec157600080fd5b8101908080519060200190929190505050611edb57600080fd5b806000803373ffffffffffffffffffffffffffffffffffffffff1673ffffffffffffffffffffffffffffffffffffffff1681526020019081526020016000206001016000828254039250508190555080600b600101600082825401925050819055506000600b600701546000803373ffffffffffffffffffffffffffffffffffffffff1673ffffffffffffffffffffffffffffffffffffffff1681526020019081526020016000206002015481611f8e57fe5b04600b600701544281611f9d57fe5b04039050600b6007015481026000803373ffffffffffffffffffffffffffffffffffffffff1673ffffffffffffffffffffffffffffffffffffffff168152602001908152602001600020600201600082825401925050819055507f34d657cd4dec79d6716ce5ac15b81de5751705030cbef01b43b15eae44cbc1123383604051808373ffffffffffffffffffffffffffffffffffffffff1673ffffffffffffffffffffffffffffffffffffffff1681526020018281526020019250505060405180910390a15050565b600080612077600660030154610e5d565b6006600101600082955083919050558294505050505050565b6000600b60040154905090565b6000601360009054906101000a900473ffffffffffffffffffffffffffffffffffffffff16905090565b6000601360009054906101000a900473ffffffffffffffffffffffffffffffffffffffff1673ffffffffffffffffffffffffffffffffffffffff163373ffffffffffffffffffffffffffffffffffffffff1614905090565b60006020528060005260406000206000915090508060000154908060010154908060020154905083565b601460009054906101000a900473ffffffffffffffffffffffffffffffffffffffff1681565b60008060003373ffffffffffffffffffffffffffffffffffffffff1673ffffffffffffffffffffffffffffffffffffffff16815260200190815260200160002060000154905090565b60008060003373ffffffffffffffffffffffffffffffffffffffff1673ffffffffffffffffffffffffffffffffffffffff1681526020019081526020016000206001015490506000600b600701546000803373ffffffffffffffffffffffffffffffffffffffff1673ffffffffffffffffffffffffffffffffffffffff168152602001908152602001600020600201548161224f57fe5b0490505b600b60070154428161226157fe5b048110156122975761016d6064600b6002015484028161227d57fe5b048161228557fe5b04820191508080600101915050612253565b5090565b600073ffffffffffffffffffffffffffffffffffffffff16601560009054906101000a900473ffffffffffffffffffffffffffffffffffffffff1673ffffffffffffffffffffffffffffffffffffffff161461235f576040517f08c379a000000000000000000000000000000000000000000000000000000000815260040180806020018281038252600b8152602001807f416c72656164792053657400000000000000000000000000000000000000000081525060200191505060405180910390fd5b80601560006101000a81548173ffffffffffffffffffffffffffffffffffffffff021916908373ffffffffffffffffffffffffffffffffffffffff16021790555080601760006101000a81548173ffffffffffffffffffffffffffffffffffffffff021916908373ffffffffffffffffffffffffffffffffffffffff1602179055507f5c6c85f31e475f047482022539bfe2a3941c15e582053b7420f22e5e8cc5d7f681604051808273ffffffffffffffffffffffffffffffffffffffff1673ffffffffffffffffffffffffffffffffffffffff16815260200191505060405180910390a150565b60006001800154905090565b6000600b60010154905090565b6000600160000160009054906101000a900473ffffffffffffffffffffffffffffffffffffffff16905090565b6124956120c7565b612507576040517f08c379a00000000000000000000000000000000000000000000000000000000081526004018080602001828103825260208152602001807f4f776e61626c653a2063616c6c6572206973206e6f7420746865206f776e657281525060200191505060405180910390fd5b80600b600101541015612565576040517f08c379a000000000000000000000000000000000000000000000000000000000815260040180806020018281038252602181526020018061300f6021913960400191505060405180910390fd5b600160000160009054906101000a900473ffffffffffffffffffffffffffffffffffffffff1673ffffffffffffffffffffffffffffffffffffffff1663a9059cbb33836040518363ffffffff1660e01b8152600401808373ffffffffffffffffffffffffffffffffffffffff1673ffffffffffffffffffffffffffffffffffffffff16815260200182815260200192505050602060405180830381600087803b15801561261157600080fd5b505af1158015612625573d6000803e3d6000fd5b505050506040513d602081101561263b57600080fd5b810190808051906020019092919050505061265557600080fd5b80600b600101600082825403925050819055507f0529afc4538720fe0b3eadc40486369ab962002d72fead1387b300c66073e7bf600160000160009054906101000a900473ffffffffffffffffffffffffffffffffffffffff1682604051808373ffffffffffffffffffffffffffffffffffffffff1673ffffffffffffffffffffffffffffffffffffffff1681526020018281526020019250505060405180910390a150565b6127036120c7565b612775576040517f08c379a00000000000000000000000000000000000000000000000000000000081526004018080602001828103825260208152602001807f4f776e61626c653a2063616c6c6572206973206e6f7420746865206f776e657281525060200191505060405180910390fd5b61277e81612ea2565b50565b600080600080601760009054906101000a900473ffffffffffffffffffffffffffffffffffffffff1673ffffffffffffffffffffffffffffffffffffffff1663c4e9e950866040518263ffffffff1660e01b81526004018082815260200191505060206040518083038186803b1580156127fa57600080fd5b505afa15801561280e573d6000803e3d6000fd5b505050506040513d602081101561282457600080fd5b810190808051906020019092919050505090506000601760009054906101000a900473ffffffffffffffffffffffffffffffffffffffff1673ffffffffffffffffffffffffffffffffffffffff166373b33318876040518263ffffffff1660e01b81526004018082815260200191505060206040518083038186803b1580156128ac57600080fd5b505afa1580156128c0573d6000803e3d6000fd5b505050506040513d60208110156128d657600080fd5b810190808051906020019092919050505090506000821115612a9e57600080600061290185426117ae565b80935081945082955050505082156129d65783820281601760009054906101000a900473ffffffffffffffffffffffffffffffffffffffff1673ffffffffffffffffffffffffffffffffffffffff166367cfa3f860016040518263ffffffff1660e01b81526004018082815260200191505060206040518083038186803b15801561298b57600080fd5b505afa15801561299f573d6000803e3d6000fd5b505050506040513d60208110156129b557600080fd5b81019080805190602001909291905050509750975097505050505050612b5f565b600080601760009054906101000a900473ffffffffffffffffffffffffffffffffffffffff1673ffffffffffffffffffffffffffffffffffffffff166367cfa3f860026040518263ffffffff1660e01b81526004018082815260200191505060206040518083038186803b158015612a4d57600080fd5b505afa158015612a61573d6000803e3d6000fd5b505050506040513d6020811015612a7757600080fd5b81019080805190602001909291905050508292508191509750975097505050505050612b5f565b600080601760009054906101000a900473ffffffffffffffffffffffffffffffffffffffff1673ffffffffffffffffffffffffffffffffffffffff166367cfa3f860006040518263ffffffff1660e01b81526004018082815260200191505060206040518083038186803b158015612b1557600080fd5b505afa158015612b29573d6000803e3d6000fd5b505050506040513d6020811015612b3f57600080fd5b810190808051906020019092919050505082925081915094509450945050505b9193909250565b6000600b60000154905090565b60006064600b600401546001800154600660010154856000803373ffffffffffffffffffffffffffffffffffffffff1673ffffffffffffffffffffffffffffffffffffffff16815260200190815260200160002060000154030281612bd457fe5b0481612bdc57fe5b04029050600160020154810290506006600201548181612bf857fe5b049050806000803373ffffffffffffffffffffffffffffffffffffffff1673ffffffffffffffffffffffffffffffffffffffff168152602001908152602001600020600101541115612cb2576040517f08c379a000000000000000000000000000000000000000000000000000000000815260040180806020018281038252601f8152602001807f43414e4e4f5420554e444552434f4c4c41544552414c495a45205641554c540081525060200191505060405180910390fd5b600660000160009054906101000a900473ffffffffffffffffffffffffffffffffffffffff1673ffffffffffffffffffffffffffffffffffffffff1663a9059cbb33846040518363ffffffff1660e01b8152600401808373ffffffffffffffffffffffffffffffffffffffff1673ffffffffffffffffffffffffffffffffffffffff16815260200182815260200192505050602060405180830381600087803b158015612d5e57600080fd5b505af1158015612d72573d6000803e3d6000fd5b505050506040513d6020811015612d8857600080fd5b8101908080519060200190929190505050612da257600080fd5b816000803373ffffffffffffffffffffffffffffffffffffffff1673ffffffffffffffffffffffffffffffffffffffff1681526020019081526020016000206000016000828254039250508190555081600b600001600082825403925050819055507ff832ce844512907ab1b857d63eb3c9ae0a77839589762d0396db214e9f03a3b933604051808273ffffffffffffffffffffffffffffffffffffffff1673ffffffffffffffffffffffffffffffffffffffff16815260200191505060405180910390a15050565b6000600b60030154905090565b6000600a60058460018501600a0a870281612e8f57fe5b040181612e9857fe5b0490509392505050565b600073ffffffffffffffffffffffffffffffffffffffff168173ffffffffffffffffffffffffffffffffffffffff161415612f28576040517f08c379a0000000000000000000000000000000000000000000000000000000008152600401808060200182810382526026815260200180612fe96026913960400191505060405180910390fd5b8073ffffffffffffffffffffffffffffffffffffffff16601360009054906101000a900473ffffffffffffffffffffffffffffffffffffffff1673ffffffffffffffffffffffffffffffffffffffff167f8be0079c531659141344cd1fd0a4f28419497f9722a3daafe3b4186f6b6457e060405160405180910390a380601360006101000a81548173ffffffffffffffffffffffffffffffffffffffff021916908373ffffffffffffffffffffffffffffffffffffffff1602179055505056fe4f776e61626c653a206e6577206f776e657220697320746865207a65726f20616464726573734e4f5420454e4f554748204445425420544f4b454e5320494e2052455345525645a265627a7a723158201b83225e7a1bd91dbd3eb07cd800e6484016578b66691918a932355e6b98799564736f6c63430005100032",
  "source": "pragma solidity ^0.5.0;\n\nimport \"./BankStorage.sol\";\nimport \"@openzeppelin/contracts/token/ERC20/IERC20.sol\";\nimport \"@openzeppelin/contracts/ownership/Ownable.sol\";\n\n/**\n* @title Bank\n* This contract allows the owner to deposit reserves(debt token), earn interest and\n* origination fees from users that borrow against their collateral.\n* The oracle for Bank is Tellor.\n*/\ncontract Bank is BankStorage, Ownable, UsingTellor {\n  /*Events*/\n  event ReserveDeposit(uint256 amount);\n  event ReserveWithdraw(address token, uint256 amount);\n  event VaultDeposit(address owner, uint256 amount);\n  event VaultBorrow(address borrower, uint256 amount);\n  event VaultRepay(address borrower, uint256 amount);\n  event VaultWithdraw(address borrower);\n\n  /*Constructor*/\n  constructor(\n    uint256 interestRate,\n    uint256 originationFee,\n    uint256 collateralizationRatio,\n    uint256 liquidationPenalty,\n    uint256 period,\n    address collateralToken,\n    uint256 collateralTokenTellorRequestId,\n    uint256 collateralTokenPriceGranularity,\n    uint256 collateralTokenPrice,\n    address debtToken,\n    uint256 debtTokenTellorRequestId,\n    uint256 debtTokenPriceGranularity,\n    uint256 debtTokenPrice,\n    address payable oracleContract ) public UsingTellor(oracleContract) {\n    reserve.interestRate = interestRate;\n    reserve.originationFee = originationFee;\n    reserve.collateralizationRatio = collateralizationRatio;\n    reserve.liquidationPenalty = liquidationPenalty;\n    reserve.period = period;\n    collateral.tokenAddress = collateralToken;\n    debt.tokenAddress = debtToken;\n    reserve.oracleContract = oracleContract;\n    debt.price = debtTokenPrice;\n    debt.priceGranularity = debtTokenPriceGranularity;\n    debt.tellorRequestId = debtTokenTellorRequestId;\n    collateral.price = collateralTokenPrice;\n    collateral.priceGranularity = collateralTokenPriceGranularity;\n    collateral.tellorRequestId = collateralTokenTellorRequestId;\n  }\n\n  /*Functions*/\n  /**\n  * @dev This function allows the Bank owner to deposit the reserve (debt tokens)\n  * @param amount is the amount to deposit\n  */\n  function reserveDeposit(uint256 amount) external onlyOwner {\n    require(IERC20(debt.tokenAddress).transferFrom(msg.sender, address(this), amount));\n    reserve.debtBalance += amount;\n    emit ReserveDeposit(amount);\n  }\n\n  /**\n  * @dev This function allows the Bank owner to withdraw the reserve (debt tokens)\n  * @param amount is the amount to withdraw\n  */\n  function reserveWithdraw(uint256 amount) external onlyOwner {\n    require(reserve.debtBalance >= amount, \"NOT ENOUGH DEBT TOKENS IN RESERVE\");\n    require(IERC20(debt.tokenAddress).transfer(msg.sender, amount));\n    reserve.debtBalance -= amount;\n    emit ReserveWithdraw(debt.tokenAddress, amount);\n  }\n\n  /**\n  * @dev This function allows the user to withdraw their collateral\n  * @param amount is the amount to withdraw\n  */\n  function reserveWithdrawCollateral(uint256 amount) external onlyOwner {\n    require(reserve.collateralBalance >= amount, \"NOT ENOUGH COLLATERAL IN RESERVE\");\n    require(IERC20(collateral.tokenAddress).transfer(msg.sender, amount));\n    reserve.collateralBalance -= amount;\n    emit ReserveWithdraw(collateral.tokenAddress, amount);\n  }\n\n  /**\n  * @dev Use this function to get and update the price for the collateral token\n  * using the Tellor Oracle.\n  */\n  function updateCollateralPrice() external {\n    bool ifRetrieve;\n    uint256 _timestampRetrieved;\n    (ifRetrieve, collateral.price, _timestampRetrieved) = getCurrentValue(collateral.tellorRequestId); //,now - 1 hours);\n  }\n  /**\n  * @dev Use this function to get and update the price for the debt token\n  * using the Tellor Oracle.\n  */\n  function updateDebtPrice() external {\n    bool ifRetrieve;\n    uint256 _timestampRetrieved;\n    (ifRetrieve, debt.price, _timestampRetrieved) = getCurrentValue(debt.tellorRequestId); //,now - 1 hours);\n  }\n\n  /**\n  * @dev Anyone can use this function to liquidate a vault's debt, the bank owner gets the collateral liquidated\n  * @param vaultOwner is the user the bank owner wants to liquidate\n  */\n  function liquidate(address vaultOwner) external {\n    // Require undercollateralization\n    require(getVaultCollateralizationRatio(vaultOwner) < reserve.collateralizationRatio * 100, \"VAULT NOT UNDERCOLLATERALIZED\");\n    uint256 debtOwned = vaults[vaultOwner].debtAmount + (vaults[vaultOwner].debtAmount * 100 * reserve.liquidationPenalty / 100 / 100);\n    uint256 collateralToLiquidate = debtOwned * debt.price / collateral.price;\n    reserve.collateralBalance +=  collateralToLiquidate;\n    vaults[vaultOwner].collateralAmount -= collateralToLiquidate;\n    vaults[vaultOwner].debtAmount = 0;\n  }\n\n\n  /**\n  * @dev Use this function to allow users to deposit collateral to the vault\n  * @param amount is the collateral amount\n  */\n  function vaultDeposit(uint256 amount) external {\n    require(IERC20(collateral.tokenAddress).transferFrom(msg.sender, address(this), amount));\n    vaults[msg.sender].collateralAmount += amount;\n    emit VaultDeposit(msg.sender, amount);\n  }\n\n  /**\n  * @dev Use this function to allow users to borrow against their collateral\n  * @param amount to borrow\n  */\n  function vaultBorrow(uint256 amount) external {\n    if (vaults[msg.sender].debtAmount != 0) {\n      vaults[msg.sender].debtAmount = getVaultRepayAmount();\n    }\n    uint256 maxBorrow = vaults[msg.sender].collateralAmount * collateral.price / debt.price / reserve.collateralizationRatio * 100;\n    maxBorrow *= debt.priceGranularity;\n    maxBorrow /= collateral.priceGranularity;\n    maxBorrow -= vaults[msg.sender].debtAmount;\n    require(amount < maxBorrow, \"NOT ENOUGH COLLATERAL\");\n    require(amount <= reserve.debtBalance, \"NOT ENOUGH RESERVES\");\n    vaults[msg.sender].debtAmount += amount + ((amount * reserve.originationFee) / 100);\n    vaults[msg.sender].createdAt = block.timestamp;\n    reserve.debtBalance -= amount;\n    require(IERC20(debt.tokenAddress).transfer(msg.sender, amount));\n    emit VaultBorrow(msg.sender, amount);\n  }\n\n  /**\n  * @dev This function allows users to pay the interest and origination fee to the\n  *  vault before being able to withdraw\n  * @param amount owed\n  */\n  function vaultRepay(uint256 amount) external {\n    vaults[msg.sender].debtAmount = getVaultRepayAmount();\n    require(amount <= vaults[msg.sender].debtAmount, \"CANNOT REPAY MORE THAN OWED\");//I get that they should not pay more than they owe\n    //but there is no harm if they do, then just allow them to  withdraw so long as debt< 0\n    require(IERC20(debt.tokenAddress).transferFrom(msg.sender, address(this), amount));\n    vaults[msg.sender].debtAmount -= amount;\n    reserve.debtBalance += amount;\n    uint256 periodsElapsed = (block.timestamp / reserve.period) - (vaults[msg.sender].createdAt / reserve.period);\n    vaults[msg.sender].createdAt += periodsElapsed * reserve.period;\n    emit VaultRepay(msg.sender, amount);\n  }\n\n  /**\n  * @dev Allows users to withdraw their collateral from the vault\n  */\n  function vaultWithdraw(uint256 amount) external {\n    uint256 maxBorrowAfterWithdraw = (vaults[msg.sender].collateralAmount - amount) * collateral.price / debt.price / reserve.collateralizationRatio * 100;\n    maxBorrowAfterWithdraw *= debt.priceGranularity;\n    maxBorrowAfterWithdraw /= collateral.priceGranularity;\n    require(vaults[msg.sender].debtAmount <= maxBorrowAfterWithdraw, \"CANNOT UNDERCOLLATERALIZE VAULT\");\n    require(IERC20(collateral.tokenAddress).transfer(msg.sender, amount));\n    vaults[msg.sender].collateralAmount -= amount;\n    reserve.collateralBalance -= amount;\n    emit VaultWithdraw(msg.sender);\n  }\n\n  /**\n  * @dev Allows the user to get the first value for the requestId after the specified timestamp\n  * @param _requestId is the requestId to look up the value for\n  * @param _timestamp after which to search for first verified value\n  * @return bool true if it is able to retreive a value, the value, and the value's timestamp\n  */\n  function getDataBefore(uint256 _requestId, uint256 _timestamp)\n      public\n      view\n      returns (bool _ifRetrieve, uint256 _value, uint256 _timestampRetrieved)\n  {\n      uint256 _count = _tellorm.getNewValueCountbyRequestId(_requestId);\n      if (_count > 0) {\n          for (uint256 i = 1; i <= _count; i++) {\n              uint256 _time = _tellorm.getTimestampbyRequestIDandIndex(_requestId, i - 1);\n              if (_time <= _timestamp && _tellorm.isInDispute(_requestId,_time) == false) {\n                  _timestampRetrieved = _time;\n              }\n          }\n          if (_timestampRetrieved > 0) {\n              return (true, _tellorm.retrieveData(_requestId, _timestampRetrieved), _timestampRetrieved);\n          }\n      }\n      return (false, 0, 0);\n  }\n\n}\n",
  "sourcePath": "/Users/mikeghen/Documents/Projects/bank/contracts/Bank.sol",
  "compiler": {
    "name": "solc",
    "version": "0.5.16+commit.9c3226ce.Emscripten.clang"
  },
  "schemaVersion": "3.2.0",
  "updatedAt": "2020-06-21T22:35:09.302Z",
  "networkType": "ethereum",
  "devdoc": {
    "methods": {
      "getCollateralTokenAddress()": {
        "details": "Getter function for debt token address",
        "return": "debt token price"
      },
      "getCollateralTokenPrice()": {
        "details": "Getter function for the collateral token price",
        "return": "collateral token price"
      },
      "getCollateralTokenPriceGranularity()": {
        "details": "Getter function for the collateral token price granularity",
        "return": "collateral token price granularity"
      },
      "getCollateralizationRatio()": {
        "details": "Getter function for the current collateralization ratio",
        "return": "collateralization ratio"
      },
      "getCurrentValue(uint256)": {
        "details": "Allows the user to get the latest value for the requestId specified",
        "params": {
          "_requestId": "is the requestId to look up the value for"
        },
        "return": "bool true if it is able to retreive a value, the value, and the value's timestamp"
      },
      "getDataBefore(uint256,uint256)": {
        "details": "Allows the user to get the first value for the requestId after the specified timestamp",
        "params": {
          "_requestId": "is the requestId to look up the value for",
          "_timestamp": "after which to search for first verified value"
        },
        "return": "bool true if it is able to retreive a value, the value, and the value's timestamp"
      },
      "getDebtTokenAddress()": {
        "details": "Getter function for debt token address",
        "return": "debt token price"
      },
      "getDebtTokenPrice()": {
        "details": "Getter function for the debt token(reserve) price",
        "return": "debt token price"
      },
      "getDebtTokenPriceGranularity()": {
        "details": "Getter function for the debt token price granularity",
        "return": "debt token price granularity"
      },
      "getInterestRate()": {
        "details": "Getter function for the current interest rate",
        "return": "interest rate"
      },
      "getLiquidationPenalty()": {
        "details": "Getter function for the liquidation penalty",
        "return": "liquidation penalty"
      },
      "getOriginationFee()": {
        "details": "Getter function for the origination fee",
        "return": "origination fee"
      },
      "getReserveBalance()": {
        "details": "Getter function for the debt token(reserve) balance",
        "return": "debt reserve balance"
      },
      "getReserveCollateralBalance()": {
        "details": "Getter function for the debt reserve collateral balance",
        "return": "collateral reserve balance"
      },
      "getVaultCollateralAmount()": {
        "details": "Getter function for the user's vault collateral amount",
        "return": "collateral amount"
      },
      "getVaultCollateralizationRatio(address)": {
        "details": "Getter function for the collateralization ratio",
        "return": "collateralization ratio"
      },
      "getVaultDebtAmount()": {
        "details": "Getter function for the user's vault debt amount",
        "return": "debt amount"
      },
      "getVaultRepayAmount()": {
        "details": "Getter function for the user's vault debt amount",
        "return": "debt amount"
      },
      "isOwner()": {
        "details": "Returns true if the caller is the current owner."
      },
      "liquidate(address)": {
        "details": "Anyone can use this function to liquidate a vault's debt, the bank owner gets the collateral liquidated",
        "params": {
          "vaultOwner": "is the user the bank owner wants to liquidate"
        }
      },
      "owner()": {
        "details": "Returns the address of the current owner."
      },
      "renounceOwnership()": {
        "details": "Leaves the contract without owner. It will not be possible to call `onlyOwner` functions anymore. Can only be called by the current owner.     * > Note: Renouncing ownership will leave the contract without an owner, thereby removing any functionality that is only available to the owner."
      },
      "reserveDeposit(uint256)": {
        "details": "This function allows the Bank owner to deposit the reserve (debt tokens)",
        "params": {
          "amount": "is the amount to deposit"
        }
      },
      "reserveWithdraw(uint256)": {
        "details": "This function allows the Bank owner to withdraw the reserve (debt tokens)",
        "params": {
          "amount": "is the amount to withdraw"
        }
      },
      "reserveWithdrawCollateral(uint256)": {
        "details": "This function allows the user to withdraw their collateral",
        "params": {
          "amount": "is the amount to withdraw"
        }
      },
      "transferOwnership(address)": {
        "details": "Transfers ownership of the contract to a new account (`newOwner`). Can only be called by the current owner."
      },
      "updateCollateralPrice()": {
        "details": "Use this function to get and update the price for the collateral token using the Tellor Oracle."
      },
      "updateDebtPrice()": {
        "details": "Use this function to get and update the price for the debt token using the Tellor Oracle."
      },
      "valueFor(bytes32)": {
        "details": "Allows the user to get the latest value for the requestId specified using the  ADO specification for the standard inteface for price oracles",
        "params": {
          "_bytesId": "is the ADO standarized bytes32 price/key value pair identifier"
        },
        "return": "the timestamp, outcome or value/ and the status code (for retreived, null, etc...)"
      },
      "vaultBorrow(uint256)": {
        "details": "Use this function to allow users to borrow against their collateral",
        "params": {
          "amount": "to borrow"
        }
      },
      "vaultDeposit(uint256)": {
        "details": "Use this function to allow users to deposit collateral to the vault",
        "params": {
          "amount": "is the collateral amount"
        }
      },
      "vaultRepay(uint256)": {
        "details": "This function allows users to pay the interest and origination fee to the vault before being able to withdraw",
        "params": {
          "amount": "owed"
        }
      },
      "vaultWithdraw(uint256)": {
        "details": "Allows users to withdraw their collateral from the vault"
      }
    },
    "title": "Bank This contract allows the owner to deposit reserves(debt token), earn interest and origination fees from users that borrow against their collateral. The oracle for Bank is Tellor."
  },
  "userdoc": {
    "methods": {}
  }
}