{
  "abi": [
    {
      "inputs": [],
      "name": "KEEPER_ROLE",
      "outputs": [
        {
          "internalType": "bytes32",
          "name": "",
          "type": "bytes32"
        }
      ],
      "stateMutability": "view",
      "type": "function"
    },
    {
      "inputs": [],
      "name": "PRICE_UPDATER_ROLE",
      "outputs": [
        {
          "internalType": "bytes32",
          "name": "",
          "type": "bytes32"
        }
      ],
      "stateMutability": "view",
      "type": "function"
    },
    {
      "inputs": [],
      "name": "getCollateralTokenAddress",
      "outputs": [
        {
          "internalType": "address",
          "name": "",
          "type": "address"
        }
      ],
      "stateMutability": "view",
      "type": "function"
    },
    {
      "inputs": [],
      "name": "getCollateralTokenLastUpdatedAt",
      "outputs": [
        {
          "internalType": "uint256",
          "name": "",
          "type": "uint256"
        }
      ],
      "stateMutability": "view",
      "type": "function"
    },
    {
      "inputs": [],
      "name": "getCollateralTokenPrice",
      "outputs": [
        {
          "internalType": "uint256",
          "name": "",
          "type": "uint256"
        }
      ],
      "stateMutability": "view",
      "type": "function"
    },
    {
      "inputs": [],
      "name": "getCollateralTokenPriceGranularity",
      "outputs": [
        {
          "internalType": "uint256",
          "name": "",
          "type": "uint256"
        }
      ],
      "stateMutability": "view",
      "type": "function"
    },
    {
      "inputs": [],
      "name": "getCollateralizationRatio",
      "outputs": [
        {
          "internalType": "uint256",
          "name": "",
          "type": "uint256"
        }
      ],
      "stateMutability": "view",
      "type": "function"
    },
    {
      "inputs": [],
      "name": "getDebtTokenAddress",
      "outputs": [
        {
          "internalType": "address",
          "name": "",
          "type": "address"
        }
      ],
      "stateMutability": "view",
      "type": "function"
    },
    {
      "inputs": [],
      "name": "getDebtTokenLastUpdatedAt",
      "outputs": [
        {
          "internalType": "uint256",
          "name": "",
          "type": "uint256"
        }
      ],
      "stateMutability": "view",
      "type": "function"
    },
    {
      "inputs": [],
      "name": "getDebtTokenPrice",
      "outputs": [
        {
          "internalType": "uint256",
          "name": "",
          "type": "uint256"
        }
      ],
      "stateMutability": "view",
      "type": "function"
    },
    {
      "inputs": [],
      "name": "getDebtTokenPriceGranularity",
      "outputs": [
        {
          "internalType": "uint256",
          "name": "",
          "type": "uint256"
        }
      ],
      "stateMutability": "view",
      "type": "function"
    },
    {
      "inputs": [],
      "name": "getInterestRate",
      "outputs": [
        {
          "internalType": "uint256",
          "name": "",
          "type": "uint256"
        }
      ],
      "stateMutability": "view",
      "type": "function"
    },
    {
      "inputs": [],
      "name": "getLiquidationPenalty",
      "outputs": [
        {
          "internalType": "uint256",
          "name": "",
          "type": "uint256"
        }
      ],
      "stateMutability": "view",
      "type": "function"
    },
    {
      "inputs": [],
      "name": "getName",
      "outputs": [
        {
          "internalType": "string",
          "name": "",
          "type": "string"
        }
      ],
      "stateMutability": "view",
      "type": "function"
    },
    {
      "inputs": [],
      "name": "getOriginationFee",
      "outputs": [
        {
          "internalType": "uint256",
          "name": "",
          "type": "uint256"
        }
      ],
      "stateMutability": "view",
      "type": "function"
    },
    {
      "inputs": [],
      "name": "getReserveBalance",
      "outputs": [
        {
          "internalType": "uint256",
          "name": "",
          "type": "uint256"
        }
      ],
      "stateMutability": "view",
      "type": "function"
    },
    {
      "inputs": [],
      "name": "getReserveCollateralBalance",
      "outputs": [
        {
          "internalType": "uint256",
          "name": "",
          "type": "uint256"
        }
      ],
      "stateMutability": "view",
      "type": "function"
    },
    {
      "inputs": [],
      "name": "getVaultCollateralAmount",
      "outputs": [
        {
          "internalType": "uint256",
          "name": "",
          "type": "uint256"
        }
      ],
      "stateMutability": "view",
      "type": "function"
    },
    {
      "inputs": [
        {
          "internalType": "address",
          "name": "vaultOwner",
          "type": "address"
        }
      ],
      "name": "getVaultCollateralizationRatio",
      "outputs": [
        {
          "internalType": "uint256",
          "name": "",
          "type": "uint256"
        }
      ],
      "stateMutability": "view",
      "type": "function"
    },
    {
      "inputs": [],
      "name": "getVaultDebtAmount",
      "outputs": [
        {
          "internalType": "uint256",
          "name": "",
          "type": "uint256"
        }
      ],
      "stateMutability": "view",
      "type": "function"
    },
    {
      "inputs": [],
      "name": "getVaultRepayAmount",
      "outputs": [
        {
          "internalType": "uint256",
          "name": "principal",
          "type": "uint256"
        }
      ],
      "stateMutability": "view",
      "type": "function"
    },
    {
      "inputs": [
        {
          "internalType": "address",
          "name": "",
          "type": "address"
        }
      ],
      "name": "vaults",
      "outputs": [
        {
          "internalType": "uint256",
          "name": "collateralAmount",
          "type": "uint256"
        },
        {
          "internalType": "uint256",
          "name": "debtAmount",
          "type": "uint256"
        },
        {
          "internalType": "uint256",
          "name": "createdAt",
          "type": "uint256"
        }
      ],
      "stateMutability": "view",
      "type": "function"
    }
  ],
  "evm": {
    "bytecode": {
      "linkReferences": {},
      "object": "608060405234801561001057600080fd5b50610cfd806100206000396000f3fe608060405234801561001057600080fd5b50600436106101425760003560e01c806386ef5738116100b8578063cb765c1d1161007c578063cb765c1d1461034d578063d267974c1461036b578063f327e32414610389578063f91614eb146103a7578063fb8d8101146103c5578063fc2e39a6146103e357610142565b806386ef5738146102a3578063a622ee7c146102c1578063a860988c146102f3578063b71d7a6e14610311578063c969ac061461032f57610142565b8063317c9e421161010a578063317c9e42146101ef578063364bc15a1461020d5780635257b5661461022b57806353388f4414610249578063685a5808146102675780636d483fe61461028557610142565b806308dcd7c614610147578063151439501461016557806317d7de7c146101835780631b9084b4146101a15780631e522b29146101d1575b600080fd5b61014f610401565b60405161015c91906109df565b60405180910390f35b61016d61040d565b60405161017a91906109df565b60405180910390f35b61018b61041a565b60405161019891906109bd565b60405180910390f35b6101bb60048036038101906101b691906108f4565b6104ac565b6040516101c891906109df565b60405180910390f35b6101d96105e5565b6040516101e691906109df565b60405180910390f35b6101f76105f2565b60405161020491906109df565b60405180910390f35b6102156105ff565b60405161022291906109a2565b60405180910390f35b610233610623565b60405161024091906109df565b60405180910390f35b610251610630565b60405161025e91906109df565b60405180910390f35b61026f61063d565b60405161027c91906109df565b60405180910390f35b61028d610687565b60405161029a9190610987565b60405180910390f35b6102ab6106b4565b6040516102b891906109df565b60405180910390f35b6102db60048036038101906102d691906108f4565b6106c1565b6040516102ea939291906109fa565b60405180910390f35b6102fb6106eb565b60405161030891906109df565b60405180910390f35b610319610735565b60405161032691906109df565b60405180910390f35b61033761084d565b60405161034491906109df565b60405180910390f35b61035561085a565b60405161036291906109df565b60405180910390f35b610373610867565b6040516103809190610987565b60405180910390f35b610391610894565b60405161039e91906109df565b60405180910390f35b6103af6108a1565b6040516103bc91906109df565b60405180910390f35b6103cd6108ae565b6040516103da91906109a2565b60405180910390f35b6103eb6108d2565b6040516103f891906109df565b60405180910390f35b60006002800154905090565b6000600860010154905090565b60606000805461042990610bdb565b80601f016020809104026020016040519081016040528092919081815260200182805461045590610bdb565b80156104a25780601f10610477576101008083540402835291602001916104a2565b820191906000526020600020905b81548152906001019060200180831161048557829003601f168201915b5050505050905090565b600080600160008473ffffffffffffffffffffffffffffffffffffffff1673ffffffffffffffffffffffffffffffffffffffff16815260200190815260200160002060010154141561050157600090506105e0565b6002800154600260010154600160008573ffffffffffffffffffffffffffffffffffffffff1673ffffffffffffffffffffffffffffffffffffffff168152602001908152602001600020600101546105599190610ad4565b6105639190610aa3565b612710600860020154600860010154600160008773ffffffffffffffffffffffffffffffffffffffff1673ffffffffffffffffffffffffffffffffffffffff168152602001908152602001600020600001546105bf9190610ad4565b6105c99190610aa3565b6105d39190610ad4565b6105dd9190610aa3565b90505b919050565b6000600e60050154905090565b6000600860020154905090565b7ffc8737ab85eb45125971625a9ebdb75cc78e01d5c1fa80c4c6e5203f47bc4fab81565b6000600e60020154905090565b6000600860050154905090565b6000600160003373ffffffffffffffffffffffffffffffffffffffff1673ffffffffffffffffffffffffffffffffffffffff16815260200190815260200160002060010154905090565b6000600860000160009054906101000a900473ffffffffffffffffffffffffffffffffffffffff16905090565b6000600e60040154905090565b60016020528060005260406000206000915090508060000154908060010154908060020154905083565b6000600160003373ffffffffffffffffffffffffffffffffffffffff1673ffffffffffffffffffffffffffffffffffffffff16815260200190815260200160002060000154905090565b6000600160003373ffffffffffffffffffffffffffffffffffffffff1673ffffffffffffffffffffffffffffffffffffffff1681526020019081526020016000206001015490506000600e600701546301e133806107939190610aa3565b90506000600e60070154600160003373ffffffffffffffffffffffffffffffffffffffff1673ffffffffffffffffffffffffffffffffffffffff168152602001908152602001600020600201546107ea9190610aa3565b600e60070154426107fb9190610aa3565b6108059190610b2e565b90508082612710600e600201548661081d9190610ad4565b6108279190610aa3565b6108319190610aa3565b61083b9190610ad4565b836108469190610a4d565b9250505090565b6000600260010154905090565b6000600e60010154905090565b6000600260000160009054906101000a900473ffffffffffffffffffffffffffffffffffffffff16905090565b6000600260050154905090565b6000600e60000154905090565b7fd96ba01d6560c2ab35f2940dd8d70c5f5fe06236c72674237120515918198fb081565b6000600e60030154905090565b6000813590506108ee81610cb0565b92915050565b60006020828403121561090a57610909610c9a565b5b6000610918848285016108df565b91505092915050565b61092a81610b62565b82525050565b61093981610b74565b82525050565b600061094a82610a31565b6109548185610a3c565b9350610964818560208601610ba8565b61096d81610c9f565b840191505092915050565b61098181610b9e565b82525050565b600060208201905061099c6000830184610921565b92915050565b60006020820190506109b76000830184610930565b92915050565b600060208201905081810360008301526109d7818461093f565b905092915050565b60006020820190506109f46000830184610978565b92915050565b6000606082019050610a0f6000830186610978565b610a1c6020830185610978565b610a296040830184610978565b949350505050565b600081519050919050565b600082825260208201905092915050565b6000610a5882610b9e565b9150610a6383610b9e565b9250827fffffffffffffffffffffffffffffffffffffffffffffffffffffffffffffffff03821115610a9857610a97610c0d565b5b828201905092915050565b6000610aae82610b9e565b9150610ab983610b9e565b925082610ac957610ac8610c3c565b5b828204905092915050565b6000610adf82610b9e565b9150610aea83610b9e565b9250817fffffffffffffffffffffffffffffffffffffffffffffffffffffffffffffffff0483118215151615610b2357610b22610c0d565b5b828202905092915050565b6000610b3982610b9e565b9150610b4483610b9e565b925082821015610b5757610b56610c0d565b5b828203905092915050565b6000610b6d82610b7e565b9050919050565b6000819050919050565b600073ffffffffffffffffffffffffffffffffffffffff82169050919050565b6000819050919050565b60005b83811015610bc6578082015181840152602081019050610bab565b83811115610bd5576000848401525b50505050565b60006002820490506001821680610bf357607f821691505b60208210811415610c0757610c06610c6b565b5b50919050565b7f4e487b7100000000000000000000000000000000000000000000000000000000600052601160045260246000fd5b7f4e487b7100000000000000000000000000000000000000000000000000000000600052601260045260246000fd5b7f4e487b7100000000000000000000000000000000000000000000000000000000600052602260045260246000fd5b600080fd5b6000601f19601f8301169050919050565b610cb981610b62565b8114610cc457600080fd5b5056fea2646970667358221220335221093d8f71bf3e8a0c448b9e402d6217d7cdcfab986b9159df85c5f95a8e64736f6c63430008060033",
      "opcodes": "PUSH1 0x80 PUSH1 0x40 MSTORE CALLVALUE DUP1 ISZERO PUSH2 0x10 JUMPI PUSH1 0x0 DUP1 REVERT JUMPDEST POP PUSH2 0xCFD DUP1 PUSH2 0x20 PUSH1 0x0 CODECOPY PUSH1 0x0 RETURN INVALID PUSH1 0x80 PUSH1 0x40 MSTORE CALLVALUE DUP1 ISZERO PUSH2 0x10 JUMPI PUSH1 0x0 DUP1 REVERT JUMPDEST POP PUSH1 0x4 CALLDATASIZE LT PUSH2 0x142 JUMPI PUSH1 0x0 CALLDATALOAD PUSH1 0xE0 SHR DUP1 PUSH4 0x86EF5738 GT PUSH2 0xB8 JUMPI DUP1 PUSH4 0xCB765C1D GT PUSH2 0x7C JUMPI DUP1 PUSH4 0xCB765C1D EQ PUSH2 0x34D JUMPI DUP1 PUSH4 0xD267974C EQ PUSH2 0x36B JUMPI DUP1 PUSH4 0xF327E324 EQ PUSH2 0x389 JUMPI DUP1 PUSH4 0xF91614EB EQ PUSH2 0x3A7 JUMPI DUP1 PUSH4 0xFB8D8101 EQ PUSH2 0x3C5 JUMPI DUP1 PUSH4 0xFC2E39A6 EQ PUSH2 0x3E3 JUMPI PUSH2 0x142 JUMP JUMPDEST DUP1 PUSH4 0x86EF5738 EQ PUSH2 0x2A3 JUMPI DUP1 PUSH4 0xA622EE7C EQ PUSH2 0x2C1 JUMPI DUP1 PUSH4 0xA860988C EQ PUSH2 0x2F3 JUMPI DUP1 PUSH4 0xB71D7A6E EQ PUSH2 0x311 JUMPI DUP1 PUSH4 0xC969AC06 EQ PUSH2 0x32F JUMPI PUSH2 0x142 JUMP JUMPDEST DUP1 PUSH4 0x317C9E42 GT PUSH2 0x10A JUMPI DUP1 PUSH4 0x317C9E42 EQ PUSH2 0x1EF JUMPI DUP1 PUSH4 0x364BC15A EQ PUSH2 0x20D JUMPI DUP1 PUSH4 0x5257B566 EQ PUSH2 0x22B JUMPI DUP1 PUSH4 0x53388F44 EQ PUSH2 0x249 JUMPI DUP1 PUSH4 0x685A5808 EQ PUSH2 0x267 JUMPI DUP1 PUSH4 0x6D483FE6 EQ PUSH2 0x285 JUMPI PUSH2 0x142 JUMP JUMPDEST DUP1 PUSH4 0x8DCD7C6 EQ PUSH2 0x147 JUMPI DUP1 PUSH4 0x15143950 EQ PUSH2 0x165 JUMPI DUP1 PUSH4 0x17D7DE7C EQ PUSH2 0x183 JUMPI DUP1 PUSH4 0x1B9084B4 EQ PUSH2 0x1A1 JUMPI DUP1 PUSH4 0x1E522B29 EQ PUSH2 0x1D1 JUMPI JUMPDEST PUSH1 0x0 DUP1 REVERT JUMPDEST PUSH2 0x14F PUSH2 0x401 JUMP JUMPDEST PUSH1 0x40 MLOAD PUSH2 0x15C SWAP2 SWAP1 PUSH2 0x9DF JUMP JUMPDEST PUSH1 0x40 MLOAD DUP1 SWAP2 SUB SWAP1 RETURN JUMPDEST PUSH2 0x16D PUSH2 0x40D JUMP JUMPDEST PUSH1 0x40 MLOAD PUSH2 0x17A SWAP2 SWAP1 PUSH2 0x9DF JUMP JUMPDEST PUSH1 0x40 MLOAD DUP1 SWAP2 SUB SWAP1 RETURN JUMPDEST PUSH2 0x18B PUSH2 0x41A JUMP JUMPDEST PUSH1 0x40 MLOAD PUSH2 0x198 SWAP2 SWAP1 PUSH2 0x9BD JUMP JUMPDEST PUSH1 0x40 MLOAD DUP1 SWAP2 SUB SWAP1 RETURN JUMPDEST PUSH2 0x1BB PUSH1 0x4 DUP1 CALLDATASIZE SUB DUP2 ADD SWAP1 PUSH2 0x1B6 SWAP2 SWAP1 PUSH2 0x8F4 JUMP JUMPDEST PUSH2 0x4AC JUMP JUMPDEST PUSH1 0x40 MLOAD PUSH2 0x1C8 SWAP2 SWAP1 PUSH2 0x9DF JUMP JUMPDEST PUSH1 0x40 MLOAD DUP1 SWAP2 SUB SWAP1 RETURN JUMPDEST PUSH2 0x1D9 PUSH2 0x5E5 JUMP JUMPDEST PUSH1 0x40 MLOAD PUSH2 0x1E6 SWAP2 SWAP1 PUSH2 0x9DF JUMP JUMPDEST PUSH1 0x40 MLOAD DUP1 SWAP2 SUB SWAP1 RETURN JUMPDEST PUSH2 0x1F7 PUSH2 0x5F2 JUMP JUMPDEST PUSH1 0x40 MLOAD PUSH2 0x204 SWAP2 SWAP1 PUSH2 0x9DF JUMP JUMPDEST PUSH1 0x40 MLOAD DUP1 SWAP2 SUB SWAP1 RETURN JUMPDEST PUSH2 0x215 PUSH2 0x5FF JUMP JUMPDEST PUSH1 0x40 MLOAD PUSH2 0x222 SWAP2 SWAP1 PUSH2 0x9A2 JUMP JUMPDEST PUSH1 0x40 MLOAD DUP1 SWAP2 SUB SWAP1 RETURN JUMPDEST PUSH2 0x233 PUSH2 0x623 JUMP JUMPDEST PUSH1 0x40 MLOAD PUSH2 0x240 SWAP2 SWAP1 PUSH2 0x9DF JUMP JUMPDEST PUSH1 0x40 MLOAD DUP1 SWAP2 SUB SWAP1 RETURN JUMPDEST PUSH2 0x251 PUSH2 0x630 JUMP JUMPDEST PUSH1 0x40 MLOAD PUSH2 0x25E SWAP2 SWAP1 PUSH2 0x9DF JUMP JUMPDEST PUSH1 0x40 MLOAD DUP1 SWAP2 SUB SWAP1 RETURN JUMPDEST PUSH2 0x26F PUSH2 0x63D JUMP JUMPDEST PUSH1 0x40 MLOAD PUSH2 0x27C SWAP2 SWAP1 PUSH2 0x9DF JUMP JUMPDEST PUSH1 0x40 MLOAD DUP1 SWAP2 SUB SWAP1 RETURN JUMPDEST PUSH2 0x28D PUSH2 0x687 JUMP JUMPDEST PUSH1 0x40 MLOAD PUSH2 0x29A SWAP2 SWAP1 PUSH2 0x987 JUMP JUMPDEST PUSH1 0x40 MLOAD DUP1 SWAP2 SUB SWAP1 RETURN JUMPDEST PUSH2 0x2AB PUSH2 0x6B4 JUMP JUMPDEST PUSH1 0x40 MLOAD PUSH2 0x2B8 SWAP2 SWAP1 PUSH2 0x9DF JUMP JUMPDEST PUSH1 0x40 MLOAD DUP1 SWAP2 SUB SWAP1 RETURN JUMPDEST PUSH2 0x2DB PUSH1 0x4 DUP1 CALLDATASIZE SUB DUP2 ADD SWAP1 PUSH2 0x2D6 SWAP2 SWAP1 PUSH2 0x8F4 JUMP JUMPDEST PUSH2 0x6C1 JUMP JUMPDEST PUSH1 0x40 MLOAD PUSH2 0x2EA SWAP4 SWAP3 SWAP2 SWAP1 PUSH2 0x9FA JUMP JUMPDEST PUSH1 0x40 MLOAD DUP1 SWAP2 SUB SWAP1 RETURN JUMPDEST PUSH2 0x2FB PUSH2 0x6EB JUMP JUMPDEST PUSH1 0x40 MLOAD PUSH2 0x308 SWAP2 SWAP1 PUSH2 0x9DF JUMP JUMPDEST PUSH1 0x40 MLOAD DUP1 SWAP2 SUB SWAP1 RETURN JUMPDEST PUSH2 0x319 PUSH2 0x735 JUMP JUMPDEST PUSH1 0x40 MLOAD PUSH2 0x326 SWAP2 SWAP1 PUSH2 0x9DF JUMP JUMPDEST PUSH1 0x40 MLOAD DUP1 SWAP2 SUB SWAP1 RETURN JUMPDEST PUSH2 0x337 PUSH2 0x84D JUMP JUMPDEST PUSH1 0x40 MLOAD PUSH2 0x344 SWAP2 SWAP1 PUSH2 0x9DF JUMP JUMPDEST PUSH1 0x40 MLOAD DUP1 SWAP2 SUB SWAP1 RETURN JUMPDEST PUSH2 0x355 PUSH2 0x85A JUMP JUMPDEST PUSH1 0x40 MLOAD PUSH2 0x362 SWAP2 SWAP1 PUSH2 0x9DF JUMP JUMPDEST PUSH1 0x40 MLOAD DUP1 SWAP2 SUB SWAP1 RETURN JUMPDEST PUSH2 0x373 PUSH2 0x867 JUMP JUMPDEST PUSH1 0x40 MLOAD PUSH2 0x380 SWAP2 SWAP1 PUSH2 0x987 JUMP JUMPDEST PUSH1 0x40 MLOAD DUP1 SWAP2 SUB SWAP1 RETURN JUMPDEST PUSH2 0x391 PUSH2 0x894 JUMP JUMPDEST PUSH1 0x40 MLOAD PUSH2 0x39E SWAP2 SWAP1 PUSH2 0x9DF JUMP JUMPDEST PUSH1 0x40 MLOAD DUP1 SWAP2 SUB SWAP1 RETURN JUMPDEST PUSH2 0x3AF PUSH2 0x8A1 JUMP JUMPDEST PUSH1 0x40 MLOAD PUSH2 0x3BC SWAP2 SWAP1 PUSH2 0x9DF JUMP JUMPDEST PUSH1 0x40 MLOAD DUP1 SWAP2 SUB SWAP1 RETURN JUMPDEST PUSH2 0x3CD PUSH2 0x8AE JUMP JUMPDEST PUSH1 0x40 MLOAD PUSH2 0x3DA SWAP2 SWAP1 PUSH2 0x9A2 JUMP JUMPDEST PUSH1 0x40 MLOAD DUP1 SWAP2 SUB SWAP1 RETURN JUMPDEST PUSH2 0x3EB PUSH2 0x8D2 JUMP JUMPDEST PUSH1 0x40 MLOAD PUSH2 0x3F8 SWAP2 SWAP1 PUSH2 0x9DF JUMP JUMPDEST PUSH1 0x40 MLOAD DUP1 SWAP2 SUB SWAP1 RETURN JUMPDEST PUSH1 0x0 PUSH1 0x2 DUP1 ADD SLOAD SWAP1 POP SWAP1 JUMP JUMPDEST PUSH1 0x0 PUSH1 0x8 PUSH1 0x1 ADD SLOAD SWAP1 POP SWAP1 JUMP JUMPDEST PUSH1 0x60 PUSH1 0x0 DUP1 SLOAD PUSH2 0x429 SWAP1 PUSH2 0xBDB JUMP JUMPDEST DUP1 PUSH1 0x1F ADD PUSH1 0x20 DUP1 SWAP2 DIV MUL PUSH1 0x20 ADD PUSH1 0x40 MLOAD SWAP1 DUP2 ADD PUSH1 0x40 MSTORE DUP1 SWAP3 SWAP2 SWAP1 DUP2 DUP2 MSTORE PUSH1 0x20 ADD DUP3 DUP1 SLOAD PUSH2 0x455 SWAP1 PUSH2 0xBDB JUMP JUMPDEST DUP1 ISZERO PUSH2 0x4A2 JUMPI DUP1 PUSH1 0x1F LT PUSH2 0x477 JUMPI PUSH2 0x100 DUP1 DUP4 SLOAD DIV MUL DUP4 MSTORE SWAP2 PUSH1 0x20 ADD SWAP2 PUSH2 0x4A2 JUMP JUMPDEST DUP3 ADD SWAP2 SWAP1 PUSH1 0x0 MSTORE PUSH1 0x20 PUSH1 0x0 KECCAK256 SWAP1 JUMPDEST DUP2 SLOAD DUP2 MSTORE SWAP1 PUSH1 0x1 ADD SWAP1 PUSH1 0x20 ADD DUP1 DUP4 GT PUSH2 0x485 JUMPI DUP3 SWAP1 SUB PUSH1 0x1F AND DUP3 ADD SWAP2 JUMPDEST POP POP POP POP POP SWAP1 POP SWAP1 JUMP JUMPDEST PUSH1 0x0 DUP1 PUSH1 0x1 PUSH1 0x0 DUP5 PUSH20 0xFFFFFFFFFFFFFFFFFFFFFFFFFFFFFFFFFFFFFFFF AND PUSH20 0xFFFFFFFFFFFFFFFFFFFFFFFFFFFFFFFFFFFFFFFF AND DUP2 MSTORE PUSH1 0x20 ADD SWAP1 DUP2 MSTORE PUSH1 0x20 ADD PUSH1 0x0 KECCAK256 PUSH1 0x1 ADD SLOAD EQ ISZERO PUSH2 0x501 JUMPI PUSH1 0x0 SWAP1 POP PUSH2 0x5E0 JUMP JUMPDEST PUSH1 0x2 DUP1 ADD SLOAD PUSH1 0x2 PUSH1 0x1 ADD SLOAD PUSH1 0x1 PUSH1 0x0 DUP6 PUSH20 0xFFFFFFFFFFFFFFFFFFFFFFFFFFFFFFFFFFFFFFFF AND PUSH20 0xFFFFFFFFFFFFFFFFFFFFFFFFFFFFFFFFFFFFFFFF AND DUP2 MSTORE PUSH1 0x20 ADD SWAP1 DUP2 MSTORE PUSH1 0x20 ADD PUSH1 0x0 KECCAK256 PUSH1 0x1 ADD SLOAD PUSH2 0x559 SWAP2 SWAP1 PUSH2 0xAD4 JUMP JUMPDEST PUSH2 0x563 SWAP2 SWAP1 PUSH2 0xAA3 JUMP JUMPDEST PUSH2 0x2710 PUSH1 0x8 PUSH1 0x2 ADD SLOAD PUSH1 0x8 PUSH1 0x1 ADD SLOAD PUSH1 0x1 PUSH1 0x0 DUP8 PUSH20 0xFFFFFFFFFFFFFFFFFFFFFFFFFFFFFFFFFFFFFFFF AND PUSH20 0xFFFFFFFFFFFFFFFFFFFFFFFFFFFFFFFFFFFFFFFF AND DUP2 MSTORE PUSH1 0x20 ADD SWAP1 DUP2 MSTORE PUSH1 0x20 ADD PUSH1 0x0 KECCAK256 PUSH1 0x0 ADD SLOAD PUSH2 0x5BF SWAP2 SWAP1 PUSH2 0xAD4 JUMP JUMPDEST PUSH2 0x5C9 SWAP2 SWAP1 PUSH2 0xAA3 JUMP JUMPDEST PUSH2 0x5D3 SWAP2 SWAP1 PUSH2 0xAD4 JUMP JUMPDEST PUSH2 0x5DD SWAP2 SWAP1 PUSH2 0xAA3 JUMP JUMPDEST SWAP1 POP JUMPDEST SWAP2 SWAP1 POP JUMP JUMPDEST PUSH1 0x0 PUSH1 0xE PUSH1 0x5 ADD SLOAD SWAP1 POP SWAP1 JUMP JUMPDEST PUSH1 0x0 PUSH1 0x8 PUSH1 0x2 ADD SLOAD SWAP1 POP SWAP1 JUMP JUMPDEST PUSH32 0xFC8737AB85EB45125971625A9EBDB75CC78E01D5C1FA80C4C6E5203F47BC4FAB DUP2 JUMP JUMPDEST PUSH1 0x0 PUSH1 0xE PUSH1 0x2 ADD SLOAD SWAP1 POP SWAP1 JUMP JUMPDEST PUSH1 0x0 PUSH1 0x8 PUSH1 0x5 ADD SLOAD SWAP1 POP SWAP1 JUMP JUMPDEST PUSH1 0x0 PUSH1 0x1 PUSH1 0x0 CALLER PUSH20 0xFFFFFFFFFFFFFFFFFFFFFFFFFFFFFFFFFFFFFFFF AND PUSH20 0xFFFFFFFFFFFFFFFFFFFFFFFFFFFFFFFFFFFFFFFF AND DUP2 MSTORE PUSH1 0x20 ADD SWAP1 DUP2 MSTORE PUSH1 0x20 ADD PUSH1 0x0 KECCAK256 PUSH1 0x1 ADD SLOAD SWAP1 POP SWAP1 JUMP JUMPDEST PUSH1 0x0 PUSH1 0x8 PUSH1 0x0 ADD PUSH1 0x0 SWAP1 SLOAD SWAP1 PUSH2 0x100 EXP SWAP1 DIV PUSH20 0xFFFFFFFFFFFFFFFFFFFFFFFFFFFFFFFFFFFFFFFF AND SWAP1 POP SWAP1 JUMP JUMPDEST PUSH1 0x0 PUSH1 0xE PUSH1 0x4 ADD SLOAD SWAP1 POP SWAP1 JUMP JUMPDEST PUSH1 0x1 PUSH1 0x20 MSTORE DUP1 PUSH1 0x0 MSTORE PUSH1 0x40 PUSH1 0x0 KECCAK256 PUSH1 0x0 SWAP2 POP SWAP1 POP DUP1 PUSH1 0x0 ADD SLOAD SWAP1 DUP1 PUSH1 0x1 ADD SLOAD SWAP1 DUP1 PUSH1 0x2 ADD SLOAD SWAP1 POP DUP4 JUMP JUMPDEST PUSH1 0x0 PUSH1 0x1 PUSH1 0x0 CALLER PUSH20 0xFFFFFFFFFFFFFFFFFFFFFFFFFFFFFFFFFFFFFFFF AND PUSH20 0xFFFFFFFFFFFFFFFFFFFFFFFFFFFFFFFFFFFFFFFF AND DUP2 MSTORE PUSH1 0x20 ADD SWAP1 DUP2 MSTORE PUSH1 0x20 ADD PUSH1 0x0 KECCAK256 PUSH1 0x0 ADD SLOAD SWAP1 POP SWAP1 JUMP JUMPDEST PUSH1 0x0 PUSH1 0x1 PUSH1 0x0 CALLER PUSH20 0xFFFFFFFFFFFFFFFFFFFFFFFFFFFFFFFFFFFFFFFF AND PUSH20 0xFFFFFFFFFFFFFFFFFFFFFFFFFFFFFFFFFFFFFFFF AND DUP2 MSTORE PUSH1 0x20 ADD SWAP1 DUP2 MSTORE PUSH1 0x20 ADD PUSH1 0x0 KECCAK256 PUSH1 0x1 ADD SLOAD SWAP1 POP PUSH1 0x0 PUSH1 0xE PUSH1 0x7 ADD SLOAD PUSH4 0x1E13380 PUSH2 0x793 SWAP2 SWAP1 PUSH2 0xAA3 JUMP JUMPDEST SWAP1 POP PUSH1 0x0 PUSH1 0xE PUSH1 0x7 ADD SLOAD PUSH1 0x1 PUSH1 0x0 CALLER PUSH20 0xFFFFFFFFFFFFFFFFFFFFFFFFFFFFFFFFFFFFFFFF AND PUSH20 0xFFFFFFFFFFFFFFFFFFFFFFFFFFFFFFFFFFFFFFFF AND DUP2 MSTORE PUSH1 0x20 ADD SWAP1 DUP2 MSTORE PUSH1 0x20 ADD PUSH1 0x0 KECCAK256 PUSH1 0x2 ADD SLOAD PUSH2 0x7EA SWAP2 SWAP1 PUSH2 0xAA3 JUMP JUMPDEST PUSH1 0xE PUSH1 0x7 ADD SLOAD TIMESTAMP PUSH2 0x7FB SWAP2 SWAP1 PUSH2 0xAA3 JUMP JUMPDEST PUSH2 0x805 SWAP2 SWAP1 PUSH2 0xB2E JUMP JUMPDEST SWAP1 POP DUP1 DUP3 PUSH2 0x2710 PUSH1 0xE PUSH1 0x2 ADD SLOAD DUP7 PUSH2 0x81D SWAP2 SWAP1 PUSH2 0xAD4 JUMP JUMPDEST PUSH2 0x827 SWAP2 SWAP1 PUSH2 0xAA3 JUMP JUMPDEST PUSH2 0x831 SWAP2 SWAP1 PUSH2 0xAA3 JUMP JUMPDEST PUSH2 0x83B SWAP2 SWAP1 PUSH2 0xAD4 JUMP JUMPDEST DUP4 PUSH2 0x846 SWAP2 SWAP1 PUSH2 0xA4D JUMP JUMPDEST SWAP3 POP POP POP SWAP1 JUMP JUMPDEST PUSH1 0x0 PUSH1 0x2 PUSH1 0x1 ADD SLOAD SWAP1 POP SWAP1 JUMP JUMPDEST PUSH1 0x0 PUSH1 0xE PUSH1 0x1 ADD SLOAD SWAP1 POP SWAP1 JUMP JUMPDEST PUSH1 0x0 PUSH1 0x2 PUSH1 0x0 ADD PUSH1 0x0 SWAP1 SLOAD SWAP1 PUSH2 0x100 EXP SWAP1 DIV PUSH20 0xFFFFFFFFFFFFFFFFFFFFFFFFFFFFFFFFFFFFFFFF AND SWAP1 POP SWAP1 JUMP JUMPDEST PUSH1 0x0 PUSH1 0x2 PUSH1 0x5 ADD SLOAD SWAP1 POP SWAP1 JUMP JUMPDEST PUSH1 0x0 PUSH1 0xE PUSH1 0x0 ADD SLOAD SWAP1 POP SWAP1 JUMP JUMPDEST PUSH32 0xD96BA01D6560C2AB35F2940DD8D70C5F5FE06236C72674237120515918198FB0 DUP2 JUMP JUMPDEST PUSH1 0x0 PUSH1 0xE PUSH1 0x3 ADD SLOAD SWAP1 POP SWAP1 JUMP JUMPDEST PUSH1 0x0 DUP2 CALLDATALOAD SWAP1 POP PUSH2 0x8EE DUP2 PUSH2 0xCB0 JUMP JUMPDEST SWAP3 SWAP2 POP POP JUMP JUMPDEST PUSH1 0x0 PUSH1 0x20 DUP3 DUP5 SUB SLT ISZERO PUSH2 0x90A JUMPI PUSH2 0x909 PUSH2 0xC9A JUMP JUMPDEST JUMPDEST PUSH1 0x0 PUSH2 0x918 DUP5 DUP3 DUP6 ADD PUSH2 0x8DF JUMP JUMPDEST SWAP2 POP POP SWAP3 SWAP2 POP POP JUMP JUMPDEST PUSH2 0x92A DUP2 PUSH2 0xB62 JUMP JUMPDEST DUP3 MSTORE POP POP JUMP JUMPDEST PUSH2 0x939 DUP2 PUSH2 0xB74 JUMP JUMPDEST DUP3 MSTORE POP POP JUMP JUMPDEST PUSH1 0x0 PUSH2 0x94A DUP3 PUSH2 0xA31 JUMP JUMPDEST PUSH2 0x954 DUP2 DUP6 PUSH2 0xA3C JUMP JUMPDEST SWAP4 POP PUSH2 0x964 DUP2 DUP6 PUSH1 0x20 DUP7 ADD PUSH2 0xBA8 JUMP JUMPDEST PUSH2 0x96D DUP2 PUSH2 0xC9F JUMP JUMPDEST DUP5 ADD SWAP2 POP POP SWAP3 SWAP2 POP POP JUMP JUMPDEST PUSH2 0x981 DUP2 PUSH2 0xB9E JUMP JUMPDEST DUP3 MSTORE POP POP JUMP JUMPDEST PUSH1 0x0 PUSH1 0x20 DUP3 ADD SWAP1 POP PUSH2 0x99C PUSH1 0x0 DUP4 ADD DUP5 PUSH2 0x921 JUMP JUMPDEST SWAP3 SWAP2 POP POP JUMP JUMPDEST PUSH1 0x0 PUSH1 0x20 DUP3 ADD SWAP1 POP PUSH2 0x9B7 PUSH1 0x0 DUP4 ADD DUP5 PUSH2 0x930 JUMP JUMPDEST SWAP3 SWAP2 POP POP JUMP JUMPDEST PUSH1 0x0 PUSH1 0x20 DUP3 ADD SWAP1 POP DUP2 DUP2 SUB PUSH1 0x0 DUP4 ADD MSTORE PUSH2 0x9D7 DUP2 DUP5 PUSH2 0x93F JUMP JUMPDEST SWAP1 POP SWAP3 SWAP2 POP POP JUMP JUMPDEST PUSH1 0x0 PUSH1 0x20 DUP3 ADD SWAP1 POP PUSH2 0x9F4 PUSH1 0x0 DUP4 ADD DUP5 PUSH2 0x978 JUMP JUMPDEST SWAP3 SWAP2 POP POP JUMP JUMPDEST PUSH1 0x0 PUSH1 0x60 DUP3 ADD SWAP1 POP PUSH2 0xA0F PUSH1 0x0 DUP4 ADD DUP7 PUSH2 0x978 JUMP JUMPDEST PUSH2 0xA1C PUSH1 0x20 DUP4 ADD DUP6 PUSH2 0x978 JUMP JUMPDEST PUSH2 0xA29 PUSH1 0x40 DUP4 ADD DUP5 PUSH2 0x978 JUMP JUMPDEST SWAP5 SWAP4 POP POP POP POP JUMP JUMPDEST PUSH1 0x0 DUP2 MLOAD SWAP1 POP SWAP2 SWAP1 POP JUMP JUMPDEST PUSH1 0x0 DUP3 DUP3 MSTORE PUSH1 0x20 DUP3 ADD SWAP1 POP SWAP3 SWAP2 POP POP JUMP JUMPDEST PUSH1 0x0 PUSH2 0xA58 DUP3 PUSH2 0xB9E JUMP JUMPDEST SWAP2 POP PUSH2 0xA63 DUP4 PUSH2 0xB9E JUMP JUMPDEST SWAP3 POP DUP3 PUSH32 0xFFFFFFFFFFFFFFFFFFFFFFFFFFFFFFFFFFFFFFFFFFFFFFFFFFFFFFFFFFFFFFFF SUB DUP3 GT ISZERO PUSH2 0xA98 JUMPI PUSH2 0xA97 PUSH2 0xC0D JUMP JUMPDEST JUMPDEST DUP3 DUP3 ADD SWAP1 POP SWAP3 SWAP2 POP POP JUMP JUMPDEST PUSH1 0x0 PUSH2 0xAAE DUP3 PUSH2 0xB9E JUMP JUMPDEST SWAP2 POP PUSH2 0xAB9 DUP4 PUSH2 0xB9E JUMP JUMPDEST SWAP3 POP DUP3 PUSH2 0xAC9 JUMPI PUSH2 0xAC8 PUSH2 0xC3C JUMP JUMPDEST JUMPDEST DUP3 DUP3 DIV SWAP1 POP SWAP3 SWAP2 POP POP JUMP JUMPDEST PUSH1 0x0 PUSH2 0xADF DUP3 PUSH2 0xB9E JUMP JUMPDEST SWAP2 POP PUSH2 0xAEA DUP4 PUSH2 0xB9E JUMP JUMPDEST SWAP3 POP DUP2 PUSH32 0xFFFFFFFFFFFFFFFFFFFFFFFFFFFFFFFFFFFFFFFFFFFFFFFFFFFFFFFFFFFFFFFF DIV DUP4 GT DUP3 ISZERO ISZERO AND ISZERO PUSH2 0xB23 JUMPI PUSH2 0xB22 PUSH2 0xC0D JUMP JUMPDEST JUMPDEST DUP3 DUP3 MUL SWAP1 POP SWAP3 SWAP2 POP POP JUMP JUMPDEST PUSH1 0x0 PUSH2 0xB39 DUP3 PUSH2 0xB9E JUMP JUMPDEST SWAP2 POP PUSH2 0xB44 DUP4 PUSH2 0xB9E JUMP JUMPDEST SWAP3 POP DUP3 DUP3 LT ISZERO PUSH2 0xB57 JUMPI PUSH2 0xB56 PUSH2 0xC0D JUMP JUMPDEST JUMPDEST DUP3 DUP3 SUB SWAP1 POP SWAP3 SWAP2 POP POP JUMP JUMPDEST PUSH1 0x0 PUSH2 0xB6D DUP3 PUSH2 0xB7E JUMP JUMPDEST SWAP1 POP SWAP2 SWAP1 POP JUMP JUMPDEST PUSH1 0x0 DUP2 SWAP1 POP SWAP2 SWAP1 POP JUMP JUMPDEST PUSH1 0x0 PUSH20 0xFFFFFFFFFFFFFFFFFFFFFFFFFFFFFFFFFFFFFFFF DUP3 AND SWAP1 POP SWAP2 SWAP1 POP JUMP JUMPDEST PUSH1 0x0 DUP2 SWAP1 POP SWAP2 SWAP1 POP JUMP JUMPDEST PUSH1 0x0 JUMPDEST DUP4 DUP2 LT ISZERO PUSH2 0xBC6 JUMPI DUP1 DUP3 ADD MLOAD DUP2 DUP5 ADD MSTORE PUSH1 0x20 DUP2 ADD SWAP1 POP PUSH2 0xBAB JUMP JUMPDEST DUP4 DUP2 GT ISZERO PUSH2 0xBD5 JUMPI PUSH1 0x0 DUP5 DUP5 ADD MSTORE JUMPDEST POP POP POP POP JUMP JUMPDEST PUSH1 0x0 PUSH1 0x2 DUP3 DIV SWAP1 POP PUSH1 0x1 DUP3 AND DUP1 PUSH2 0xBF3 JUMPI PUSH1 0x7F DUP3 AND SWAP2 POP JUMPDEST PUSH1 0x20 DUP3 LT DUP2 EQ ISZERO PUSH2 0xC07 JUMPI PUSH2 0xC06 PUSH2 0xC6B JUMP JUMPDEST JUMPDEST POP SWAP2 SWAP1 POP JUMP JUMPDEST PUSH32 0x4E487B7100000000000000000000000000000000000000000000000000000000 PUSH1 0x0 MSTORE PUSH1 0x11 PUSH1 0x4 MSTORE PUSH1 0x24 PUSH1 0x0 REVERT JUMPDEST PUSH32 0x4E487B7100000000000000000000000000000000000000000000000000000000 PUSH1 0x0 MSTORE PUSH1 0x12 PUSH1 0x4 MSTORE PUSH1 0x24 PUSH1 0x0 REVERT JUMPDEST PUSH32 0x4E487B7100000000000000000000000000000000000000000000000000000000 PUSH1 0x0 MSTORE PUSH1 0x22 PUSH1 0x4 MSTORE PUSH1 0x24 PUSH1 0x0 REVERT JUMPDEST PUSH1 0x0 DUP1 REVERT JUMPDEST PUSH1 0x0 PUSH1 0x1F NOT PUSH1 0x1F DUP4 ADD AND SWAP1 POP SWAP2 SWAP1 POP JUMP JUMPDEST PUSH2 0xCB9 DUP2 PUSH2 0xB62 JUMP JUMPDEST DUP2 EQ PUSH2 0xCC4 JUMPI PUSH1 0x0 DUP1 REVERT JUMPDEST POP JUMP INVALID LOG2 PUSH5 0x6970667358 0x22 SLT KECCAK256 CALLER MSTORE 0x21 MULMOD RETURNDATASIZE DUP16 PUSH18 0xBF3E8A0C448B9E402D6217D7CDCFAB986B91 MSIZE 0xDF DUP6 0xC5 0xF9 GAS DUP15 PUSH5 0x736F6C6343 STOP ADDMOD MOD STOP CALLER "
    }
  }
}