{
  "abi": [
    {
      "inputs": [
        {
          "internalType": "address payable",
          "name": "oracleContract",
          "type": "address"
        }
      ],
      "stateMutability": "nonpayable",
      "type": "constructor"
    },
    {
      "anonymous": false,
      "inputs": [
        {
          "indexed": true,
          "internalType": "address",
          "name": "borrower",
          "type": "address"
        },
        {
          "indexed": false,
          "internalType": "uint256",
          "name": "debtAmount",
          "type": "uint256"
        }
      ],
      "name": "Liquidation",
      "type": "event"
    },
    {
      "anonymous": false,
      "inputs": [
        {
          "indexed": true,
          "internalType": "address",
          "name": "token",
          "type": "address"
        },
        {
          "indexed": false,
          "internalType": "uint256",
          "name": "price",
          "type": "uint256"
        }
      ],
      "name": "PriceUpdate",
      "type": "event"
    },
    {
      "anonymous": false,
      "inputs": [
        {
          "indexed": false,
          "internalType": "uint256",
          "name": "amount",
          "type": "uint256"
        }
      ],
      "name": "ReserveDeposit",
      "type": "event"
    },
    {
      "anonymous": false,
      "inputs": [
        {
          "indexed": true,
          "internalType": "address",
          "name": "token",
          "type": "address"
        },
        {
          "indexed": false,
          "internalType": "uint256",
          "name": "amount",
          "type": "uint256"
        }
      ],
      "name": "ReserveWithdraw",
      "type": "event"
    },
    {
      "anonymous": false,
      "inputs": [
        {
          "indexed": true,
          "internalType": "bytes32",
          "name": "role",
          "type": "bytes32"
        },
        {
          "indexed": true,
          "internalType": "bytes32",
          "name": "previousAdminRole",
          "type": "bytes32"
        },
        {
          "indexed": true,
          "internalType": "bytes32",
          "name": "newAdminRole",
          "type": "bytes32"
        }
      ],
      "name": "RoleAdminChanged",
      "type": "event"
    },
    {
      "anonymous": false,
      "inputs": [
        {
          "indexed": true,
          "internalType": "bytes32",
          "name": "role",
          "type": "bytes32"
        },
        {
          "indexed": true,
          "internalType": "address",
          "name": "account",
          "type": "address"
        },
        {
          "indexed": true,
          "internalType": "address",
          "name": "sender",
          "type": "address"
        }
      ],
      "name": "RoleGranted",
      "type": "event"
    },
    {
      "anonymous": false,
      "inputs": [
        {
          "indexed": true,
          "internalType": "bytes32",
          "name": "role",
          "type": "bytes32"
        },
        {
          "indexed": true,
          "internalType": "address",
          "name": "account",
          "type": "address"
        },
        {
          "indexed": true,
          "internalType": "address",
          "name": "sender",
          "type": "address"
        }
      ],
      "name": "RoleRevoked",
      "type": "event"
    },
    {
      "anonymous": false,
      "inputs": [
        {
          "indexed": true,
          "internalType": "address",
          "name": "borrower",
          "type": "address"
        },
        {
          "indexed": false,
          "internalType": "uint256",
          "name": "amount",
          "type": "uint256"
        }
      ],
      "name": "VaultBorrow",
      "type": "event"
    },
    {
      "anonymous": false,
      "inputs": [
        {
          "indexed": true,
          "internalType": "address",
          "name": "owner",
          "type": "address"
        },
        {
          "indexed": false,
          "internalType": "uint256",
          "name": "amount",
          "type": "uint256"
        }
      ],
      "name": "VaultDeposit",
      "type": "event"
    },
    {
      "anonymous": false,
      "inputs": [
        {
          "indexed": true,
          "internalType": "address",
          "name": "borrower",
          "type": "address"
        },
        {
          "indexed": false,
          "internalType": "uint256",
          "name": "amount",
          "type": "uint256"
        }
      ],
      "name": "VaultRepay",
      "type": "event"
    },
    {
      "anonymous": false,
      "inputs": [
        {
          "indexed": true,
          "internalType": "address",
          "name": "borrower",
          "type": "address"
        },
        {
          "indexed": false,
          "internalType": "uint256",
          "name": "amount",
          "type": "uint256"
        }
      ],
      "name": "VaultWithdraw",
      "type": "event"
    },
    {
      "inputs": [],
      "name": "DEFAULT_ADMIN_ROLE",
      "outputs": [
        {
          "internalType": "bytes32",
          "name": "",
          "type": "bytes32"
        }
      ],
      "stateMutability": "view",
      "type": "function"
    },
    {
      "inputs": [],
      "name": "KEEPER_ROLE",
      "outputs": [
        {
          "internalType": "bytes32",
          "name": "",
          "type": "bytes32"
        }
      ],
      "stateMutability": "view",
      "type": "function"
    },
    {
      "inputs": [],
      "name": "REPORTER_ROLE",
      "outputs": [
        {
          "internalType": "bytes32",
          "name": "",
          "type": "bytes32"
        }
      ],
      "stateMutability": "view",
      "type": "function"
    },
    {
      "inputs": [
        {
          "internalType": "address",
          "name": "keeper",
          "type": "address"
        }
      ],
      "name": "addKeeper",
      "outputs": [],
      "stateMutability": "nonpayable",
      "type": "function"
    },
    {
      "inputs": [
        {
          "internalType": "address",
          "name": "updater",
          "type": "address"
        }
      ],
      "name": "addReporter",
      "outputs": [],
      "stateMutability": "nonpayable",
      "type": "function"
    },
    {
      "inputs": [],
      "name": "getBankFactoryOwner",
      "outputs": [
        {
          "internalType": "address",
          "name": "",
          "type": "address"
        }
      ],
      "stateMutability": "view",
      "type": "function"
    },
    {
      "inputs": [],
      "name": "getCollateralTokenAddress",
      "outputs": [
        {
          "internalType": "address",
          "name": "",
          "type": "address"
        }
      ],
      "stateMutability": "view",
      "type": "function"
    },
    {
      "inputs": [],
      "name": "getCollateralTokenLastUpdatedAt",
      "outputs": [
        {
          "internalType": "uint256",
          "name": "",
          "type": "uint256"
        }
      ],
      "stateMutability": "view",
      "type": "function"
    },
    {
      "inputs": [],
      "name": "getCollateralTokenPrice",
      "outputs": [
        {
          "internalType": "uint256",
          "name": "",
          "type": "uint256"
        }
      ],
      "stateMutability": "view",
      "type": "function"
    },
    {
      "inputs": [],
      "name": "getCollateralTokenPriceGranularity",
      "outputs": [
        {
          "internalType": "uint256",
          "name": "",
          "type": "uint256"
        }
      ],
      "stateMutability": "view",
      "type": "function"
    },
    {
      "inputs": [],
      "name": "getCollateralizationRatio",
      "outputs": [
        {
          "internalType": "uint256",
          "name": "",
          "type": "uint256"
        }
      ],
      "stateMutability": "view",
      "type": "function"
    },
    {
      "inputs": [
        {
          "internalType": "uint256",
          "name": "_requestId",
          "type": "uint256"
        }
      ],
      "name": "getCurrentValue",
      "outputs": [
        {
          "internalType": "bool",
          "name": "ifRetrieve",
          "type": "bool"
        },
        {
          "internalType": "uint256",
          "name": "value",
          "type": "uint256"
        },
        {
          "internalType": "uint256",
          "name": "_timestampRetrieved",
          "type": "uint256"
        }
      ],
      "stateMutability": "view",
      "type": "function"
    },
    {
      "inputs": [],
      "name": "getDebtTokenAddress",
      "outputs": [
        {
          "internalType": "address",
          "name": "",
          "type": "address"
        }
      ],
      "stateMutability": "view",
      "type": "function"
    },
    {
      "inputs": [],
      "name": "getDebtTokenLastUpdatedAt",
      "outputs": [
        {
          "internalType": "uint256",
          "name": "",
          "type": "uint256"
        }
      ],
      "stateMutability": "view",
      "type": "function"
    },
    {
      "inputs": [],
      "name": "getDebtTokenPrice",
      "outputs": [
        {
          "internalType": "uint256",
          "name": "",
          "type": "uint256"
        }
      ],
      "stateMutability": "view",
      "type": "function"
    },
    {
      "inputs": [],
      "name": "getDebtTokenPriceGranularity",
      "outputs": [
        {
          "internalType": "uint256",
          "name": "",
          "type": "uint256"
        }
      ],
      "stateMutability": "view",
      "type": "function"
    },
    {
      "inputs": [],
      "name": "getInterestRate",
      "outputs": [
        {
          "internalType": "uint256",
          "name": "",
          "type": "uint256"
        }
      ],
      "stateMutability": "view",
      "type": "function"
    },
    {
      "inputs": [],
      "name": "getLiquidationPenalty",
      "outputs": [
        {
          "internalType": "uint256",
          "name": "",
          "type": "uint256"
        }
      ],
      "stateMutability": "view",
      "type": "function"
    },
    {
      "inputs": [],
      "name": "getName",
      "outputs": [
        {
          "internalType": "string",
          "name": "",
          "type": "string"
        }
      ],
      "stateMutability": "view",
      "type": "function"
    },
    {
      "inputs": [],
      "name": "getOriginationFee",
      "outputs": [
        {
          "internalType": "uint256",
          "name": "",
          "type": "uint256"
        }
      ],
      "stateMutability": "view",
      "type": "function"
    },
    {
      "inputs": [],
      "name": "getReserveBalance",
      "outputs": [
        {
          "internalType": "uint256",
          "name": "",
          "type": "uint256"
        }
      ],
      "stateMutability": "view",
      "type": "function"
    },
    {
      "inputs": [],
      "name": "getReserveCollateralBalance",
      "outputs": [
        {
          "internalType": "uint256",
          "name": "",
          "type": "uint256"
        }
      ],
      "stateMutability": "view",
      "type": "function"
    },
    {
      "inputs": [
        {
          "internalType": "bytes32",
          "name": "role",
          "type": "bytes32"
        }
      ],
      "name": "getRoleAdmin",
      "outputs": [
        {
          "internalType": "bytes32",
          "name": "",
          "type": "bytes32"
        }
      ],
      "stateMutability": "view",
      "type": "function"
    },
    {
      "inputs": [
        {
          "internalType": "bytes32",
          "name": "role",
          "type": "bytes32"
        },
        {
          "internalType": "uint256",
          "name": "index",
          "type": "uint256"
        }
      ],
      "name": "getRoleMember",
      "outputs": [
        {
          "internalType": "address",
          "name": "",
          "type": "address"
        }
      ],
      "stateMutability": "view",
      "type": "function"
    },
    {
      "inputs": [
        {
          "internalType": "bytes32",
          "name": "role",
          "type": "bytes32"
        }
      ],
      "name": "getRoleMemberCount",
      "outputs": [
        {
          "internalType": "uint256",
          "name": "",
          "type": "uint256"
        }
      ],
      "stateMutability": "view",
      "type": "function"
    },
    {
      "inputs": [],
      "name": "getVaultCollateralAmount",
      "outputs": [
        {
          "internalType": "uint256",
          "name": "",
          "type": "uint256"
        }
      ],
      "stateMutability": "view",
      "type": "function"
    },
    {
      "inputs": [
        {
          "internalType": "address",
          "name": "vaultOwner",
          "type": "address"
        }
      ],
      "name": "getVaultCollateralizationRatio",
      "outputs": [
        {
          "internalType": "uint256",
          "name": "",
          "type": "uint256"
        }
      ],
      "stateMutability": "view",
      "type": "function"
    },
    {
      "inputs": [],
      "name": "getVaultDebtAmount",
      "outputs": [
        {
          "internalType": "uint256",
          "name": "",
          "type": "uint256"
        }
      ],
      "stateMutability": "view",
      "type": "function"
    },
    {
      "inputs": [],
      "name": "getVaultRepayAmount",
      "outputs": [
        {
          "internalType": "uint256",
          "name": "principal",
          "type": "uint256"
        }
      ],
      "stateMutability": "view",
      "type": "function"
    },
    {
      "inputs": [
        {
          "internalType": "bytes32",
          "name": "role",
          "type": "bytes32"
        },
        {
          "internalType": "address",
          "name": "account",
          "type": "address"
        }
      ],
      "name": "grantRole",
      "outputs": [],
      "stateMutability": "nonpayable",
      "type": "function"
    },
    {
      "inputs": [
        {
          "internalType": "bytes32",
          "name": "role",
          "type": "bytes32"
        },
        {
          "internalType": "address",
          "name": "account",
          "type": "address"
        }
      ],
      "name": "hasRole",
      "outputs": [
        {
          "internalType": "bool",
          "name": "",
          "type": "bool"
        }
      ],
      "stateMutability": "view",
      "type": "function"
    },
    {
      "inputs": [
        {
          "internalType": "address",
          "name": "creator",
          "type": "address"
        },
        {
          "internalType": "string",
          "name": "bankName",
          "type": "string"
        },
        {
          "internalType": "uint256",
          "name": "interestRate",
          "type": "uint256"
        },
        {
          "internalType": "uint256",
          "name": "originationFee",
          "type": "uint256"
        },
        {
          "internalType": "uint256",
          "name": "collateralizationRatio",
          "type": "uint256"
        },
        {
          "internalType": "uint256",
          "name": "liquidationPenalty",
          "type": "uint256"
        },
        {
          "internalType": "uint256",
          "name": "period",
          "type": "uint256"
        },
        {
          "internalType": "address",
          "name": "bankFactoryOwner",
          "type": "address"
        },
        {
          "internalType": "address payable",
          "name": "oracleContract",
          "type": "address"
        }
      ],
      "name": "init",
      "outputs": [],
      "stateMutability": "nonpayable",
      "type": "function"
    },
    {
      "inputs": [
        {
          "internalType": "address",
          "name": "vaultOwner",
          "type": "address"
        }
      ],
      "name": "liquidate",
      "outputs": [],
      "stateMutability": "nonpayable",
      "type": "function"
    },
    {
      "inputs": [
        {
          "internalType": "bytes32",
          "name": "role",
          "type": "bytes32"
        },
        {
          "internalType": "address",
          "name": "account",
          "type": "address"
        }
      ],
      "name": "renounceRole",
      "outputs": [],
      "stateMutability": "nonpayable",
      "type": "function"
    },
    {
      "inputs": [
        {
          "internalType": "uint256",
          "name": "amount",
          "type": "uint256"
        }
      ],
      "name": "reserveDeposit",
      "outputs": [],
      "stateMutability": "nonpayable",
      "type": "function"
    },
    {
      "inputs": [
        {
          "internalType": "uint256",
          "name": "amount",
          "type": "uint256"
        }
      ],
      "name": "reserveWithdraw",
      "outputs": [],
      "stateMutability": "nonpayable",
      "type": "function"
    },
    {
      "inputs": [
        {
          "internalType": "uint256",
          "name": "amount",
          "type": "uint256"
        }
      ],
      "name": "reserveWithdrawCollateral",
      "outputs": [],
      "stateMutability": "nonpayable",
      "type": "function"
    },
    {
      "inputs": [
        {
          "internalType": "address",
          "name": "oldKeeper",
          "type": "address"
        }
      ],
      "name": "revokeKeeper",
      "outputs": [],
      "stateMutability": "nonpayable",
      "type": "function"
    },
    {
      "inputs": [
        {
          "internalType": "address",
          "name": "oldUpdater",
          "type": "address"
        }
      ],
      "name": "revokeReporter",
      "outputs": [],
      "stateMutability": "nonpayable",
      "type": "function"
    },
    {
      "inputs": [
        {
          "internalType": "bytes32",
          "name": "role",
          "type": "bytes32"
        },
        {
          "internalType": "address",
          "name": "account",
          "type": "address"
        }
      ],
      "name": "revokeRole",
      "outputs": [],
      "stateMutability": "nonpayable",
      "type": "function"
    },
    {
      "inputs": [
        {
          "internalType": "address",
          "name": "newOwner",
          "type": "address"
        }
      ],
      "name": "setBankFactoryOwner",
      "outputs": [],
      "stateMutability": "nonpayable",
      "type": "function"
    },
    {
      "inputs": [
        {
          "internalType": "address",
          "name": "collateralToken",
          "type": "address"
        },
        {
          "internalType": "uint256",
          "name": "collateralTokenTellorRequestId",
          "type": "uint256"
        },
        {
          "internalType": "uint256",
          "name": "collateralTokenPriceGranularity",
          "type": "uint256"
        },
        {
          "internalType": "uint256",
          "name": "collateralTokenPrice",
          "type": "uint256"
        }
      ],
      "name": "setCollateral",
      "outputs": [],
      "stateMutability": "nonpayable",
      "type": "function"
    },
    {
      "inputs": [
        {
          "internalType": "address",
          "name": "debtToken",
          "type": "address"
        },
        {
          "internalType": "uint256",
          "name": "debtTokenTellorRequestId",
          "type": "uint256"
        },
        {
          "internalType": "uint256",
          "name": "debtTokenPriceGranularity",
          "type": "uint256"
        },
        {
          "internalType": "uint256",
          "name": "debtTokenPrice",
          "type": "uint256"
        }
      ],
      "name": "setDebt",
      "outputs": [],
      "stateMutability": "nonpayable",
      "type": "function"
    },
    {
      "inputs": [
        {
          "internalType": "bytes4",
          "name": "interfaceId",
          "type": "bytes4"
        }
      ],
      "name": "supportsInterface",
      "outputs": [
        {
          "internalType": "bool",
          "name": "",
          "type": "bool"
        }
      ],
      "stateMutability": "view",
      "type": "function"
    },
    {
      "inputs": [],
      "name": "updateCollateralPrice",
      "outputs": [],
      "stateMutability": "nonpayable",
      "type": "function"
    },
    {
      "inputs": [],
      "name": "updateDebtPrice",
      "outputs": [],
      "stateMutability": "nonpayable",
      "type": "function"
    },
    {
      "inputs": [
        {
          "internalType": "uint256",
          "name": "amount",
          "type": "uint256"
        }
      ],
      "name": "vaultBorrow",
      "outputs": [],
      "stateMutability": "nonpayable",
      "type": "function"
    },
    {
      "inputs": [
        {
          "internalType": "uint256",
          "name": "amount",
          "type": "uint256"
        }
      ],
      "name": "vaultDeposit",
      "outputs": [],
      "stateMutability": "nonpayable",
      "type": "function"
    },
    {
      "inputs": [
        {
          "internalType": "uint256",
          "name": "amount",
          "type": "uint256"
        }
      ],
      "name": "vaultRepay",
      "outputs": [],
      "stateMutability": "nonpayable",
      "type": "function"
    },
    {
      "inputs": [
        {
          "internalType": "uint256",
          "name": "amount",
          "type": "uint256"
        }
      ],
      "name": "vaultWithdraw",
      "outputs": [],
      "stateMutability": "nonpayable",
      "type": "function"
    },
    {
      "inputs": [
        {
          "internalType": "address",
          "name": "",
          "type": "address"
        }
      ],
      "name": "vaults",
      "outputs": [
        {
          "internalType": "uint256",
          "name": "collateralAmount",
          "type": "uint256"
        },
        {
          "internalType": "uint256",
          "name": "debtAmount",
          "type": "uint256"
        },
        {
          "internalType": "uint256",
          "name": "createdAt",
          "type": "uint256"
        }
      ],
      "stateMutability": "view",
      "type": "function"
    }
  ],
  "evm": {
    "bytecode": {
      "linkReferences": {},
      "object": "60806040523480156200001157600080fd5b50604051620053cc380380620053cc833981810160405281019062000037919062000099565b80600e60060160006101000a81548173ffffffffffffffffffffffffffffffffffffffff021916908373ffffffffffffffffffffffffffffffffffffffff160217905550506200011e565b600081519050620000938162000104565b92915050565b600060208284031215620000b257620000b1620000ff565b5b6000620000c28482850162000082565b91505092915050565b6000620000d882620000df565b9050919050565b600073ffffffffffffffffffffffffffffffffffffffff82169050919050565b600080fd5b6200010f81620000cb565b81146200011b57600080fd5b50565b61529e806200012e6000396000f3fe608060405234801561001057600080fd5b50600436106102f05760003560e01c80635729b3941161019d578063b71d7a6e116100e9578063d547741f116100a2578063f327e3241161007c578063f327e324146108bf578063f91614eb146108dd578063fb839dda146108fb578063fc2e39a614610917576102f0565b8063d547741f1461086b578063dd8755f214610887578063ec5e5e7d146108a3576102f0565b8063b71d7a6e146107a7578063c14d0454146107c5578063c969ac06146107e1578063ca15c873146107ff578063cb765c1d1461082f578063d267974c1461084d576102f0565b806386ef57381161015657806391d148541161013057806391d1485414610709578063a217fddf14610739578063a622ee7c14610757578063a860988c14610789576102f0565b806386ef57381461069f5780638cdcc955146106bd5780639010d07c146106d9576102f0565b80635729b39414610605578063685a5808146106215780636d483fe61461063f57806370c12f1e1461065d5780637649b9381461067957806385b4e54314610695576102f0565b8063364bc15a1161025c578063435726c4116102155780634b272d9a116101ef5780634b272d9a146105915780634fd88951146105ad5780635257b566146105c957806353388f44146105e7576102f0565b8063435726c41461054f57806345fd80e41461056b578063494f418814610575576102f0565b8063364bc15a1461048d57806336568abe146104ab57806338507ff5146104c75780633f60d799146104e35780633fcad964146105015780634032b72b14610533576102f0565b80631e522b29116102ae5780631e522b29146103cb578063248a9ca3146103e95780632f2ff15d146104195780632f865568146104355780633149cb1414610451578063317c9e421461046f576102f0565b806291a446146102f557806301ffc9a71461031157806308dcd7c614610341578063151439501461035f57806317d7de7c1461037d5780631b9084b41461039b575b600080fd5b61030f600480360381019061030a91906140cb565b610935565b005b61032b6004803603810190610326919061409e565b610a20565b60405161033891906145ca565b60405180910390f35b610349610a9a565b60405161035691906148d9565b60405180910390f35b610367610aa6565b60405161037491906148d9565b60405180910390f35b610385610ab3565b6040516103929190614637565b60405180910390f35b6103b560048036038101906103b09190613e4a565b610b45565b6040516103c291906148d9565b60405180910390f35b6103d3610c7e565b6040516103e091906148d9565b60405180910390f35b61040360048036038101906103fe9190613ff1565b610c8b565b604051610410919061461c565b60405180910390f35b610433600480360381019061042e919061401e565b610cab565b005b61044f600480360381019061044a9190613e4a565b610cd4565b005b6104596110c7565b604051610466919061454f565b60405180910390f35b6104776110f1565b60405161048491906148d9565b60405180910390f35b6104956110fe565b6040516104a2919061461c565b60405180910390f35b6104c560048036038101906104c0919061401e565b611122565b005b6104e160048036038101906104dc9190613f5d565b6111a5565b005b6104eb6112f0565b6040516104f8919061461c565b60405180910390f35b61051b600480360381019061051691906140cb565b611314565b60405161052a939291906145e5565b60405180910390f35b61054d60048036038101906105489190613e4a565b61152b565b005b610569600480360381019061056491906140cb565b6115c8565b005b610573611781565b005b61058f600480360381019061058a9190613e4a565b6118a3565b005b6105ab60048036038101906105a69190613e4a565b6118d0565b005b6105c760048036038101906105c291906140cb565b6119a4565b005b6105d1611e8a565b6040516105de91906148d9565b60405180910390f35b6105ef611e97565b6040516105fc91906148d9565b60405180910390f35b61061f600480360381019061061a91906140cb565b611ea4565b005b610629611fff565b60405161063691906148d9565b60405180910390f35b610647612049565b604051610654919061454f565b60405180910390f35b61067760048036038101906106729190613e77565b612076565b005b610693600480360381019061068e91906140cb565b612238565b005b61069d612542565b005b6106a7612664565b6040516106b491906148d9565b60405180910390f35b6106d760048036038101906106d29190613e4a565b612671565b005b6106f360048036038101906106ee919061405e565b61269e565b604051610700919061454f565b60405180910390f35b610723600480360381019061071e919061401e565b6126cd565b60405161073091906145ca565b60405180910390f35b610741612738565b60405161074e919061461c565b60405180910390f35b610771600480360381019061076c9190613e4a565b61273f565b6040516107809392919061491d565b60405180910390f35b610791612769565b60405161079e91906148d9565b60405180910390f35b6107af6127b3565b6040516107bc91906148d9565b60405180910390f35b6107df60048036038101906107da9190613f5d565b6128cb565b005b6107e9612a15565b6040516107f691906148d9565b60405180910390f35b61081960048036038101906108149190613ff1565b612a22565b60405161082691906148d9565b60405180910390f35b610837612a46565b60405161084491906148d9565b60405180910390f35b610855612a53565b604051610862919061454f565b60405180910390f35b6108856004803603810190610880919061401e565b612a80565b005b6108a1600480360381019061089c9190613e4a565b612aa9565b005b6108bd60048036038101906108b891906140cb565b612b46565b005b6108c7612dbd565b6040516108d491906148d9565b60405180910390f35b6108e5612dca565b6040516108f291906148d9565b60405180910390f35b610915600480360381019061091091906140cb565b612dd7565b005b61091f6130ab565b60405161092c91906148d9565b60405180910390f35b60008111610978576040517f08c379a000000000000000000000000000000000000000000000000000000000815260040161096f90614719565b60405180910390fd5b80600e600101600082825461098d91906149e7565b925050819055506109e6333083600260000160009054906101000a900473ffffffffffffffffffffffffffffffffffffffff1673ffffffffffffffffffffffffffffffffffffffff166130b8909392919063ffffffff16565b7f71eb3e5df75ef293b81b4c7b38db51f7a6cec007d12529cb74d4eafb7fa5322281604051610a1591906148d9565b60405180910390a150565b60007f5a05180f000000000000000000000000000000000000000000000000000000007bffffffffffffffffffffffffffffffffffffffffffffffffffffffff1916827bffffffffffffffffffffffffffffffffffffffffffffffffffffffff19161480610a935750610a9282613141565b5b9050919050565b60006002800154905090565b6000600860010154905090565b606060008054610ac290614bf8565b80601f0160208091040260200160405190810160405280929190818152602001828054610aee90614bf8565b8015610b3b5780601f10610b1057610100808354040283529160200191610b3b565b820191906000526020600020905b815481529060010190602001808311610b1e57829003601f168201915b5050505050905090565b600080600160008473ffffffffffffffffffffffffffffffffffffffff1673ffffffffffffffffffffffffffffffffffffffff168152602001908152602001600020600101541415610b9a5760009050610c79565b6002800154600260010154600160008573ffffffffffffffffffffffffffffffffffffffff1673ffffffffffffffffffffffffffffffffffffffff16815260200190815260200160002060010154610bf29190614a6e565b610bfc9190614a3d565b612710600860020154600860010154600160008773ffffffffffffffffffffffffffffffffffffffff1673ffffffffffffffffffffffffffffffffffffffff16815260200190815260200160002060000154610c589190614a6e565b610c629190614a3d565b610c6c9190614a6e565b610c769190614a3d565b90505b919050565b6000600e60050154905090565b600060166000838152602001908152602001600020600101549050919050565b610cb482610c8b565b610cc581610cc06131bb565b6131c3565b610ccf8383613260565b505050565b610cfe7ffc8737ab85eb45125971625a9ebdb75cc78e01d5c1fa80c4c6e5203f47bc4fab336126cd565b80610d125750610d116000801b336126cd565b5b610d51576040517f08c379a0000000000000000000000000000000000000000000000000000000008152600401610d48906146b9565b60405180910390fd5b6064600e60040154610d639190614a6e565b610d6c82610b45565b10610dac576040517f08c379a0000000000000000000000000000000000000000000000000000000008152600401610da390614739565b60405180910390fd5b6000606480600e600501546064600160008773ffffffffffffffffffffffffffffffffffffffff1673ffffffffffffffffffffffffffffffffffffffff16815260200190815260200160002060010154610e069190614a6e565b610e109190614a6e565b610e1a9190614a3d565b610e249190614a3d565b600160008473ffffffffffffffffffffffffffffffffffffffff1673ffffffffffffffffffffffffffffffffffffffff16815260200190815260200160002060010154610e7191906149e7565b9050600060086001015460026001015483610e8c9190614a6e565b610e969190614a3d565b9050600160008473ffffffffffffffffffffffffffffffffffffffff1673ffffffffffffffffffffffffffffffffffffffff16815260200190815260200160002060000154811115610f2857600160008473ffffffffffffffffffffffffffffffffffffffff1673ffffffffffffffffffffffffffffffffffffffff1681526020019081526020016000206000015490505b6000600a82610f379190614a3d565b90508082610f459190614ac8565b600e6000016000828254610f5991906149e7565b9250508190555081600160008673ffffffffffffffffffffffffffffffffffffffff1673ffffffffffffffffffffffffffffffffffffffff1681526020019081526020016000206000016000828254610fb29190614ac8565b925050819055506000600160008673ffffffffffffffffffffffffffffffffffffffff1673ffffffffffffffffffffffffffffffffffffffff16815260200190815260200160002060010181905550611073601860029054906101000a900473ffffffffffffffffffffffffffffffffffffffff1682600860000160009054906101000a900473ffffffffffffffffffffffffffffffffffffffff1673ffffffffffffffffffffffffffffffffffffffff166132949092919063ffffffff16565b8373ffffffffffffffffffffffffffffffffffffffff167f6dd29d11f8d1bcdbd79da21bf92895417dcc2f8886b3db11c8a4ce00b73de9d0846040516110b991906148d9565b60405180910390a250505050565b6000601860029054906101000a900473ffffffffffffffffffffffffffffffffffffffff16905090565b6000600860020154905090565b7ffc8737ab85eb45125971625a9ebdb75cc78e01d5c1fa80c4c6e5203f47bc4fab81565b61112a6131bb565b73ffffffffffffffffffffffffffffffffffffffff168173ffffffffffffffffffffffffffffffffffffffff1614611197576040517f08c379a000000000000000000000000000000000000000000000000000000000815260040161118e906148b9565b60405180910390fd5b6111a1828261331a565b5050565b6000801b6111ba816111b56131bb565b6131c3565b600073ffffffffffffffffffffffffffffffffffffffff16600860000160009054906101000a900473ffffffffffffffffffffffffffffffffffffffff1673ffffffffffffffffffffffffffffffffffffffff161480156112485750600073ffffffffffffffffffffffffffffffffffffffff168573ffffffffffffffffffffffffffffffffffffffff1614155b611287576040517f08c379a000000000000000000000000000000000000000000000000000000000815260040161127e90614899565b60405180910390fd5b84600860000160006101000a81548173ffffffffffffffffffffffffffffffffffffffff021916908373ffffffffffffffffffffffffffffffffffffffff1602179055508160086001018190555082600860020181905550836008600301819055505050505050565b7f3204c940063673962b481a0395619b3dbbd137589c419e993978c1c71bcf68ec81565b600080600080600e60060160009054906101000a900473ffffffffffffffffffffffffffffffffffffffff16905060008173ffffffffffffffffffffffffffffffffffffffff166346eee1c4876040518263ffffffff1660e01b815260040161137d91906148d9565b60206040518083038186803b15801561139557600080fd5b505afa1580156113a9573d6000803e3d6000fd5b505050506040513d601f19601f820116820180604052508101906113cd91906140f8565b905060008273ffffffffffffffffffffffffffffffffffffffff166377fbb663886001856113fb9190614ac8565b6040518363ffffffff1660e01b81526004016114189291906148f4565b60206040518083038186803b15801561143057600080fd5b505afa158015611444573d6000803e3d6000fd5b505050506040513d601f19601f8201168201806040525081019061146891906140f8565b905060008373ffffffffffffffffffffffffffffffffffffffff166393fa491589846040518363ffffffff1660e01b81526004016114a79291906148f4565b60206040518083038186803b1580156114bf57600080fd5b505afa1580156114d3573d6000803e3d6000fd5b505050506040513d601f19601f820116820180604052508101906114f791906140f8565b90506000811115611515576001818396509650965050505050611524565b60008083965096509650505050505b9193909250565b600073ffffffffffffffffffffffffffffffffffffffff168173ffffffffffffffffffffffffffffffffffffffff16141561159b576040517f08c379a000000000000000000000000000000000000000000000000000000000815260040161159290614799565b60405180910390fd5b6115c57ffc8737ab85eb45125971625a9ebdb75cc78e01d5c1fa80c4c6e5203f47bc4fab82610cab565b50565b80600e600001541015611610576040517f08c379a0000000000000000000000000000000000000000000000000000000008152600401611607906146d9565b60405180910390fd5b600060c88261161f9190614a3d565b905081600e60000160008282546116369190614ac8565b92505081905550600860000160009054906101000a900473ffffffffffffffffffffffffffffffffffffffff1673ffffffffffffffffffffffffffffffffffffffff167f0529afc4538720fe0b3eadc40486369ab962002d72fead1387b300c66073e7bf836040516116a891906148d9565b60405180910390a261170b3382846116c09190614ac8565b600860000160009054906101000a900473ffffffffffffffffffffffffffffffffffffffff1673ffffffffffffffffffffffffffffffffffffffff166132949092919063ffffffff16565b61177d601860029054906101000a900473ffffffffffffffffffffffffffffffffffffffff1682600860000160009054906101000a900473ffffffffffffffffffffffffffffffffffffffff1673ffffffffffffffffffffffffffffffffffffffff166132949092919063ffffffff16565b5050565b6117ab7f3204c940063673962b481a0395619b3dbbd137589c419e993978c1c71bcf68ec336126cd565b806117bf57506117be6000801b336126cd565b5b6117fe576040517f08c379a00000000000000000000000000000000000000000000000000000000081526004016117f590614859565b60405180910390fd5b61180c600260030154611314565b9091506002600101600060026005016000849190505583919050555050600260000160009054906101000a900473ffffffffffffffffffffffffffffffffffffffff1673ffffffffffffffffffffffffffffffffffffffff167f64e6e7bd72b853c4e62fd6ceaca05a104700c70a4cb567c75c7f2242ba7f037c60026001015460405161189991906148d9565b60405180910390a2565b6118cd7ffc8737ab85eb45125971625a9ebdb75cc78e01d5c1fa80c4c6e5203f47bc4fab82612a80565b50565b3373ffffffffffffffffffffffffffffffffffffffff16601860029054906101000a900473ffffffffffffffffffffffffffffffffffffffff1673ffffffffffffffffffffffffffffffffffffffff1614611960576040517f08c379a0000000000000000000000000000000000000000000000000000000008152600401611957906147b9565b60405180910390fd5b80601860026101000a81548173ffffffffffffffffffffffffffffffffffffffff021916908373ffffffffffffffffffffffffffffffffffffffff16021790555050565b6000600160003373ffffffffffffffffffffffffffffffffffffffff1673ffffffffffffffffffffffffffffffffffffffff1681526020019081526020016000206001015414611a3d576119f66127b3565b600160003373ffffffffffffffffffffffffffffffffffffffff1673ffffffffffffffffffffffffffffffffffffffff168152602001908152602001600020600101819055505b60006064600e60040154600260010154600860010154600160003373ffffffffffffffffffffffffffffffffffffffff1673ffffffffffffffffffffffffffffffffffffffff16815260200190815260200160002060000154611aa09190614a6e565b611aaa9190614a3d565b611ab49190614a3d565b611abe9190614a6e565b9050600280015481611ad09190614a6e565b905060086002015481611ae39190614a3d565b9050600160003373ffffffffffffffffffffffffffffffffffffffff1673ffffffffffffffffffffffffffffffffffffffff1681526020019081526020016000206001015481611b339190614ac8565b9050612710600e6003015483611b499190614a6e565b611b539190614a3d565b82611b5e91906149e7565b600160003373ffffffffffffffffffffffffffffffffffffffff1673ffffffffffffffffffffffffffffffffffffffff1681526020019081526020016000206001016000828254611baf91906149e7565b9250508190555080600160003373ffffffffffffffffffffffffffffffffffffffff1673ffffffffffffffffffffffffffffffffffffffff1681526020019081526020016000206001015410611c3a576040517f08c379a0000000000000000000000000000000000000000000000000000000008152600401611c31906147d9565b60405180910390fd5b600260000160009054906101000a900473ffffffffffffffffffffffffffffffffffffffff1673ffffffffffffffffffffffffffffffffffffffff166370a08231306040518263ffffffff1660e01b8152600401611c98919061454f565b60206040518083038186803b158015611cb057600080fd5b505afa158015611cc4573d6000803e3d6000fd5b505050506040513d601f19601f82011682018060405250810190611ce891906140f8565b821115611d2a576040517f08c379a0000000000000000000000000000000000000000000000000000000008152600401611d2190614679565b60405180910390fd5b600e60070154600160003373ffffffffffffffffffffffffffffffffffffffff1673ffffffffffffffffffffffffffffffffffffffff1681526020019081526020016000206002015442611d7e9190614ac8565b1115611dcc5742600160003373ffffffffffffffffffffffffffffffffffffffff1673ffffffffffffffffffffffffffffffffffffffff168152602001908152602001600020600201819055505b81600e6001016000828254611de19190614ac8565b92505081905550611e383383600260000160009054906101000a900473ffffffffffffffffffffffffffffffffffffffff1673ffffffffffffffffffffffffffffffffffffffff166132949092919063ffffffff16565b3373ffffffffffffffffffffffffffffffffffffffff167f0232862a021d33ea4a70f5d509b754f0f6986aaa0ffdd5c7db4910422afc768a83604051611e7e91906148d9565b60405180910390a25050565b6000600e60020154905090565b6000600860050154905090565b60008111611ee7576040517f08c379a0000000000000000000000000000000000000000000000000000000008152600401611ede90614719565b60405180910390fd5b80600160003373ffffffffffffffffffffffffffffffffffffffff1673ffffffffffffffffffffffffffffffffffffffff1681526020019081526020016000206000016000828254611f3991906149e7565b9250508190555080600e6000016000828254611f5591906149e7565b92505081905550611fae333083600860000160009054906101000a900473ffffffffffffffffffffffffffffffffffffffff1673ffffffffffffffffffffffffffffffffffffffff166130b8909392919063ffffffff16565b3373ffffffffffffffffffffffffffffffffffffffff167f89d28cf06bdb2ee1b92cd046d58450042ad113e9f4cdabfc4d43e7c5557758d782604051611ff491906148d9565b60405180910390a250565b6000600160003373ffffffffffffffffffffffffffffffffffffffff1673ffffffffffffffffffffffffffffffffffffffff16815260200190815260200160002060010154905090565b6000600860000160009054906101000a900473ffffffffffffffffffffffffffffffffffffffff16905090565b601860019054906101000a900460ff168061209e5750601860009054906101000a900460ff16155b6120dd576040517f08c379a00000000000000000000000000000000000000000000000000000000081526004016120d4906147f9565b60405180910390fd5b6000601860019054906101000a900460ff16159050801561212f576001601860016101000a81548160ff0219169083151502179055506001601860006101000a81548160ff0219169083151502179055505b61213c6000801b8b61334e565b87600e6002018190555086600e6003018190555085600e6004018190555081600e60060160006101000a81548173ffffffffffffffffffffffffffffffffffffffff021916908373ffffffffffffffffffffffffffffffffffffffff16021790555084600e6005018190555083600e6007018190555082601860026101000a81548173ffffffffffffffffffffffffffffffffffffffff021916908373ffffffffffffffffffffffffffffffffffffffff1602179055508860009080519060200190612209929190613ca4565b50801561222c576000601860016101000a81548160ff0219169083151502179055505b50505050505050505050565b6000811161227b576040517f08c379a000000000000000000000000000000000000000000000000000000000815260040161227290614719565b60405180910390fd5b6122836127b3565b600160003373ffffffffffffffffffffffffffffffffffffffff1673ffffffffffffffffffffffffffffffffffffffff16815260200190815260200160002060010181905550600160003373ffffffffffffffffffffffffffffffffffffffff1673ffffffffffffffffffffffffffffffffffffffff1681526020019081526020016000206001015481111561234e576040517f08c379a000000000000000000000000000000000000000000000000000000000815260040161234590614699565b60405180910390fd5b80600160003373ffffffffffffffffffffffffffffffffffffffff1673ffffffffffffffffffffffffffffffffffffffff16815260200190815260200160002060010160008282546123a09190614ac8565b9250508190555080600e60010160008282546123bc91906149e7565b925050819055506000600e60070154600160003373ffffffffffffffffffffffffffffffffffffffff1673ffffffffffffffffffffffffffffffffffffffff168152602001908152602001600020600201546124189190614a3d565b600e60070154426124299190614a3d565b6124339190614ac8565b9050600e60070154816124469190614a6e565b600160003373ffffffffffffffffffffffffffffffffffffffff1673ffffffffffffffffffffffffffffffffffffffff168152602001908152602001600020600201600082825461249791906149e7565b925050819055506124f0333084600260000160009054906101000a900473ffffffffffffffffffffffffffffffffffffffff1673ffffffffffffffffffffffffffffffffffffffff166130b8909392919063ffffffff16565b3373ffffffffffffffffffffffffffffffffffffffff167f34d657cd4dec79d6716ce5ac15b81de5751705030cbef01b43b15eae44cbc1128360405161253691906148d9565b60405180910390a25050565b61256c7f3204c940063673962b481a0395619b3dbbd137589c419e993978c1c71bcf68ec336126cd565b80612580575061257f6000801b336126cd565b5b6125bf576040517f08c379a00000000000000000000000000000000000000000000000000000000081526004016125b690614859565b60405180910390fd5b6125cd600860030154611314565b9091506008600101600060086005016000849190505583919050555050600860000160009054906101000a900473ffffffffffffffffffffffffffffffffffffffff1673ffffffffffffffffffffffffffffffffffffffff167f64e6e7bd72b853c4e62fd6ceaca05a104700c70a4cb567c75c7f2242ba7f037c60086001015460405161265a91906148d9565b60405180910390a2565b6000600e60040154905090565b61269b7f3204c940063673962b481a0395619b3dbbd137589c419e993978c1c71bcf68ec82612a80565b50565b60006126c5826017600086815260200190815260200160002061335c90919063ffffffff16565b905092915050565b60006016600084815260200190815260200160002060000160008373ffffffffffffffffffffffffffffffffffffffff1673ffffffffffffffffffffffffffffffffffffffff16815260200190815260200160002060009054906101000a900460ff16905092915050565b6000801b81565b60016020528060005260406000206000915090508060000154908060010154908060020154905083565b6000600160003373ffffffffffffffffffffffffffffffffffffffff1673ffffffffffffffffffffffffffffffffffffffff16815260200190815260200160002060000154905090565b6000600160003373ffffffffffffffffffffffffffffffffffffffff1673ffffffffffffffffffffffffffffffffffffffff1681526020019081526020016000206001015490506000600e600701546301e133806128119190614a3d565b90506000600e60070154600160003373ffffffffffffffffffffffffffffffffffffffff1673ffffffffffffffffffffffffffffffffffffffff168152602001908152602001600020600201546128689190614a3d565b600e60070154426128799190614a3d565b6128839190614ac8565b90508082612710600e600201548661289b9190614a6e565b6128a59190614a3d565b6128af9190614a3d565b6128b99190614a6e565b836128c491906149e7565b9250505090565b6000801b6128e0816128db6131bb565b6131c3565b600073ffffffffffffffffffffffffffffffffffffffff16600260000160009054906101000a900473ffffffffffffffffffffffffffffffffffffffff1673ffffffffffffffffffffffffffffffffffffffff1614801561296e5750600073ffffffffffffffffffffffffffffffffffffffff168573ffffffffffffffffffffffffffffffffffffffff1614155b6129ad576040517f08c379a00000000000000000000000000000000000000000000000000000000081526004016129a490614899565b60405180910390fd5b84600260000160006101000a81548173ffffffffffffffffffffffffffffffffffffffff021916908373ffffffffffffffffffffffffffffffffffffffff16021790555081600260010181905550826002800181905550836002600301819055505050505050565b6000600260010154905090565b6000612a3f60176000848152602001908152602001600020613376565b9050919050565b6000600e60010154905090565b6000600260000160009054906101000a900473ffffffffffffffffffffffffffffffffffffffff16905090565b612a8982610c8b565b612a9a81612a956131bb565b6131c3565b612aa4838361331a565b505050565b600073ffffffffffffffffffffffffffffffffffffffff168173ffffffffffffffffffffffffffffffffffffffff161415612b19576040517f08c379a0000000000000000000000000000000000000000000000000000000008152600401612b1090614799565b60405180910390fd5b612b437f3204c940063673962b481a0395619b3dbbd137589c419e993978c1c71bcf68ec82610cab565b50565b6000801b612b5b81612b566131bb565b6131c3565b81600260000160009054906101000a900473ffffffffffffffffffffffffffffffffffffffff1673ffffffffffffffffffffffffffffffffffffffff166370a08231306040518263ffffffff1660e01b8152600401612bba919061454f565b60206040518083038186803b158015612bd257600080fd5b505afa158015612be6573d6000803e3d6000fd5b505050506040513d601f19601f82011682018060405250810190612c0a91906140f8565b1015612c4b576040517f08c379a0000000000000000000000000000000000000000000000000000000008152600401612c4290614759565b60405180910390fd5b600060c883612c5a9190614a3d565b905082600e6001016000828254612c719190614ac8565b92505081905550612cd3338285612c889190614ac8565b600260000160009054906101000a900473ffffffffffffffffffffffffffffffffffffffff1673ffffffffffffffffffffffffffffffffffffffff166132949092919063ffffffff16565b612d45601860029054906101000a900473ffffffffffffffffffffffffffffffffffffffff1682600260000160009054906101000a900473ffffffffffffffffffffffffffffffffffffffff1673ffffffffffffffffffffffffffffffffffffffff166132949092919063ffffffff16565b600260000160009054906101000a900473ffffffffffffffffffffffffffffffffffffffff1673ffffffffffffffffffffffffffffffffffffffff167f0529afc4538720fe0b3eadc40486369ab962002d72fead1387b300c66073e7bf84604051612db091906148d9565b60405180910390a2505050565b6000600260050154905090565b6000600e60000154905090565b600160003373ffffffffffffffffffffffffffffffffffffffff1673ffffffffffffffffffffffffffffffffffffffff16815260200190815260200160002060000154811115612e5c576040517f08c379a0000000000000000000000000000000000000000000000000000000008152600401612e5390614779565b60405180910390fd5b60006064600e6004015460026001015460086001015485600160003373ffffffffffffffffffffffffffffffffffffffff1673ffffffffffffffffffffffffffffffffffffffff16815260200190815260200160002060000154612ec09190614ac8565b612eca9190614a6e565b612ed49190614a3d565b612ede9190614a3d565b612ee89190614a6e565b9050600280015481612efa9190614a6e565b905060086002015481612f0d9190614a3d565b905080600160003373ffffffffffffffffffffffffffffffffffffffff1673ffffffffffffffffffffffffffffffffffffffff168152602001908152602001600020600101541115612f94576040517f08c379a0000000000000000000000000000000000000000000000000000000008152600401612f8b90614819565b60405180910390fd5b81600160003373ffffffffffffffffffffffffffffffffffffffff1673ffffffffffffffffffffffffffffffffffffffff1681526020019081526020016000206000016000828254612fe69190614ac8565b9250508190555081600e60000160008282546130029190614ac8565b925050819055506130593383600860000160009054906101000a900473ffffffffffffffffffffffffffffffffffffffff1673ffffffffffffffffffffffffffffffffffffffff166132949092919063ffffffff16565b3373ffffffffffffffffffffffffffffffffffffffff167f0ac60fbf53b67f5a6a0c8031dd9d1610a06f01669b1a8b9af98f3a6a477e8d7c8360405161309f91906148d9565b60405180910390a25050565b6000600e60030154905090565b61313b846323b872dd60e01b8585856040516024016130d99392919061456a565b604051602081830303815290604052907bffffffffffffffffffffffffffffffffffffffffffffffffffffffff19166020820180517bffffffffffffffffffffffffffffffffffffffffffffffffffffffff838183161783525050505061338b565b50505050565b60007f7965db0b000000000000000000000000000000000000000000000000000000007bffffffffffffffffffffffffffffffffffffffffffffffffffffffff1916827bffffffffffffffffffffffffffffffffffffffffffffffffffffffff191614806131b457506131b382613452565b5b9050919050565b600033905090565b6131cd82826126cd565b61325c576131f28173ffffffffffffffffffffffffffffffffffffffff1660146134bc565b6132008360001c60206134bc565b604051602001613211929190614515565b6040516020818303038152906040526040517f08c379a00000000000000000000000000000000000000000000000000000000081526004016132539190614637565b60405180910390fd5b5050565b61326a82826136f8565b61328f81601760008581526020019081526020016000206137d990919063ffffffff16565b505050565b6133158363a9059cbb60e01b84846040516024016132b39291906145a1565b604051602081830303815290604052907bffffffffffffffffffffffffffffffffffffffffffffffffffffffff19166020820180517bffffffffffffffffffffffffffffffffffffffffffffffffffffffff838183161783525050505061338b565b505050565b6133248282613809565b61334981601760008581526020019081526020016000206138eb90919063ffffffff16565b505050565b6133588282613260565b5050565b600061336b836000018361391b565b60001c905092915050565b600061338482600001613946565b9050919050565b60006133ed826040518060400160405280602081526020017f5361666545524332303a206c6f772d6c6576656c2063616c6c206661696c65648152508573ffffffffffffffffffffffffffffffffffffffff166139579092919063ffffffff16565b905060008151111561344d578080602001905181019061340d9190613fc4565b61344c576040517f08c379a000000000000000000000000000000000000000000000000000000000815260040161344390614879565b60405180910390fd5b5b505050565b60007f01ffc9a7000000000000000000000000000000000000000000000000000000007bffffffffffffffffffffffffffffffffffffffffffffffffffffffff1916827bffffffffffffffffffffffffffffffffffffffffffffffffffffffff1916149050919050565b6060600060028360026134cf9190614a6e565b6134d991906149e7565b67ffffffffffffffff8111156134f2576134f1614d46565b5b6040519080825280601f01601f1916602001820160405280156135245781602001600182028036833780820191505090505b5090507f30000000000000000000000000000000000000000000000000000000000000008160008151811061355c5761355b614d17565b5b60200101907effffffffffffffffffffffffffffffffffffffffffffffffffffffffffffff1916908160001a9053507f7800000000000000000000000000000000000000000000000000000000000000816001815181106135c0576135bf614d17565b5b60200101907effffffffffffffffffffffffffffffffffffffffffffffffffffffffffffff1916908160001a905350600060018460026136009190614a6e565b61360a91906149e7565b90505b60018111156136aa577f3031323334353637383961626364656600000000000000000000000000000000600f86166010811061364c5761364b614d17565b5b1a60f81b82828151811061366357613662614d17565b5b60200101907effffffffffffffffffffffffffffffffffffffffffffffffffffffffffffff1916908160001a905350600485901c9450806136a390614bce565b905061360d565b50600084146136ee576040517f08c379a00000000000000000000000000000000000000000000000000000000081526004016136e590614659565b60405180910390fd5b8091505092915050565b61370282826126cd565b6137d55760016016600084815260200190815260200160002060000160008373ffffffffffffffffffffffffffffffffffffffff1673ffffffffffffffffffffffffffffffffffffffff16815260200190815260200160002060006101000a81548160ff02191690831515021790555061377a6131bb565b73ffffffffffffffffffffffffffffffffffffffff168173ffffffffffffffffffffffffffffffffffffffff16837f2f8788117e7eff1d82e926ec794901d17c78024a50270940304540a733656f0d60405160405180910390a45b5050565b6000613801836000018373ffffffffffffffffffffffffffffffffffffffff1660001b61396f565b905092915050565b61381382826126cd565b156138e75760006016600084815260200190815260200160002060000160008373ffffffffffffffffffffffffffffffffffffffff1673ffffffffffffffffffffffffffffffffffffffff16815260200190815260200160002060006101000a81548160ff02191690831515021790555061388c6131bb565b73ffffffffffffffffffffffffffffffffffffffff168173ffffffffffffffffffffffffffffffffffffffff16837ff6391f5c32d9c69d2a47ea670b442974b53935d1edc7fd64eb21e047a839171b60405160405180910390a45b5050565b6000613913836000018373ffffffffffffffffffffffffffffffffffffffff1660001b6139df565b905092915050565b600082600001828154811061393357613932614d17565b5b9060005260206000200154905092915050565b600081600001805490509050919050565b60606139668484600085613af3565b90509392505050565b600061397b8383613c07565b6139d45782600001829080600181540180825580915050600190039060005260206000200160009091909190915055826000018054905083600101600084815260200190815260200160002081905550600190506139d9565b600090505b92915050565b60008083600101600084815260200190815260200160002054905060008114613ae7576000600182613a119190614ac8565b9050600060018660000180549050613a299190614ac8565b9050818114613a98576000866000018281548110613a4a57613a49614d17565b5b9060005260206000200154905080876000018481548110613a6e57613a6d614d17565b5b90600052602060002001819055508387600101600083815260200190815260200160002081905550505b85600001805480613aac57613aab614ce8565b5b600190038181906000526020600020016000905590558560010160008681526020019081526020016000206000905560019350505050613aed565b60009150505b92915050565b606082471015613b38576040517f08c379a0000000000000000000000000000000000000000000000000000000008152600401613b2f906146f9565b60405180910390fd5b613b4185613c2a565b613b80576040517f08c379a0000000000000000000000000000000000000000000000000000000008152600401613b7790614839565b60405180910390fd5b6000808673ffffffffffffffffffffffffffffffffffffffff168587604051613ba991906144fe565b60006040518083038185875af1925050503d8060008114613be6576040519150601f19603f3d011682016040523d82523d6000602084013e613beb565b606091505b5091509150613bfb828286613c3d565b92505050949350505050565b600080836001016000848152602001908152602001600020541415905092915050565b600080823b905060008111915050919050565b60608315613c4d57829050613c9d565b600083511115613c605782518084602001fd5b816040517f08c379a0000000000000000000000000000000000000000000000000000000008152600401613c949190614637565b60405180910390fd5b9392505050565b828054613cb090614bf8565b90600052602060002090601f016020900481019282613cd25760008555613d19565b82601f10613ceb57805160ff1916838001178555613d19565b82800160010185558215613d19579182015b82811115613d18578251825591602001919060010190613cfd565b5b509050613d269190613d2a565b5090565b5b80821115613d43576000816000905550600101613d2b565b5090565b6000613d5a613d5584614979565b614954565b905082815260208101848484011115613d7657613d75614d7a565b5b613d81848285614b8c565b509392505050565b600081359050613d98816151de565b92915050565b600081359050613dad816151f5565b92915050565b600081519050613dc28161520c565b92915050565b600081359050613dd781615223565b92915050565b600081359050613dec8161523a565b92915050565b600082601f830112613e0757613e06614d75565b5b8135613e17848260208601613d47565b91505092915050565b600081359050613e2f81615251565b92915050565b600081519050613e4481615251565b92915050565b600060208284031215613e6057613e5f614d84565b5b6000613e6e84828501613d89565b91505092915050565b60008060008060008060008060006101208a8c031215613e9a57613e99614d84565b5b6000613ea88c828d01613d89565b99505060208a013567ffffffffffffffff811115613ec957613ec8614d7f565b5b613ed58c828d01613df2565b9850506040613ee68c828d01613e20565b9750506060613ef78c828d01613e20565b9650506080613f088c828d01613e20565b95505060a0613f198c828d01613e20565b94505060c0613f2a8c828d01613e20565b93505060e0613f3b8c828d01613d89565b925050610100613f4d8c828d01613d9e565b9150509295985092959850929598565b60008060008060808587031215613f7757613f76614d84565b5b6000613f8587828801613d89565b9450506020613f9687828801613e20565b9350506040613fa787828801613e20565b9250506060613fb887828801613e20565b91505092959194509250565b600060208284031215613fda57613fd9614d84565b5b6000613fe884828501613db3565b91505092915050565b60006020828403121561400757614006614d84565b5b600061401584828501613dc8565b91505092915050565b6000806040838503121561403557614034614d84565b5b600061404385828601613dc8565b925050602061405485828601613d89565b9150509250929050565b6000806040838503121561407557614074614d84565b5b600061408385828601613dc8565b925050602061409485828601613e20565b9150509250929050565b6000602082840312156140b4576140b3614d84565b5b60006140c284828501613ddd565b91505092915050565b6000602082840312156140e1576140e0614d84565b5b60006140ef84828501613e20565b91505092915050565b60006020828403121561410e5761410d614d84565b5b600061411c84828501613e35565b91505092915050565b61412e81614afc565b82525050565b61413d81614b20565b82525050565b61414c81614b2c565b82525050565b600061415d826149aa565b61416781856149c0565b9350614177818560208601614b9b565b80840191505092915050565b600061418e826149b5565b61419881856149cb565b93506141a8818560208601614b9b565b6141b181614d89565b840191505092915050565b60006141c7826149b5565b6141d181856149dc565b93506141e1818560208601614b9b565b80840191505092915050565b60006141fa6020836149cb565b915061420582614d9a565b602082019050919050565b600061421d6013836149cb565b915061422882614dc3565b602082019050919050565b6000614240601b836149cb565b915061424b82614dec565b602082019050919050565b60006142636013836149cb565b915061426e82614e15565b602082019050919050565b60006142866020836149cb565b915061429182614e3e565b602082019050919050565b60006142a96026836149cb565b91506142b482614e67565b604082019050919050565b60006142cc6011836149cb565b91506142d782614eb6565b602082019050919050565b60006142ef601d836149cb565b91506142fa82614edf565b602082019050919050565b60006143126021836149cb565b915061431d82614f08565b604082019050919050565b6000614335601f836149cb565b915061434082614f57565b602082019050919050565b60006143586015836149cb565b915061436382614f80565b602082019050919050565b600061437b6019836149cb565b915061438682614fa9565b602082019050919050565b600061439e6015836149cb565b91506143a982614fd2565b602082019050919050565b60006143c1602e836149cb565b91506143cc82614ffb565b604082019050919050565b60006143e4601f836149cb565b91506143ef8261504a565b602082019050919050565b6000614407601d836149cb565b915061441282615073565b602082019050919050565b600061442a601a836149cb565b91506144358261509c565b602082019050919050565b600061444d6017836149dc565b9150614458826150c5565b601782019050919050565b6000614470602a836149cb565b915061447b826150ee565b604082019050919050565b60006144936008836149cb565b915061449e8261513d565b602082019050919050565b60006144b66011836149dc565b91506144c182615166565b601182019050919050565b60006144d9602f836149cb565b91506144e48261518f565b604082019050919050565b6144f881614b82565b82525050565b600061450a8284614152565b915081905092915050565b600061452082614440565b915061452c82856141bc565b9150614537826144a9565b915061454382846141bc565b91508190509392505050565b60006020820190506145646000830184614125565b92915050565b600060608201905061457f6000830186614125565b61458c6020830185614125565b61459960408301846144ef565b949350505050565b60006040820190506145b66000830185614125565b6145c360208301846144ef565b9392505050565b60006020820190506145df6000830184614134565b92915050565b60006060820190506145fa6000830186614134565b61460760208301856144ef565b61461460408301846144ef565b949350505050565b60006020820190506146316000830184614143565b92915050565b600060208201905081810360008301526146518184614183565b905092915050565b60006020820190508181036000830152614672816141ed565b9050919050565b6000602082019050818103600083015261469281614210565b9050919050565b600060208201905081810360008301526146b281614233565b9050919050565b600060208201905081810360008301526146d281614256565b9050919050565b600060208201905081810360008301526146f281614279565b9050919050565b600060208201905081810360008301526147128161429c565b9050919050565b60006020820190508181036000830152614732816142bf565b9050919050565b60006020820190508181036000830152614752816142e2565b9050919050565b6000602082019050818103600083015261477281614305565b9050919050565b6000602082019050818103600083015261479281614328565b9050919050565b600060208201905081810360008301526147b28161434b565b9050919050565b600060208201905081810360008301526147d28161436e565b9050919050565b600060208201905081810360008301526147f281614391565b9050919050565b60006020820190508181036000830152614812816143b4565b9050919050565b60006020820190508181036000830152614832816143d7565b9050919050565b60006020820190508181036000830152614852816143fa565b9050919050565b600060208201905081810360008301526148728161441d565b9050919050565b6000602082019050818103600083015261489281614463565b9050919050565b600060208201905081810360008301526148b281614486565b9050919050565b600060208201905081810360008301526148d2816144cc565b9050919050565b60006020820190506148ee60008301846144ef565b92915050565b600060408201905061490960008301856144ef565b61491660208301846144ef565b9392505050565b600060608201905061493260008301866144ef565b61493f60208301856144ef565b61494c60408301846144ef565b949350505050565b600061495e61496f565b905061496a8282614c2a565b919050565b6000604051905090565b600067ffffffffffffffff82111561499457614993614d46565b5b61499d82614d89565b9050602081019050919050565b600081519050919050565b600081519050919050565b600081905092915050565b600082825260208201905092915050565b600081905092915050565b60006149f282614b82565b91506149fd83614b82565b9250827fffffffffffffffffffffffffffffffffffffffffffffffffffffffffffffffff03821115614a3257614a31614c5b565b5b828201905092915050565b6000614a4882614b82565b9150614a5383614b82565b925082614a6357614a62614c8a565b5b828204905092915050565b6000614a7982614b82565b9150614a8483614b82565b9250817fffffffffffffffffffffffffffffffffffffffffffffffffffffffffffffffff0483118215151615614abd57614abc614c5b565b5b828202905092915050565b6000614ad382614b82565b9150614ade83614b82565b925082821015614af157614af0614c5b565b5b828203905092915050565b6000614b0782614b62565b9050919050565b6000614b1982614b62565b9050919050565b60008115159050919050565b6000819050919050565b60007fffffffff0000000000000000000000000000000000000000000000000000000082169050919050565b600073ffffffffffffffffffffffffffffffffffffffff82169050919050565b6000819050919050565b82818337600083830152505050565b60005b83811015614bb9578082015181840152602081019050614b9e565b83811115614bc8576000848401525b50505050565b6000614bd982614b82565b91506000821415614bed57614bec614c5b565b5b600182039050919050565b60006002820490506001821680614c1057607f821691505b60208210811415614c2457614c23614cb9565b5b50919050565b614c3382614d89565b810181811067ffffffffffffffff82111715614c5257614c51614d46565b5b80604052505050565b7f4e487b7100000000000000000000000000000000000000000000000000000000600052601160045260246000fd5b7f4e487b7100000000000000000000000000000000000000000000000000000000600052601260045260246000fd5b7f4e487b7100000000000000000000000000000000000000000000000000000000600052602260045260246000fd5b7f4e487b7100000000000000000000000000000000000000000000000000000000600052603160045260246000fd5b7f4e487b7100000000000000000000000000000000000000000000000000000000600052603260045260246000fd5b7f4e487b7100000000000000000000000000000000000000000000000000000000600052604160045260246000fd5b600080fd5b600080fd5b600080fd5b600080fd5b6000601f19601f8301169050919050565b7f537472696e67733a20686578206c656e67746820696e73756666696369656e74600082015250565b7f4e4f5420454e4f55474820524553455256455300000000000000000000000000600082015250565b7f43414e4e4f54205245504159204d4f5245205448414e204f5745440000000000600082015250565b7f6e6f74206b6565706572206f722061646d696e00000000000000000000000000600082015250565b7f4e4f5420454e4f55474820434f4c4c41544552414c20494e2052455345525645600082015250565b7f416464726573733a20696e73756666696369656e742062616c616e636520666f60008201527f722063616c6c0000000000000000000000000000000000000000000000000000602082015250565b7f416d6f756e74206973207a65726f202121000000000000000000000000000000600082015250565b7f5641554c54204e4f5420554e444552434f4c4c41544552414c495a4544000000600082015250565b7f4e4f5420454e4f554748204445425420544f4b454e5320494e2052455345525660008201527f4500000000000000000000000000000000000000000000000000000000000000602082015250565b7f43414e4e4f54205749544844524157204d4f524520434f4c4c41544552414c00600082015250565b7f6f7065726174696f6e206e6f7420616c6c6f7765640000000000000000000000600082015250565b7f4953204e4f542042414e4b20464143544f5259204f574e455200000000000000600082015250565b7f4e4f5420454e4f55474820434f4c4c41544552414c0000000000000000000000600082015250565b7f496e697469616c697a61626c653a20636f6e747261637420697320616c72656160008201527f647920696e697469616c697a6564000000000000000000000000000000000000602082015250565b7f43414e4e4f5420554e444552434f4c4c41544552414c495a45205641554c5400600082015250565b7f416464726573733a2063616c6c20746f206e6f6e2d636f6e7472616374000000600082015250565b7f6e6f742070726963652075706461746572206f722061646d696e000000000000600082015250565b7f416363657373436f6e74726f6c3a206163636f756e7420000000000000000000600082015250565b7f5361666545524332303a204552433230206f7065726174696f6e20646964206e60008201527f6f74207375636365656400000000000000000000000000000000000000000000602082015250565b7f2173657461626c65000000000000000000000000000000000000000000000000600082015250565b7f206973206d697373696e6720726f6c6520000000000000000000000000000000600082015250565b7f416363657373436f6e74726f6c3a2063616e206f6e6c792072656e6f756e636560008201527f20726f6c657320666f722073656c660000000000000000000000000000000000602082015250565b6151e781614afc565b81146151f257600080fd5b50565b6151fe81614b0e565b811461520957600080fd5b50565b61521581614b20565b811461522057600080fd5b50565b61522c81614b2c565b811461523757600080fd5b50565b61524381614b36565b811461524e57600080fd5b50565b61525a81614b82565b811461526557600080fd5b5056fea26469706673582212203681a9d4d0c25261e3a9cae4ad20b8ae330b03a86e49e03a909f38cbdaeb7e3364736f6c63430008060033",
      "opcodes": "PUSH1 0x80 PUSH1 0x40 MSTORE CALLVALUE DUP1 ISZERO PUSH3 0x11 JUMPI PUSH1 0x0 DUP1 REVERT JUMPDEST POP PUSH1 0x40 MLOAD PUSH3 0x53CC CODESIZE SUB DUP1 PUSH3 0x53CC DUP4 CODECOPY DUP2 DUP2 ADD PUSH1 0x40 MSTORE DUP2 ADD SWAP1 PUSH3 0x37 SWAP2 SWAP1 PUSH3 0x99 JUMP JUMPDEST DUP1 PUSH1 0xE PUSH1 0x6 ADD PUSH1 0x0 PUSH2 0x100 EXP DUP2 SLOAD DUP2 PUSH20 0xFFFFFFFFFFFFFFFFFFFFFFFFFFFFFFFFFFFFFFFF MUL NOT AND SWAP1 DUP4 PUSH20 0xFFFFFFFFFFFFFFFFFFFFFFFFFFFFFFFFFFFFFFFF AND MUL OR SWAP1 SSTORE POP POP PUSH3 0x11E JUMP JUMPDEST PUSH1 0x0 DUP2 MLOAD SWAP1 POP PUSH3 0x93 DUP2 PUSH3 0x104 JUMP JUMPDEST SWAP3 SWAP2 POP POP JUMP JUMPDEST PUSH1 0x0 PUSH1 0x20 DUP3 DUP5 SUB SLT ISZERO PUSH3 0xB2 JUMPI PUSH3 0xB1 PUSH3 0xFF JUMP JUMPDEST JUMPDEST PUSH1 0x0 PUSH3 0xC2 DUP5 DUP3 DUP6 ADD PUSH3 0x82 JUMP JUMPDEST SWAP2 POP POP SWAP3 SWAP2 POP POP JUMP JUMPDEST PUSH1 0x0 PUSH3 0xD8 DUP3 PUSH3 0xDF JUMP JUMPDEST SWAP1 POP SWAP2 SWAP1 POP JUMP JUMPDEST PUSH1 0x0 PUSH20 0xFFFFFFFFFFFFFFFFFFFFFFFFFFFFFFFFFFFFFFFF DUP3 AND SWAP1 POP SWAP2 SWAP1 POP JUMP JUMPDEST PUSH1 0x0 DUP1 REVERT JUMPDEST PUSH3 0x10F DUP2 PUSH3 0xCB JUMP JUMPDEST DUP2 EQ PUSH3 0x11B JUMPI PUSH1 0x0 DUP1 REVERT JUMPDEST POP JUMP JUMPDEST PUSH2 0x529E DUP1 PUSH3 0x12E PUSH1 0x0 CODECOPY PUSH1 0x0 RETURN INVALID PUSH1 0x80 PUSH1 0x40 MSTORE CALLVALUE DUP1 ISZERO PUSH2 0x10 JUMPI PUSH1 0x0 DUP1 REVERT JUMPDEST POP PUSH1 0x4 CALLDATASIZE LT PUSH2 0x2F0 JUMPI PUSH1 0x0 CALLDATALOAD PUSH1 0xE0 SHR DUP1 PUSH4 0x5729B394 GT PUSH2 0x19D JUMPI DUP1 PUSH4 0xB71D7A6E GT PUSH2 0xE9 JUMPI DUP1 PUSH4 0xD547741F GT PUSH2 0xA2 JUMPI DUP1 PUSH4 0xF327E324 GT PUSH2 0x7C JUMPI DUP1 PUSH4 0xF327E324 EQ PUSH2 0x8BF JUMPI DUP1 PUSH4 0xF91614EB EQ PUSH2 0x8DD JUMPI DUP1 PUSH4 0xFB839DDA EQ PUSH2 0x8FB JUMPI DUP1 PUSH4 0xFC2E39A6 EQ PUSH2 0x917 JUMPI PUSH2 0x2F0 JUMP JUMPDEST DUP1 PUSH4 0xD547741F EQ PUSH2 0x86B JUMPI DUP1 PUSH4 0xDD8755F2 EQ PUSH2 0x887 JUMPI DUP1 PUSH4 0xEC5E5E7D EQ PUSH2 0x8A3 JUMPI PUSH2 0x2F0 JUMP JUMPDEST DUP1 PUSH4 0xB71D7A6E EQ PUSH2 0x7A7 JUMPI DUP1 PUSH4 0xC14D0454 EQ PUSH2 0x7C5 JUMPI DUP1 PUSH4 0xC969AC06 EQ PUSH2 0x7E1 JUMPI DUP1 PUSH4 0xCA15C873 EQ PUSH2 0x7FF JUMPI DUP1 PUSH4 0xCB765C1D EQ PUSH2 0x82F JUMPI DUP1 PUSH4 0xD267974C EQ PUSH2 0x84D JUMPI PUSH2 0x2F0 JUMP JUMPDEST DUP1 PUSH4 0x86EF5738 GT PUSH2 0x156 JUMPI DUP1 PUSH4 0x91D14854 GT PUSH2 0x130 JUMPI DUP1 PUSH4 0x91D14854 EQ PUSH2 0x709 JUMPI DUP1 PUSH4 0xA217FDDF EQ PUSH2 0x739 JUMPI DUP1 PUSH4 0xA622EE7C EQ PUSH2 0x757 JUMPI DUP1 PUSH4 0xA860988C EQ PUSH2 0x789 JUMPI PUSH2 0x2F0 JUMP JUMPDEST DUP1 PUSH4 0x86EF5738 EQ PUSH2 0x69F JUMPI DUP1 PUSH4 0x8CDCC955 EQ PUSH2 0x6BD JUMPI DUP1 PUSH4 0x9010D07C EQ PUSH2 0x6D9 JUMPI PUSH2 0x2F0 JUMP JUMPDEST DUP1 PUSH4 0x5729B394 EQ PUSH2 0x605 JUMPI DUP1 PUSH4 0x685A5808 EQ PUSH2 0x621 JUMPI DUP1 PUSH4 0x6D483FE6 EQ PUSH2 0x63F JUMPI DUP1 PUSH4 0x70C12F1E EQ PUSH2 0x65D JUMPI DUP1 PUSH4 0x7649B938 EQ PUSH2 0x679 JUMPI DUP1 PUSH4 0x85B4E543 EQ PUSH2 0x695 JUMPI PUSH2 0x2F0 JUMP JUMPDEST DUP1 PUSH4 0x364BC15A GT PUSH2 0x25C JUMPI DUP1 PUSH4 0x435726C4 GT PUSH2 0x215 JUMPI DUP1 PUSH4 0x4B272D9A GT PUSH2 0x1EF JUMPI DUP1 PUSH4 0x4B272D9A EQ PUSH2 0x591 JUMPI DUP1 PUSH4 0x4FD88951 EQ PUSH2 0x5AD JUMPI DUP1 PUSH4 0x5257B566 EQ PUSH2 0x5C9 JUMPI DUP1 PUSH4 0x53388F44 EQ PUSH2 0x5E7 JUMPI PUSH2 0x2F0 JUMP JUMPDEST DUP1 PUSH4 0x435726C4 EQ PUSH2 0x54F JUMPI DUP1 PUSH4 0x45FD80E4 EQ PUSH2 0x56B JUMPI DUP1 PUSH4 0x494F4188 EQ PUSH2 0x575 JUMPI PUSH2 0x2F0 JUMP JUMPDEST DUP1 PUSH4 0x364BC15A EQ PUSH2 0x48D JUMPI DUP1 PUSH4 0x36568ABE EQ PUSH2 0x4AB JUMPI DUP1 PUSH4 0x38507FF5 EQ PUSH2 0x4C7 JUMPI DUP1 PUSH4 0x3F60D799 EQ PUSH2 0x4E3 JUMPI DUP1 PUSH4 0x3FCAD964 EQ PUSH2 0x501 JUMPI DUP1 PUSH4 0x4032B72B EQ PUSH2 0x533 JUMPI PUSH2 0x2F0 JUMP JUMPDEST DUP1 PUSH4 0x1E522B29 GT PUSH2 0x2AE JUMPI DUP1 PUSH4 0x1E522B29 EQ PUSH2 0x3CB JUMPI DUP1 PUSH4 0x248A9CA3 EQ PUSH2 0x3E9 JUMPI DUP1 PUSH4 0x2F2FF15D EQ PUSH2 0x419 JUMPI DUP1 PUSH4 0x2F865568 EQ PUSH2 0x435 JUMPI DUP1 PUSH4 0x3149CB14 EQ PUSH2 0x451 JUMPI DUP1 PUSH4 0x317C9E42 EQ PUSH2 0x46F JUMPI PUSH2 0x2F0 JUMP JUMPDEST DUP1 PUSH3 0x91A446 EQ PUSH2 0x2F5 JUMPI DUP1 PUSH4 0x1FFC9A7 EQ PUSH2 0x311 JUMPI DUP1 PUSH4 0x8DCD7C6 EQ PUSH2 0x341 JUMPI DUP1 PUSH4 0x15143950 EQ PUSH2 0x35F JUMPI DUP1 PUSH4 0x17D7DE7C EQ PUSH2 0x37D JUMPI DUP1 PUSH4 0x1B9084B4 EQ PUSH2 0x39B JUMPI JUMPDEST PUSH1 0x0 DUP1 REVERT JUMPDEST PUSH2 0x30F PUSH1 0x4 DUP1 CALLDATASIZE SUB DUP2 ADD SWAP1 PUSH2 0x30A SWAP2 SWAP1 PUSH2 0x40CB JUMP JUMPDEST PUSH2 0x935 JUMP JUMPDEST STOP JUMPDEST PUSH2 0x32B PUSH1 0x4 DUP1 CALLDATASIZE SUB DUP2 ADD SWAP1 PUSH2 0x326 SWAP2 SWAP1 PUSH2 0x409E JUMP JUMPDEST PUSH2 0xA20 JUMP JUMPDEST PUSH1 0x40 MLOAD PUSH2 0x338 SWAP2 SWAP1 PUSH2 0x45CA JUMP JUMPDEST PUSH1 0x40 MLOAD DUP1 SWAP2 SUB SWAP1 RETURN JUMPDEST PUSH2 0x349 PUSH2 0xA9A JUMP JUMPDEST PUSH1 0x40 MLOAD PUSH2 0x356 SWAP2 SWAP1 PUSH2 0x48D9 JUMP JUMPDEST PUSH1 0x40 MLOAD DUP1 SWAP2 SUB SWAP1 RETURN JUMPDEST PUSH2 0x367 PUSH2 0xAA6 JUMP JUMPDEST PUSH1 0x40 MLOAD PUSH2 0x374 SWAP2 SWAP1 PUSH2 0x48D9 JUMP JUMPDEST PUSH1 0x40 MLOAD DUP1 SWAP2 SUB SWAP1 RETURN JUMPDEST PUSH2 0x385 PUSH2 0xAB3 JUMP JUMPDEST PUSH1 0x40 MLOAD PUSH2 0x392 SWAP2 SWAP1 PUSH2 0x4637 JUMP JUMPDEST PUSH1 0x40 MLOAD DUP1 SWAP2 SUB SWAP1 RETURN JUMPDEST PUSH2 0x3B5 PUSH1 0x4 DUP1 CALLDATASIZE SUB DUP2 ADD SWAP1 PUSH2 0x3B0 SWAP2 SWAP1 PUSH2 0x3E4A JUMP JUMPDEST PUSH2 0xB45 JUMP JUMPDEST PUSH1 0x40 MLOAD PUSH2 0x3C2 SWAP2 SWAP1 PUSH2 0x48D9 JUMP JUMPDEST PUSH1 0x40 MLOAD DUP1 SWAP2 SUB SWAP1 RETURN JUMPDEST PUSH2 0x3D3 PUSH2 0xC7E JUMP JUMPDEST PUSH1 0x40 MLOAD PUSH2 0x3E0 SWAP2 SWAP1 PUSH2 0x48D9 JUMP JUMPDEST PUSH1 0x40 MLOAD DUP1 SWAP2 SUB SWAP1 RETURN JUMPDEST PUSH2 0x403 PUSH1 0x4 DUP1 CALLDATASIZE SUB DUP2 ADD SWAP1 PUSH2 0x3FE SWAP2 SWAP1 PUSH2 0x3FF1 JUMP JUMPDEST PUSH2 0xC8B JUMP JUMPDEST PUSH1 0x40 MLOAD PUSH2 0x410 SWAP2 SWAP1 PUSH2 0x461C JUMP JUMPDEST PUSH1 0x40 MLOAD DUP1 SWAP2 SUB SWAP1 RETURN JUMPDEST PUSH2 0x433 PUSH1 0x4 DUP1 CALLDATASIZE SUB DUP2 ADD SWAP1 PUSH2 0x42E SWAP2 SWAP1 PUSH2 0x401E JUMP JUMPDEST PUSH2 0xCAB JUMP JUMPDEST STOP JUMPDEST PUSH2 0x44F PUSH1 0x4 DUP1 CALLDATASIZE SUB DUP2 ADD SWAP1 PUSH2 0x44A SWAP2 SWAP1 PUSH2 0x3E4A JUMP JUMPDEST PUSH2 0xCD4 JUMP JUMPDEST STOP JUMPDEST PUSH2 0x459 PUSH2 0x10C7 JUMP JUMPDEST PUSH1 0x40 MLOAD PUSH2 0x466 SWAP2 SWAP1 PUSH2 0x454F JUMP JUMPDEST PUSH1 0x40 MLOAD DUP1 SWAP2 SUB SWAP1 RETURN JUMPDEST PUSH2 0x477 PUSH2 0x10F1 JUMP JUMPDEST PUSH1 0x40 MLOAD PUSH2 0x484 SWAP2 SWAP1 PUSH2 0x48D9 JUMP JUMPDEST PUSH1 0x40 MLOAD DUP1 SWAP2 SUB SWAP1 RETURN JUMPDEST PUSH2 0x495 PUSH2 0x10FE JUMP JUMPDEST PUSH1 0x40 MLOAD PUSH2 0x4A2 SWAP2 SWAP1 PUSH2 0x461C JUMP JUMPDEST PUSH1 0x40 MLOAD DUP1 SWAP2 SUB SWAP1 RETURN JUMPDEST PUSH2 0x4C5 PUSH1 0x4 DUP1 CALLDATASIZE SUB DUP2 ADD SWAP1 PUSH2 0x4C0 SWAP2 SWAP1 PUSH2 0x401E JUMP JUMPDEST PUSH2 0x1122 JUMP JUMPDEST STOP JUMPDEST PUSH2 0x4E1 PUSH1 0x4 DUP1 CALLDATASIZE SUB DUP2 ADD SWAP1 PUSH2 0x4DC SWAP2 SWAP1 PUSH2 0x3F5D JUMP JUMPDEST PUSH2 0x11A5 JUMP JUMPDEST STOP JUMPDEST PUSH2 0x4EB PUSH2 0x12F0 JUMP JUMPDEST PUSH1 0x40 MLOAD PUSH2 0x4F8 SWAP2 SWAP1 PUSH2 0x461C JUMP JUMPDEST PUSH1 0x40 MLOAD DUP1 SWAP2 SUB SWAP1 RETURN JUMPDEST PUSH2 0x51B PUSH1 0x4 DUP1 CALLDATASIZE SUB DUP2 ADD SWAP1 PUSH2 0x516 SWAP2 SWAP1 PUSH2 0x40CB JUMP JUMPDEST PUSH2 0x1314 JUMP JUMPDEST PUSH1 0x40 MLOAD PUSH2 0x52A SWAP4 SWAP3 SWAP2 SWAP1 PUSH2 0x45E5 JUMP JUMPDEST PUSH1 0x40 MLOAD DUP1 SWAP2 SUB SWAP1 RETURN JUMPDEST PUSH2 0x54D PUSH1 0x4 DUP1 CALLDATASIZE SUB DUP2 ADD SWAP1 PUSH2 0x548 SWAP2 SWAP1 PUSH2 0x3E4A JUMP JUMPDEST PUSH2 0x152B JUMP JUMPDEST STOP JUMPDEST PUSH2 0x569 PUSH1 0x4 DUP1 CALLDATASIZE SUB DUP2 ADD SWAP1 PUSH2 0x564 SWAP2 SWAP1 PUSH2 0x40CB JUMP JUMPDEST PUSH2 0x15C8 JUMP JUMPDEST STOP JUMPDEST PUSH2 0x573 PUSH2 0x1781 JUMP JUMPDEST STOP JUMPDEST PUSH2 0x58F PUSH1 0x4 DUP1 CALLDATASIZE SUB DUP2 ADD SWAP1 PUSH2 0x58A SWAP2 SWAP1 PUSH2 0x3E4A JUMP JUMPDEST PUSH2 0x18A3 JUMP JUMPDEST STOP JUMPDEST PUSH2 0x5AB PUSH1 0x4 DUP1 CALLDATASIZE SUB DUP2 ADD SWAP1 PUSH2 0x5A6 SWAP2 SWAP1 PUSH2 0x3E4A JUMP JUMPDEST PUSH2 0x18D0 JUMP JUMPDEST STOP JUMPDEST PUSH2 0x5C7 PUSH1 0x4 DUP1 CALLDATASIZE SUB DUP2 ADD SWAP1 PUSH2 0x5C2 SWAP2 SWAP1 PUSH2 0x40CB JUMP JUMPDEST PUSH2 0x19A4 JUMP JUMPDEST STOP JUMPDEST PUSH2 0x5D1 PUSH2 0x1E8A JUMP JUMPDEST PUSH1 0x40 MLOAD PUSH2 0x5DE SWAP2 SWAP1 PUSH2 0x48D9 JUMP JUMPDEST PUSH1 0x40 MLOAD DUP1 SWAP2 SUB SWAP1 RETURN JUMPDEST PUSH2 0x5EF PUSH2 0x1E97 JUMP JUMPDEST PUSH1 0x40 MLOAD PUSH2 0x5FC SWAP2 SWAP1 PUSH2 0x48D9 JUMP JUMPDEST PUSH1 0x40 MLOAD DUP1 SWAP2 SUB SWAP1 RETURN JUMPDEST PUSH2 0x61F PUSH1 0x4 DUP1 CALLDATASIZE SUB DUP2 ADD SWAP1 PUSH2 0x61A SWAP2 SWAP1 PUSH2 0x40CB JUMP JUMPDEST PUSH2 0x1EA4 JUMP JUMPDEST STOP JUMPDEST PUSH2 0x629 PUSH2 0x1FFF JUMP JUMPDEST PUSH1 0x40 MLOAD PUSH2 0x636 SWAP2 SWAP1 PUSH2 0x48D9 JUMP JUMPDEST PUSH1 0x40 MLOAD DUP1 SWAP2 SUB SWAP1 RETURN JUMPDEST PUSH2 0x647 PUSH2 0x2049 JUMP JUMPDEST PUSH1 0x40 MLOAD PUSH2 0x654 SWAP2 SWAP1 PUSH2 0x454F JUMP JUMPDEST PUSH1 0x40 MLOAD DUP1 SWAP2 SUB SWAP1 RETURN JUMPDEST PUSH2 0x677 PUSH1 0x4 DUP1 CALLDATASIZE SUB DUP2 ADD SWAP1 PUSH2 0x672 SWAP2 SWAP1 PUSH2 0x3E77 JUMP JUMPDEST PUSH2 0x2076 JUMP JUMPDEST STOP JUMPDEST PUSH2 0x693 PUSH1 0x4 DUP1 CALLDATASIZE SUB DUP2 ADD SWAP1 PUSH2 0x68E SWAP2 SWAP1 PUSH2 0x40CB JUMP JUMPDEST PUSH2 0x2238 JUMP JUMPDEST STOP JUMPDEST PUSH2 0x69D PUSH2 0x2542 JUMP JUMPDEST STOP JUMPDEST PUSH2 0x6A7 PUSH2 0x2664 JUMP JUMPDEST PUSH1 0x40 MLOAD PUSH2 0x6B4 SWAP2 SWAP1 PUSH2 0x48D9 JUMP JUMPDEST PUSH1 0x40 MLOAD DUP1 SWAP2 SUB SWAP1 RETURN JUMPDEST PUSH2 0x6D7 PUSH1 0x4 DUP1 CALLDATASIZE SUB DUP2 ADD SWAP1 PUSH2 0x6D2 SWAP2 SWAP1 PUSH2 0x3E4A JUMP JUMPDEST PUSH2 0x2671 JUMP JUMPDEST STOP JUMPDEST PUSH2 0x6F3 PUSH1 0x4 DUP1 CALLDATASIZE SUB DUP2 ADD SWAP1 PUSH2 0x6EE SWAP2 SWAP1 PUSH2 0x405E JUMP JUMPDEST PUSH2 0x269E JUMP JUMPDEST PUSH1 0x40 MLOAD PUSH2 0x700 SWAP2 SWAP1 PUSH2 0x454F JUMP JUMPDEST PUSH1 0x40 MLOAD DUP1 SWAP2 SUB SWAP1 RETURN JUMPDEST PUSH2 0x723 PUSH1 0x4 DUP1 CALLDATASIZE SUB DUP2 ADD SWAP1 PUSH2 0x71E SWAP2 SWAP1 PUSH2 0x401E JUMP JUMPDEST PUSH2 0x26CD JUMP JUMPDEST PUSH1 0x40 MLOAD PUSH2 0x730 SWAP2 SWAP1 PUSH2 0x45CA JUMP JUMPDEST PUSH1 0x40 MLOAD DUP1 SWAP2 SUB SWAP1 RETURN JUMPDEST PUSH2 0x741 PUSH2 0x2738 JUMP JUMPDEST PUSH1 0x40 MLOAD PUSH2 0x74E SWAP2 SWAP1 PUSH2 0x461C JUMP JUMPDEST PUSH1 0x40 MLOAD DUP1 SWAP2 SUB SWAP1 RETURN JUMPDEST PUSH2 0x771 PUSH1 0x4 DUP1 CALLDATASIZE SUB DUP2 ADD SWAP1 PUSH2 0x76C SWAP2 SWAP1 PUSH2 0x3E4A JUMP JUMPDEST PUSH2 0x273F JUMP JUMPDEST PUSH1 0x40 MLOAD PUSH2 0x780 SWAP4 SWAP3 SWAP2 SWAP1 PUSH2 0x491D JUMP JUMPDEST PUSH1 0x40 MLOAD DUP1 SWAP2 SUB SWAP1 RETURN JUMPDEST PUSH2 0x791 PUSH2 0x2769 JUMP JUMPDEST PUSH1 0x40 MLOAD PUSH2 0x79E SWAP2 SWAP1 PUSH2 0x48D9 JUMP JUMPDEST PUSH1 0x40 MLOAD DUP1 SWAP2 SUB SWAP1 RETURN JUMPDEST PUSH2 0x7AF PUSH2 0x27B3 JUMP JUMPDEST PUSH1 0x40 MLOAD PUSH2 0x7BC SWAP2 SWAP1 PUSH2 0x48D9 JUMP JUMPDEST PUSH1 0x40 MLOAD DUP1 SWAP2 SUB SWAP1 RETURN JUMPDEST PUSH2 0x7DF PUSH1 0x4 DUP1 CALLDATASIZE SUB DUP2 ADD SWAP1 PUSH2 0x7DA SWAP2 SWAP1 PUSH2 0x3F5D JUMP JUMPDEST PUSH2 0x28CB JUMP JUMPDEST STOP JUMPDEST PUSH2 0x7E9 PUSH2 0x2A15 JUMP JUMPDEST PUSH1 0x40 MLOAD PUSH2 0x7F6 SWAP2 SWAP1 PUSH2 0x48D9 JUMP JUMPDEST PUSH1 0x40 MLOAD DUP1 SWAP2 SUB SWAP1 RETURN JUMPDEST PUSH2 0x819 PUSH1 0x4 DUP1 CALLDATASIZE SUB DUP2 ADD SWAP1 PUSH2 0x814 SWAP2 SWAP1 PUSH2 0x3FF1 JUMP JUMPDEST PUSH2 0x2A22 JUMP JUMPDEST PUSH1 0x40 MLOAD PUSH2 0x826 SWAP2 SWAP1 PUSH2 0x48D9 JUMP JUMPDEST PUSH1 0x40 MLOAD DUP1 SWAP2 SUB SWAP1 RETURN JUMPDEST PUSH2 0x837 PUSH2 0x2A46 JUMP JUMPDEST PUSH1 0x40 MLOAD PUSH2 0x844 SWAP2 SWAP1 PUSH2 0x48D9 JUMP JUMPDEST PUSH1 0x40 MLOAD DUP1 SWAP2 SUB SWAP1 RETURN JUMPDEST PUSH2 0x855 PUSH2 0x2A53 JUMP JUMPDEST PUSH1 0x40 MLOAD PUSH2 0x862 SWAP2 SWAP1 PUSH2 0x454F JUMP JUMPDEST PUSH1 0x40 MLOAD DUP1 SWAP2 SUB SWAP1 RETURN JUMPDEST PUSH2 0x885 PUSH1 0x4 DUP1 CALLDATASIZE SUB DUP2 ADD SWAP1 PUSH2 0x880 SWAP2 SWAP1 PUSH2 0x401E JUMP JUMPDEST PUSH2 0x2A80 JUMP JUMPDEST STOP JUMPDEST PUSH2 0x8A1 PUSH1 0x4 DUP1 CALLDATASIZE SUB DUP2 ADD SWAP1 PUSH2 0x89C SWAP2 SWAP1 PUSH2 0x3E4A JUMP JUMPDEST PUSH2 0x2AA9 JUMP JUMPDEST STOP JUMPDEST PUSH2 0x8BD PUSH1 0x4 DUP1 CALLDATASIZE SUB DUP2 ADD SWAP1 PUSH2 0x8B8 SWAP2 SWAP1 PUSH2 0x40CB JUMP JUMPDEST PUSH2 0x2B46 JUMP JUMPDEST STOP JUMPDEST PUSH2 0x8C7 PUSH2 0x2DBD JUMP JUMPDEST PUSH1 0x40 MLOAD PUSH2 0x8D4 SWAP2 SWAP1 PUSH2 0x48D9 JUMP JUMPDEST PUSH1 0x40 MLOAD DUP1 SWAP2 SUB SWAP1 RETURN JUMPDEST PUSH2 0x8E5 PUSH2 0x2DCA JUMP JUMPDEST PUSH1 0x40 MLOAD PUSH2 0x8F2 SWAP2 SWAP1 PUSH2 0x48D9 JUMP JUMPDEST PUSH1 0x40 MLOAD DUP1 SWAP2 SUB SWAP1 RETURN JUMPDEST PUSH2 0x915 PUSH1 0x4 DUP1 CALLDATASIZE SUB DUP2 ADD SWAP1 PUSH2 0x910 SWAP2 SWAP1 PUSH2 0x40CB JUMP JUMPDEST PUSH2 0x2DD7 JUMP JUMPDEST STOP JUMPDEST PUSH2 0x91F PUSH2 0x30AB JUMP JUMPDEST PUSH1 0x40 MLOAD PUSH2 0x92C SWAP2 SWAP1 PUSH2 0x48D9 JUMP JUMPDEST PUSH1 0x40 MLOAD DUP1 SWAP2 SUB SWAP1 RETURN JUMPDEST PUSH1 0x0 DUP2 GT PUSH2 0x978 JUMPI PUSH1 0x40 MLOAD PUSH32 0x8C379A000000000000000000000000000000000000000000000000000000000 DUP2 MSTORE PUSH1 0x4 ADD PUSH2 0x96F SWAP1 PUSH2 0x4719 JUMP JUMPDEST PUSH1 0x40 MLOAD DUP1 SWAP2 SUB SWAP1 REVERT JUMPDEST DUP1 PUSH1 0xE PUSH1 0x1 ADD PUSH1 0x0 DUP3 DUP3 SLOAD PUSH2 0x98D SWAP2 SWAP1 PUSH2 0x49E7 JUMP JUMPDEST SWAP3 POP POP DUP2 SWAP1 SSTORE POP PUSH2 0x9E6 CALLER ADDRESS DUP4 PUSH1 0x2 PUSH1 0x0 ADD PUSH1 0x0 SWAP1 SLOAD SWAP1 PUSH2 0x100 EXP SWAP1 DIV PUSH20 0xFFFFFFFFFFFFFFFFFFFFFFFFFFFFFFFFFFFFFFFF AND PUSH20 0xFFFFFFFFFFFFFFFFFFFFFFFFFFFFFFFFFFFFFFFF AND PUSH2 0x30B8 SWAP1 SWAP4 SWAP3 SWAP2 SWAP1 PUSH4 0xFFFFFFFF AND JUMP JUMPDEST PUSH32 0x71EB3E5DF75EF293B81B4C7B38DB51F7A6CEC007D12529CB74D4EAFB7FA53222 DUP2 PUSH1 0x40 MLOAD PUSH2 0xA15 SWAP2 SWAP1 PUSH2 0x48D9 JUMP JUMPDEST PUSH1 0x40 MLOAD DUP1 SWAP2 SUB SWAP1 LOG1 POP JUMP JUMPDEST PUSH1 0x0 PUSH32 0x5A05180F00000000000000000000000000000000000000000000000000000000 PUSH28 0xFFFFFFFFFFFFFFFFFFFFFFFFFFFFFFFFFFFFFFFFFFFFFFFFFFFFFFFF NOT AND DUP3 PUSH28 0xFFFFFFFFFFFFFFFFFFFFFFFFFFFFFFFFFFFFFFFFFFFFFFFFFFFFFFFF NOT AND EQ DUP1 PUSH2 0xA93 JUMPI POP PUSH2 0xA92 DUP3 PUSH2 0x3141 JUMP JUMPDEST JUMPDEST SWAP1 POP SWAP2 SWAP1 POP JUMP JUMPDEST PUSH1 0x0 PUSH1 0x2 DUP1 ADD SLOAD SWAP1 POP SWAP1 JUMP JUMPDEST PUSH1 0x0 PUSH1 0x8 PUSH1 0x1 ADD SLOAD SWAP1 POP SWAP1 JUMP JUMPDEST PUSH1 0x60 PUSH1 0x0 DUP1 SLOAD PUSH2 0xAC2 SWAP1 PUSH2 0x4BF8 JUMP JUMPDEST DUP1 PUSH1 0x1F ADD PUSH1 0x20 DUP1 SWAP2 DIV MUL PUSH1 0x20 ADD PUSH1 0x40 MLOAD SWAP1 DUP2 ADD PUSH1 0x40 MSTORE DUP1 SWAP3 SWAP2 SWAP1 DUP2 DUP2 MSTORE PUSH1 0x20 ADD DUP3 DUP1 SLOAD PUSH2 0xAEE SWAP1 PUSH2 0x4BF8 JUMP JUMPDEST DUP1 ISZERO PUSH2 0xB3B JUMPI DUP1 PUSH1 0x1F LT PUSH2 0xB10 JUMPI PUSH2 0x100 DUP1 DUP4 SLOAD DIV MUL DUP4 MSTORE SWAP2 PUSH1 0x20 ADD SWAP2 PUSH2 0xB3B JUMP JUMPDEST DUP3 ADD SWAP2 SWAP1 PUSH1 0x0 MSTORE PUSH1 0x20 PUSH1 0x0 KECCAK256 SWAP1 JUMPDEST DUP2 SLOAD DUP2 MSTORE SWAP1 PUSH1 0x1 ADD SWAP1 PUSH1 0x20 ADD DUP1 DUP4 GT PUSH2 0xB1E JUMPI DUP3 SWAP1 SUB PUSH1 0x1F AND DUP3 ADD SWAP2 JUMPDEST POP POP POP POP POP SWAP1 POP SWAP1 JUMP JUMPDEST PUSH1 0x0 DUP1 PUSH1 0x1 PUSH1 0x0 DUP5 PUSH20 0xFFFFFFFFFFFFFFFFFFFFFFFFFFFFFFFFFFFFFFFF AND PUSH20 0xFFFFFFFFFFFFFFFFFFFFFFFFFFFFFFFFFFFFFFFF AND DUP2 MSTORE PUSH1 0x20 ADD SWAP1 DUP2 MSTORE PUSH1 0x20 ADD PUSH1 0x0 KECCAK256 PUSH1 0x1 ADD SLOAD EQ ISZERO PUSH2 0xB9A JUMPI PUSH1 0x0 SWAP1 POP PUSH2 0xC79 JUMP JUMPDEST PUSH1 0x2 DUP1 ADD SLOAD PUSH1 0x2 PUSH1 0x1 ADD SLOAD PUSH1 0x1 PUSH1 0x0 DUP6 PUSH20 0xFFFFFFFFFFFFFFFFFFFFFFFFFFFFFFFFFFFFFFFF AND PUSH20 0xFFFFFFFFFFFFFFFFFFFFFFFFFFFFFFFFFFFFFFFF AND DUP2 MSTORE PUSH1 0x20 ADD SWAP1 DUP2 MSTORE PUSH1 0x20 ADD PUSH1 0x0 KECCAK256 PUSH1 0x1 ADD SLOAD PUSH2 0xBF2 SWAP2 SWAP1 PUSH2 0x4A6E JUMP JUMPDEST PUSH2 0xBFC SWAP2 SWAP1 PUSH2 0x4A3D JUMP JUMPDEST PUSH2 0x2710 PUSH1 0x8 PUSH1 0x2 ADD SLOAD PUSH1 0x8 PUSH1 0x1 ADD SLOAD PUSH1 0x1 PUSH1 0x0 DUP8 PUSH20 0xFFFFFFFFFFFFFFFFFFFFFFFFFFFFFFFFFFFFFFFF AND PUSH20 0xFFFFFFFFFFFFFFFFFFFFFFFFFFFFFFFFFFFFFFFF AND DUP2 MSTORE PUSH1 0x20 ADD SWAP1 DUP2 MSTORE PUSH1 0x20 ADD PUSH1 0x0 KECCAK256 PUSH1 0x0 ADD SLOAD PUSH2 0xC58 SWAP2 SWAP1 PUSH2 0x4A6E JUMP JUMPDEST PUSH2 0xC62 SWAP2 SWAP1 PUSH2 0x4A3D JUMP JUMPDEST PUSH2 0xC6C SWAP2 SWAP1 PUSH2 0x4A6E JUMP JUMPDEST PUSH2 0xC76 SWAP2 SWAP1 PUSH2 0x4A3D JUMP JUMPDEST SWAP1 POP JUMPDEST SWAP2 SWAP1 POP JUMP JUMPDEST PUSH1 0x0 PUSH1 0xE PUSH1 0x5 ADD SLOAD SWAP1 POP SWAP1 JUMP JUMPDEST PUSH1 0x0 PUSH1 0x16 PUSH1 0x0 DUP4 DUP2 MSTORE PUSH1 0x20 ADD SWAP1 DUP2 MSTORE PUSH1 0x20 ADD PUSH1 0x0 KECCAK256 PUSH1 0x1 ADD SLOAD SWAP1 POP SWAP2 SWAP1 POP JUMP JUMPDEST PUSH2 0xCB4 DUP3 PUSH2 0xC8B JUMP JUMPDEST PUSH2 0xCC5 DUP2 PUSH2 0xCC0 PUSH2 0x31BB JUMP JUMPDEST PUSH2 0x31C3 JUMP JUMPDEST PUSH2 0xCCF DUP4 DUP4 PUSH2 0x3260 JUMP JUMPDEST POP POP POP JUMP JUMPDEST PUSH2 0xCFE PUSH32 0xFC8737AB85EB45125971625A9EBDB75CC78E01D5C1FA80C4C6E5203F47BC4FAB CALLER PUSH2 0x26CD JUMP JUMPDEST DUP1 PUSH2 0xD12 JUMPI POP PUSH2 0xD11 PUSH1 0x0 DUP1 SHL CALLER PUSH2 0x26CD JUMP JUMPDEST JUMPDEST PUSH2 0xD51 JUMPI PUSH1 0x40 MLOAD PUSH32 0x8C379A000000000000000000000000000000000000000000000000000000000 DUP2 MSTORE PUSH1 0x4 ADD PUSH2 0xD48 SWAP1 PUSH2 0x46B9 JUMP JUMPDEST PUSH1 0x40 MLOAD DUP1 SWAP2 SUB SWAP1 REVERT JUMPDEST PUSH1 0x64 PUSH1 0xE PUSH1 0x4 ADD SLOAD PUSH2 0xD63 SWAP2 SWAP1 PUSH2 0x4A6E JUMP JUMPDEST PUSH2 0xD6C DUP3 PUSH2 0xB45 JUMP JUMPDEST LT PUSH2 0xDAC JUMPI PUSH1 0x40 MLOAD PUSH32 0x8C379A000000000000000000000000000000000000000000000000000000000 DUP2 MSTORE PUSH1 0x4 ADD PUSH2 0xDA3 SWAP1 PUSH2 0x4739 JUMP JUMPDEST PUSH1 0x40 MLOAD DUP1 SWAP2 SUB SWAP1 REVERT JUMPDEST PUSH1 0x0 PUSH1 0x64 DUP1 PUSH1 0xE PUSH1 0x5 ADD SLOAD PUSH1 0x64 PUSH1 0x1 PUSH1 0x0 DUP8 PUSH20 0xFFFFFFFFFFFFFFFFFFFFFFFFFFFFFFFFFFFFFFFF AND PUSH20 0xFFFFFFFFFFFFFFFFFFFFFFFFFFFFFFFFFFFFFFFF AND DUP2 MSTORE PUSH1 0x20 ADD SWAP1 DUP2 MSTORE PUSH1 0x20 ADD PUSH1 0x0 KECCAK256 PUSH1 0x1 ADD SLOAD PUSH2 0xE06 SWAP2 SWAP1 PUSH2 0x4A6E JUMP JUMPDEST PUSH2 0xE10 SWAP2 SWAP1 PUSH2 0x4A6E JUMP JUMPDEST PUSH2 0xE1A SWAP2 SWAP1 PUSH2 0x4A3D JUMP JUMPDEST PUSH2 0xE24 SWAP2 SWAP1 PUSH2 0x4A3D JUMP JUMPDEST PUSH1 0x1 PUSH1 0x0 DUP5 PUSH20 0xFFFFFFFFFFFFFFFFFFFFFFFFFFFFFFFFFFFFFFFF AND PUSH20 0xFFFFFFFFFFFFFFFFFFFFFFFFFFFFFFFFFFFFFFFF AND DUP2 MSTORE PUSH1 0x20 ADD SWAP1 DUP2 MSTORE PUSH1 0x20 ADD PUSH1 0x0 KECCAK256 PUSH1 0x1 ADD SLOAD PUSH2 0xE71 SWAP2 SWAP1 PUSH2 0x49E7 JUMP JUMPDEST SWAP1 POP PUSH1 0x0 PUSH1 0x8 PUSH1 0x1 ADD SLOAD PUSH1 0x2 PUSH1 0x1 ADD SLOAD DUP4 PUSH2 0xE8C SWAP2 SWAP1 PUSH2 0x4A6E JUMP JUMPDEST PUSH2 0xE96 SWAP2 SWAP1 PUSH2 0x4A3D JUMP JUMPDEST SWAP1 POP PUSH1 0x1 PUSH1 0x0 DUP5 PUSH20 0xFFFFFFFFFFFFFFFFFFFFFFFFFFFFFFFFFFFFFFFF AND PUSH20 0xFFFFFFFFFFFFFFFFFFFFFFFFFFFFFFFFFFFFFFFF AND DUP2 MSTORE PUSH1 0x20 ADD SWAP1 DUP2 MSTORE PUSH1 0x20 ADD PUSH1 0x0 KECCAK256 PUSH1 0x0 ADD SLOAD DUP2 GT ISZERO PUSH2 0xF28 JUMPI PUSH1 0x1 PUSH1 0x0 DUP5 PUSH20 0xFFFFFFFFFFFFFFFFFFFFFFFFFFFFFFFFFFFFFFFF AND PUSH20 0xFFFFFFFFFFFFFFFFFFFFFFFFFFFFFFFFFFFFFFFF AND DUP2 MSTORE PUSH1 0x20 ADD SWAP1 DUP2 MSTORE PUSH1 0x20 ADD PUSH1 0x0 KECCAK256 PUSH1 0x0 ADD SLOAD SWAP1 POP JUMPDEST PUSH1 0x0 PUSH1 0xA DUP3 PUSH2 0xF37 SWAP2 SWAP1 PUSH2 0x4A3D JUMP JUMPDEST SWAP1 POP DUP1 DUP3 PUSH2 0xF45 SWAP2 SWAP1 PUSH2 0x4AC8 JUMP JUMPDEST PUSH1 0xE PUSH1 0x0 ADD PUSH1 0x0 DUP3 DUP3 SLOAD PUSH2 0xF59 SWAP2 SWAP1 PUSH2 0x49E7 JUMP JUMPDEST SWAP3 POP POP DUP2 SWAP1 SSTORE POP DUP2 PUSH1 0x1 PUSH1 0x0 DUP7 PUSH20 0xFFFFFFFFFFFFFFFFFFFFFFFFFFFFFFFFFFFFFFFF AND PUSH20 0xFFFFFFFFFFFFFFFFFFFFFFFFFFFFFFFFFFFFFFFF AND DUP2 MSTORE PUSH1 0x20 ADD SWAP1 DUP2 MSTORE PUSH1 0x20 ADD PUSH1 0x0 KECCAK256 PUSH1 0x0 ADD PUSH1 0x0 DUP3 DUP3 SLOAD PUSH2 0xFB2 SWAP2 SWAP1 PUSH2 0x4AC8 JUMP JUMPDEST SWAP3 POP POP DUP2 SWAP1 SSTORE POP PUSH1 0x0 PUSH1 0x1 PUSH1 0x0 DUP7 PUSH20 0xFFFFFFFFFFFFFFFFFFFFFFFFFFFFFFFFFFFFFFFF AND PUSH20 0xFFFFFFFFFFFFFFFFFFFFFFFFFFFFFFFFFFFFFFFF AND DUP2 MSTORE PUSH1 0x20 ADD SWAP1 DUP2 MSTORE PUSH1 0x20 ADD PUSH1 0x0 KECCAK256 PUSH1 0x1 ADD DUP2 SWAP1 SSTORE POP PUSH2 0x1073 PUSH1 0x18 PUSH1 0x2 SWAP1 SLOAD SWAP1 PUSH2 0x100 EXP SWAP1 DIV PUSH20 0xFFFFFFFFFFFFFFFFFFFFFFFFFFFFFFFFFFFFFFFF AND DUP3 PUSH1 0x8 PUSH1 0x0 ADD PUSH1 0x0 SWAP1 SLOAD SWAP1 PUSH2 0x100 EXP SWAP1 DIV PUSH20 0xFFFFFFFFFFFFFFFFFFFFFFFFFFFFFFFFFFFFFFFF AND PUSH20 0xFFFFFFFFFFFFFFFFFFFFFFFFFFFFFFFFFFFFFFFF AND PUSH2 0x3294 SWAP1 SWAP3 SWAP2 SWAP1 PUSH4 0xFFFFFFFF AND JUMP JUMPDEST DUP4 PUSH20 0xFFFFFFFFFFFFFFFFFFFFFFFFFFFFFFFFFFFFFFFF AND PUSH32 0x6DD29D11F8D1BCDBD79DA21BF92895417DCC2F8886B3DB11C8A4CE00B73DE9D0 DUP5 PUSH1 0x40 MLOAD PUSH2 0x10B9 SWAP2 SWAP1 PUSH2 0x48D9 JUMP JUMPDEST PUSH1 0x40 MLOAD DUP1 SWAP2 SUB SWAP1 LOG2 POP POP POP POP JUMP JUMPDEST PUSH1 0x0 PUSH1 0x18 PUSH1 0x2 SWAP1 SLOAD SWAP1 PUSH2 0x100 EXP SWAP1 DIV PUSH20 0xFFFFFFFFFFFFFFFFFFFFFFFFFFFFFFFFFFFFFFFF AND SWAP1 POP SWAP1 JUMP JUMPDEST PUSH1 0x0 PUSH1 0x8 PUSH1 0x2 ADD SLOAD SWAP1 POP SWAP1 JUMP JUMPDEST PUSH32 0xFC8737AB85EB45125971625A9EBDB75CC78E01D5C1FA80C4C6E5203F47BC4FAB DUP2 JUMP JUMPDEST PUSH2 0x112A PUSH2 0x31BB JUMP JUMPDEST PUSH20 0xFFFFFFFFFFFFFFFFFFFFFFFFFFFFFFFFFFFFFFFF AND DUP2 PUSH20 0xFFFFFFFFFFFFFFFFFFFFFFFFFFFFFFFFFFFFFFFF AND EQ PUSH2 0x1197 JUMPI PUSH1 0x40 MLOAD PUSH32 0x8C379A000000000000000000000000000000000000000000000000000000000 DUP2 MSTORE PUSH1 0x4 ADD PUSH2 0x118E SWAP1 PUSH2 0x48B9 JUMP JUMPDEST PUSH1 0x40 MLOAD DUP1 SWAP2 SUB SWAP1 REVERT JUMPDEST PUSH2 0x11A1 DUP3 DUP3 PUSH2 0x331A JUMP JUMPDEST POP POP JUMP JUMPDEST PUSH1 0x0 DUP1 SHL PUSH2 0x11BA DUP2 PUSH2 0x11B5 PUSH2 0x31BB JUMP JUMPDEST PUSH2 0x31C3 JUMP JUMPDEST PUSH1 0x0 PUSH20 0xFFFFFFFFFFFFFFFFFFFFFFFFFFFFFFFFFFFFFFFF AND PUSH1 0x8 PUSH1 0x0 ADD PUSH1 0x0 SWAP1 SLOAD SWAP1 PUSH2 0x100 EXP SWAP1 DIV PUSH20 0xFFFFFFFFFFFFFFFFFFFFFFFFFFFFFFFFFFFFFFFF AND PUSH20 0xFFFFFFFFFFFFFFFFFFFFFFFFFFFFFFFFFFFFFFFF AND EQ DUP1 ISZERO PUSH2 0x1248 JUMPI POP PUSH1 0x0 PUSH20 0xFFFFFFFFFFFFFFFFFFFFFFFFFFFFFFFFFFFFFFFF AND DUP6 PUSH20 0xFFFFFFFFFFFFFFFFFFFFFFFFFFFFFFFFFFFFFFFF AND EQ ISZERO JUMPDEST PUSH2 0x1287 JUMPI PUSH1 0x40 MLOAD PUSH32 0x8C379A000000000000000000000000000000000000000000000000000000000 DUP2 MSTORE PUSH1 0x4 ADD PUSH2 0x127E SWAP1 PUSH2 0x4899 JUMP JUMPDEST PUSH1 0x40 MLOAD DUP1 SWAP2 SUB SWAP1 REVERT JUMPDEST DUP5 PUSH1 0x8 PUSH1 0x0 ADD PUSH1 0x0 PUSH2 0x100 EXP DUP2 SLOAD DUP2 PUSH20 0xFFFFFFFFFFFFFFFFFFFFFFFFFFFFFFFFFFFFFFFF MUL NOT AND SWAP1 DUP4 PUSH20 0xFFFFFFFFFFFFFFFFFFFFFFFFFFFFFFFFFFFFFFFF AND MUL OR SWAP1 SSTORE POP DUP2 PUSH1 0x8 PUSH1 0x1 ADD DUP2 SWAP1 SSTORE POP DUP3 PUSH1 0x8 PUSH1 0x2 ADD DUP2 SWAP1 SSTORE POP DUP4 PUSH1 0x8 PUSH1 0x3 ADD DUP2 SWAP1 SSTORE POP POP POP POP POP POP JUMP JUMPDEST PUSH32 0x3204C940063673962B481A0395619B3DBBD137589C419E993978C1C71BCF68EC DUP2 JUMP JUMPDEST PUSH1 0x0 DUP1 PUSH1 0x0 DUP1 PUSH1 0xE PUSH1 0x6 ADD PUSH1 0x0 SWAP1 SLOAD SWAP1 PUSH2 0x100 EXP SWAP1 DIV PUSH20 0xFFFFFFFFFFFFFFFFFFFFFFFFFFFFFFFFFFFFFFFF AND SWAP1 POP PUSH1 0x0 DUP2 PUSH20 0xFFFFFFFFFFFFFFFFFFFFFFFFFFFFFFFFFFFFFFFF AND PUSH4 0x46EEE1C4 DUP8 PUSH1 0x40 MLOAD DUP3 PUSH4 0xFFFFFFFF AND PUSH1 0xE0 SHL DUP2 MSTORE PUSH1 0x4 ADD PUSH2 0x137D SWAP2 SWAP1 PUSH2 0x48D9 JUMP JUMPDEST PUSH1 0x20 PUSH1 0x40 MLOAD DUP1 DUP4 SUB DUP2 DUP7 DUP1 EXTCODESIZE ISZERO DUP1 ISZERO PUSH2 0x1395 JUMPI PUSH1 0x0 DUP1 REVERT JUMPDEST POP GAS STATICCALL ISZERO DUP1 ISZERO PUSH2 0x13A9 JUMPI RETURNDATASIZE PUSH1 0x0 DUP1 RETURNDATACOPY RETURNDATASIZE PUSH1 0x0 REVERT JUMPDEST POP POP POP POP PUSH1 0x40 MLOAD RETURNDATASIZE PUSH1 0x1F NOT PUSH1 0x1F DUP3 ADD AND DUP3 ADD DUP1 PUSH1 0x40 MSTORE POP DUP2 ADD SWAP1 PUSH2 0x13CD SWAP2 SWAP1 PUSH2 0x40F8 JUMP JUMPDEST SWAP1 POP PUSH1 0x0 DUP3 PUSH20 0xFFFFFFFFFFFFFFFFFFFFFFFFFFFFFFFFFFFFFFFF AND PUSH4 0x77FBB663 DUP9 PUSH1 0x1 DUP6 PUSH2 0x13FB SWAP2 SWAP1 PUSH2 0x4AC8 JUMP JUMPDEST PUSH1 0x40 MLOAD DUP4 PUSH4 0xFFFFFFFF AND PUSH1 0xE0 SHL DUP2 MSTORE PUSH1 0x4 ADD PUSH2 0x1418 SWAP3 SWAP2 SWAP1 PUSH2 0x48F4 JUMP JUMPDEST PUSH1 0x20 PUSH1 0x40 MLOAD DUP1 DUP4 SUB DUP2 DUP7 DUP1 EXTCODESIZE ISZERO DUP1 ISZERO PUSH2 0x1430 JUMPI PUSH1 0x0 DUP1 REVERT JUMPDEST POP GAS STATICCALL ISZERO DUP1 ISZERO PUSH2 0x1444 JUMPI RETURNDATASIZE PUSH1 0x0 DUP1 RETURNDATACOPY RETURNDATASIZE PUSH1 0x0 REVERT JUMPDEST POP POP POP POP PUSH1 0x40 MLOAD RETURNDATASIZE PUSH1 0x1F NOT PUSH1 0x1F DUP3 ADD AND DUP3 ADD DUP1 PUSH1 0x40 MSTORE POP DUP2 ADD SWAP1 PUSH2 0x1468 SWAP2 SWAP1 PUSH2 0x40F8 JUMP JUMPDEST SWAP1 POP PUSH1 0x0 DUP4 PUSH20 0xFFFFFFFFFFFFFFFFFFFFFFFFFFFFFFFFFFFFFFFF AND PUSH4 0x93FA4915 DUP10 DUP5 PUSH1 0x40 MLOAD DUP4 PUSH4 0xFFFFFFFF AND PUSH1 0xE0 SHL DUP2 MSTORE PUSH1 0x4 ADD PUSH2 0x14A7 SWAP3 SWAP2 SWAP1 PUSH2 0x48F4 JUMP JUMPDEST PUSH1 0x20 PUSH1 0x40 MLOAD DUP1 DUP4 SUB DUP2 DUP7 DUP1 EXTCODESIZE ISZERO DUP1 ISZERO PUSH2 0x14BF JUMPI PUSH1 0x0 DUP1 REVERT JUMPDEST POP GAS STATICCALL ISZERO DUP1 ISZERO PUSH2 0x14D3 JUMPI RETURNDATASIZE PUSH1 0x0 DUP1 RETURNDATACOPY RETURNDATASIZE PUSH1 0x0 REVERT JUMPDEST POP POP POP POP PUSH1 0x40 MLOAD RETURNDATASIZE PUSH1 0x1F NOT PUSH1 0x1F DUP3 ADD AND DUP3 ADD DUP1 PUSH1 0x40 MSTORE POP DUP2 ADD SWAP1 PUSH2 0x14F7 SWAP2 SWAP1 PUSH2 0x40F8 JUMP JUMPDEST SWAP1 POP PUSH1 0x0 DUP2 GT ISZERO PUSH2 0x1515 JUMPI PUSH1 0x1 DUP2 DUP4 SWAP7 POP SWAP7 POP SWAP7 POP POP POP POP POP PUSH2 0x1524 JUMP JUMPDEST PUSH1 0x0 DUP1 DUP4 SWAP7 POP SWAP7 POP SWAP7 POP POP POP POP POP JUMPDEST SWAP2 SWAP4 SWAP1 SWAP3 POP JUMP JUMPDEST PUSH1 0x0 PUSH20 0xFFFFFFFFFFFFFFFFFFFFFFFFFFFFFFFFFFFFFFFF AND DUP2 PUSH20 0xFFFFFFFFFFFFFFFFFFFFFFFFFFFFFFFFFFFFFFFF AND EQ ISZERO PUSH2 0x159B JUMPI PUSH1 0x40 MLOAD PUSH32 0x8C379A000000000000000000000000000000000000000000000000000000000 DUP2 MSTORE PUSH1 0x4 ADD PUSH2 0x1592 SWAP1 PUSH2 0x4799 JUMP JUMPDEST PUSH1 0x40 MLOAD DUP1 SWAP2 SUB SWAP1 REVERT JUMPDEST PUSH2 0x15C5 PUSH32 0xFC8737AB85EB45125971625A9EBDB75CC78E01D5C1FA80C4C6E5203F47BC4FAB DUP3 PUSH2 0xCAB JUMP JUMPDEST POP JUMP JUMPDEST DUP1 PUSH1 0xE PUSH1 0x0 ADD SLOAD LT ISZERO PUSH2 0x1610 JUMPI PUSH1 0x40 MLOAD PUSH32 0x8C379A000000000000000000000000000000000000000000000000000000000 DUP2 MSTORE PUSH1 0x4 ADD PUSH2 0x1607 SWAP1 PUSH2 0x46D9 JUMP JUMPDEST PUSH1 0x40 MLOAD DUP1 SWAP2 SUB SWAP1 REVERT JUMPDEST PUSH1 0x0 PUSH1 0xC8 DUP3 PUSH2 0x161F SWAP2 SWAP1 PUSH2 0x4A3D JUMP JUMPDEST SWAP1 POP DUP2 PUSH1 0xE PUSH1 0x0 ADD PUSH1 0x0 DUP3 DUP3 SLOAD PUSH2 0x1636 SWAP2 SWAP1 PUSH2 0x4AC8 JUMP JUMPDEST SWAP3 POP POP DUP2 SWAP1 SSTORE POP PUSH1 0x8 PUSH1 0x0 ADD PUSH1 0x0 SWAP1 SLOAD SWAP1 PUSH2 0x100 EXP SWAP1 DIV PUSH20 0xFFFFFFFFFFFFFFFFFFFFFFFFFFFFFFFFFFFFFFFF AND PUSH20 0xFFFFFFFFFFFFFFFFFFFFFFFFFFFFFFFFFFFFFFFF AND PUSH32 0x529AFC4538720FE0B3EADC40486369AB962002D72FEAD1387B300C66073E7BF DUP4 PUSH1 0x40 MLOAD PUSH2 0x16A8 SWAP2 SWAP1 PUSH2 0x48D9 JUMP JUMPDEST PUSH1 0x40 MLOAD DUP1 SWAP2 SUB SWAP1 LOG2 PUSH2 0x170B CALLER DUP3 DUP5 PUSH2 0x16C0 SWAP2 SWAP1 PUSH2 0x4AC8 JUMP JUMPDEST PUSH1 0x8 PUSH1 0x0 ADD PUSH1 0x0 SWAP1 SLOAD SWAP1 PUSH2 0x100 EXP SWAP1 DIV PUSH20 0xFFFFFFFFFFFFFFFFFFFFFFFFFFFFFFFFFFFFFFFF AND PUSH20 0xFFFFFFFFFFFFFFFFFFFFFFFFFFFFFFFFFFFFFFFF AND PUSH2 0x3294 SWAP1 SWAP3 SWAP2 SWAP1 PUSH4 0xFFFFFFFF AND JUMP JUMPDEST PUSH2 0x177D PUSH1 0x18 PUSH1 0x2 SWAP1 SLOAD SWAP1 PUSH2 0x100 EXP SWAP1 DIV PUSH20 0xFFFFFFFFFFFFFFFFFFFFFFFFFFFFFFFFFFFFFFFF AND DUP3 PUSH1 0x8 PUSH1 0x0 ADD PUSH1 0x0 SWAP1 SLOAD SWAP1 PUSH2 0x100 EXP SWAP1 DIV PUSH20 0xFFFFFFFFFFFFFFFFFFFFFFFFFFFFFFFFFFFFFFFF AND PUSH20 0xFFFFFFFFFFFFFFFFFFFFFFFFFFFFFFFFFFFFFFFF AND PUSH2 0x3294 SWAP1 SWAP3 SWAP2 SWAP1 PUSH4 0xFFFFFFFF AND JUMP JUMPDEST POP POP JUMP JUMPDEST PUSH2 0x17AB PUSH32 0x3204C940063673962B481A0395619B3DBBD137589C419E993978C1C71BCF68EC CALLER PUSH2 0x26CD JUMP JUMPDEST DUP1 PUSH2 0x17BF JUMPI POP PUSH2 0x17BE PUSH1 0x0 DUP1 SHL CALLER PUSH2 0x26CD JUMP JUMPDEST JUMPDEST PUSH2 0x17FE JUMPI PUSH1 0x40 MLOAD PUSH32 0x8C379A000000000000000000000000000000000000000000000000000000000 DUP2 MSTORE PUSH1 0x4 ADD PUSH2 0x17F5 SWAP1 PUSH2 0x4859 JUMP JUMPDEST PUSH1 0x40 MLOAD DUP1 SWAP2 SUB SWAP1 REVERT JUMPDEST PUSH2 0x180C PUSH1 0x2 PUSH1 0x3 ADD SLOAD PUSH2 0x1314 JUMP JUMPDEST SWAP1 SWAP2 POP PUSH1 0x2 PUSH1 0x1 ADD PUSH1 0x0 PUSH1 0x2 PUSH1 0x5 ADD PUSH1 0x0 DUP5 SWAP2 SWAP1 POP SSTORE DUP4 SWAP2 SWAP1 POP SSTORE POP POP PUSH1 0x2 PUSH1 0x0 ADD PUSH1 0x0 SWAP1 SLOAD SWAP1 PUSH2 0x100 EXP SWAP1 DIV PUSH20 0xFFFFFFFFFFFFFFFFFFFFFFFFFFFFFFFFFFFFFFFF AND PUSH20 0xFFFFFFFFFFFFFFFFFFFFFFFFFFFFFFFFFFFFFFFF AND PUSH32 0x64E6E7BD72B853C4E62FD6CEACA05A104700C70A4CB567C75C7F2242BA7F037C PUSH1 0x2 PUSH1 0x1 ADD SLOAD PUSH1 0x40 MLOAD PUSH2 0x1899 SWAP2 SWAP1 PUSH2 0x48D9 JUMP JUMPDEST PUSH1 0x40 MLOAD DUP1 SWAP2 SUB SWAP1 LOG2 JUMP JUMPDEST PUSH2 0x18CD PUSH32 0xFC8737AB85EB45125971625A9EBDB75CC78E01D5C1FA80C4C6E5203F47BC4FAB DUP3 PUSH2 0x2A80 JUMP JUMPDEST POP JUMP JUMPDEST CALLER PUSH20 0xFFFFFFFFFFFFFFFFFFFFFFFFFFFFFFFFFFFFFFFF AND PUSH1 0x18 PUSH1 0x2 SWAP1 SLOAD SWAP1 PUSH2 0x100 EXP SWAP1 DIV PUSH20 0xFFFFFFFFFFFFFFFFFFFFFFFFFFFFFFFFFFFFFFFF AND PUSH20 0xFFFFFFFFFFFFFFFFFFFFFFFFFFFFFFFFFFFFFFFF AND EQ PUSH2 0x1960 JUMPI PUSH1 0x40 MLOAD PUSH32 0x8C379A000000000000000000000000000000000000000000000000000000000 DUP2 MSTORE PUSH1 0x4 ADD PUSH2 0x1957 SWAP1 PUSH2 0x47B9 JUMP JUMPDEST PUSH1 0x40 MLOAD DUP1 SWAP2 SUB SWAP1 REVERT JUMPDEST DUP1 PUSH1 0x18 PUSH1 0x2 PUSH2 0x100 EXP DUP2 SLOAD DUP2 PUSH20 0xFFFFFFFFFFFFFFFFFFFFFFFFFFFFFFFFFFFFFFFF MUL NOT AND SWAP1 DUP4 PUSH20 0xFFFFFFFFFFFFFFFFFFFFFFFFFFFFFFFFFFFFFFFF AND MUL OR SWAP1 SSTORE POP POP JUMP JUMPDEST PUSH1 0x0 PUSH1 0x1 PUSH1 0x0 CALLER PUSH20 0xFFFFFFFFFFFFFFFFFFFFFFFFFFFFFFFFFFFFFFFF AND PUSH20 0xFFFFFFFFFFFFFFFFFFFFFFFFFFFFFFFFFFFFFFFF AND DUP2 MSTORE PUSH1 0x20 ADD SWAP1 DUP2 MSTORE PUSH1 0x20 ADD PUSH1 0x0 KECCAK256 PUSH1 0x1 ADD SLOAD EQ PUSH2 0x1A3D JUMPI PUSH2 0x19F6 PUSH2 0x27B3 JUMP JUMPDEST PUSH1 0x1 PUSH1 0x0 CALLER PUSH20 0xFFFFFFFFFFFFFFFFFFFFFFFFFFFFFFFFFFFFFFFF AND PUSH20 0xFFFFFFFFFFFFFFFFFFFFFFFFFFFFFFFFFFFFFFFF AND DUP2 MSTORE PUSH1 0x20 ADD SWAP1 DUP2 MSTORE PUSH1 0x20 ADD PUSH1 0x0 KECCAK256 PUSH1 0x1 ADD DUP2 SWAP1 SSTORE POP JUMPDEST PUSH1 0x0 PUSH1 0x64 PUSH1 0xE PUSH1 0x4 ADD SLOAD PUSH1 0x2 PUSH1 0x1 ADD SLOAD PUSH1 0x8 PUSH1 0x1 ADD SLOAD PUSH1 0x1 PUSH1 0x0 CALLER PUSH20 0xFFFFFFFFFFFFFFFFFFFFFFFFFFFFFFFFFFFFFFFF AND PUSH20 0xFFFFFFFFFFFFFFFFFFFFFFFFFFFFFFFFFFFFFFFF AND DUP2 MSTORE PUSH1 0x20 ADD SWAP1 DUP2 MSTORE PUSH1 0x20 ADD PUSH1 0x0 KECCAK256 PUSH1 0x0 ADD SLOAD PUSH2 0x1AA0 SWAP2 SWAP1 PUSH2 0x4A6E JUMP JUMPDEST PUSH2 0x1AAA SWAP2 SWAP1 PUSH2 0x4A3D JUMP JUMPDEST PUSH2 0x1AB4 SWAP2 SWAP1 PUSH2 0x4A3D JUMP JUMPDEST PUSH2 0x1ABE SWAP2 SWAP1 PUSH2 0x4A6E JUMP JUMPDEST SWAP1 POP PUSH1 0x2 DUP1 ADD SLOAD DUP2 PUSH2 0x1AD0 SWAP2 SWAP1 PUSH2 0x4A6E JUMP JUMPDEST SWAP1 POP PUSH1 0x8 PUSH1 0x2 ADD SLOAD DUP2 PUSH2 0x1AE3 SWAP2 SWAP1 PUSH2 0x4A3D JUMP JUMPDEST SWAP1 POP PUSH1 0x1 PUSH1 0x0 CALLER PUSH20 0xFFFFFFFFFFFFFFFFFFFFFFFFFFFFFFFFFFFFFFFF AND PUSH20 0xFFFFFFFFFFFFFFFFFFFFFFFFFFFFFFFFFFFFFFFF AND DUP2 MSTORE PUSH1 0x20 ADD SWAP1 DUP2 MSTORE PUSH1 0x20 ADD PUSH1 0x0 KECCAK256 PUSH1 0x1 ADD SLOAD DUP2 PUSH2 0x1B33 SWAP2 SWAP1 PUSH2 0x4AC8 JUMP JUMPDEST SWAP1 POP PUSH2 0x2710 PUSH1 0xE PUSH1 0x3 ADD SLOAD DUP4 PUSH2 0x1B49 SWAP2 SWAP1 PUSH2 0x4A6E JUMP JUMPDEST PUSH2 0x1B53 SWAP2 SWAP1 PUSH2 0x4A3D JUMP JUMPDEST DUP3 PUSH2 0x1B5E SWAP2 SWAP1 PUSH2 0x49E7 JUMP JUMPDEST PUSH1 0x1 PUSH1 0x0 CALLER PUSH20 0xFFFFFFFFFFFFFFFFFFFFFFFFFFFFFFFFFFFFFFFF AND PUSH20 0xFFFFFFFFFFFFFFFFFFFFFFFFFFFFFFFFFFFFFFFF AND DUP2 MSTORE PUSH1 0x20 ADD SWAP1 DUP2 MSTORE PUSH1 0x20 ADD PUSH1 0x0 KECCAK256 PUSH1 0x1 ADD PUSH1 0x0 DUP3 DUP3 SLOAD PUSH2 0x1BAF SWAP2 SWAP1 PUSH2 0x49E7 JUMP JUMPDEST SWAP3 POP POP DUP2 SWAP1 SSTORE POP DUP1 PUSH1 0x1 PUSH1 0x0 CALLER PUSH20 0xFFFFFFFFFFFFFFFFFFFFFFFFFFFFFFFFFFFFFFFF AND PUSH20 0xFFFFFFFFFFFFFFFFFFFFFFFFFFFFFFFFFFFFFFFF AND DUP2 MSTORE PUSH1 0x20 ADD SWAP1 DUP2 MSTORE PUSH1 0x20 ADD PUSH1 0x0 KECCAK256 PUSH1 0x1 ADD SLOAD LT PUSH2 0x1C3A JUMPI PUSH1 0x40 MLOAD PUSH32 0x8C379A000000000000000000000000000000000000000000000000000000000 DUP2 MSTORE PUSH1 0x4 ADD PUSH2 0x1C31 SWAP1 PUSH2 0x47D9 JUMP JUMPDEST PUSH1 0x40 MLOAD DUP1 SWAP2 SUB SWAP1 REVERT JUMPDEST PUSH1 0x2 PUSH1 0x0 ADD PUSH1 0x0 SWAP1 SLOAD SWAP1 PUSH2 0x100 EXP SWAP1 DIV PUSH20 0xFFFFFFFFFFFFFFFFFFFFFFFFFFFFFFFFFFFFFFFF AND PUSH20 0xFFFFFFFFFFFFFFFFFFFFFFFFFFFFFFFFFFFFFFFF AND PUSH4 0x70A08231 ADDRESS PUSH1 0x40 MLOAD DUP3 PUSH4 0xFFFFFFFF AND PUSH1 0xE0 SHL DUP2 MSTORE PUSH1 0x4 ADD PUSH2 0x1C98 SWAP2 SWAP1 PUSH2 0x454F JUMP JUMPDEST PUSH1 0x20 PUSH1 0x40 MLOAD DUP1 DUP4 SUB DUP2 DUP7 DUP1 EXTCODESIZE ISZERO DUP1 ISZERO PUSH2 0x1CB0 JUMPI PUSH1 0x0 DUP1 REVERT JUMPDEST POP GAS STATICCALL ISZERO DUP1 ISZERO PUSH2 0x1CC4 JUMPI RETURNDATASIZE PUSH1 0x0 DUP1 RETURNDATACOPY RETURNDATASIZE PUSH1 0x0 REVERT JUMPDEST POP POP POP POP PUSH1 0x40 MLOAD RETURNDATASIZE PUSH1 0x1F NOT PUSH1 0x1F DUP3 ADD AND DUP3 ADD DUP1 PUSH1 0x40 MSTORE POP DUP2 ADD SWAP1 PUSH2 0x1CE8 SWAP2 SWAP1 PUSH2 0x40F8 JUMP JUMPDEST DUP3 GT ISZERO PUSH2 0x1D2A JUMPI PUSH1 0x40 MLOAD PUSH32 0x8C379A000000000000000000000000000000000000000000000000000000000 DUP2 MSTORE PUSH1 0x4 ADD PUSH2 0x1D21 SWAP1 PUSH2 0x4679 JUMP JUMPDEST PUSH1 0x40 MLOAD DUP1 SWAP2 SUB SWAP1 REVERT JUMPDEST PUSH1 0xE PUSH1 0x7 ADD SLOAD PUSH1 0x1 PUSH1 0x0 CALLER PUSH20 0xFFFFFFFFFFFFFFFFFFFFFFFFFFFFFFFFFFFFFFFF AND PUSH20 0xFFFFFFFFFFFFFFFFFFFFFFFFFFFFFFFFFFFFFFFF AND DUP2 MSTORE PUSH1 0x20 ADD SWAP1 DUP2 MSTORE PUSH1 0x20 ADD PUSH1 0x0 KECCAK256 PUSH1 0x2 ADD SLOAD TIMESTAMP PUSH2 0x1D7E SWAP2 SWAP1 PUSH2 0x4AC8 JUMP JUMPDEST GT ISZERO PUSH2 0x1DCC JUMPI TIMESTAMP PUSH1 0x1 PUSH1 0x0 CALLER PUSH20 0xFFFFFFFFFFFFFFFFFFFFFFFFFFFFFFFFFFFFFFFF AND PUSH20 0xFFFFFFFFFFFFFFFFFFFFFFFFFFFFFFFFFFFFFFFF AND DUP2 MSTORE PUSH1 0x20 ADD SWAP1 DUP2 MSTORE PUSH1 0x20 ADD PUSH1 0x0 KECCAK256 PUSH1 0x2 ADD DUP2 SWAP1 SSTORE POP JUMPDEST DUP2 PUSH1 0xE PUSH1 0x1 ADD PUSH1 0x0 DUP3 DUP3 SLOAD PUSH2 0x1DE1 SWAP2 SWAP1 PUSH2 0x4AC8 JUMP JUMPDEST SWAP3 POP POP DUP2 SWAP1 SSTORE POP PUSH2 0x1E38 CALLER DUP4 PUSH1 0x2 PUSH1 0x0 ADD PUSH1 0x0 SWAP1 SLOAD SWAP1 PUSH2 0x100 EXP SWAP1 DIV PUSH20 0xFFFFFFFFFFFFFFFFFFFFFFFFFFFFFFFFFFFFFFFF AND PUSH20 0xFFFFFFFFFFFFFFFFFFFFFFFFFFFFFFFFFFFFFFFF AND PUSH2 0x3294 SWAP1 SWAP3 SWAP2 SWAP1 PUSH4 0xFFFFFFFF AND JUMP JUMPDEST CALLER PUSH20 0xFFFFFFFFFFFFFFFFFFFFFFFFFFFFFFFFFFFFFFFF AND PUSH32 0x232862A021D33EA4A70F5D509B754F0F6986AAA0FFDD5C7DB4910422AFC768A DUP4 PUSH1 0x40 MLOAD PUSH2 0x1E7E SWAP2 SWAP1 PUSH2 0x48D9 JUMP JUMPDEST PUSH1 0x40 MLOAD DUP1 SWAP2 SUB SWAP1 LOG2 POP POP JUMP JUMPDEST PUSH1 0x0 PUSH1 0xE PUSH1 0x2 ADD SLOAD SWAP1 POP SWAP1 JUMP JUMPDEST PUSH1 0x0 PUSH1 0x8 PUSH1 0x5 ADD SLOAD SWAP1 POP SWAP1 JUMP JUMPDEST PUSH1 0x0 DUP2 GT PUSH2 0x1EE7 JUMPI PUSH1 0x40 MLOAD PUSH32 0x8C379A000000000000000000000000000000000000000000000000000000000 DUP2 MSTORE PUSH1 0x4 ADD PUSH2 0x1EDE SWAP1 PUSH2 0x4719 JUMP JUMPDEST PUSH1 0x40 MLOAD DUP1 SWAP2 SUB SWAP1 REVERT JUMPDEST DUP1 PUSH1 0x1 PUSH1 0x0 CALLER PUSH20 0xFFFFFFFFFFFFFFFFFFFFFFFFFFFFFFFFFFFFFFFF AND PUSH20 0xFFFFFFFFFFFFFFFFFFFFFFFFFFFFFFFFFFFFFFFF AND DUP2 MSTORE PUSH1 0x20 ADD SWAP1 DUP2 MSTORE PUSH1 0x20 ADD PUSH1 0x0 KECCAK256 PUSH1 0x0 ADD PUSH1 0x0 DUP3 DUP3 SLOAD PUSH2 0x1F39 SWAP2 SWAP1 PUSH2 0x49E7 JUMP JUMPDEST SWAP3 POP POP DUP2 SWAP1 SSTORE POP DUP1 PUSH1 0xE PUSH1 0x0 ADD PUSH1 0x0 DUP3 DUP3 SLOAD PUSH2 0x1F55 SWAP2 SWAP1 PUSH2 0x49E7 JUMP JUMPDEST SWAP3 POP POP DUP2 SWAP1 SSTORE POP PUSH2 0x1FAE CALLER ADDRESS DUP4 PUSH1 0x8 PUSH1 0x0 ADD PUSH1 0x0 SWAP1 SLOAD SWAP1 PUSH2 0x100 EXP SWAP1 DIV PUSH20 0xFFFFFFFFFFFFFFFFFFFFFFFFFFFFFFFFFFFFFFFF AND PUSH20 0xFFFFFFFFFFFFFFFFFFFFFFFFFFFFFFFFFFFFFFFF AND PUSH2 0x30B8 SWAP1 SWAP4 SWAP3 SWAP2 SWAP1 PUSH4 0xFFFFFFFF AND JUMP JUMPDEST CALLER PUSH20 0xFFFFFFFFFFFFFFFFFFFFFFFFFFFFFFFFFFFFFFFF AND PUSH32 0x89D28CF06BDB2EE1B92CD046D58450042AD113E9F4CDABFC4D43E7C5557758D7 DUP3 PUSH1 0x40 MLOAD PUSH2 0x1FF4 SWAP2 SWAP1 PUSH2 0x48D9 JUMP JUMPDEST PUSH1 0x40 MLOAD DUP1 SWAP2 SUB SWAP1 LOG2 POP JUMP JUMPDEST PUSH1 0x0 PUSH1 0x1 PUSH1 0x0 CALLER PUSH20 0xFFFFFFFFFFFFFFFFFFFFFFFFFFFFFFFFFFFFFFFF AND PUSH20 0xFFFFFFFFFFFFFFFFFFFFFFFFFFFFFFFFFFFFFFFF AND DUP2 MSTORE PUSH1 0x20 ADD SWAP1 DUP2 MSTORE PUSH1 0x20 ADD PUSH1 0x0 KECCAK256 PUSH1 0x1 ADD SLOAD SWAP1 POP SWAP1 JUMP JUMPDEST PUSH1 0x0 PUSH1 0x8 PUSH1 0x0 ADD PUSH1 0x0 SWAP1 SLOAD SWAP1 PUSH2 0x100 EXP SWAP1 DIV PUSH20 0xFFFFFFFFFFFFFFFFFFFFFFFFFFFFFFFFFFFFFFFF AND SWAP1 POP SWAP1 JUMP JUMPDEST PUSH1 0x18 PUSH1 0x1 SWAP1 SLOAD SWAP1 PUSH2 0x100 EXP SWAP1 DIV PUSH1 0xFF AND DUP1 PUSH2 0x209E JUMPI POP PUSH1 0x18 PUSH1 0x0 SWAP1 SLOAD SWAP1 PUSH2 0x100 EXP SWAP1 DIV PUSH1 0xFF AND ISZERO JUMPDEST PUSH2 0x20DD JUMPI PUSH1 0x40 MLOAD PUSH32 0x8C379A000000000000000000000000000000000000000000000000000000000 DUP2 MSTORE PUSH1 0x4 ADD PUSH2 0x20D4 SWAP1 PUSH2 0x47F9 JUMP JUMPDEST PUSH1 0x40 MLOAD DUP1 SWAP2 SUB SWAP1 REVERT JUMPDEST PUSH1 0x0 PUSH1 0x18 PUSH1 0x1 SWAP1 SLOAD SWAP1 PUSH2 0x100 EXP SWAP1 DIV PUSH1 0xFF AND ISZERO SWAP1 POP DUP1 ISZERO PUSH2 0x212F JUMPI PUSH1 0x1 PUSH1 0x18 PUSH1 0x1 PUSH2 0x100 EXP DUP2 SLOAD DUP2 PUSH1 0xFF MUL NOT AND SWAP1 DUP4 ISZERO ISZERO MUL OR SWAP1 SSTORE POP PUSH1 0x1 PUSH1 0x18 PUSH1 0x0 PUSH2 0x100 EXP DUP2 SLOAD DUP2 PUSH1 0xFF MUL NOT AND SWAP1 DUP4 ISZERO ISZERO MUL OR SWAP1 SSTORE POP JUMPDEST PUSH2 0x213C PUSH1 0x0 DUP1 SHL DUP12 PUSH2 0x334E JUMP JUMPDEST DUP8 PUSH1 0xE PUSH1 0x2 ADD DUP2 SWAP1 SSTORE POP DUP7 PUSH1 0xE PUSH1 0x3 ADD DUP2 SWAP1 SSTORE POP DUP6 PUSH1 0xE PUSH1 0x4 ADD DUP2 SWAP1 SSTORE POP DUP2 PUSH1 0xE PUSH1 0x6 ADD PUSH1 0x0 PUSH2 0x100 EXP DUP2 SLOAD DUP2 PUSH20 0xFFFFFFFFFFFFFFFFFFFFFFFFFFFFFFFFFFFFFFFF MUL NOT AND SWAP1 DUP4 PUSH20 0xFFFFFFFFFFFFFFFFFFFFFFFFFFFFFFFFFFFFFFFF AND MUL OR SWAP1 SSTORE POP DUP5 PUSH1 0xE PUSH1 0x5 ADD DUP2 SWAP1 SSTORE POP DUP4 PUSH1 0xE PUSH1 0x7 ADD DUP2 SWAP1 SSTORE POP DUP3 PUSH1 0x18 PUSH1 0x2 PUSH2 0x100 EXP DUP2 SLOAD DUP2 PUSH20 0xFFFFFFFFFFFFFFFFFFFFFFFFFFFFFFFFFFFFFFFF MUL NOT AND SWAP1 DUP4 PUSH20 0xFFFFFFFFFFFFFFFFFFFFFFFFFFFFFFFFFFFFFFFF AND MUL OR SWAP1 SSTORE POP DUP9 PUSH1 0x0 SWAP1 DUP1 MLOAD SWAP1 PUSH1 0x20 ADD SWAP1 PUSH2 0x2209 SWAP3 SWAP2 SWAP1 PUSH2 0x3CA4 JUMP JUMPDEST POP DUP1 ISZERO PUSH2 0x222C JUMPI PUSH1 0x0 PUSH1 0x18 PUSH1 0x1 PUSH2 0x100 EXP DUP2 SLOAD DUP2 PUSH1 0xFF MUL NOT AND SWAP1 DUP4 ISZERO ISZERO MUL OR SWAP1 SSTORE POP JUMPDEST POP POP POP POP POP POP POP POP POP POP JUMP JUMPDEST PUSH1 0x0 DUP2 GT PUSH2 0x227B JUMPI PUSH1 0x40 MLOAD PUSH32 0x8C379A000000000000000000000000000000000000000000000000000000000 DUP2 MSTORE PUSH1 0x4 ADD PUSH2 0x2272 SWAP1 PUSH2 0x4719 JUMP JUMPDEST PUSH1 0x40 MLOAD DUP1 SWAP2 SUB SWAP1 REVERT JUMPDEST PUSH2 0x2283 PUSH2 0x27B3 JUMP JUMPDEST PUSH1 0x1 PUSH1 0x0 CALLER PUSH20 0xFFFFFFFFFFFFFFFFFFFFFFFFFFFFFFFFFFFFFFFF AND PUSH20 0xFFFFFFFFFFFFFFFFFFFFFFFFFFFFFFFFFFFFFFFF AND DUP2 MSTORE PUSH1 0x20 ADD SWAP1 DUP2 MSTORE PUSH1 0x20 ADD PUSH1 0x0 KECCAK256 PUSH1 0x1 ADD DUP2 SWAP1 SSTORE POP PUSH1 0x1 PUSH1 0x0 CALLER PUSH20 0xFFFFFFFFFFFFFFFFFFFFFFFFFFFFFFFFFFFFFFFF AND PUSH20 0xFFFFFFFFFFFFFFFFFFFFFFFFFFFFFFFFFFFFFFFF AND DUP2 MSTORE PUSH1 0x20 ADD SWAP1 DUP2 MSTORE PUSH1 0x20 ADD PUSH1 0x0 KECCAK256 PUSH1 0x1 ADD SLOAD DUP2 GT ISZERO PUSH2 0x234E JUMPI PUSH1 0x40 MLOAD PUSH32 0x8C379A000000000000000000000000000000000000000000000000000000000 DUP2 MSTORE PUSH1 0x4 ADD PUSH2 0x2345 SWAP1 PUSH2 0x4699 JUMP JUMPDEST PUSH1 0x40 MLOAD DUP1 SWAP2 SUB SWAP1 REVERT JUMPDEST DUP1 PUSH1 0x1 PUSH1 0x0 CALLER PUSH20 0xFFFFFFFFFFFFFFFFFFFFFFFFFFFFFFFFFFFFFFFF AND PUSH20 0xFFFFFFFFFFFFFFFFFFFFFFFFFFFFFFFFFFFFFFFF AND DUP2 MSTORE PUSH1 0x20 ADD SWAP1 DUP2 MSTORE PUSH1 0x20 ADD PUSH1 0x0 KECCAK256 PUSH1 0x1 ADD PUSH1 0x0 DUP3 DUP3 SLOAD PUSH2 0x23A0 SWAP2 SWAP1 PUSH2 0x4AC8 JUMP JUMPDEST SWAP3 POP POP DUP2 SWAP1 SSTORE POP DUP1 PUSH1 0xE PUSH1 0x1 ADD PUSH1 0x0 DUP3 DUP3 SLOAD PUSH2 0x23BC SWAP2 SWAP1 PUSH2 0x49E7 JUMP JUMPDEST SWAP3 POP POP DUP2 SWAP1 SSTORE POP PUSH1 0x0 PUSH1 0xE PUSH1 0x7 ADD SLOAD PUSH1 0x1 PUSH1 0x0 CALLER PUSH20 0xFFFFFFFFFFFFFFFFFFFFFFFFFFFFFFFFFFFFFFFF AND PUSH20 0xFFFFFFFFFFFFFFFFFFFFFFFFFFFFFFFFFFFFFFFF AND DUP2 MSTORE PUSH1 0x20 ADD SWAP1 DUP2 MSTORE PUSH1 0x20 ADD PUSH1 0x0 KECCAK256 PUSH1 0x2 ADD SLOAD PUSH2 0x2418 SWAP2 SWAP1 PUSH2 0x4A3D JUMP JUMPDEST PUSH1 0xE PUSH1 0x7 ADD SLOAD TIMESTAMP PUSH2 0x2429 SWAP2 SWAP1 PUSH2 0x4A3D JUMP JUMPDEST PUSH2 0x2433 SWAP2 SWAP1 PUSH2 0x4AC8 JUMP JUMPDEST SWAP1 POP PUSH1 0xE PUSH1 0x7 ADD SLOAD DUP2 PUSH2 0x2446 SWAP2 SWAP1 PUSH2 0x4A6E JUMP JUMPDEST PUSH1 0x1 PUSH1 0x0 CALLER PUSH20 0xFFFFFFFFFFFFFFFFFFFFFFFFFFFFFFFFFFFFFFFF AND PUSH20 0xFFFFFFFFFFFFFFFFFFFFFFFFFFFFFFFFFFFFFFFF AND DUP2 MSTORE PUSH1 0x20 ADD SWAP1 DUP2 MSTORE PUSH1 0x20 ADD PUSH1 0x0 KECCAK256 PUSH1 0x2 ADD PUSH1 0x0 DUP3 DUP3 SLOAD PUSH2 0x2497 SWAP2 SWAP1 PUSH2 0x49E7 JUMP JUMPDEST SWAP3 POP POP DUP2 SWAP1 SSTORE POP PUSH2 0x24F0 CALLER ADDRESS DUP5 PUSH1 0x2 PUSH1 0x0 ADD PUSH1 0x0 SWAP1 SLOAD SWAP1 PUSH2 0x100 EXP SWAP1 DIV PUSH20 0xFFFFFFFFFFFFFFFFFFFFFFFFFFFFFFFFFFFFFFFF AND PUSH20 0xFFFFFFFFFFFFFFFFFFFFFFFFFFFFFFFFFFFFFFFF AND PUSH2 0x30B8 SWAP1 SWAP4 SWAP3 SWAP2 SWAP1 PUSH4 0xFFFFFFFF AND JUMP JUMPDEST CALLER PUSH20 0xFFFFFFFFFFFFFFFFFFFFFFFFFFFFFFFFFFFFFFFF AND PUSH32 0x34D657CD4DEC79D6716CE5AC15B81DE5751705030CBEF01B43B15EAE44CBC112 DUP4 PUSH1 0x40 MLOAD PUSH2 0x2536 SWAP2 SWAP1 PUSH2 0x48D9 JUMP JUMPDEST PUSH1 0x40 MLOAD DUP1 SWAP2 SUB SWAP1 LOG2 POP POP JUMP JUMPDEST PUSH2 0x256C PUSH32 0x3204C940063673962B481A0395619B3DBBD137589C419E993978C1C71BCF68EC CALLER PUSH2 0x26CD JUMP JUMPDEST DUP1 PUSH2 0x2580 JUMPI POP PUSH2 0x257F PUSH1 0x0 DUP1 SHL CALLER PUSH2 0x26CD JUMP JUMPDEST JUMPDEST PUSH2 0x25BF JUMPI PUSH1 0x40 MLOAD PUSH32 0x8C379A000000000000000000000000000000000000000000000000000000000 DUP2 MSTORE PUSH1 0x4 ADD PUSH2 0x25B6 SWAP1 PUSH2 0x4859 JUMP JUMPDEST PUSH1 0x40 MLOAD DUP1 SWAP2 SUB SWAP1 REVERT JUMPDEST PUSH2 0x25CD PUSH1 0x8 PUSH1 0x3 ADD SLOAD PUSH2 0x1314 JUMP JUMPDEST SWAP1 SWAP2 POP PUSH1 0x8 PUSH1 0x1 ADD PUSH1 0x0 PUSH1 0x8 PUSH1 0x5 ADD PUSH1 0x0 DUP5 SWAP2 SWAP1 POP SSTORE DUP4 SWAP2 SWAP1 POP SSTORE POP POP PUSH1 0x8 PUSH1 0x0 ADD PUSH1 0x0 SWAP1 SLOAD SWAP1 PUSH2 0x100 EXP SWAP1 DIV PUSH20 0xFFFFFFFFFFFFFFFFFFFFFFFFFFFFFFFFFFFFFFFF AND PUSH20 0xFFFFFFFFFFFFFFFFFFFFFFFFFFFFFFFFFFFFFFFF AND PUSH32 0x64E6E7BD72B853C4E62FD6CEACA05A104700C70A4CB567C75C7F2242BA7F037C PUSH1 0x8 PUSH1 0x1 ADD SLOAD PUSH1 0x40 MLOAD PUSH2 0x265A SWAP2 SWAP1 PUSH2 0x48D9 JUMP JUMPDEST PUSH1 0x40 MLOAD DUP1 SWAP2 SUB SWAP1 LOG2 JUMP JUMPDEST PUSH1 0x0 PUSH1 0xE PUSH1 0x4 ADD SLOAD SWAP1 POP SWAP1 JUMP JUMPDEST PUSH2 0x269B PUSH32 0x3204C940063673962B481A0395619B3DBBD137589C419E993978C1C71BCF68EC DUP3 PUSH2 0x2A80 JUMP JUMPDEST POP JUMP JUMPDEST PUSH1 0x0 PUSH2 0x26C5 DUP3 PUSH1 0x17 PUSH1 0x0 DUP7 DUP2 MSTORE PUSH1 0x20 ADD SWAP1 DUP2 MSTORE PUSH1 0x20 ADD PUSH1 0x0 KECCAK256 PUSH2 0x335C SWAP1 SWAP2 SWAP1 PUSH4 0xFFFFFFFF AND JUMP JUMPDEST SWAP1 POP SWAP3 SWAP2 POP POP JUMP JUMPDEST PUSH1 0x0 PUSH1 0x16 PUSH1 0x0 DUP5 DUP2 MSTORE PUSH1 0x20 ADD SWAP1 DUP2 MSTORE PUSH1 0x20 ADD PUSH1 0x0 KECCAK256 PUSH1 0x0 ADD PUSH1 0x0 DUP4 PUSH20 0xFFFFFFFFFFFFFFFFFFFFFFFFFFFFFFFFFFFFFFFF AND PUSH20 0xFFFFFFFFFFFFFFFFFFFFFFFFFFFFFFFFFFFFFFFF AND DUP2 MSTORE PUSH1 0x20 ADD SWAP1 DUP2 MSTORE PUSH1 0x20 ADD PUSH1 0x0 KECCAK256 PUSH1 0x0 SWAP1 SLOAD SWAP1 PUSH2 0x100 EXP SWAP1 DIV PUSH1 0xFF AND SWAP1 POP SWAP3 SWAP2 POP POP JUMP JUMPDEST PUSH1 0x0 DUP1 SHL DUP2 JUMP JUMPDEST PUSH1 0x1 PUSH1 0x20 MSTORE DUP1 PUSH1 0x0 MSTORE PUSH1 0x40 PUSH1 0x0 KECCAK256 PUSH1 0x0 SWAP2 POP SWAP1 POP DUP1 PUSH1 0x0 ADD SLOAD SWAP1 DUP1 PUSH1 0x1 ADD SLOAD SWAP1 DUP1 PUSH1 0x2 ADD SLOAD SWAP1 POP DUP4 JUMP JUMPDEST PUSH1 0x0 PUSH1 0x1 PUSH1 0x0 CALLER PUSH20 0xFFFFFFFFFFFFFFFFFFFFFFFFFFFFFFFFFFFFFFFF AND PUSH20 0xFFFFFFFFFFFFFFFFFFFFFFFFFFFFFFFFFFFFFFFF AND DUP2 MSTORE PUSH1 0x20 ADD SWAP1 DUP2 MSTORE PUSH1 0x20 ADD PUSH1 0x0 KECCAK256 PUSH1 0x0 ADD SLOAD SWAP1 POP SWAP1 JUMP JUMPDEST PUSH1 0x0 PUSH1 0x1 PUSH1 0x0 CALLER PUSH20 0xFFFFFFFFFFFFFFFFFFFFFFFFFFFFFFFFFFFFFFFF AND PUSH20 0xFFFFFFFFFFFFFFFFFFFFFFFFFFFFFFFFFFFFFFFF AND DUP2 MSTORE PUSH1 0x20 ADD SWAP1 DUP2 MSTORE PUSH1 0x20 ADD PUSH1 0x0 KECCAK256 PUSH1 0x1 ADD SLOAD SWAP1 POP PUSH1 0x0 PUSH1 0xE PUSH1 0x7 ADD SLOAD PUSH4 0x1E13380 PUSH2 0x2811 SWAP2 SWAP1 PUSH2 0x4A3D JUMP JUMPDEST SWAP1 POP PUSH1 0x0 PUSH1 0xE PUSH1 0x7 ADD SLOAD PUSH1 0x1 PUSH1 0x0 CALLER PUSH20 0xFFFFFFFFFFFFFFFFFFFFFFFFFFFFFFFFFFFFFFFF AND PUSH20 0xFFFFFFFFFFFFFFFFFFFFFFFFFFFFFFFFFFFFFFFF AND DUP2 MSTORE PUSH1 0x20 ADD SWAP1 DUP2 MSTORE PUSH1 0x20 ADD PUSH1 0x0 KECCAK256 PUSH1 0x2 ADD SLOAD PUSH2 0x2868 SWAP2 SWAP1 PUSH2 0x4A3D JUMP JUMPDEST PUSH1 0xE PUSH1 0x7 ADD SLOAD TIMESTAMP PUSH2 0x2879 SWAP2 SWAP1 PUSH2 0x4A3D JUMP JUMPDEST PUSH2 0x2883 SWAP2 SWAP1 PUSH2 0x4AC8 JUMP JUMPDEST SWAP1 POP DUP1 DUP3 PUSH2 0x2710 PUSH1 0xE PUSH1 0x2 ADD SLOAD DUP7 PUSH2 0x289B SWAP2 SWAP1 PUSH2 0x4A6E JUMP JUMPDEST PUSH2 0x28A5 SWAP2 SWAP1 PUSH2 0x4A3D JUMP JUMPDEST PUSH2 0x28AF SWAP2 SWAP1 PUSH2 0x4A3D JUMP JUMPDEST PUSH2 0x28B9 SWAP2 SWAP1 PUSH2 0x4A6E JUMP JUMPDEST DUP4 PUSH2 0x28C4 SWAP2 SWAP1 PUSH2 0x49E7 JUMP JUMPDEST SWAP3 POP POP POP SWAP1 JUMP JUMPDEST PUSH1 0x0 DUP1 SHL PUSH2 0x28E0 DUP2 PUSH2 0x28DB PUSH2 0x31BB JUMP JUMPDEST PUSH2 0x31C3 JUMP JUMPDEST PUSH1 0x0 PUSH20 0xFFFFFFFFFFFFFFFFFFFFFFFFFFFFFFFFFFFFFFFF AND PUSH1 0x2 PUSH1 0x0 ADD PUSH1 0x0 SWAP1 SLOAD SWAP1 PUSH2 0x100 EXP SWAP1 DIV PUSH20 0xFFFFFFFFFFFFFFFFFFFFFFFFFFFFFFFFFFFFFFFF AND PUSH20 0xFFFFFFFFFFFFFFFFFFFFFFFFFFFFFFFFFFFFFFFF AND EQ DUP1 ISZERO PUSH2 0x296E JUMPI POP PUSH1 0x0 PUSH20 0xFFFFFFFFFFFFFFFFFFFFFFFFFFFFFFFFFFFFFFFF AND DUP6 PUSH20 0xFFFFFFFFFFFFFFFFFFFFFFFFFFFFFFFFFFFFFFFF AND EQ ISZERO JUMPDEST PUSH2 0x29AD JUMPI PUSH1 0x40 MLOAD PUSH32 0x8C379A000000000000000000000000000000000000000000000000000000000 DUP2 MSTORE PUSH1 0x4 ADD PUSH2 0x29A4 SWAP1 PUSH2 0x4899 JUMP JUMPDEST PUSH1 0x40 MLOAD DUP1 SWAP2 SUB SWAP1 REVERT JUMPDEST DUP5 PUSH1 0x2 PUSH1 0x0 ADD PUSH1 0x0 PUSH2 0x100 EXP DUP2 SLOAD DUP2 PUSH20 0xFFFFFFFFFFFFFFFFFFFFFFFFFFFFFFFFFFFFFFFF MUL NOT AND SWAP1 DUP4 PUSH20 0xFFFFFFFFFFFFFFFFFFFFFFFFFFFFFFFFFFFFFFFF AND MUL OR SWAP1 SSTORE POP DUP2 PUSH1 0x2 PUSH1 0x1 ADD DUP2 SWAP1 SSTORE POP DUP3 PUSH1 0x2 DUP1 ADD DUP2 SWAP1 SSTORE POP DUP4 PUSH1 0x2 PUSH1 0x3 ADD DUP2 SWAP1 SSTORE POP POP POP POP POP POP JUMP JUMPDEST PUSH1 0x0 PUSH1 0x2 PUSH1 0x1 ADD SLOAD SWAP1 POP SWAP1 JUMP JUMPDEST PUSH1 0x0 PUSH2 0x2A3F PUSH1 0x17 PUSH1 0x0 DUP5 DUP2 MSTORE PUSH1 0x20 ADD SWAP1 DUP2 MSTORE PUSH1 0x20 ADD PUSH1 0x0 KECCAK256 PUSH2 0x3376 JUMP JUMPDEST SWAP1 POP SWAP2 SWAP1 POP JUMP JUMPDEST PUSH1 0x0 PUSH1 0xE PUSH1 0x1 ADD SLOAD SWAP1 POP SWAP1 JUMP JUMPDEST PUSH1 0x0 PUSH1 0x2 PUSH1 0x0 ADD PUSH1 0x0 SWAP1 SLOAD SWAP1 PUSH2 0x100 EXP SWAP1 DIV PUSH20 0xFFFFFFFFFFFFFFFFFFFFFFFFFFFFFFFFFFFFFFFF AND SWAP1 POP SWAP1 JUMP JUMPDEST PUSH2 0x2A89 DUP3 PUSH2 0xC8B JUMP JUMPDEST PUSH2 0x2A9A DUP2 PUSH2 0x2A95 PUSH2 0x31BB JUMP JUMPDEST PUSH2 0x31C3 JUMP JUMPDEST PUSH2 0x2AA4 DUP4 DUP4 PUSH2 0x331A JUMP JUMPDEST POP POP POP JUMP JUMPDEST PUSH1 0x0 PUSH20 0xFFFFFFFFFFFFFFFFFFFFFFFFFFFFFFFFFFFFFFFF AND DUP2 PUSH20 0xFFFFFFFFFFFFFFFFFFFFFFFFFFFFFFFFFFFFFFFF AND EQ ISZERO PUSH2 0x2B19 JUMPI PUSH1 0x40 MLOAD PUSH32 0x8C379A000000000000000000000000000000000000000000000000000000000 DUP2 MSTORE PUSH1 0x4 ADD PUSH2 0x2B10 SWAP1 PUSH2 0x4799 JUMP JUMPDEST PUSH1 0x40 MLOAD DUP1 SWAP2 SUB SWAP1 REVERT JUMPDEST PUSH2 0x2B43 PUSH32 0x3204C940063673962B481A0395619B3DBBD137589C419E993978C1C71BCF68EC DUP3 PUSH2 0xCAB JUMP JUMPDEST POP JUMP JUMPDEST PUSH1 0x0 DUP1 SHL PUSH2 0x2B5B DUP2 PUSH2 0x2B56 PUSH2 0x31BB JUMP JUMPDEST PUSH2 0x31C3 JUMP JUMPDEST DUP2 PUSH1 0x2 PUSH1 0x0 ADD PUSH1 0x0 SWAP1 SLOAD SWAP1 PUSH2 0x100 EXP SWAP1 DIV PUSH20 0xFFFFFFFFFFFFFFFFFFFFFFFFFFFFFFFFFFFFFFFF AND PUSH20 0xFFFFFFFFFFFFFFFFFFFFFFFFFFFFFFFFFFFFFFFF AND PUSH4 0x70A08231 ADDRESS PUSH1 0x40 MLOAD DUP3 PUSH4 0xFFFFFFFF AND PUSH1 0xE0 SHL DUP2 MSTORE PUSH1 0x4 ADD PUSH2 0x2BBA SWAP2 SWAP1 PUSH2 0x454F JUMP JUMPDEST PUSH1 0x20 PUSH1 0x40 MLOAD DUP1 DUP4 SUB DUP2 DUP7 DUP1 EXTCODESIZE ISZERO DUP1 ISZERO PUSH2 0x2BD2 JUMPI PUSH1 0x0 DUP1 REVERT JUMPDEST POP GAS STATICCALL ISZERO DUP1 ISZERO PUSH2 0x2BE6 JUMPI RETURNDATASIZE PUSH1 0x0 DUP1 RETURNDATACOPY RETURNDATASIZE PUSH1 0x0 REVERT JUMPDEST POP POP POP POP PUSH1 0x40 MLOAD RETURNDATASIZE PUSH1 0x1F NOT PUSH1 0x1F DUP3 ADD AND DUP3 ADD DUP1 PUSH1 0x40 MSTORE POP DUP2 ADD SWAP1 PUSH2 0x2C0A SWAP2 SWAP1 PUSH2 0x40F8 JUMP JUMPDEST LT ISZERO PUSH2 0x2C4B JUMPI PUSH1 0x40 MLOAD PUSH32 0x8C379A000000000000000000000000000000000000000000000000000000000 DUP2 MSTORE PUSH1 0x4 ADD PUSH2 0x2C42 SWAP1 PUSH2 0x4759 JUMP JUMPDEST PUSH1 0x40 MLOAD DUP1 SWAP2 SUB SWAP1 REVERT JUMPDEST PUSH1 0x0 PUSH1 0xC8 DUP4 PUSH2 0x2C5A SWAP2 SWAP1 PUSH2 0x4A3D JUMP JUMPDEST SWAP1 POP DUP3 PUSH1 0xE PUSH1 0x1 ADD PUSH1 0x0 DUP3 DUP3 SLOAD PUSH2 0x2C71 SWAP2 SWAP1 PUSH2 0x4AC8 JUMP JUMPDEST SWAP3 POP POP DUP2 SWAP1 SSTORE POP PUSH2 0x2CD3 CALLER DUP3 DUP6 PUSH2 0x2C88 SWAP2 SWAP1 PUSH2 0x4AC8 JUMP JUMPDEST PUSH1 0x2 PUSH1 0x0 ADD PUSH1 0x0 SWAP1 SLOAD SWAP1 PUSH2 0x100 EXP SWAP1 DIV PUSH20 0xFFFFFFFFFFFFFFFFFFFFFFFFFFFFFFFFFFFFFFFF AND PUSH20 0xFFFFFFFFFFFFFFFFFFFFFFFFFFFFFFFFFFFFFFFF AND PUSH2 0x3294 SWAP1 SWAP3 SWAP2 SWAP1 PUSH4 0xFFFFFFFF AND JUMP JUMPDEST PUSH2 0x2D45 PUSH1 0x18 PUSH1 0x2 SWAP1 SLOAD SWAP1 PUSH2 0x100 EXP SWAP1 DIV PUSH20 0xFFFFFFFFFFFFFFFFFFFFFFFFFFFFFFFFFFFFFFFF AND DUP3 PUSH1 0x2 PUSH1 0x0 ADD PUSH1 0x0 SWAP1 SLOAD SWAP1 PUSH2 0x100 EXP SWAP1 DIV PUSH20 0xFFFFFFFFFFFFFFFFFFFFFFFFFFFFFFFFFFFFFFFF AND PUSH20 0xFFFFFFFFFFFFFFFFFFFFFFFFFFFFFFFFFFFFFFFF AND PUSH2 0x3294 SWAP1 SWAP3 SWAP2 SWAP1 PUSH4 0xFFFFFFFF AND JUMP JUMPDEST PUSH1 0x2 PUSH1 0x0 ADD PUSH1 0x0 SWAP1 SLOAD SWAP1 PUSH2 0x100 EXP SWAP1 DIV PUSH20 0xFFFFFFFFFFFFFFFFFFFFFFFFFFFFFFFFFFFFFFFF AND PUSH20 0xFFFFFFFFFFFFFFFFFFFFFFFFFFFFFFFFFFFFFFFF AND PUSH32 0x529AFC4538720FE0B3EADC40486369AB962002D72FEAD1387B300C66073E7BF DUP5 PUSH1 0x40 MLOAD PUSH2 0x2DB0 SWAP2 SWAP1 PUSH2 0x48D9 JUMP JUMPDEST PUSH1 0x40 MLOAD DUP1 SWAP2 SUB SWAP1 LOG2 POP POP POP JUMP JUMPDEST PUSH1 0x0 PUSH1 0x2 PUSH1 0x5 ADD SLOAD SWAP1 POP SWAP1 JUMP JUMPDEST PUSH1 0x0 PUSH1 0xE PUSH1 0x0 ADD SLOAD SWAP1 POP SWAP1 JUMP JUMPDEST PUSH1 0x1 PUSH1 0x0 CALLER PUSH20 0xFFFFFFFFFFFFFFFFFFFFFFFFFFFFFFFFFFFFFFFF AND PUSH20 0xFFFFFFFFFFFFFFFFFFFFFFFFFFFFFFFFFFFFFFFF AND DUP2 MSTORE PUSH1 0x20 ADD SWAP1 DUP2 MSTORE PUSH1 0x20 ADD PUSH1 0x0 KECCAK256 PUSH1 0x0 ADD SLOAD DUP2 GT ISZERO PUSH2 0x2E5C JUMPI PUSH1 0x40 MLOAD PUSH32 0x8C379A000000000000000000000000000000000000000000000000000000000 DUP2 MSTORE PUSH1 0x4 ADD PUSH2 0x2E53 SWAP1 PUSH2 0x4779 JUMP JUMPDEST PUSH1 0x40 MLOAD DUP1 SWAP2 SUB SWAP1 REVERT JUMPDEST PUSH1 0x0 PUSH1 0x64 PUSH1 0xE PUSH1 0x4 ADD SLOAD PUSH1 0x2 PUSH1 0x1 ADD SLOAD PUSH1 0x8 PUSH1 0x1 ADD SLOAD DUP6 PUSH1 0x1 PUSH1 0x0 CALLER PUSH20 0xFFFFFFFFFFFFFFFFFFFFFFFFFFFFFFFFFFFFFFFF AND PUSH20 0xFFFFFFFFFFFFFFFFFFFFFFFFFFFFFFFFFFFFFFFF AND DUP2 MSTORE PUSH1 0x20 ADD SWAP1 DUP2 MSTORE PUSH1 0x20 ADD PUSH1 0x0 KECCAK256 PUSH1 0x0 ADD SLOAD PUSH2 0x2EC0 SWAP2 SWAP1 PUSH2 0x4AC8 JUMP JUMPDEST PUSH2 0x2ECA SWAP2 SWAP1 PUSH2 0x4A6E JUMP JUMPDEST PUSH2 0x2ED4 SWAP2 SWAP1 PUSH2 0x4A3D JUMP JUMPDEST PUSH2 0x2EDE SWAP2 SWAP1 PUSH2 0x4A3D JUMP JUMPDEST PUSH2 0x2EE8 SWAP2 SWAP1 PUSH2 0x4A6E JUMP JUMPDEST SWAP1 POP PUSH1 0x2 DUP1 ADD SLOAD DUP2 PUSH2 0x2EFA SWAP2 SWAP1 PUSH2 0x4A6E JUMP JUMPDEST SWAP1 POP PUSH1 0x8 PUSH1 0x2 ADD SLOAD DUP2 PUSH2 0x2F0D SWAP2 SWAP1 PUSH2 0x4A3D JUMP JUMPDEST SWAP1 POP DUP1 PUSH1 0x1 PUSH1 0x0 CALLER PUSH20 0xFFFFFFFFFFFFFFFFFFFFFFFFFFFFFFFFFFFFFFFF AND PUSH20 0xFFFFFFFFFFFFFFFFFFFFFFFFFFFFFFFFFFFFFFFF AND DUP2 MSTORE PUSH1 0x20 ADD SWAP1 DUP2 MSTORE PUSH1 0x20 ADD PUSH1 0x0 KECCAK256 PUSH1 0x1 ADD SLOAD GT ISZERO PUSH2 0x2F94 JUMPI PUSH1 0x40 MLOAD PUSH32 0x8C379A000000000000000000000000000000000000000000000000000000000 DUP2 MSTORE PUSH1 0x4 ADD PUSH2 0x2F8B SWAP1 PUSH2 0x4819 JUMP JUMPDEST PUSH1 0x40 MLOAD DUP1 SWAP2 SUB SWAP1 REVERT JUMPDEST DUP2 PUSH1 0x1 PUSH1 0x0 CALLER PUSH20 0xFFFFFFFFFFFFFFFFFFFFFFFFFFFFFFFFFFFFFFFF AND PUSH20 0xFFFFFFFFFFFFFFFFFFFFFFFFFFFFFFFFFFFFFFFF AND DUP2 MSTORE PUSH1 0x20 ADD SWAP1 DUP2 MSTORE PUSH1 0x20 ADD PUSH1 0x0 KECCAK256 PUSH1 0x0 ADD PUSH1 0x0 DUP3 DUP3 SLOAD PUSH2 0x2FE6 SWAP2 SWAP1 PUSH2 0x4AC8 JUMP JUMPDEST SWAP3 POP POP DUP2 SWAP1 SSTORE POP DUP2 PUSH1 0xE PUSH1 0x0 ADD PUSH1 0x0 DUP3 DUP3 SLOAD PUSH2 0x3002 SWAP2 SWAP1 PUSH2 0x4AC8 JUMP JUMPDEST SWAP3 POP POP DUP2 SWAP1 SSTORE POP PUSH2 0x3059 CALLER DUP4 PUSH1 0x8 PUSH1 0x0 ADD PUSH1 0x0 SWAP1 SLOAD SWAP1 PUSH2 0x100 EXP SWAP1 DIV PUSH20 0xFFFFFFFFFFFFFFFFFFFFFFFFFFFFFFFFFFFFFFFF AND PUSH20 0xFFFFFFFFFFFFFFFFFFFFFFFFFFFFFFFFFFFFFFFF AND PUSH2 0x3294 SWAP1 SWAP3 SWAP2 SWAP1 PUSH4 0xFFFFFFFF AND JUMP JUMPDEST CALLER PUSH20 0xFFFFFFFFFFFFFFFFFFFFFFFFFFFFFFFFFFFFFFFF AND PUSH32 0xAC60FBF53B67F5A6A0C8031DD9D1610A06F01669B1A8B9AF98F3A6A477E8D7C DUP4 PUSH1 0x40 MLOAD PUSH2 0x309F SWAP2 SWAP1 PUSH2 0x48D9 JUMP JUMPDEST PUSH1 0x40 MLOAD DUP1 SWAP2 SUB SWAP1 LOG2 POP POP JUMP JUMPDEST PUSH1 0x0 PUSH1 0xE PUSH1 0x3 ADD SLOAD SWAP1 POP SWAP1 JUMP JUMPDEST PUSH2 0x313B DUP5 PUSH4 0x23B872DD PUSH1 0xE0 SHL DUP6 DUP6 DUP6 PUSH1 0x40 MLOAD PUSH1 0x24 ADD PUSH2 0x30D9 SWAP4 SWAP3 SWAP2 SWAP1 PUSH2 0x456A JUMP JUMPDEST PUSH1 0x40 MLOAD PUSH1 0x20 DUP2 DUP4 SUB SUB DUP2 MSTORE SWAP1 PUSH1 0x40 MSTORE SWAP1 PUSH28 0xFFFFFFFFFFFFFFFFFFFFFFFFFFFFFFFFFFFFFFFFFFFFFFFFFFFFFFFF NOT AND PUSH1 0x20 DUP3 ADD DUP1 MLOAD PUSH28 0xFFFFFFFFFFFFFFFFFFFFFFFFFFFFFFFFFFFFFFFFFFFFFFFFFFFFFFFF DUP4 DUP2 DUP4 AND OR DUP4 MSTORE POP POP POP POP PUSH2 0x338B JUMP JUMPDEST POP POP POP POP JUMP JUMPDEST PUSH1 0x0 PUSH32 0x7965DB0B00000000000000000000000000000000000000000000000000000000 PUSH28 0xFFFFFFFFFFFFFFFFFFFFFFFFFFFFFFFFFFFFFFFFFFFFFFFFFFFFFFFF NOT AND DUP3 PUSH28 0xFFFFFFFFFFFFFFFFFFFFFFFFFFFFFFFFFFFFFFFFFFFFFFFFFFFFFFFF NOT AND EQ DUP1 PUSH2 0x31B4 JUMPI POP PUSH2 0x31B3 DUP3 PUSH2 0x3452 JUMP JUMPDEST JUMPDEST SWAP1 POP SWAP2 SWAP1 POP JUMP JUMPDEST PUSH1 0x0 CALLER SWAP1 POP SWAP1 JUMP JUMPDEST PUSH2 0x31CD DUP3 DUP3 PUSH2 0x26CD JUMP JUMPDEST PUSH2 0x325C JUMPI PUSH2 0x31F2 DUP2 PUSH20 0xFFFFFFFFFFFFFFFFFFFFFFFFFFFFFFFFFFFFFFFF AND PUSH1 0x14 PUSH2 0x34BC JUMP JUMPDEST PUSH2 0x3200 DUP4 PUSH1 0x0 SHR PUSH1 0x20 PUSH2 0x34BC JUMP JUMPDEST PUSH1 0x40 MLOAD PUSH1 0x20 ADD PUSH2 0x3211 SWAP3 SWAP2 SWAP1 PUSH2 0x4515 JUMP JUMPDEST PUSH1 0x40 MLOAD PUSH1 0x20 DUP2 DUP4 SUB SUB DUP2 MSTORE SWAP1 PUSH1 0x40 MSTORE PUSH1 0x40 MLOAD PUSH32 0x8C379A000000000000000000000000000000000000000000000000000000000 DUP2 MSTORE PUSH1 0x4 ADD PUSH2 0x3253 SWAP2 SWAP1 PUSH2 0x4637 JUMP JUMPDEST PUSH1 0x40 MLOAD DUP1 SWAP2 SUB SWAP1 REVERT JUMPDEST POP POP JUMP JUMPDEST PUSH2 0x326A DUP3 DUP3 PUSH2 0x36F8 JUMP JUMPDEST PUSH2 0x328F DUP2 PUSH1 0x17 PUSH1 0x0 DUP6 DUP2 MSTORE PUSH1 0x20 ADD SWAP1 DUP2 MSTORE PUSH1 0x20 ADD PUSH1 0x0 KECCAK256 PUSH2 0x37D9 SWAP1 SWAP2 SWAP1 PUSH4 0xFFFFFFFF AND JUMP JUMPDEST POP POP POP JUMP JUMPDEST PUSH2 0x3315 DUP4 PUSH4 0xA9059CBB PUSH1 0xE0 SHL DUP5 DUP5 PUSH1 0x40 MLOAD PUSH1 0x24 ADD PUSH2 0x32B3 SWAP3 SWAP2 SWAP1 PUSH2 0x45A1 JUMP JUMPDEST PUSH1 0x40 MLOAD PUSH1 0x20 DUP2 DUP4 SUB SUB DUP2 MSTORE SWAP1 PUSH1 0x40 MSTORE SWAP1 PUSH28 0xFFFFFFFFFFFFFFFFFFFFFFFFFFFFFFFFFFFFFFFFFFFFFFFFFFFFFFFF NOT AND PUSH1 0x20 DUP3 ADD DUP1 MLOAD PUSH28 0xFFFFFFFFFFFFFFFFFFFFFFFFFFFFFFFFFFFFFFFFFFFFFFFFFFFFFFFF DUP4 DUP2 DUP4 AND OR DUP4 MSTORE POP POP POP POP PUSH2 0x338B JUMP JUMPDEST POP POP POP JUMP JUMPDEST PUSH2 0x3324 DUP3 DUP3 PUSH2 0x3809 JUMP JUMPDEST PUSH2 0x3349 DUP2 PUSH1 0x17 PUSH1 0x0 DUP6 DUP2 MSTORE PUSH1 0x20 ADD SWAP1 DUP2 MSTORE PUSH1 0x20 ADD PUSH1 0x0 KECCAK256 PUSH2 0x38EB SWAP1 SWAP2 SWAP1 PUSH4 0xFFFFFFFF AND JUMP JUMPDEST POP POP POP JUMP JUMPDEST PUSH2 0x3358 DUP3 DUP3 PUSH2 0x3260 JUMP JUMPDEST POP POP JUMP JUMPDEST PUSH1 0x0 PUSH2 0x336B DUP4 PUSH1 0x0 ADD DUP4 PUSH2 0x391B JUMP JUMPDEST PUSH1 0x0 SHR SWAP1 POP SWAP3 SWAP2 POP POP JUMP JUMPDEST PUSH1 0x0 PUSH2 0x3384 DUP3 PUSH1 0x0 ADD PUSH2 0x3946 JUMP JUMPDEST SWAP1 POP SWAP2 SWAP1 POP JUMP JUMPDEST PUSH1 0x0 PUSH2 0x33ED DUP3 PUSH1 0x40 MLOAD DUP1 PUSH1 0x40 ADD PUSH1 0x40 MSTORE DUP1 PUSH1 0x20 DUP2 MSTORE PUSH1 0x20 ADD PUSH32 0x5361666545524332303A206C6F772D6C6576656C2063616C6C206661696C6564 DUP2 MSTORE POP DUP6 PUSH20 0xFFFFFFFFFFFFFFFFFFFFFFFFFFFFFFFFFFFFFFFF AND PUSH2 0x3957 SWAP1 SWAP3 SWAP2 SWAP1 PUSH4 0xFFFFFFFF AND JUMP JUMPDEST SWAP1 POP PUSH1 0x0 DUP2 MLOAD GT ISZERO PUSH2 0x344D JUMPI DUP1 DUP1 PUSH1 0x20 ADD SWAP1 MLOAD DUP2 ADD SWAP1 PUSH2 0x340D SWAP2 SWAP1 PUSH2 0x3FC4 JUMP JUMPDEST PUSH2 0x344C JUMPI PUSH1 0x40 MLOAD PUSH32 0x8C379A000000000000000000000000000000000000000000000000000000000 DUP2 MSTORE PUSH1 0x4 ADD PUSH2 0x3443 SWAP1 PUSH2 0x4879 JUMP JUMPDEST PUSH1 0x40 MLOAD DUP1 SWAP2 SUB SWAP1 REVERT JUMPDEST JUMPDEST POP POP POP JUMP JUMPDEST PUSH1 0x0 PUSH32 0x1FFC9A700000000000000000000000000000000000000000000000000000000 PUSH28 0xFFFFFFFFFFFFFFFFFFFFFFFFFFFFFFFFFFFFFFFFFFFFFFFFFFFFFFFF NOT AND DUP3 PUSH28 0xFFFFFFFFFFFFFFFFFFFFFFFFFFFFFFFFFFFFFFFFFFFFFFFFFFFFFFFF NOT AND EQ SWAP1 POP SWAP2 SWAP1 POP JUMP JUMPDEST PUSH1 0x60 PUSH1 0x0 PUSH1 0x2 DUP4 PUSH1 0x2 PUSH2 0x34CF SWAP2 SWAP1 PUSH2 0x4A6E JUMP JUMPDEST PUSH2 0x34D9 SWAP2 SWAP1 PUSH2 0x49E7 JUMP JUMPDEST PUSH8 0xFFFFFFFFFFFFFFFF DUP2 GT ISZERO PUSH2 0x34F2 JUMPI PUSH2 0x34F1 PUSH2 0x4D46 JUMP JUMPDEST JUMPDEST PUSH1 0x40 MLOAD SWAP1 DUP1 DUP3 MSTORE DUP1 PUSH1 0x1F ADD PUSH1 0x1F NOT AND PUSH1 0x20 ADD DUP3 ADD PUSH1 0x40 MSTORE DUP1 ISZERO PUSH2 0x3524 JUMPI DUP2 PUSH1 0x20 ADD PUSH1 0x1 DUP3 MUL DUP1 CALLDATASIZE DUP4 CALLDATACOPY DUP1 DUP3 ADD SWAP2 POP POP SWAP1 POP JUMPDEST POP SWAP1 POP PUSH32 0x3000000000000000000000000000000000000000000000000000000000000000 DUP2 PUSH1 0x0 DUP2 MLOAD DUP2 LT PUSH2 0x355C JUMPI PUSH2 0x355B PUSH2 0x4D17 JUMP JUMPDEST JUMPDEST PUSH1 0x20 ADD ADD SWAP1 PUSH31 0xFFFFFFFFFFFFFFFFFFFFFFFFFFFFFFFFFFFFFFFFFFFFFFFFFFFFFFFFFFFFFF NOT AND SWAP1 DUP2 PUSH1 0x0 BYTE SWAP1 MSTORE8 POP PUSH32 0x7800000000000000000000000000000000000000000000000000000000000000 DUP2 PUSH1 0x1 DUP2 MLOAD DUP2 LT PUSH2 0x35C0 JUMPI PUSH2 0x35BF PUSH2 0x4D17 JUMP JUMPDEST JUMPDEST PUSH1 0x20 ADD ADD SWAP1 PUSH31 0xFFFFFFFFFFFFFFFFFFFFFFFFFFFFFFFFFFFFFFFFFFFFFFFFFFFFFFFFFFFFFF NOT AND SWAP1 DUP2 PUSH1 0x0 BYTE SWAP1 MSTORE8 POP PUSH1 0x0 PUSH1 0x1 DUP5 PUSH1 0x2 PUSH2 0x3600 SWAP2 SWAP1 PUSH2 0x4A6E JUMP JUMPDEST PUSH2 0x360A SWAP2 SWAP1 PUSH2 0x49E7 JUMP JUMPDEST SWAP1 POP JUMPDEST PUSH1 0x1 DUP2 GT ISZERO PUSH2 0x36AA JUMPI PUSH32 0x3031323334353637383961626364656600000000000000000000000000000000 PUSH1 0xF DUP7 AND PUSH1 0x10 DUP2 LT PUSH2 0x364C JUMPI PUSH2 0x364B PUSH2 0x4D17 JUMP JUMPDEST JUMPDEST BYTE PUSH1 0xF8 SHL DUP3 DUP3 DUP2 MLOAD DUP2 LT PUSH2 0x3663 JUMPI PUSH2 0x3662 PUSH2 0x4D17 JUMP JUMPDEST JUMPDEST PUSH1 0x20 ADD ADD SWAP1 PUSH31 0xFFFFFFFFFFFFFFFFFFFFFFFFFFFFFFFFFFFFFFFFFFFFFFFFFFFFFFFFFFFFFF NOT AND SWAP1 DUP2 PUSH1 0x0 BYTE SWAP1 MSTORE8 POP PUSH1 0x4 DUP6 SWAP1 SHR SWAP5 POP DUP1 PUSH2 0x36A3 SWAP1 PUSH2 0x4BCE JUMP JUMPDEST SWAP1 POP PUSH2 0x360D JUMP JUMPDEST POP PUSH1 0x0 DUP5 EQ PUSH2 0x36EE JUMPI PUSH1 0x40 MLOAD PUSH32 0x8C379A000000000000000000000000000000000000000000000000000000000 DUP2 MSTORE PUSH1 0x4 ADD PUSH2 0x36E5 SWAP1 PUSH2 0x4659 JUMP JUMPDEST PUSH1 0x40 MLOAD DUP1 SWAP2 SUB SWAP1 REVERT JUMPDEST DUP1 SWAP2 POP POP SWAP3 SWAP2 POP POP JUMP JUMPDEST PUSH2 0x3702 DUP3 DUP3 PUSH2 0x26CD JUMP JUMPDEST PUSH2 0x37D5 JUMPI PUSH1 0x1 PUSH1 0x16 PUSH1 0x0 DUP5 DUP2 MSTORE PUSH1 0x20 ADD SWAP1 DUP2 MSTORE PUSH1 0x20 ADD PUSH1 0x0 KECCAK256 PUSH1 0x0 ADD PUSH1 0x0 DUP4 PUSH20 0xFFFFFFFFFFFFFFFFFFFFFFFFFFFFFFFFFFFFFFFF AND PUSH20 0xFFFFFFFFFFFFFFFFFFFFFFFFFFFFFFFFFFFFFFFF AND DUP2 MSTORE PUSH1 0x20 ADD SWAP1 DUP2 MSTORE PUSH1 0x20 ADD PUSH1 0x0 KECCAK256 PUSH1 0x0 PUSH2 0x100 EXP DUP2 SLOAD DUP2 PUSH1 0xFF MUL NOT AND SWAP1 DUP4 ISZERO ISZERO MUL OR SWAP1 SSTORE POP PUSH2 0x377A PUSH2 0x31BB JUMP JUMPDEST PUSH20 0xFFFFFFFFFFFFFFFFFFFFFFFFFFFFFFFFFFFFFFFF AND DUP2 PUSH20 0xFFFFFFFFFFFFFFFFFFFFFFFFFFFFFFFFFFFFFFFF AND DUP4 PUSH32 0x2F8788117E7EFF1D82E926EC794901D17C78024A50270940304540A733656F0D PUSH1 0x40 MLOAD PUSH1 0x40 MLOAD DUP1 SWAP2 SUB SWAP1 LOG4 JUMPDEST POP POP JUMP JUMPDEST PUSH1 0x0 PUSH2 0x3801 DUP4 PUSH1 0x0 ADD DUP4 PUSH20 0xFFFFFFFFFFFFFFFFFFFFFFFFFFFFFFFFFFFFFFFF AND PUSH1 0x0 SHL PUSH2 0x396F JUMP JUMPDEST SWAP1 POP SWAP3 SWAP2 POP POP JUMP JUMPDEST PUSH2 0x3813 DUP3 DUP3 PUSH2 0x26CD JUMP JUMPDEST ISZERO PUSH2 0x38E7 JUMPI PUSH1 0x0 PUSH1 0x16 PUSH1 0x0 DUP5 DUP2 MSTORE PUSH1 0x20 ADD SWAP1 DUP2 MSTORE PUSH1 0x20 ADD PUSH1 0x0 KECCAK256 PUSH1 0x0 ADD PUSH1 0x0 DUP4 PUSH20 0xFFFFFFFFFFFFFFFFFFFFFFFFFFFFFFFFFFFFFFFF AND PUSH20 0xFFFFFFFFFFFFFFFFFFFFFFFFFFFFFFFFFFFFFFFF AND DUP2 MSTORE PUSH1 0x20 ADD SWAP1 DUP2 MSTORE PUSH1 0x20 ADD PUSH1 0x0 KECCAK256 PUSH1 0x0 PUSH2 0x100 EXP DUP2 SLOAD DUP2 PUSH1 0xFF MUL NOT AND SWAP1 DUP4 ISZERO ISZERO MUL OR SWAP1 SSTORE POP PUSH2 0x388C PUSH2 0x31BB JUMP JUMPDEST PUSH20 0xFFFFFFFFFFFFFFFFFFFFFFFFFFFFFFFFFFFFFFFF AND DUP2 PUSH20 0xFFFFFFFFFFFFFFFFFFFFFFFFFFFFFFFFFFFFFFFF AND DUP4 PUSH32 0xF6391F5C32D9C69D2A47EA670B442974B53935D1EDC7FD64EB21E047A839171B PUSH1 0x40 MLOAD PUSH1 0x40 MLOAD DUP1 SWAP2 SUB SWAP1 LOG4 JUMPDEST POP POP JUMP JUMPDEST PUSH1 0x0 PUSH2 0x3913 DUP4 PUSH1 0x0 ADD DUP4 PUSH20 0xFFFFFFFFFFFFFFFFFFFFFFFFFFFFFFFFFFFFFFFF AND PUSH1 0x0 SHL PUSH2 0x39DF JUMP JUMPDEST SWAP1 POP SWAP3 SWAP2 POP POP JUMP JUMPDEST PUSH1 0x0 DUP3 PUSH1 0x0 ADD DUP3 DUP2 SLOAD DUP2 LT PUSH2 0x3933 JUMPI PUSH2 0x3932 PUSH2 0x4D17 JUMP JUMPDEST JUMPDEST SWAP1 PUSH1 0x0 MSTORE PUSH1 0x20 PUSH1 0x0 KECCAK256 ADD SLOAD SWAP1 POP SWAP3 SWAP2 POP POP JUMP JUMPDEST PUSH1 0x0 DUP2 PUSH1 0x0 ADD DUP1 SLOAD SWAP1 POP SWAP1 POP SWAP2 SWAP1 POP JUMP JUMPDEST PUSH1 0x60 PUSH2 0x3966 DUP5 DUP5 PUSH1 0x0 DUP6 PUSH2 0x3AF3 JUMP JUMPDEST SWAP1 POP SWAP4 SWAP3 POP POP POP JUMP JUMPDEST PUSH1 0x0 PUSH2 0x397B DUP4 DUP4 PUSH2 0x3C07 JUMP JUMPDEST PUSH2 0x39D4 JUMPI DUP3 PUSH1 0x0 ADD DUP3 SWAP1 DUP1 PUSH1 0x1 DUP2 SLOAD ADD DUP1 DUP3 SSTORE DUP1 SWAP2 POP POP PUSH1 0x1 SWAP1 SUB SWAP1 PUSH1 0x0 MSTORE PUSH1 0x20 PUSH1 0x0 KECCAK256 ADD PUSH1 0x0 SWAP1 SWAP2 SWAP1 SWAP2 SWAP1 SWAP2 POP SSTORE DUP3 PUSH1 0x0 ADD DUP1 SLOAD SWAP1 POP DUP4 PUSH1 0x1 ADD PUSH1 0x0 DUP5 DUP2 MSTORE PUSH1 0x20 ADD SWAP1 DUP2 MSTORE PUSH1 0x20 ADD PUSH1 0x0 KECCAK256 DUP2 SWAP1 SSTORE POP PUSH1 0x1 SWAP1 POP PUSH2 0x39D9 JUMP JUMPDEST PUSH1 0x0 SWAP1 POP JUMPDEST SWAP3 SWAP2 POP POP JUMP JUMPDEST PUSH1 0x0 DUP1 DUP4 PUSH1 0x1 ADD PUSH1 0x0 DUP5 DUP2 MSTORE PUSH1 0x20 ADD SWAP1 DUP2 MSTORE PUSH1 0x20 ADD PUSH1 0x0 KECCAK256 SLOAD SWAP1 POP PUSH1 0x0 DUP2 EQ PUSH2 0x3AE7 JUMPI PUSH1 0x0 PUSH1 0x1 DUP3 PUSH2 0x3A11 SWAP2 SWAP1 PUSH2 0x4AC8 JUMP JUMPDEST SWAP1 POP PUSH1 0x0 PUSH1 0x1 DUP7 PUSH1 0x0 ADD DUP1 SLOAD SWAP1 POP PUSH2 0x3A29 SWAP2 SWAP1 PUSH2 0x4AC8 JUMP JUMPDEST SWAP1 POP DUP2 DUP2 EQ PUSH2 0x3A98 JUMPI PUSH1 0x0 DUP7 PUSH1 0x0 ADD DUP3 DUP2 SLOAD DUP2 LT PUSH2 0x3A4A JUMPI PUSH2 0x3A49 PUSH2 0x4D17 JUMP JUMPDEST JUMPDEST SWAP1 PUSH1 0x0 MSTORE PUSH1 0x20 PUSH1 0x0 KECCAK256 ADD SLOAD SWAP1 POP DUP1 DUP8 PUSH1 0x0 ADD DUP5 DUP2 SLOAD DUP2 LT PUSH2 0x3A6E JUMPI PUSH2 0x3A6D PUSH2 0x4D17 JUMP JUMPDEST JUMPDEST SWAP1 PUSH1 0x0 MSTORE PUSH1 0x20 PUSH1 0x0 KECCAK256 ADD DUP2 SWAP1 SSTORE POP DUP4 DUP8 PUSH1 0x1 ADD PUSH1 0x0 DUP4 DUP2 MSTORE PUSH1 0x20 ADD SWAP1 DUP2 MSTORE PUSH1 0x20 ADD PUSH1 0x0 KECCAK256 DUP2 SWAP1 SSTORE POP POP JUMPDEST DUP6 PUSH1 0x0 ADD DUP1 SLOAD DUP1 PUSH2 0x3AAC JUMPI PUSH2 0x3AAB PUSH2 0x4CE8 JUMP JUMPDEST JUMPDEST PUSH1 0x1 SWAP1 SUB DUP2 DUP2 SWAP1 PUSH1 0x0 MSTORE PUSH1 0x20 PUSH1 0x0 KECCAK256 ADD PUSH1 0x0 SWAP1 SSTORE SWAP1 SSTORE DUP6 PUSH1 0x1 ADD PUSH1 0x0 DUP7 DUP2 MSTORE PUSH1 0x20 ADD SWAP1 DUP2 MSTORE PUSH1 0x20 ADD PUSH1 0x0 KECCAK256 PUSH1 0x0 SWAP1 SSTORE PUSH1 0x1 SWAP4 POP POP POP POP PUSH2 0x3AED JUMP JUMPDEST PUSH1 0x0 SWAP2 POP POP JUMPDEST SWAP3 SWAP2 POP POP JUMP JUMPDEST PUSH1 0x60 DUP3 SELFBALANCE LT ISZERO PUSH2 0x3B38 JUMPI PUSH1 0x40 MLOAD PUSH32 0x8C379A000000000000000000000000000000000000000000000000000000000 DUP2 MSTORE PUSH1 0x4 ADD PUSH2 0x3B2F SWAP1 PUSH2 0x46F9 JUMP JUMPDEST PUSH1 0x40 MLOAD DUP1 SWAP2 SUB SWAP1 REVERT JUMPDEST PUSH2 0x3B41 DUP6 PUSH2 0x3C2A JUMP JUMPDEST PUSH2 0x3B80 JUMPI PUSH1 0x40 MLOAD PUSH32 0x8C379A000000000000000000000000000000000000000000000000000000000 DUP2 MSTORE PUSH1 0x4 ADD PUSH2 0x3B77 SWAP1 PUSH2 0x4839 JUMP JUMPDEST PUSH1 0x40 MLOAD DUP1 SWAP2 SUB SWAP1 REVERT JUMPDEST PUSH1 0x0 DUP1 DUP7 PUSH20 0xFFFFFFFFFFFFFFFFFFFFFFFFFFFFFFFFFFFFFFFF AND DUP6 DUP8 PUSH1 0x40 MLOAD PUSH2 0x3BA9 SWAP2 SWAP1 PUSH2 0x44FE JUMP JUMPDEST PUSH1 0x0 PUSH1 0x40 MLOAD DUP1 DUP4 SUB DUP2 DUP6 DUP8 GAS CALL SWAP3 POP POP POP RETURNDATASIZE DUP1 PUSH1 0x0 DUP2 EQ PUSH2 0x3BE6 JUMPI PUSH1 0x40 MLOAD SWAP2 POP PUSH1 0x1F NOT PUSH1 0x3F RETURNDATASIZE ADD AND DUP3 ADD PUSH1 0x40 MSTORE RETURNDATASIZE DUP3 MSTORE RETURNDATASIZE PUSH1 0x0 PUSH1 0x20 DUP5 ADD RETURNDATACOPY PUSH2 0x3BEB JUMP JUMPDEST PUSH1 0x60 SWAP2 POP JUMPDEST POP SWAP2 POP SWAP2 POP PUSH2 0x3BFB DUP3 DUP3 DUP7 PUSH2 0x3C3D JUMP JUMPDEST SWAP3 POP POP POP SWAP5 SWAP4 POP POP POP POP JUMP JUMPDEST PUSH1 0x0 DUP1 DUP4 PUSH1 0x1 ADD PUSH1 0x0 DUP5 DUP2 MSTORE PUSH1 0x20 ADD SWAP1 DUP2 MSTORE PUSH1 0x20 ADD PUSH1 0x0 KECCAK256 SLOAD EQ ISZERO SWAP1 POP SWAP3 SWAP2 POP POP JUMP JUMPDEST PUSH1 0x0 DUP1 DUP3 EXTCODESIZE SWAP1 POP PUSH1 0x0 DUP2 GT SWAP2 POP POP SWAP2 SWAP1 POP JUMP JUMPDEST PUSH1 0x60 DUP4 ISZERO PUSH2 0x3C4D JUMPI DUP3 SWAP1 POP PUSH2 0x3C9D JUMP JUMPDEST PUSH1 0x0 DUP4 MLOAD GT ISZERO PUSH2 0x3C60 JUMPI DUP3 MLOAD DUP1 DUP5 PUSH1 0x20 ADD REVERT JUMPDEST DUP2 PUSH1 0x40 MLOAD PUSH32 0x8C379A000000000000000000000000000000000000000000000000000000000 DUP2 MSTORE PUSH1 0x4 ADD PUSH2 0x3C94 SWAP2 SWAP1 PUSH2 0x4637 JUMP JUMPDEST PUSH1 0x40 MLOAD DUP1 SWAP2 SUB SWAP1 REVERT JUMPDEST SWAP4 SWAP3 POP POP POP JUMP JUMPDEST DUP3 DUP1 SLOAD PUSH2 0x3CB0 SWAP1 PUSH2 0x4BF8 JUMP JUMPDEST SWAP1 PUSH1 0x0 MSTORE PUSH1 0x20 PUSH1 0x0 KECCAK256 SWAP1 PUSH1 0x1F ADD PUSH1 0x20 SWAP1 DIV DUP2 ADD SWAP3 DUP3 PUSH2 0x3CD2 JUMPI PUSH1 0x0 DUP6 SSTORE PUSH2 0x3D19 JUMP JUMPDEST DUP3 PUSH1 0x1F LT PUSH2 0x3CEB JUMPI DUP1 MLOAD PUSH1 0xFF NOT AND DUP4 DUP1 ADD OR DUP6 SSTORE PUSH2 0x3D19 JUMP JUMPDEST DUP3 DUP1 ADD PUSH1 0x1 ADD DUP6 SSTORE DUP3 ISZERO PUSH2 0x3D19 JUMPI SWAP2 DUP3 ADD JUMPDEST DUP3 DUP2 GT ISZERO PUSH2 0x3D18 JUMPI DUP3 MLOAD DUP3 SSTORE SWAP2 PUSH1 0x20 ADD SWAP2 SWAP1 PUSH1 0x1 ADD SWAP1 PUSH2 0x3CFD JUMP JUMPDEST JUMPDEST POP SWAP1 POP PUSH2 0x3D26 SWAP2 SWAP1 PUSH2 0x3D2A JUMP JUMPDEST POP SWAP1 JUMP JUMPDEST JUMPDEST DUP1 DUP3 GT ISZERO PUSH2 0x3D43 JUMPI PUSH1 0x0 DUP2 PUSH1 0x0 SWAP1 SSTORE POP PUSH1 0x1 ADD PUSH2 0x3D2B JUMP JUMPDEST POP SWAP1 JUMP JUMPDEST PUSH1 0x0 PUSH2 0x3D5A PUSH2 0x3D55 DUP5 PUSH2 0x4979 JUMP JUMPDEST PUSH2 0x4954 JUMP JUMPDEST SWAP1 POP DUP3 DUP2 MSTORE PUSH1 0x20 DUP2 ADD DUP5 DUP5 DUP5 ADD GT ISZERO PUSH2 0x3D76 JUMPI PUSH2 0x3D75 PUSH2 0x4D7A JUMP JUMPDEST JUMPDEST PUSH2 0x3D81 DUP5 DUP3 DUP6 PUSH2 0x4B8C JUMP JUMPDEST POP SWAP4 SWAP3 POP POP POP JUMP JUMPDEST PUSH1 0x0 DUP2 CALLDATALOAD SWAP1 POP PUSH2 0x3D98 DUP2 PUSH2 0x51DE JUMP JUMPDEST SWAP3 SWAP2 POP POP JUMP JUMPDEST PUSH1 0x0 DUP2 CALLDATALOAD SWAP1 POP PUSH2 0x3DAD DUP2 PUSH2 0x51F5 JUMP JUMPDEST SWAP3 SWAP2 POP POP JUMP JUMPDEST PUSH1 0x0 DUP2 MLOAD SWAP1 POP PUSH2 0x3DC2 DUP2 PUSH2 0x520C JUMP JUMPDEST SWAP3 SWAP2 POP POP JUMP JUMPDEST PUSH1 0x0 DUP2 CALLDATALOAD SWAP1 POP PUSH2 0x3DD7 DUP2 PUSH2 0x5223 JUMP JUMPDEST SWAP3 SWAP2 POP POP JUMP JUMPDEST PUSH1 0x0 DUP2 CALLDATALOAD SWAP1 POP PUSH2 0x3DEC DUP2 PUSH2 0x523A JUMP JUMPDEST SWAP3 SWAP2 POP POP JUMP JUMPDEST PUSH1 0x0 DUP3 PUSH1 0x1F DUP4 ADD SLT PUSH2 0x3E07 JUMPI PUSH2 0x3E06 PUSH2 0x4D75 JUMP JUMPDEST JUMPDEST DUP2 CALLDATALOAD PUSH2 0x3E17 DUP5 DUP3 PUSH1 0x20 DUP7 ADD PUSH2 0x3D47 JUMP JUMPDEST SWAP2 POP POP SWAP3 SWAP2 POP POP JUMP JUMPDEST PUSH1 0x0 DUP2 CALLDATALOAD SWAP1 POP PUSH2 0x3E2F DUP2 PUSH2 0x5251 JUMP JUMPDEST SWAP3 SWAP2 POP POP JUMP JUMPDEST PUSH1 0x0 DUP2 MLOAD SWAP1 POP PUSH2 0x3E44 DUP2 PUSH2 0x5251 JUMP JUMPDEST SWAP3 SWAP2 POP POP JUMP JUMPDEST PUSH1 0x0 PUSH1 0x20 DUP3 DUP5 SUB SLT ISZERO PUSH2 0x3E60 JUMPI PUSH2 0x3E5F PUSH2 0x4D84 JUMP JUMPDEST JUMPDEST PUSH1 0x0 PUSH2 0x3E6E DUP5 DUP3 DUP6 ADD PUSH2 0x3D89 JUMP JUMPDEST SWAP2 POP POP SWAP3 SWAP2 POP POP JUMP JUMPDEST PUSH1 0x0 DUP1 PUSH1 0x0 DUP1 PUSH1 0x0 DUP1 PUSH1 0x0 DUP1 PUSH1 0x0 PUSH2 0x120 DUP11 DUP13 SUB SLT ISZERO PUSH2 0x3E9A JUMPI PUSH2 0x3E99 PUSH2 0x4D84 JUMP JUMPDEST JUMPDEST PUSH1 0x0 PUSH2 0x3EA8 DUP13 DUP3 DUP14 ADD PUSH2 0x3D89 JUMP JUMPDEST SWAP10 POP POP PUSH1 0x20 DUP11 ADD CALLDATALOAD PUSH8 0xFFFFFFFFFFFFFFFF DUP2 GT ISZERO PUSH2 0x3EC9 JUMPI PUSH2 0x3EC8 PUSH2 0x4D7F JUMP JUMPDEST JUMPDEST PUSH2 0x3ED5 DUP13 DUP3 DUP14 ADD PUSH2 0x3DF2 JUMP JUMPDEST SWAP9 POP POP PUSH1 0x40 PUSH2 0x3EE6 DUP13 DUP3 DUP14 ADD PUSH2 0x3E20 JUMP JUMPDEST SWAP8 POP POP PUSH1 0x60 PUSH2 0x3EF7 DUP13 DUP3 DUP14 ADD PUSH2 0x3E20 JUMP JUMPDEST SWAP7 POP POP PUSH1 0x80 PUSH2 0x3F08 DUP13 DUP3 DUP14 ADD PUSH2 0x3E20 JUMP JUMPDEST SWAP6 POP POP PUSH1 0xA0 PUSH2 0x3F19 DUP13 DUP3 DUP14 ADD PUSH2 0x3E20 JUMP JUMPDEST SWAP5 POP POP PUSH1 0xC0 PUSH2 0x3F2A DUP13 DUP3 DUP14 ADD PUSH2 0x3E20 JUMP JUMPDEST SWAP4 POP POP PUSH1 0xE0 PUSH2 0x3F3B DUP13 DUP3 DUP14 ADD PUSH2 0x3D89 JUMP JUMPDEST SWAP3 POP POP PUSH2 0x100 PUSH2 0x3F4D DUP13 DUP3 DUP14 ADD PUSH2 0x3D9E JUMP JUMPDEST SWAP2 POP POP SWAP3 SWAP6 SWAP9 POP SWAP3 SWAP6 SWAP9 POP SWAP3 SWAP6 SWAP9 JUMP JUMPDEST PUSH1 0x0 DUP1 PUSH1 0x0 DUP1 PUSH1 0x80 DUP6 DUP8 SUB SLT ISZERO PUSH2 0x3F77 JUMPI PUSH2 0x3F76 PUSH2 0x4D84 JUMP JUMPDEST JUMPDEST PUSH1 0x0 PUSH2 0x3F85 DUP8 DUP3 DUP9 ADD PUSH2 0x3D89 JUMP JUMPDEST SWAP5 POP POP PUSH1 0x20 PUSH2 0x3F96 DUP8 DUP3 DUP9 ADD PUSH2 0x3E20 JUMP JUMPDEST SWAP4 POP POP PUSH1 0x40 PUSH2 0x3FA7 DUP8 DUP3 DUP9 ADD PUSH2 0x3E20 JUMP JUMPDEST SWAP3 POP POP PUSH1 0x60 PUSH2 0x3FB8 DUP8 DUP3 DUP9 ADD PUSH2 0x3E20 JUMP JUMPDEST SWAP2 POP POP SWAP3 SWAP6 SWAP2 SWAP5 POP SWAP3 POP JUMP JUMPDEST PUSH1 0x0 PUSH1 0x20 DUP3 DUP5 SUB SLT ISZERO PUSH2 0x3FDA JUMPI PUSH2 0x3FD9 PUSH2 0x4D84 JUMP JUMPDEST JUMPDEST PUSH1 0x0 PUSH2 0x3FE8 DUP5 DUP3 DUP6 ADD PUSH2 0x3DB3 JUMP JUMPDEST SWAP2 POP POP SWAP3 SWAP2 POP POP JUMP JUMPDEST PUSH1 0x0 PUSH1 0x20 DUP3 DUP5 SUB SLT ISZERO PUSH2 0x4007 JUMPI PUSH2 0x4006 PUSH2 0x4D84 JUMP JUMPDEST JUMPDEST PUSH1 0x0 PUSH2 0x4015 DUP5 DUP3 DUP6 ADD PUSH2 0x3DC8 JUMP JUMPDEST SWAP2 POP POP SWAP3 SWAP2 POP POP JUMP JUMPDEST PUSH1 0x0 DUP1 PUSH1 0x40 DUP4 DUP6 SUB SLT ISZERO PUSH2 0x4035 JUMPI PUSH2 0x4034 PUSH2 0x4D84 JUMP JUMPDEST JUMPDEST PUSH1 0x0 PUSH2 0x4043 DUP6 DUP3 DUP7 ADD PUSH2 0x3DC8 JUMP JUMPDEST SWAP3 POP POP PUSH1 0x20 PUSH2 0x4054 DUP6 DUP3 DUP7 ADD PUSH2 0x3D89 JUMP JUMPDEST SWAP2 POP POP SWAP3 POP SWAP3 SWAP1 POP JUMP JUMPDEST PUSH1 0x0 DUP1 PUSH1 0x40 DUP4 DUP6 SUB SLT ISZERO PUSH2 0x4075 JUMPI PUSH2 0x4074 PUSH2 0x4D84 JUMP JUMPDEST JUMPDEST PUSH1 0x0 PUSH2 0x4083 DUP6 DUP3 DUP7 ADD PUSH2 0x3DC8 JUMP JUMPDEST SWAP3 POP POP PUSH1 0x20 PUSH2 0x4094 DUP6 DUP3 DUP7 ADD PUSH2 0x3E20 JUMP JUMPDEST SWAP2 POP POP SWAP3 POP SWAP3 SWAP1 POP JUMP JUMPDEST PUSH1 0x0 PUSH1 0x20 DUP3 DUP5 SUB SLT ISZERO PUSH2 0x40B4 JUMPI PUSH2 0x40B3 PUSH2 0x4D84 JUMP JUMPDEST JUMPDEST PUSH1 0x0 PUSH2 0x40C2 DUP5 DUP3 DUP6 ADD PUSH2 0x3DDD JUMP JUMPDEST SWAP2 POP POP SWAP3 SWAP2 POP POP JUMP JUMPDEST PUSH1 0x0 PUSH1 0x20 DUP3 DUP5 SUB SLT ISZERO PUSH2 0x40E1 JUMPI PUSH2 0x40E0 PUSH2 0x4D84 JUMP JUMPDEST JUMPDEST PUSH1 0x0 PUSH2 0x40EF DUP5 DUP3 DUP6 ADD PUSH2 0x3E20 JUMP JUMPDEST SWAP2 POP POP SWAP3 SWAP2 POP POP JUMP JUMPDEST PUSH1 0x0 PUSH1 0x20 DUP3 DUP5 SUB SLT ISZERO PUSH2 0x410E JUMPI PUSH2 0x410D PUSH2 0x4D84 JUMP JUMPDEST JUMPDEST PUSH1 0x0 PUSH2 0x411C DUP5 DUP3 DUP6 ADD PUSH2 0x3E35 JUMP JUMPDEST SWAP2 POP POP SWAP3 SWAP2 POP POP JUMP JUMPDEST PUSH2 0x412E DUP2 PUSH2 0x4AFC JUMP JUMPDEST DUP3 MSTORE POP POP JUMP JUMPDEST PUSH2 0x413D DUP2 PUSH2 0x4B20 JUMP JUMPDEST DUP3 MSTORE POP POP JUMP JUMPDEST PUSH2 0x414C DUP2 PUSH2 0x4B2C JUMP JUMPDEST DUP3 MSTORE POP POP JUMP JUMPDEST PUSH1 0x0 PUSH2 0x415D DUP3 PUSH2 0x49AA JUMP JUMPDEST PUSH2 0x4167 DUP2 DUP6 PUSH2 0x49C0 JUMP JUMPDEST SWAP4 POP PUSH2 0x4177 DUP2 DUP6 PUSH1 0x20 DUP7 ADD PUSH2 0x4B9B JUMP JUMPDEST DUP1 DUP5 ADD SWAP2 POP POP SWAP3 SWAP2 POP POP JUMP JUMPDEST PUSH1 0x0 PUSH2 0x418E DUP3 PUSH2 0x49B5 JUMP JUMPDEST PUSH2 0x4198 DUP2 DUP6 PUSH2 0x49CB JUMP JUMPDEST SWAP4 POP PUSH2 0x41A8 DUP2 DUP6 PUSH1 0x20 DUP7 ADD PUSH2 0x4B9B JUMP JUMPDEST PUSH2 0x41B1 DUP2 PUSH2 0x4D89 JUMP JUMPDEST DUP5 ADD SWAP2 POP POP SWAP3 SWAP2 POP POP JUMP JUMPDEST PUSH1 0x0 PUSH2 0x41C7 DUP3 PUSH2 0x49B5 JUMP JUMPDEST PUSH2 0x41D1 DUP2 DUP6 PUSH2 0x49DC JUMP JUMPDEST SWAP4 POP PUSH2 0x41E1 DUP2 DUP6 PUSH1 0x20 DUP7 ADD PUSH2 0x4B9B JUMP JUMPDEST DUP1 DUP5 ADD SWAP2 POP POP SWAP3 SWAP2 POP POP JUMP JUMPDEST PUSH1 0x0 PUSH2 0x41FA PUSH1 0x20 DUP4 PUSH2 0x49CB JUMP JUMPDEST SWAP2 POP PUSH2 0x4205 DUP3 PUSH2 0x4D9A JUMP JUMPDEST PUSH1 0x20 DUP3 ADD SWAP1 POP SWAP2 SWAP1 POP JUMP JUMPDEST PUSH1 0x0 PUSH2 0x421D PUSH1 0x13 DUP4 PUSH2 0x49CB JUMP JUMPDEST SWAP2 POP PUSH2 0x4228 DUP3 PUSH2 0x4DC3 JUMP JUMPDEST PUSH1 0x20 DUP3 ADD SWAP1 POP SWAP2 SWAP1 POP JUMP JUMPDEST PUSH1 0x0 PUSH2 0x4240 PUSH1 0x1B DUP4 PUSH2 0x49CB JUMP JUMPDEST SWAP2 POP PUSH2 0x424B DUP3 PUSH2 0x4DEC JUMP JUMPDEST PUSH1 0x20 DUP3 ADD SWAP1 POP SWAP2 SWAP1 POP JUMP JUMPDEST PUSH1 0x0 PUSH2 0x4263 PUSH1 0x13 DUP4 PUSH2 0x49CB JUMP JUMPDEST SWAP2 POP PUSH2 0x426E DUP3 PUSH2 0x4E15 JUMP JUMPDEST PUSH1 0x20 DUP3 ADD SWAP1 POP SWAP2 SWAP1 POP JUMP JUMPDEST PUSH1 0x0 PUSH2 0x4286 PUSH1 0x20 DUP4 PUSH2 0x49CB JUMP JUMPDEST SWAP2 POP PUSH2 0x4291 DUP3 PUSH2 0x4E3E JUMP JUMPDEST PUSH1 0x20 DUP3 ADD SWAP1 POP SWAP2 SWAP1 POP JUMP JUMPDEST PUSH1 0x0 PUSH2 0x42A9 PUSH1 0x26 DUP4 PUSH2 0x49CB JUMP JUMPDEST SWAP2 POP PUSH2 0x42B4 DUP3 PUSH2 0x4E67 JUMP JUMPDEST PUSH1 0x40 DUP3 ADD SWAP1 POP SWAP2 SWAP1 POP JUMP JUMPDEST PUSH1 0x0 PUSH2 0x42CC PUSH1 0x11 DUP4 PUSH2 0x49CB JUMP JUMPDEST SWAP2 POP PUSH2 0x42D7 DUP3 PUSH2 0x4EB6 JUMP JUMPDEST PUSH1 0x20 DUP3 ADD SWAP1 POP SWAP2 SWAP1 POP JUMP JUMPDEST PUSH1 0x0 PUSH2 0x42EF PUSH1 0x1D DUP4 PUSH2 0x49CB JUMP JUMPDEST SWAP2 POP PUSH2 0x42FA DUP3 PUSH2 0x4EDF JUMP JUMPDEST PUSH1 0x20 DUP3 ADD SWAP1 POP SWAP2 SWAP1 POP JUMP JUMPDEST PUSH1 0x0 PUSH2 0x4312 PUSH1 0x21 DUP4 PUSH2 0x49CB JUMP JUMPDEST SWAP2 POP PUSH2 0x431D DUP3 PUSH2 0x4F08 JUMP JUMPDEST PUSH1 0x40 DUP3 ADD SWAP1 POP SWAP2 SWAP1 POP JUMP JUMPDEST PUSH1 0x0 PUSH2 0x4335 PUSH1 0x1F DUP4 PUSH2 0x49CB JUMP JUMPDEST SWAP2 POP PUSH2 0x4340 DUP3 PUSH2 0x4F57 JUMP JUMPDEST PUSH1 0x20 DUP3 ADD SWAP1 POP SWAP2 SWAP1 POP JUMP JUMPDEST PUSH1 0x0 PUSH2 0x4358 PUSH1 0x15 DUP4 PUSH2 0x49CB JUMP JUMPDEST SWAP2 POP PUSH2 0x4363 DUP3 PUSH2 0x4F80 JUMP JUMPDEST PUSH1 0x20 DUP3 ADD SWAP1 POP SWAP2 SWAP1 POP JUMP JUMPDEST PUSH1 0x0 PUSH2 0x437B PUSH1 0x19 DUP4 PUSH2 0x49CB JUMP JUMPDEST SWAP2 POP PUSH2 0x4386 DUP3 PUSH2 0x4FA9 JUMP JUMPDEST PUSH1 0x20 DUP3 ADD SWAP1 POP SWAP2 SWAP1 POP JUMP JUMPDEST PUSH1 0x0 PUSH2 0x439E PUSH1 0x15 DUP4 PUSH2 0x49CB JUMP JUMPDEST SWAP2 POP PUSH2 0x43A9 DUP3 PUSH2 0x4FD2 JUMP JUMPDEST PUSH1 0x20 DUP3 ADD SWAP1 POP SWAP2 SWAP1 POP JUMP JUMPDEST PUSH1 0x0 PUSH2 0x43C1 PUSH1 0x2E DUP4 PUSH2 0x49CB JUMP JUMPDEST SWAP2 POP PUSH2 0x43CC DUP3 PUSH2 0x4FFB JUMP JUMPDEST PUSH1 0x40 DUP3 ADD SWAP1 POP SWAP2 SWAP1 POP JUMP JUMPDEST PUSH1 0x0 PUSH2 0x43E4 PUSH1 0x1F DUP4 PUSH2 0x49CB JUMP JUMPDEST SWAP2 POP PUSH2 0x43EF DUP3 PUSH2 0x504A JUMP JUMPDEST PUSH1 0x20 DUP3 ADD SWAP1 POP SWAP2 SWAP1 POP JUMP JUMPDEST PUSH1 0x0 PUSH2 0x4407 PUSH1 0x1D DUP4 PUSH2 0x49CB JUMP JUMPDEST SWAP2 POP PUSH2 0x4412 DUP3 PUSH2 0x5073 JUMP JUMPDEST PUSH1 0x20 DUP3 ADD SWAP1 POP SWAP2 SWAP1 POP JUMP JUMPDEST PUSH1 0x0 PUSH2 0x442A PUSH1 0x1A DUP4 PUSH2 0x49CB JUMP JUMPDEST SWAP2 POP PUSH2 0x4435 DUP3 PUSH2 0x509C JUMP JUMPDEST PUSH1 0x20 DUP3 ADD SWAP1 POP SWAP2 SWAP1 POP JUMP JUMPDEST PUSH1 0x0 PUSH2 0x444D PUSH1 0x17 DUP4 PUSH2 0x49DC JUMP JUMPDEST SWAP2 POP PUSH2 0x4458 DUP3 PUSH2 0x50C5 JUMP JUMPDEST PUSH1 0x17 DUP3 ADD SWAP1 POP SWAP2 SWAP1 POP JUMP JUMPDEST PUSH1 0x0 PUSH2 0x4470 PUSH1 0x2A DUP4 PUSH2 0x49CB JUMP JUMPDEST SWAP2 POP PUSH2 0x447B DUP3 PUSH2 0x50EE JUMP JUMPDEST PUSH1 0x40 DUP3 ADD SWAP1 POP SWAP2 SWAP1 POP JUMP JUMPDEST PUSH1 0x0 PUSH2 0x4493 PUSH1 0x8 DUP4 PUSH2 0x49CB JUMP JUMPDEST SWAP2 POP PUSH2 0x449E DUP3 PUSH2 0x513D JUMP JUMPDEST PUSH1 0x20 DUP3 ADD SWAP1 POP SWAP2 SWAP1 POP JUMP JUMPDEST PUSH1 0x0 PUSH2 0x44B6 PUSH1 0x11 DUP4 PUSH2 0x49DC JUMP JUMPDEST SWAP2 POP PUSH2 0x44C1 DUP3 PUSH2 0x5166 JUMP JUMPDEST PUSH1 0x11 DUP3 ADD SWAP1 POP SWAP2 SWAP1 POP JUMP JUMPDEST PUSH1 0x0 PUSH2 0x44D9 PUSH1 0x2F DUP4 PUSH2 0x49CB JUMP JUMPDEST SWAP2 POP PUSH2 0x44E4 DUP3 PUSH2 0x518F JUMP JUMPDEST PUSH1 0x40 DUP3 ADD SWAP1 POP SWAP2 SWAP1 POP JUMP JUMPDEST PUSH2 0x44F8 DUP2 PUSH2 0x4B82 JUMP JUMPDEST DUP3 MSTORE POP POP JUMP JUMPDEST PUSH1 0x0 PUSH2 0x450A DUP3 DUP5 PUSH2 0x4152 JUMP JUMPDEST SWAP2 POP DUP2 SWAP1 POP SWAP3 SWAP2 POP POP JUMP JUMPDEST PUSH1 0x0 PUSH2 0x4520 DUP3 PUSH2 0x4440 JUMP JUMPDEST SWAP2 POP PUSH2 0x452C DUP3 DUP6 PUSH2 0x41BC JUMP JUMPDEST SWAP2 POP PUSH2 0x4537 DUP3 PUSH2 0x44A9 JUMP JUMPDEST SWAP2 POP PUSH2 0x4543 DUP3 DUP5 PUSH2 0x41BC JUMP JUMPDEST SWAP2 POP DUP2 SWAP1 POP SWAP4 SWAP3 POP POP POP JUMP JUMPDEST PUSH1 0x0 PUSH1 0x20 DUP3 ADD SWAP1 POP PUSH2 0x4564 PUSH1 0x0 DUP4 ADD DUP5 PUSH2 0x4125 JUMP JUMPDEST SWAP3 SWAP2 POP POP JUMP JUMPDEST PUSH1 0x0 PUSH1 0x60 DUP3 ADD SWAP1 POP PUSH2 0x457F PUSH1 0x0 DUP4 ADD DUP7 PUSH2 0x4125 JUMP JUMPDEST PUSH2 0x458C PUSH1 0x20 DUP4 ADD DUP6 PUSH2 0x4125 JUMP JUMPDEST PUSH2 0x4599 PUSH1 0x40 DUP4 ADD DUP5 PUSH2 0x44EF JUMP JUMPDEST SWAP5 SWAP4 POP POP POP POP JUMP JUMPDEST PUSH1 0x0 PUSH1 0x40 DUP3 ADD SWAP1 POP PUSH2 0x45B6 PUSH1 0x0 DUP4 ADD DUP6 PUSH2 0x4125 JUMP JUMPDEST PUSH2 0x45C3 PUSH1 0x20 DUP4 ADD DUP5 PUSH2 0x44EF JUMP JUMPDEST SWAP4 SWAP3 POP POP POP JUMP JUMPDEST PUSH1 0x0 PUSH1 0x20 DUP3 ADD SWAP1 POP PUSH2 0x45DF PUSH1 0x0 DUP4 ADD DUP5 PUSH2 0x4134 JUMP JUMPDEST SWAP3 SWAP2 POP POP JUMP JUMPDEST PUSH1 0x0 PUSH1 0x60 DUP3 ADD SWAP1 POP PUSH2 0x45FA PUSH1 0x0 DUP4 ADD DUP7 PUSH2 0x4134 JUMP JUMPDEST PUSH2 0x4607 PUSH1 0x20 DUP4 ADD DUP6 PUSH2 0x44EF JUMP JUMPDEST PUSH2 0x4614 PUSH1 0x40 DUP4 ADD DUP5 PUSH2 0x44EF JUMP JUMPDEST SWAP5 SWAP4 POP POP POP POP JUMP JUMPDEST PUSH1 0x0 PUSH1 0x20 DUP3 ADD SWAP1 POP PUSH2 0x4631 PUSH1 0x0 DUP4 ADD DUP5 PUSH2 0x4143 JUMP JUMPDEST SWAP3 SWAP2 POP POP JUMP JUMPDEST PUSH1 0x0 PUSH1 0x20 DUP3 ADD SWAP1 POP DUP2 DUP2 SUB PUSH1 0x0 DUP4 ADD MSTORE PUSH2 0x4651 DUP2 DUP5 PUSH2 0x4183 JUMP JUMPDEST SWAP1 POP SWAP3 SWAP2 POP POP JUMP JUMPDEST PUSH1 0x0 PUSH1 0x20 DUP3 ADD SWAP1 POP DUP2 DUP2 SUB PUSH1 0x0 DUP4 ADD MSTORE PUSH2 0x4672 DUP2 PUSH2 0x41ED JUMP JUMPDEST SWAP1 POP SWAP2 SWAP1 POP JUMP JUMPDEST PUSH1 0x0 PUSH1 0x20 DUP3 ADD SWAP1 POP DUP2 DUP2 SUB PUSH1 0x0 DUP4 ADD MSTORE PUSH2 0x4692 DUP2 PUSH2 0x4210 JUMP JUMPDEST SWAP1 POP SWAP2 SWAP1 POP JUMP JUMPDEST PUSH1 0x0 PUSH1 0x20 DUP3 ADD SWAP1 POP DUP2 DUP2 SUB PUSH1 0x0 DUP4 ADD MSTORE PUSH2 0x46B2 DUP2 PUSH2 0x4233 JUMP JUMPDEST SWAP1 POP SWAP2 SWAP1 POP JUMP JUMPDEST PUSH1 0x0 PUSH1 0x20 DUP3 ADD SWAP1 POP DUP2 DUP2 SUB PUSH1 0x0 DUP4 ADD MSTORE PUSH2 0x46D2 DUP2 PUSH2 0x4256 JUMP JUMPDEST SWAP1 POP SWAP2 SWAP1 POP JUMP JUMPDEST PUSH1 0x0 PUSH1 0x20 DUP3 ADD SWAP1 POP DUP2 DUP2 SUB PUSH1 0x0 DUP4 ADD MSTORE PUSH2 0x46F2 DUP2 PUSH2 0x4279 JUMP JUMPDEST SWAP1 POP SWAP2 SWAP1 POP JUMP JUMPDEST PUSH1 0x0 PUSH1 0x20 DUP3 ADD SWAP1 POP DUP2 DUP2 SUB PUSH1 0x0 DUP4 ADD MSTORE PUSH2 0x4712 DUP2 PUSH2 0x429C JUMP JUMPDEST SWAP1 POP SWAP2 SWAP1 POP JUMP JUMPDEST PUSH1 0x0 PUSH1 0x20 DUP3 ADD SWAP1 POP DUP2 DUP2 SUB PUSH1 0x0 DUP4 ADD MSTORE PUSH2 0x4732 DUP2 PUSH2 0x42BF JUMP JUMPDEST SWAP1 POP SWAP2 SWAP1 POP JUMP JUMPDEST PUSH1 0x0 PUSH1 0x20 DUP3 ADD SWAP1 POP DUP2 DUP2 SUB PUSH1 0x0 DUP4 ADD MSTORE PUSH2 0x4752 DUP2 PUSH2 0x42E2 JUMP JUMPDEST SWAP1 POP SWAP2 SWAP1 POP JUMP JUMPDEST PUSH1 0x0 PUSH1 0x20 DUP3 ADD SWAP1 POP DUP2 DUP2 SUB PUSH1 0x0 DUP4 ADD MSTORE PUSH2 0x4772 DUP2 PUSH2 0x4305 JUMP JUMPDEST SWAP1 POP SWAP2 SWAP1 POP JUMP JUMPDEST PUSH1 0x0 PUSH1 0x20 DUP3 ADD SWAP1 POP DUP2 DUP2 SUB PUSH1 0x0 DUP4 ADD MSTORE PUSH2 0x4792 DUP2 PUSH2 0x4328 JUMP JUMPDEST SWAP1 POP SWAP2 SWAP1 POP JUMP JUMPDEST PUSH1 0x0 PUSH1 0x20 DUP3 ADD SWAP1 POP DUP2 DUP2 SUB PUSH1 0x0 DUP4 ADD MSTORE PUSH2 0x47B2 DUP2 PUSH2 0x434B JUMP JUMPDEST SWAP1 POP SWAP2 SWAP1 POP JUMP JUMPDEST PUSH1 0x0 PUSH1 0x20 DUP3 ADD SWAP1 POP DUP2 DUP2 SUB PUSH1 0x0 DUP4 ADD MSTORE PUSH2 0x47D2 DUP2 PUSH2 0x436E JUMP JUMPDEST SWAP1 POP SWAP2 SWAP1 POP JUMP JUMPDEST PUSH1 0x0 PUSH1 0x20 DUP3 ADD SWAP1 POP DUP2 DUP2 SUB PUSH1 0x0 DUP4 ADD MSTORE PUSH2 0x47F2 DUP2 PUSH2 0x4391 JUMP JUMPDEST SWAP1 POP SWAP2 SWAP1 POP JUMP JUMPDEST PUSH1 0x0 PUSH1 0x20 DUP3 ADD SWAP1 POP DUP2 DUP2 SUB PUSH1 0x0 DUP4 ADD MSTORE PUSH2 0x4812 DUP2 PUSH2 0x43B4 JUMP JUMPDEST SWAP1 POP SWAP2 SWAP1 POP JUMP JUMPDEST PUSH1 0x0 PUSH1 0x20 DUP3 ADD SWAP1 POP DUP2 DUP2 SUB PUSH1 0x0 DUP4 ADD MSTORE PUSH2 0x4832 DUP2 PUSH2 0x43D7 JUMP JUMPDEST SWAP1 POP SWAP2 SWAP1 POP JUMP JUMPDEST PUSH1 0x0 PUSH1 0x20 DUP3 ADD SWAP1 POP DUP2 DUP2 SUB PUSH1 0x0 DUP4 ADD MSTORE PUSH2 0x4852 DUP2 PUSH2 0x43FA JUMP JUMPDEST SWAP1 POP SWAP2 SWAP1 POP JUMP JUMPDEST PUSH1 0x0 PUSH1 0x20 DUP3 ADD SWAP1 POP DUP2 DUP2 SUB PUSH1 0x0 DUP4 ADD MSTORE PUSH2 0x4872 DUP2 PUSH2 0x441D JUMP JUMPDEST SWAP1 POP SWAP2 SWAP1 POP JUMP JUMPDEST PUSH1 0x0 PUSH1 0x20 DUP3 ADD SWAP1 POP DUP2 DUP2 SUB PUSH1 0x0 DUP4 ADD MSTORE PUSH2 0x4892 DUP2 PUSH2 0x4463 JUMP JUMPDEST SWAP1 POP SWAP2 SWAP1 POP JUMP JUMPDEST PUSH1 0x0 PUSH1 0x20 DUP3 ADD SWAP1 POP DUP2 DUP2 SUB PUSH1 0x0 DUP4 ADD MSTORE PUSH2 0x48B2 DUP2 PUSH2 0x4486 JUMP JUMPDEST SWAP1 POP SWAP2 SWAP1 POP JUMP JUMPDEST PUSH1 0x0 PUSH1 0x20 DUP3 ADD SWAP1 POP DUP2 DUP2 SUB PUSH1 0x0 DUP4 ADD MSTORE PUSH2 0x48D2 DUP2 PUSH2 0x44CC JUMP JUMPDEST SWAP1 POP SWAP2 SWAP1 POP JUMP JUMPDEST PUSH1 0x0 PUSH1 0x20 DUP3 ADD SWAP1 POP PUSH2 0x48EE PUSH1 0x0 DUP4 ADD DUP5 PUSH2 0x44EF JUMP JUMPDEST SWAP3 SWAP2 POP POP JUMP JUMPDEST PUSH1 0x0 PUSH1 0x40 DUP3 ADD SWAP1 POP PUSH2 0x4909 PUSH1 0x0 DUP4 ADD DUP6 PUSH2 0x44EF JUMP JUMPDEST PUSH2 0x4916 PUSH1 0x20 DUP4 ADD DUP5 PUSH2 0x44EF JUMP JUMPDEST SWAP4 SWAP3 POP POP POP JUMP JUMPDEST PUSH1 0x0 PUSH1 0x60 DUP3 ADD SWAP1 POP PUSH2 0x4932 PUSH1 0x0 DUP4 ADD DUP7 PUSH2 0x44EF JUMP JUMPDEST PUSH2 0x493F PUSH1 0x20 DUP4 ADD DUP6 PUSH2 0x44EF JUMP JUMPDEST PUSH2 0x494C PUSH1 0x40 DUP4 ADD DUP5 PUSH2 0x44EF JUMP JUMPDEST SWAP5 SWAP4 POP POP POP POP JUMP JUMPDEST PUSH1 0x0 PUSH2 0x495E PUSH2 0x496F JUMP JUMPDEST SWAP1 POP PUSH2 0x496A DUP3 DUP3 PUSH2 0x4C2A JUMP JUMPDEST SWAP2 SWAP1 POP JUMP JUMPDEST PUSH1 0x0 PUSH1 0x40 MLOAD SWAP1 POP SWAP1 JUMP JUMPDEST PUSH1 0x0 PUSH8 0xFFFFFFFFFFFFFFFF DUP3 GT ISZERO PUSH2 0x4994 JUMPI PUSH2 0x4993 PUSH2 0x4D46 JUMP JUMPDEST JUMPDEST PUSH2 0x499D DUP3 PUSH2 0x4D89 JUMP JUMPDEST SWAP1 POP PUSH1 0x20 DUP2 ADD SWAP1 POP SWAP2 SWAP1 POP JUMP JUMPDEST PUSH1 0x0 DUP2 MLOAD SWAP1 POP SWAP2 SWAP1 POP JUMP JUMPDEST PUSH1 0x0 DUP2 MLOAD SWAP1 POP SWAP2 SWAP1 POP JUMP JUMPDEST PUSH1 0x0 DUP2 SWAP1 POP SWAP3 SWAP2 POP POP JUMP JUMPDEST PUSH1 0x0 DUP3 DUP3 MSTORE PUSH1 0x20 DUP3 ADD SWAP1 POP SWAP3 SWAP2 POP POP JUMP JUMPDEST PUSH1 0x0 DUP2 SWAP1 POP SWAP3 SWAP2 POP POP JUMP JUMPDEST PUSH1 0x0 PUSH2 0x49F2 DUP3 PUSH2 0x4B82 JUMP JUMPDEST SWAP2 POP PUSH2 0x49FD DUP4 PUSH2 0x4B82 JUMP JUMPDEST SWAP3 POP DUP3 PUSH32 0xFFFFFFFFFFFFFFFFFFFFFFFFFFFFFFFFFFFFFFFFFFFFFFFFFFFFFFFFFFFFFFFF SUB DUP3 GT ISZERO PUSH2 0x4A32 JUMPI PUSH2 0x4A31 PUSH2 0x4C5B JUMP JUMPDEST JUMPDEST DUP3 DUP3 ADD SWAP1 POP SWAP3 SWAP2 POP POP JUMP JUMPDEST PUSH1 0x0 PUSH2 0x4A48 DUP3 PUSH2 0x4B82 JUMP JUMPDEST SWAP2 POP PUSH2 0x4A53 DUP4 PUSH2 0x4B82 JUMP JUMPDEST SWAP3 POP DUP3 PUSH2 0x4A63 JUMPI PUSH2 0x4A62 PUSH2 0x4C8A JUMP JUMPDEST JUMPDEST DUP3 DUP3 DIV SWAP1 POP SWAP3 SWAP2 POP POP JUMP JUMPDEST PUSH1 0x0 PUSH2 0x4A79 DUP3 PUSH2 0x4B82 JUMP JUMPDEST SWAP2 POP PUSH2 0x4A84 DUP4 PUSH2 0x4B82 JUMP JUMPDEST SWAP3 POP DUP2 PUSH32 0xFFFFFFFFFFFFFFFFFFFFFFFFFFFFFFFFFFFFFFFFFFFFFFFFFFFFFFFFFFFFFFFF DIV DUP4 GT DUP3 ISZERO ISZERO AND ISZERO PUSH2 0x4ABD JUMPI PUSH2 0x4ABC PUSH2 0x4C5B JUMP JUMPDEST JUMPDEST DUP3 DUP3 MUL SWAP1 POP SWAP3 SWAP2 POP POP JUMP JUMPDEST PUSH1 0x0 PUSH2 0x4AD3 DUP3 PUSH2 0x4B82 JUMP JUMPDEST SWAP2 POP PUSH2 0x4ADE DUP4 PUSH2 0x4B82 JUMP JUMPDEST SWAP3 POP DUP3 DUP3 LT ISZERO PUSH2 0x4AF1 JUMPI PUSH2 0x4AF0 PUSH2 0x4C5B JUMP JUMPDEST JUMPDEST DUP3 DUP3 SUB SWAP1 POP SWAP3 SWAP2 POP POP JUMP JUMPDEST PUSH1 0x0 PUSH2 0x4B07 DUP3 PUSH2 0x4B62 JUMP JUMPDEST SWAP1 POP SWAP2 SWAP1 POP JUMP JUMPDEST PUSH1 0x0 PUSH2 0x4B19 DUP3 PUSH2 0x4B62 JUMP JUMPDEST SWAP1 POP SWAP2 SWAP1 POP JUMP JUMPDEST PUSH1 0x0 DUP2 ISZERO ISZERO SWAP1 POP SWAP2 SWAP1 POP JUMP JUMPDEST PUSH1 0x0 DUP2 SWAP1 POP SWAP2 SWAP1 POP JUMP JUMPDEST PUSH1 0x0 PUSH32 0xFFFFFFFF00000000000000000000000000000000000000000000000000000000 DUP3 AND SWAP1 POP SWAP2 SWAP1 POP JUMP JUMPDEST PUSH1 0x0 PUSH20 0xFFFFFFFFFFFFFFFFFFFFFFFFFFFFFFFFFFFFFFFF DUP3 AND SWAP1 POP SWAP2 SWAP1 POP JUMP JUMPDEST PUSH1 0x0 DUP2 SWAP1 POP SWAP2 SWAP1 POP JUMP JUMPDEST DUP3 DUP2 DUP4 CALLDATACOPY PUSH1 0x0 DUP4 DUP4 ADD MSTORE POP POP POP JUMP JUMPDEST PUSH1 0x0 JUMPDEST DUP4 DUP2 LT ISZERO PUSH2 0x4BB9 JUMPI DUP1 DUP3 ADD MLOAD DUP2 DUP5 ADD MSTORE PUSH1 0x20 DUP2 ADD SWAP1 POP PUSH2 0x4B9E JUMP JUMPDEST DUP4 DUP2 GT ISZERO PUSH2 0x4BC8 JUMPI PUSH1 0x0 DUP5 DUP5 ADD MSTORE JUMPDEST POP POP POP POP JUMP JUMPDEST PUSH1 0x0 PUSH2 0x4BD9 DUP3 PUSH2 0x4B82 JUMP JUMPDEST SWAP2 POP PUSH1 0x0 DUP3 EQ ISZERO PUSH2 0x4BED JUMPI PUSH2 0x4BEC PUSH2 0x4C5B JUMP JUMPDEST JUMPDEST PUSH1 0x1 DUP3 SUB SWAP1 POP SWAP2 SWAP1 POP JUMP JUMPDEST PUSH1 0x0 PUSH1 0x2 DUP3 DIV SWAP1 POP PUSH1 0x1 DUP3 AND DUP1 PUSH2 0x4C10 JUMPI PUSH1 0x7F DUP3 AND SWAP2 POP JUMPDEST PUSH1 0x20 DUP3 LT DUP2 EQ ISZERO PUSH2 0x4C24 JUMPI PUSH2 0x4C23 PUSH2 0x4CB9 JUMP JUMPDEST JUMPDEST POP SWAP2 SWAP1 POP JUMP JUMPDEST PUSH2 0x4C33 DUP3 PUSH2 0x4D89 JUMP JUMPDEST DUP2 ADD DUP2 DUP2 LT PUSH8 0xFFFFFFFFFFFFFFFF DUP3 GT OR ISZERO PUSH2 0x4C52 JUMPI PUSH2 0x4C51 PUSH2 0x4D46 JUMP JUMPDEST JUMPDEST DUP1 PUSH1 0x40 MSTORE POP POP POP JUMP JUMPDEST PUSH32 0x4E487B7100000000000000000000000000000000000000000000000000000000 PUSH1 0x0 MSTORE PUSH1 0x11 PUSH1 0x4 MSTORE PUSH1 0x24 PUSH1 0x0 REVERT JUMPDEST PUSH32 0x4E487B7100000000000000000000000000000000000000000000000000000000 PUSH1 0x0 MSTORE PUSH1 0x12 PUSH1 0x4 MSTORE PUSH1 0x24 PUSH1 0x0 REVERT JUMPDEST PUSH32 0x4E487B7100000000000000000000000000000000000000000000000000000000 PUSH1 0x0 MSTORE PUSH1 0x22 PUSH1 0x4 MSTORE PUSH1 0x24 PUSH1 0x0 REVERT JUMPDEST PUSH32 0x4E487B7100000000000000000000000000000000000000000000000000000000 PUSH1 0x0 MSTORE PUSH1 0x31 PUSH1 0x4 MSTORE PUSH1 0x24 PUSH1 0x0 REVERT JUMPDEST PUSH32 0x4E487B7100000000000000000000000000000000000000000000000000000000 PUSH1 0x0 MSTORE PUSH1 0x32 PUSH1 0x4 MSTORE PUSH1 0x24 PUSH1 0x0 REVERT JUMPDEST PUSH32 0x4E487B7100000000000000000000000000000000000000000000000000000000 PUSH1 0x0 MSTORE PUSH1 0x41 PUSH1 0x4 MSTORE PUSH1 0x24 PUSH1 0x0 REVERT JUMPDEST PUSH1 0x0 DUP1 REVERT JUMPDEST PUSH1 0x0 DUP1 REVERT JUMPDEST PUSH1 0x0 DUP1 REVERT JUMPDEST PUSH1 0x0 DUP1 REVERT JUMPDEST PUSH1 0x0 PUSH1 0x1F NOT PUSH1 0x1F DUP4 ADD AND SWAP1 POP SWAP2 SWAP1 POP JUMP JUMPDEST PUSH32 0x537472696E67733A20686578206C656E67746820696E73756666696369656E74 PUSH1 0x0 DUP3 ADD MSTORE POP JUMP JUMPDEST PUSH32 0x4E4F5420454E4F55474820524553455256455300000000000000000000000000 PUSH1 0x0 DUP3 ADD MSTORE POP JUMP JUMPDEST PUSH32 0x43414E4E4F54205245504159204D4F5245205448414E204F5745440000000000 PUSH1 0x0 DUP3 ADD MSTORE POP JUMP JUMPDEST PUSH32 0x6E6F74206B6565706572206F722061646D696E00000000000000000000000000 PUSH1 0x0 DUP3 ADD MSTORE POP JUMP JUMPDEST PUSH32 0x4E4F5420454E4F55474820434F4C4C41544552414C20494E2052455345525645 PUSH1 0x0 DUP3 ADD MSTORE POP JUMP JUMPDEST PUSH32 0x416464726573733A20696E73756666696369656E742062616C616E636520666F PUSH1 0x0 DUP3 ADD MSTORE PUSH32 0x722063616C6C0000000000000000000000000000000000000000000000000000 PUSH1 0x20 DUP3 ADD MSTORE POP JUMP JUMPDEST PUSH32 0x416D6F756E74206973207A65726F202121000000000000000000000000000000 PUSH1 0x0 DUP3 ADD MSTORE POP JUMP JUMPDEST PUSH32 0x5641554C54204E4F5420554E444552434F4C4C41544552414C495A4544000000 PUSH1 0x0 DUP3 ADD MSTORE POP JUMP JUMPDEST PUSH32 0x4E4F5420454E4F554748204445425420544F4B454E5320494E20524553455256 PUSH1 0x0 DUP3 ADD MSTORE PUSH32 0x4500000000000000000000000000000000000000000000000000000000000000 PUSH1 0x20 DUP3 ADD MSTORE POP JUMP JUMPDEST PUSH32 0x43414E4E4F54205749544844524157204D4F524520434F4C4C41544552414C00 PUSH1 0x0 DUP3 ADD MSTORE POP JUMP JUMPDEST PUSH32 0x6F7065726174696F6E206E6F7420616C6C6F7765640000000000000000000000 PUSH1 0x0 DUP3 ADD MSTORE POP JUMP JUMPDEST PUSH32 0x4953204E4F542042414E4B20464143544F5259204F574E455200000000000000 PUSH1 0x0 DUP3 ADD MSTORE POP JUMP JUMPDEST PUSH32 0x4E4F5420454E4F55474820434F4C4C41544552414C0000000000000000000000 PUSH1 0x0 DUP3 ADD MSTORE POP JUMP JUMPDEST PUSH32 0x496E697469616C697A61626C653A20636F6E747261637420697320616C726561 PUSH1 0x0 DUP3 ADD MSTORE PUSH32 0x647920696E697469616C697A6564000000000000000000000000000000000000 PUSH1 0x20 DUP3 ADD MSTORE POP JUMP JUMPDEST PUSH32 0x43414E4E4F5420554E444552434F4C4C41544552414C495A45205641554C5400 PUSH1 0x0 DUP3 ADD MSTORE POP JUMP JUMPDEST PUSH32 0x416464726573733A2063616C6C20746F206E6F6E2D636F6E7472616374000000 PUSH1 0x0 DUP3 ADD MSTORE POP JUMP JUMPDEST PUSH32 0x6E6F742070726963652075706461746572206F722061646D696E000000000000 PUSH1 0x0 DUP3 ADD MSTORE POP JUMP JUMPDEST PUSH32 0x416363657373436F6E74726F6C3A206163636F756E7420000000000000000000 PUSH1 0x0 DUP3 ADD MSTORE POP JUMP JUMPDEST PUSH32 0x5361666545524332303A204552433230206F7065726174696F6E20646964206E PUSH1 0x0 DUP3 ADD MSTORE PUSH32 0x6F74207375636365656400000000000000000000000000000000000000000000 PUSH1 0x20 DUP3 ADD MSTORE POP JUMP JUMPDEST PUSH32 0x2173657461626C65000000000000000000000000000000000000000000000000 PUSH1 0x0 DUP3 ADD MSTORE POP JUMP JUMPDEST PUSH32 0x206973206D697373696E6720726F6C6520000000000000000000000000000000 PUSH1 0x0 DUP3 ADD MSTORE POP JUMP JUMPDEST PUSH32 0x416363657373436F6E74726F6C3A2063616E206F6E6C792072656E6F756E6365 PUSH1 0x0 DUP3 ADD MSTORE PUSH32 0x20726F6C657320666F722073656C660000000000000000000000000000000000 PUSH1 0x20 DUP3 ADD MSTORE POP JUMP JUMPDEST PUSH2 0x51E7 DUP2 PUSH2 0x4AFC JUMP JUMPDEST DUP2 EQ PUSH2 0x51F2 JUMPI PUSH1 0x0 DUP1 REVERT JUMPDEST POP JUMP JUMPDEST PUSH2 0x51FE DUP2 PUSH2 0x4B0E JUMP JUMPDEST DUP2 EQ PUSH2 0x5209 JUMPI PUSH1 0x0 DUP1 REVERT JUMPDEST POP JUMP JUMPDEST PUSH2 0x5215 DUP2 PUSH2 0x4B20 JUMP JUMPDEST DUP2 EQ PUSH2 0x5220 JUMPI PUSH1 0x0 DUP1 REVERT JUMPDEST POP JUMP JUMPDEST PUSH2 0x522C DUP2 PUSH2 0x4B2C JUMP JUMPDEST DUP2 EQ PUSH2 0x5237 JUMPI PUSH1 0x0 DUP1 REVERT JUMPDEST POP JUMP JUMPDEST PUSH2 0x5243 DUP2 PUSH2 0x4B36 JUMP JUMPDEST DUP2 EQ PUSH2 0x524E JUMPI PUSH1 0x0 DUP1 REVERT JUMPDEST POP JUMP JUMPDEST PUSH2 0x525A DUP2 PUSH2 0x4B82 JUMP JUMPDEST DUP2 EQ PUSH2 0x5265 JUMPI PUSH1 0x0 DUP1 REVERT JUMPDEST POP JUMP INVALID LOG2 PUSH5 0x6970667358 0x22 SLT KECCAK256 CALLDATASIZE DUP2 0xA9 0xD4 0xD0 0xC2 MSTORE PUSH2 0xE3A9 0xCA 0xE4 0xAD KECCAK256 0xB8 0xAE CALLER SIGNEXTEND SUB 0xA8 PUSH15 0x49E03A909F38CBDAEB7E3364736F6C PUSH4 0x43000806 STOP CALLER "
    }
  }
}