{
  "abi": [
    {
      "inputs": [
        {
          "internalType": "address payable",
          "name": "oracleContract",
          "type": "address"
        }
      ],
      "stateMutability": "nonpayable",
      "type": "constructor"
    },
    {
      "anonymous": false,
      "inputs": [
        {
          "indexed": true,
          "internalType": "address",
          "name": "borrower",
          "type": "address"
        },
        {
          "indexed": false,
          "internalType": "uint256",
          "name": "debtAmount",
          "type": "uint256"
        }
      ],
      "name": "Liquidation",
      "type": "event"
    },
    {
      "anonymous": false,
      "inputs": [
        {
          "indexed": true,
          "internalType": "address",
          "name": "token",
          "type": "address"
        },
        {
          "indexed": false,
          "internalType": "uint256",
          "name": "price",
          "type": "uint256"
        }
      ],
      "name": "PriceUpdate",
      "type": "event"
    },
    {
      "anonymous": false,
      "inputs": [
        {
          "indexed": false,
          "internalType": "uint256",
          "name": "amount",
          "type": "uint256"
        }
      ],
      "name": "ReserveDeposit",
      "type": "event"
    },
    {
      "anonymous": false,
      "inputs": [
        {
          "indexed": true,
          "internalType": "address",
          "name": "token",
          "type": "address"
        },
        {
          "indexed": false,
          "internalType": "uint256",
          "name": "amount",
          "type": "uint256"
        }
      ],
      "name": "ReserveWithdraw",
      "type": "event"
    },
    {
      "anonymous": false,
      "inputs": [
        {
          "indexed": true,
          "internalType": "bytes32",
          "name": "role",
          "type": "bytes32"
        },
        {
          "indexed": true,
          "internalType": "bytes32",
          "name": "previousAdminRole",
          "type": "bytes32"
        },
        {
          "indexed": true,
          "internalType": "bytes32",
          "name": "newAdminRole",
          "type": "bytes32"
        }
      ],
      "name": "RoleAdminChanged",
      "type": "event"
    },
    {
      "anonymous": false,
      "inputs": [
        {
          "indexed": true,
          "internalType": "bytes32",
          "name": "role",
          "type": "bytes32"
        },
        {
          "indexed": true,
          "internalType": "address",
          "name": "account",
          "type": "address"
        },
        {
          "indexed": true,
          "internalType": "address",
          "name": "sender",
          "type": "address"
        }
      ],
      "name": "RoleGranted",
      "type": "event"
    },
    {
      "anonymous": false,
      "inputs": [
        {
          "indexed": true,
          "internalType": "bytes32",
          "name": "role",
          "type": "bytes32"
        },
        {
          "indexed": true,
          "internalType": "address",
          "name": "account",
          "type": "address"
        },
        {
          "indexed": true,
          "internalType": "address",
          "name": "sender",
          "type": "address"
        }
      ],
      "name": "RoleRevoked",
      "type": "event"
    },
    {
      "anonymous": false,
      "inputs": [
        {
          "indexed": true,
          "internalType": "address",
          "name": "borrower",
          "type": "address"
        },
        {
          "indexed": false,
          "internalType": "uint256",
          "name": "amount",
          "type": "uint256"
        }
      ],
      "name": "VaultBorrow",
      "type": "event"
    },
    {
      "anonymous": false,
      "inputs": [
        {
          "indexed": true,
          "internalType": "address",
          "name": "owner",
          "type": "address"
        },
        {
          "indexed": false,
          "internalType": "uint256",
          "name": "amount",
          "type": "uint256"
        }
      ],
      "name": "VaultDeposit",
      "type": "event"
    },
    {
      "anonymous": false,
      "inputs": [
        {
          "indexed": true,
          "internalType": "address",
          "name": "borrower",
          "type": "address"
        },
        {
          "indexed": false,
          "internalType": "uint256",
          "name": "amount",
          "type": "uint256"
        }
      ],
      "name": "VaultRepay",
      "type": "event"
    },
    {
      "anonymous": false,
      "inputs": [
        {
          "indexed": true,
          "internalType": "address",
          "name": "borrower",
          "type": "address"
        },
        {
          "indexed": false,
          "internalType": "uint256",
          "name": "amount",
          "type": "uint256"
        }
      ],
      "name": "VaultWithdraw",
      "type": "event"
    },
    {
      "inputs": [],
      "name": "DEFAULT_ADMIN_ROLE",
      "outputs": [
        {
          "internalType": "bytes32",
          "name": "",
          "type": "bytes32"
        }
      ],
      "stateMutability": "view",
      "type": "function"
    },
    {
      "inputs": [],
      "name": "KEEPER_ROLE",
      "outputs": [
        {
          "internalType": "bytes32",
          "name": "",
          "type": "bytes32"
        }
      ],
      "stateMutability": "view",
      "type": "function"
    },
    {
      "inputs": [],
      "name": "PRICE_UPDATER_ROLE",
      "outputs": [
        {
          "internalType": "bytes32",
          "name": "",
          "type": "bytes32"
        }
      ],
      "stateMutability": "view",
      "type": "function"
    },
    {
      "inputs": [
        {
          "internalType": "address",
          "name": "keeper",
          "type": "address"
        }
      ],
      "name": "addKeeper",
      "outputs": [],
      "stateMutability": "nonpayable",
      "type": "function"
    },
    {
      "inputs": [
        {
          "internalType": "address",
          "name": "updater",
          "type": "address"
        }
      ],
      "name": "addPriceUpdater",
      "outputs": [],
      "stateMutability": "nonpayable",
      "type": "function"
    },
    {
      "inputs": [],
      "name": "getBankFactoryOwner",
      "outputs": [
        {
          "internalType": "address",
          "name": "",
          "type": "address"
        }
      ],
      "stateMutability": "view",
      "type": "function"
    },
    {
      "inputs": [],
      "name": "getCollateralTokenAddress",
      "outputs": [
        {
          "internalType": "address",
          "name": "",
          "type": "address"
        }
      ],
      "stateMutability": "view",
      "type": "function"
    },
    {
      "inputs": [],
      "name": "getCollateralTokenLastUpdatedAt",
      "outputs": [
        {
          "internalType": "uint256",
          "name": "",
          "type": "uint256"
        }
      ],
      "stateMutability": "view",
      "type": "function"
    },
    {
      "inputs": [],
      "name": "getCollateralTokenPrice",
      "outputs": [
        {
          "internalType": "uint256",
          "name": "",
          "type": "uint256"
        }
      ],
      "stateMutability": "view",
      "type": "function"
    },
    {
      "inputs": [],
      "name": "getCollateralTokenPriceGranularity",
      "outputs": [
        {
          "internalType": "uint256",
          "name": "",
          "type": "uint256"
        }
      ],
      "stateMutability": "view",
      "type": "function"
    },
    {
      "inputs": [],
      "name": "getCollateralizationRatio",
      "outputs": [
        {
          "internalType": "uint256",
          "name": "",
          "type": "uint256"
        }
      ],
      "stateMutability": "view",
      "type": "function"
    },
    {
      "inputs": [
        {
          "internalType": "uint256",
          "name": "_requestId",
          "type": "uint256"
        }
      ],
      "name": "getCurrentValue",
      "outputs": [
        {
          "internalType": "bool",
          "name": "ifRetrieve",
          "type": "bool"
        },
        {
          "internalType": "uint256",
          "name": "value",
          "type": "uint256"
        },
        {
          "internalType": "uint256",
          "name": "_timestampRetrieved",
          "type": "uint256"
        }
      ],
      "stateMutability": "view",
      "type": "function"
    },
    {
      "inputs": [],
      "name": "getDebtTokenAddress",
      "outputs": [
        {
          "internalType": "address",
          "name": "",
          "type": "address"
        }
      ],
      "stateMutability": "view",
      "type": "function"
    },
    {
      "inputs": [],
      "name": "getDebtTokenLastUpdatedAt",
      "outputs": [
        {
          "internalType": "uint256",
          "name": "",
          "type": "uint256"
        }
      ],
      "stateMutability": "view",
      "type": "function"
    },
    {
      "inputs": [],
      "name": "getDebtTokenPrice",
      "outputs": [
        {
          "internalType": "uint256",
          "name": "",
          "type": "uint256"
        }
      ],
      "stateMutability": "view",
      "type": "function"
    },
    {
      "inputs": [],
      "name": "getDebtTokenPriceGranularity",
      "outputs": [
        {
          "internalType": "uint256",
          "name": "",
          "type": "uint256"
        }
      ],
      "stateMutability": "view",
      "type": "function"
    },
    {
      "inputs": [],
      "name": "getInterestRate",
      "outputs": [
        {
          "internalType": "uint256",
          "name": "",
          "type": "uint256"
        }
      ],
      "stateMutability": "view",
      "type": "function"
    },
    {
      "inputs": [],
      "name": "getLiquidationPenalty",
      "outputs": [
        {
          "internalType": "uint256",
          "name": "",
          "type": "uint256"
        }
      ],
      "stateMutability": "view",
      "type": "function"
    },
    {
      "inputs": [],
      "name": "getName",
      "outputs": [
        {
          "internalType": "string",
          "name": "",
          "type": "string"
        }
      ],
      "stateMutability": "view",
      "type": "function"
    },
    {
      "inputs": [],
      "name": "getOriginationFee",
      "outputs": [
        {
          "internalType": "uint256",
          "name": "",
          "type": "uint256"
        }
      ],
      "stateMutability": "view",
      "type": "function"
    },
    {
      "inputs": [],
      "name": "getReserveBalance",
      "outputs": [
        {
          "internalType": "uint256",
          "name": "",
          "type": "uint256"
        }
      ],
      "stateMutability": "view",
      "type": "function"
    },
    {
      "inputs": [],
      "name": "getReserveCollateralBalance",
      "outputs": [
        {
          "internalType": "uint256",
          "name": "",
          "type": "uint256"
        }
      ],
      "stateMutability": "view",
      "type": "function"
    },
    {
      "inputs": [
        {
          "internalType": "bytes32",
          "name": "role",
          "type": "bytes32"
        }
      ],
      "name": "getRoleAdmin",
      "outputs": [
        {
          "internalType": "bytes32",
          "name": "",
          "type": "bytes32"
        }
      ],
      "stateMutability": "view",
      "type": "function"
    },
    {
      "inputs": [
        {
          "internalType": "bytes32",
          "name": "role",
          "type": "bytes32"
        },
        {
          "internalType": "uint256",
          "name": "index",
          "type": "uint256"
        }
      ],
      "name": "getRoleMember",
      "outputs": [
        {
          "internalType": "address",
          "name": "",
          "type": "address"
        }
      ],
      "stateMutability": "view",
      "type": "function"
    },
    {
      "inputs": [
        {
          "internalType": "bytes32",
          "name": "role",
          "type": "bytes32"
        }
      ],
      "name": "getRoleMemberCount",
      "outputs": [
        {
          "internalType": "uint256",
          "name": "",
          "type": "uint256"
        }
      ],
      "stateMutability": "view",
      "type": "function"
    },
    {
      "inputs": [],
      "name": "getVaultCollateralAmount",
      "outputs": [
        {
          "internalType": "uint256",
          "name": "",
          "type": "uint256"
        }
      ],
      "stateMutability": "view",
      "type": "function"
    },
    {
      "inputs": [
        {
          "internalType": "address",
          "name": "vaultOwner",
          "type": "address"
        }
      ],
      "name": "getVaultCollateralizationRatio",
      "outputs": [
        {
          "internalType": "uint256",
          "name": "",
          "type": "uint256"
        }
      ],
      "stateMutability": "view",
      "type": "function"
    },
    {
      "inputs": [],
      "name": "getVaultDebtAmount",
      "outputs": [
        {
          "internalType": "uint256",
          "name": "",
          "type": "uint256"
        }
      ],
      "stateMutability": "view",
      "type": "function"
    },
    {
      "inputs": [],
      "name": "getVaultRepayAmount",
      "outputs": [
        {
          "internalType": "uint256",
          "name": "principal",
          "type": "uint256"
        }
      ],
      "stateMutability": "view",
      "type": "function"
    },
    {
      "inputs": [
        {
          "internalType": "bytes32",
          "name": "role",
          "type": "bytes32"
        },
        {
          "internalType": "address",
          "name": "account",
          "type": "address"
        }
      ],
      "name": "grantRole",
      "outputs": [],
      "stateMutability": "nonpayable",
      "type": "function"
    },
    {
      "inputs": [
        {
          "internalType": "bytes32",
          "name": "role",
          "type": "bytes32"
        },
        {
          "internalType": "address",
          "name": "account",
          "type": "address"
        }
      ],
      "name": "hasRole",
      "outputs": [
        {
          "internalType": "bool",
          "name": "",
          "type": "bool"
        }
      ],
      "stateMutability": "view",
      "type": "function"
    },
    {
      "inputs": [
        {
          "internalType": "address",
          "name": "creator",
          "type": "address"
        },
        {
          "internalType": "string",
          "name": "bankName",
          "type": "string"
        },
        {
          "internalType": "uint256",
          "name": "interestRate",
          "type": "uint256"
        },
        {
          "internalType": "uint256",
          "name": "originationFee",
          "type": "uint256"
        },
        {
          "internalType": "uint256",
          "name": "collateralizationRatio",
          "type": "uint256"
        },
        {
          "internalType": "uint256",
          "name": "liquidationPenalty",
          "type": "uint256"
        },
        {
          "internalType": "uint256",
          "name": "period",
          "type": "uint256"
        },
        {
          "internalType": "address",
          "name": "bankFactoryOwner",
          "type": "address"
        },
        {
          "internalType": "address payable",
          "name": "oracleContract",
          "type": "address"
        }
      ],
      "name": "init",
      "outputs": [],
      "stateMutability": "nonpayable",
      "type": "function"
    },
    {
      "inputs": [
        {
          "internalType": "address",
          "name": "vaultOwner",
          "type": "address"
        }
      ],
      "name": "liquidate",
      "outputs": [],
      "stateMutability": "nonpayable",
      "type": "function"
    },
    {
      "inputs": [
        {
          "internalType": "bytes32",
          "name": "role",
          "type": "bytes32"
        },
        {
          "internalType": "address",
          "name": "account",
          "type": "address"
        }
      ],
      "name": "renounceRole",
      "outputs": [],
      "stateMutability": "nonpayable",
      "type": "function"
    },
    {
      "inputs": [
        {
          "internalType": "uint256",
          "name": "amount",
          "type": "uint256"
        }
      ],
      "name": "reserveDeposit",
      "outputs": [],
      "stateMutability": "nonpayable",
      "type": "function"
    },
    {
      "inputs": [
        {
          "internalType": "uint256",
          "name": "amount",
          "type": "uint256"
        }
      ],
      "name": "reserveWithdraw",
      "outputs": [],
      "stateMutability": "nonpayable",
      "type": "function"
    },
    {
      "inputs": [
        {
          "internalType": "uint256",
          "name": "amount",
          "type": "uint256"
        }
      ],
      "name": "reserveWithdrawCollateral",
      "outputs": [],
      "stateMutability": "nonpayable",
      "type": "function"
    },
    {
      "inputs": [
        {
          "internalType": "address",
          "name": "oldKeeper",
          "type": "address"
        }
      ],
      "name": "revokeKeeper",
      "outputs": [],
      "stateMutability": "nonpayable",
      "type": "function"
    },
    {
      "inputs": [
        {
          "internalType": "address",
          "name": "oldUpdater",
          "type": "address"
        }
      ],
      "name": "revokePriceUpdater",
      "outputs": [],
      "stateMutability": "nonpayable",
      "type": "function"
    },
    {
      "inputs": [
        {
          "internalType": "bytes32",
          "name": "role",
          "type": "bytes32"
        },
        {
          "internalType": "address",
          "name": "account",
          "type": "address"
        }
      ],
      "name": "revokeRole",
      "outputs": [],
      "stateMutability": "nonpayable",
      "type": "function"
    },
    {
      "inputs": [
        {
          "internalType": "address",
          "name": "newOwner",
          "type": "address"
        }
      ],
      "name": "setBankFactoryOwner",
      "outputs": [],
      "stateMutability": "nonpayable",
      "type": "function"
    },
    {
      "inputs": [
        {
          "internalType": "address",
          "name": "collateralToken",
          "type": "address"
        },
        {
          "internalType": "uint256",
          "name": "collateralTokenTellorRequestId",
          "type": "uint256"
        },
        {
          "internalType": "uint256",
          "name": "collateralTokenPriceGranularity",
          "type": "uint256"
        },
        {
          "internalType": "uint256",
          "name": "collateralTokenPrice",
          "type": "uint256"
        }
      ],
      "name": "setCollateral",
      "outputs": [],
      "stateMutability": "nonpayable",
      "type": "function"
    },
    {
      "inputs": [
        {
          "internalType": "address",
          "name": "debtToken",
          "type": "address"
        },
        {
          "internalType": "uint256",
          "name": "debtTokenTellorRequestId",
          "type": "uint256"
        },
        {
          "internalType": "uint256",
          "name": "debtTokenPriceGranularity",
          "type": "uint256"
        },
        {
          "internalType": "uint256",
          "name": "debtTokenPrice",
          "type": "uint256"
        }
      ],
      "name": "setDebt",
      "outputs": [],
      "stateMutability": "nonpayable",
      "type": "function"
    },
    {
      "inputs": [
        {
          "internalType": "bytes4",
          "name": "interfaceId",
          "type": "bytes4"
        }
      ],
      "name": "supportsInterface",
      "outputs": [
        {
          "internalType": "bool",
          "name": "",
          "type": "bool"
        }
      ],
      "stateMutability": "view",
      "type": "function"
    },
    {
      "inputs": [],
      "name": "updateCollateralPrice",
      "outputs": [],
      "stateMutability": "nonpayable",
      "type": "function"
    },
    {
      "inputs": [],
      "name": "updateDebtPrice",
      "outputs": [],
      "stateMutability": "nonpayable",
      "type": "function"
    },
    {
      "inputs": [
        {
          "internalType": "uint256",
          "name": "amount",
          "type": "uint256"
        }
      ],
      "name": "vaultBorrow",
      "outputs": [],
      "stateMutability": "nonpayable",
      "type": "function"
    },
    {
      "inputs": [
        {
          "internalType": "uint256",
          "name": "amount",
          "type": "uint256"
        }
      ],
      "name": "vaultDeposit",
      "outputs": [],
      "stateMutability": "nonpayable",
      "type": "function"
    },
    {
      "inputs": [
        {
          "internalType": "uint256",
          "name": "amount",
          "type": "uint256"
        }
      ],
      "name": "vaultRepay",
      "outputs": [],
      "stateMutability": "nonpayable",
      "type": "function"
    },
    {
      "inputs": [
        {
          "internalType": "uint256",
          "name": "amount",
          "type": "uint256"
        }
      ],
      "name": "vaultWithdraw",
      "outputs": [],
      "stateMutability": "nonpayable",
      "type": "function"
    },
    {
      "inputs": [
        {
          "internalType": "address",
          "name": "",
          "type": "address"
        }
      ],
      "name": "vaults",
      "outputs": [
        {
          "internalType": "uint256",
          "name": "collateralAmount",
          "type": "uint256"
        },
        {
          "internalType": "uint256",
          "name": "debtAmount",
          "type": "uint256"
        },
        {
          "internalType": "uint256",
          "name": "createdAt",
          "type": "uint256"
        }
      ],
      "stateMutability": "view",
      "type": "function"
    }
  ],
  "evm": {
    "bytecode": {
      "linkReferences": {},
      "object": "60806040523480156200001157600080fd5b506040516200548a3803806200548a833981810160405281019062000037919062000099565b80600e60060160006101000a81548173ffffffffffffffffffffffffffffffffffffffff021916908373ffffffffffffffffffffffffffffffffffffffff160217905550506200011e565b600081519050620000938162000104565b92915050565b600060208284031215620000b257620000b1620000ff565b5b6000620000c28482850162000082565b91505092915050565b6000620000d882620000df565b9050919050565b600073ffffffffffffffffffffffffffffffffffffffff82169050919050565b600080fd5b6200010f81620000cb565b81146200011b57600080fd5b50565b61535c806200012e6000396000f3fe608060405234801561001057600080fd5b50600436106102f05760003560e01c8063685a58081161019d578063c14d0454116100e9578063e88456e7116100a2578063f91614eb1161007c578063f91614eb146108bf578063fb839dda146108dd578063fb8d8101146108f9578063fc2e39a614610917576102f0565b8063e88456e714610869578063ec5e5e7d14610885578063f327e324146108a1576102f0565b8063c14d0454146107a7578063c969ac06146107c3578063ca15c873146107e1578063cb765c1d14610811578063d267974c1461082f578063d547741f1461084d576102f0565b80639010d07c11610156578063a217fddf11610130578063a217fddf1461071b578063a622ee7c14610739578063a860988c1461076b578063b71d7a6e14610789576102f0565b80639010d07c1461069f57806391d14854146106cf5780639d867679146106ff576102f0565b8063685a5808146106035780636d483fe61461062157806370c12f1e1461063f5780637649b9381461065b57806385b4e5431461067757806386ef573814610681576102f0565b8063364bc15a1161025c57806345fd80e4116102155780634fd88951116101ef5780634fd889511461058f5780635257b566146105ab57806353388f44146105c95780635729b394146105e7576102f0565b806345fd80e41461054d578063494f4188146105575780634b272d9a14610573576102f0565b8063364bc15a1461048d57806336568abe146104ab57806338507ff5146104c75780633fcad964146104e35780634032b72b14610515578063435726c414610531576102f0565b80631e522b29116102ae5780631e522b29146103cb578063248a9ca3146103e95780632f2ff15d146104195780632f865568146104355780633149cb1414610451578063317c9e421461046f576102f0565b806291a446146102f557806301ffc9a71461031157806308dcd7c614610341578063151439501461035f57806317d7de7c1461037d5780631b9084b41461039b575b600080fd5b61030f600480360381019061030a9190614189565b610935565b005b61032b6004803603810190610326919061415c565b610a20565b6040516103389190614688565b60405180910390f35b610349610a9a565b6040516103569190614997565b60405180910390f35b610367610aa6565b6040516103749190614997565b60405180910390f35b610385610ab3565b60405161039291906146f5565b60405180910390f35b6103b560048036038101906103b09190613f08565b610b45565b6040516103c29190614997565b60405180910390f35b6103d3610c7e565b6040516103e09190614997565b60405180910390f35b61040360048036038101906103fe91906140af565b610c8b565b60405161041091906146da565b60405180910390f35b610433600480360381019061042e91906140dc565b610cab565b005b61044f600480360381019061044a9190613f08565b610cd4565b005b6104596110c7565b604051610466919061460d565b60405180910390f35b6104776110f1565b6040516104849190614997565b60405180910390f35b6104956110fe565b6040516104a291906146da565b60405180910390f35b6104c560048036038101906104c091906140dc565b611122565b005b6104e160048036038101906104dc919061401b565b6111a5565b005b6104fd60048036038101906104f89190614189565b6112da565b60405161050c939291906146a3565b60405180910390f35b61052f600480360381019061052a9190613f08565b6114f1565b005b61054b60048036038101906105469190614189565b61158e565b005b610555611747565b005b610571600480360381019061056c9190613f08565b611869565b005b61058d60048036038101906105889190613f08565b611896565b005b6105a960048036038101906105a49190614189565b61196a565b005b6105b3611e50565b6040516105c09190614997565b60405180910390f35b6105d1611e5d565b6040516105de9190614997565b60405180910390f35b61060160048036038101906105fc9190614189565b611e6a565b005b61060b611fc5565b6040516106189190614997565b60405180910390f35b61062961200f565b604051610636919061460d565b60405180910390f35b61065960048036038101906106549190613f35565b61203c565b005b61067560048036038101906106709190614189565b61223c565b005b61067f612546565b005b610689612668565b6040516106969190614997565b60405180910390f35b6106b960048036038101906106b4919061411c565b612675565b6040516106c6919061460d565b60405180910390f35b6106e960048036038101906106e491906140dc565b6126a4565b6040516106f69190614688565b60405180910390f35b61071960048036038101906107149190613f08565b61270f565b005b61072361273c565b60405161073091906146da565b60405180910390f35b610753600480360381019061074e9190613f08565b612743565b604051610762939291906149db565b60405180910390f35b61077361276d565b6040516107809190614997565b60405180910390f35b6107916127b7565b60405161079e9190614997565b60405180910390f35b6107c160048036038101906107bc919061401b565b6128cf565b005b6107cb612a03565b6040516107d89190614997565b60405180910390f35b6107fb60048036038101906107f691906140af565b612a10565b6040516108089190614997565b60405180910390f35b610819612a34565b6040516108269190614997565b60405180910390f35b610837612a41565b604051610844919061460d565b60405180910390f35b610867600480360381019061086291906140dc565b612a6e565b005b610883600480360381019061087e9190613f08565b612a97565b005b61089f600480360381019061089a9190614189565b612b34565b005b6108a9612d95565b6040516108b69190614997565b60405180910390f35b6108c7612da2565b6040516108d49190614997565b60405180910390f35b6108f760048036038101906108f29190614189565b612daf565b005b610901613083565b60405161090e91906146da565b60405180910390f35b61091f6130a7565b60405161092c9190614997565b60405180910390f35b60008111610978576040517f08c379a000000000000000000000000000000000000000000000000000000000815260040161096f906147d7565b60405180910390fd5b80600e600101600082825461098d9190614aa5565b925050819055506109e6333083600260000160009054906101000a900473ffffffffffffffffffffffffffffffffffffffff1673ffffffffffffffffffffffffffffffffffffffff166130b4909392919063ffffffff16565b7f71eb3e5df75ef293b81b4c7b38db51f7a6cec007d12529cb74d4eafb7fa5322281604051610a159190614997565b60405180910390a150565b60007f5a05180f000000000000000000000000000000000000000000000000000000007bffffffffffffffffffffffffffffffffffffffffffffffffffffffff1916827bffffffffffffffffffffffffffffffffffffffffffffffffffffffff19161480610a935750610a928261313d565b5b9050919050565b60006002800154905090565b6000600860010154905090565b606060008054610ac290614cb6565b80601f0160208091040260200160405190810160405280929190818152602001828054610aee90614cb6565b8015610b3b5780601f10610b1057610100808354040283529160200191610b3b565b820191906000526020600020905b815481529060010190602001808311610b1e57829003601f168201915b5050505050905090565b600080600160008473ffffffffffffffffffffffffffffffffffffffff1673ffffffffffffffffffffffffffffffffffffffff168152602001908152602001600020600101541415610b9a5760009050610c79565b6002800154600260010154600160008573ffffffffffffffffffffffffffffffffffffffff1673ffffffffffffffffffffffffffffffffffffffff16815260200190815260200160002060010154610bf29190614b2c565b610bfc9190614afb565b612710600860020154600860010154600160008773ffffffffffffffffffffffffffffffffffffffff1673ffffffffffffffffffffffffffffffffffffffff16815260200190815260200160002060000154610c589190614b2c565b610c629190614afb565b610c6c9190614b2c565b610c769190614afb565b90505b919050565b6000600e60050154905090565b600060166000838152602001908152602001600020600101549050919050565b610cb482610c8b565b610cc581610cc06131b7565b6131bf565b610ccf838361325c565b505050565b610cfe7ffc8737ab85eb45125971625a9ebdb75cc78e01d5c1fa80c4c6e5203f47bc4fab336126a4565b80610d125750610d116000801b336126a4565b5b610d51576040517f08c379a0000000000000000000000000000000000000000000000000000000008152600401610d4890614777565b60405180910390fd5b6064600e60040154610d639190614b2c565b610d6c82610b45565b10610dac576040517f08c379a0000000000000000000000000000000000000000000000000000000008152600401610da3906147f7565b60405180910390fd5b6000606480600e600501546064600160008773ffffffffffffffffffffffffffffffffffffffff1673ffffffffffffffffffffffffffffffffffffffff16815260200190815260200160002060010154610e069190614b2c565b610e109190614b2c565b610e1a9190614afb565b610e249190614afb565b600160008473ffffffffffffffffffffffffffffffffffffffff1673ffffffffffffffffffffffffffffffffffffffff16815260200190815260200160002060010154610e719190614aa5565b9050600060086001015460026001015483610e8c9190614b2c565b610e969190614afb565b9050600160008473ffffffffffffffffffffffffffffffffffffffff1673ffffffffffffffffffffffffffffffffffffffff16815260200190815260200160002060000154811115610f2857600160008473ffffffffffffffffffffffffffffffffffffffff1673ffffffffffffffffffffffffffffffffffffffff1681526020019081526020016000206000015490505b6000600a82610f379190614afb565b90508082610f459190614b86565b600e6000016000828254610f599190614aa5565b9250508190555081600160008673ffffffffffffffffffffffffffffffffffffffff1673ffffffffffffffffffffffffffffffffffffffff1681526020019081526020016000206000016000828254610fb29190614b86565b925050819055506000600160008673ffffffffffffffffffffffffffffffffffffffff1673ffffffffffffffffffffffffffffffffffffffff16815260200190815260200160002060010181905550611073601860029054906101000a900473ffffffffffffffffffffffffffffffffffffffff1682600860000160009054906101000a900473ffffffffffffffffffffffffffffffffffffffff1673ffffffffffffffffffffffffffffffffffffffff166132909092919063ffffffff16565b8373ffffffffffffffffffffffffffffffffffffffff167f6dd29d11f8d1bcdbd79da21bf92895417dcc2f8886b3db11c8a4ce00b73de9d0846040516110b99190614997565b60405180910390a250505050565b6000601860029054906101000a900473ffffffffffffffffffffffffffffffffffffffff16905090565b6000600860020154905090565b7ffc8737ab85eb45125971625a9ebdb75cc78e01d5c1fa80c4c6e5203f47bc4fab81565b61112a6131b7565b73ffffffffffffffffffffffffffffffffffffffff168173ffffffffffffffffffffffffffffffffffffffff1614611197576040517f08c379a000000000000000000000000000000000000000000000000000000000815260040161118e90614977565b60405180910390fd5b6111a18282613316565b5050565b600073ffffffffffffffffffffffffffffffffffffffff16600860000160009054906101000a900473ffffffffffffffffffffffffffffffffffffffff1673ffffffffffffffffffffffffffffffffffffffff161480156112335750600073ffffffffffffffffffffffffffffffffffffffff168473ffffffffffffffffffffffffffffffffffffffff1614155b611272576040517f08c379a000000000000000000000000000000000000000000000000000000000815260040161126990614957565b60405180910390fd5b83600860000160006101000a81548173ffffffffffffffffffffffffffffffffffffffff021916908373ffffffffffffffffffffffffffffffffffffffff16021790555080600860010181905550816008600201819055508260086003018190555050505050565b600080600080600e60060160009054906101000a900473ffffffffffffffffffffffffffffffffffffffff16905060008173ffffffffffffffffffffffffffffffffffffffff166346eee1c4876040518263ffffffff1660e01b81526004016113439190614997565b60206040518083038186803b15801561135b57600080fd5b505afa15801561136f573d6000803e3d6000fd5b505050506040513d601f19601f8201168201806040525081019061139391906141b6565b905060008273ffffffffffffffffffffffffffffffffffffffff166377fbb663886001856113c19190614b86565b6040518363ffffffff1660e01b81526004016113de9291906149b2565b60206040518083038186803b1580156113f657600080fd5b505afa15801561140a573d6000803e3d6000fd5b505050506040513d601f19601f8201168201806040525081019061142e91906141b6565b905060008373ffffffffffffffffffffffffffffffffffffffff166393fa491589846040518363ffffffff1660e01b815260040161146d9291906149b2565b60206040518083038186803b15801561148557600080fd5b505afa158015611499573d6000803e3d6000fd5b505050506040513d601f19601f820116820180604052508101906114bd91906141b6565b905060008111156114db5760018183965096509650505050506114ea565b60008083965096509650505050505b9193909250565b600073ffffffffffffffffffffffffffffffffffffffff168173ffffffffffffffffffffffffffffffffffffffff161415611561576040517f08c379a000000000000000000000000000000000000000000000000000000000815260040161155890614857565b60405180910390fd5b61158b7ffc8737ab85eb45125971625a9ebdb75cc78e01d5c1fa80c4c6e5203f47bc4fab82610cab565b50565b80600e6000015410156115d6576040517f08c379a00000000000000000000000000000000000000000000000000000000081526004016115cd90614797565b60405180910390fd5b600060c8826115e59190614afb565b905081600e60000160008282546115fc9190614b86565b92505081905550600860000160009054906101000a900473ffffffffffffffffffffffffffffffffffffffff1673ffffffffffffffffffffffffffffffffffffffff167f0529afc4538720fe0b3eadc40486369ab962002d72fead1387b300c66073e7bf8360405161166e9190614997565b60405180910390a26116d13382846116869190614b86565b600860000160009054906101000a900473ffffffffffffffffffffffffffffffffffffffff1673ffffffffffffffffffffffffffffffffffffffff166132909092919063ffffffff16565b611743601860029054906101000a900473ffffffffffffffffffffffffffffffffffffffff1682600860000160009054906101000a900473ffffffffffffffffffffffffffffffffffffffff1673ffffffffffffffffffffffffffffffffffffffff166132909092919063ffffffff16565b5050565b6117717fd96ba01d6560c2ab35f2940dd8d70c5f5fe06236c72674237120515918198fb0336126a4565b8061178557506117846000801b336126a4565b5b6117c4576040517f08c379a00000000000000000000000000000000000000000000000000000000081526004016117bb90614917565b60405180910390fd5b6117d26002600301546112da565b9091506002600101600060026005016000849190505583919050555050600260000160009054906101000a900473ffffffffffffffffffffffffffffffffffffffff1673ffffffffffffffffffffffffffffffffffffffff167f64e6e7bd72b853c4e62fd6ceaca05a104700c70a4cb567c75c7f2242ba7f037c60026001015460405161185f9190614997565b60405180910390a2565b6118937ffc8737ab85eb45125971625a9ebdb75cc78e01d5c1fa80c4c6e5203f47bc4fab82612a6e565b50565b3373ffffffffffffffffffffffffffffffffffffffff16601860029054906101000a900473ffffffffffffffffffffffffffffffffffffffff1673ffffffffffffffffffffffffffffffffffffffff1614611926576040517f08c379a000000000000000000000000000000000000000000000000000000000815260040161191d90614877565b60405180910390fd5b80601860026101000a81548173ffffffffffffffffffffffffffffffffffffffff021916908373ffffffffffffffffffffffffffffffffffffffff16021790555050565b6000600160003373ffffffffffffffffffffffffffffffffffffffff1673ffffffffffffffffffffffffffffffffffffffff1681526020019081526020016000206001015414611a03576119bc6127b7565b600160003373ffffffffffffffffffffffffffffffffffffffff1673ffffffffffffffffffffffffffffffffffffffff168152602001908152602001600020600101819055505b60006064600e60040154600260010154600860010154600160003373ffffffffffffffffffffffffffffffffffffffff1673ffffffffffffffffffffffffffffffffffffffff16815260200190815260200160002060000154611a669190614b2c565b611a709190614afb565b611a7a9190614afb565b611a849190614b2c565b9050600280015481611a969190614b2c565b905060086002015481611aa99190614afb565b9050600160003373ffffffffffffffffffffffffffffffffffffffff1673ffffffffffffffffffffffffffffffffffffffff1681526020019081526020016000206001015481611af99190614b86565b9050612710600e6003015483611b0f9190614b2c565b611b199190614afb565b82611b249190614aa5565b600160003373ffffffffffffffffffffffffffffffffffffffff1673ffffffffffffffffffffffffffffffffffffffff1681526020019081526020016000206001016000828254611b759190614aa5565b9250508190555080600160003373ffffffffffffffffffffffffffffffffffffffff1673ffffffffffffffffffffffffffffffffffffffff1681526020019081526020016000206001015410611c00576040517f08c379a0000000000000000000000000000000000000000000000000000000008152600401611bf790614897565b60405180910390fd5b600260000160009054906101000a900473ffffffffffffffffffffffffffffffffffffffff1673ffffffffffffffffffffffffffffffffffffffff166370a08231306040518263ffffffff1660e01b8152600401611c5e919061460d565b60206040518083038186803b158015611c7657600080fd5b505afa158015611c8a573d6000803e3d6000fd5b505050506040513d601f19601f82011682018060405250810190611cae91906141b6565b821115611cf0576040517f08c379a0000000000000000000000000000000000000000000000000000000008152600401611ce790614737565b60405180910390fd5b600e60070154600160003373ffffffffffffffffffffffffffffffffffffffff1673ffffffffffffffffffffffffffffffffffffffff1681526020019081526020016000206002015442611d449190614b86565b1115611d925742600160003373ffffffffffffffffffffffffffffffffffffffff1673ffffffffffffffffffffffffffffffffffffffff168152602001908152602001600020600201819055505b81600e6001016000828254611da79190614b86565b92505081905550611dfe3383600260000160009054906101000a900473ffffffffffffffffffffffffffffffffffffffff1673ffffffffffffffffffffffffffffffffffffffff166132909092919063ffffffff16565b3373ffffffffffffffffffffffffffffffffffffffff167f0232862a021d33ea4a70f5d509b754f0f6986aaa0ffdd5c7db4910422afc768a83604051611e449190614997565b60405180910390a25050565b6000600e60020154905090565b6000600860050154905090565b60008111611ead576040517f08c379a0000000000000000000000000000000000000000000000000000000008152600401611ea4906147d7565b60405180910390fd5b80600160003373ffffffffffffffffffffffffffffffffffffffff1673ffffffffffffffffffffffffffffffffffffffff1681526020019081526020016000206000016000828254611eff9190614aa5565b9250508190555080600e6000016000828254611f1b9190614aa5565b92505081905550611f74333083600860000160009054906101000a900473ffffffffffffffffffffffffffffffffffffffff1673ffffffffffffffffffffffffffffffffffffffff166130b4909392919063ffffffff16565b3373ffffffffffffffffffffffffffffffffffffffff167f89d28cf06bdb2ee1b92cd046d58450042ad113e9f4cdabfc4d43e7c5557758d782604051611fba9190614997565b60405180910390a250565b6000600160003373ffffffffffffffffffffffffffffffffffffffff1673ffffffffffffffffffffffffffffffffffffffff16815260200190815260200160002060010154905090565b6000600860000160009054906101000a900473ffffffffffffffffffffffffffffffffffffffff16905090565b601860019054906101000a900460ff16806120645750601860009054906101000a900460ff16155b6120a3576040517f08c379a000000000000000000000000000000000000000000000000000000000815260040161209a906148b7565b60405180910390fd5b6000601860019054906101000a900460ff1615905080156120f5576001601860016101000a81548160ff0219169083151502179055506001601860006101000a81548160ff0219169083151502179055505b6121336040518060400160405280601b81526020017f42616e6b2e696e6974282920686173206265656e2063616c6c6564000000000081525061334a565b6121406000801b8b6133e3565b87600e6002018190555086600e6003018190555085600e6004018190555081600e60060160006101000a81548173ffffffffffffffffffffffffffffffffffffffff021916908373ffffffffffffffffffffffffffffffffffffffff16021790555084600e6005018190555083600e6007018190555082601860026101000a81548173ffffffffffffffffffffffffffffffffffffffff021916908373ffffffffffffffffffffffffffffffffffffffff160217905550886000908051906020019061220d929190613d62565b508015612230576000601860016101000a81548160ff0219169083151502179055505b50505050505050505050565b6000811161227f576040517f08c379a0000000000000000000000000000000000000000000000000000000008152600401612276906147d7565b60405180910390fd5b6122876127b7565b600160003373ffffffffffffffffffffffffffffffffffffffff1673ffffffffffffffffffffffffffffffffffffffff16815260200190815260200160002060010181905550600160003373ffffffffffffffffffffffffffffffffffffffff1673ffffffffffffffffffffffffffffffffffffffff16815260200190815260200160002060010154811115612352576040517f08c379a000000000000000000000000000000000000000000000000000000000815260040161234990614757565b60405180910390fd5b80600160003373ffffffffffffffffffffffffffffffffffffffff1673ffffffffffffffffffffffffffffffffffffffff16815260200190815260200160002060010160008282546123a49190614b86565b9250508190555080600e60010160008282546123c09190614aa5565b925050819055506000600e60070154600160003373ffffffffffffffffffffffffffffffffffffffff1673ffffffffffffffffffffffffffffffffffffffff1681526020019081526020016000206002015461241c9190614afb565b600e600701544261242d9190614afb565b6124379190614b86565b9050600e600701548161244a9190614b2c565b600160003373ffffffffffffffffffffffffffffffffffffffff1673ffffffffffffffffffffffffffffffffffffffff168152602001908152602001600020600201600082825461249b9190614aa5565b925050819055506124f4333084600260000160009054906101000a900473ffffffffffffffffffffffffffffffffffffffff1673ffffffffffffffffffffffffffffffffffffffff166130b4909392919063ffffffff16565b3373ffffffffffffffffffffffffffffffffffffffff167f34d657cd4dec79d6716ce5ac15b81de5751705030cbef01b43b15eae44cbc1128360405161253a9190614997565b60405180910390a25050565b6125707fd96ba01d6560c2ab35f2940dd8d70c5f5fe06236c72674237120515918198fb0336126a4565b8061258457506125836000801b336126a4565b5b6125c3576040517f08c379a00000000000000000000000000000000000000000000000000000000081526004016125ba90614917565b60405180910390fd5b6125d16008600301546112da565b9091506008600101600060086005016000849190505583919050555050600860000160009054906101000a900473ffffffffffffffffffffffffffffffffffffffff1673ffffffffffffffffffffffffffffffffffffffff167f64e6e7bd72b853c4e62fd6ceaca05a104700c70a4cb567c75c7f2242ba7f037c60086001015460405161265e9190614997565b60405180910390a2565b6000600e60040154905090565b600061269c82601760008681526020019081526020016000206133f190919063ffffffff16565b905092915050565b60006016600084815260200190815260200160002060000160008373ffffffffffffffffffffffffffffffffffffffff1673ffffffffffffffffffffffffffffffffffffffff16815260200190815260200160002060009054906101000a900460ff16905092915050565b6127397fd96ba01d6560c2ab35f2940dd8d70c5f5fe06236c72674237120515918198fb082612a6e565b50565b6000801b81565b60016020528060005260406000206000915090508060000154908060010154908060020154905083565b6000600160003373ffffffffffffffffffffffffffffffffffffffff1673ffffffffffffffffffffffffffffffffffffffff16815260200190815260200160002060000154905090565b6000600160003373ffffffffffffffffffffffffffffffffffffffff1673ffffffffffffffffffffffffffffffffffffffff1681526020019081526020016000206001015490506000600e600701546301e133806128159190614afb565b90506000600e60070154600160003373ffffffffffffffffffffffffffffffffffffffff1673ffffffffffffffffffffffffffffffffffffffff1681526020019081526020016000206002015461286c9190614afb565b600e600701544261287d9190614afb565b6128879190614b86565b90508082612710600e600201548661289f9190614b2c565b6128a99190614afb565b6128b39190614afb565b6128bd9190614b2c565b836128c89190614aa5565b9250505090565b600073ffffffffffffffffffffffffffffffffffffffff16600260000160009054906101000a900473ffffffffffffffffffffffffffffffffffffffff1673ffffffffffffffffffffffffffffffffffffffff1614801561295d5750600073ffffffffffffffffffffffffffffffffffffffff168473ffffffffffffffffffffffffffffffffffffffff1614155b61299c576040517f08c379a000000000000000000000000000000000000000000000000000000000815260040161299390614957565b60405180910390fd5b83600260000160006101000a81548173ffffffffffffffffffffffffffffffffffffffff021916908373ffffffffffffffffffffffffffffffffffffffff160217905550806002600101819055508160028001819055508260026003018190555050505050565b6000600260010154905090565b6000612a2d6017600084815260200190815260200160002061340b565b9050919050565b6000600e60010154905090565b6000600260000160009054906101000a900473ffffffffffffffffffffffffffffffffffffffff16905090565b612a7782610c8b565b612a8881612a836131b7565b6131bf565b612a928383613316565b505050565b600073ffffffffffffffffffffffffffffffffffffffff168173ffffffffffffffffffffffffffffffffffffffff161415612b07576040517f08c379a0000000000000000000000000000000000000000000000000000000008152600401612afe90614857565b60405180910390fd5b612b317fd96ba01d6560c2ab35f2940dd8d70c5f5fe06236c72674237120515918198fb082610cab565b50565b80600260000160009054906101000a900473ffffffffffffffffffffffffffffffffffffffff1673ffffffffffffffffffffffffffffffffffffffff166370a08231306040518263ffffffff1660e01b8152600401612b93919061460d565b60206040518083038186803b158015612bab57600080fd5b505afa158015612bbf573d6000803e3d6000fd5b505050506040513d601f19601f82011682018060405250810190612be391906141b6565b1015612c24576040517f08c379a0000000000000000000000000000000000000000000000000000000008152600401612c1b90614817565b60405180910390fd5b600060c882612c339190614afb565b905081600e6001016000828254612c4a9190614b86565b92505081905550612cac338284612c619190614b86565b600260000160009054906101000a900473ffffffffffffffffffffffffffffffffffffffff1673ffffffffffffffffffffffffffffffffffffffff166132909092919063ffffffff16565b612d1e601860029054906101000a900473ffffffffffffffffffffffffffffffffffffffff1682600260000160009054906101000a900473ffffffffffffffffffffffffffffffffffffffff1673ffffffffffffffffffffffffffffffffffffffff166132909092919063ffffffff16565b600260000160009054906101000a900473ffffffffffffffffffffffffffffffffffffffff1673ffffffffffffffffffffffffffffffffffffffff167f0529afc4538720fe0b3eadc40486369ab962002d72fead1387b300c66073e7bf83604051612d899190614997565b60405180910390a25050565b6000600260050154905090565b6000600e60000154905090565b600160003373ffffffffffffffffffffffffffffffffffffffff1673ffffffffffffffffffffffffffffffffffffffff16815260200190815260200160002060000154811115612e34576040517f08c379a0000000000000000000000000000000000000000000000000000000008152600401612e2b90614837565b60405180910390fd5b60006064600e6004015460026001015460086001015485600160003373ffffffffffffffffffffffffffffffffffffffff1673ffffffffffffffffffffffffffffffffffffffff16815260200190815260200160002060000154612e989190614b86565b612ea29190614b2c565b612eac9190614afb565b612eb69190614afb565b612ec09190614b2c565b9050600280015481612ed29190614b2c565b905060086002015481612ee59190614afb565b905080600160003373ffffffffffffffffffffffffffffffffffffffff1673ffffffffffffffffffffffffffffffffffffffff168152602001908152602001600020600101541115612f6c576040517f08c379a0000000000000000000000000000000000000000000000000000000008152600401612f63906148d7565b60405180910390fd5b81600160003373ffffffffffffffffffffffffffffffffffffffff1673ffffffffffffffffffffffffffffffffffffffff1681526020019081526020016000206000016000828254612fbe9190614b86565b9250508190555081600e6000016000828254612fda9190614b86565b925050819055506130313383600860000160009054906101000a900473ffffffffffffffffffffffffffffffffffffffff1673ffffffffffffffffffffffffffffffffffffffff166132909092919063ffffffff16565b3373ffffffffffffffffffffffffffffffffffffffff167f0ac60fbf53b67f5a6a0c8031dd9d1610a06f01669b1a8b9af98f3a6a477e8d7c836040516130779190614997565b60405180910390a25050565b7fd96ba01d6560c2ab35f2940dd8d70c5f5fe06236c72674237120515918198fb081565b6000600e60030154905090565b613137846323b872dd60e01b8585856040516024016130d593929190614628565b604051602081830303815290604052907bffffffffffffffffffffffffffffffffffffffffffffffffffffffff19166020820180517bffffffffffffffffffffffffffffffffffffffffffffffffffffffff8381831617835250505050613420565b50505050565b60007f7965db0b000000000000000000000000000000000000000000000000000000007bffffffffffffffffffffffffffffffffffffffffffffffffffffffff1916827bffffffffffffffffffffffffffffffffffffffffffffffffffffffff191614806131b057506131af826134e7565b5b9050919050565b600033905090565b6131c982826126a4565b613258576131ee8173ffffffffffffffffffffffffffffffffffffffff166014613551565b6131fc8360001c6020613551565b60405160200161320d9291906145d3565b6040516020818303038152906040526040517f08c379a000000000000000000000000000000000000000000000000000000000815260040161324f91906146f5565b60405180910390fd5b5050565b613266828261378d565b61328b816017600085815260200190815260200160002061386e90919063ffffffff16565b505050565b6133118363a9059cbb60e01b84846040516024016132af92919061465f565b604051602081830303815290604052907bffffffffffffffffffffffffffffffffffffffffffffffffffffffff19166020820180517bffffffffffffffffffffffffffffffffffffffffffffffffffffffff8381831617835250505050613420565b505050565b613320828261389e565b613345816017600085815260200190815260200160002061398090919063ffffffff16565b505050565b6133e08160405160240161335e91906146f5565b6040516020818303038152906040527f41304fac000000000000000000000000000000000000000000000000000000007bffffffffffffffffffffffffffffffffffffffffffffffffffffffff19166020820180517bffffffffffffffffffffffffffffffffffffffffffffffffffffffff83818316178352505050506139b0565b50565b6133ed828261325c565b5050565b600061340083600001836139d9565b60001c905092915050565b600061341982600001613a04565b9050919050565b6000613482826040518060400160405280602081526020017f5361666545524332303a206c6f772d6c6576656c2063616c6c206661696c65648152508573ffffffffffffffffffffffffffffffffffffffff16613a159092919063ffffffff16565b90506000815111156134e257808060200190518101906134a29190614082565b6134e1576040517f08c379a00000000000000000000000000000000000000000000000000000000081526004016134d890614937565b60405180910390fd5b5b505050565b60007f01ffc9a7000000000000000000000000000000000000000000000000000000007bffffffffffffffffffffffffffffffffffffffffffffffffffffffff1916827bffffffffffffffffffffffffffffffffffffffffffffffffffffffff1916149050919050565b6060600060028360026135649190614b2c565b61356e9190614aa5565b67ffffffffffffffff81111561358757613586614e04565b5b6040519080825280601f01601f1916602001820160405280156135b95781602001600182028036833780820191505090505b5090507f3000000000000000000000000000000000000000000000000000000000000000816000815181106135f1576135f0614dd5565b5b60200101907effffffffffffffffffffffffffffffffffffffffffffffffffffffffffffff1916908160001a9053507f78000000000000000000000000000000000000000000000000000000000000008160018151811061365557613654614dd5565b5b60200101907effffffffffffffffffffffffffffffffffffffffffffffffffffffffffffff1916908160001a905350600060018460026136959190614b2c565b61369f9190614aa5565b90505b600181111561373f577f3031323334353637383961626364656600000000000000000000000000000000600f8616601081106136e1576136e0614dd5565b5b1a60f81b8282815181106136f8576136f7614dd5565b5b60200101907effffffffffffffffffffffffffffffffffffffffffffffffffffffffffffff1916908160001a905350600485901c94508061373890614c8c565b90506136a2565b5060008414613783576040517f08c379a000000000000000000000000000000000000000000000000000000000815260040161377a90614717565b60405180910390fd5b8091505092915050565b61379782826126a4565b61386a5760016016600084815260200190815260200160002060000160008373ffffffffffffffffffffffffffffffffffffffff1673ffffffffffffffffffffffffffffffffffffffff16815260200190815260200160002060006101000a81548160ff02191690831515021790555061380f6131b7565b73ffffffffffffffffffffffffffffffffffffffff168173ffffffffffffffffffffffffffffffffffffffff16837f2f8788117e7eff1d82e926ec794901d17c78024a50270940304540a733656f0d60405160405180910390a45b5050565b6000613896836000018373ffffffffffffffffffffffffffffffffffffffff1660001b613a2d565b905092915050565b6138a882826126a4565b1561397c5760006016600084815260200190815260200160002060000160008373ffffffffffffffffffffffffffffffffffffffff1673ffffffffffffffffffffffffffffffffffffffff16815260200190815260200160002060006101000a81548160ff0219169083151502179055506139216131b7565b73ffffffffffffffffffffffffffffffffffffffff168173ffffffffffffffffffffffffffffffffffffffff16837ff6391f5c32d9c69d2a47ea670b442974b53935d1edc7fd64eb21e047a839171b60405160405180910390a45b5050565b60006139a8836000018373ffffffffffffffffffffffffffffffffffffffff1660001b613a9d565b905092915050565b60008151905060006a636f6e736f6c652e6c6f679050602083016000808483855afa5050505050565b60008260000182815481106139f1576139f0614dd5565b5b9060005260206000200154905092915050565b600081600001805490509050919050565b6060613a248484600085613bb1565b90509392505050565b6000613a398383613cc5565b613a92578260000182908060018154018082558091505060019003906000526020600020016000909190919091505582600001805490508360010160008481526020019081526020016000208190555060019050613a97565b600090505b92915050565b60008083600101600084815260200190815260200160002054905060008114613ba5576000600182613acf9190614b86565b9050600060018660000180549050613ae79190614b86565b9050818114613b56576000866000018281548110613b0857613b07614dd5565b5b9060005260206000200154905080876000018481548110613b2c57613b2b614dd5565b5b90600052602060002001819055508387600101600083815260200190815260200160002081905550505b85600001805480613b6a57613b69614da6565b5b600190038181906000526020600020016000905590558560010160008681526020019081526020016000206000905560019350505050613bab565b60009150505b92915050565b606082471015613bf6576040517f08c379a0000000000000000000000000000000000000000000000000000000008152600401613bed906147b7565b60405180910390fd5b613bff85613ce8565b613c3e576040517f08c379a0000000000000000000000000000000000000000000000000000000008152600401613c35906148f7565b60405180910390fd5b6000808673ffffffffffffffffffffffffffffffffffffffff168587604051613c6791906145bc565b60006040518083038185875af1925050503d8060008114613ca4576040519150601f19603f3d011682016040523d82523d6000602084013e613ca9565b606091505b5091509150613cb9828286613cfb565b92505050949350505050565b600080836001016000848152602001908152602001600020541415905092915050565b600080823b905060008111915050919050565b60608315613d0b57829050613d5b565b600083511115613d1e5782518084602001fd5b816040517f08c379a0000000000000000000000000000000000000000000000000000000008152600401613d5291906146f5565b60405180910390fd5b9392505050565b828054613d6e90614cb6565b90600052602060002090601f016020900481019282613d905760008555613dd7565b82601f10613da957805160ff1916838001178555613dd7565b82800160010185558215613dd7579182015b82811115613dd6578251825591602001919060010190613dbb565b5b509050613de49190613de8565b5090565b5b80821115613e01576000816000905550600101613de9565b5090565b6000613e18613e1384614a37565b614a12565b905082815260208101848484011115613e3457613e33614e38565b5b613e3f848285614c4a565b509392505050565b600081359050613e568161529c565b92915050565b600081359050613e6b816152b3565b92915050565b600081519050613e80816152ca565b92915050565b600081359050613e95816152e1565b92915050565b600081359050613eaa816152f8565b92915050565b600082601f830112613ec557613ec4614e33565b5b8135613ed5848260208601613e05565b91505092915050565b600081359050613eed8161530f565b92915050565b600081519050613f028161530f565b92915050565b600060208284031215613f1e57613f1d614e42565b5b6000613f2c84828501613e47565b91505092915050565b60008060008060008060008060006101208a8c031215613f5857613f57614e42565b5b6000613f668c828d01613e47565b99505060208a013567ffffffffffffffff811115613f8757613f86614e3d565b5b613f938c828d01613eb0565b9850506040613fa48c828d01613ede565b9750506060613fb58c828d01613ede565b9650506080613fc68c828d01613ede565b95505060a0613fd78c828d01613ede565b94505060c0613fe88c828d01613ede565b93505060e0613ff98c828d01613e47565b92505061010061400b8c828d01613e5c565b9150509295985092959850929598565b6000806000806080858703121561403557614034614e42565b5b600061404387828801613e47565b945050602061405487828801613ede565b935050604061406587828801613ede565b925050606061407687828801613ede565b91505092959194509250565b60006020828403121561409857614097614e42565b5b60006140a684828501613e71565b91505092915050565b6000602082840312156140c5576140c4614e42565b5b60006140d384828501613e86565b91505092915050565b600080604083850312156140f3576140f2614e42565b5b600061410185828601613e86565b925050602061411285828601613e47565b9150509250929050565b6000806040838503121561413357614132614e42565b5b600061414185828601613e86565b925050602061415285828601613ede565b9150509250929050565b60006020828403121561417257614171614e42565b5b600061418084828501613e9b565b91505092915050565b60006020828403121561419f5761419e614e42565b5b60006141ad84828501613ede565b91505092915050565b6000602082840312156141cc576141cb614e42565b5b60006141da84828501613ef3565b91505092915050565b6141ec81614bba565b82525050565b6141fb81614bde565b82525050565b61420a81614bea565b82525050565b600061421b82614a68565b6142258185614a7e565b9350614235818560208601614c59565b80840191505092915050565b600061424c82614a73565b6142568185614a89565b9350614266818560208601614c59565b61426f81614e47565b840191505092915050565b600061428582614a73565b61428f8185614a9a565b935061429f818560208601614c59565b80840191505092915050565b60006142b8602083614a89565b91506142c382614e58565b602082019050919050565b60006142db601383614a89565b91506142e682614e81565b602082019050919050565b60006142fe601b83614a89565b915061430982614eaa565b602082019050919050565b6000614321601383614a89565b915061432c82614ed3565b602082019050919050565b6000614344602083614a89565b915061434f82614efc565b602082019050919050565b6000614367602683614a89565b915061437282614f25565b604082019050919050565b600061438a601183614a89565b915061439582614f74565b602082019050919050565b60006143ad601d83614a89565b91506143b882614f9d565b602082019050919050565b60006143d0602183614a89565b91506143db82614fc6565b604082019050919050565b60006143f3601f83614a89565b91506143fe82615015565b602082019050919050565b6000614416601583614a89565b91506144218261503e565b602082019050919050565b6000614439601983614a89565b915061444482615067565b602082019050919050565b600061445c601583614a89565b915061446782615090565b602082019050919050565b600061447f602e83614a89565b915061448a826150b9565b604082019050919050565b60006144a2601f83614a89565b91506144ad82615108565b602082019050919050565b60006144c5601d83614a89565b91506144d082615131565b602082019050919050565b60006144e8601a83614a89565b91506144f38261515a565b602082019050919050565b600061450b601783614a9a565b915061451682615183565b601782019050919050565b600061452e602a83614a89565b9150614539826151ac565b604082019050919050565b6000614551600883614a89565b915061455c826151fb565b602082019050919050565b6000614574601183614a9a565b915061457f82615224565b601182019050919050565b6000614597602f83614a89565b91506145a28261524d565b604082019050919050565b6145b681614c40565b82525050565b60006145c88284614210565b915081905092915050565b60006145de826144fe565b91506145ea828561427a565b91506145f582614567565b9150614601828461427a565b91508190509392505050565b600060208201905061462260008301846141e3565b92915050565b600060608201905061463d60008301866141e3565b61464a60208301856141e3565b61465760408301846145ad565b949350505050565b600060408201905061467460008301856141e3565b61468160208301846145ad565b9392505050565b600060208201905061469d60008301846141f2565b92915050565b60006060820190506146b860008301866141f2565b6146c560208301856145ad565b6146d260408301846145ad565b949350505050565b60006020820190506146ef6000830184614201565b92915050565b6000602082019050818103600083015261470f8184614241565b905092915050565b60006020820190508181036000830152614730816142ab565b9050919050565b60006020820190508181036000830152614750816142ce565b9050919050565b60006020820190508181036000830152614770816142f1565b9050919050565b6000602082019050818103600083015261479081614314565b9050919050565b600060208201905081810360008301526147b081614337565b9050919050565b600060208201905081810360008301526147d08161435a565b9050919050565b600060208201905081810360008301526147f08161437d565b9050919050565b60006020820190508181036000830152614810816143a0565b9050919050565b60006020820190508181036000830152614830816143c3565b9050919050565b60006020820190508181036000830152614850816143e6565b9050919050565b6000602082019050818103600083015261487081614409565b9050919050565b600060208201905081810360008301526148908161442c565b9050919050565b600060208201905081810360008301526148b08161444f565b9050919050565b600060208201905081810360008301526148d081614472565b9050919050565b600060208201905081810360008301526148f081614495565b9050919050565b60006020820190508181036000830152614910816144b8565b9050919050565b60006020820190508181036000830152614930816144db565b9050919050565b6000602082019050818103600083015261495081614521565b9050919050565b6000602082019050818103600083015261497081614544565b9050919050565b600060208201905081810360008301526149908161458a565b9050919050565b60006020820190506149ac60008301846145ad565b92915050565b60006040820190506149c760008301856145ad565b6149d460208301846145ad565b9392505050565b60006060820190506149f060008301866145ad565b6149fd60208301856145ad565b614a0a60408301846145ad565b949350505050565b6000614a1c614a2d565b9050614a288282614ce8565b919050565b6000604051905090565b600067ffffffffffffffff821115614a5257614a51614e04565b5b614a5b82614e47565b9050602081019050919050565b600081519050919050565b600081519050919050565b600081905092915050565b600082825260208201905092915050565b600081905092915050565b6000614ab082614c40565b9150614abb83614c40565b9250827fffffffffffffffffffffffffffffffffffffffffffffffffffffffffffffffff03821115614af057614aef614d19565b5b828201905092915050565b6000614b0682614c40565b9150614b1183614c40565b925082614b2157614b20614d48565b5b828204905092915050565b6000614b3782614c40565b9150614b4283614c40565b9250817fffffffffffffffffffffffffffffffffffffffffffffffffffffffffffffffff0483118215151615614b7b57614b7a614d19565b5b828202905092915050565b6000614b9182614c40565b9150614b9c83614c40565b925082821015614baf57614bae614d19565b5b828203905092915050565b6000614bc582614c20565b9050919050565b6000614bd782614c20565b9050919050565b60008115159050919050565b6000819050919050565b60007fffffffff0000000000000000000000000000000000000000000000000000000082169050919050565b600073ffffffffffffffffffffffffffffffffffffffff82169050919050565b6000819050919050565b82818337600083830152505050565b60005b83811015614c77578082015181840152602081019050614c5c565b83811115614c86576000848401525b50505050565b6000614c9782614c40565b91506000821415614cab57614caa614d19565b5b600182039050919050565b60006002820490506001821680614cce57607f821691505b60208210811415614ce257614ce1614d77565b5b50919050565b614cf182614e47565b810181811067ffffffffffffffff82111715614d1057614d0f614e04565b5b80604052505050565b7f4e487b7100000000000000000000000000000000000000000000000000000000600052601160045260246000fd5b7f4e487b7100000000000000000000000000000000000000000000000000000000600052601260045260246000fd5b7f4e487b7100000000000000000000000000000000000000000000000000000000600052602260045260246000fd5b7f4e487b7100000000000000000000000000000000000000000000000000000000600052603160045260246000fd5b7f4e487b7100000000000000000000000000000000000000000000000000000000600052603260045260246000fd5b7f4e487b7100000000000000000000000000000000000000000000000000000000600052604160045260246000fd5b600080fd5b600080fd5b600080fd5b600080fd5b6000601f19601f8301169050919050565b7f537472696e67733a20686578206c656e67746820696e73756666696369656e74600082015250565b7f4e4f5420454e4f55474820524553455256455300000000000000000000000000600082015250565b7f43414e4e4f54205245504159204d4f5245205448414e204f5745440000000000600082015250565b7f6e6f74206b6565706572206f722061646d696e00000000000000000000000000600082015250565b7f4e4f5420454e4f55474820434f4c4c41544552414c20494e2052455345525645600082015250565b7f416464726573733a20696e73756666696369656e742062616c616e636520666f60008201527f722063616c6c0000000000000000000000000000000000000000000000000000602082015250565b7f416d6f756e74206973207a65726f202121000000000000000000000000000000600082015250565b7f5641554c54204e4f5420554e444552434f4c4c41544552414c495a4544000000600082015250565b7f4e4f5420454e4f554748204445425420544f4b454e5320494e2052455345525660008201527f4500000000000000000000000000000000000000000000000000000000000000602082015250565b7f43414e4e4f54205749544844524157204d4f524520434f4c4c41544552414c00600082015250565b7f6f7065726174696f6e206e6f7420616c6c6f7765640000000000000000000000600082015250565b7f4953204e4f542042414e4b20464143544f5259204f574e455200000000000000600082015250565b7f4e4f5420454e4f55474820434f4c4c41544552414c0000000000000000000000600082015250565b7f496e697469616c697a61626c653a20636f6e747261637420697320616c72656160008201527f647920696e697469616c697a6564000000000000000000000000000000000000602082015250565b7f43414e4e4f5420554e444552434f4c4c41544552414c495a45205641554c5400600082015250565b7f416464726573733a2063616c6c20746f206e6f6e2d636f6e7472616374000000600082015250565b7f6e6f742070726963652075706461746572206f722061646d696e000000000000600082015250565b7f416363657373436f6e74726f6c3a206163636f756e7420000000000000000000600082015250565b7f5361666545524332303a204552433230206f7065726174696f6e20646964206e60008201527f6f74207375636365656400000000000000000000000000000000000000000000602082015250565b7f2173657461626c65000000000000000000000000000000000000000000000000600082015250565b7f206973206d697373696e6720726f6c6520000000000000000000000000000000600082015250565b7f416363657373436f6e74726f6c3a2063616e206f6e6c792072656e6f756e636560008201527f20726f6c657320666f722073656c660000000000000000000000000000000000602082015250565b6152a581614bba565b81146152b057600080fd5b50565b6152bc81614bcc565b81146152c757600080fd5b50565b6152d381614bde565b81146152de57600080fd5b50565b6152ea81614bea565b81146152f557600080fd5b50565b61530181614bf4565b811461530c57600080fd5b50565b61531881614c40565b811461532357600080fd5b5056fea264697066735822122061e393a4e9e431a12a5523914b0b5e60755671b9786b58f7b87d10aa3f8d8eb564736f6c63430008060033",
      "opcodes": "PUSH1 0x80 PUSH1 0x40 MSTORE CALLVALUE DUP1 ISZERO PUSH3 0x11 JUMPI PUSH1 0x0 DUP1 REVERT JUMPDEST POP PUSH1 0x40 MLOAD PUSH3 0x548A CODESIZE SUB DUP1 PUSH3 0x548A DUP4 CODECOPY DUP2 DUP2 ADD PUSH1 0x40 MSTORE DUP2 ADD SWAP1 PUSH3 0x37 SWAP2 SWAP1 PUSH3 0x99 JUMP JUMPDEST DUP1 PUSH1 0xE PUSH1 0x6 ADD PUSH1 0x0 PUSH2 0x100 EXP DUP2 SLOAD DUP2 PUSH20 0xFFFFFFFFFFFFFFFFFFFFFFFFFFFFFFFFFFFFFFFF MUL NOT AND SWAP1 DUP4 PUSH20 0xFFFFFFFFFFFFFFFFFFFFFFFFFFFFFFFFFFFFFFFF AND MUL OR SWAP1 SSTORE POP POP PUSH3 0x11E JUMP JUMPDEST PUSH1 0x0 DUP2 MLOAD SWAP1 POP PUSH3 0x93 DUP2 PUSH3 0x104 JUMP JUMPDEST SWAP3 SWAP2 POP POP JUMP JUMPDEST PUSH1 0x0 PUSH1 0x20 DUP3 DUP5 SUB SLT ISZERO PUSH3 0xB2 JUMPI PUSH3 0xB1 PUSH3 0xFF JUMP JUMPDEST JUMPDEST PUSH1 0x0 PUSH3 0xC2 DUP5 DUP3 DUP6 ADD PUSH3 0x82 JUMP JUMPDEST SWAP2 POP POP SWAP3 SWAP2 POP POP JUMP JUMPDEST PUSH1 0x0 PUSH3 0xD8 DUP3 PUSH3 0xDF JUMP JUMPDEST SWAP1 POP SWAP2 SWAP1 POP JUMP JUMPDEST PUSH1 0x0 PUSH20 0xFFFFFFFFFFFFFFFFFFFFFFFFFFFFFFFFFFFFFFFF DUP3 AND SWAP1 POP SWAP2 SWAP1 POP JUMP JUMPDEST PUSH1 0x0 DUP1 REVERT JUMPDEST PUSH3 0x10F DUP2 PUSH3 0xCB JUMP JUMPDEST DUP2 EQ PUSH3 0x11B JUMPI PUSH1 0x0 DUP1 REVERT JUMPDEST POP JUMP JUMPDEST PUSH2 0x535C DUP1 PUSH3 0x12E PUSH1 0x0 CODECOPY PUSH1 0x0 RETURN INVALID PUSH1 0x80 PUSH1 0x40 MSTORE CALLVALUE DUP1 ISZERO PUSH2 0x10 JUMPI PUSH1 0x0 DUP1 REVERT JUMPDEST POP PUSH1 0x4 CALLDATASIZE LT PUSH2 0x2F0 JUMPI PUSH1 0x0 CALLDATALOAD PUSH1 0xE0 SHR DUP1 PUSH4 0x685A5808 GT PUSH2 0x19D JUMPI DUP1 PUSH4 0xC14D0454 GT PUSH2 0xE9 JUMPI DUP1 PUSH4 0xE88456E7 GT PUSH2 0xA2 JUMPI DUP1 PUSH4 0xF91614EB GT PUSH2 0x7C JUMPI DUP1 PUSH4 0xF91614EB EQ PUSH2 0x8BF JUMPI DUP1 PUSH4 0xFB839DDA EQ PUSH2 0x8DD JUMPI DUP1 PUSH4 0xFB8D8101 EQ PUSH2 0x8F9 JUMPI DUP1 PUSH4 0xFC2E39A6 EQ PUSH2 0x917 JUMPI PUSH2 0x2F0 JUMP JUMPDEST DUP1 PUSH4 0xE88456E7 EQ PUSH2 0x869 JUMPI DUP1 PUSH4 0xEC5E5E7D EQ PUSH2 0x885 JUMPI DUP1 PUSH4 0xF327E324 EQ PUSH2 0x8A1 JUMPI PUSH2 0x2F0 JUMP JUMPDEST DUP1 PUSH4 0xC14D0454 EQ PUSH2 0x7A7 JUMPI DUP1 PUSH4 0xC969AC06 EQ PUSH2 0x7C3 JUMPI DUP1 PUSH4 0xCA15C873 EQ PUSH2 0x7E1 JUMPI DUP1 PUSH4 0xCB765C1D EQ PUSH2 0x811 JUMPI DUP1 PUSH4 0xD267974C EQ PUSH2 0x82F JUMPI DUP1 PUSH4 0xD547741F EQ PUSH2 0x84D JUMPI PUSH2 0x2F0 JUMP JUMPDEST DUP1 PUSH4 0x9010D07C GT PUSH2 0x156 JUMPI DUP1 PUSH4 0xA217FDDF GT PUSH2 0x130 JUMPI DUP1 PUSH4 0xA217FDDF EQ PUSH2 0x71B JUMPI DUP1 PUSH4 0xA622EE7C EQ PUSH2 0x739 JUMPI DUP1 PUSH4 0xA860988C EQ PUSH2 0x76B JUMPI DUP1 PUSH4 0xB71D7A6E EQ PUSH2 0x789 JUMPI PUSH2 0x2F0 JUMP JUMPDEST DUP1 PUSH4 0x9010D07C EQ PUSH2 0x69F JUMPI DUP1 PUSH4 0x91D14854 EQ PUSH2 0x6CF JUMPI DUP1 PUSH4 0x9D867679 EQ PUSH2 0x6FF JUMPI PUSH2 0x2F0 JUMP JUMPDEST DUP1 PUSH4 0x685A5808 EQ PUSH2 0x603 JUMPI DUP1 PUSH4 0x6D483FE6 EQ PUSH2 0x621 JUMPI DUP1 PUSH4 0x70C12F1E EQ PUSH2 0x63F JUMPI DUP1 PUSH4 0x7649B938 EQ PUSH2 0x65B JUMPI DUP1 PUSH4 0x85B4E543 EQ PUSH2 0x677 JUMPI DUP1 PUSH4 0x86EF5738 EQ PUSH2 0x681 JUMPI PUSH2 0x2F0 JUMP JUMPDEST DUP1 PUSH4 0x364BC15A GT PUSH2 0x25C JUMPI DUP1 PUSH4 0x45FD80E4 GT PUSH2 0x215 JUMPI DUP1 PUSH4 0x4FD88951 GT PUSH2 0x1EF JUMPI DUP1 PUSH4 0x4FD88951 EQ PUSH2 0x58F JUMPI DUP1 PUSH4 0x5257B566 EQ PUSH2 0x5AB JUMPI DUP1 PUSH4 0x53388F44 EQ PUSH2 0x5C9 JUMPI DUP1 PUSH4 0x5729B394 EQ PUSH2 0x5E7 JUMPI PUSH2 0x2F0 JUMP JUMPDEST DUP1 PUSH4 0x45FD80E4 EQ PUSH2 0x54D JUMPI DUP1 PUSH4 0x494F4188 EQ PUSH2 0x557 JUMPI DUP1 PUSH4 0x4B272D9A EQ PUSH2 0x573 JUMPI PUSH2 0x2F0 JUMP JUMPDEST DUP1 PUSH4 0x364BC15A EQ PUSH2 0x48D JUMPI DUP1 PUSH4 0x36568ABE EQ PUSH2 0x4AB JUMPI DUP1 PUSH4 0x38507FF5 EQ PUSH2 0x4C7 JUMPI DUP1 PUSH4 0x3FCAD964 EQ PUSH2 0x4E3 JUMPI DUP1 PUSH4 0x4032B72B EQ PUSH2 0x515 JUMPI DUP1 PUSH4 0x435726C4 EQ PUSH2 0x531 JUMPI PUSH2 0x2F0 JUMP JUMPDEST DUP1 PUSH4 0x1E522B29 GT PUSH2 0x2AE JUMPI DUP1 PUSH4 0x1E522B29 EQ PUSH2 0x3CB JUMPI DUP1 PUSH4 0x248A9CA3 EQ PUSH2 0x3E9 JUMPI DUP1 PUSH4 0x2F2FF15D EQ PUSH2 0x419 JUMPI DUP1 PUSH4 0x2F865568 EQ PUSH2 0x435 JUMPI DUP1 PUSH4 0x3149CB14 EQ PUSH2 0x451 JUMPI DUP1 PUSH4 0x317C9E42 EQ PUSH2 0x46F JUMPI PUSH2 0x2F0 JUMP JUMPDEST DUP1 PUSH3 0x91A446 EQ PUSH2 0x2F5 JUMPI DUP1 PUSH4 0x1FFC9A7 EQ PUSH2 0x311 JUMPI DUP1 PUSH4 0x8DCD7C6 EQ PUSH2 0x341 JUMPI DUP1 PUSH4 0x15143950 EQ PUSH2 0x35F JUMPI DUP1 PUSH4 0x17D7DE7C EQ PUSH2 0x37D JUMPI DUP1 PUSH4 0x1B9084B4 EQ PUSH2 0x39B JUMPI JUMPDEST PUSH1 0x0 DUP1 REVERT JUMPDEST PUSH2 0x30F PUSH1 0x4 DUP1 CALLDATASIZE SUB DUP2 ADD SWAP1 PUSH2 0x30A SWAP2 SWAP1 PUSH2 0x4189 JUMP JUMPDEST PUSH2 0x935 JUMP JUMPDEST STOP JUMPDEST PUSH2 0x32B PUSH1 0x4 DUP1 CALLDATASIZE SUB DUP2 ADD SWAP1 PUSH2 0x326 SWAP2 SWAP1 PUSH2 0x415C JUMP JUMPDEST PUSH2 0xA20 JUMP JUMPDEST PUSH1 0x40 MLOAD PUSH2 0x338 SWAP2 SWAP1 PUSH2 0x4688 JUMP JUMPDEST PUSH1 0x40 MLOAD DUP1 SWAP2 SUB SWAP1 RETURN JUMPDEST PUSH2 0x349 PUSH2 0xA9A JUMP JUMPDEST PUSH1 0x40 MLOAD PUSH2 0x356 SWAP2 SWAP1 PUSH2 0x4997 JUMP JUMPDEST PUSH1 0x40 MLOAD DUP1 SWAP2 SUB SWAP1 RETURN JUMPDEST PUSH2 0x367 PUSH2 0xAA6 JUMP JUMPDEST PUSH1 0x40 MLOAD PUSH2 0x374 SWAP2 SWAP1 PUSH2 0x4997 JUMP JUMPDEST PUSH1 0x40 MLOAD DUP1 SWAP2 SUB SWAP1 RETURN JUMPDEST PUSH2 0x385 PUSH2 0xAB3 JUMP JUMPDEST PUSH1 0x40 MLOAD PUSH2 0x392 SWAP2 SWAP1 PUSH2 0x46F5 JUMP JUMPDEST PUSH1 0x40 MLOAD DUP1 SWAP2 SUB SWAP1 RETURN JUMPDEST PUSH2 0x3B5 PUSH1 0x4 DUP1 CALLDATASIZE SUB DUP2 ADD SWAP1 PUSH2 0x3B0 SWAP2 SWAP1 PUSH2 0x3F08 JUMP JUMPDEST PUSH2 0xB45 JUMP JUMPDEST PUSH1 0x40 MLOAD PUSH2 0x3C2 SWAP2 SWAP1 PUSH2 0x4997 JUMP JUMPDEST PUSH1 0x40 MLOAD DUP1 SWAP2 SUB SWAP1 RETURN JUMPDEST PUSH2 0x3D3 PUSH2 0xC7E JUMP JUMPDEST PUSH1 0x40 MLOAD PUSH2 0x3E0 SWAP2 SWAP1 PUSH2 0x4997 JUMP JUMPDEST PUSH1 0x40 MLOAD DUP1 SWAP2 SUB SWAP1 RETURN JUMPDEST PUSH2 0x403 PUSH1 0x4 DUP1 CALLDATASIZE SUB DUP2 ADD SWAP1 PUSH2 0x3FE SWAP2 SWAP1 PUSH2 0x40AF JUMP JUMPDEST PUSH2 0xC8B JUMP JUMPDEST PUSH1 0x40 MLOAD PUSH2 0x410 SWAP2 SWAP1 PUSH2 0x46DA JUMP JUMPDEST PUSH1 0x40 MLOAD DUP1 SWAP2 SUB SWAP1 RETURN JUMPDEST PUSH2 0x433 PUSH1 0x4 DUP1 CALLDATASIZE SUB DUP2 ADD SWAP1 PUSH2 0x42E SWAP2 SWAP1 PUSH2 0x40DC JUMP JUMPDEST PUSH2 0xCAB JUMP JUMPDEST STOP JUMPDEST PUSH2 0x44F PUSH1 0x4 DUP1 CALLDATASIZE SUB DUP2 ADD SWAP1 PUSH2 0x44A SWAP2 SWAP1 PUSH2 0x3F08 JUMP JUMPDEST PUSH2 0xCD4 JUMP JUMPDEST STOP JUMPDEST PUSH2 0x459 PUSH2 0x10C7 JUMP JUMPDEST PUSH1 0x40 MLOAD PUSH2 0x466 SWAP2 SWAP1 PUSH2 0x460D JUMP JUMPDEST PUSH1 0x40 MLOAD DUP1 SWAP2 SUB SWAP1 RETURN JUMPDEST PUSH2 0x477 PUSH2 0x10F1 JUMP JUMPDEST PUSH1 0x40 MLOAD PUSH2 0x484 SWAP2 SWAP1 PUSH2 0x4997 JUMP JUMPDEST PUSH1 0x40 MLOAD DUP1 SWAP2 SUB SWAP1 RETURN JUMPDEST PUSH2 0x495 PUSH2 0x10FE JUMP JUMPDEST PUSH1 0x40 MLOAD PUSH2 0x4A2 SWAP2 SWAP1 PUSH2 0x46DA JUMP JUMPDEST PUSH1 0x40 MLOAD DUP1 SWAP2 SUB SWAP1 RETURN JUMPDEST PUSH2 0x4C5 PUSH1 0x4 DUP1 CALLDATASIZE SUB DUP2 ADD SWAP1 PUSH2 0x4C0 SWAP2 SWAP1 PUSH2 0x40DC JUMP JUMPDEST PUSH2 0x1122 JUMP JUMPDEST STOP JUMPDEST PUSH2 0x4E1 PUSH1 0x4 DUP1 CALLDATASIZE SUB DUP2 ADD SWAP1 PUSH2 0x4DC SWAP2 SWAP1 PUSH2 0x401B JUMP JUMPDEST PUSH2 0x11A5 JUMP JUMPDEST STOP JUMPDEST PUSH2 0x4FD PUSH1 0x4 DUP1 CALLDATASIZE SUB DUP2 ADD SWAP1 PUSH2 0x4F8 SWAP2 SWAP1 PUSH2 0x4189 JUMP JUMPDEST PUSH2 0x12DA JUMP JUMPDEST PUSH1 0x40 MLOAD PUSH2 0x50C SWAP4 SWAP3 SWAP2 SWAP1 PUSH2 0x46A3 JUMP JUMPDEST PUSH1 0x40 MLOAD DUP1 SWAP2 SUB SWAP1 RETURN JUMPDEST PUSH2 0x52F PUSH1 0x4 DUP1 CALLDATASIZE SUB DUP2 ADD SWAP1 PUSH2 0x52A SWAP2 SWAP1 PUSH2 0x3F08 JUMP JUMPDEST PUSH2 0x14F1 JUMP JUMPDEST STOP JUMPDEST PUSH2 0x54B PUSH1 0x4 DUP1 CALLDATASIZE SUB DUP2 ADD SWAP1 PUSH2 0x546 SWAP2 SWAP1 PUSH2 0x4189 JUMP JUMPDEST PUSH2 0x158E JUMP JUMPDEST STOP JUMPDEST PUSH2 0x555 PUSH2 0x1747 JUMP JUMPDEST STOP JUMPDEST PUSH2 0x571 PUSH1 0x4 DUP1 CALLDATASIZE SUB DUP2 ADD SWAP1 PUSH2 0x56C SWAP2 SWAP1 PUSH2 0x3F08 JUMP JUMPDEST PUSH2 0x1869 JUMP JUMPDEST STOP JUMPDEST PUSH2 0x58D PUSH1 0x4 DUP1 CALLDATASIZE SUB DUP2 ADD SWAP1 PUSH2 0x588 SWAP2 SWAP1 PUSH2 0x3F08 JUMP JUMPDEST PUSH2 0x1896 JUMP JUMPDEST STOP JUMPDEST PUSH2 0x5A9 PUSH1 0x4 DUP1 CALLDATASIZE SUB DUP2 ADD SWAP1 PUSH2 0x5A4 SWAP2 SWAP1 PUSH2 0x4189 JUMP JUMPDEST PUSH2 0x196A JUMP JUMPDEST STOP JUMPDEST PUSH2 0x5B3 PUSH2 0x1E50 JUMP JUMPDEST PUSH1 0x40 MLOAD PUSH2 0x5C0 SWAP2 SWAP1 PUSH2 0x4997 JUMP JUMPDEST PUSH1 0x40 MLOAD DUP1 SWAP2 SUB SWAP1 RETURN JUMPDEST PUSH2 0x5D1 PUSH2 0x1E5D JUMP JUMPDEST PUSH1 0x40 MLOAD PUSH2 0x5DE SWAP2 SWAP1 PUSH2 0x4997 JUMP JUMPDEST PUSH1 0x40 MLOAD DUP1 SWAP2 SUB SWAP1 RETURN JUMPDEST PUSH2 0x601 PUSH1 0x4 DUP1 CALLDATASIZE SUB DUP2 ADD SWAP1 PUSH2 0x5FC SWAP2 SWAP1 PUSH2 0x4189 JUMP JUMPDEST PUSH2 0x1E6A JUMP JUMPDEST STOP JUMPDEST PUSH2 0x60B PUSH2 0x1FC5 JUMP JUMPDEST PUSH1 0x40 MLOAD PUSH2 0x618 SWAP2 SWAP1 PUSH2 0x4997 JUMP JUMPDEST PUSH1 0x40 MLOAD DUP1 SWAP2 SUB SWAP1 RETURN JUMPDEST PUSH2 0x629 PUSH2 0x200F JUMP JUMPDEST PUSH1 0x40 MLOAD PUSH2 0x636 SWAP2 SWAP1 PUSH2 0x460D JUMP JUMPDEST PUSH1 0x40 MLOAD DUP1 SWAP2 SUB SWAP1 RETURN JUMPDEST PUSH2 0x659 PUSH1 0x4 DUP1 CALLDATASIZE SUB DUP2 ADD SWAP1 PUSH2 0x654 SWAP2 SWAP1 PUSH2 0x3F35 JUMP JUMPDEST PUSH2 0x203C JUMP JUMPDEST STOP JUMPDEST PUSH2 0x675 PUSH1 0x4 DUP1 CALLDATASIZE SUB DUP2 ADD SWAP1 PUSH2 0x670 SWAP2 SWAP1 PUSH2 0x4189 JUMP JUMPDEST PUSH2 0x223C JUMP JUMPDEST STOP JUMPDEST PUSH2 0x67F PUSH2 0x2546 JUMP JUMPDEST STOP JUMPDEST PUSH2 0x689 PUSH2 0x2668 JUMP JUMPDEST PUSH1 0x40 MLOAD PUSH2 0x696 SWAP2 SWAP1 PUSH2 0x4997 JUMP JUMPDEST PUSH1 0x40 MLOAD DUP1 SWAP2 SUB SWAP1 RETURN JUMPDEST PUSH2 0x6B9 PUSH1 0x4 DUP1 CALLDATASIZE SUB DUP2 ADD SWAP1 PUSH2 0x6B4 SWAP2 SWAP1 PUSH2 0x411C JUMP JUMPDEST PUSH2 0x2675 JUMP JUMPDEST PUSH1 0x40 MLOAD PUSH2 0x6C6 SWAP2 SWAP1 PUSH2 0x460D JUMP JUMPDEST PUSH1 0x40 MLOAD DUP1 SWAP2 SUB SWAP1 RETURN JUMPDEST PUSH2 0x6E9 PUSH1 0x4 DUP1 CALLDATASIZE SUB DUP2 ADD SWAP1 PUSH2 0x6E4 SWAP2 SWAP1 PUSH2 0x40DC JUMP JUMPDEST PUSH2 0x26A4 JUMP JUMPDEST PUSH1 0x40 MLOAD PUSH2 0x6F6 SWAP2 SWAP1 PUSH2 0x4688 JUMP JUMPDEST PUSH1 0x40 MLOAD DUP1 SWAP2 SUB SWAP1 RETURN JUMPDEST PUSH2 0x719 PUSH1 0x4 DUP1 CALLDATASIZE SUB DUP2 ADD SWAP1 PUSH2 0x714 SWAP2 SWAP1 PUSH2 0x3F08 JUMP JUMPDEST PUSH2 0x270F JUMP JUMPDEST STOP JUMPDEST PUSH2 0x723 PUSH2 0x273C JUMP JUMPDEST PUSH1 0x40 MLOAD PUSH2 0x730 SWAP2 SWAP1 PUSH2 0x46DA JUMP JUMPDEST PUSH1 0x40 MLOAD DUP1 SWAP2 SUB SWAP1 RETURN JUMPDEST PUSH2 0x753 PUSH1 0x4 DUP1 CALLDATASIZE SUB DUP2 ADD SWAP1 PUSH2 0x74E SWAP2 SWAP1 PUSH2 0x3F08 JUMP JUMPDEST PUSH2 0x2743 JUMP JUMPDEST PUSH1 0x40 MLOAD PUSH2 0x762 SWAP4 SWAP3 SWAP2 SWAP1 PUSH2 0x49DB JUMP JUMPDEST PUSH1 0x40 MLOAD DUP1 SWAP2 SUB SWAP1 RETURN JUMPDEST PUSH2 0x773 PUSH2 0x276D JUMP JUMPDEST PUSH1 0x40 MLOAD PUSH2 0x780 SWAP2 SWAP1 PUSH2 0x4997 JUMP JUMPDEST PUSH1 0x40 MLOAD DUP1 SWAP2 SUB SWAP1 RETURN JUMPDEST PUSH2 0x791 PUSH2 0x27B7 JUMP JUMPDEST PUSH1 0x40 MLOAD PUSH2 0x79E SWAP2 SWAP1 PUSH2 0x4997 JUMP JUMPDEST PUSH1 0x40 MLOAD DUP1 SWAP2 SUB SWAP1 RETURN JUMPDEST PUSH2 0x7C1 PUSH1 0x4 DUP1 CALLDATASIZE SUB DUP2 ADD SWAP1 PUSH2 0x7BC SWAP2 SWAP1 PUSH2 0x401B JUMP JUMPDEST PUSH2 0x28CF JUMP JUMPDEST STOP JUMPDEST PUSH2 0x7CB PUSH2 0x2A03 JUMP JUMPDEST PUSH1 0x40 MLOAD PUSH2 0x7D8 SWAP2 SWAP1 PUSH2 0x4997 JUMP JUMPDEST PUSH1 0x40 MLOAD DUP1 SWAP2 SUB SWAP1 RETURN JUMPDEST PUSH2 0x7FB PUSH1 0x4 DUP1 CALLDATASIZE SUB DUP2 ADD SWAP1 PUSH2 0x7F6 SWAP2 SWAP1 PUSH2 0x40AF JUMP JUMPDEST PUSH2 0x2A10 JUMP JUMPDEST PUSH1 0x40 MLOAD PUSH2 0x808 SWAP2 SWAP1 PUSH2 0x4997 JUMP JUMPDEST PUSH1 0x40 MLOAD DUP1 SWAP2 SUB SWAP1 RETURN JUMPDEST PUSH2 0x819 PUSH2 0x2A34 JUMP JUMPDEST PUSH1 0x40 MLOAD PUSH2 0x826 SWAP2 SWAP1 PUSH2 0x4997 JUMP JUMPDEST PUSH1 0x40 MLOAD DUP1 SWAP2 SUB SWAP1 RETURN JUMPDEST PUSH2 0x837 PUSH2 0x2A41 JUMP JUMPDEST PUSH1 0x40 MLOAD PUSH2 0x844 SWAP2 SWAP1 PUSH2 0x460D JUMP JUMPDEST PUSH1 0x40 MLOAD DUP1 SWAP2 SUB SWAP1 RETURN JUMPDEST PUSH2 0x867 PUSH1 0x4 DUP1 CALLDATASIZE SUB DUP2 ADD SWAP1 PUSH2 0x862 SWAP2 SWAP1 PUSH2 0x40DC JUMP JUMPDEST PUSH2 0x2A6E JUMP JUMPDEST STOP JUMPDEST PUSH2 0x883 PUSH1 0x4 DUP1 CALLDATASIZE SUB DUP2 ADD SWAP1 PUSH2 0x87E SWAP2 SWAP1 PUSH2 0x3F08 JUMP JUMPDEST PUSH2 0x2A97 JUMP JUMPDEST STOP JUMPDEST PUSH2 0x89F PUSH1 0x4 DUP1 CALLDATASIZE SUB DUP2 ADD SWAP1 PUSH2 0x89A SWAP2 SWAP1 PUSH2 0x4189 JUMP JUMPDEST PUSH2 0x2B34 JUMP JUMPDEST STOP JUMPDEST PUSH2 0x8A9 PUSH2 0x2D95 JUMP JUMPDEST PUSH1 0x40 MLOAD PUSH2 0x8B6 SWAP2 SWAP1 PUSH2 0x4997 JUMP JUMPDEST PUSH1 0x40 MLOAD DUP1 SWAP2 SUB SWAP1 RETURN JUMPDEST PUSH2 0x8C7 PUSH2 0x2DA2 JUMP JUMPDEST PUSH1 0x40 MLOAD PUSH2 0x8D4 SWAP2 SWAP1 PUSH2 0x4997 JUMP JUMPDEST PUSH1 0x40 MLOAD DUP1 SWAP2 SUB SWAP1 RETURN JUMPDEST PUSH2 0x8F7 PUSH1 0x4 DUP1 CALLDATASIZE SUB DUP2 ADD SWAP1 PUSH2 0x8F2 SWAP2 SWAP1 PUSH2 0x4189 JUMP JUMPDEST PUSH2 0x2DAF JUMP JUMPDEST STOP JUMPDEST PUSH2 0x901 PUSH2 0x3083 JUMP JUMPDEST PUSH1 0x40 MLOAD PUSH2 0x90E SWAP2 SWAP1 PUSH2 0x46DA JUMP JUMPDEST PUSH1 0x40 MLOAD DUP1 SWAP2 SUB SWAP1 RETURN JUMPDEST PUSH2 0x91F PUSH2 0x30A7 JUMP JUMPDEST PUSH1 0x40 MLOAD PUSH2 0x92C SWAP2 SWAP1 PUSH2 0x4997 JUMP JUMPDEST PUSH1 0x40 MLOAD DUP1 SWAP2 SUB SWAP1 RETURN JUMPDEST PUSH1 0x0 DUP2 GT PUSH2 0x978 JUMPI PUSH1 0x40 MLOAD PUSH32 0x8C379A000000000000000000000000000000000000000000000000000000000 DUP2 MSTORE PUSH1 0x4 ADD PUSH2 0x96F SWAP1 PUSH2 0x47D7 JUMP JUMPDEST PUSH1 0x40 MLOAD DUP1 SWAP2 SUB SWAP1 REVERT JUMPDEST DUP1 PUSH1 0xE PUSH1 0x1 ADD PUSH1 0x0 DUP3 DUP3 SLOAD PUSH2 0x98D SWAP2 SWAP1 PUSH2 0x4AA5 JUMP JUMPDEST SWAP3 POP POP DUP2 SWAP1 SSTORE POP PUSH2 0x9E6 CALLER ADDRESS DUP4 PUSH1 0x2 PUSH1 0x0 ADD PUSH1 0x0 SWAP1 SLOAD SWAP1 PUSH2 0x100 EXP SWAP1 DIV PUSH20 0xFFFFFFFFFFFFFFFFFFFFFFFFFFFFFFFFFFFFFFFF AND PUSH20 0xFFFFFFFFFFFFFFFFFFFFFFFFFFFFFFFFFFFFFFFF AND PUSH2 0x30B4 SWAP1 SWAP4 SWAP3 SWAP2 SWAP1 PUSH4 0xFFFFFFFF AND JUMP JUMPDEST PUSH32 0x71EB3E5DF75EF293B81B4C7B38DB51F7A6CEC007D12529CB74D4EAFB7FA53222 DUP2 PUSH1 0x40 MLOAD PUSH2 0xA15 SWAP2 SWAP1 PUSH2 0x4997 JUMP JUMPDEST PUSH1 0x40 MLOAD DUP1 SWAP2 SUB SWAP1 LOG1 POP JUMP JUMPDEST PUSH1 0x0 PUSH32 0x5A05180F00000000000000000000000000000000000000000000000000000000 PUSH28 0xFFFFFFFFFFFFFFFFFFFFFFFFFFFFFFFFFFFFFFFFFFFFFFFFFFFFFFFF NOT AND DUP3 PUSH28 0xFFFFFFFFFFFFFFFFFFFFFFFFFFFFFFFFFFFFFFFFFFFFFFFFFFFFFFFF NOT AND EQ DUP1 PUSH2 0xA93 JUMPI POP PUSH2 0xA92 DUP3 PUSH2 0x313D JUMP JUMPDEST JUMPDEST SWAP1 POP SWAP2 SWAP1 POP JUMP JUMPDEST PUSH1 0x0 PUSH1 0x2 DUP1 ADD SLOAD SWAP1 POP SWAP1 JUMP JUMPDEST PUSH1 0x0 PUSH1 0x8 PUSH1 0x1 ADD SLOAD SWAP1 POP SWAP1 JUMP JUMPDEST PUSH1 0x60 PUSH1 0x0 DUP1 SLOAD PUSH2 0xAC2 SWAP1 PUSH2 0x4CB6 JUMP JUMPDEST DUP1 PUSH1 0x1F ADD PUSH1 0x20 DUP1 SWAP2 DIV MUL PUSH1 0x20 ADD PUSH1 0x40 MLOAD SWAP1 DUP2 ADD PUSH1 0x40 MSTORE DUP1 SWAP3 SWAP2 SWAP1 DUP2 DUP2 MSTORE PUSH1 0x20 ADD DUP3 DUP1 SLOAD PUSH2 0xAEE SWAP1 PUSH2 0x4CB6 JUMP JUMPDEST DUP1 ISZERO PUSH2 0xB3B JUMPI DUP1 PUSH1 0x1F LT PUSH2 0xB10 JUMPI PUSH2 0x100 DUP1 DUP4 SLOAD DIV MUL DUP4 MSTORE SWAP2 PUSH1 0x20 ADD SWAP2 PUSH2 0xB3B JUMP JUMPDEST DUP3 ADD SWAP2 SWAP1 PUSH1 0x0 MSTORE PUSH1 0x20 PUSH1 0x0 KECCAK256 SWAP1 JUMPDEST DUP2 SLOAD DUP2 MSTORE SWAP1 PUSH1 0x1 ADD SWAP1 PUSH1 0x20 ADD DUP1 DUP4 GT PUSH2 0xB1E JUMPI DUP3 SWAP1 SUB PUSH1 0x1F AND DUP3 ADD SWAP2 JUMPDEST POP POP POP POP POP SWAP1 POP SWAP1 JUMP JUMPDEST PUSH1 0x0 DUP1 PUSH1 0x1 PUSH1 0x0 DUP5 PUSH20 0xFFFFFFFFFFFFFFFFFFFFFFFFFFFFFFFFFFFFFFFF AND PUSH20 0xFFFFFFFFFFFFFFFFFFFFFFFFFFFFFFFFFFFFFFFF AND DUP2 MSTORE PUSH1 0x20 ADD SWAP1 DUP2 MSTORE PUSH1 0x20 ADD PUSH1 0x0 KECCAK256 PUSH1 0x1 ADD SLOAD EQ ISZERO PUSH2 0xB9A JUMPI PUSH1 0x0 SWAP1 POP PUSH2 0xC79 JUMP JUMPDEST PUSH1 0x2 DUP1 ADD SLOAD PUSH1 0x2 PUSH1 0x1 ADD SLOAD PUSH1 0x1 PUSH1 0x0 DUP6 PUSH20 0xFFFFFFFFFFFFFFFFFFFFFFFFFFFFFFFFFFFFFFFF AND PUSH20 0xFFFFFFFFFFFFFFFFFFFFFFFFFFFFFFFFFFFFFFFF AND DUP2 MSTORE PUSH1 0x20 ADD SWAP1 DUP2 MSTORE PUSH1 0x20 ADD PUSH1 0x0 KECCAK256 PUSH1 0x1 ADD SLOAD PUSH2 0xBF2 SWAP2 SWAP1 PUSH2 0x4B2C JUMP JUMPDEST PUSH2 0xBFC SWAP2 SWAP1 PUSH2 0x4AFB JUMP JUMPDEST PUSH2 0x2710 PUSH1 0x8 PUSH1 0x2 ADD SLOAD PUSH1 0x8 PUSH1 0x1 ADD SLOAD PUSH1 0x1 PUSH1 0x0 DUP8 PUSH20 0xFFFFFFFFFFFFFFFFFFFFFFFFFFFFFFFFFFFFFFFF AND PUSH20 0xFFFFFFFFFFFFFFFFFFFFFFFFFFFFFFFFFFFFFFFF AND DUP2 MSTORE PUSH1 0x20 ADD SWAP1 DUP2 MSTORE PUSH1 0x20 ADD PUSH1 0x0 KECCAK256 PUSH1 0x0 ADD SLOAD PUSH2 0xC58 SWAP2 SWAP1 PUSH2 0x4B2C JUMP JUMPDEST PUSH2 0xC62 SWAP2 SWAP1 PUSH2 0x4AFB JUMP JUMPDEST PUSH2 0xC6C SWAP2 SWAP1 PUSH2 0x4B2C JUMP JUMPDEST PUSH2 0xC76 SWAP2 SWAP1 PUSH2 0x4AFB JUMP JUMPDEST SWAP1 POP JUMPDEST SWAP2 SWAP1 POP JUMP JUMPDEST PUSH1 0x0 PUSH1 0xE PUSH1 0x5 ADD SLOAD SWAP1 POP SWAP1 JUMP JUMPDEST PUSH1 0x0 PUSH1 0x16 PUSH1 0x0 DUP4 DUP2 MSTORE PUSH1 0x20 ADD SWAP1 DUP2 MSTORE PUSH1 0x20 ADD PUSH1 0x0 KECCAK256 PUSH1 0x1 ADD SLOAD SWAP1 POP SWAP2 SWAP1 POP JUMP JUMPDEST PUSH2 0xCB4 DUP3 PUSH2 0xC8B JUMP JUMPDEST PUSH2 0xCC5 DUP2 PUSH2 0xCC0 PUSH2 0x31B7 JUMP JUMPDEST PUSH2 0x31BF JUMP JUMPDEST PUSH2 0xCCF DUP4 DUP4 PUSH2 0x325C JUMP JUMPDEST POP POP POP JUMP JUMPDEST PUSH2 0xCFE PUSH32 0xFC8737AB85EB45125971625A9EBDB75CC78E01D5C1FA80C4C6E5203F47BC4FAB CALLER PUSH2 0x26A4 JUMP JUMPDEST DUP1 PUSH2 0xD12 JUMPI POP PUSH2 0xD11 PUSH1 0x0 DUP1 SHL CALLER PUSH2 0x26A4 JUMP JUMPDEST JUMPDEST PUSH2 0xD51 JUMPI PUSH1 0x40 MLOAD PUSH32 0x8C379A000000000000000000000000000000000000000000000000000000000 DUP2 MSTORE PUSH1 0x4 ADD PUSH2 0xD48 SWAP1 PUSH2 0x4777 JUMP JUMPDEST PUSH1 0x40 MLOAD DUP1 SWAP2 SUB SWAP1 REVERT JUMPDEST PUSH1 0x64 PUSH1 0xE PUSH1 0x4 ADD SLOAD PUSH2 0xD63 SWAP2 SWAP1 PUSH2 0x4B2C JUMP JUMPDEST PUSH2 0xD6C DUP3 PUSH2 0xB45 JUMP JUMPDEST LT PUSH2 0xDAC JUMPI PUSH1 0x40 MLOAD PUSH32 0x8C379A000000000000000000000000000000000000000000000000000000000 DUP2 MSTORE PUSH1 0x4 ADD PUSH2 0xDA3 SWAP1 PUSH2 0x47F7 JUMP JUMPDEST PUSH1 0x40 MLOAD DUP1 SWAP2 SUB SWAP1 REVERT JUMPDEST PUSH1 0x0 PUSH1 0x64 DUP1 PUSH1 0xE PUSH1 0x5 ADD SLOAD PUSH1 0x64 PUSH1 0x1 PUSH1 0x0 DUP8 PUSH20 0xFFFFFFFFFFFFFFFFFFFFFFFFFFFFFFFFFFFFFFFF AND PUSH20 0xFFFFFFFFFFFFFFFFFFFFFFFFFFFFFFFFFFFFFFFF AND DUP2 MSTORE PUSH1 0x20 ADD SWAP1 DUP2 MSTORE PUSH1 0x20 ADD PUSH1 0x0 KECCAK256 PUSH1 0x1 ADD SLOAD PUSH2 0xE06 SWAP2 SWAP1 PUSH2 0x4B2C JUMP JUMPDEST PUSH2 0xE10 SWAP2 SWAP1 PUSH2 0x4B2C JUMP JUMPDEST PUSH2 0xE1A SWAP2 SWAP1 PUSH2 0x4AFB JUMP JUMPDEST PUSH2 0xE24 SWAP2 SWAP1 PUSH2 0x4AFB JUMP JUMPDEST PUSH1 0x1 PUSH1 0x0 DUP5 PUSH20 0xFFFFFFFFFFFFFFFFFFFFFFFFFFFFFFFFFFFFFFFF AND PUSH20 0xFFFFFFFFFFFFFFFFFFFFFFFFFFFFFFFFFFFFFFFF AND DUP2 MSTORE PUSH1 0x20 ADD SWAP1 DUP2 MSTORE PUSH1 0x20 ADD PUSH1 0x0 KECCAK256 PUSH1 0x1 ADD SLOAD PUSH2 0xE71 SWAP2 SWAP1 PUSH2 0x4AA5 JUMP JUMPDEST SWAP1 POP PUSH1 0x0 PUSH1 0x8 PUSH1 0x1 ADD SLOAD PUSH1 0x2 PUSH1 0x1 ADD SLOAD DUP4 PUSH2 0xE8C SWAP2 SWAP1 PUSH2 0x4B2C JUMP JUMPDEST PUSH2 0xE96 SWAP2 SWAP1 PUSH2 0x4AFB JUMP JUMPDEST SWAP1 POP PUSH1 0x1 PUSH1 0x0 DUP5 PUSH20 0xFFFFFFFFFFFFFFFFFFFFFFFFFFFFFFFFFFFFFFFF AND PUSH20 0xFFFFFFFFFFFFFFFFFFFFFFFFFFFFFFFFFFFFFFFF AND DUP2 MSTORE PUSH1 0x20 ADD SWAP1 DUP2 MSTORE PUSH1 0x20 ADD PUSH1 0x0 KECCAK256 PUSH1 0x0 ADD SLOAD DUP2 GT ISZERO PUSH2 0xF28 JUMPI PUSH1 0x1 PUSH1 0x0 DUP5 PUSH20 0xFFFFFFFFFFFFFFFFFFFFFFFFFFFFFFFFFFFFFFFF AND PUSH20 0xFFFFFFFFFFFFFFFFFFFFFFFFFFFFFFFFFFFFFFFF AND DUP2 MSTORE PUSH1 0x20 ADD SWAP1 DUP2 MSTORE PUSH1 0x20 ADD PUSH1 0x0 KECCAK256 PUSH1 0x0 ADD SLOAD SWAP1 POP JUMPDEST PUSH1 0x0 PUSH1 0xA DUP3 PUSH2 0xF37 SWAP2 SWAP1 PUSH2 0x4AFB JUMP JUMPDEST SWAP1 POP DUP1 DUP3 PUSH2 0xF45 SWAP2 SWAP1 PUSH2 0x4B86 JUMP JUMPDEST PUSH1 0xE PUSH1 0x0 ADD PUSH1 0x0 DUP3 DUP3 SLOAD PUSH2 0xF59 SWAP2 SWAP1 PUSH2 0x4AA5 JUMP JUMPDEST SWAP3 POP POP DUP2 SWAP1 SSTORE POP DUP2 PUSH1 0x1 PUSH1 0x0 DUP7 PUSH20 0xFFFFFFFFFFFFFFFFFFFFFFFFFFFFFFFFFFFFFFFF AND PUSH20 0xFFFFFFFFFFFFFFFFFFFFFFFFFFFFFFFFFFFFFFFF AND DUP2 MSTORE PUSH1 0x20 ADD SWAP1 DUP2 MSTORE PUSH1 0x20 ADD PUSH1 0x0 KECCAK256 PUSH1 0x0 ADD PUSH1 0x0 DUP3 DUP3 SLOAD PUSH2 0xFB2 SWAP2 SWAP1 PUSH2 0x4B86 JUMP JUMPDEST SWAP3 POP POP DUP2 SWAP1 SSTORE POP PUSH1 0x0 PUSH1 0x1 PUSH1 0x0 DUP7 PUSH20 0xFFFFFFFFFFFFFFFFFFFFFFFFFFFFFFFFFFFFFFFF AND PUSH20 0xFFFFFFFFFFFFFFFFFFFFFFFFFFFFFFFFFFFFFFFF AND DUP2 MSTORE PUSH1 0x20 ADD SWAP1 DUP2 MSTORE PUSH1 0x20 ADD PUSH1 0x0 KECCAK256 PUSH1 0x1 ADD DUP2 SWAP1 SSTORE POP PUSH2 0x1073 PUSH1 0x18 PUSH1 0x2 SWAP1 SLOAD SWAP1 PUSH2 0x100 EXP SWAP1 DIV PUSH20 0xFFFFFFFFFFFFFFFFFFFFFFFFFFFFFFFFFFFFFFFF AND DUP3 PUSH1 0x8 PUSH1 0x0 ADD PUSH1 0x0 SWAP1 SLOAD SWAP1 PUSH2 0x100 EXP SWAP1 DIV PUSH20 0xFFFFFFFFFFFFFFFFFFFFFFFFFFFFFFFFFFFFFFFF AND PUSH20 0xFFFFFFFFFFFFFFFFFFFFFFFFFFFFFFFFFFFFFFFF AND PUSH2 0x3290 SWAP1 SWAP3 SWAP2 SWAP1 PUSH4 0xFFFFFFFF AND JUMP JUMPDEST DUP4 PUSH20 0xFFFFFFFFFFFFFFFFFFFFFFFFFFFFFFFFFFFFFFFF AND PUSH32 0x6DD29D11F8D1BCDBD79DA21BF92895417DCC2F8886B3DB11C8A4CE00B73DE9D0 DUP5 PUSH1 0x40 MLOAD PUSH2 0x10B9 SWAP2 SWAP1 PUSH2 0x4997 JUMP JUMPDEST PUSH1 0x40 MLOAD DUP1 SWAP2 SUB SWAP1 LOG2 POP POP POP POP JUMP JUMPDEST PUSH1 0x0 PUSH1 0x18 PUSH1 0x2 SWAP1 SLOAD SWAP1 PUSH2 0x100 EXP SWAP1 DIV PUSH20 0xFFFFFFFFFFFFFFFFFFFFFFFFFFFFFFFFFFFFFFFF AND SWAP1 POP SWAP1 JUMP JUMPDEST PUSH1 0x0 PUSH1 0x8 PUSH1 0x2 ADD SLOAD SWAP1 POP SWAP1 JUMP JUMPDEST PUSH32 0xFC8737AB85EB45125971625A9EBDB75CC78E01D5C1FA80C4C6E5203F47BC4FAB DUP2 JUMP JUMPDEST PUSH2 0x112A PUSH2 0x31B7 JUMP JUMPDEST PUSH20 0xFFFFFFFFFFFFFFFFFFFFFFFFFFFFFFFFFFFFFFFF AND DUP2 PUSH20 0xFFFFFFFFFFFFFFFFFFFFFFFFFFFFFFFFFFFFFFFF AND EQ PUSH2 0x1197 JUMPI PUSH1 0x40 MLOAD PUSH32 0x8C379A000000000000000000000000000000000000000000000000000000000 DUP2 MSTORE PUSH1 0x4 ADD PUSH2 0x118E SWAP1 PUSH2 0x4977 JUMP JUMPDEST PUSH1 0x40 MLOAD DUP1 SWAP2 SUB SWAP1 REVERT JUMPDEST PUSH2 0x11A1 DUP3 DUP3 PUSH2 0x3316 JUMP JUMPDEST POP POP JUMP JUMPDEST PUSH1 0x0 PUSH20 0xFFFFFFFFFFFFFFFFFFFFFFFFFFFFFFFFFFFFFFFF AND PUSH1 0x8 PUSH1 0x0 ADD PUSH1 0x0 SWAP1 SLOAD SWAP1 PUSH2 0x100 EXP SWAP1 DIV PUSH20 0xFFFFFFFFFFFFFFFFFFFFFFFFFFFFFFFFFFFFFFFF AND PUSH20 0xFFFFFFFFFFFFFFFFFFFFFFFFFFFFFFFFFFFFFFFF AND EQ DUP1 ISZERO PUSH2 0x1233 JUMPI POP PUSH1 0x0 PUSH20 0xFFFFFFFFFFFFFFFFFFFFFFFFFFFFFFFFFFFFFFFF AND DUP5 PUSH20 0xFFFFFFFFFFFFFFFFFFFFFFFFFFFFFFFFFFFFFFFF AND EQ ISZERO JUMPDEST PUSH2 0x1272 JUMPI PUSH1 0x40 MLOAD PUSH32 0x8C379A000000000000000000000000000000000000000000000000000000000 DUP2 MSTORE PUSH1 0x4 ADD PUSH2 0x1269 SWAP1 PUSH2 0x4957 JUMP JUMPDEST PUSH1 0x40 MLOAD DUP1 SWAP2 SUB SWAP1 REVERT JUMPDEST DUP4 PUSH1 0x8 PUSH1 0x0 ADD PUSH1 0x0 PUSH2 0x100 EXP DUP2 SLOAD DUP2 PUSH20 0xFFFFFFFFFFFFFFFFFFFFFFFFFFFFFFFFFFFFFFFF MUL NOT AND SWAP1 DUP4 PUSH20 0xFFFFFFFFFFFFFFFFFFFFFFFFFFFFFFFFFFFFFFFF AND MUL OR SWAP1 SSTORE POP DUP1 PUSH1 0x8 PUSH1 0x1 ADD DUP2 SWAP1 SSTORE POP DUP2 PUSH1 0x8 PUSH1 0x2 ADD DUP2 SWAP1 SSTORE POP DUP3 PUSH1 0x8 PUSH1 0x3 ADD DUP2 SWAP1 SSTORE POP POP POP POP POP JUMP JUMPDEST PUSH1 0x0 DUP1 PUSH1 0x0 DUP1 PUSH1 0xE PUSH1 0x6 ADD PUSH1 0x0 SWAP1 SLOAD SWAP1 PUSH2 0x100 EXP SWAP1 DIV PUSH20 0xFFFFFFFFFFFFFFFFFFFFFFFFFFFFFFFFFFFFFFFF AND SWAP1 POP PUSH1 0x0 DUP2 PUSH20 0xFFFFFFFFFFFFFFFFFFFFFFFFFFFFFFFFFFFFFFFF AND PUSH4 0x46EEE1C4 DUP8 PUSH1 0x40 MLOAD DUP3 PUSH4 0xFFFFFFFF AND PUSH1 0xE0 SHL DUP2 MSTORE PUSH1 0x4 ADD PUSH2 0x1343 SWAP2 SWAP1 PUSH2 0x4997 JUMP JUMPDEST PUSH1 0x20 PUSH1 0x40 MLOAD DUP1 DUP4 SUB DUP2 DUP7 DUP1 EXTCODESIZE ISZERO DUP1 ISZERO PUSH2 0x135B JUMPI PUSH1 0x0 DUP1 REVERT JUMPDEST POP GAS STATICCALL ISZERO DUP1 ISZERO PUSH2 0x136F JUMPI RETURNDATASIZE PUSH1 0x0 DUP1 RETURNDATACOPY RETURNDATASIZE PUSH1 0x0 REVERT JUMPDEST POP POP POP POP PUSH1 0x40 MLOAD RETURNDATASIZE PUSH1 0x1F NOT PUSH1 0x1F DUP3 ADD AND DUP3 ADD DUP1 PUSH1 0x40 MSTORE POP DUP2 ADD SWAP1 PUSH2 0x1393 SWAP2 SWAP1 PUSH2 0x41B6 JUMP JUMPDEST SWAP1 POP PUSH1 0x0 DUP3 PUSH20 0xFFFFFFFFFFFFFFFFFFFFFFFFFFFFFFFFFFFFFFFF AND PUSH4 0x77FBB663 DUP9 PUSH1 0x1 DUP6 PUSH2 0x13C1 SWAP2 SWAP1 PUSH2 0x4B86 JUMP JUMPDEST PUSH1 0x40 MLOAD DUP4 PUSH4 0xFFFFFFFF AND PUSH1 0xE0 SHL DUP2 MSTORE PUSH1 0x4 ADD PUSH2 0x13DE SWAP3 SWAP2 SWAP1 PUSH2 0x49B2 JUMP JUMPDEST PUSH1 0x20 PUSH1 0x40 MLOAD DUP1 DUP4 SUB DUP2 DUP7 DUP1 EXTCODESIZE ISZERO DUP1 ISZERO PUSH2 0x13F6 JUMPI PUSH1 0x0 DUP1 REVERT JUMPDEST POP GAS STATICCALL ISZERO DUP1 ISZERO PUSH2 0x140A JUMPI RETURNDATASIZE PUSH1 0x0 DUP1 RETURNDATACOPY RETURNDATASIZE PUSH1 0x0 REVERT JUMPDEST POP POP POP POP PUSH1 0x40 MLOAD RETURNDATASIZE PUSH1 0x1F NOT PUSH1 0x1F DUP3 ADD AND DUP3 ADD DUP1 PUSH1 0x40 MSTORE POP DUP2 ADD SWAP1 PUSH2 0x142E SWAP2 SWAP1 PUSH2 0x41B6 JUMP JUMPDEST SWAP1 POP PUSH1 0x0 DUP4 PUSH20 0xFFFFFFFFFFFFFFFFFFFFFFFFFFFFFFFFFFFFFFFF AND PUSH4 0x93FA4915 DUP10 DUP5 PUSH1 0x40 MLOAD DUP4 PUSH4 0xFFFFFFFF AND PUSH1 0xE0 SHL DUP2 MSTORE PUSH1 0x4 ADD PUSH2 0x146D SWAP3 SWAP2 SWAP1 PUSH2 0x49B2 JUMP JUMPDEST PUSH1 0x20 PUSH1 0x40 MLOAD DUP1 DUP4 SUB DUP2 DUP7 DUP1 EXTCODESIZE ISZERO DUP1 ISZERO PUSH2 0x1485 JUMPI PUSH1 0x0 DUP1 REVERT JUMPDEST POP GAS STATICCALL ISZERO DUP1 ISZERO PUSH2 0x1499 JUMPI RETURNDATASIZE PUSH1 0x0 DUP1 RETURNDATACOPY RETURNDATASIZE PUSH1 0x0 REVERT JUMPDEST POP POP POP POP PUSH1 0x40 MLOAD RETURNDATASIZE PUSH1 0x1F NOT PUSH1 0x1F DUP3 ADD AND DUP3 ADD DUP1 PUSH1 0x40 MSTORE POP DUP2 ADD SWAP1 PUSH2 0x14BD SWAP2 SWAP1 PUSH2 0x41B6 JUMP JUMPDEST SWAP1 POP PUSH1 0x0 DUP2 GT ISZERO PUSH2 0x14DB JUMPI PUSH1 0x1 DUP2 DUP4 SWAP7 POP SWAP7 POP SWAP7 POP POP POP POP POP PUSH2 0x14EA JUMP JUMPDEST PUSH1 0x0 DUP1 DUP4 SWAP7 POP SWAP7 POP SWAP7 POP POP POP POP POP JUMPDEST SWAP2 SWAP4 SWAP1 SWAP3 POP JUMP JUMPDEST PUSH1 0x0 PUSH20 0xFFFFFFFFFFFFFFFFFFFFFFFFFFFFFFFFFFFFFFFF AND DUP2 PUSH20 0xFFFFFFFFFFFFFFFFFFFFFFFFFFFFFFFFFFFFFFFF AND EQ ISZERO PUSH2 0x1561 JUMPI PUSH1 0x40 MLOAD PUSH32 0x8C379A000000000000000000000000000000000000000000000000000000000 DUP2 MSTORE PUSH1 0x4 ADD PUSH2 0x1558 SWAP1 PUSH2 0x4857 JUMP JUMPDEST PUSH1 0x40 MLOAD DUP1 SWAP2 SUB SWAP1 REVERT JUMPDEST PUSH2 0x158B PUSH32 0xFC8737AB85EB45125971625A9EBDB75CC78E01D5C1FA80C4C6E5203F47BC4FAB DUP3 PUSH2 0xCAB JUMP JUMPDEST POP JUMP JUMPDEST DUP1 PUSH1 0xE PUSH1 0x0 ADD SLOAD LT ISZERO PUSH2 0x15D6 JUMPI PUSH1 0x40 MLOAD PUSH32 0x8C379A000000000000000000000000000000000000000000000000000000000 DUP2 MSTORE PUSH1 0x4 ADD PUSH2 0x15CD SWAP1 PUSH2 0x4797 JUMP JUMPDEST PUSH1 0x40 MLOAD DUP1 SWAP2 SUB SWAP1 REVERT JUMPDEST PUSH1 0x0 PUSH1 0xC8 DUP3 PUSH2 0x15E5 SWAP2 SWAP1 PUSH2 0x4AFB JUMP JUMPDEST SWAP1 POP DUP2 PUSH1 0xE PUSH1 0x0 ADD PUSH1 0x0 DUP3 DUP3 SLOAD PUSH2 0x15FC SWAP2 SWAP1 PUSH2 0x4B86 JUMP JUMPDEST SWAP3 POP POP DUP2 SWAP1 SSTORE POP PUSH1 0x8 PUSH1 0x0 ADD PUSH1 0x0 SWAP1 SLOAD SWAP1 PUSH2 0x100 EXP SWAP1 DIV PUSH20 0xFFFFFFFFFFFFFFFFFFFFFFFFFFFFFFFFFFFFFFFF AND PUSH20 0xFFFFFFFFFFFFFFFFFFFFFFFFFFFFFFFFFFFFFFFF AND PUSH32 0x529AFC4538720FE0B3EADC40486369AB962002D72FEAD1387B300C66073E7BF DUP4 PUSH1 0x40 MLOAD PUSH2 0x166E SWAP2 SWAP1 PUSH2 0x4997 JUMP JUMPDEST PUSH1 0x40 MLOAD DUP1 SWAP2 SUB SWAP1 LOG2 PUSH2 0x16D1 CALLER DUP3 DUP5 PUSH2 0x1686 SWAP2 SWAP1 PUSH2 0x4B86 JUMP JUMPDEST PUSH1 0x8 PUSH1 0x0 ADD PUSH1 0x0 SWAP1 SLOAD SWAP1 PUSH2 0x100 EXP SWAP1 DIV PUSH20 0xFFFFFFFFFFFFFFFFFFFFFFFFFFFFFFFFFFFFFFFF AND PUSH20 0xFFFFFFFFFFFFFFFFFFFFFFFFFFFFFFFFFFFFFFFF AND PUSH2 0x3290 SWAP1 SWAP3 SWAP2 SWAP1 PUSH4 0xFFFFFFFF AND JUMP JUMPDEST PUSH2 0x1743 PUSH1 0x18 PUSH1 0x2 SWAP1 SLOAD SWAP1 PUSH2 0x100 EXP SWAP1 DIV PUSH20 0xFFFFFFFFFFFFFFFFFFFFFFFFFFFFFFFFFFFFFFFF AND DUP3 PUSH1 0x8 PUSH1 0x0 ADD PUSH1 0x0 SWAP1 SLOAD SWAP1 PUSH2 0x100 EXP SWAP1 DIV PUSH20 0xFFFFFFFFFFFFFFFFFFFFFFFFFFFFFFFFFFFFFFFF AND PUSH20 0xFFFFFFFFFFFFFFFFFFFFFFFFFFFFFFFFFFFFFFFF AND PUSH2 0x3290 SWAP1 SWAP3 SWAP2 SWAP1 PUSH4 0xFFFFFFFF AND JUMP JUMPDEST POP POP JUMP JUMPDEST PUSH2 0x1771 PUSH32 0xD96BA01D6560C2AB35F2940DD8D70C5F5FE06236C72674237120515918198FB0 CALLER PUSH2 0x26A4 JUMP JUMPDEST DUP1 PUSH2 0x1785 JUMPI POP PUSH2 0x1784 PUSH1 0x0 DUP1 SHL CALLER PUSH2 0x26A4 JUMP JUMPDEST JUMPDEST PUSH2 0x17C4 JUMPI PUSH1 0x40 MLOAD PUSH32 0x8C379A000000000000000000000000000000000000000000000000000000000 DUP2 MSTORE PUSH1 0x4 ADD PUSH2 0x17BB SWAP1 PUSH2 0x4917 JUMP JUMPDEST PUSH1 0x40 MLOAD DUP1 SWAP2 SUB SWAP1 REVERT JUMPDEST PUSH2 0x17D2 PUSH1 0x2 PUSH1 0x3 ADD SLOAD PUSH2 0x12DA JUMP JUMPDEST SWAP1 SWAP2 POP PUSH1 0x2 PUSH1 0x1 ADD PUSH1 0x0 PUSH1 0x2 PUSH1 0x5 ADD PUSH1 0x0 DUP5 SWAP2 SWAP1 POP SSTORE DUP4 SWAP2 SWAP1 POP SSTORE POP POP PUSH1 0x2 PUSH1 0x0 ADD PUSH1 0x0 SWAP1 SLOAD SWAP1 PUSH2 0x100 EXP SWAP1 DIV PUSH20 0xFFFFFFFFFFFFFFFFFFFFFFFFFFFFFFFFFFFFFFFF AND PUSH20 0xFFFFFFFFFFFFFFFFFFFFFFFFFFFFFFFFFFFFFFFF AND PUSH32 0x64E6E7BD72B853C4E62FD6CEACA05A104700C70A4CB567C75C7F2242BA7F037C PUSH1 0x2 PUSH1 0x1 ADD SLOAD PUSH1 0x40 MLOAD PUSH2 0x185F SWAP2 SWAP1 PUSH2 0x4997 JUMP JUMPDEST PUSH1 0x40 MLOAD DUP1 SWAP2 SUB SWAP1 LOG2 JUMP JUMPDEST PUSH2 0x1893 PUSH32 0xFC8737AB85EB45125971625A9EBDB75CC78E01D5C1FA80C4C6E5203F47BC4FAB DUP3 PUSH2 0x2A6E JUMP JUMPDEST POP JUMP JUMPDEST CALLER PUSH20 0xFFFFFFFFFFFFFFFFFFFFFFFFFFFFFFFFFFFFFFFF AND PUSH1 0x18 PUSH1 0x2 SWAP1 SLOAD SWAP1 PUSH2 0x100 EXP SWAP1 DIV PUSH20 0xFFFFFFFFFFFFFFFFFFFFFFFFFFFFFFFFFFFFFFFF AND PUSH20 0xFFFFFFFFFFFFFFFFFFFFFFFFFFFFFFFFFFFFFFFF AND EQ PUSH2 0x1926 JUMPI PUSH1 0x40 MLOAD PUSH32 0x8C379A000000000000000000000000000000000000000000000000000000000 DUP2 MSTORE PUSH1 0x4 ADD PUSH2 0x191D SWAP1 PUSH2 0x4877 JUMP JUMPDEST PUSH1 0x40 MLOAD DUP1 SWAP2 SUB SWAP1 REVERT JUMPDEST DUP1 PUSH1 0x18 PUSH1 0x2 PUSH2 0x100 EXP DUP2 SLOAD DUP2 PUSH20 0xFFFFFFFFFFFFFFFFFFFFFFFFFFFFFFFFFFFFFFFF MUL NOT AND SWAP1 DUP4 PUSH20 0xFFFFFFFFFFFFFFFFFFFFFFFFFFFFFFFFFFFFFFFF AND MUL OR SWAP1 SSTORE POP POP JUMP JUMPDEST PUSH1 0x0 PUSH1 0x1 PUSH1 0x0 CALLER PUSH20 0xFFFFFFFFFFFFFFFFFFFFFFFFFFFFFFFFFFFFFFFF AND PUSH20 0xFFFFFFFFFFFFFFFFFFFFFFFFFFFFFFFFFFFFFFFF AND DUP2 MSTORE PUSH1 0x20 ADD SWAP1 DUP2 MSTORE PUSH1 0x20 ADD PUSH1 0x0 KECCAK256 PUSH1 0x1 ADD SLOAD EQ PUSH2 0x1A03 JUMPI PUSH2 0x19BC PUSH2 0x27B7 JUMP JUMPDEST PUSH1 0x1 PUSH1 0x0 CALLER PUSH20 0xFFFFFFFFFFFFFFFFFFFFFFFFFFFFFFFFFFFFFFFF AND PUSH20 0xFFFFFFFFFFFFFFFFFFFFFFFFFFFFFFFFFFFFFFFF AND DUP2 MSTORE PUSH1 0x20 ADD SWAP1 DUP2 MSTORE PUSH1 0x20 ADD PUSH1 0x0 KECCAK256 PUSH1 0x1 ADD DUP2 SWAP1 SSTORE POP JUMPDEST PUSH1 0x0 PUSH1 0x64 PUSH1 0xE PUSH1 0x4 ADD SLOAD PUSH1 0x2 PUSH1 0x1 ADD SLOAD PUSH1 0x8 PUSH1 0x1 ADD SLOAD PUSH1 0x1 PUSH1 0x0 CALLER PUSH20 0xFFFFFFFFFFFFFFFFFFFFFFFFFFFFFFFFFFFFFFFF AND PUSH20 0xFFFFFFFFFFFFFFFFFFFFFFFFFFFFFFFFFFFFFFFF AND DUP2 MSTORE PUSH1 0x20 ADD SWAP1 DUP2 MSTORE PUSH1 0x20 ADD PUSH1 0x0 KECCAK256 PUSH1 0x0 ADD SLOAD PUSH2 0x1A66 SWAP2 SWAP1 PUSH2 0x4B2C JUMP JUMPDEST PUSH2 0x1A70 SWAP2 SWAP1 PUSH2 0x4AFB JUMP JUMPDEST PUSH2 0x1A7A SWAP2 SWAP1 PUSH2 0x4AFB JUMP JUMPDEST PUSH2 0x1A84 SWAP2 SWAP1 PUSH2 0x4B2C JUMP JUMPDEST SWAP1 POP PUSH1 0x2 DUP1 ADD SLOAD DUP2 PUSH2 0x1A96 SWAP2 SWAP1 PUSH2 0x4B2C JUMP JUMPDEST SWAP1 POP PUSH1 0x8 PUSH1 0x2 ADD SLOAD DUP2 PUSH2 0x1AA9 SWAP2 SWAP1 PUSH2 0x4AFB JUMP JUMPDEST SWAP1 POP PUSH1 0x1 PUSH1 0x0 CALLER PUSH20 0xFFFFFFFFFFFFFFFFFFFFFFFFFFFFFFFFFFFFFFFF AND PUSH20 0xFFFFFFFFFFFFFFFFFFFFFFFFFFFFFFFFFFFFFFFF AND DUP2 MSTORE PUSH1 0x20 ADD SWAP1 DUP2 MSTORE PUSH1 0x20 ADD PUSH1 0x0 KECCAK256 PUSH1 0x1 ADD SLOAD DUP2 PUSH2 0x1AF9 SWAP2 SWAP1 PUSH2 0x4B86 JUMP JUMPDEST SWAP1 POP PUSH2 0x2710 PUSH1 0xE PUSH1 0x3 ADD SLOAD DUP4 PUSH2 0x1B0F SWAP2 SWAP1 PUSH2 0x4B2C JUMP JUMPDEST PUSH2 0x1B19 SWAP2 SWAP1 PUSH2 0x4AFB JUMP JUMPDEST DUP3 PUSH2 0x1B24 SWAP2 SWAP1 PUSH2 0x4AA5 JUMP JUMPDEST PUSH1 0x1 PUSH1 0x0 CALLER PUSH20 0xFFFFFFFFFFFFFFFFFFFFFFFFFFFFFFFFFFFFFFFF AND PUSH20 0xFFFFFFFFFFFFFFFFFFFFFFFFFFFFFFFFFFFFFFFF AND DUP2 MSTORE PUSH1 0x20 ADD SWAP1 DUP2 MSTORE PUSH1 0x20 ADD PUSH1 0x0 KECCAK256 PUSH1 0x1 ADD PUSH1 0x0 DUP3 DUP3 SLOAD PUSH2 0x1B75 SWAP2 SWAP1 PUSH2 0x4AA5 JUMP JUMPDEST SWAP3 POP POP DUP2 SWAP1 SSTORE POP DUP1 PUSH1 0x1 PUSH1 0x0 CALLER PUSH20 0xFFFFFFFFFFFFFFFFFFFFFFFFFFFFFFFFFFFFFFFF AND PUSH20 0xFFFFFFFFFFFFFFFFFFFFFFFFFFFFFFFFFFFFFFFF AND DUP2 MSTORE PUSH1 0x20 ADD SWAP1 DUP2 MSTORE PUSH1 0x20 ADD PUSH1 0x0 KECCAK256 PUSH1 0x1 ADD SLOAD LT PUSH2 0x1C00 JUMPI PUSH1 0x40 MLOAD PUSH32 0x8C379A000000000000000000000000000000000000000000000000000000000 DUP2 MSTORE PUSH1 0x4 ADD PUSH2 0x1BF7 SWAP1 PUSH2 0x4897 JUMP JUMPDEST PUSH1 0x40 MLOAD DUP1 SWAP2 SUB SWAP1 REVERT JUMPDEST PUSH1 0x2 PUSH1 0x0 ADD PUSH1 0x0 SWAP1 SLOAD SWAP1 PUSH2 0x100 EXP SWAP1 DIV PUSH20 0xFFFFFFFFFFFFFFFFFFFFFFFFFFFFFFFFFFFFFFFF AND PUSH20 0xFFFFFFFFFFFFFFFFFFFFFFFFFFFFFFFFFFFFFFFF AND PUSH4 0x70A08231 ADDRESS PUSH1 0x40 MLOAD DUP3 PUSH4 0xFFFFFFFF AND PUSH1 0xE0 SHL DUP2 MSTORE PUSH1 0x4 ADD PUSH2 0x1C5E SWAP2 SWAP1 PUSH2 0x460D JUMP JUMPDEST PUSH1 0x20 PUSH1 0x40 MLOAD DUP1 DUP4 SUB DUP2 DUP7 DUP1 EXTCODESIZE ISZERO DUP1 ISZERO PUSH2 0x1C76 JUMPI PUSH1 0x0 DUP1 REVERT JUMPDEST POP GAS STATICCALL ISZERO DUP1 ISZERO PUSH2 0x1C8A JUMPI RETURNDATASIZE PUSH1 0x0 DUP1 RETURNDATACOPY RETURNDATASIZE PUSH1 0x0 REVERT JUMPDEST POP POP POP POP PUSH1 0x40 MLOAD RETURNDATASIZE PUSH1 0x1F NOT PUSH1 0x1F DUP3 ADD AND DUP3 ADD DUP1 PUSH1 0x40 MSTORE POP DUP2 ADD SWAP1 PUSH2 0x1CAE SWAP2 SWAP1 PUSH2 0x41B6 JUMP JUMPDEST DUP3 GT ISZERO PUSH2 0x1CF0 JUMPI PUSH1 0x40 MLOAD PUSH32 0x8C379A000000000000000000000000000000000000000000000000000000000 DUP2 MSTORE PUSH1 0x4 ADD PUSH2 0x1CE7 SWAP1 PUSH2 0x4737 JUMP JUMPDEST PUSH1 0x40 MLOAD DUP1 SWAP2 SUB SWAP1 REVERT JUMPDEST PUSH1 0xE PUSH1 0x7 ADD SLOAD PUSH1 0x1 PUSH1 0x0 CALLER PUSH20 0xFFFFFFFFFFFFFFFFFFFFFFFFFFFFFFFFFFFFFFFF AND PUSH20 0xFFFFFFFFFFFFFFFFFFFFFFFFFFFFFFFFFFFFFFFF AND DUP2 MSTORE PUSH1 0x20 ADD SWAP1 DUP2 MSTORE PUSH1 0x20 ADD PUSH1 0x0 KECCAK256 PUSH1 0x2 ADD SLOAD TIMESTAMP PUSH2 0x1D44 SWAP2 SWAP1 PUSH2 0x4B86 JUMP JUMPDEST GT ISZERO PUSH2 0x1D92 JUMPI TIMESTAMP PUSH1 0x1 PUSH1 0x0 CALLER PUSH20 0xFFFFFFFFFFFFFFFFFFFFFFFFFFFFFFFFFFFFFFFF AND PUSH20 0xFFFFFFFFFFFFFFFFFFFFFFFFFFFFFFFFFFFFFFFF AND DUP2 MSTORE PUSH1 0x20 ADD SWAP1 DUP2 MSTORE PUSH1 0x20 ADD PUSH1 0x0 KECCAK256 PUSH1 0x2 ADD DUP2 SWAP1 SSTORE POP JUMPDEST DUP2 PUSH1 0xE PUSH1 0x1 ADD PUSH1 0x0 DUP3 DUP3 SLOAD PUSH2 0x1DA7 SWAP2 SWAP1 PUSH2 0x4B86 JUMP JUMPDEST SWAP3 POP POP DUP2 SWAP1 SSTORE POP PUSH2 0x1DFE CALLER DUP4 PUSH1 0x2 PUSH1 0x0 ADD PUSH1 0x0 SWAP1 SLOAD SWAP1 PUSH2 0x100 EXP SWAP1 DIV PUSH20 0xFFFFFFFFFFFFFFFFFFFFFFFFFFFFFFFFFFFFFFFF AND PUSH20 0xFFFFFFFFFFFFFFFFFFFFFFFFFFFFFFFFFFFFFFFF AND PUSH2 0x3290 SWAP1 SWAP3 SWAP2 SWAP1 PUSH4 0xFFFFFFFF AND JUMP JUMPDEST CALLER PUSH20 0xFFFFFFFFFFFFFFFFFFFFFFFFFFFFFFFFFFFFFFFF AND PUSH32 0x232862A021D33EA4A70F5D509B754F0F6986AAA0FFDD5C7DB4910422AFC768A DUP4 PUSH1 0x40 MLOAD PUSH2 0x1E44 SWAP2 SWAP1 PUSH2 0x4997 JUMP JUMPDEST PUSH1 0x40 MLOAD DUP1 SWAP2 SUB SWAP1 LOG2 POP POP JUMP JUMPDEST PUSH1 0x0 PUSH1 0xE PUSH1 0x2 ADD SLOAD SWAP1 POP SWAP1 JUMP JUMPDEST PUSH1 0x0 PUSH1 0x8 PUSH1 0x5 ADD SLOAD SWAP1 POP SWAP1 JUMP JUMPDEST PUSH1 0x0 DUP2 GT PUSH2 0x1EAD JUMPI PUSH1 0x40 MLOAD PUSH32 0x8C379A000000000000000000000000000000000000000000000000000000000 DUP2 MSTORE PUSH1 0x4 ADD PUSH2 0x1EA4 SWAP1 PUSH2 0x47D7 JUMP JUMPDEST PUSH1 0x40 MLOAD DUP1 SWAP2 SUB SWAP1 REVERT JUMPDEST DUP1 PUSH1 0x1 PUSH1 0x0 CALLER PUSH20 0xFFFFFFFFFFFFFFFFFFFFFFFFFFFFFFFFFFFFFFFF AND PUSH20 0xFFFFFFFFFFFFFFFFFFFFFFFFFFFFFFFFFFFFFFFF AND DUP2 MSTORE PUSH1 0x20 ADD SWAP1 DUP2 MSTORE PUSH1 0x20 ADD PUSH1 0x0 KECCAK256 PUSH1 0x0 ADD PUSH1 0x0 DUP3 DUP3 SLOAD PUSH2 0x1EFF SWAP2 SWAP1 PUSH2 0x4AA5 JUMP JUMPDEST SWAP3 POP POP DUP2 SWAP1 SSTORE POP DUP1 PUSH1 0xE PUSH1 0x0 ADD PUSH1 0x0 DUP3 DUP3 SLOAD PUSH2 0x1F1B SWAP2 SWAP1 PUSH2 0x4AA5 JUMP JUMPDEST SWAP3 POP POP DUP2 SWAP1 SSTORE POP PUSH2 0x1F74 CALLER ADDRESS DUP4 PUSH1 0x8 PUSH1 0x0 ADD PUSH1 0x0 SWAP1 SLOAD SWAP1 PUSH2 0x100 EXP SWAP1 DIV PUSH20 0xFFFFFFFFFFFFFFFFFFFFFFFFFFFFFFFFFFFFFFFF AND PUSH20 0xFFFFFFFFFFFFFFFFFFFFFFFFFFFFFFFFFFFFFFFF AND PUSH2 0x30B4 SWAP1 SWAP4 SWAP3 SWAP2 SWAP1 PUSH4 0xFFFFFFFF AND JUMP JUMPDEST CALLER PUSH20 0xFFFFFFFFFFFFFFFFFFFFFFFFFFFFFFFFFFFFFFFF AND PUSH32 0x89D28CF06BDB2EE1B92CD046D58450042AD113E9F4CDABFC4D43E7C5557758D7 DUP3 PUSH1 0x40 MLOAD PUSH2 0x1FBA SWAP2 SWAP1 PUSH2 0x4997 JUMP JUMPDEST PUSH1 0x40 MLOAD DUP1 SWAP2 SUB SWAP1 LOG2 POP JUMP JUMPDEST PUSH1 0x0 PUSH1 0x1 PUSH1 0x0 CALLER PUSH20 0xFFFFFFFFFFFFFFFFFFFFFFFFFFFFFFFFFFFFFFFF AND PUSH20 0xFFFFFFFFFFFFFFFFFFFFFFFFFFFFFFFFFFFFFFFF AND DUP2 MSTORE PUSH1 0x20 ADD SWAP1 DUP2 MSTORE PUSH1 0x20 ADD PUSH1 0x0 KECCAK256 PUSH1 0x1 ADD SLOAD SWAP1 POP SWAP1 JUMP JUMPDEST PUSH1 0x0 PUSH1 0x8 PUSH1 0x0 ADD PUSH1 0x0 SWAP1 SLOAD SWAP1 PUSH2 0x100 EXP SWAP1 DIV PUSH20 0xFFFFFFFFFFFFFFFFFFFFFFFFFFFFFFFFFFFFFFFF AND SWAP1 POP SWAP1 JUMP JUMPDEST PUSH1 0x18 PUSH1 0x1 SWAP1 SLOAD SWAP1 PUSH2 0x100 EXP SWAP1 DIV PUSH1 0xFF AND DUP1 PUSH2 0x2064 JUMPI POP PUSH1 0x18 PUSH1 0x0 SWAP1 SLOAD SWAP1 PUSH2 0x100 EXP SWAP1 DIV PUSH1 0xFF AND ISZERO JUMPDEST PUSH2 0x20A3 JUMPI PUSH1 0x40 MLOAD PUSH32 0x8C379A000000000000000000000000000000000000000000000000000000000 DUP2 MSTORE PUSH1 0x4 ADD PUSH2 0x209A SWAP1 PUSH2 0x48B7 JUMP JUMPDEST PUSH1 0x40 MLOAD DUP1 SWAP2 SUB SWAP1 REVERT JUMPDEST PUSH1 0x0 PUSH1 0x18 PUSH1 0x1 SWAP1 SLOAD SWAP1 PUSH2 0x100 EXP SWAP1 DIV PUSH1 0xFF AND ISZERO SWAP1 POP DUP1 ISZERO PUSH2 0x20F5 JUMPI PUSH1 0x1 PUSH1 0x18 PUSH1 0x1 PUSH2 0x100 EXP DUP2 SLOAD DUP2 PUSH1 0xFF MUL NOT AND SWAP1 DUP4 ISZERO ISZERO MUL OR SWAP1 SSTORE POP PUSH1 0x1 PUSH1 0x18 PUSH1 0x0 PUSH2 0x100 EXP DUP2 SLOAD DUP2 PUSH1 0xFF MUL NOT AND SWAP1 DUP4 ISZERO ISZERO MUL OR SWAP1 SSTORE POP JUMPDEST PUSH2 0x2133 PUSH1 0x40 MLOAD DUP1 PUSH1 0x40 ADD PUSH1 0x40 MSTORE DUP1 PUSH1 0x1B DUP2 MSTORE PUSH1 0x20 ADD PUSH32 0x42616E6B2E696E6974282920686173206265656E2063616C6C65640000000000 DUP2 MSTORE POP PUSH2 0x334A JUMP JUMPDEST PUSH2 0x2140 PUSH1 0x0 DUP1 SHL DUP12 PUSH2 0x33E3 JUMP JUMPDEST DUP8 PUSH1 0xE PUSH1 0x2 ADD DUP2 SWAP1 SSTORE POP DUP7 PUSH1 0xE PUSH1 0x3 ADD DUP2 SWAP1 SSTORE POP DUP6 PUSH1 0xE PUSH1 0x4 ADD DUP2 SWAP1 SSTORE POP DUP2 PUSH1 0xE PUSH1 0x6 ADD PUSH1 0x0 PUSH2 0x100 EXP DUP2 SLOAD DUP2 PUSH20 0xFFFFFFFFFFFFFFFFFFFFFFFFFFFFFFFFFFFFFFFF MUL NOT AND SWAP1 DUP4 PUSH20 0xFFFFFFFFFFFFFFFFFFFFFFFFFFFFFFFFFFFFFFFF AND MUL OR SWAP1 SSTORE POP DUP5 PUSH1 0xE PUSH1 0x5 ADD DUP2 SWAP1 SSTORE POP DUP4 PUSH1 0xE PUSH1 0x7 ADD DUP2 SWAP1 SSTORE POP DUP3 PUSH1 0x18 PUSH1 0x2 PUSH2 0x100 EXP DUP2 SLOAD DUP2 PUSH20 0xFFFFFFFFFFFFFFFFFFFFFFFFFFFFFFFFFFFFFFFF MUL NOT AND SWAP1 DUP4 PUSH20 0xFFFFFFFFFFFFFFFFFFFFFFFFFFFFFFFFFFFFFFFF AND MUL OR SWAP1 SSTORE POP DUP9 PUSH1 0x0 SWAP1 DUP1 MLOAD SWAP1 PUSH1 0x20 ADD SWAP1 PUSH2 0x220D SWAP3 SWAP2 SWAP1 PUSH2 0x3D62 JUMP JUMPDEST POP DUP1 ISZERO PUSH2 0x2230 JUMPI PUSH1 0x0 PUSH1 0x18 PUSH1 0x1 PUSH2 0x100 EXP DUP2 SLOAD DUP2 PUSH1 0xFF MUL NOT AND SWAP1 DUP4 ISZERO ISZERO MUL OR SWAP1 SSTORE POP JUMPDEST POP POP POP POP POP POP POP POP POP POP JUMP JUMPDEST PUSH1 0x0 DUP2 GT PUSH2 0x227F JUMPI PUSH1 0x40 MLOAD PUSH32 0x8C379A000000000000000000000000000000000000000000000000000000000 DUP2 MSTORE PUSH1 0x4 ADD PUSH2 0x2276 SWAP1 PUSH2 0x47D7 JUMP JUMPDEST PUSH1 0x40 MLOAD DUP1 SWAP2 SUB SWAP1 REVERT JUMPDEST PUSH2 0x2287 PUSH2 0x27B7 JUMP JUMPDEST PUSH1 0x1 PUSH1 0x0 CALLER PUSH20 0xFFFFFFFFFFFFFFFFFFFFFFFFFFFFFFFFFFFFFFFF AND PUSH20 0xFFFFFFFFFFFFFFFFFFFFFFFFFFFFFFFFFFFFFFFF AND DUP2 MSTORE PUSH1 0x20 ADD SWAP1 DUP2 MSTORE PUSH1 0x20 ADD PUSH1 0x0 KECCAK256 PUSH1 0x1 ADD DUP2 SWAP1 SSTORE POP PUSH1 0x1 PUSH1 0x0 CALLER PUSH20 0xFFFFFFFFFFFFFFFFFFFFFFFFFFFFFFFFFFFFFFFF AND PUSH20 0xFFFFFFFFFFFFFFFFFFFFFFFFFFFFFFFFFFFFFFFF AND DUP2 MSTORE PUSH1 0x20 ADD SWAP1 DUP2 MSTORE PUSH1 0x20 ADD PUSH1 0x0 KECCAK256 PUSH1 0x1 ADD SLOAD DUP2 GT ISZERO PUSH2 0x2352 JUMPI PUSH1 0x40 MLOAD PUSH32 0x8C379A000000000000000000000000000000000000000000000000000000000 DUP2 MSTORE PUSH1 0x4 ADD PUSH2 0x2349 SWAP1 PUSH2 0x4757 JUMP JUMPDEST PUSH1 0x40 MLOAD DUP1 SWAP2 SUB SWAP1 REVERT JUMPDEST DUP1 PUSH1 0x1 PUSH1 0x0 CALLER PUSH20 0xFFFFFFFFFFFFFFFFFFFFFFFFFFFFFFFFFFFFFFFF AND PUSH20 0xFFFFFFFFFFFFFFFFFFFFFFFFFFFFFFFFFFFFFFFF AND DUP2 MSTORE PUSH1 0x20 ADD SWAP1 DUP2 MSTORE PUSH1 0x20 ADD PUSH1 0x0 KECCAK256 PUSH1 0x1 ADD PUSH1 0x0 DUP3 DUP3 SLOAD PUSH2 0x23A4 SWAP2 SWAP1 PUSH2 0x4B86 JUMP JUMPDEST SWAP3 POP POP DUP2 SWAP1 SSTORE POP DUP1 PUSH1 0xE PUSH1 0x1 ADD PUSH1 0x0 DUP3 DUP3 SLOAD PUSH2 0x23C0 SWAP2 SWAP1 PUSH2 0x4AA5 JUMP JUMPDEST SWAP3 POP POP DUP2 SWAP1 SSTORE POP PUSH1 0x0 PUSH1 0xE PUSH1 0x7 ADD SLOAD PUSH1 0x1 PUSH1 0x0 CALLER PUSH20 0xFFFFFFFFFFFFFFFFFFFFFFFFFFFFFFFFFFFFFFFF AND PUSH20 0xFFFFFFFFFFFFFFFFFFFFFFFFFFFFFFFFFFFFFFFF AND DUP2 MSTORE PUSH1 0x20 ADD SWAP1 DUP2 MSTORE PUSH1 0x20 ADD PUSH1 0x0 KECCAK256 PUSH1 0x2 ADD SLOAD PUSH2 0x241C SWAP2 SWAP1 PUSH2 0x4AFB JUMP JUMPDEST PUSH1 0xE PUSH1 0x7 ADD SLOAD TIMESTAMP PUSH2 0x242D SWAP2 SWAP1 PUSH2 0x4AFB JUMP JUMPDEST PUSH2 0x2437 SWAP2 SWAP1 PUSH2 0x4B86 JUMP JUMPDEST SWAP1 POP PUSH1 0xE PUSH1 0x7 ADD SLOAD DUP2 PUSH2 0x244A SWAP2 SWAP1 PUSH2 0x4B2C JUMP JUMPDEST PUSH1 0x1 PUSH1 0x0 CALLER PUSH20 0xFFFFFFFFFFFFFFFFFFFFFFFFFFFFFFFFFFFFFFFF AND PUSH20 0xFFFFFFFFFFFFFFFFFFFFFFFFFFFFFFFFFFFFFFFF AND DUP2 MSTORE PUSH1 0x20 ADD SWAP1 DUP2 MSTORE PUSH1 0x20 ADD PUSH1 0x0 KECCAK256 PUSH1 0x2 ADD PUSH1 0x0 DUP3 DUP3 SLOAD PUSH2 0x249B SWAP2 SWAP1 PUSH2 0x4AA5 JUMP JUMPDEST SWAP3 POP POP DUP2 SWAP1 SSTORE POP PUSH2 0x24F4 CALLER ADDRESS DUP5 PUSH1 0x2 PUSH1 0x0 ADD PUSH1 0x0 SWAP1 SLOAD SWAP1 PUSH2 0x100 EXP SWAP1 DIV PUSH20 0xFFFFFFFFFFFFFFFFFFFFFFFFFFFFFFFFFFFFFFFF AND PUSH20 0xFFFFFFFFFFFFFFFFFFFFFFFFFFFFFFFFFFFFFFFF AND PUSH2 0x30B4 SWAP1 SWAP4 SWAP3 SWAP2 SWAP1 PUSH4 0xFFFFFFFF AND JUMP JUMPDEST CALLER PUSH20 0xFFFFFFFFFFFFFFFFFFFFFFFFFFFFFFFFFFFFFFFF AND PUSH32 0x34D657CD4DEC79D6716CE5AC15B81DE5751705030CBEF01B43B15EAE44CBC112 DUP4 PUSH1 0x40 MLOAD PUSH2 0x253A SWAP2 SWAP1 PUSH2 0x4997 JUMP JUMPDEST PUSH1 0x40 MLOAD DUP1 SWAP2 SUB SWAP1 LOG2 POP POP JUMP JUMPDEST PUSH2 0x2570 PUSH32 0xD96BA01D6560C2AB35F2940DD8D70C5F5FE06236C72674237120515918198FB0 CALLER PUSH2 0x26A4 JUMP JUMPDEST DUP1 PUSH2 0x2584 JUMPI POP PUSH2 0x2583 PUSH1 0x0 DUP1 SHL CALLER PUSH2 0x26A4 JUMP JUMPDEST JUMPDEST PUSH2 0x25C3 JUMPI PUSH1 0x40 MLOAD PUSH32 0x8C379A000000000000000000000000000000000000000000000000000000000 DUP2 MSTORE PUSH1 0x4 ADD PUSH2 0x25BA SWAP1 PUSH2 0x4917 JUMP JUMPDEST PUSH1 0x40 MLOAD DUP1 SWAP2 SUB SWAP1 REVERT JUMPDEST PUSH2 0x25D1 PUSH1 0x8 PUSH1 0x3 ADD SLOAD PUSH2 0x12DA JUMP JUMPDEST SWAP1 SWAP2 POP PUSH1 0x8 PUSH1 0x1 ADD PUSH1 0x0 PUSH1 0x8 PUSH1 0x5 ADD PUSH1 0x0 DUP5 SWAP2 SWAP1 POP SSTORE DUP4 SWAP2 SWAP1 POP SSTORE POP POP PUSH1 0x8 PUSH1 0x0 ADD PUSH1 0x0 SWAP1 SLOAD SWAP1 PUSH2 0x100 EXP SWAP1 DIV PUSH20 0xFFFFFFFFFFFFFFFFFFFFFFFFFFFFFFFFFFFFFFFF AND PUSH20 0xFFFFFFFFFFFFFFFFFFFFFFFFFFFFFFFFFFFFFFFF AND PUSH32 0x64E6E7BD72B853C4E62FD6CEACA05A104700C70A4CB567C75C7F2242BA7F037C PUSH1 0x8 PUSH1 0x1 ADD SLOAD PUSH1 0x40 MLOAD PUSH2 0x265E SWAP2 SWAP1 PUSH2 0x4997 JUMP JUMPDEST PUSH1 0x40 MLOAD DUP1 SWAP2 SUB SWAP1 LOG2 JUMP JUMPDEST PUSH1 0x0 PUSH1 0xE PUSH1 0x4 ADD SLOAD SWAP1 POP SWAP1 JUMP JUMPDEST PUSH1 0x0 PUSH2 0x269C DUP3 PUSH1 0x17 PUSH1 0x0 DUP7 DUP2 MSTORE PUSH1 0x20 ADD SWAP1 DUP2 MSTORE PUSH1 0x20 ADD PUSH1 0x0 KECCAK256 PUSH2 0x33F1 SWAP1 SWAP2 SWAP1 PUSH4 0xFFFFFFFF AND JUMP JUMPDEST SWAP1 POP SWAP3 SWAP2 POP POP JUMP JUMPDEST PUSH1 0x0 PUSH1 0x16 PUSH1 0x0 DUP5 DUP2 MSTORE PUSH1 0x20 ADD SWAP1 DUP2 MSTORE PUSH1 0x20 ADD PUSH1 0x0 KECCAK256 PUSH1 0x0 ADD PUSH1 0x0 DUP4 PUSH20 0xFFFFFFFFFFFFFFFFFFFFFFFFFFFFFFFFFFFFFFFF AND PUSH20 0xFFFFFFFFFFFFFFFFFFFFFFFFFFFFFFFFFFFFFFFF AND DUP2 MSTORE PUSH1 0x20 ADD SWAP1 DUP2 MSTORE PUSH1 0x20 ADD PUSH1 0x0 KECCAK256 PUSH1 0x0 SWAP1 SLOAD SWAP1 PUSH2 0x100 EXP SWAP1 DIV PUSH1 0xFF AND SWAP1 POP SWAP3 SWAP2 POP POP JUMP JUMPDEST PUSH2 0x2739 PUSH32 0xD96BA01D6560C2AB35F2940DD8D70C5F5FE06236C72674237120515918198FB0 DUP3 PUSH2 0x2A6E JUMP JUMPDEST POP JUMP JUMPDEST PUSH1 0x0 DUP1 SHL DUP2 JUMP JUMPDEST PUSH1 0x1 PUSH1 0x20 MSTORE DUP1 PUSH1 0x0 MSTORE PUSH1 0x40 PUSH1 0x0 KECCAK256 PUSH1 0x0 SWAP2 POP SWAP1 POP DUP1 PUSH1 0x0 ADD SLOAD SWAP1 DUP1 PUSH1 0x1 ADD SLOAD SWAP1 DUP1 PUSH1 0x2 ADD SLOAD SWAP1 POP DUP4 JUMP JUMPDEST PUSH1 0x0 PUSH1 0x1 PUSH1 0x0 CALLER PUSH20 0xFFFFFFFFFFFFFFFFFFFFFFFFFFFFFFFFFFFFFFFF AND PUSH20 0xFFFFFFFFFFFFFFFFFFFFFFFFFFFFFFFFFFFFFFFF AND DUP2 MSTORE PUSH1 0x20 ADD SWAP1 DUP2 MSTORE PUSH1 0x20 ADD PUSH1 0x0 KECCAK256 PUSH1 0x0 ADD SLOAD SWAP1 POP SWAP1 JUMP JUMPDEST PUSH1 0x0 PUSH1 0x1 PUSH1 0x0 CALLER PUSH20 0xFFFFFFFFFFFFFFFFFFFFFFFFFFFFFFFFFFFFFFFF AND PUSH20 0xFFFFFFFFFFFFFFFFFFFFFFFFFFFFFFFFFFFFFFFF AND DUP2 MSTORE PUSH1 0x20 ADD SWAP1 DUP2 MSTORE PUSH1 0x20 ADD PUSH1 0x0 KECCAK256 PUSH1 0x1 ADD SLOAD SWAP1 POP PUSH1 0x0 PUSH1 0xE PUSH1 0x7 ADD SLOAD PUSH4 0x1E13380 PUSH2 0x2815 SWAP2 SWAP1 PUSH2 0x4AFB JUMP JUMPDEST SWAP1 POP PUSH1 0x0 PUSH1 0xE PUSH1 0x7 ADD SLOAD PUSH1 0x1 PUSH1 0x0 CALLER PUSH20 0xFFFFFFFFFFFFFFFFFFFFFFFFFFFFFFFFFFFFFFFF AND PUSH20 0xFFFFFFFFFFFFFFFFFFFFFFFFFFFFFFFFFFFFFFFF AND DUP2 MSTORE PUSH1 0x20 ADD SWAP1 DUP2 MSTORE PUSH1 0x20 ADD PUSH1 0x0 KECCAK256 PUSH1 0x2 ADD SLOAD PUSH2 0x286C SWAP2 SWAP1 PUSH2 0x4AFB JUMP JUMPDEST PUSH1 0xE PUSH1 0x7 ADD SLOAD TIMESTAMP PUSH2 0x287D SWAP2 SWAP1 PUSH2 0x4AFB JUMP JUMPDEST PUSH2 0x2887 SWAP2 SWAP1 PUSH2 0x4B86 JUMP JUMPDEST SWAP1 POP DUP1 DUP3 PUSH2 0x2710 PUSH1 0xE PUSH1 0x2 ADD SLOAD DUP7 PUSH2 0x289F SWAP2 SWAP1 PUSH2 0x4B2C JUMP JUMPDEST PUSH2 0x28A9 SWAP2 SWAP1 PUSH2 0x4AFB JUMP JUMPDEST PUSH2 0x28B3 SWAP2 SWAP1 PUSH2 0x4AFB JUMP JUMPDEST PUSH2 0x28BD SWAP2 SWAP1 PUSH2 0x4B2C JUMP JUMPDEST DUP4 PUSH2 0x28C8 SWAP2 SWAP1 PUSH2 0x4AA5 JUMP JUMPDEST SWAP3 POP POP POP SWAP1 JUMP JUMPDEST PUSH1 0x0 PUSH20 0xFFFFFFFFFFFFFFFFFFFFFFFFFFFFFFFFFFFFFFFF AND PUSH1 0x2 PUSH1 0x0 ADD PUSH1 0x0 SWAP1 SLOAD SWAP1 PUSH2 0x100 EXP SWAP1 DIV PUSH20 0xFFFFFFFFFFFFFFFFFFFFFFFFFFFFFFFFFFFFFFFF AND PUSH20 0xFFFFFFFFFFFFFFFFFFFFFFFFFFFFFFFFFFFFFFFF AND EQ DUP1 ISZERO PUSH2 0x295D JUMPI POP PUSH1 0x0 PUSH20 0xFFFFFFFFFFFFFFFFFFFFFFFFFFFFFFFFFFFFFFFF AND DUP5 PUSH20 0xFFFFFFFFFFFFFFFFFFFFFFFFFFFFFFFFFFFFFFFF AND EQ ISZERO JUMPDEST PUSH2 0x299C JUMPI PUSH1 0x40 MLOAD PUSH32 0x8C379A000000000000000000000000000000000000000000000000000000000 DUP2 MSTORE PUSH1 0x4 ADD PUSH2 0x2993 SWAP1 PUSH2 0x4957 JUMP JUMPDEST PUSH1 0x40 MLOAD DUP1 SWAP2 SUB SWAP1 REVERT JUMPDEST DUP4 PUSH1 0x2 PUSH1 0x0 ADD PUSH1 0x0 PUSH2 0x100 EXP DUP2 SLOAD DUP2 PUSH20 0xFFFFFFFFFFFFFFFFFFFFFFFFFFFFFFFFFFFFFFFF MUL NOT AND SWAP1 DUP4 PUSH20 0xFFFFFFFFFFFFFFFFFFFFFFFFFFFFFFFFFFFFFFFF AND MUL OR SWAP1 SSTORE POP DUP1 PUSH1 0x2 PUSH1 0x1 ADD DUP2 SWAP1 SSTORE POP DUP2 PUSH1 0x2 DUP1 ADD DUP2 SWAP1 SSTORE POP DUP3 PUSH1 0x2 PUSH1 0x3 ADD DUP2 SWAP1 SSTORE POP POP POP POP POP JUMP JUMPDEST PUSH1 0x0 PUSH1 0x2 PUSH1 0x1 ADD SLOAD SWAP1 POP SWAP1 JUMP JUMPDEST PUSH1 0x0 PUSH2 0x2A2D PUSH1 0x17 PUSH1 0x0 DUP5 DUP2 MSTORE PUSH1 0x20 ADD SWAP1 DUP2 MSTORE PUSH1 0x20 ADD PUSH1 0x0 KECCAK256 PUSH2 0x340B JUMP JUMPDEST SWAP1 POP SWAP2 SWAP1 POP JUMP JUMPDEST PUSH1 0x0 PUSH1 0xE PUSH1 0x1 ADD SLOAD SWAP1 POP SWAP1 JUMP JUMPDEST PUSH1 0x0 PUSH1 0x2 PUSH1 0x0 ADD PUSH1 0x0 SWAP1 SLOAD SWAP1 PUSH2 0x100 EXP SWAP1 DIV PUSH20 0xFFFFFFFFFFFFFFFFFFFFFFFFFFFFFFFFFFFFFFFF AND SWAP1 POP SWAP1 JUMP JUMPDEST PUSH2 0x2A77 DUP3 PUSH2 0xC8B JUMP JUMPDEST PUSH2 0x2A88 DUP2 PUSH2 0x2A83 PUSH2 0x31B7 JUMP JUMPDEST PUSH2 0x31BF JUMP JUMPDEST PUSH2 0x2A92 DUP4 DUP4 PUSH2 0x3316 JUMP JUMPDEST POP POP POP JUMP JUMPDEST PUSH1 0x0 PUSH20 0xFFFFFFFFFFFFFFFFFFFFFFFFFFFFFFFFFFFFFFFF AND DUP2 PUSH20 0xFFFFFFFFFFFFFFFFFFFFFFFFFFFFFFFFFFFFFFFF AND EQ ISZERO PUSH2 0x2B07 JUMPI PUSH1 0x40 MLOAD PUSH32 0x8C379A000000000000000000000000000000000000000000000000000000000 DUP2 MSTORE PUSH1 0x4 ADD PUSH2 0x2AFE SWAP1 PUSH2 0x4857 JUMP JUMPDEST PUSH1 0x40 MLOAD DUP1 SWAP2 SUB SWAP1 REVERT JUMPDEST PUSH2 0x2B31 PUSH32 0xD96BA01D6560C2AB35F2940DD8D70C5F5FE06236C72674237120515918198FB0 DUP3 PUSH2 0xCAB JUMP JUMPDEST POP JUMP JUMPDEST DUP1 PUSH1 0x2 PUSH1 0x0 ADD PUSH1 0x0 SWAP1 SLOAD SWAP1 PUSH2 0x100 EXP SWAP1 DIV PUSH20 0xFFFFFFFFFFFFFFFFFFFFFFFFFFFFFFFFFFFFFFFF AND PUSH20 0xFFFFFFFFFFFFFFFFFFFFFFFFFFFFFFFFFFFFFFFF AND PUSH4 0x70A08231 ADDRESS PUSH1 0x40 MLOAD DUP3 PUSH4 0xFFFFFFFF AND PUSH1 0xE0 SHL DUP2 MSTORE PUSH1 0x4 ADD PUSH2 0x2B93 SWAP2 SWAP1 PUSH2 0x460D JUMP JUMPDEST PUSH1 0x20 PUSH1 0x40 MLOAD DUP1 DUP4 SUB DUP2 DUP7 DUP1 EXTCODESIZE ISZERO DUP1 ISZERO PUSH2 0x2BAB JUMPI PUSH1 0x0 DUP1 REVERT JUMPDEST POP GAS STATICCALL ISZERO DUP1 ISZERO PUSH2 0x2BBF JUMPI RETURNDATASIZE PUSH1 0x0 DUP1 RETURNDATACOPY RETURNDATASIZE PUSH1 0x0 REVERT JUMPDEST POP POP POP POP PUSH1 0x40 MLOAD RETURNDATASIZE PUSH1 0x1F NOT PUSH1 0x1F DUP3 ADD AND DUP3 ADD DUP1 PUSH1 0x40 MSTORE POP DUP2 ADD SWAP1 PUSH2 0x2BE3 SWAP2 SWAP1 PUSH2 0x41B6 JUMP JUMPDEST LT ISZERO PUSH2 0x2C24 JUMPI PUSH1 0x40 MLOAD PUSH32 0x8C379A000000000000000000000000000000000000000000000000000000000 DUP2 MSTORE PUSH1 0x4 ADD PUSH2 0x2C1B SWAP1 PUSH2 0x4817 JUMP JUMPDEST PUSH1 0x40 MLOAD DUP1 SWAP2 SUB SWAP1 REVERT JUMPDEST PUSH1 0x0 PUSH1 0xC8 DUP3 PUSH2 0x2C33 SWAP2 SWAP1 PUSH2 0x4AFB JUMP JUMPDEST SWAP1 POP DUP2 PUSH1 0xE PUSH1 0x1 ADD PUSH1 0x0 DUP3 DUP3 SLOAD PUSH2 0x2C4A SWAP2 SWAP1 PUSH2 0x4B86 JUMP JUMPDEST SWAP3 POP POP DUP2 SWAP1 SSTORE POP PUSH2 0x2CAC CALLER DUP3 DUP5 PUSH2 0x2C61 SWAP2 SWAP1 PUSH2 0x4B86 JUMP JUMPDEST PUSH1 0x2 PUSH1 0x0 ADD PUSH1 0x0 SWAP1 SLOAD SWAP1 PUSH2 0x100 EXP SWAP1 DIV PUSH20 0xFFFFFFFFFFFFFFFFFFFFFFFFFFFFFFFFFFFFFFFF AND PUSH20 0xFFFFFFFFFFFFFFFFFFFFFFFFFFFFFFFFFFFFFFFF AND PUSH2 0x3290 SWAP1 SWAP3 SWAP2 SWAP1 PUSH4 0xFFFFFFFF AND JUMP JUMPDEST PUSH2 0x2D1E PUSH1 0x18 PUSH1 0x2 SWAP1 SLOAD SWAP1 PUSH2 0x100 EXP SWAP1 DIV PUSH20 0xFFFFFFFFFFFFFFFFFFFFFFFFFFFFFFFFFFFFFFFF AND DUP3 PUSH1 0x2 PUSH1 0x0 ADD PUSH1 0x0 SWAP1 SLOAD SWAP1 PUSH2 0x100 EXP SWAP1 DIV PUSH20 0xFFFFFFFFFFFFFFFFFFFFFFFFFFFFFFFFFFFFFFFF AND PUSH20 0xFFFFFFFFFFFFFFFFFFFFFFFFFFFFFFFFFFFFFFFF AND PUSH2 0x3290 SWAP1 SWAP3 SWAP2 SWAP1 PUSH4 0xFFFFFFFF AND JUMP JUMPDEST PUSH1 0x2 PUSH1 0x0 ADD PUSH1 0x0 SWAP1 SLOAD SWAP1 PUSH2 0x100 EXP SWAP1 DIV PUSH20 0xFFFFFFFFFFFFFFFFFFFFFFFFFFFFFFFFFFFFFFFF AND PUSH20 0xFFFFFFFFFFFFFFFFFFFFFFFFFFFFFFFFFFFFFFFF AND PUSH32 0x529AFC4538720FE0B3EADC40486369AB962002D72FEAD1387B300C66073E7BF DUP4 PUSH1 0x40 MLOAD PUSH2 0x2D89 SWAP2 SWAP1 PUSH2 0x4997 JUMP JUMPDEST PUSH1 0x40 MLOAD DUP1 SWAP2 SUB SWAP1 LOG2 POP POP JUMP JUMPDEST PUSH1 0x0 PUSH1 0x2 PUSH1 0x5 ADD SLOAD SWAP1 POP SWAP1 JUMP JUMPDEST PUSH1 0x0 PUSH1 0xE PUSH1 0x0 ADD SLOAD SWAP1 POP SWAP1 JUMP JUMPDEST PUSH1 0x1 PUSH1 0x0 CALLER PUSH20 0xFFFFFFFFFFFFFFFFFFFFFFFFFFFFFFFFFFFFFFFF AND PUSH20 0xFFFFFFFFFFFFFFFFFFFFFFFFFFFFFFFFFFFFFFFF AND DUP2 MSTORE PUSH1 0x20 ADD SWAP1 DUP2 MSTORE PUSH1 0x20 ADD PUSH1 0x0 KECCAK256 PUSH1 0x0 ADD SLOAD DUP2 GT ISZERO PUSH2 0x2E34 JUMPI PUSH1 0x40 MLOAD PUSH32 0x8C379A000000000000000000000000000000000000000000000000000000000 DUP2 MSTORE PUSH1 0x4 ADD PUSH2 0x2E2B SWAP1 PUSH2 0x4837 JUMP JUMPDEST PUSH1 0x40 MLOAD DUP1 SWAP2 SUB SWAP1 REVERT JUMPDEST PUSH1 0x0 PUSH1 0x64 PUSH1 0xE PUSH1 0x4 ADD SLOAD PUSH1 0x2 PUSH1 0x1 ADD SLOAD PUSH1 0x8 PUSH1 0x1 ADD SLOAD DUP6 PUSH1 0x1 PUSH1 0x0 CALLER PUSH20 0xFFFFFFFFFFFFFFFFFFFFFFFFFFFFFFFFFFFFFFFF AND PUSH20 0xFFFFFFFFFFFFFFFFFFFFFFFFFFFFFFFFFFFFFFFF AND DUP2 MSTORE PUSH1 0x20 ADD SWAP1 DUP2 MSTORE PUSH1 0x20 ADD PUSH1 0x0 KECCAK256 PUSH1 0x0 ADD SLOAD PUSH2 0x2E98 SWAP2 SWAP1 PUSH2 0x4B86 JUMP JUMPDEST PUSH2 0x2EA2 SWAP2 SWAP1 PUSH2 0x4B2C JUMP JUMPDEST PUSH2 0x2EAC SWAP2 SWAP1 PUSH2 0x4AFB JUMP JUMPDEST PUSH2 0x2EB6 SWAP2 SWAP1 PUSH2 0x4AFB JUMP JUMPDEST PUSH2 0x2EC0 SWAP2 SWAP1 PUSH2 0x4B2C JUMP JUMPDEST SWAP1 POP PUSH1 0x2 DUP1 ADD SLOAD DUP2 PUSH2 0x2ED2 SWAP2 SWAP1 PUSH2 0x4B2C JUMP JUMPDEST SWAP1 POP PUSH1 0x8 PUSH1 0x2 ADD SLOAD DUP2 PUSH2 0x2EE5 SWAP2 SWAP1 PUSH2 0x4AFB JUMP JUMPDEST SWAP1 POP DUP1 PUSH1 0x1 PUSH1 0x0 CALLER PUSH20 0xFFFFFFFFFFFFFFFFFFFFFFFFFFFFFFFFFFFFFFFF AND PUSH20 0xFFFFFFFFFFFFFFFFFFFFFFFFFFFFFFFFFFFFFFFF AND DUP2 MSTORE PUSH1 0x20 ADD SWAP1 DUP2 MSTORE PUSH1 0x20 ADD PUSH1 0x0 KECCAK256 PUSH1 0x1 ADD SLOAD GT ISZERO PUSH2 0x2F6C JUMPI PUSH1 0x40 MLOAD PUSH32 0x8C379A000000000000000000000000000000000000000000000000000000000 DUP2 MSTORE PUSH1 0x4 ADD PUSH2 0x2F63 SWAP1 PUSH2 0x48D7 JUMP JUMPDEST PUSH1 0x40 MLOAD DUP1 SWAP2 SUB SWAP1 REVERT JUMPDEST DUP2 PUSH1 0x1 PUSH1 0x0 CALLER PUSH20 0xFFFFFFFFFFFFFFFFFFFFFFFFFFFFFFFFFFFFFFFF AND PUSH20 0xFFFFFFFFFFFFFFFFFFFFFFFFFFFFFFFFFFFFFFFF AND DUP2 MSTORE PUSH1 0x20 ADD SWAP1 DUP2 MSTORE PUSH1 0x20 ADD PUSH1 0x0 KECCAK256 PUSH1 0x0 ADD PUSH1 0x0 DUP3 DUP3 SLOAD PUSH2 0x2FBE SWAP2 SWAP1 PUSH2 0x4B86 JUMP JUMPDEST SWAP3 POP POP DUP2 SWAP1 SSTORE POP DUP2 PUSH1 0xE PUSH1 0x0 ADD PUSH1 0x0 DUP3 DUP3 SLOAD PUSH2 0x2FDA SWAP2 SWAP1 PUSH2 0x4B86 JUMP JUMPDEST SWAP3 POP POP DUP2 SWAP1 SSTORE POP PUSH2 0x3031 CALLER DUP4 PUSH1 0x8 PUSH1 0x0 ADD PUSH1 0x0 SWAP1 SLOAD SWAP1 PUSH2 0x100 EXP SWAP1 DIV PUSH20 0xFFFFFFFFFFFFFFFFFFFFFFFFFFFFFFFFFFFFFFFF AND PUSH20 0xFFFFFFFFFFFFFFFFFFFFFFFFFFFFFFFFFFFFFFFF AND PUSH2 0x3290 SWAP1 SWAP3 SWAP2 SWAP1 PUSH4 0xFFFFFFFF AND JUMP JUMPDEST CALLER PUSH20 0xFFFFFFFFFFFFFFFFFFFFFFFFFFFFFFFFFFFFFFFF AND PUSH32 0xAC60FBF53B67F5A6A0C8031DD9D1610A06F01669B1A8B9AF98F3A6A477E8D7C DUP4 PUSH1 0x40 MLOAD PUSH2 0x3077 SWAP2 SWAP1 PUSH2 0x4997 JUMP JUMPDEST PUSH1 0x40 MLOAD DUP1 SWAP2 SUB SWAP1 LOG2 POP POP JUMP JUMPDEST PUSH32 0xD96BA01D6560C2AB35F2940DD8D70C5F5FE06236C72674237120515918198FB0 DUP2 JUMP JUMPDEST PUSH1 0x0 PUSH1 0xE PUSH1 0x3 ADD SLOAD SWAP1 POP SWAP1 JUMP JUMPDEST PUSH2 0x3137 DUP5 PUSH4 0x23B872DD PUSH1 0xE0 SHL DUP6 DUP6 DUP6 PUSH1 0x40 MLOAD PUSH1 0x24 ADD PUSH2 0x30D5 SWAP4 SWAP3 SWAP2 SWAP1 PUSH2 0x4628 JUMP JUMPDEST PUSH1 0x40 MLOAD PUSH1 0x20 DUP2 DUP4 SUB SUB DUP2 MSTORE SWAP1 PUSH1 0x40 MSTORE SWAP1 PUSH28 0xFFFFFFFFFFFFFFFFFFFFFFFFFFFFFFFFFFFFFFFFFFFFFFFFFFFFFFFF NOT AND PUSH1 0x20 DUP3 ADD DUP1 MLOAD PUSH28 0xFFFFFFFFFFFFFFFFFFFFFFFFFFFFFFFFFFFFFFFFFFFFFFFFFFFFFFFF DUP4 DUP2 DUP4 AND OR DUP4 MSTORE POP POP POP POP PUSH2 0x3420 JUMP JUMPDEST POP POP POP POP JUMP JUMPDEST PUSH1 0x0 PUSH32 0x7965DB0B00000000000000000000000000000000000000000000000000000000 PUSH28 0xFFFFFFFFFFFFFFFFFFFFFFFFFFFFFFFFFFFFFFFFFFFFFFFFFFFFFFFF NOT AND DUP3 PUSH28 0xFFFFFFFFFFFFFFFFFFFFFFFFFFFFFFFFFFFFFFFFFFFFFFFFFFFFFFFF NOT AND EQ DUP1 PUSH2 0x31B0 JUMPI POP PUSH2 0x31AF DUP3 PUSH2 0x34E7 JUMP JUMPDEST JUMPDEST SWAP1 POP SWAP2 SWAP1 POP JUMP JUMPDEST PUSH1 0x0 CALLER SWAP1 POP SWAP1 JUMP JUMPDEST PUSH2 0x31C9 DUP3 DUP3 PUSH2 0x26A4 JUMP JUMPDEST PUSH2 0x3258 JUMPI PUSH2 0x31EE DUP2 PUSH20 0xFFFFFFFFFFFFFFFFFFFFFFFFFFFFFFFFFFFFFFFF AND PUSH1 0x14 PUSH2 0x3551 JUMP JUMPDEST PUSH2 0x31FC DUP4 PUSH1 0x0 SHR PUSH1 0x20 PUSH2 0x3551 JUMP JUMPDEST PUSH1 0x40 MLOAD PUSH1 0x20 ADD PUSH2 0x320D SWAP3 SWAP2 SWAP1 PUSH2 0x45D3 JUMP JUMPDEST PUSH1 0x40 MLOAD PUSH1 0x20 DUP2 DUP4 SUB SUB DUP2 MSTORE SWAP1 PUSH1 0x40 MSTORE PUSH1 0x40 MLOAD PUSH32 0x8C379A000000000000000000000000000000000000000000000000000000000 DUP2 MSTORE PUSH1 0x4 ADD PUSH2 0x324F SWAP2 SWAP1 PUSH2 0x46F5 JUMP JUMPDEST PUSH1 0x40 MLOAD DUP1 SWAP2 SUB SWAP1 REVERT JUMPDEST POP POP JUMP JUMPDEST PUSH2 0x3266 DUP3 DUP3 PUSH2 0x378D JUMP JUMPDEST PUSH2 0x328B DUP2 PUSH1 0x17 PUSH1 0x0 DUP6 DUP2 MSTORE PUSH1 0x20 ADD SWAP1 DUP2 MSTORE PUSH1 0x20 ADD PUSH1 0x0 KECCAK256 PUSH2 0x386E SWAP1 SWAP2 SWAP1 PUSH4 0xFFFFFFFF AND JUMP JUMPDEST POP POP POP JUMP JUMPDEST PUSH2 0x3311 DUP4 PUSH4 0xA9059CBB PUSH1 0xE0 SHL DUP5 DUP5 PUSH1 0x40 MLOAD PUSH1 0x24 ADD PUSH2 0x32AF SWAP3 SWAP2 SWAP1 PUSH2 0x465F JUMP JUMPDEST PUSH1 0x40 MLOAD PUSH1 0x20 DUP2 DUP4 SUB SUB DUP2 MSTORE SWAP1 PUSH1 0x40 MSTORE SWAP1 PUSH28 0xFFFFFFFFFFFFFFFFFFFFFFFFFFFFFFFFFFFFFFFFFFFFFFFFFFFFFFFF NOT AND PUSH1 0x20 DUP3 ADD DUP1 MLOAD PUSH28 0xFFFFFFFFFFFFFFFFFFFFFFFFFFFFFFFFFFFFFFFFFFFFFFFFFFFFFFFF DUP4 DUP2 DUP4 AND OR DUP4 MSTORE POP POP POP POP PUSH2 0x3420 JUMP JUMPDEST POP POP POP JUMP JUMPDEST PUSH2 0x3320 DUP3 DUP3 PUSH2 0x389E JUMP JUMPDEST PUSH2 0x3345 DUP2 PUSH1 0x17 PUSH1 0x0 DUP6 DUP2 MSTORE PUSH1 0x20 ADD SWAP1 DUP2 MSTORE PUSH1 0x20 ADD PUSH1 0x0 KECCAK256 PUSH2 0x3980 SWAP1 SWAP2 SWAP1 PUSH4 0xFFFFFFFF AND JUMP JUMPDEST POP POP POP JUMP JUMPDEST PUSH2 0x33E0 DUP2 PUSH1 0x40 MLOAD PUSH1 0x24 ADD PUSH2 0x335E SWAP2 SWAP1 PUSH2 0x46F5 JUMP JUMPDEST PUSH1 0x40 MLOAD PUSH1 0x20 DUP2 DUP4 SUB SUB DUP2 MSTORE SWAP1 PUSH1 0x40 MSTORE PUSH32 0x41304FAC00000000000000000000000000000000000000000000000000000000 PUSH28 0xFFFFFFFFFFFFFFFFFFFFFFFFFFFFFFFFFFFFFFFFFFFFFFFFFFFFFFFF NOT AND PUSH1 0x20 DUP3 ADD DUP1 MLOAD PUSH28 0xFFFFFFFFFFFFFFFFFFFFFFFFFFFFFFFFFFFFFFFFFFFFFFFFFFFFFFFF DUP4 DUP2 DUP4 AND OR DUP4 MSTORE POP POP POP POP PUSH2 0x39B0 JUMP JUMPDEST POP JUMP JUMPDEST PUSH2 0x33ED DUP3 DUP3 PUSH2 0x325C JUMP JUMPDEST POP POP JUMP JUMPDEST PUSH1 0x0 PUSH2 0x3400 DUP4 PUSH1 0x0 ADD DUP4 PUSH2 0x39D9 JUMP JUMPDEST PUSH1 0x0 SHR SWAP1 POP SWAP3 SWAP2 POP POP JUMP JUMPDEST PUSH1 0x0 PUSH2 0x3419 DUP3 PUSH1 0x0 ADD PUSH2 0x3A04 JUMP JUMPDEST SWAP1 POP SWAP2 SWAP1 POP JUMP JUMPDEST PUSH1 0x0 PUSH2 0x3482 DUP3 PUSH1 0x40 MLOAD DUP1 PUSH1 0x40 ADD PUSH1 0x40 MSTORE DUP1 PUSH1 0x20 DUP2 MSTORE PUSH1 0x20 ADD PUSH32 0x5361666545524332303A206C6F772D6C6576656C2063616C6C206661696C6564 DUP2 MSTORE POP DUP6 PUSH20 0xFFFFFFFFFFFFFFFFFFFFFFFFFFFFFFFFFFFFFFFF AND PUSH2 0x3A15 SWAP1 SWAP3 SWAP2 SWAP1 PUSH4 0xFFFFFFFF AND JUMP JUMPDEST SWAP1 POP PUSH1 0x0 DUP2 MLOAD GT ISZERO PUSH2 0x34E2 JUMPI DUP1 DUP1 PUSH1 0x20 ADD SWAP1 MLOAD DUP2 ADD SWAP1 PUSH2 0x34A2 SWAP2 SWAP1 PUSH2 0x4082 JUMP JUMPDEST PUSH2 0x34E1 JUMPI PUSH1 0x40 MLOAD PUSH32 0x8C379A000000000000000000000000000000000000000000000000000000000 DUP2 MSTORE PUSH1 0x4 ADD PUSH2 0x34D8 SWAP1 PUSH2 0x4937 JUMP JUMPDEST PUSH1 0x40 MLOAD DUP1 SWAP2 SUB SWAP1 REVERT JUMPDEST JUMPDEST POP POP POP JUMP JUMPDEST PUSH1 0x0 PUSH32 0x1FFC9A700000000000000000000000000000000000000000000000000000000 PUSH28 0xFFFFFFFFFFFFFFFFFFFFFFFFFFFFFFFFFFFFFFFFFFFFFFFFFFFFFFFF NOT AND DUP3 PUSH28 0xFFFFFFFFFFFFFFFFFFFFFFFFFFFFFFFFFFFFFFFFFFFFFFFFFFFFFFFF NOT AND EQ SWAP1 POP SWAP2 SWAP1 POP JUMP JUMPDEST PUSH1 0x60 PUSH1 0x0 PUSH1 0x2 DUP4 PUSH1 0x2 PUSH2 0x3564 SWAP2 SWAP1 PUSH2 0x4B2C JUMP JUMPDEST PUSH2 0x356E SWAP2 SWAP1 PUSH2 0x4AA5 JUMP JUMPDEST PUSH8 0xFFFFFFFFFFFFFFFF DUP2 GT ISZERO PUSH2 0x3587 JUMPI PUSH2 0x3586 PUSH2 0x4E04 JUMP JUMPDEST JUMPDEST PUSH1 0x40 MLOAD SWAP1 DUP1 DUP3 MSTORE DUP1 PUSH1 0x1F ADD PUSH1 0x1F NOT AND PUSH1 0x20 ADD DUP3 ADD PUSH1 0x40 MSTORE DUP1 ISZERO PUSH2 0x35B9 JUMPI DUP2 PUSH1 0x20 ADD PUSH1 0x1 DUP3 MUL DUP1 CALLDATASIZE DUP4 CALLDATACOPY DUP1 DUP3 ADD SWAP2 POP POP SWAP1 POP JUMPDEST POP SWAP1 POP PUSH32 0x3000000000000000000000000000000000000000000000000000000000000000 DUP2 PUSH1 0x0 DUP2 MLOAD DUP2 LT PUSH2 0x35F1 JUMPI PUSH2 0x35F0 PUSH2 0x4DD5 JUMP JUMPDEST JUMPDEST PUSH1 0x20 ADD ADD SWAP1 PUSH31 0xFFFFFFFFFFFFFFFFFFFFFFFFFFFFFFFFFFFFFFFFFFFFFFFFFFFFFFFFFFFFFF NOT AND SWAP1 DUP2 PUSH1 0x0 BYTE SWAP1 MSTORE8 POP PUSH32 0x7800000000000000000000000000000000000000000000000000000000000000 DUP2 PUSH1 0x1 DUP2 MLOAD DUP2 LT PUSH2 0x3655 JUMPI PUSH2 0x3654 PUSH2 0x4DD5 JUMP JUMPDEST JUMPDEST PUSH1 0x20 ADD ADD SWAP1 PUSH31 0xFFFFFFFFFFFFFFFFFFFFFFFFFFFFFFFFFFFFFFFFFFFFFFFFFFFFFFFFFFFFFF NOT AND SWAP1 DUP2 PUSH1 0x0 BYTE SWAP1 MSTORE8 POP PUSH1 0x0 PUSH1 0x1 DUP5 PUSH1 0x2 PUSH2 0x3695 SWAP2 SWAP1 PUSH2 0x4B2C JUMP JUMPDEST PUSH2 0x369F SWAP2 SWAP1 PUSH2 0x4AA5 JUMP JUMPDEST SWAP1 POP JUMPDEST PUSH1 0x1 DUP2 GT ISZERO PUSH2 0x373F JUMPI PUSH32 0x3031323334353637383961626364656600000000000000000000000000000000 PUSH1 0xF DUP7 AND PUSH1 0x10 DUP2 LT PUSH2 0x36E1 JUMPI PUSH2 0x36E0 PUSH2 0x4DD5 JUMP JUMPDEST JUMPDEST BYTE PUSH1 0xF8 SHL DUP3 DUP3 DUP2 MLOAD DUP2 LT PUSH2 0x36F8 JUMPI PUSH2 0x36F7 PUSH2 0x4DD5 JUMP JUMPDEST JUMPDEST PUSH1 0x20 ADD ADD SWAP1 PUSH31 0xFFFFFFFFFFFFFFFFFFFFFFFFFFFFFFFFFFFFFFFFFFFFFFFFFFFFFFFFFFFFFF NOT AND SWAP1 DUP2 PUSH1 0x0 BYTE SWAP1 MSTORE8 POP PUSH1 0x4 DUP6 SWAP1 SHR SWAP5 POP DUP1 PUSH2 0x3738 SWAP1 PUSH2 0x4C8C JUMP JUMPDEST SWAP1 POP PUSH2 0x36A2 JUMP JUMPDEST POP PUSH1 0x0 DUP5 EQ PUSH2 0x3783 JUMPI PUSH1 0x40 MLOAD PUSH32 0x8C379A000000000000000000000000000000000000000000000000000000000 DUP2 MSTORE PUSH1 0x4 ADD PUSH2 0x377A SWAP1 PUSH2 0x4717 JUMP JUMPDEST PUSH1 0x40 MLOAD DUP1 SWAP2 SUB SWAP1 REVERT JUMPDEST DUP1 SWAP2 POP POP SWAP3 SWAP2 POP POP JUMP JUMPDEST PUSH2 0x3797 DUP3 DUP3 PUSH2 0x26A4 JUMP JUMPDEST PUSH2 0x386A JUMPI PUSH1 0x1 PUSH1 0x16 PUSH1 0x0 DUP5 DUP2 MSTORE PUSH1 0x20 ADD SWAP1 DUP2 MSTORE PUSH1 0x20 ADD PUSH1 0x0 KECCAK256 PUSH1 0x0 ADD PUSH1 0x0 DUP4 PUSH20 0xFFFFFFFFFFFFFFFFFFFFFFFFFFFFFFFFFFFFFFFF AND PUSH20 0xFFFFFFFFFFFFFFFFFFFFFFFFFFFFFFFFFFFFFFFF AND DUP2 MSTORE PUSH1 0x20 ADD SWAP1 DUP2 MSTORE PUSH1 0x20 ADD PUSH1 0x0 KECCAK256 PUSH1 0x0 PUSH2 0x100 EXP DUP2 SLOAD DUP2 PUSH1 0xFF MUL NOT AND SWAP1 DUP4 ISZERO ISZERO MUL OR SWAP1 SSTORE POP PUSH2 0x380F PUSH2 0x31B7 JUMP JUMPDEST PUSH20 0xFFFFFFFFFFFFFFFFFFFFFFFFFFFFFFFFFFFFFFFF AND DUP2 PUSH20 0xFFFFFFFFFFFFFFFFFFFFFFFFFFFFFFFFFFFFFFFF AND DUP4 PUSH32 0x2F8788117E7EFF1D82E926EC794901D17C78024A50270940304540A733656F0D PUSH1 0x40 MLOAD PUSH1 0x40 MLOAD DUP1 SWAP2 SUB SWAP1 LOG4 JUMPDEST POP POP JUMP JUMPDEST PUSH1 0x0 PUSH2 0x3896 DUP4 PUSH1 0x0 ADD DUP4 PUSH20 0xFFFFFFFFFFFFFFFFFFFFFFFFFFFFFFFFFFFFFFFF AND PUSH1 0x0 SHL PUSH2 0x3A2D JUMP JUMPDEST SWAP1 POP SWAP3 SWAP2 POP POP JUMP JUMPDEST PUSH2 0x38A8 DUP3 DUP3 PUSH2 0x26A4 JUMP JUMPDEST ISZERO PUSH2 0x397C JUMPI PUSH1 0x0 PUSH1 0x16 PUSH1 0x0 DUP5 DUP2 MSTORE PUSH1 0x20 ADD SWAP1 DUP2 MSTORE PUSH1 0x20 ADD PUSH1 0x0 KECCAK256 PUSH1 0x0 ADD PUSH1 0x0 DUP4 PUSH20 0xFFFFFFFFFFFFFFFFFFFFFFFFFFFFFFFFFFFFFFFF AND PUSH20 0xFFFFFFFFFFFFFFFFFFFFFFFFFFFFFFFFFFFFFFFF AND DUP2 MSTORE PUSH1 0x20 ADD SWAP1 DUP2 MSTORE PUSH1 0x20 ADD PUSH1 0x0 KECCAK256 PUSH1 0x0 PUSH2 0x100 EXP DUP2 SLOAD DUP2 PUSH1 0xFF MUL NOT AND SWAP1 DUP4 ISZERO ISZERO MUL OR SWAP1 SSTORE POP PUSH2 0x3921 PUSH2 0x31B7 JUMP JUMPDEST PUSH20 0xFFFFFFFFFFFFFFFFFFFFFFFFFFFFFFFFFFFFFFFF AND DUP2 PUSH20 0xFFFFFFFFFFFFFFFFFFFFFFFFFFFFFFFFFFFFFFFF AND DUP4 PUSH32 0xF6391F5C32D9C69D2A47EA670B442974B53935D1EDC7FD64EB21E047A839171B PUSH1 0x40 MLOAD PUSH1 0x40 MLOAD DUP1 SWAP2 SUB SWAP1 LOG4 JUMPDEST POP POP JUMP JUMPDEST PUSH1 0x0 PUSH2 0x39A8 DUP4 PUSH1 0x0 ADD DUP4 PUSH20 0xFFFFFFFFFFFFFFFFFFFFFFFFFFFFFFFFFFFFFFFF AND PUSH1 0x0 SHL PUSH2 0x3A9D JUMP JUMPDEST SWAP1 POP SWAP3 SWAP2 POP POP JUMP JUMPDEST PUSH1 0x0 DUP2 MLOAD SWAP1 POP PUSH1 0x0 PUSH11 0x636F6E736F6C652E6C6F67 SWAP1 POP PUSH1 0x20 DUP4 ADD PUSH1 0x0 DUP1 DUP5 DUP4 DUP6 GAS STATICCALL POP POP POP POP POP JUMP JUMPDEST PUSH1 0x0 DUP3 PUSH1 0x0 ADD DUP3 DUP2 SLOAD DUP2 LT PUSH2 0x39F1 JUMPI PUSH2 0x39F0 PUSH2 0x4DD5 JUMP JUMPDEST JUMPDEST SWAP1 PUSH1 0x0 MSTORE PUSH1 0x20 PUSH1 0x0 KECCAK256 ADD SLOAD SWAP1 POP SWAP3 SWAP2 POP POP JUMP JUMPDEST PUSH1 0x0 DUP2 PUSH1 0x0 ADD DUP1 SLOAD SWAP1 POP SWAP1 POP SWAP2 SWAP1 POP JUMP JUMPDEST PUSH1 0x60 PUSH2 0x3A24 DUP5 DUP5 PUSH1 0x0 DUP6 PUSH2 0x3BB1 JUMP JUMPDEST SWAP1 POP SWAP4 SWAP3 POP POP POP JUMP JUMPDEST PUSH1 0x0 PUSH2 0x3A39 DUP4 DUP4 PUSH2 0x3CC5 JUMP JUMPDEST PUSH2 0x3A92 JUMPI DUP3 PUSH1 0x0 ADD DUP3 SWAP1 DUP1 PUSH1 0x1 DUP2 SLOAD ADD DUP1 DUP3 SSTORE DUP1 SWAP2 POP POP PUSH1 0x1 SWAP1 SUB SWAP1 PUSH1 0x0 MSTORE PUSH1 0x20 PUSH1 0x0 KECCAK256 ADD PUSH1 0x0 SWAP1 SWAP2 SWAP1 SWAP2 SWAP1 SWAP2 POP SSTORE DUP3 PUSH1 0x0 ADD DUP1 SLOAD SWAP1 POP DUP4 PUSH1 0x1 ADD PUSH1 0x0 DUP5 DUP2 MSTORE PUSH1 0x20 ADD SWAP1 DUP2 MSTORE PUSH1 0x20 ADD PUSH1 0x0 KECCAK256 DUP2 SWAP1 SSTORE POP PUSH1 0x1 SWAP1 POP PUSH2 0x3A97 JUMP JUMPDEST PUSH1 0x0 SWAP1 POP JUMPDEST SWAP3 SWAP2 POP POP JUMP JUMPDEST PUSH1 0x0 DUP1 DUP4 PUSH1 0x1 ADD PUSH1 0x0 DUP5 DUP2 MSTORE PUSH1 0x20 ADD SWAP1 DUP2 MSTORE PUSH1 0x20 ADD PUSH1 0x0 KECCAK256 SLOAD SWAP1 POP PUSH1 0x0 DUP2 EQ PUSH2 0x3BA5 JUMPI PUSH1 0x0 PUSH1 0x1 DUP3 PUSH2 0x3ACF SWAP2 SWAP1 PUSH2 0x4B86 JUMP JUMPDEST SWAP1 POP PUSH1 0x0 PUSH1 0x1 DUP7 PUSH1 0x0 ADD DUP1 SLOAD SWAP1 POP PUSH2 0x3AE7 SWAP2 SWAP1 PUSH2 0x4B86 JUMP JUMPDEST SWAP1 POP DUP2 DUP2 EQ PUSH2 0x3B56 JUMPI PUSH1 0x0 DUP7 PUSH1 0x0 ADD DUP3 DUP2 SLOAD DUP2 LT PUSH2 0x3B08 JUMPI PUSH2 0x3B07 PUSH2 0x4DD5 JUMP JUMPDEST JUMPDEST SWAP1 PUSH1 0x0 MSTORE PUSH1 0x20 PUSH1 0x0 KECCAK256 ADD SLOAD SWAP1 POP DUP1 DUP8 PUSH1 0x0 ADD DUP5 DUP2 SLOAD DUP2 LT PUSH2 0x3B2C JUMPI PUSH2 0x3B2B PUSH2 0x4DD5 JUMP JUMPDEST JUMPDEST SWAP1 PUSH1 0x0 MSTORE PUSH1 0x20 PUSH1 0x0 KECCAK256 ADD DUP2 SWAP1 SSTORE POP DUP4 DUP8 PUSH1 0x1 ADD PUSH1 0x0 DUP4 DUP2 MSTORE PUSH1 0x20 ADD SWAP1 DUP2 MSTORE PUSH1 0x20 ADD PUSH1 0x0 KECCAK256 DUP2 SWAP1 SSTORE POP POP JUMPDEST DUP6 PUSH1 0x0 ADD DUP1 SLOAD DUP1 PUSH2 0x3B6A JUMPI PUSH2 0x3B69 PUSH2 0x4DA6 JUMP JUMPDEST JUMPDEST PUSH1 0x1 SWAP1 SUB DUP2 DUP2 SWAP1 PUSH1 0x0 MSTORE PUSH1 0x20 PUSH1 0x0 KECCAK256 ADD PUSH1 0x0 SWAP1 SSTORE SWAP1 SSTORE DUP6 PUSH1 0x1 ADD PUSH1 0x0 DUP7 DUP2 MSTORE PUSH1 0x20 ADD SWAP1 DUP2 MSTORE PUSH1 0x20 ADD PUSH1 0x0 KECCAK256 PUSH1 0x0 SWAP1 SSTORE PUSH1 0x1 SWAP4 POP POP POP POP PUSH2 0x3BAB JUMP JUMPDEST PUSH1 0x0 SWAP2 POP POP JUMPDEST SWAP3 SWAP2 POP POP JUMP JUMPDEST PUSH1 0x60 DUP3 SELFBALANCE LT ISZERO PUSH2 0x3BF6 JUMPI PUSH1 0x40 MLOAD PUSH32 0x8C379A000000000000000000000000000000000000000000000000000000000 DUP2 MSTORE PUSH1 0x4 ADD PUSH2 0x3BED SWAP1 PUSH2 0x47B7 JUMP JUMPDEST PUSH1 0x40 MLOAD DUP1 SWAP2 SUB SWAP1 REVERT JUMPDEST PUSH2 0x3BFF DUP6 PUSH2 0x3CE8 JUMP JUMPDEST PUSH2 0x3C3E JUMPI PUSH1 0x40 MLOAD PUSH32 0x8C379A000000000000000000000000000000000000000000000000000000000 DUP2 MSTORE PUSH1 0x4 ADD PUSH2 0x3C35 SWAP1 PUSH2 0x48F7 JUMP JUMPDEST PUSH1 0x40 MLOAD DUP1 SWAP2 SUB SWAP1 REVERT JUMPDEST PUSH1 0x0 DUP1 DUP7 PUSH20 0xFFFFFFFFFFFFFFFFFFFFFFFFFFFFFFFFFFFFFFFF AND DUP6 DUP8 PUSH1 0x40 MLOAD PUSH2 0x3C67 SWAP2 SWAP1 PUSH2 0x45BC JUMP JUMPDEST PUSH1 0x0 PUSH1 0x40 MLOAD DUP1 DUP4 SUB DUP2 DUP6 DUP8 GAS CALL SWAP3 POP POP POP RETURNDATASIZE DUP1 PUSH1 0x0 DUP2 EQ PUSH2 0x3CA4 JUMPI PUSH1 0x40 MLOAD SWAP2 POP PUSH1 0x1F NOT PUSH1 0x3F RETURNDATASIZE ADD AND DUP3 ADD PUSH1 0x40 MSTORE RETURNDATASIZE DUP3 MSTORE RETURNDATASIZE PUSH1 0x0 PUSH1 0x20 DUP5 ADD RETURNDATACOPY PUSH2 0x3CA9 JUMP JUMPDEST PUSH1 0x60 SWAP2 POP JUMPDEST POP SWAP2 POP SWAP2 POP PUSH2 0x3CB9 DUP3 DUP3 DUP7 PUSH2 0x3CFB JUMP JUMPDEST SWAP3 POP POP POP SWAP5 SWAP4 POP POP POP POP JUMP JUMPDEST PUSH1 0x0 DUP1 DUP4 PUSH1 0x1 ADD PUSH1 0x0 DUP5 DUP2 MSTORE PUSH1 0x20 ADD SWAP1 DUP2 MSTORE PUSH1 0x20 ADD PUSH1 0x0 KECCAK256 SLOAD EQ ISZERO SWAP1 POP SWAP3 SWAP2 POP POP JUMP JUMPDEST PUSH1 0x0 DUP1 DUP3 EXTCODESIZE SWAP1 POP PUSH1 0x0 DUP2 GT SWAP2 POP POP SWAP2 SWAP1 POP JUMP JUMPDEST PUSH1 0x60 DUP4 ISZERO PUSH2 0x3D0B JUMPI DUP3 SWAP1 POP PUSH2 0x3D5B JUMP JUMPDEST PUSH1 0x0 DUP4 MLOAD GT ISZERO PUSH2 0x3D1E JUMPI DUP3 MLOAD DUP1 DUP5 PUSH1 0x20 ADD REVERT JUMPDEST DUP2 PUSH1 0x40 MLOAD PUSH32 0x8C379A000000000000000000000000000000000000000000000000000000000 DUP2 MSTORE PUSH1 0x4 ADD PUSH2 0x3D52 SWAP2 SWAP1 PUSH2 0x46F5 JUMP JUMPDEST PUSH1 0x40 MLOAD DUP1 SWAP2 SUB SWAP1 REVERT JUMPDEST SWAP4 SWAP3 POP POP POP JUMP JUMPDEST DUP3 DUP1 SLOAD PUSH2 0x3D6E SWAP1 PUSH2 0x4CB6 JUMP JUMPDEST SWAP1 PUSH1 0x0 MSTORE PUSH1 0x20 PUSH1 0x0 KECCAK256 SWAP1 PUSH1 0x1F ADD PUSH1 0x20 SWAP1 DIV DUP2 ADD SWAP3 DUP3 PUSH2 0x3D90 JUMPI PUSH1 0x0 DUP6 SSTORE PUSH2 0x3DD7 JUMP JUMPDEST DUP3 PUSH1 0x1F LT PUSH2 0x3DA9 JUMPI DUP1 MLOAD PUSH1 0xFF NOT AND DUP4 DUP1 ADD OR DUP6 SSTORE PUSH2 0x3DD7 JUMP JUMPDEST DUP3 DUP1 ADD PUSH1 0x1 ADD DUP6 SSTORE DUP3 ISZERO PUSH2 0x3DD7 JUMPI SWAP2 DUP3 ADD JUMPDEST DUP3 DUP2 GT ISZERO PUSH2 0x3DD6 JUMPI DUP3 MLOAD DUP3 SSTORE SWAP2 PUSH1 0x20 ADD SWAP2 SWAP1 PUSH1 0x1 ADD SWAP1 PUSH2 0x3DBB JUMP JUMPDEST JUMPDEST POP SWAP1 POP PUSH2 0x3DE4 SWAP2 SWAP1 PUSH2 0x3DE8 JUMP JUMPDEST POP SWAP1 JUMP JUMPDEST JUMPDEST DUP1 DUP3 GT ISZERO PUSH2 0x3E01 JUMPI PUSH1 0x0 DUP2 PUSH1 0x0 SWAP1 SSTORE POP PUSH1 0x1 ADD PUSH2 0x3DE9 JUMP JUMPDEST POP SWAP1 JUMP JUMPDEST PUSH1 0x0 PUSH2 0x3E18 PUSH2 0x3E13 DUP5 PUSH2 0x4A37 JUMP JUMPDEST PUSH2 0x4A12 JUMP JUMPDEST SWAP1 POP DUP3 DUP2 MSTORE PUSH1 0x20 DUP2 ADD DUP5 DUP5 DUP5 ADD GT ISZERO PUSH2 0x3E34 JUMPI PUSH2 0x3E33 PUSH2 0x4E38 JUMP JUMPDEST JUMPDEST PUSH2 0x3E3F DUP5 DUP3 DUP6 PUSH2 0x4C4A JUMP JUMPDEST POP SWAP4 SWAP3 POP POP POP JUMP JUMPDEST PUSH1 0x0 DUP2 CALLDATALOAD SWAP1 POP PUSH2 0x3E56 DUP2 PUSH2 0x529C JUMP JUMPDEST SWAP3 SWAP2 POP POP JUMP JUMPDEST PUSH1 0x0 DUP2 CALLDATALOAD SWAP1 POP PUSH2 0x3E6B DUP2 PUSH2 0x52B3 JUMP JUMPDEST SWAP3 SWAP2 POP POP JUMP JUMPDEST PUSH1 0x0 DUP2 MLOAD SWAP1 POP PUSH2 0x3E80 DUP2 PUSH2 0x52CA JUMP JUMPDEST SWAP3 SWAP2 POP POP JUMP JUMPDEST PUSH1 0x0 DUP2 CALLDATALOAD SWAP1 POP PUSH2 0x3E95 DUP2 PUSH2 0x52E1 JUMP JUMPDEST SWAP3 SWAP2 POP POP JUMP JUMPDEST PUSH1 0x0 DUP2 CALLDATALOAD SWAP1 POP PUSH2 0x3EAA DUP2 PUSH2 0x52F8 JUMP JUMPDEST SWAP3 SWAP2 POP POP JUMP JUMPDEST PUSH1 0x0 DUP3 PUSH1 0x1F DUP4 ADD SLT PUSH2 0x3EC5 JUMPI PUSH2 0x3EC4 PUSH2 0x4E33 JUMP JUMPDEST JUMPDEST DUP2 CALLDATALOAD PUSH2 0x3ED5 DUP5 DUP3 PUSH1 0x20 DUP7 ADD PUSH2 0x3E05 JUMP JUMPDEST SWAP2 POP POP SWAP3 SWAP2 POP POP JUMP JUMPDEST PUSH1 0x0 DUP2 CALLDATALOAD SWAP1 POP PUSH2 0x3EED DUP2 PUSH2 0x530F JUMP JUMPDEST SWAP3 SWAP2 POP POP JUMP JUMPDEST PUSH1 0x0 DUP2 MLOAD SWAP1 POP PUSH2 0x3F02 DUP2 PUSH2 0x530F JUMP JUMPDEST SWAP3 SWAP2 POP POP JUMP JUMPDEST PUSH1 0x0 PUSH1 0x20 DUP3 DUP5 SUB SLT ISZERO PUSH2 0x3F1E JUMPI PUSH2 0x3F1D PUSH2 0x4E42 JUMP JUMPDEST JUMPDEST PUSH1 0x0 PUSH2 0x3F2C DUP5 DUP3 DUP6 ADD PUSH2 0x3E47 JUMP JUMPDEST SWAP2 POP POP SWAP3 SWAP2 POP POP JUMP JUMPDEST PUSH1 0x0 DUP1 PUSH1 0x0 DUP1 PUSH1 0x0 DUP1 PUSH1 0x0 DUP1 PUSH1 0x0 PUSH2 0x120 DUP11 DUP13 SUB SLT ISZERO PUSH2 0x3F58 JUMPI PUSH2 0x3F57 PUSH2 0x4E42 JUMP JUMPDEST JUMPDEST PUSH1 0x0 PUSH2 0x3F66 DUP13 DUP3 DUP14 ADD PUSH2 0x3E47 JUMP JUMPDEST SWAP10 POP POP PUSH1 0x20 DUP11 ADD CALLDATALOAD PUSH8 0xFFFFFFFFFFFFFFFF DUP2 GT ISZERO PUSH2 0x3F87 JUMPI PUSH2 0x3F86 PUSH2 0x4E3D JUMP JUMPDEST JUMPDEST PUSH2 0x3F93 DUP13 DUP3 DUP14 ADD PUSH2 0x3EB0 JUMP JUMPDEST SWAP9 POP POP PUSH1 0x40 PUSH2 0x3FA4 DUP13 DUP3 DUP14 ADD PUSH2 0x3EDE JUMP JUMPDEST SWAP8 POP POP PUSH1 0x60 PUSH2 0x3FB5 DUP13 DUP3 DUP14 ADD PUSH2 0x3EDE JUMP JUMPDEST SWAP7 POP POP PUSH1 0x80 PUSH2 0x3FC6 DUP13 DUP3 DUP14 ADD PUSH2 0x3EDE JUMP JUMPDEST SWAP6 POP POP PUSH1 0xA0 PUSH2 0x3FD7 DUP13 DUP3 DUP14 ADD PUSH2 0x3EDE JUMP JUMPDEST SWAP5 POP POP PUSH1 0xC0 PUSH2 0x3FE8 DUP13 DUP3 DUP14 ADD PUSH2 0x3EDE JUMP JUMPDEST SWAP4 POP POP PUSH1 0xE0 PUSH2 0x3FF9 DUP13 DUP3 DUP14 ADD PUSH2 0x3E47 JUMP JUMPDEST SWAP3 POP POP PUSH2 0x100 PUSH2 0x400B DUP13 DUP3 DUP14 ADD PUSH2 0x3E5C JUMP JUMPDEST SWAP2 POP POP SWAP3 SWAP6 SWAP9 POP SWAP3 SWAP6 SWAP9 POP SWAP3 SWAP6 SWAP9 JUMP JUMPDEST PUSH1 0x0 DUP1 PUSH1 0x0 DUP1 PUSH1 0x80 DUP6 DUP8 SUB SLT ISZERO PUSH2 0x4035 JUMPI PUSH2 0x4034 PUSH2 0x4E42 JUMP JUMPDEST JUMPDEST PUSH1 0x0 PUSH2 0x4043 DUP8 DUP3 DUP9 ADD PUSH2 0x3E47 JUMP JUMPDEST SWAP5 POP POP PUSH1 0x20 PUSH2 0x4054 DUP8 DUP3 DUP9 ADD PUSH2 0x3EDE JUMP JUMPDEST SWAP4 POP POP PUSH1 0x40 PUSH2 0x4065 DUP8 DUP3 DUP9 ADD PUSH2 0x3EDE JUMP JUMPDEST SWAP3 POP POP PUSH1 0x60 PUSH2 0x4076 DUP8 DUP3 DUP9 ADD PUSH2 0x3EDE JUMP JUMPDEST SWAP2 POP POP SWAP3 SWAP6 SWAP2 SWAP5 POP SWAP3 POP JUMP JUMPDEST PUSH1 0x0 PUSH1 0x20 DUP3 DUP5 SUB SLT ISZERO PUSH2 0x4098 JUMPI PUSH2 0x4097 PUSH2 0x4E42 JUMP JUMPDEST JUMPDEST PUSH1 0x0 PUSH2 0x40A6 DUP5 DUP3 DUP6 ADD PUSH2 0x3E71 JUMP JUMPDEST SWAP2 POP POP SWAP3 SWAP2 POP POP JUMP JUMPDEST PUSH1 0x0 PUSH1 0x20 DUP3 DUP5 SUB SLT ISZERO PUSH2 0x40C5 JUMPI PUSH2 0x40C4 PUSH2 0x4E42 JUMP JUMPDEST JUMPDEST PUSH1 0x0 PUSH2 0x40D3 DUP5 DUP3 DUP6 ADD PUSH2 0x3E86 JUMP JUMPDEST SWAP2 POP POP SWAP3 SWAP2 POP POP JUMP JUMPDEST PUSH1 0x0 DUP1 PUSH1 0x40 DUP4 DUP6 SUB SLT ISZERO PUSH2 0x40F3 JUMPI PUSH2 0x40F2 PUSH2 0x4E42 JUMP JUMPDEST JUMPDEST PUSH1 0x0 PUSH2 0x4101 DUP6 DUP3 DUP7 ADD PUSH2 0x3E86 JUMP JUMPDEST SWAP3 POP POP PUSH1 0x20 PUSH2 0x4112 DUP6 DUP3 DUP7 ADD PUSH2 0x3E47 JUMP JUMPDEST SWAP2 POP POP SWAP3 POP SWAP3 SWAP1 POP JUMP JUMPDEST PUSH1 0x0 DUP1 PUSH1 0x40 DUP4 DUP6 SUB SLT ISZERO PUSH2 0x4133 JUMPI PUSH2 0x4132 PUSH2 0x4E42 JUMP JUMPDEST JUMPDEST PUSH1 0x0 PUSH2 0x4141 DUP6 DUP3 DUP7 ADD PUSH2 0x3E86 JUMP JUMPDEST SWAP3 POP POP PUSH1 0x20 PUSH2 0x4152 DUP6 DUP3 DUP7 ADD PUSH2 0x3EDE JUMP JUMPDEST SWAP2 POP POP SWAP3 POP SWAP3 SWAP1 POP JUMP JUMPDEST PUSH1 0x0 PUSH1 0x20 DUP3 DUP5 SUB SLT ISZERO PUSH2 0x4172 JUMPI PUSH2 0x4171 PUSH2 0x4E42 JUMP JUMPDEST JUMPDEST PUSH1 0x0 PUSH2 0x4180 DUP5 DUP3 DUP6 ADD PUSH2 0x3E9B JUMP JUMPDEST SWAP2 POP POP SWAP3 SWAP2 POP POP JUMP JUMPDEST PUSH1 0x0 PUSH1 0x20 DUP3 DUP5 SUB SLT ISZERO PUSH2 0x419F JUMPI PUSH2 0x419E PUSH2 0x4E42 JUMP JUMPDEST JUMPDEST PUSH1 0x0 PUSH2 0x41AD DUP5 DUP3 DUP6 ADD PUSH2 0x3EDE JUMP JUMPDEST SWAP2 POP POP SWAP3 SWAP2 POP POP JUMP JUMPDEST PUSH1 0x0 PUSH1 0x20 DUP3 DUP5 SUB SLT ISZERO PUSH2 0x41CC JUMPI PUSH2 0x41CB PUSH2 0x4E42 JUMP JUMPDEST JUMPDEST PUSH1 0x0 PUSH2 0x41DA DUP5 DUP3 DUP6 ADD PUSH2 0x3EF3 JUMP JUMPDEST SWAP2 POP POP SWAP3 SWAP2 POP POP JUMP JUMPDEST PUSH2 0x41EC DUP2 PUSH2 0x4BBA JUMP JUMPDEST DUP3 MSTORE POP POP JUMP JUMPDEST PUSH2 0x41FB DUP2 PUSH2 0x4BDE JUMP JUMPDEST DUP3 MSTORE POP POP JUMP JUMPDEST PUSH2 0x420A DUP2 PUSH2 0x4BEA JUMP JUMPDEST DUP3 MSTORE POP POP JUMP JUMPDEST PUSH1 0x0 PUSH2 0x421B DUP3 PUSH2 0x4A68 JUMP JUMPDEST PUSH2 0x4225 DUP2 DUP6 PUSH2 0x4A7E JUMP JUMPDEST SWAP4 POP PUSH2 0x4235 DUP2 DUP6 PUSH1 0x20 DUP7 ADD PUSH2 0x4C59 JUMP JUMPDEST DUP1 DUP5 ADD SWAP2 POP POP SWAP3 SWAP2 POP POP JUMP JUMPDEST PUSH1 0x0 PUSH2 0x424C DUP3 PUSH2 0x4A73 JUMP JUMPDEST PUSH2 0x4256 DUP2 DUP6 PUSH2 0x4A89 JUMP JUMPDEST SWAP4 POP PUSH2 0x4266 DUP2 DUP6 PUSH1 0x20 DUP7 ADD PUSH2 0x4C59 JUMP JUMPDEST PUSH2 0x426F DUP2 PUSH2 0x4E47 JUMP JUMPDEST DUP5 ADD SWAP2 POP POP SWAP3 SWAP2 POP POP JUMP JUMPDEST PUSH1 0x0 PUSH2 0x4285 DUP3 PUSH2 0x4A73 JUMP JUMPDEST PUSH2 0x428F DUP2 DUP6 PUSH2 0x4A9A JUMP JUMPDEST SWAP4 POP PUSH2 0x429F DUP2 DUP6 PUSH1 0x20 DUP7 ADD PUSH2 0x4C59 JUMP JUMPDEST DUP1 DUP5 ADD SWAP2 POP POP SWAP3 SWAP2 POP POP JUMP JUMPDEST PUSH1 0x0 PUSH2 0x42B8 PUSH1 0x20 DUP4 PUSH2 0x4A89 JUMP JUMPDEST SWAP2 POP PUSH2 0x42C3 DUP3 PUSH2 0x4E58 JUMP JUMPDEST PUSH1 0x20 DUP3 ADD SWAP1 POP SWAP2 SWAP1 POP JUMP JUMPDEST PUSH1 0x0 PUSH2 0x42DB PUSH1 0x13 DUP4 PUSH2 0x4A89 JUMP JUMPDEST SWAP2 POP PUSH2 0x42E6 DUP3 PUSH2 0x4E81 JUMP JUMPDEST PUSH1 0x20 DUP3 ADD SWAP1 POP SWAP2 SWAP1 POP JUMP JUMPDEST PUSH1 0x0 PUSH2 0x42FE PUSH1 0x1B DUP4 PUSH2 0x4A89 JUMP JUMPDEST SWAP2 POP PUSH2 0x4309 DUP3 PUSH2 0x4EAA JUMP JUMPDEST PUSH1 0x20 DUP3 ADD SWAP1 POP SWAP2 SWAP1 POP JUMP JUMPDEST PUSH1 0x0 PUSH2 0x4321 PUSH1 0x13 DUP4 PUSH2 0x4A89 JUMP JUMPDEST SWAP2 POP PUSH2 0x432C DUP3 PUSH2 0x4ED3 JUMP JUMPDEST PUSH1 0x20 DUP3 ADD SWAP1 POP SWAP2 SWAP1 POP JUMP JUMPDEST PUSH1 0x0 PUSH2 0x4344 PUSH1 0x20 DUP4 PUSH2 0x4A89 JUMP JUMPDEST SWAP2 POP PUSH2 0x434F DUP3 PUSH2 0x4EFC JUMP JUMPDEST PUSH1 0x20 DUP3 ADD SWAP1 POP SWAP2 SWAP1 POP JUMP JUMPDEST PUSH1 0x0 PUSH2 0x4367 PUSH1 0x26 DUP4 PUSH2 0x4A89 JUMP JUMPDEST SWAP2 POP PUSH2 0x4372 DUP3 PUSH2 0x4F25 JUMP JUMPDEST PUSH1 0x40 DUP3 ADD SWAP1 POP SWAP2 SWAP1 POP JUMP JUMPDEST PUSH1 0x0 PUSH2 0x438A PUSH1 0x11 DUP4 PUSH2 0x4A89 JUMP JUMPDEST SWAP2 POP PUSH2 0x4395 DUP3 PUSH2 0x4F74 JUMP JUMPDEST PUSH1 0x20 DUP3 ADD SWAP1 POP SWAP2 SWAP1 POP JUMP JUMPDEST PUSH1 0x0 PUSH2 0x43AD PUSH1 0x1D DUP4 PUSH2 0x4A89 JUMP JUMPDEST SWAP2 POP PUSH2 0x43B8 DUP3 PUSH2 0x4F9D JUMP JUMPDEST PUSH1 0x20 DUP3 ADD SWAP1 POP SWAP2 SWAP1 POP JUMP JUMPDEST PUSH1 0x0 PUSH2 0x43D0 PUSH1 0x21 DUP4 PUSH2 0x4A89 JUMP JUMPDEST SWAP2 POP PUSH2 0x43DB DUP3 PUSH2 0x4FC6 JUMP JUMPDEST PUSH1 0x40 DUP3 ADD SWAP1 POP SWAP2 SWAP1 POP JUMP JUMPDEST PUSH1 0x0 PUSH2 0x43F3 PUSH1 0x1F DUP4 PUSH2 0x4A89 JUMP JUMPDEST SWAP2 POP PUSH2 0x43FE DUP3 PUSH2 0x5015 JUMP JUMPDEST PUSH1 0x20 DUP3 ADD SWAP1 POP SWAP2 SWAP1 POP JUMP JUMPDEST PUSH1 0x0 PUSH2 0x4416 PUSH1 0x15 DUP4 PUSH2 0x4A89 JUMP JUMPDEST SWAP2 POP PUSH2 0x4421 DUP3 PUSH2 0x503E JUMP JUMPDEST PUSH1 0x20 DUP3 ADD SWAP1 POP SWAP2 SWAP1 POP JUMP JUMPDEST PUSH1 0x0 PUSH2 0x4439 PUSH1 0x19 DUP4 PUSH2 0x4A89 JUMP JUMPDEST SWAP2 POP PUSH2 0x4444 DUP3 PUSH2 0x5067 JUMP JUMPDEST PUSH1 0x20 DUP3 ADD SWAP1 POP SWAP2 SWAP1 POP JUMP JUMPDEST PUSH1 0x0 PUSH2 0x445C PUSH1 0x15 DUP4 PUSH2 0x4A89 JUMP JUMPDEST SWAP2 POP PUSH2 0x4467 DUP3 PUSH2 0x5090 JUMP JUMPDEST PUSH1 0x20 DUP3 ADD SWAP1 POP SWAP2 SWAP1 POP JUMP JUMPDEST PUSH1 0x0 PUSH2 0x447F PUSH1 0x2E DUP4 PUSH2 0x4A89 JUMP JUMPDEST SWAP2 POP PUSH2 0x448A DUP3 PUSH2 0x50B9 JUMP JUMPDEST PUSH1 0x40 DUP3 ADD SWAP1 POP SWAP2 SWAP1 POP JUMP JUMPDEST PUSH1 0x0 PUSH2 0x44A2 PUSH1 0x1F DUP4 PUSH2 0x4A89 JUMP JUMPDEST SWAP2 POP PUSH2 0x44AD DUP3 PUSH2 0x5108 JUMP JUMPDEST PUSH1 0x20 DUP3 ADD SWAP1 POP SWAP2 SWAP1 POP JUMP JUMPDEST PUSH1 0x0 PUSH2 0x44C5 PUSH1 0x1D DUP4 PUSH2 0x4A89 JUMP JUMPDEST SWAP2 POP PUSH2 0x44D0 DUP3 PUSH2 0x5131 JUMP JUMPDEST PUSH1 0x20 DUP3 ADD SWAP1 POP SWAP2 SWAP1 POP JUMP JUMPDEST PUSH1 0x0 PUSH2 0x44E8 PUSH1 0x1A DUP4 PUSH2 0x4A89 JUMP JUMPDEST SWAP2 POP PUSH2 0x44F3 DUP3 PUSH2 0x515A JUMP JUMPDEST PUSH1 0x20 DUP3 ADD SWAP1 POP SWAP2 SWAP1 POP JUMP JUMPDEST PUSH1 0x0 PUSH2 0x450B PUSH1 0x17 DUP4 PUSH2 0x4A9A JUMP JUMPDEST SWAP2 POP PUSH2 0x4516 DUP3 PUSH2 0x5183 JUMP JUMPDEST PUSH1 0x17 DUP3 ADD SWAP1 POP SWAP2 SWAP1 POP JUMP JUMPDEST PUSH1 0x0 PUSH2 0x452E PUSH1 0x2A DUP4 PUSH2 0x4A89 JUMP JUMPDEST SWAP2 POP PUSH2 0x4539 DUP3 PUSH2 0x51AC JUMP JUMPDEST PUSH1 0x40 DUP3 ADD SWAP1 POP SWAP2 SWAP1 POP JUMP JUMPDEST PUSH1 0x0 PUSH2 0x4551 PUSH1 0x8 DUP4 PUSH2 0x4A89 JUMP JUMPDEST SWAP2 POP PUSH2 0x455C DUP3 PUSH2 0x51FB JUMP JUMPDEST PUSH1 0x20 DUP3 ADD SWAP1 POP SWAP2 SWAP1 POP JUMP JUMPDEST PUSH1 0x0 PUSH2 0x4574 PUSH1 0x11 DUP4 PUSH2 0x4A9A JUMP JUMPDEST SWAP2 POP PUSH2 0x457F DUP3 PUSH2 0x5224 JUMP JUMPDEST PUSH1 0x11 DUP3 ADD SWAP1 POP SWAP2 SWAP1 POP JUMP JUMPDEST PUSH1 0x0 PUSH2 0x4597 PUSH1 0x2F DUP4 PUSH2 0x4A89 JUMP JUMPDEST SWAP2 POP PUSH2 0x45A2 DUP3 PUSH2 0x524D JUMP JUMPDEST PUSH1 0x40 DUP3 ADD SWAP1 POP SWAP2 SWAP1 POP JUMP JUMPDEST PUSH2 0x45B6 DUP2 PUSH2 0x4C40 JUMP JUMPDEST DUP3 MSTORE POP POP JUMP JUMPDEST PUSH1 0x0 PUSH2 0x45C8 DUP3 DUP5 PUSH2 0x4210 JUMP JUMPDEST SWAP2 POP DUP2 SWAP1 POP SWAP3 SWAP2 POP POP JUMP JUMPDEST PUSH1 0x0 PUSH2 0x45DE DUP3 PUSH2 0x44FE JUMP JUMPDEST SWAP2 POP PUSH2 0x45EA DUP3 DUP6 PUSH2 0x427A JUMP JUMPDEST SWAP2 POP PUSH2 0x45F5 DUP3 PUSH2 0x4567 JUMP JUMPDEST SWAP2 POP PUSH2 0x4601 DUP3 DUP5 PUSH2 0x427A JUMP JUMPDEST SWAP2 POP DUP2 SWAP1 POP SWAP4 SWAP3 POP POP POP JUMP JUMPDEST PUSH1 0x0 PUSH1 0x20 DUP3 ADD SWAP1 POP PUSH2 0x4622 PUSH1 0x0 DUP4 ADD DUP5 PUSH2 0x41E3 JUMP JUMPDEST SWAP3 SWAP2 POP POP JUMP JUMPDEST PUSH1 0x0 PUSH1 0x60 DUP3 ADD SWAP1 POP PUSH2 0x463D PUSH1 0x0 DUP4 ADD DUP7 PUSH2 0x41E3 JUMP JUMPDEST PUSH2 0x464A PUSH1 0x20 DUP4 ADD DUP6 PUSH2 0x41E3 JUMP JUMPDEST PUSH2 0x4657 PUSH1 0x40 DUP4 ADD DUP5 PUSH2 0x45AD JUMP JUMPDEST SWAP5 SWAP4 POP POP POP POP JUMP JUMPDEST PUSH1 0x0 PUSH1 0x40 DUP3 ADD SWAP1 POP PUSH2 0x4674 PUSH1 0x0 DUP4 ADD DUP6 PUSH2 0x41E3 JUMP JUMPDEST PUSH2 0x4681 PUSH1 0x20 DUP4 ADD DUP5 PUSH2 0x45AD JUMP JUMPDEST SWAP4 SWAP3 POP POP POP JUMP JUMPDEST PUSH1 0x0 PUSH1 0x20 DUP3 ADD SWAP1 POP PUSH2 0x469D PUSH1 0x0 DUP4 ADD DUP5 PUSH2 0x41F2 JUMP JUMPDEST SWAP3 SWAP2 POP POP JUMP JUMPDEST PUSH1 0x0 PUSH1 0x60 DUP3 ADD SWAP1 POP PUSH2 0x46B8 PUSH1 0x0 DUP4 ADD DUP7 PUSH2 0x41F2 JUMP JUMPDEST PUSH2 0x46C5 PUSH1 0x20 DUP4 ADD DUP6 PUSH2 0x45AD JUMP JUMPDEST PUSH2 0x46D2 PUSH1 0x40 DUP4 ADD DUP5 PUSH2 0x45AD JUMP JUMPDEST SWAP5 SWAP4 POP POP POP POP JUMP JUMPDEST PUSH1 0x0 PUSH1 0x20 DUP3 ADD SWAP1 POP PUSH2 0x46EF PUSH1 0x0 DUP4 ADD DUP5 PUSH2 0x4201 JUMP JUMPDEST SWAP3 SWAP2 POP POP JUMP JUMPDEST PUSH1 0x0 PUSH1 0x20 DUP3 ADD SWAP1 POP DUP2 DUP2 SUB PUSH1 0x0 DUP4 ADD MSTORE PUSH2 0x470F DUP2 DUP5 PUSH2 0x4241 JUMP JUMPDEST SWAP1 POP SWAP3 SWAP2 POP POP JUMP JUMPDEST PUSH1 0x0 PUSH1 0x20 DUP3 ADD SWAP1 POP DUP2 DUP2 SUB PUSH1 0x0 DUP4 ADD MSTORE PUSH2 0x4730 DUP2 PUSH2 0x42AB JUMP JUMPDEST SWAP1 POP SWAP2 SWAP1 POP JUMP JUMPDEST PUSH1 0x0 PUSH1 0x20 DUP3 ADD SWAP1 POP DUP2 DUP2 SUB PUSH1 0x0 DUP4 ADD MSTORE PUSH2 0x4750 DUP2 PUSH2 0x42CE JUMP JUMPDEST SWAP1 POP SWAP2 SWAP1 POP JUMP JUMPDEST PUSH1 0x0 PUSH1 0x20 DUP3 ADD SWAP1 POP DUP2 DUP2 SUB PUSH1 0x0 DUP4 ADD MSTORE PUSH2 0x4770 DUP2 PUSH2 0x42F1 JUMP JUMPDEST SWAP1 POP SWAP2 SWAP1 POP JUMP JUMPDEST PUSH1 0x0 PUSH1 0x20 DUP3 ADD SWAP1 POP DUP2 DUP2 SUB PUSH1 0x0 DUP4 ADD MSTORE PUSH2 0x4790 DUP2 PUSH2 0x4314 JUMP JUMPDEST SWAP1 POP SWAP2 SWAP1 POP JUMP JUMPDEST PUSH1 0x0 PUSH1 0x20 DUP3 ADD SWAP1 POP DUP2 DUP2 SUB PUSH1 0x0 DUP4 ADD MSTORE PUSH2 0x47B0 DUP2 PUSH2 0x4337 JUMP JUMPDEST SWAP1 POP SWAP2 SWAP1 POP JUMP JUMPDEST PUSH1 0x0 PUSH1 0x20 DUP3 ADD SWAP1 POP DUP2 DUP2 SUB PUSH1 0x0 DUP4 ADD MSTORE PUSH2 0x47D0 DUP2 PUSH2 0x435A JUMP JUMPDEST SWAP1 POP SWAP2 SWAP1 POP JUMP JUMPDEST PUSH1 0x0 PUSH1 0x20 DUP3 ADD SWAP1 POP DUP2 DUP2 SUB PUSH1 0x0 DUP4 ADD MSTORE PUSH2 0x47F0 DUP2 PUSH2 0x437D JUMP JUMPDEST SWAP1 POP SWAP2 SWAP1 POP JUMP JUMPDEST PUSH1 0x0 PUSH1 0x20 DUP3 ADD SWAP1 POP DUP2 DUP2 SUB PUSH1 0x0 DUP4 ADD MSTORE PUSH2 0x4810 DUP2 PUSH2 0x43A0 JUMP JUMPDEST SWAP1 POP SWAP2 SWAP1 POP JUMP JUMPDEST PUSH1 0x0 PUSH1 0x20 DUP3 ADD SWAP1 POP DUP2 DUP2 SUB PUSH1 0x0 DUP4 ADD MSTORE PUSH2 0x4830 DUP2 PUSH2 0x43C3 JUMP JUMPDEST SWAP1 POP SWAP2 SWAP1 POP JUMP JUMPDEST PUSH1 0x0 PUSH1 0x20 DUP3 ADD SWAP1 POP DUP2 DUP2 SUB PUSH1 0x0 DUP4 ADD MSTORE PUSH2 0x4850 DUP2 PUSH2 0x43E6 JUMP JUMPDEST SWAP1 POP SWAP2 SWAP1 POP JUMP JUMPDEST PUSH1 0x0 PUSH1 0x20 DUP3 ADD SWAP1 POP DUP2 DUP2 SUB PUSH1 0x0 DUP4 ADD MSTORE PUSH2 0x4870 DUP2 PUSH2 0x4409 JUMP JUMPDEST SWAP1 POP SWAP2 SWAP1 POP JUMP JUMPDEST PUSH1 0x0 PUSH1 0x20 DUP3 ADD SWAP1 POP DUP2 DUP2 SUB PUSH1 0x0 DUP4 ADD MSTORE PUSH2 0x4890 DUP2 PUSH2 0x442C JUMP JUMPDEST SWAP1 POP SWAP2 SWAP1 POP JUMP JUMPDEST PUSH1 0x0 PUSH1 0x20 DUP3 ADD SWAP1 POP DUP2 DUP2 SUB PUSH1 0x0 DUP4 ADD MSTORE PUSH2 0x48B0 DUP2 PUSH2 0x444F JUMP JUMPDEST SWAP1 POP SWAP2 SWAP1 POP JUMP JUMPDEST PUSH1 0x0 PUSH1 0x20 DUP3 ADD SWAP1 POP DUP2 DUP2 SUB PUSH1 0x0 DUP4 ADD MSTORE PUSH2 0x48D0 DUP2 PUSH2 0x4472 JUMP JUMPDEST SWAP1 POP SWAP2 SWAP1 POP JUMP JUMPDEST PUSH1 0x0 PUSH1 0x20 DUP3 ADD SWAP1 POP DUP2 DUP2 SUB PUSH1 0x0 DUP4 ADD MSTORE PUSH2 0x48F0 DUP2 PUSH2 0x4495 JUMP JUMPDEST SWAP1 POP SWAP2 SWAP1 POP JUMP JUMPDEST PUSH1 0x0 PUSH1 0x20 DUP3 ADD SWAP1 POP DUP2 DUP2 SUB PUSH1 0x0 DUP4 ADD MSTORE PUSH2 0x4910 DUP2 PUSH2 0x44B8 JUMP JUMPDEST SWAP1 POP SWAP2 SWAP1 POP JUMP JUMPDEST PUSH1 0x0 PUSH1 0x20 DUP3 ADD SWAP1 POP DUP2 DUP2 SUB PUSH1 0x0 DUP4 ADD MSTORE PUSH2 0x4930 DUP2 PUSH2 0x44DB JUMP JUMPDEST SWAP1 POP SWAP2 SWAP1 POP JUMP JUMPDEST PUSH1 0x0 PUSH1 0x20 DUP3 ADD SWAP1 POP DUP2 DUP2 SUB PUSH1 0x0 DUP4 ADD MSTORE PUSH2 0x4950 DUP2 PUSH2 0x4521 JUMP JUMPDEST SWAP1 POP SWAP2 SWAP1 POP JUMP JUMPDEST PUSH1 0x0 PUSH1 0x20 DUP3 ADD SWAP1 POP DUP2 DUP2 SUB PUSH1 0x0 DUP4 ADD MSTORE PUSH2 0x4970 DUP2 PUSH2 0x4544 JUMP JUMPDEST SWAP1 POP SWAP2 SWAP1 POP JUMP JUMPDEST PUSH1 0x0 PUSH1 0x20 DUP3 ADD SWAP1 POP DUP2 DUP2 SUB PUSH1 0x0 DUP4 ADD MSTORE PUSH2 0x4990 DUP2 PUSH2 0x458A JUMP JUMPDEST SWAP1 POP SWAP2 SWAP1 POP JUMP JUMPDEST PUSH1 0x0 PUSH1 0x20 DUP3 ADD SWAP1 POP PUSH2 0x49AC PUSH1 0x0 DUP4 ADD DUP5 PUSH2 0x45AD JUMP JUMPDEST SWAP3 SWAP2 POP POP JUMP JUMPDEST PUSH1 0x0 PUSH1 0x40 DUP3 ADD SWAP1 POP PUSH2 0x49C7 PUSH1 0x0 DUP4 ADD DUP6 PUSH2 0x45AD JUMP JUMPDEST PUSH2 0x49D4 PUSH1 0x20 DUP4 ADD DUP5 PUSH2 0x45AD JUMP JUMPDEST SWAP4 SWAP3 POP POP POP JUMP JUMPDEST PUSH1 0x0 PUSH1 0x60 DUP3 ADD SWAP1 POP PUSH2 0x49F0 PUSH1 0x0 DUP4 ADD DUP7 PUSH2 0x45AD JUMP JUMPDEST PUSH2 0x49FD PUSH1 0x20 DUP4 ADD DUP6 PUSH2 0x45AD JUMP JUMPDEST PUSH2 0x4A0A PUSH1 0x40 DUP4 ADD DUP5 PUSH2 0x45AD JUMP JUMPDEST SWAP5 SWAP4 POP POP POP POP JUMP JUMPDEST PUSH1 0x0 PUSH2 0x4A1C PUSH2 0x4A2D JUMP JUMPDEST SWAP1 POP PUSH2 0x4A28 DUP3 DUP3 PUSH2 0x4CE8 JUMP JUMPDEST SWAP2 SWAP1 POP JUMP JUMPDEST PUSH1 0x0 PUSH1 0x40 MLOAD SWAP1 POP SWAP1 JUMP JUMPDEST PUSH1 0x0 PUSH8 0xFFFFFFFFFFFFFFFF DUP3 GT ISZERO PUSH2 0x4A52 JUMPI PUSH2 0x4A51 PUSH2 0x4E04 JUMP JUMPDEST JUMPDEST PUSH2 0x4A5B DUP3 PUSH2 0x4E47 JUMP JUMPDEST SWAP1 POP PUSH1 0x20 DUP2 ADD SWAP1 POP SWAP2 SWAP1 POP JUMP JUMPDEST PUSH1 0x0 DUP2 MLOAD SWAP1 POP SWAP2 SWAP1 POP JUMP JUMPDEST PUSH1 0x0 DUP2 MLOAD SWAP1 POP SWAP2 SWAP1 POP JUMP JUMPDEST PUSH1 0x0 DUP2 SWAP1 POP SWAP3 SWAP2 POP POP JUMP JUMPDEST PUSH1 0x0 DUP3 DUP3 MSTORE PUSH1 0x20 DUP3 ADD SWAP1 POP SWAP3 SWAP2 POP POP JUMP JUMPDEST PUSH1 0x0 DUP2 SWAP1 POP SWAP3 SWAP2 POP POP JUMP JUMPDEST PUSH1 0x0 PUSH2 0x4AB0 DUP3 PUSH2 0x4C40 JUMP JUMPDEST SWAP2 POP PUSH2 0x4ABB DUP4 PUSH2 0x4C40 JUMP JUMPDEST SWAP3 POP DUP3 PUSH32 0xFFFFFFFFFFFFFFFFFFFFFFFFFFFFFFFFFFFFFFFFFFFFFFFFFFFFFFFFFFFFFFFF SUB DUP3 GT ISZERO PUSH2 0x4AF0 JUMPI PUSH2 0x4AEF PUSH2 0x4D19 JUMP JUMPDEST JUMPDEST DUP3 DUP3 ADD SWAP1 POP SWAP3 SWAP2 POP POP JUMP JUMPDEST PUSH1 0x0 PUSH2 0x4B06 DUP3 PUSH2 0x4C40 JUMP JUMPDEST SWAP2 POP PUSH2 0x4B11 DUP4 PUSH2 0x4C40 JUMP JUMPDEST SWAP3 POP DUP3 PUSH2 0x4B21 JUMPI PUSH2 0x4B20 PUSH2 0x4D48 JUMP JUMPDEST JUMPDEST DUP3 DUP3 DIV SWAP1 POP SWAP3 SWAP2 POP POP JUMP JUMPDEST PUSH1 0x0 PUSH2 0x4B37 DUP3 PUSH2 0x4C40 JUMP JUMPDEST SWAP2 POP PUSH2 0x4B42 DUP4 PUSH2 0x4C40 JUMP JUMPDEST SWAP3 POP DUP2 PUSH32 0xFFFFFFFFFFFFFFFFFFFFFFFFFFFFFFFFFFFFFFFFFFFFFFFFFFFFFFFFFFFFFFFF DIV DUP4 GT DUP3 ISZERO ISZERO AND ISZERO PUSH2 0x4B7B JUMPI PUSH2 0x4B7A PUSH2 0x4D19 JUMP JUMPDEST JUMPDEST DUP3 DUP3 MUL SWAP1 POP SWAP3 SWAP2 POP POP JUMP JUMPDEST PUSH1 0x0 PUSH2 0x4B91 DUP3 PUSH2 0x4C40 JUMP JUMPDEST SWAP2 POP PUSH2 0x4B9C DUP4 PUSH2 0x4C40 JUMP JUMPDEST SWAP3 POP DUP3 DUP3 LT ISZERO PUSH2 0x4BAF JUMPI PUSH2 0x4BAE PUSH2 0x4D19 JUMP JUMPDEST JUMPDEST DUP3 DUP3 SUB SWAP1 POP SWAP3 SWAP2 POP POP JUMP JUMPDEST PUSH1 0x0 PUSH2 0x4BC5 DUP3 PUSH2 0x4C20 JUMP JUMPDEST SWAP1 POP SWAP2 SWAP1 POP JUMP JUMPDEST PUSH1 0x0 PUSH2 0x4BD7 DUP3 PUSH2 0x4C20 JUMP JUMPDEST SWAP1 POP SWAP2 SWAP1 POP JUMP JUMPDEST PUSH1 0x0 DUP2 ISZERO ISZERO SWAP1 POP SWAP2 SWAP1 POP JUMP JUMPDEST PUSH1 0x0 DUP2 SWAP1 POP SWAP2 SWAP1 POP JUMP JUMPDEST PUSH1 0x0 PUSH32 0xFFFFFFFF00000000000000000000000000000000000000000000000000000000 DUP3 AND SWAP1 POP SWAP2 SWAP1 POP JUMP JUMPDEST PUSH1 0x0 PUSH20 0xFFFFFFFFFFFFFFFFFFFFFFFFFFFFFFFFFFFFFFFF DUP3 AND SWAP1 POP SWAP2 SWAP1 POP JUMP JUMPDEST PUSH1 0x0 DUP2 SWAP1 POP SWAP2 SWAP1 POP JUMP JUMPDEST DUP3 DUP2 DUP4 CALLDATACOPY PUSH1 0x0 DUP4 DUP4 ADD MSTORE POP POP POP JUMP JUMPDEST PUSH1 0x0 JUMPDEST DUP4 DUP2 LT ISZERO PUSH2 0x4C77 JUMPI DUP1 DUP3 ADD MLOAD DUP2 DUP5 ADD MSTORE PUSH1 0x20 DUP2 ADD SWAP1 POP PUSH2 0x4C5C JUMP JUMPDEST DUP4 DUP2 GT ISZERO PUSH2 0x4C86 JUMPI PUSH1 0x0 DUP5 DUP5 ADD MSTORE JUMPDEST POP POP POP POP JUMP JUMPDEST PUSH1 0x0 PUSH2 0x4C97 DUP3 PUSH2 0x4C40 JUMP JUMPDEST SWAP2 POP PUSH1 0x0 DUP3 EQ ISZERO PUSH2 0x4CAB JUMPI PUSH2 0x4CAA PUSH2 0x4D19 JUMP JUMPDEST JUMPDEST PUSH1 0x1 DUP3 SUB SWAP1 POP SWAP2 SWAP1 POP JUMP JUMPDEST PUSH1 0x0 PUSH1 0x2 DUP3 DIV SWAP1 POP PUSH1 0x1 DUP3 AND DUP1 PUSH2 0x4CCE JUMPI PUSH1 0x7F DUP3 AND SWAP2 POP JUMPDEST PUSH1 0x20 DUP3 LT DUP2 EQ ISZERO PUSH2 0x4CE2 JUMPI PUSH2 0x4CE1 PUSH2 0x4D77 JUMP JUMPDEST JUMPDEST POP SWAP2 SWAP1 POP JUMP JUMPDEST PUSH2 0x4CF1 DUP3 PUSH2 0x4E47 JUMP JUMPDEST DUP2 ADD DUP2 DUP2 LT PUSH8 0xFFFFFFFFFFFFFFFF DUP3 GT OR ISZERO PUSH2 0x4D10 JUMPI PUSH2 0x4D0F PUSH2 0x4E04 JUMP JUMPDEST JUMPDEST DUP1 PUSH1 0x40 MSTORE POP POP POP JUMP JUMPDEST PUSH32 0x4E487B7100000000000000000000000000000000000000000000000000000000 PUSH1 0x0 MSTORE PUSH1 0x11 PUSH1 0x4 MSTORE PUSH1 0x24 PUSH1 0x0 REVERT JUMPDEST PUSH32 0x4E487B7100000000000000000000000000000000000000000000000000000000 PUSH1 0x0 MSTORE PUSH1 0x12 PUSH1 0x4 MSTORE PUSH1 0x24 PUSH1 0x0 REVERT JUMPDEST PUSH32 0x4E487B7100000000000000000000000000000000000000000000000000000000 PUSH1 0x0 MSTORE PUSH1 0x22 PUSH1 0x4 MSTORE PUSH1 0x24 PUSH1 0x0 REVERT JUMPDEST PUSH32 0x4E487B7100000000000000000000000000000000000000000000000000000000 PUSH1 0x0 MSTORE PUSH1 0x31 PUSH1 0x4 MSTORE PUSH1 0x24 PUSH1 0x0 REVERT JUMPDEST PUSH32 0x4E487B7100000000000000000000000000000000000000000000000000000000 PUSH1 0x0 MSTORE PUSH1 0x32 PUSH1 0x4 MSTORE PUSH1 0x24 PUSH1 0x0 REVERT JUMPDEST PUSH32 0x4E487B7100000000000000000000000000000000000000000000000000000000 PUSH1 0x0 MSTORE PUSH1 0x41 PUSH1 0x4 MSTORE PUSH1 0x24 PUSH1 0x0 REVERT JUMPDEST PUSH1 0x0 DUP1 REVERT JUMPDEST PUSH1 0x0 DUP1 REVERT JUMPDEST PUSH1 0x0 DUP1 REVERT JUMPDEST PUSH1 0x0 DUP1 REVERT JUMPDEST PUSH1 0x0 PUSH1 0x1F NOT PUSH1 0x1F DUP4 ADD AND SWAP1 POP SWAP2 SWAP1 POP JUMP JUMPDEST PUSH32 0x537472696E67733A20686578206C656E67746820696E73756666696369656E74 PUSH1 0x0 DUP3 ADD MSTORE POP JUMP JUMPDEST PUSH32 0x4E4F5420454E4F55474820524553455256455300000000000000000000000000 PUSH1 0x0 DUP3 ADD MSTORE POP JUMP JUMPDEST PUSH32 0x43414E4E4F54205245504159204D4F5245205448414E204F5745440000000000 PUSH1 0x0 DUP3 ADD MSTORE POP JUMP JUMPDEST PUSH32 0x6E6F74206B6565706572206F722061646D696E00000000000000000000000000 PUSH1 0x0 DUP3 ADD MSTORE POP JUMP JUMPDEST PUSH32 0x4E4F5420454E4F55474820434F4C4C41544552414C20494E2052455345525645 PUSH1 0x0 DUP3 ADD MSTORE POP JUMP JUMPDEST PUSH32 0x416464726573733A20696E73756666696369656E742062616C616E636520666F PUSH1 0x0 DUP3 ADD MSTORE PUSH32 0x722063616C6C0000000000000000000000000000000000000000000000000000 PUSH1 0x20 DUP3 ADD MSTORE POP JUMP JUMPDEST PUSH32 0x416D6F756E74206973207A65726F202121000000000000000000000000000000 PUSH1 0x0 DUP3 ADD MSTORE POP JUMP JUMPDEST PUSH32 0x5641554C54204E4F5420554E444552434F4C4C41544552414C495A4544000000 PUSH1 0x0 DUP3 ADD MSTORE POP JUMP JUMPDEST PUSH32 0x4E4F5420454E4F554748204445425420544F4B454E5320494E20524553455256 PUSH1 0x0 DUP3 ADD MSTORE PUSH32 0x4500000000000000000000000000000000000000000000000000000000000000 PUSH1 0x20 DUP3 ADD MSTORE POP JUMP JUMPDEST PUSH32 0x43414E4E4F54205749544844524157204D4F524520434F4C4C41544552414C00 PUSH1 0x0 DUP3 ADD MSTORE POP JUMP JUMPDEST PUSH32 0x6F7065726174696F6E206E6F7420616C6C6F7765640000000000000000000000 PUSH1 0x0 DUP3 ADD MSTORE POP JUMP JUMPDEST PUSH32 0x4953204E4F542042414E4B20464143544F5259204F574E455200000000000000 PUSH1 0x0 DUP3 ADD MSTORE POP JUMP JUMPDEST PUSH32 0x4E4F5420454E4F55474820434F4C4C41544552414C0000000000000000000000 PUSH1 0x0 DUP3 ADD MSTORE POP JUMP JUMPDEST PUSH32 0x496E697469616C697A61626C653A20636F6E747261637420697320616C726561 PUSH1 0x0 DUP3 ADD MSTORE PUSH32 0x647920696E697469616C697A6564000000000000000000000000000000000000 PUSH1 0x20 DUP3 ADD MSTORE POP JUMP JUMPDEST PUSH32 0x43414E4E4F5420554E444552434F4C4C41544552414C495A45205641554C5400 PUSH1 0x0 DUP3 ADD MSTORE POP JUMP JUMPDEST PUSH32 0x416464726573733A2063616C6C20746F206E6F6E2D636F6E7472616374000000 PUSH1 0x0 DUP3 ADD MSTORE POP JUMP JUMPDEST PUSH32 0x6E6F742070726963652075706461746572206F722061646D696E000000000000 PUSH1 0x0 DUP3 ADD MSTORE POP JUMP JUMPDEST PUSH32 0x416363657373436F6E74726F6C3A206163636F756E7420000000000000000000 PUSH1 0x0 DUP3 ADD MSTORE POP JUMP JUMPDEST PUSH32 0x5361666545524332303A204552433230206F7065726174696F6E20646964206E PUSH1 0x0 DUP3 ADD MSTORE PUSH32 0x6F74207375636365656400000000000000000000000000000000000000000000 PUSH1 0x20 DUP3 ADD MSTORE POP JUMP JUMPDEST PUSH32 0x2173657461626C65000000000000000000000000000000000000000000000000 PUSH1 0x0 DUP3 ADD MSTORE POP JUMP JUMPDEST PUSH32 0x206973206D697373696E6720726F6C6520000000000000000000000000000000 PUSH1 0x0 DUP3 ADD MSTORE POP JUMP JUMPDEST PUSH32 0x416363657373436F6E74726F6C3A2063616E206F6E6C792072656E6F756E6365 PUSH1 0x0 DUP3 ADD MSTORE PUSH32 0x20726F6C657320666F722073656C660000000000000000000000000000000000 PUSH1 0x20 DUP3 ADD MSTORE POP JUMP JUMPDEST PUSH2 0x52A5 DUP2 PUSH2 0x4BBA JUMP JUMPDEST DUP2 EQ PUSH2 0x52B0 JUMPI PUSH1 0x0 DUP1 REVERT JUMPDEST POP JUMP JUMPDEST PUSH2 0x52BC DUP2 PUSH2 0x4BCC JUMP JUMPDEST DUP2 EQ PUSH2 0x52C7 JUMPI PUSH1 0x0 DUP1 REVERT JUMPDEST POP JUMP JUMPDEST PUSH2 0x52D3 DUP2 PUSH2 0x4BDE JUMP JUMPDEST DUP2 EQ PUSH2 0x52DE JUMPI PUSH1 0x0 DUP1 REVERT JUMPDEST POP JUMP JUMPDEST PUSH2 0x52EA DUP2 PUSH2 0x4BEA JUMP JUMPDEST DUP2 EQ PUSH2 0x52F5 JUMPI PUSH1 0x0 DUP1 REVERT JUMPDEST POP JUMP JUMPDEST PUSH2 0x5301 DUP2 PUSH2 0x4BF4 JUMP JUMPDEST DUP2 EQ PUSH2 0x530C JUMPI PUSH1 0x0 DUP1 REVERT JUMPDEST POP JUMP JUMPDEST PUSH2 0x5318 DUP2 PUSH2 0x4C40 JUMP JUMPDEST DUP2 EQ PUSH2 0x5323 JUMPI PUSH1 0x0 DUP1 REVERT JUMPDEST POP JUMP INVALID LOG2 PUSH5 0x6970667358 0x22 SLT KECCAK256 PUSH2 0xE393 LOG4 0xE9 0xE4 BALANCE LOG1 0x2A SSTORE 0x23 SWAP2 0x4B SIGNEXTEND 0x5E PUSH1 0x75 JUMP PUSH18 0xB9786B58F7B87D10AA3F8D8EB564736F6C63 NUMBER STOP ADDMOD MOD STOP CALLER "
    }
  }
}