{
  "abi": [
    {
      "inputs": [
        {
          "internalType": "address",
          "name": "_bankAddress",
          "type": "address"
        }
      ],
      "stateMutability": "nonpayable",
      "type": "constructor"
    },
    {
      "anonymous": false,
      "inputs": [
        {
          "indexed": false,
          "internalType": "address",
          "name": "newBankAddress",
          "type": "address"
        },
        {
          "indexed": false,
          "internalType": "address",
          "name": "owner",
          "type": "address"
        }
      ],
      "name": "BankCreated",
      "type": "event"
    },
    {
      "anonymous": false,
      "inputs": [
        {
          "indexed": true,
          "internalType": "address",
          "name": "previousOwner",
          "type": "address"
        },
        {
          "indexed": true,
          "internalType": "address",
          "name": "newOwner",
          "type": "address"
        }
      ],
      "name": "OwnershipTransferred",
      "type": "event"
    },
    {
      "inputs": [],
      "name": "bankAddress",
      "outputs": [
        {
          "internalType": "address",
          "name": "",
          "type": "address"
        }
      ],
      "stateMutability": "view",
      "type": "function"
    },
    {
      "inputs": [
        {
          "internalType": "string",
          "name": "name",
          "type": "string"
        },
        {
          "internalType": "uint256",
          "name": "interestRate",
          "type": "uint256"
        },
        {
          "internalType": "uint256",
          "name": "originationFee",
          "type": "uint256"
        },
        {
          "internalType": "uint256",
          "name": "collateralizationRatio",
          "type": "uint256"
        },
        {
          "internalType": "uint256",
          "name": "liquidationPenalty",
          "type": "uint256"
        },
        {
          "internalType": "uint256",
          "name": "period",
          "type": "uint256"
        },
        {
          "internalType": "address payable",
          "name": "oracleAddress",
          "type": "address"
        }
      ],
      "name": "createBank",
      "outputs": [
        {
          "internalType": "address",
          "name": "",
          "type": "address"
        }
      ],
      "stateMutability": "nonpayable",
      "type": "function"
    },
    {
      "inputs": [
        {
          "internalType": "uint256",
          "name": "index",
          "type": "uint256"
        }
      ],
      "name": "getBankAddressAtIndex",
      "outputs": [
        {
          "internalType": "address",
          "name": "",
          "type": "address"
        }
      ],
      "stateMutability": "view",
      "type": "function"
    },
    {
      "inputs": [],
      "name": "getNumberOfBanks",
      "outputs": [
        {
          "internalType": "uint256",
          "name": "",
          "type": "uint256"
        }
      ],
      "stateMutability": "view",
      "type": "function"
    },
    {
      "inputs": [],
      "name": "owner",
      "outputs": [
        {
          "internalType": "address",
          "name": "",
          "type": "address"
        }
      ],
      "stateMutability": "view",
      "type": "function"
    },
    {
      "inputs": [],
      "name": "renounceOwnership",
      "outputs": [],
      "stateMutability": "nonpayable",
      "type": "function"
    },
    {
      "inputs": [
        {
          "internalType": "address",
          "name": "newOwner",
          "type": "address"
        }
      ],
      "name": "transferOwnership",
      "outputs": [],
      "stateMutability": "nonpayable",
      "type": "function"
    }
  ],
  "evm": {
    "bytecode": {
      "linkReferences": {},
      "object": "60806040523480156200001157600080fd5b5060405162000f9638038062000f96833981810160405281019062000037919062000182565b620000576200004b6200009f60201b60201c565b620000a760201b60201c565b80600160006101000a81548173ffffffffffffffffffffffffffffffffffffffff021916908373ffffffffffffffffffffffffffffffffffffffff1602179055505062000207565b600033905090565b60008060009054906101000a900473ffffffffffffffffffffffffffffffffffffffff169050816000806101000a81548173ffffffffffffffffffffffffffffffffffffffff021916908373ffffffffffffffffffffffffffffffffffffffff1602179055508173ffffffffffffffffffffffffffffffffffffffff168173ffffffffffffffffffffffffffffffffffffffff167f8be0079c531659141344cd1fd0a4f28419497f9722a3daafe3b4186f6b6457e060405160405180910390a35050565b6000815190506200017c81620001ed565b92915050565b6000602082840312156200019b576200019a620001e8565b5b6000620001ab848285016200016b565b91505092915050565b6000620001c182620001c8565b9050919050565b600073ffffffffffffffffffffffffffffffffffffffff82169050919050565b600080fd5b620001f881620001b4565b81146200020457600080fd5b50565b610d7f80620002176000396000f3fe608060405234801561001057600080fd5b506004361061007d5760003560e01c8063715018a61161005b578063715018a6146101005780637822ed491461010a5780638da5cb5b14610128578063f2fde38b146101465761007d565b806304c660da14610082578063396bbcff146100b2578063438d7be8146100d0575b600080fd5b61009c6004803603810190610097919061085e565b610162565b6040516100a9919061095a565b60405180910390f35b6100ba6101b2565b6040516100c79190610a92565b60405180910390f35b6100ea60048036038101906100e591906107a0565b6101bf565b6040516100f7919061095a565b60405180910390f35b610108610354565b005b6101126103dc565b60405161011f919061095a565b60405180910390f35b610130610402565b60405161013d919061095a565b60405180910390f35b610160600480360381019061015b9190610773565b61042b565b005b6000806002838154811061017957610178610be0565b5b9060005260206000200190508060000160009054906101000a900473ffffffffffffffffffffffffffffffffffffffff16915050919050565b6000600280549050905090565b6000806101ed600160009054906101000a900473ffffffffffffffffffffffffffffffffffffffff16610523565b90508073ffffffffffffffffffffffffffffffffffffffff166370c12f1e338b8b8b8b8b8b61021a610402565b8c6040518a63ffffffff1660e01b815260040161023f9998979695949392919061099e565b600060405180830381600087803b15801561025957600080fd5b505af115801561026d573d6000803e3d6000fd5b50505050600060405180602001604052808373ffffffffffffffffffffffffffffffffffffffff1681525090506002819080600181540180825580915050600190039060005260206000200160009091909190915060008201518160000160006101000a81548173ffffffffffffffffffffffffffffffffffffffff021916908373ffffffffffffffffffffffffffffffffffffffff16021790555050507f7e5337f187d761895980242ae2148ec29fc88dbfb602b00846d90ae73f9edda7823360405161033c929190610975565b60405180910390a18192505050979650505050505050565b61035c6105f8565b73ffffffffffffffffffffffffffffffffffffffff1661037a610402565b73ffffffffffffffffffffffffffffffffffffffff16146103d0576040517f08c379a00000000000000000000000000000000000000000000000000000000081526004016103c790610a72565b60405180910390fd5b6103da6000610600565b565b600160009054906101000a900473ffffffffffffffffffffffffffffffffffffffff1681565b60008060009054906101000a900473ffffffffffffffffffffffffffffffffffffffff16905090565b6104336105f8565b73ffffffffffffffffffffffffffffffffffffffff16610451610402565b73ffffffffffffffffffffffffffffffffffffffff16146104a7576040517f08c379a000000000000000000000000000000000000000000000000000000000815260040161049e90610a72565b60405180910390fd5b600073ffffffffffffffffffffffffffffffffffffffff168173ffffffffffffffffffffffffffffffffffffffff161415610517576040517f08c379a000000000000000000000000000000000000000000000000000000000815260040161050e90610a32565b60405180910390fd5b61052081610600565b50565b60006040517f3d602d80600a3d3981f3363d3d373d3d3d363d7300000000000000000000000081528260601b60148201527f5af43d82803e903d91602b57fd5bf3000000000000000000000000000000000060288201526037816000f0915050600073ffffffffffffffffffffffffffffffffffffffff168173ffffffffffffffffffffffffffffffffffffffff1614156105f3576040517f08c379a00000000000000000000000000000000000000000000000000000000081526004016105ea90610a52565b60405180910390fd5b919050565b600033905090565b60008060009054906101000a900473ffffffffffffffffffffffffffffffffffffffff169050816000806101000a81548173ffffffffffffffffffffffffffffffffffffffff021916908373ffffffffffffffffffffffffffffffffffffffff1602179055508173ffffffffffffffffffffffffffffffffffffffff168173ffffffffffffffffffffffffffffffffffffffff167f8be0079c531659141344cd1fd0a4f28419497f9722a3daafe3b4186f6b6457e060405160405180910390a35050565b60006106d76106d284610ad2565b610aad565b9050828152602081018484840111156106f3576106f2610c43565b5b6106fe848285610b6d565b509392505050565b60008135905061071581610d04565b92915050565b60008135905061072a81610d1b565b92915050565b600082601f83011261074557610744610c3e565b5b81356107558482602086016106c4565b91505092915050565b60008135905061076d81610d32565b92915050565b60006020828403121561078957610788610c4d565b5b600061079784828501610706565b91505092915050565b600080600080600080600060e0888a0312156107bf576107be610c4d565b5b600088013567ffffffffffffffff8111156107dd576107dc610c48565b5b6107e98a828b01610730565b97505060206107fa8a828b0161075e565b965050604061080b8a828b0161075e565b955050606061081c8a828b0161075e565b945050608061082d8a828b0161075e565b93505060a061083e8a828b0161075e565b92505060c061084f8a828b0161071b565b91505092959891949750929550565b60006020828403121561087457610873610c4d565b5b60006108828482850161075e565b91505092915050565b61089481610b31565b82525050565b6108a381610b1f565b82525050565b60006108b482610b03565b6108be8185610b0e565b93506108ce818560208601610b7c565b6108d781610c52565b840191505092915050565b60006108ef602683610b0e565b91506108fa82610c63565b604082019050919050565b6000610912601683610b0e565b915061091d82610cb2565b602082019050919050565b6000610935602083610b0e565b915061094082610cdb565b602082019050919050565b61095481610b63565b82525050565b600060208201905061096f600083018461089a565b92915050565b600060408201905061098a600083018561089a565b610997602083018461089a565b9392505050565b6000610120820190506109b4600083018c61089a565b81810360208301526109c6818b6108a9565b90506109d5604083018a61094b565b6109e2606083018961094b565b6109ef608083018861094b565b6109fc60a083018761094b565b610a0960c083018661094b565b610a1660e083018561089a565b610a2461010083018461088b565b9a9950505050505050505050565b60006020820190508181036000830152610a4b816108e2565b9050919050565b60006020820190508181036000830152610a6b81610905565b9050919050565b60006020820190508181036000830152610a8b81610928565b9050919050565b6000602082019050610aa7600083018461094b565b92915050565b6000610ab7610ac8565b9050610ac38282610baf565b919050565b6000604051905090565b600067ffffffffffffffff821115610aed57610aec610c0f565b5b610af682610c52565b9050602081019050919050565b600081519050919050565b600082825260208201905092915050565b6000610b2a82610b43565b9050919050565b6000610b3c82610b43565b9050919050565b600073ffffffffffffffffffffffffffffffffffffffff82169050919050565b6000819050919050565b82818337600083830152505050565b60005b83811015610b9a578082015181840152602081019050610b7f565b83811115610ba9576000848401525b50505050565b610bb882610c52565b810181811067ffffffffffffffff82111715610bd757610bd6610c0f565b5b80604052505050565b7f4e487b7100000000000000000000000000000000000000000000000000000000600052603260045260246000fd5b7f4e487b7100000000000000000000000000000000000000000000000000000000600052604160045260246000fd5b600080fd5b600080fd5b600080fd5b600080fd5b6000601f19601f8301169050919050565b7f4f776e61626c653a206e6577206f776e657220697320746865207a65726f206160008201527f6464726573730000000000000000000000000000000000000000000000000000602082015250565b7f455243313136373a20637265617465206661696c656400000000000000000000600082015250565b7f4f776e61626c653a2063616c6c6572206973206e6f7420746865206f776e6572600082015250565b610d0d81610b1f565b8114610d1857600080fd5b50565b610d2481610b31565b8114610d2f57600080fd5b50565b610d3b81610b63565b8114610d4657600080fd5b5056fea2646970667358221220283b96473c300de8a1e7b3b5226cb5b2cc2b523bff8fb3033b01ceb4697af88f64736f6c63430008060033",
      "opcodes": "PUSH1 0x80 PUSH1 0x40 MSTORE CALLVALUE DUP1 ISZERO PUSH3 0x11 JUMPI PUSH1 0x0 DUP1 REVERT JUMPDEST POP PUSH1 0x40 MLOAD PUSH3 0xF96 CODESIZE SUB DUP1 PUSH3 0xF96 DUP4 CODECOPY DUP2 DUP2 ADD PUSH1 0x40 MSTORE DUP2 ADD SWAP1 PUSH3 0x37 SWAP2 SWAP1 PUSH3 0x182 JUMP JUMPDEST PUSH3 0x57 PUSH3 0x4B PUSH3 0x9F PUSH1 0x20 SHL PUSH1 0x20 SHR JUMP JUMPDEST PUSH3 0xA7 PUSH1 0x20 SHL PUSH1 0x20 SHR JUMP JUMPDEST DUP1 PUSH1 0x1 PUSH1 0x0 PUSH2 0x100 EXP DUP2 SLOAD DUP2 PUSH20 0xFFFFFFFFFFFFFFFFFFFFFFFFFFFFFFFFFFFFFFFF MUL NOT AND SWAP1 DUP4 PUSH20 0xFFFFFFFFFFFFFFFFFFFFFFFFFFFFFFFFFFFFFFFF AND MUL OR SWAP1 SSTORE POP POP PUSH3 0x207 JUMP JUMPDEST PUSH1 0x0 CALLER SWAP1 POP SWAP1 JUMP JUMPDEST PUSH1 0x0 DUP1 PUSH1 0x0 SWAP1 SLOAD SWAP1 PUSH2 0x100 EXP SWAP1 DIV PUSH20 0xFFFFFFFFFFFFFFFFFFFFFFFFFFFFFFFFFFFFFFFF AND SWAP1 POP DUP2 PUSH1 0x0 DUP1 PUSH2 0x100 EXP DUP2 SLOAD DUP2 PUSH20 0xFFFFFFFFFFFFFFFFFFFFFFFFFFFFFFFFFFFFFFFF MUL NOT AND SWAP1 DUP4 PUSH20 0xFFFFFFFFFFFFFFFFFFFFFFFFFFFFFFFFFFFFFFFF AND MUL OR SWAP1 SSTORE POP DUP2 PUSH20 0xFFFFFFFFFFFFFFFFFFFFFFFFFFFFFFFFFFFFFFFF AND DUP2 PUSH20 0xFFFFFFFFFFFFFFFFFFFFFFFFFFFFFFFFFFFFFFFF AND PUSH32 0x8BE0079C531659141344CD1FD0A4F28419497F9722A3DAAFE3B4186F6B6457E0 PUSH1 0x40 MLOAD PUSH1 0x40 MLOAD DUP1 SWAP2 SUB SWAP1 LOG3 POP POP JUMP JUMPDEST PUSH1 0x0 DUP2 MLOAD SWAP1 POP PUSH3 0x17C DUP2 PUSH3 0x1ED JUMP JUMPDEST SWAP3 SWAP2 POP POP JUMP JUMPDEST PUSH1 0x0 PUSH1 0x20 DUP3 DUP5 SUB SLT ISZERO PUSH3 0x19B JUMPI PUSH3 0x19A PUSH3 0x1E8 JUMP JUMPDEST JUMPDEST PUSH1 0x0 PUSH3 0x1AB DUP5 DUP3 DUP6 ADD PUSH3 0x16B JUMP JUMPDEST SWAP2 POP POP SWAP3 SWAP2 POP POP JUMP JUMPDEST PUSH1 0x0 PUSH3 0x1C1 DUP3 PUSH3 0x1C8 JUMP JUMPDEST SWAP1 POP SWAP2 SWAP1 POP JUMP JUMPDEST PUSH1 0x0 PUSH20 0xFFFFFFFFFFFFFFFFFFFFFFFFFFFFFFFFFFFFFFFF DUP3 AND SWAP1 POP SWAP2 SWAP1 POP JUMP JUMPDEST PUSH1 0x0 DUP1 REVERT JUMPDEST PUSH3 0x1F8 DUP2 PUSH3 0x1B4 JUMP JUMPDEST DUP2 EQ PUSH3 0x204 JUMPI PUSH1 0x0 DUP1 REVERT JUMPDEST POP JUMP JUMPDEST PUSH2 0xD7F DUP1 PUSH3 0x217 PUSH1 0x0 CODECOPY PUSH1 0x0 RETURN INVALID PUSH1 0x80 PUSH1 0x40 MSTORE CALLVALUE DUP1 ISZERO PUSH2 0x10 JUMPI PUSH1 0x0 DUP1 REVERT JUMPDEST POP PUSH1 0x4 CALLDATASIZE LT PUSH2 0x7D JUMPI PUSH1 0x0 CALLDATALOAD PUSH1 0xE0 SHR DUP1 PUSH4 0x715018A6 GT PUSH2 0x5B JUMPI DUP1 PUSH4 0x715018A6 EQ PUSH2 0x100 JUMPI DUP1 PUSH4 0x7822ED49 EQ PUSH2 0x10A JUMPI DUP1 PUSH4 0x8DA5CB5B EQ PUSH2 0x128 JUMPI DUP1 PUSH4 0xF2FDE38B EQ PUSH2 0x146 JUMPI PUSH2 0x7D JUMP JUMPDEST DUP1 PUSH4 0x4C660DA EQ PUSH2 0x82 JUMPI DUP1 PUSH4 0x396BBCFF EQ PUSH2 0xB2 JUMPI DUP1 PUSH4 0x438D7BE8 EQ PUSH2 0xD0 JUMPI JUMPDEST PUSH1 0x0 DUP1 REVERT JUMPDEST PUSH2 0x9C PUSH1 0x4 DUP1 CALLDATASIZE SUB DUP2 ADD SWAP1 PUSH2 0x97 SWAP2 SWAP1 PUSH2 0x85E JUMP JUMPDEST PUSH2 0x162 JUMP JUMPDEST PUSH1 0x40 MLOAD PUSH2 0xA9 SWAP2 SWAP1 PUSH2 0x95A JUMP JUMPDEST PUSH1 0x40 MLOAD DUP1 SWAP2 SUB SWAP1 RETURN JUMPDEST PUSH2 0xBA PUSH2 0x1B2 JUMP JUMPDEST PUSH1 0x40 MLOAD PUSH2 0xC7 SWAP2 SWAP1 PUSH2 0xA92 JUMP JUMPDEST PUSH1 0x40 MLOAD DUP1 SWAP2 SUB SWAP1 RETURN JUMPDEST PUSH2 0xEA PUSH1 0x4 DUP1 CALLDATASIZE SUB DUP2 ADD SWAP1 PUSH2 0xE5 SWAP2 SWAP1 PUSH2 0x7A0 JUMP JUMPDEST PUSH2 0x1BF JUMP JUMPDEST PUSH1 0x40 MLOAD PUSH2 0xF7 SWAP2 SWAP1 PUSH2 0x95A JUMP JUMPDEST PUSH1 0x40 MLOAD DUP1 SWAP2 SUB SWAP1 RETURN JUMPDEST PUSH2 0x108 PUSH2 0x354 JUMP JUMPDEST STOP JUMPDEST PUSH2 0x112 PUSH2 0x3DC JUMP JUMPDEST PUSH1 0x40 MLOAD PUSH2 0x11F SWAP2 SWAP1 PUSH2 0x95A JUMP JUMPDEST PUSH1 0x40 MLOAD DUP1 SWAP2 SUB SWAP1 RETURN JUMPDEST PUSH2 0x130 PUSH2 0x402 JUMP JUMPDEST PUSH1 0x40 MLOAD PUSH2 0x13D SWAP2 SWAP1 PUSH2 0x95A JUMP JUMPDEST PUSH1 0x40 MLOAD DUP1 SWAP2 SUB SWAP1 RETURN JUMPDEST PUSH2 0x160 PUSH1 0x4 DUP1 CALLDATASIZE SUB DUP2 ADD SWAP1 PUSH2 0x15B SWAP2 SWAP1 PUSH2 0x773 JUMP JUMPDEST PUSH2 0x42B JUMP JUMPDEST STOP JUMPDEST PUSH1 0x0 DUP1 PUSH1 0x2 DUP4 DUP2 SLOAD DUP2 LT PUSH2 0x179 JUMPI PUSH2 0x178 PUSH2 0xBE0 JUMP JUMPDEST JUMPDEST SWAP1 PUSH1 0x0 MSTORE PUSH1 0x20 PUSH1 0x0 KECCAK256 ADD SWAP1 POP DUP1 PUSH1 0x0 ADD PUSH1 0x0 SWAP1 SLOAD SWAP1 PUSH2 0x100 EXP SWAP1 DIV PUSH20 0xFFFFFFFFFFFFFFFFFFFFFFFFFFFFFFFFFFFFFFFF AND SWAP2 POP POP SWAP2 SWAP1 POP JUMP JUMPDEST PUSH1 0x0 PUSH1 0x2 DUP1 SLOAD SWAP1 POP SWAP1 POP SWAP1 JUMP JUMPDEST PUSH1 0x0 DUP1 PUSH2 0x1ED PUSH1 0x1 PUSH1 0x0 SWAP1 SLOAD SWAP1 PUSH2 0x100 EXP SWAP1 DIV PUSH20 0xFFFFFFFFFFFFFFFFFFFFFFFFFFFFFFFFFFFFFFFF AND PUSH2 0x523 JUMP JUMPDEST SWAP1 POP DUP1 PUSH20 0xFFFFFFFFFFFFFFFFFFFFFFFFFFFFFFFFFFFFFFFF AND PUSH4 0x70C12F1E CALLER DUP12 DUP12 DUP12 DUP12 DUP12 DUP12 PUSH2 0x21A PUSH2 0x402 JUMP JUMPDEST DUP13 PUSH1 0x40 MLOAD DUP11 PUSH4 0xFFFFFFFF AND PUSH1 0xE0 SHL DUP2 MSTORE PUSH1 0x4 ADD PUSH2 0x23F SWAP10 SWAP9 SWAP8 SWAP7 SWAP6 SWAP5 SWAP4 SWAP3 SWAP2 SWAP1 PUSH2 0x99E JUMP JUMPDEST PUSH1 0x0 PUSH1 0x40 MLOAD DUP1 DUP4 SUB DUP2 PUSH1 0x0 DUP8 DUP1 EXTCODESIZE ISZERO DUP1 ISZERO PUSH2 0x259 JUMPI PUSH1 0x0 DUP1 REVERT JUMPDEST POP GAS CALL ISZERO DUP1 ISZERO PUSH2 0x26D JUMPI RETURNDATASIZE PUSH1 0x0 DUP1 RETURNDATACOPY RETURNDATASIZE PUSH1 0x0 REVERT JUMPDEST POP POP POP POP PUSH1 0x0 PUSH1 0x40 MLOAD DUP1 PUSH1 0x20 ADD PUSH1 0x40 MSTORE DUP1 DUP4 PUSH20 0xFFFFFFFFFFFFFFFFFFFFFFFFFFFFFFFFFFFFFFFF AND DUP2 MSTORE POP SWAP1 POP PUSH1 0x2 DUP2 SWAP1 DUP1 PUSH1 0x1 DUP2 SLOAD ADD DUP1 DUP3 SSTORE DUP1 SWAP2 POP POP PUSH1 0x1 SWAP1 SUB SWAP1 PUSH1 0x0 MSTORE PUSH1 0x20 PUSH1 0x0 KECCAK256 ADD PUSH1 0x0 SWAP1 SWAP2 SWAP1 SWAP2 SWAP1 SWAP2 POP PUSH1 0x0 DUP3 ADD MLOAD DUP2 PUSH1 0x0 ADD PUSH1 0x0 PUSH2 0x100 EXP DUP2 SLOAD DUP2 PUSH20 0xFFFFFFFFFFFFFFFFFFFFFFFFFFFFFFFFFFFFFFFF MUL NOT AND SWAP1 DUP4 PUSH20 0xFFFFFFFFFFFFFFFFFFFFFFFFFFFFFFFFFFFFFFFF AND MUL OR SWAP1 SSTORE POP POP POP PUSH32 0x7E5337F187D761895980242AE2148EC29FC88DBFB602B00846D90AE73F9EDDA7 DUP3 CALLER PUSH1 0x40 MLOAD PUSH2 0x33C SWAP3 SWAP2 SWAP1 PUSH2 0x975 JUMP JUMPDEST PUSH1 0x40 MLOAD DUP1 SWAP2 SUB SWAP1 LOG1 DUP2 SWAP3 POP POP POP SWAP8 SWAP7 POP POP POP POP POP POP POP JUMP JUMPDEST PUSH2 0x35C PUSH2 0x5F8 JUMP JUMPDEST PUSH20 0xFFFFFFFFFFFFFFFFFFFFFFFFFFFFFFFFFFFFFFFF AND PUSH2 0x37A PUSH2 0x402 JUMP JUMPDEST PUSH20 0xFFFFFFFFFFFFFFFFFFFFFFFFFFFFFFFFFFFFFFFF AND EQ PUSH2 0x3D0 JUMPI PUSH1 0x40 MLOAD PUSH32 0x8C379A000000000000000000000000000000000000000000000000000000000 DUP2 MSTORE PUSH1 0x4 ADD PUSH2 0x3C7 SWAP1 PUSH2 0xA72 JUMP JUMPDEST PUSH1 0x40 MLOAD DUP1 SWAP2 SUB SWAP1 REVERT JUMPDEST PUSH2 0x3DA PUSH1 0x0 PUSH2 0x600 JUMP JUMPDEST JUMP JUMPDEST PUSH1 0x1 PUSH1 0x0 SWAP1 SLOAD SWAP1 PUSH2 0x100 EXP SWAP1 DIV PUSH20 0xFFFFFFFFFFFFFFFFFFFFFFFFFFFFFFFFFFFFFFFF AND DUP2 JUMP JUMPDEST PUSH1 0x0 DUP1 PUSH1 0x0 SWAP1 SLOAD SWAP1 PUSH2 0x100 EXP SWAP1 DIV PUSH20 0xFFFFFFFFFFFFFFFFFFFFFFFFFFFFFFFFFFFFFFFF AND SWAP1 POP SWAP1 JUMP JUMPDEST PUSH2 0x433 PUSH2 0x5F8 JUMP JUMPDEST PUSH20 0xFFFFFFFFFFFFFFFFFFFFFFFFFFFFFFFFFFFFFFFF AND PUSH2 0x451 PUSH2 0x402 JUMP JUMPDEST PUSH20 0xFFFFFFFFFFFFFFFFFFFFFFFFFFFFFFFFFFFFFFFF AND EQ PUSH2 0x4A7 JUMPI PUSH1 0x40 MLOAD PUSH32 0x8C379A000000000000000000000000000000000000000000000000000000000 DUP2 MSTORE PUSH1 0x4 ADD PUSH2 0x49E SWAP1 PUSH2 0xA72 JUMP JUMPDEST PUSH1 0x40 MLOAD DUP1 SWAP2 SUB SWAP1 REVERT JUMPDEST PUSH1 0x0 PUSH20 0xFFFFFFFFFFFFFFFFFFFFFFFFFFFFFFFFFFFFFFFF AND DUP2 PUSH20 0xFFFFFFFFFFFFFFFFFFFFFFFFFFFFFFFFFFFFFFFF AND EQ ISZERO PUSH2 0x517 JUMPI PUSH1 0x40 MLOAD PUSH32 0x8C379A000000000000000000000000000000000000000000000000000000000 DUP2 MSTORE PUSH1 0x4 ADD PUSH2 0x50E SWAP1 PUSH2 0xA32 JUMP JUMPDEST PUSH1 0x40 MLOAD DUP1 SWAP2 SUB SWAP1 REVERT JUMPDEST PUSH2 0x520 DUP2 PUSH2 0x600 JUMP JUMPDEST POP JUMP JUMPDEST PUSH1 0x0 PUSH1 0x40 MLOAD PUSH32 0x3D602D80600A3D3981F3363D3D373D3D3D363D73000000000000000000000000 DUP2 MSTORE DUP3 PUSH1 0x60 SHL PUSH1 0x14 DUP3 ADD MSTORE PUSH32 0x5AF43D82803E903D91602B57FD5BF30000000000000000000000000000000000 PUSH1 0x28 DUP3 ADD MSTORE PUSH1 0x37 DUP2 PUSH1 0x0 CREATE SWAP2 POP POP PUSH1 0x0 PUSH20 0xFFFFFFFFFFFFFFFFFFFFFFFFFFFFFFFFFFFFFFFF AND DUP2 PUSH20 0xFFFFFFFFFFFFFFFFFFFFFFFFFFFFFFFFFFFFFFFF AND EQ ISZERO PUSH2 0x5F3 JUMPI PUSH1 0x40 MLOAD PUSH32 0x8C379A000000000000000000000000000000000000000000000000000000000 DUP2 MSTORE PUSH1 0x4 ADD PUSH2 0x5EA SWAP1 PUSH2 0xA52 JUMP JUMPDEST PUSH1 0x40 MLOAD DUP1 SWAP2 SUB SWAP1 REVERT JUMPDEST SWAP2 SWAP1 POP JUMP JUMPDEST PUSH1 0x0 CALLER SWAP1 POP SWAP1 JUMP JUMPDEST PUSH1 0x0 DUP1 PUSH1 0x0 SWAP1 SLOAD SWAP1 PUSH2 0x100 EXP SWAP1 DIV PUSH20 0xFFFFFFFFFFFFFFFFFFFFFFFFFFFFFFFFFFFFFFFF AND SWAP1 POP DUP2 PUSH1 0x0 DUP1 PUSH2 0x100 EXP DUP2 SLOAD DUP2 PUSH20 0xFFFFFFFFFFFFFFFFFFFFFFFFFFFFFFFFFFFFFFFF MUL NOT AND SWAP1 DUP4 PUSH20 0xFFFFFFFFFFFFFFFFFFFFFFFFFFFFFFFFFFFFFFFF AND MUL OR SWAP1 SSTORE POP DUP2 PUSH20 0xFFFFFFFFFFFFFFFFFFFFFFFFFFFFFFFFFFFFFFFF AND DUP2 PUSH20 0xFFFFFFFFFFFFFFFFFFFFFFFFFFFFFFFFFFFFFFFF AND PUSH32 0x8BE0079C531659141344CD1FD0A4F28419497F9722A3DAAFE3B4186F6B6457E0 PUSH1 0x40 MLOAD PUSH1 0x40 MLOAD DUP1 SWAP2 SUB SWAP1 LOG3 POP POP JUMP JUMPDEST PUSH1 0x0 PUSH2 0x6D7 PUSH2 0x6D2 DUP5 PUSH2 0xAD2 JUMP JUMPDEST PUSH2 0xAAD JUMP JUMPDEST SWAP1 POP DUP3 DUP2 MSTORE PUSH1 0x20 DUP2 ADD DUP5 DUP5 DUP5 ADD GT ISZERO PUSH2 0x6F3 JUMPI PUSH2 0x6F2 PUSH2 0xC43 JUMP JUMPDEST JUMPDEST PUSH2 0x6FE DUP5 DUP3 DUP6 PUSH2 0xB6D JUMP JUMPDEST POP SWAP4 SWAP3 POP POP POP JUMP JUMPDEST PUSH1 0x0 DUP2 CALLDATALOAD SWAP1 POP PUSH2 0x715 DUP2 PUSH2 0xD04 JUMP JUMPDEST SWAP3 SWAP2 POP POP JUMP JUMPDEST PUSH1 0x0 DUP2 CALLDATALOAD SWAP1 POP PUSH2 0x72A DUP2 PUSH2 0xD1B JUMP JUMPDEST SWAP3 SWAP2 POP POP JUMP JUMPDEST PUSH1 0x0 DUP3 PUSH1 0x1F DUP4 ADD SLT PUSH2 0x745 JUMPI PUSH2 0x744 PUSH2 0xC3E JUMP JUMPDEST JUMPDEST DUP2 CALLDATALOAD PUSH2 0x755 DUP5 DUP3 PUSH1 0x20 DUP7 ADD PUSH2 0x6C4 JUMP JUMPDEST SWAP2 POP POP SWAP3 SWAP2 POP POP JUMP JUMPDEST PUSH1 0x0 DUP2 CALLDATALOAD SWAP1 POP PUSH2 0x76D DUP2 PUSH2 0xD32 JUMP JUMPDEST SWAP3 SWAP2 POP POP JUMP JUMPDEST PUSH1 0x0 PUSH1 0x20 DUP3 DUP5 SUB SLT ISZERO PUSH2 0x789 JUMPI PUSH2 0x788 PUSH2 0xC4D JUMP JUMPDEST JUMPDEST PUSH1 0x0 PUSH2 0x797 DUP5 DUP3 DUP6 ADD PUSH2 0x706 JUMP JUMPDEST SWAP2 POP POP SWAP3 SWAP2 POP POP JUMP JUMPDEST PUSH1 0x0 DUP1 PUSH1 0x0 DUP1 PUSH1 0x0 DUP1 PUSH1 0x0 PUSH1 0xE0 DUP9 DUP11 SUB SLT ISZERO PUSH2 0x7BF JUMPI PUSH2 0x7BE PUSH2 0xC4D JUMP JUMPDEST JUMPDEST PUSH1 0x0 DUP9 ADD CALLDATALOAD PUSH8 0xFFFFFFFFFFFFFFFF DUP2 GT ISZERO PUSH2 0x7DD JUMPI PUSH2 0x7DC PUSH2 0xC48 JUMP JUMPDEST JUMPDEST PUSH2 0x7E9 DUP11 DUP3 DUP12 ADD PUSH2 0x730 JUMP JUMPDEST SWAP8 POP POP PUSH1 0x20 PUSH2 0x7FA DUP11 DUP3 DUP12 ADD PUSH2 0x75E JUMP JUMPDEST SWAP7 POP POP PUSH1 0x40 PUSH2 0x80B DUP11 DUP3 DUP12 ADD PUSH2 0x75E JUMP JUMPDEST SWAP6 POP POP PUSH1 0x60 PUSH2 0x81C DUP11 DUP3 DUP12 ADD PUSH2 0x75E JUMP JUMPDEST SWAP5 POP POP PUSH1 0x80 PUSH2 0x82D DUP11 DUP3 DUP12 ADD PUSH2 0x75E JUMP JUMPDEST SWAP4 POP POP PUSH1 0xA0 PUSH2 0x83E DUP11 DUP3 DUP12 ADD PUSH2 0x75E JUMP JUMPDEST SWAP3 POP POP PUSH1 0xC0 PUSH2 0x84F DUP11 DUP3 DUP12 ADD PUSH2 0x71B JUMP JUMPDEST SWAP2 POP POP SWAP3 SWAP6 SWAP9 SWAP2 SWAP5 SWAP8 POP SWAP3 SWAP6 POP JUMP JUMPDEST PUSH1 0x0 PUSH1 0x20 DUP3 DUP5 SUB SLT ISZERO PUSH2 0x874 JUMPI PUSH2 0x873 PUSH2 0xC4D JUMP JUMPDEST JUMPDEST PUSH1 0x0 PUSH2 0x882 DUP5 DUP3 DUP6 ADD PUSH2 0x75E JUMP JUMPDEST SWAP2 POP POP SWAP3 SWAP2 POP POP JUMP JUMPDEST PUSH2 0x894 DUP2 PUSH2 0xB31 JUMP JUMPDEST DUP3 MSTORE POP POP JUMP JUMPDEST PUSH2 0x8A3 DUP2 PUSH2 0xB1F JUMP JUMPDEST DUP3 MSTORE POP POP JUMP JUMPDEST PUSH1 0x0 PUSH2 0x8B4 DUP3 PUSH2 0xB03 JUMP JUMPDEST PUSH2 0x8BE DUP2 DUP6 PUSH2 0xB0E JUMP JUMPDEST SWAP4 POP PUSH2 0x8CE DUP2 DUP6 PUSH1 0x20 DUP7 ADD PUSH2 0xB7C JUMP JUMPDEST PUSH2 0x8D7 DUP2 PUSH2 0xC52 JUMP JUMPDEST DUP5 ADD SWAP2 POP POP SWAP3 SWAP2 POP POP JUMP JUMPDEST PUSH1 0x0 PUSH2 0x8EF PUSH1 0x26 DUP4 PUSH2 0xB0E JUMP JUMPDEST SWAP2 POP PUSH2 0x8FA DUP3 PUSH2 0xC63 JUMP JUMPDEST PUSH1 0x40 DUP3 ADD SWAP1 POP SWAP2 SWAP1 POP JUMP JUMPDEST PUSH1 0x0 PUSH2 0x912 PUSH1 0x16 DUP4 PUSH2 0xB0E JUMP JUMPDEST SWAP2 POP PUSH2 0x91D DUP3 PUSH2 0xCB2 JUMP JUMPDEST PUSH1 0x20 DUP3 ADD SWAP1 POP SWAP2 SWAP1 POP JUMP JUMPDEST PUSH1 0x0 PUSH2 0x935 PUSH1 0x20 DUP4 PUSH2 0xB0E JUMP JUMPDEST SWAP2 POP PUSH2 0x940 DUP3 PUSH2 0xCDB JUMP JUMPDEST PUSH1 0x20 DUP3 ADD SWAP1 POP SWAP2 SWAP1 POP JUMP JUMPDEST PUSH2 0x954 DUP2 PUSH2 0xB63 JUMP JUMPDEST DUP3 MSTORE POP POP JUMP JUMPDEST PUSH1 0x0 PUSH1 0x20 DUP3 ADD SWAP1 POP PUSH2 0x96F PUSH1 0x0 DUP4 ADD DUP5 PUSH2 0x89A JUMP JUMPDEST SWAP3 SWAP2 POP POP JUMP JUMPDEST PUSH1 0x0 PUSH1 0x40 DUP3 ADD SWAP1 POP PUSH2 0x98A PUSH1 0x0 DUP4 ADD DUP6 PUSH2 0x89A JUMP JUMPDEST PUSH2 0x997 PUSH1 0x20 DUP4 ADD DUP5 PUSH2 0x89A JUMP JUMPDEST SWAP4 SWAP3 POP POP POP JUMP JUMPDEST PUSH1 0x0 PUSH2 0x120 DUP3 ADD SWAP1 POP PUSH2 0x9B4 PUSH1 0x0 DUP4 ADD DUP13 PUSH2 0x89A JUMP JUMPDEST DUP2 DUP2 SUB PUSH1 0x20 DUP4 ADD MSTORE PUSH2 0x9C6 DUP2 DUP12 PUSH2 0x8A9 JUMP JUMPDEST SWAP1 POP PUSH2 0x9D5 PUSH1 0x40 DUP4 ADD DUP11 PUSH2 0x94B JUMP JUMPDEST PUSH2 0x9E2 PUSH1 0x60 DUP4 ADD DUP10 PUSH2 0x94B JUMP JUMPDEST PUSH2 0x9EF PUSH1 0x80 DUP4 ADD DUP9 PUSH2 0x94B JUMP JUMPDEST PUSH2 0x9FC PUSH1 0xA0 DUP4 ADD DUP8 PUSH2 0x94B JUMP JUMPDEST PUSH2 0xA09 PUSH1 0xC0 DUP4 ADD DUP7 PUSH2 0x94B JUMP JUMPDEST PUSH2 0xA16 PUSH1 0xE0 DUP4 ADD DUP6 PUSH2 0x89A JUMP JUMPDEST PUSH2 0xA24 PUSH2 0x100 DUP4 ADD DUP5 PUSH2 0x88B JUMP JUMPDEST SWAP11 SWAP10 POP POP POP POP POP POP POP POP POP POP JUMP JUMPDEST PUSH1 0x0 PUSH1 0x20 DUP3 ADD SWAP1 POP DUP2 DUP2 SUB PUSH1 0x0 DUP4 ADD MSTORE PUSH2 0xA4B DUP2 PUSH2 0x8E2 JUMP JUMPDEST SWAP1 POP SWAP2 SWAP1 POP JUMP JUMPDEST PUSH1 0x0 PUSH1 0x20 DUP3 ADD SWAP1 POP DUP2 DUP2 SUB PUSH1 0x0 DUP4 ADD MSTORE PUSH2 0xA6B DUP2 PUSH2 0x905 JUMP JUMPDEST SWAP1 POP SWAP2 SWAP1 POP JUMP JUMPDEST PUSH1 0x0 PUSH1 0x20 DUP3 ADD SWAP1 POP DUP2 DUP2 SUB PUSH1 0x0 DUP4 ADD MSTORE PUSH2 0xA8B DUP2 PUSH2 0x928 JUMP JUMPDEST SWAP1 POP SWAP2 SWAP1 POP JUMP JUMPDEST PUSH1 0x0 PUSH1 0x20 DUP3 ADD SWAP1 POP PUSH2 0xAA7 PUSH1 0x0 DUP4 ADD DUP5 PUSH2 0x94B JUMP JUMPDEST SWAP3 SWAP2 POP POP JUMP JUMPDEST PUSH1 0x0 PUSH2 0xAB7 PUSH2 0xAC8 JUMP JUMPDEST SWAP1 POP PUSH2 0xAC3 DUP3 DUP3 PUSH2 0xBAF JUMP JUMPDEST SWAP2 SWAP1 POP JUMP JUMPDEST PUSH1 0x0 PUSH1 0x40 MLOAD SWAP1 POP SWAP1 JUMP JUMPDEST PUSH1 0x0 PUSH8 0xFFFFFFFFFFFFFFFF DUP3 GT ISZERO PUSH2 0xAED JUMPI PUSH2 0xAEC PUSH2 0xC0F JUMP JUMPDEST JUMPDEST PUSH2 0xAF6 DUP3 PUSH2 0xC52 JUMP JUMPDEST SWAP1 POP PUSH1 0x20 DUP2 ADD SWAP1 POP SWAP2 SWAP1 POP JUMP JUMPDEST PUSH1 0x0 DUP2 MLOAD SWAP1 POP SWAP2 SWAP1 POP JUMP JUMPDEST PUSH1 0x0 DUP3 DUP3 MSTORE PUSH1 0x20 DUP3 ADD SWAP1 POP SWAP3 SWAP2 POP POP JUMP JUMPDEST PUSH1 0x0 PUSH2 0xB2A DUP3 PUSH2 0xB43 JUMP JUMPDEST SWAP1 POP SWAP2 SWAP1 POP JUMP JUMPDEST PUSH1 0x0 PUSH2 0xB3C DUP3 PUSH2 0xB43 JUMP JUMPDEST SWAP1 POP SWAP2 SWAP1 POP JUMP JUMPDEST PUSH1 0x0 PUSH20 0xFFFFFFFFFFFFFFFFFFFFFFFFFFFFFFFFFFFFFFFF DUP3 AND SWAP1 POP SWAP2 SWAP1 POP JUMP JUMPDEST PUSH1 0x0 DUP2 SWAP1 POP SWAP2 SWAP1 POP JUMP JUMPDEST DUP3 DUP2 DUP4 CALLDATACOPY PUSH1 0x0 DUP4 DUP4 ADD MSTORE POP POP POP JUMP JUMPDEST PUSH1 0x0 JUMPDEST DUP4 DUP2 LT ISZERO PUSH2 0xB9A JUMPI DUP1 DUP3 ADD MLOAD DUP2 DUP5 ADD MSTORE PUSH1 0x20 DUP2 ADD SWAP1 POP PUSH2 0xB7F JUMP JUMPDEST DUP4 DUP2 GT ISZERO PUSH2 0xBA9 JUMPI PUSH1 0x0 DUP5 DUP5 ADD MSTORE JUMPDEST POP POP POP POP JUMP JUMPDEST PUSH2 0xBB8 DUP3 PUSH2 0xC52 JUMP JUMPDEST DUP2 ADD DUP2 DUP2 LT PUSH8 0xFFFFFFFFFFFFFFFF DUP3 GT OR ISZERO PUSH2 0xBD7 JUMPI PUSH2 0xBD6 PUSH2 0xC0F JUMP JUMPDEST JUMPDEST DUP1 PUSH1 0x40 MSTORE POP POP POP JUMP JUMPDEST PUSH32 0x4E487B7100000000000000000000000000000000000000000000000000000000 PUSH1 0x0 MSTORE PUSH1 0x32 PUSH1 0x4 MSTORE PUSH1 0x24 PUSH1 0x0 REVERT JUMPDEST PUSH32 0x4E487B7100000000000000000000000000000000000000000000000000000000 PUSH1 0x0 MSTORE PUSH1 0x41 PUSH1 0x4 MSTORE PUSH1 0x24 PUSH1 0x0 REVERT JUMPDEST PUSH1 0x0 DUP1 REVERT JUMPDEST PUSH1 0x0 DUP1 REVERT JUMPDEST PUSH1 0x0 DUP1 REVERT JUMPDEST PUSH1 0x0 DUP1 REVERT JUMPDEST PUSH1 0x0 PUSH1 0x1F NOT PUSH1 0x1F DUP4 ADD AND SWAP1 POP SWAP2 SWAP1 POP JUMP JUMPDEST PUSH32 0x4F776E61626C653A206E6577206F776E657220697320746865207A65726F2061 PUSH1 0x0 DUP3 ADD MSTORE PUSH32 0x6464726573730000000000000000000000000000000000000000000000000000 PUSH1 0x20 DUP3 ADD MSTORE POP JUMP JUMPDEST PUSH32 0x455243313136373A20637265617465206661696C656400000000000000000000 PUSH1 0x0 DUP3 ADD MSTORE POP JUMP JUMPDEST PUSH32 0x4F776E61626C653A2063616C6C6572206973206E6F7420746865206F776E6572 PUSH1 0x0 DUP3 ADD MSTORE POP JUMP JUMPDEST PUSH2 0xD0D DUP2 PUSH2 0xB1F JUMP JUMPDEST DUP2 EQ PUSH2 0xD18 JUMPI PUSH1 0x0 DUP1 REVERT JUMPDEST POP JUMP JUMPDEST PUSH2 0xD24 DUP2 PUSH2 0xB31 JUMP JUMPDEST DUP2 EQ PUSH2 0xD2F JUMPI PUSH1 0x0 DUP1 REVERT JUMPDEST POP JUMP JUMPDEST PUSH2 0xD3B DUP2 PUSH2 0xB63 JUMP JUMPDEST DUP2 EQ PUSH2 0xD46 JUMPI PUSH1 0x0 DUP1 REVERT JUMPDEST POP JUMP INVALID LOG2 PUSH5 0x6970667358 0x22 SLT KECCAK256 0x28 EXTCODESIZE SWAP7 SELFBALANCE EXTCODECOPY ADDRESS 0xD 0xE8 LOG1 0xE7 0xB3 0xB5 0x22 PUSH13 0xB5B2CC2B523BFF8FB3033B01CE 0xB4 PUSH10 0x7AF88F64736F6C634300 ADDMOD MOD STOP CALLER "
    }
  }
}