{
  "abi": [
    {
      "inputs": [
        {
          "internalType": "address payable",
          "name": "oracleContract",
          "type": "address"
        }
      ],
      "stateMutability": "nonpayable",
      "type": "constructor"
    },
    {
      "anonymous": false,
      "inputs": [
        {
          "indexed": true,
          "internalType": "address",
          "name": "borrower",
          "type": "address"
        },
        {
          "indexed": false,
          "internalType": "uint256",
          "name": "debtAmount",
          "type": "uint256"
        }
      ],
      "name": "Liquidation",
      "type": "event"
    },
    {
      "anonymous": false,
      "inputs": [
        {
          "indexed": true,
          "internalType": "address",
          "name": "token",
          "type": "address"
        },
        {
          "indexed": false,
          "internalType": "uint256",
          "name": "price",
          "type": "uint256"
        }
      ],
      "name": "PriceUpdate",
      "type": "event"
    },
    {
      "anonymous": false,
      "inputs": [
        {
          "indexed": false,
          "internalType": "uint256",
          "name": "amount",
          "type": "uint256"
        }
      ],
      "name": "ReserveDeposit",
      "type": "event"
    },
    {
      "anonymous": false,
      "inputs": [
        {
          "indexed": true,
          "internalType": "address",
          "name": "token",
          "type": "address"
        },
        {
          "indexed": false,
          "internalType": "uint256",
          "name": "amount",
          "type": "uint256"
        }
      ],
      "name": "ReserveWithdraw",
      "type": "event"
    },
    {
      "anonymous": false,
      "inputs": [
        {
          "indexed": true,
          "internalType": "bytes32",
          "name": "role",
          "type": "bytes32"
        },
        {
          "indexed": true,
          "internalType": "bytes32",
          "name": "previousAdminRole",
          "type": "bytes32"
        },
        {
          "indexed": true,
          "internalType": "bytes32",
          "name": "newAdminRole",
          "type": "bytes32"
        }
      ],
      "name": "RoleAdminChanged",
      "type": "event"
    },
    {
      "anonymous": false,
      "inputs": [
        {
          "indexed": true,
          "internalType": "bytes32",
          "name": "role",
          "type": "bytes32"
        },
        {
          "indexed": true,
          "internalType": "address",
          "name": "account",
          "type": "address"
        },
        {
          "indexed": true,
          "internalType": "address",
          "name": "sender",
          "type": "address"
        }
      ],
      "name": "RoleGranted",
      "type": "event"
    },
    {
      "anonymous": false,
      "inputs": [
        {
          "indexed": true,
          "internalType": "bytes32",
          "name": "role",
          "type": "bytes32"
        },
        {
          "indexed": true,
          "internalType": "address",
          "name": "account",
          "type": "address"
        },
        {
          "indexed": true,
          "internalType": "address",
          "name": "sender",
          "type": "address"
        }
      ],
      "name": "RoleRevoked",
      "type": "event"
    },
    {
      "anonymous": false,
      "inputs": [
        {
          "indexed": true,
          "internalType": "address",
          "name": "borrower",
          "type": "address"
        },
        {
          "indexed": false,
          "internalType": "uint256",
          "name": "amount",
          "type": "uint256"
        }
      ],
      "name": "VaultBorrow",
      "type": "event"
    },
    {
      "anonymous": false,
      "inputs": [
        {
          "indexed": true,
          "internalType": "address",
          "name": "owner",
          "type": "address"
        },
        {
          "indexed": false,
          "internalType": "uint256",
          "name": "amount",
          "type": "uint256"
        }
      ],
      "name": "VaultDeposit",
      "type": "event"
    },
    {
      "anonymous": false,
      "inputs": [
        {
          "indexed": true,
          "internalType": "address",
          "name": "borrower",
          "type": "address"
        },
        {
          "indexed": false,
          "internalType": "uint256",
          "name": "amount",
          "type": "uint256"
        }
      ],
      "name": "VaultRepay",
      "type": "event"
    },
    {
      "anonymous": false,
      "inputs": [
        {
          "indexed": true,
          "internalType": "address",
          "name": "borrower",
          "type": "address"
        },
        {
          "indexed": false,
          "internalType": "uint256",
          "name": "amount",
          "type": "uint256"
        }
      ],
      "name": "VaultWithdraw",
      "type": "event"
    },
    {
      "inputs": [],
      "name": "DEFAULT_ADMIN_ROLE",
      "outputs": [
        {
          "internalType": "bytes32",
          "name": "",
          "type": "bytes32"
        }
      ],
      "stateMutability": "view",
      "type": "function"
    },
    {
      "inputs": [],
      "name": "KEEPER_ROLE",
      "outputs": [
        {
          "internalType": "bytes32",
          "name": "",
          "type": "bytes32"
        }
      ],
      "stateMutability": "view",
      "type": "function"
    },
    {
      "inputs": [],
      "name": "PRICE_UPDATER_ROLE",
      "outputs": [
        {
          "internalType": "bytes32",
          "name": "",
          "type": "bytes32"
        }
      ],
      "stateMutability": "view",
      "type": "function"
    },
    {
      "inputs": [
        {
          "internalType": "address",
          "name": "keeper",
          "type": "address"
        }
      ],
      "name": "addKeeper",
      "outputs": [],
      "stateMutability": "nonpayable",
      "type": "function"
    },
    {
      "inputs": [
        {
          "internalType": "address",
          "name": "updater",
          "type": "address"
        }
      ],
      "name": "addPriceUpdater",
      "outputs": [],
      "stateMutability": "nonpayable",
      "type": "function"
    },
    {
      "inputs": [],
      "name": "getBankFactoryOwner",
      "outputs": [
        {
          "internalType": "address",
          "name": "",
          "type": "address"
        }
      ],
      "stateMutability": "view",
      "type": "function"
    },
    {
      "inputs": [],
      "name": "getCollateralTokenAddress",
      "outputs": [
        {
          "internalType": "address",
          "name": "",
          "type": "address"
        }
      ],
      "stateMutability": "view",
      "type": "function"
    },
    {
      "inputs": [],
      "name": "getCollateralTokenLastUpdatedAt",
      "outputs": [
        {
          "internalType": "uint256",
          "name": "",
          "type": "uint256"
        }
      ],
      "stateMutability": "view",
      "type": "function"
    },
    {
      "inputs": [],
      "name": "getCollateralTokenPrice",
      "outputs": [
        {
          "internalType": "uint256",
          "name": "",
          "type": "uint256"
        }
      ],
      "stateMutability": "view",
      "type": "function"
    },
    {
      "inputs": [],
      "name": "getCollateralTokenPriceGranularity",
      "outputs": [
        {
          "internalType": "uint256",
          "name": "",
          "type": "uint256"
        }
      ],
      "stateMutability": "view",
      "type": "function"
    },
    {
      "inputs": [],
      "name": "getCollateralizationRatio",
      "outputs": [
        {
          "internalType": "uint256",
          "name": "",
          "type": "uint256"
        }
      ],
      "stateMutability": "view",
      "type": "function"
    },
    {
      "inputs": [
        {
          "internalType": "uint256",
          "name": "_requestId",
          "type": "uint256"
        }
      ],
      "name": "getCurrentValue",
      "outputs": [
        {
          "internalType": "bool",
          "name": "ifRetrieve",
          "type": "bool"
        },
        {
          "internalType": "uint256",
          "name": "value",
          "type": "uint256"
        },
        {
          "internalType": "uint256",
          "name": "_timestampRetrieved",
          "type": "uint256"
        }
      ],
      "stateMutability": "view",
      "type": "function"
    },
    {
      "inputs": [],
      "name": "getDebtTokenAddress",
      "outputs": [
        {
          "internalType": "address",
          "name": "",
          "type": "address"
        }
      ],
      "stateMutability": "view",
      "type": "function"
    },
    {
      "inputs": [],
      "name": "getDebtTokenLastUpdatedAt",
      "outputs": [
        {
          "internalType": "uint256",
          "name": "",
          "type": "uint256"
        }
      ],
      "stateMutability": "view",
      "type": "function"
    },
    {
      "inputs": [],
      "name": "getDebtTokenPrice",
      "outputs": [
        {
          "internalType": "uint256",
          "name": "",
          "type": "uint256"
        }
      ],
      "stateMutability": "view",
      "type": "function"
    },
    {
      "inputs": [],
      "name": "getDebtTokenPriceGranularity",
      "outputs": [
        {
          "internalType": "uint256",
          "name": "",
          "type": "uint256"
        }
      ],
      "stateMutability": "view",
      "type": "function"
    },
    {
      "inputs": [],
      "name": "getInterestRate",
      "outputs": [
        {
          "internalType": "uint256",
          "name": "",
          "type": "uint256"
        }
      ],
      "stateMutability": "view",
      "type": "function"
    },
    {
      "inputs": [],
      "name": "getLiquidationPenalty",
      "outputs": [
        {
          "internalType": "uint256",
          "name": "",
          "type": "uint256"
        }
      ],
      "stateMutability": "view",
      "type": "function"
    },
    {
      "inputs": [],
      "name": "getName",
      "outputs": [
        {
          "internalType": "string",
          "name": "",
          "type": "string"
        }
      ],
      "stateMutability": "view",
      "type": "function"
    },
    {
      "inputs": [],
      "name": "getOriginationFee",
      "outputs": [
        {
          "internalType": "uint256",
          "name": "",
          "type": "uint256"
        }
      ],
      "stateMutability": "view",
      "type": "function"
    },
    {
      "inputs": [],
      "name": "getReserveBalance",
      "outputs": [
        {
          "internalType": "uint256",
          "name": "",
          "type": "uint256"
        }
      ],
      "stateMutability": "view",
      "type": "function"
    },
    {
      "inputs": [],
      "name": "getReserveCollateralBalance",
      "outputs": [
        {
          "internalType": "uint256",
          "name": "",
          "type": "uint256"
        }
      ],
      "stateMutability": "view",
      "type": "function"
    },
    {
      "inputs": [
        {
          "internalType": "bytes32",
          "name": "role",
          "type": "bytes32"
        }
      ],
      "name": "getRoleAdmin",
      "outputs": [
        {
          "internalType": "bytes32",
          "name": "",
          "type": "bytes32"
        }
      ],
      "stateMutability": "view",
      "type": "function"
    },
    {
      "inputs": [
        {
          "internalType": "bytes32",
          "name": "role",
          "type": "bytes32"
        },
        {
          "internalType": "uint256",
          "name": "index",
          "type": "uint256"
        }
      ],
      "name": "getRoleMember",
      "outputs": [
        {
          "internalType": "address",
          "name": "",
          "type": "address"
        }
      ],
      "stateMutability": "view",
      "type": "function"
    },
    {
      "inputs": [
        {
          "internalType": "bytes32",
          "name": "role",
          "type": "bytes32"
        }
      ],
      "name": "getRoleMemberCount",
      "outputs": [
        {
          "internalType": "uint256",
          "name": "",
          "type": "uint256"
        }
      ],
      "stateMutability": "view",
      "type": "function"
    },
    {
      "inputs": [],
      "name": "getVaultCollateralAmount",
      "outputs": [
        {
          "internalType": "uint256",
          "name": "",
          "type": "uint256"
        }
      ],
      "stateMutability": "view",
      "type": "function"
    },
    {
      "inputs": [
        {
          "internalType": "address",
          "name": "vaultOwner",
          "type": "address"
        }
      ],
      "name": "getVaultCollateralizationRatio",
      "outputs": [
        {
          "internalType": "uint256",
          "name": "",
          "type": "uint256"
        }
      ],
      "stateMutability": "view",
      "type": "function"
    },
    {
      "inputs": [],
      "name": "getVaultDebtAmount",
      "outputs": [
        {
          "internalType": "uint256",
          "name": "",
          "type": "uint256"
        }
      ],
      "stateMutability": "view",
      "type": "function"
    },
    {
      "inputs": [],
      "name": "getVaultRepayAmount",
      "outputs": [
        {
          "internalType": "uint256",
          "name": "principal",
          "type": "uint256"
        }
      ],
      "stateMutability": "view",
      "type": "function"
    },
    {
      "inputs": [
        {
          "internalType": "bytes32",
          "name": "role",
          "type": "bytes32"
        },
        {
          "internalType": "address",
          "name": "account",
          "type": "address"
        }
      ],
      "name": "grantRole",
      "outputs": [],
      "stateMutability": "nonpayable",
      "type": "function"
    },
    {
      "inputs": [
        {
          "internalType": "bytes32",
          "name": "role",
          "type": "bytes32"
        },
        {
          "internalType": "address",
          "name": "account",
          "type": "address"
        }
      ],
      "name": "hasRole",
      "outputs": [
        {
          "internalType": "bool",
          "name": "",
          "type": "bool"
        }
      ],
      "stateMutability": "view",
      "type": "function"
    },
    {
      "inputs": [
        {
          "internalType": "address",
          "name": "creator",
          "type": "address"
        },
        {
          "internalType": "string",
          "name": "bankName",
          "type": "string"
        },
        {
          "internalType": "uint256",
          "name": "interestRate",
          "type": "uint256"
        },
        {
          "internalType": "uint256",
          "name": "originationFee",
          "type": "uint256"
        },
        {
          "internalType": "uint256",
          "name": "collateralizationRatio",
          "type": "uint256"
        },
        {
          "internalType": "uint256",
          "name": "liquidationPenalty",
          "type": "uint256"
        },
        {
          "internalType": "uint256",
          "name": "period",
          "type": "uint256"
        },
        {
          "internalType": "address",
          "name": "bankFactoryOwner",
          "type": "address"
        },
        {
          "internalType": "address payable",
          "name": "oracleContract",
          "type": "address"
        }
      ],
      "name": "init",
      "outputs": [],
      "stateMutability": "nonpayable",
      "type": "function"
    },
    {
      "inputs": [
        {
          "internalType": "address",
          "name": "vaultOwner",
          "type": "address"
        }
      ],
      "name": "liquidate",
      "outputs": [],
      "stateMutability": "nonpayable",
      "type": "function"
    },
    {
      "inputs": [
        {
          "internalType": "bytes32",
          "name": "role",
          "type": "bytes32"
        },
        {
          "internalType": "address",
          "name": "account",
          "type": "address"
        }
      ],
      "name": "renounceRole",
      "outputs": [],
      "stateMutability": "nonpayable",
      "type": "function"
    },
    {
      "inputs": [
        {
          "internalType": "uint256",
          "name": "amount",
          "type": "uint256"
        }
      ],
      "name": "reserveDeposit",
      "outputs": [],
      "stateMutability": "nonpayable",
      "type": "function"
    },
    {
      "inputs": [
        {
          "internalType": "uint256",
          "name": "amount",
          "type": "uint256"
        }
      ],
      "name": "reserveWithdraw",
      "outputs": [],
      "stateMutability": "nonpayable",
      "type": "function"
    },
    {
      "inputs": [
        {
          "internalType": "uint256",
          "name": "amount",
          "type": "uint256"
        }
      ],
      "name": "reserveWithdrawCollateral",
      "outputs": [],
      "stateMutability": "nonpayable",
      "type": "function"
    },
    {
      "inputs": [
        {
          "internalType": "address",
          "name": "oldKeeper",
          "type": "address"
        }
      ],
      "name": "revokeKeeper",
      "outputs": [],
      "stateMutability": "nonpayable",
      "type": "function"
    },
    {
      "inputs": [
        {
          "internalType": "address",
          "name": "oldUpdater",
          "type": "address"
        }
      ],
      "name": "revokePriceUpdater",
      "outputs": [],
      "stateMutability": "nonpayable",
      "type": "function"
    },
    {
      "inputs": [
        {
          "internalType": "bytes32",
          "name": "role",
          "type": "bytes32"
        },
        {
          "internalType": "address",
          "name": "account",
          "type": "address"
        }
      ],
      "name": "revokeRole",
      "outputs": [],
      "stateMutability": "nonpayable",
      "type": "function"
    },
    {
      "inputs": [
        {
          "internalType": "address",
          "name": "newOwner",
          "type": "address"
        }
      ],
      "name": "setBankFactoryOwner",
      "outputs": [],
      "stateMutability": "nonpayable",
      "type": "function"
    },
    {
      "inputs": [
        {
          "internalType": "address",
          "name": "collateralToken",
          "type": "address"
        },
        {
          "internalType": "uint256",
          "name": "collateralTokenTellorRequestId",
          "type": "uint256"
        },
        {
          "internalType": "uint256",
          "name": "collateralTokenPriceGranularity",
          "type": "uint256"
        },
        {
          "internalType": "uint256",
          "name": "collateralTokenPrice",
          "type": "uint256"
        }
      ],
      "name": "setCollateral",
      "outputs": [],
      "stateMutability": "nonpayable",
      "type": "function"
    },
    {
      "inputs": [
        {
          "internalType": "address",
          "name": "debtToken",
          "type": "address"
        },
        {
          "internalType": "uint256",
          "name": "debtTokenTellorRequestId",
          "type": "uint256"
        },
        {
          "internalType": "uint256",
          "name": "debtTokenPriceGranularity",
          "type": "uint256"
        },
        {
          "internalType": "uint256",
          "name": "debtTokenPrice",
          "type": "uint256"
        }
      ],
      "name": "setDebt",
      "outputs": [],
      "stateMutability": "nonpayable",
      "type": "function"
    },
    {
      "inputs": [
        {
          "internalType": "bytes4",
          "name": "interfaceId",
          "type": "bytes4"
        }
      ],
      "name": "supportsInterface",
      "outputs": [
        {
          "internalType": "bool",
          "name": "",
          "type": "bool"
        }
      ],
      "stateMutability": "view",
      "type": "function"
    },
    {
      "inputs": [],
      "name": "updateCollateralPrice",
      "outputs": [],
      "stateMutability": "nonpayable",
      "type": "function"
    },
    {
      "inputs": [],
      "name": "updateDebtPrice",
      "outputs": [],
      "stateMutability": "nonpayable",
      "type": "function"
    },
    {
      "inputs": [
        {
          "internalType": "uint256",
          "name": "amount",
          "type": "uint256"
        }
      ],
      "name": "vaultBorrow",
      "outputs": [],
      "stateMutability": "nonpayable",
      "type": "function"
    },
    {
      "inputs": [
        {
          "internalType": "uint256",
          "name": "amount",
          "type": "uint256"
        }
      ],
      "name": "vaultDeposit",
      "outputs": [],
      "stateMutability": "nonpayable",
      "type": "function"
    },
    {
      "inputs": [
        {
          "internalType": "uint256",
          "name": "amount",
          "type": "uint256"
        }
      ],
      "name": "vaultRepay",
      "outputs": [],
      "stateMutability": "nonpayable",
      "type": "function"
    },
    {
      "inputs": [
        {
          "internalType": "uint256",
          "name": "amount",
          "type": "uint256"
        }
      ],
      "name": "vaultWithdraw",
      "outputs": [],
      "stateMutability": "nonpayable",
      "type": "function"
    },
    {
      "inputs": [
        {
          "internalType": "address",
          "name": "",
          "type": "address"
        }
      ],
      "name": "vaults",
      "outputs": [
        {
          "internalType": "uint256",
          "name": "collateralAmount",
          "type": "uint256"
        },
        {
          "internalType": "uint256",
          "name": "debtAmount",
          "type": "uint256"
        },
        {
          "internalType": "uint256",
          "name": "createdAt",
          "type": "uint256"
        }
      ],
      "stateMutability": "view",
      "type": "function"
    }
  ],
  "evm": {
    "bytecode": {
      "linkReferences": {},
      "object": "60806040523480156200001157600080fd5b50604051620053f8380380620053f8833981810160405281019062000037919062000099565b80600e60060160006101000a81548173ffffffffffffffffffffffffffffffffffffffff021916908373ffffffffffffffffffffffffffffffffffffffff160217905550506200011e565b600081519050620000938162000104565b92915050565b600060208284031215620000b257620000b1620000ff565b5b6000620000c28482850162000082565b91505092915050565b6000620000d882620000df565b9050919050565b600073ffffffffffffffffffffffffffffffffffffffff82169050919050565b600080fd5b6200010f81620000cb565b81146200011b57600080fd5b50565b6152ca806200012e6000396000f3fe608060405234801561001057600080fd5b50600436106102f05760003560e01c8063685a58081161019d578063c14d0454116100e9578063e88456e7116100a2578063f91614eb1161007c578063f91614eb146108bf578063fb839dda146108dd578063fb8d8101146108f9578063fc2e39a614610917576102f0565b8063e88456e714610869578063ec5e5e7d14610885578063f327e324146108a1576102f0565b8063c14d0454146107a7578063c969ac06146107c3578063ca15c873146107e1578063cb765c1d14610811578063d267974c1461082f578063d547741f1461084d576102f0565b80639010d07c11610156578063a217fddf11610130578063a217fddf1461071b578063a622ee7c14610739578063a860988c1461076b578063b71d7a6e14610789576102f0565b80639010d07c1461069f57806391d14854146106cf5780639d867679146106ff576102f0565b8063685a5808146106035780636d483fe61461062157806370c12f1e1461063f5780637649b9381461065b57806385b4e5431461067757806386ef573814610681576102f0565b8063364bc15a1161025c57806345fd80e4116102155780634fd88951116101ef5780634fd889511461058f5780635257b566146105ab57806353388f44146105c95780635729b394146105e7576102f0565b806345fd80e41461054d578063494f4188146105575780634b272d9a14610573576102f0565b8063364bc15a1461048d57806336568abe146104ab57806338507ff5146104c75780633fcad964146104e35780634032b72b14610515578063435726c414610531576102f0565b80631e522b29116102ae5780631e522b29146103cb578063248a9ca3146103e95780632f2ff15d146104195780632f865568146104355780633149cb1414610451578063317c9e421461046f576102f0565b806291a446146102f557806301ffc9a71461031157806308dcd7c614610341578063151439501461035f57806317d7de7c1461037d5780631b9084b41461039b575b600080fd5b61030f600480360381019061030a91906140f7565b610935565b005b61032b600480360381019061032691906140ca565b610a36565b60405161033891906145f6565b60405180910390f35b610349610ab0565b6040516103569190614905565b60405180910390f35b610367610abc565b6040516103749190614905565b60405180910390f35b610385610ac9565b6040516103929190614663565b60405180910390f35b6103b560048036038101906103b09190613e76565b610b5b565b6040516103c29190614905565b60405180910390f35b6103d3610c94565b6040516103e09190614905565b60405180910390f35b61040360048036038101906103fe919061401d565b610ca1565b6040516104109190614648565b60405180910390f35b610433600480360381019061042e919061404a565b610cc1565b005b61044f600480360381019061044a9190613e76565b610cea565b005b6104596110dd565b604051610466919061457b565b60405180910390f35b610477611107565b6040516104849190614905565b60405180910390f35b610495611114565b6040516104a29190614648565b60405180910390f35b6104c560048036038101906104c0919061404a565b611138565b005b6104e160048036038101906104dc9190613f89565b6111bb565b005b6104fd60048036038101906104f891906140f7565b611306565b60405161050c93929190614611565b60405180910390f35b61052f600480360381019061052a9190613e76565b61151d565b005b61054b600480360381019061054691906140f7565b6115ba565b005b610555611789565b005b610571600480360381019061056c9190613e76565b6118ab565b005b61058d60048036038101906105889190613e76565b6118d8565b005b6105a960048036038101906105a491906140f7565b6119ac565b005b6105b3611e92565b6040516105c09190614905565b60405180910390f35b6105d1611e9f565b6040516105de9190614905565b60405180910390f35b61060160048036038101906105fc91906140f7565b611eac565b005b61060b612007565b6040516106189190614905565b60405180910390f35b610629612051565b604051610636919061457b565b60405180910390f35b61065960048036038101906106549190613ea3565b61207e565b005b610675600480360381019061067091906140f7565b612240565b005b61067f61254a565b005b61068961266c565b6040516106969190614905565b60405180910390f35b6106b960048036038101906106b4919061408a565b612679565b6040516106c6919061457b565b60405180910390f35b6106e960048036038101906106e4919061404a565b6126a8565b6040516106f691906145f6565b60405180910390f35b61071960048036038101906107149190613e76565b612713565b005b610723612740565b6040516107309190614648565b60405180910390f35b610753600480360381019061074e9190613e76565b612747565b60405161076293929190614949565b60405180910390f35b610773612771565b6040516107809190614905565b60405180910390f35b6107916127bb565b60405161079e9190614905565b60405180910390f35b6107c160048036038101906107bc9190613f89565b6128d3565b005b6107cb612a1d565b6040516107d89190614905565b60405180910390f35b6107fb60048036038101906107f6919061401d565b612a2a565b6040516108089190614905565b60405180910390f35b610819612a4e565b6040516108269190614905565b60405180910390f35b610837612a5b565b604051610844919061457b565b60405180910390f35b6108676004803603810190610862919061404a565b612a88565b005b610883600480360381019061087e9190613e76565b612ab1565b005b61089f600480360381019061089a91906140f7565b612b4e565b005b6108a9612dc5565b6040516108b69190614905565b60405180910390f35b6108c7612dd2565b6040516108d49190614905565b60405180910390f35b6108f760048036038101906108f291906140f7565b612ddf565b005b6109016130b3565b60405161090e9190614648565b60405180910390f35b61091f6130d7565b60405161092c9190614905565b60405180910390f35b6000801b61094a816109456130e4565b6130ec565b6000821161098d576040517f08c379a000000000000000000000000000000000000000000000000000000000815260040161098490614745565b60405180910390fd5b81600e60010160008282546109a29190614a13565b925050819055506109fb333084600260000160009054906101000a900473ffffffffffffffffffffffffffffffffffffffff1673ffffffffffffffffffffffffffffffffffffffff16613189909392919063ffffffff16565b7f71eb3e5df75ef293b81b4c7b38db51f7a6cec007d12529cb74d4eafb7fa5322282604051610a2a9190614905565b60405180910390a15050565b60007f5a05180f000000000000000000000000000000000000000000000000000000007bffffffffffffffffffffffffffffffffffffffffffffffffffffffff1916827bffffffffffffffffffffffffffffffffffffffffffffffffffffffff19161480610aa95750610aa882613212565b5b9050919050565b60006002800154905090565b6000600860010154905090565b606060008054610ad890614c24565b80601f0160208091040260200160405190810160405280929190818152602001828054610b0490614c24565b8015610b515780601f10610b2657610100808354040283529160200191610b51565b820191906000526020600020905b815481529060010190602001808311610b3457829003601f168201915b5050505050905090565b600080600160008473ffffffffffffffffffffffffffffffffffffffff1673ffffffffffffffffffffffffffffffffffffffff168152602001908152602001600020600101541415610bb05760009050610c8f565b6002800154600260010154600160008573ffffffffffffffffffffffffffffffffffffffff1673ffffffffffffffffffffffffffffffffffffffff16815260200190815260200160002060010154610c089190614a9a565b610c129190614a69565b612710600860020154600860010154600160008773ffffffffffffffffffffffffffffffffffffffff1673ffffffffffffffffffffffffffffffffffffffff16815260200190815260200160002060000154610c6e9190614a9a565b610c789190614a69565b610c829190614a9a565b610c8c9190614a69565b90505b919050565b6000600e60050154905090565b600060166000838152602001908152602001600020600101549050919050565b610cca82610ca1565b610cdb81610cd66130e4565b6130ec565b610ce5838361328c565b505050565b610d147ffc8737ab85eb45125971625a9ebdb75cc78e01d5c1fa80c4c6e5203f47bc4fab336126a8565b80610d285750610d276000801b336126a8565b5b610d67576040517f08c379a0000000000000000000000000000000000000000000000000000000008152600401610d5e906146e5565b60405180910390fd5b6064600e60040154610d799190614a9a565b610d8282610b5b565b10610dc2576040517f08c379a0000000000000000000000000000000000000000000000000000000008152600401610db990614765565b60405180910390fd5b6000606480600e600501546064600160008773ffffffffffffffffffffffffffffffffffffffff1673ffffffffffffffffffffffffffffffffffffffff16815260200190815260200160002060010154610e1c9190614a9a565b610e269190614a9a565b610e309190614a69565b610e3a9190614a69565b600160008473ffffffffffffffffffffffffffffffffffffffff1673ffffffffffffffffffffffffffffffffffffffff16815260200190815260200160002060010154610e879190614a13565b9050600060086001015460026001015483610ea29190614a9a565b610eac9190614a69565b9050600160008473ffffffffffffffffffffffffffffffffffffffff1673ffffffffffffffffffffffffffffffffffffffff16815260200190815260200160002060000154811115610f3e57600160008473ffffffffffffffffffffffffffffffffffffffff1673ffffffffffffffffffffffffffffffffffffffff1681526020019081526020016000206000015490505b6000600a82610f4d9190614a69565b90508082610f5b9190614af4565b600e6000016000828254610f6f9190614a13565b9250508190555081600160008673ffffffffffffffffffffffffffffffffffffffff1673ffffffffffffffffffffffffffffffffffffffff1681526020019081526020016000206000016000828254610fc89190614af4565b925050819055506000600160008673ffffffffffffffffffffffffffffffffffffffff1673ffffffffffffffffffffffffffffffffffffffff16815260200190815260200160002060010181905550611089601860029054906101000a900473ffffffffffffffffffffffffffffffffffffffff1682600860000160009054906101000a900473ffffffffffffffffffffffffffffffffffffffff1673ffffffffffffffffffffffffffffffffffffffff166132c09092919063ffffffff16565b8373ffffffffffffffffffffffffffffffffffffffff167f6dd29d11f8d1bcdbd79da21bf92895417dcc2f8886b3db11c8a4ce00b73de9d0846040516110cf9190614905565b60405180910390a250505050565b6000601860029054906101000a900473ffffffffffffffffffffffffffffffffffffffff16905090565b6000600860020154905090565b7ffc8737ab85eb45125971625a9ebdb75cc78e01d5c1fa80c4c6e5203f47bc4fab81565b6111406130e4565b73ffffffffffffffffffffffffffffffffffffffff168173ffffffffffffffffffffffffffffffffffffffff16146111ad576040517f08c379a00000000000000000000000000000000000000000000000000000000081526004016111a4906148e5565b60405180910390fd5b6111b78282613346565b5050565b6000801b6111d0816111cb6130e4565b6130ec565b600073ffffffffffffffffffffffffffffffffffffffff16600860000160009054906101000a900473ffffffffffffffffffffffffffffffffffffffff1673ffffffffffffffffffffffffffffffffffffffff1614801561125e5750600073ffffffffffffffffffffffffffffffffffffffff168573ffffffffffffffffffffffffffffffffffffffff1614155b61129d576040517f08c379a0000000000000000000000000000000000000000000000000000000008152600401611294906148c5565b60405180910390fd5b84600860000160006101000a81548173ffffffffffffffffffffffffffffffffffffffff021916908373ffffffffffffffffffffffffffffffffffffffff1602179055508160086001018190555082600860020181905550836008600301819055505050505050565b600080600080600e60060160009054906101000a900473ffffffffffffffffffffffffffffffffffffffff16905060008173ffffffffffffffffffffffffffffffffffffffff166346eee1c4876040518263ffffffff1660e01b815260040161136f9190614905565b60206040518083038186803b15801561138757600080fd5b505afa15801561139b573d6000803e3d6000fd5b505050506040513d601f19601f820116820180604052508101906113bf9190614124565b905060008273ffffffffffffffffffffffffffffffffffffffff166377fbb663886001856113ed9190614af4565b6040518363ffffffff1660e01b815260040161140a929190614920565b60206040518083038186803b15801561142257600080fd5b505afa158015611436573d6000803e3d6000fd5b505050506040513d601f19601f8201168201806040525081019061145a9190614124565b905060008373ffffffffffffffffffffffffffffffffffffffff166393fa491589846040518363ffffffff1660e01b8152600401611499929190614920565b60206040518083038186803b1580156114b157600080fd5b505afa1580156114c5573d6000803e3d6000fd5b505050506040513d601f19601f820116820180604052508101906114e99190614124565b90506000811115611507576001818396509650965050505050611516565b60008083965096509650505050505b9193909250565b600073ffffffffffffffffffffffffffffffffffffffff168173ffffffffffffffffffffffffffffffffffffffff16141561158d576040517f08c379a0000000000000000000000000000000000000000000000000000000008152600401611584906147c5565b60405180910390fd5b6115b77ffc8737ab85eb45125971625a9ebdb75cc78e01d5c1fa80c4c6e5203f47bc4fab82610cc1565b50565b6000801b6115cf816115ca6130e4565b6130ec565b81600e600001541015611617576040517f08c379a000000000000000000000000000000000000000000000000000000000815260040161160e90614705565b60405180910390fd5b600060c8836116269190614a69565b905082600e600001600082825461163d9190614af4565b92505081905550600860000160009054906101000a900473ffffffffffffffffffffffffffffffffffffffff1673ffffffffffffffffffffffffffffffffffffffff167f0529afc4538720fe0b3eadc40486369ab962002d72fead1387b300c66073e7bf846040516116af9190614905565b60405180910390a26117123382856116c79190614af4565b600860000160009054906101000a900473ffffffffffffffffffffffffffffffffffffffff1673ffffffffffffffffffffffffffffffffffffffff166132c09092919063ffffffff16565b611784601860029054906101000a900473ffffffffffffffffffffffffffffffffffffffff1682600860000160009054906101000a900473ffffffffffffffffffffffffffffffffffffffff1673ffffffffffffffffffffffffffffffffffffffff166132c09092919063ffffffff16565b505050565b6117b37fd96ba01d6560c2ab35f2940dd8d70c5f5fe06236c72674237120515918198fb0336126a8565b806117c757506117c66000801b336126a8565b5b611806576040517f08c379a00000000000000000000000000000000000000000000000000000000081526004016117fd90614885565b60405180910390fd5b611814600260030154611306565b9091506002600101600060026005016000849190505583919050555050600260000160009054906101000a900473ffffffffffffffffffffffffffffffffffffffff1673ffffffffffffffffffffffffffffffffffffffff167f64e6e7bd72b853c4e62fd6ceaca05a104700c70a4cb567c75c7f2242ba7f037c6002600101546040516118a19190614905565b60405180910390a2565b6118d57ffc8737ab85eb45125971625a9ebdb75cc78e01d5c1fa80c4c6e5203f47bc4fab82612a88565b50565b3373ffffffffffffffffffffffffffffffffffffffff16601860029054906101000a900473ffffffffffffffffffffffffffffffffffffffff1673ffffffffffffffffffffffffffffffffffffffff1614611968576040517f08c379a000000000000000000000000000000000000000000000000000000000815260040161195f906147e5565b60405180910390fd5b80601860026101000a81548173ffffffffffffffffffffffffffffffffffffffff021916908373ffffffffffffffffffffffffffffffffffffffff16021790555050565b6000600160003373ffffffffffffffffffffffffffffffffffffffff1673ffffffffffffffffffffffffffffffffffffffff1681526020019081526020016000206001015414611a45576119fe6127bb565b600160003373ffffffffffffffffffffffffffffffffffffffff1673ffffffffffffffffffffffffffffffffffffffff168152602001908152602001600020600101819055505b60006064600e60040154600260010154600860010154600160003373ffffffffffffffffffffffffffffffffffffffff1673ffffffffffffffffffffffffffffffffffffffff16815260200190815260200160002060000154611aa89190614a9a565b611ab29190614a69565b611abc9190614a69565b611ac69190614a9a565b9050600280015481611ad89190614a9a565b905060086002015481611aeb9190614a69565b9050600160003373ffffffffffffffffffffffffffffffffffffffff1673ffffffffffffffffffffffffffffffffffffffff1681526020019081526020016000206001015481611b3b9190614af4565b9050612710600e6003015483611b519190614a9a565b611b5b9190614a69565b82611b669190614a13565b600160003373ffffffffffffffffffffffffffffffffffffffff1673ffffffffffffffffffffffffffffffffffffffff1681526020019081526020016000206001016000828254611bb79190614a13565b9250508190555080600160003373ffffffffffffffffffffffffffffffffffffffff1673ffffffffffffffffffffffffffffffffffffffff1681526020019081526020016000206001015410611c42576040517f08c379a0000000000000000000000000000000000000000000000000000000008152600401611c3990614805565b60405180910390fd5b600260000160009054906101000a900473ffffffffffffffffffffffffffffffffffffffff1673ffffffffffffffffffffffffffffffffffffffff166370a08231306040518263ffffffff1660e01b8152600401611ca0919061457b565b60206040518083038186803b158015611cb857600080fd5b505afa158015611ccc573d6000803e3d6000fd5b505050506040513d601f19601f82011682018060405250810190611cf09190614124565b821115611d32576040517f08c379a0000000000000000000000000000000000000000000000000000000008152600401611d29906146a5565b60405180910390fd5b600e60070154600160003373ffffffffffffffffffffffffffffffffffffffff1673ffffffffffffffffffffffffffffffffffffffff1681526020019081526020016000206002015442611d869190614af4565b1115611dd45742600160003373ffffffffffffffffffffffffffffffffffffffff1673ffffffffffffffffffffffffffffffffffffffff168152602001908152602001600020600201819055505b81600e6001016000828254611de99190614af4565b92505081905550611e403383600260000160009054906101000a900473ffffffffffffffffffffffffffffffffffffffff1673ffffffffffffffffffffffffffffffffffffffff166132c09092919063ffffffff16565b3373ffffffffffffffffffffffffffffffffffffffff167f0232862a021d33ea4a70f5d509b754f0f6986aaa0ffdd5c7db4910422afc768a83604051611e869190614905565b60405180910390a25050565b6000600e60020154905090565b6000600860050154905090565b60008111611eef576040517f08c379a0000000000000000000000000000000000000000000000000000000008152600401611ee690614745565b60405180910390fd5b80600160003373ffffffffffffffffffffffffffffffffffffffff1673ffffffffffffffffffffffffffffffffffffffff1681526020019081526020016000206000016000828254611f419190614a13565b9250508190555080600e6000016000828254611f5d9190614a13565b92505081905550611fb6333083600860000160009054906101000a900473ffffffffffffffffffffffffffffffffffffffff1673ffffffffffffffffffffffffffffffffffffffff16613189909392919063ffffffff16565b3373ffffffffffffffffffffffffffffffffffffffff167f89d28cf06bdb2ee1b92cd046d58450042ad113e9f4cdabfc4d43e7c5557758d782604051611ffc9190614905565b60405180910390a250565b6000600160003373ffffffffffffffffffffffffffffffffffffffff1673ffffffffffffffffffffffffffffffffffffffff16815260200190815260200160002060010154905090565b6000600860000160009054906101000a900473ffffffffffffffffffffffffffffffffffffffff16905090565b601860019054906101000a900460ff16806120a65750601860009054906101000a900460ff16155b6120e5576040517f08c379a00000000000000000000000000000000000000000000000000000000081526004016120dc90614825565b60405180910390fd5b6000601860019054906101000a900460ff161590508015612137576001601860016101000a81548160ff0219169083151502179055506001601860006101000a81548160ff0219169083151502179055505b6121446000801b8b61337a565b87600e6002018190555086600e6003018190555085600e6004018190555081600e60060160006101000a81548173ffffffffffffffffffffffffffffffffffffffff021916908373ffffffffffffffffffffffffffffffffffffffff16021790555084600e6005018190555083600e6007018190555082601860026101000a81548173ffffffffffffffffffffffffffffffffffffffff021916908373ffffffffffffffffffffffffffffffffffffffff1602179055508860009080519060200190612211929190613cd0565b508015612234576000601860016101000a81548160ff0219169083151502179055505b50505050505050505050565b60008111612283576040517f08c379a000000000000000000000000000000000000000000000000000000000815260040161227a90614745565b60405180910390fd5b61228b6127bb565b600160003373ffffffffffffffffffffffffffffffffffffffff1673ffffffffffffffffffffffffffffffffffffffff16815260200190815260200160002060010181905550600160003373ffffffffffffffffffffffffffffffffffffffff1673ffffffffffffffffffffffffffffffffffffffff16815260200190815260200160002060010154811115612356576040517f08c379a000000000000000000000000000000000000000000000000000000000815260040161234d906146c5565b60405180910390fd5b80600160003373ffffffffffffffffffffffffffffffffffffffff1673ffffffffffffffffffffffffffffffffffffffff16815260200190815260200160002060010160008282546123a89190614af4565b9250508190555080600e60010160008282546123c49190614a13565b925050819055506000600e60070154600160003373ffffffffffffffffffffffffffffffffffffffff1673ffffffffffffffffffffffffffffffffffffffff168152602001908152602001600020600201546124209190614a69565b600e60070154426124319190614a69565b61243b9190614af4565b9050600e600701548161244e9190614a9a565b600160003373ffffffffffffffffffffffffffffffffffffffff1673ffffffffffffffffffffffffffffffffffffffff168152602001908152602001600020600201600082825461249f9190614a13565b925050819055506124f8333084600260000160009054906101000a900473ffffffffffffffffffffffffffffffffffffffff1673ffffffffffffffffffffffffffffffffffffffff16613189909392919063ffffffff16565b3373ffffffffffffffffffffffffffffffffffffffff167f34d657cd4dec79d6716ce5ac15b81de5751705030cbef01b43b15eae44cbc1128360405161253e9190614905565b60405180910390a25050565b6125747fd96ba01d6560c2ab35f2940dd8d70c5f5fe06236c72674237120515918198fb0336126a8565b8061258857506125876000801b336126a8565b5b6125c7576040517f08c379a00000000000000000000000000000000000000000000000000000000081526004016125be90614885565b60405180910390fd5b6125d5600860030154611306565b9091506008600101600060086005016000849190505583919050555050600860000160009054906101000a900473ffffffffffffffffffffffffffffffffffffffff1673ffffffffffffffffffffffffffffffffffffffff167f64e6e7bd72b853c4e62fd6ceaca05a104700c70a4cb567c75c7f2242ba7f037c6008600101546040516126629190614905565b60405180910390a2565b6000600e60040154905090565b60006126a0826017600086815260200190815260200160002061338890919063ffffffff16565b905092915050565b60006016600084815260200190815260200160002060000160008373ffffffffffffffffffffffffffffffffffffffff1673ffffffffffffffffffffffffffffffffffffffff16815260200190815260200160002060009054906101000a900460ff16905092915050565b61273d7fd96ba01d6560c2ab35f2940dd8d70c5f5fe06236c72674237120515918198fb082612a88565b50565b6000801b81565b60016020528060005260406000206000915090508060000154908060010154908060020154905083565b6000600160003373ffffffffffffffffffffffffffffffffffffffff1673ffffffffffffffffffffffffffffffffffffffff16815260200190815260200160002060000154905090565b6000600160003373ffffffffffffffffffffffffffffffffffffffff1673ffffffffffffffffffffffffffffffffffffffff1681526020019081526020016000206001015490506000600e600701546301e133806128199190614a69565b90506000600e60070154600160003373ffffffffffffffffffffffffffffffffffffffff1673ffffffffffffffffffffffffffffffffffffffff168152602001908152602001600020600201546128709190614a69565b600e60070154426128819190614a69565b61288b9190614af4565b90508082612710600e60020154866128a39190614a9a565b6128ad9190614a69565b6128b79190614a69565b6128c19190614a9a565b836128cc9190614a13565b9250505090565b6000801b6128e8816128e36130e4565b6130ec565b600073ffffffffffffffffffffffffffffffffffffffff16600260000160009054906101000a900473ffffffffffffffffffffffffffffffffffffffff1673ffffffffffffffffffffffffffffffffffffffff161480156129765750600073ffffffffffffffffffffffffffffffffffffffff168573ffffffffffffffffffffffffffffffffffffffff1614155b6129b5576040517f08c379a00000000000000000000000000000000000000000000000000000000081526004016129ac906148c5565b60405180910390fd5b84600260000160006101000a81548173ffffffffffffffffffffffffffffffffffffffff021916908373ffffffffffffffffffffffffffffffffffffffff16021790555081600260010181905550826002800181905550836002600301819055505050505050565b6000600260010154905090565b6000612a47601760008481526020019081526020016000206133a2565b9050919050565b6000600e60010154905090565b6000600260000160009054906101000a900473ffffffffffffffffffffffffffffffffffffffff16905090565b612a9182610ca1565b612aa281612a9d6130e4565b6130ec565b612aac8383613346565b505050565b600073ffffffffffffffffffffffffffffffffffffffff168173ffffffffffffffffffffffffffffffffffffffff161415612b21576040517f08c379a0000000000000000000000000000000000000000000000000000000008152600401612b18906147c5565b60405180910390fd5b612b4b7fd96ba01d6560c2ab35f2940dd8d70c5f5fe06236c72674237120515918198fb082610cc1565b50565b6000801b612b6381612b5e6130e4565b6130ec565b81600260000160009054906101000a900473ffffffffffffffffffffffffffffffffffffffff1673ffffffffffffffffffffffffffffffffffffffff166370a08231306040518263ffffffff1660e01b8152600401612bc2919061457b565b60206040518083038186803b158015612bda57600080fd5b505afa158015612bee573d6000803e3d6000fd5b505050506040513d601f19601f82011682018060405250810190612c129190614124565b1015612c53576040517f08c379a0000000000000000000000000000000000000000000000000000000008152600401612c4a90614785565b60405180910390fd5b600060c883612c629190614a69565b905082600e6001016000828254612c799190614af4565b92505081905550612cdb338285612c909190614af4565b600260000160009054906101000a900473ffffffffffffffffffffffffffffffffffffffff1673ffffffffffffffffffffffffffffffffffffffff166132c09092919063ffffffff16565b612d4d601860029054906101000a900473ffffffffffffffffffffffffffffffffffffffff1682600260000160009054906101000a900473ffffffffffffffffffffffffffffffffffffffff1673ffffffffffffffffffffffffffffffffffffffff166132c09092919063ffffffff16565b600260000160009054906101000a900473ffffffffffffffffffffffffffffffffffffffff1673ffffffffffffffffffffffffffffffffffffffff167f0529afc4538720fe0b3eadc40486369ab962002d72fead1387b300c66073e7bf84604051612db89190614905565b60405180910390a2505050565b6000600260050154905090565b6000600e60000154905090565b600160003373ffffffffffffffffffffffffffffffffffffffff1673ffffffffffffffffffffffffffffffffffffffff16815260200190815260200160002060000154811115612e64576040517f08c379a0000000000000000000000000000000000000000000000000000000008152600401612e5b906147a5565b60405180910390fd5b60006064600e6004015460026001015460086001015485600160003373ffffffffffffffffffffffffffffffffffffffff1673ffffffffffffffffffffffffffffffffffffffff16815260200190815260200160002060000154612ec89190614af4565b612ed29190614a9a565b612edc9190614a69565b612ee69190614a69565b612ef09190614a9a565b9050600280015481612f029190614a9a565b905060086002015481612f159190614a69565b905080600160003373ffffffffffffffffffffffffffffffffffffffff1673ffffffffffffffffffffffffffffffffffffffff168152602001908152602001600020600101541115612f9c576040517f08c379a0000000000000000000000000000000000000000000000000000000008152600401612f9390614845565b60405180910390fd5b81600160003373ffffffffffffffffffffffffffffffffffffffff1673ffffffffffffffffffffffffffffffffffffffff1681526020019081526020016000206000016000828254612fee9190614af4565b9250508190555081600e600001600082825461300a9190614af4565b925050819055506130613383600860000160009054906101000a900473ffffffffffffffffffffffffffffffffffffffff1673ffffffffffffffffffffffffffffffffffffffff166132c09092919063ffffffff16565b3373ffffffffffffffffffffffffffffffffffffffff167f0ac60fbf53b67f5a6a0c8031dd9d1610a06f01669b1a8b9af98f3a6a477e8d7c836040516130a79190614905565b60405180910390a25050565b7fd96ba01d6560c2ab35f2940dd8d70c5f5fe06236c72674237120515918198fb081565b6000600e60030154905090565b600033905090565b6130f682826126a8565b6131855761311b8173ffffffffffffffffffffffffffffffffffffffff1660146133b7565b6131298360001c60206133b7565b60405160200161313a929190614541565b6040516020818303038152906040526040517f08c379a000000000000000000000000000000000000000000000000000000000815260040161317c9190614663565b60405180910390fd5b5050565b61320c846323b872dd60e01b8585856040516024016131aa93929190614596565b604051602081830303815290604052907bffffffffffffffffffffffffffffffffffffffffffffffffffffffff19166020820180517bffffffffffffffffffffffffffffffffffffffffffffffffffffffff83818316178352505050506135f3565b50505050565b60007f7965db0b000000000000000000000000000000000000000000000000000000007bffffffffffffffffffffffffffffffffffffffffffffffffffffffff1916827bffffffffffffffffffffffffffffffffffffffffffffffffffffffff191614806132855750613284826136ba565b5b9050919050565b6132968282613724565b6132bb816017600085815260200190815260200160002061380590919063ffffffff16565b505050565b6133418363a9059cbb60e01b84846040516024016132df9291906145cd565b604051602081830303815290604052907bffffffffffffffffffffffffffffffffffffffffffffffffffffffff19166020820180517bffffffffffffffffffffffffffffffffffffffffffffffffffffffff83818316178352505050506135f3565b505050565b6133508282613835565b613375816017600085815260200190815260200160002061391790919063ffffffff16565b505050565b613384828261328c565b5050565b60006133978360000183613947565b60001c905092915050565b60006133b082600001613972565b9050919050565b6060600060028360026133ca9190614a9a565b6133d49190614a13565b67ffffffffffffffff8111156133ed576133ec614d72565b5b6040519080825280601f01601f19166020018201604052801561341f5781602001600182028036833780820191505090505b5090507f30000000000000000000000000000000000000000000000000000000000000008160008151811061345757613456614d43565b5b60200101907effffffffffffffffffffffffffffffffffffffffffffffffffffffffffffff1916908160001a9053507f7800000000000000000000000000000000000000000000000000000000000000816001815181106134bb576134ba614d43565b5b60200101907effffffffffffffffffffffffffffffffffffffffffffffffffffffffffffff1916908160001a905350600060018460026134fb9190614a9a565b6135059190614a13565b90505b60018111156135a5577f3031323334353637383961626364656600000000000000000000000000000000600f86166010811061354757613546614d43565b5b1a60f81b82828151811061355e5761355d614d43565b5b60200101907effffffffffffffffffffffffffffffffffffffffffffffffffffffffffffff1916908160001a905350600485901c94508061359e90614bfa565b9050613508565b50600084146135e9576040517f08c379a00000000000000000000000000000000000000000000000000000000081526004016135e090614685565b60405180910390fd5b8091505092915050565b6000613655826040518060400160405280602081526020017f5361666545524332303a206c6f772d6c6576656c2063616c6c206661696c65648152508573ffffffffffffffffffffffffffffffffffffffff166139839092919063ffffffff16565b90506000815111156136b557808060200190518101906136759190613ff0565b6136b4576040517f08c379a00000000000000000000000000000000000000000000000000000000081526004016136ab906148a5565b60405180910390fd5b5b505050565b60007f01ffc9a7000000000000000000000000000000000000000000000000000000007bffffffffffffffffffffffffffffffffffffffffffffffffffffffff1916827bffffffffffffffffffffffffffffffffffffffffffffffffffffffff1916149050919050565b61372e82826126a8565b6138015760016016600084815260200190815260200160002060000160008373ffffffffffffffffffffffffffffffffffffffff1673ffffffffffffffffffffffffffffffffffffffff16815260200190815260200160002060006101000a81548160ff0219169083151502179055506137a66130e4565b73ffffffffffffffffffffffffffffffffffffffff168173ffffffffffffffffffffffffffffffffffffffff16837f2f8788117e7eff1d82e926ec794901d17c78024a50270940304540a733656f0d60405160405180910390a45b5050565b600061382d836000018373ffffffffffffffffffffffffffffffffffffffff1660001b61399b565b905092915050565b61383f82826126a8565b156139135760006016600084815260200190815260200160002060000160008373ffffffffffffffffffffffffffffffffffffffff1673ffffffffffffffffffffffffffffffffffffffff16815260200190815260200160002060006101000a81548160ff0219169083151502179055506138b86130e4565b73ffffffffffffffffffffffffffffffffffffffff168173ffffffffffffffffffffffffffffffffffffffff16837ff6391f5c32d9c69d2a47ea670b442974b53935d1edc7fd64eb21e047a839171b60405160405180910390a45b5050565b600061393f836000018373ffffffffffffffffffffffffffffffffffffffff1660001b613a0b565b905092915050565b600082600001828154811061395f5761395e614d43565b5b9060005260206000200154905092915050565b600081600001805490509050919050565b60606139928484600085613b1f565b90509392505050565b60006139a78383613c33565b613a00578260000182908060018154018082558091505060019003906000526020600020016000909190919091505582600001805490508360010160008481526020019081526020016000208190555060019050613a05565b600090505b92915050565b60008083600101600084815260200190815260200160002054905060008114613b13576000600182613a3d9190614af4565b9050600060018660000180549050613a559190614af4565b9050818114613ac4576000866000018281548110613a7657613a75614d43565b5b9060005260206000200154905080876000018481548110613a9a57613a99614d43565b5b90600052602060002001819055508387600101600083815260200190815260200160002081905550505b85600001805480613ad857613ad7614d14565b5b600190038181906000526020600020016000905590558560010160008681526020019081526020016000206000905560019350505050613b19565b60009150505b92915050565b606082471015613b64576040517f08c379a0000000000000000000000000000000000000000000000000000000008152600401613b5b90614725565b60405180910390fd5b613b6d85613c56565b613bac576040517f08c379a0000000000000000000000000000000000000000000000000000000008152600401613ba390614865565b60405180910390fd5b6000808673ffffffffffffffffffffffffffffffffffffffff168587604051613bd5919061452a565b60006040518083038185875af1925050503d8060008114613c12576040519150601f19603f3d011682016040523d82523d6000602084013e613c17565b606091505b5091509150613c27828286613c69565b92505050949350505050565b600080836001016000848152602001908152602001600020541415905092915050565b600080823b905060008111915050919050565b60608315613c7957829050613cc9565b600083511115613c8c5782518084602001fd5b816040517f08c379a0000000000000000000000000000000000000000000000000000000008152600401613cc09190614663565b60405180910390fd5b9392505050565b828054613cdc90614c24565b90600052602060002090601f016020900481019282613cfe5760008555613d45565b82601f10613d1757805160ff1916838001178555613d45565b82800160010185558215613d45579182015b82811115613d44578251825591602001919060010190613d29565b5b509050613d529190613d56565b5090565b5b80821115613d6f576000816000905550600101613d57565b5090565b6000613d86613d81846149a5565b614980565b905082815260208101848484011115613da257613da1614da6565b5b613dad848285614bb8565b509392505050565b600081359050613dc48161520a565b92915050565b600081359050613dd981615221565b92915050565b600081519050613dee81615238565b92915050565b600081359050613e038161524f565b92915050565b600081359050613e1881615266565b92915050565b600082601f830112613e3357613e32614da1565b5b8135613e43848260208601613d73565b91505092915050565b600081359050613e5b8161527d565b92915050565b600081519050613e708161527d565b92915050565b600060208284031215613e8c57613e8b614db0565b5b6000613e9a84828501613db5565b91505092915050565b60008060008060008060008060006101208a8c031215613ec657613ec5614db0565b5b6000613ed48c828d01613db5565b99505060208a013567ffffffffffffffff811115613ef557613ef4614dab565b5b613f018c828d01613e1e565b9850506040613f128c828d01613e4c565b9750506060613f238c828d01613e4c565b9650506080613f348c828d01613e4c565b95505060a0613f458c828d01613e4c565b94505060c0613f568c828d01613e4c565b93505060e0613f678c828d01613db5565b925050610100613f798c828d01613dca565b9150509295985092959850929598565b60008060008060808587031215613fa357613fa2614db0565b5b6000613fb187828801613db5565b9450506020613fc287828801613e4c565b9350506040613fd387828801613e4c565b9250506060613fe487828801613e4c565b91505092959194509250565b60006020828403121561400657614005614db0565b5b600061401484828501613ddf565b91505092915050565b60006020828403121561403357614032614db0565b5b600061404184828501613df4565b91505092915050565b6000806040838503121561406157614060614db0565b5b600061406f85828601613df4565b925050602061408085828601613db5565b9150509250929050565b600080604083850312156140a1576140a0614db0565b5b60006140af85828601613df4565b92505060206140c085828601613e4c565b9150509250929050565b6000602082840312156140e0576140df614db0565b5b60006140ee84828501613e09565b91505092915050565b60006020828403121561410d5761410c614db0565b5b600061411b84828501613e4c565b91505092915050565b60006020828403121561413a57614139614db0565b5b600061414884828501613e61565b91505092915050565b61415a81614b28565b82525050565b61416981614b4c565b82525050565b61417881614b58565b82525050565b6000614189826149d6565b61419381856149ec565b93506141a3818560208601614bc7565b80840191505092915050565b60006141ba826149e1565b6141c481856149f7565b93506141d4818560208601614bc7565b6141dd81614db5565b840191505092915050565b60006141f3826149e1565b6141fd8185614a08565b935061420d818560208601614bc7565b80840191505092915050565b60006142266020836149f7565b915061423182614dc6565b602082019050919050565b60006142496013836149f7565b915061425482614def565b602082019050919050565b600061426c601b836149f7565b915061427782614e18565b602082019050919050565b600061428f6013836149f7565b915061429a82614e41565b602082019050919050565b60006142b26020836149f7565b91506142bd82614e6a565b602082019050919050565b60006142d56026836149f7565b91506142e082614e93565b604082019050919050565b60006142f86011836149f7565b915061430382614ee2565b602082019050919050565b600061431b601d836149f7565b915061432682614f0b565b602082019050919050565b600061433e6021836149f7565b915061434982614f34565b604082019050919050565b6000614361601f836149f7565b915061436c82614f83565b602082019050919050565b60006143846015836149f7565b915061438f82614fac565b602082019050919050565b60006143a76019836149f7565b91506143b282614fd5565b602082019050919050565b60006143ca6015836149f7565b91506143d582614ffe565b602082019050919050565b60006143ed602e836149f7565b91506143f882615027565b604082019050919050565b6000614410601f836149f7565b915061441b82615076565b602082019050919050565b6000614433601d836149f7565b915061443e8261509f565b602082019050919050565b6000614456601a836149f7565b9150614461826150c8565b602082019050919050565b6000614479601783614a08565b9150614484826150f1565b601782019050919050565b600061449c602a836149f7565b91506144a78261511a565b604082019050919050565b60006144bf6008836149f7565b91506144ca82615169565b602082019050919050565b60006144e2601183614a08565b91506144ed82615192565b601182019050919050565b6000614505602f836149f7565b9150614510826151bb565b604082019050919050565b61452481614bae565b82525050565b6000614536828461417e565b915081905092915050565b600061454c8261446c565b915061455882856141e8565b9150614563826144d5565b915061456f82846141e8565b91508190509392505050565b60006020820190506145906000830184614151565b92915050565b60006060820190506145ab6000830186614151565b6145b86020830185614151565b6145c5604083018461451b565b949350505050565b60006040820190506145e26000830185614151565b6145ef602083018461451b565b9392505050565b600060208201905061460b6000830184614160565b92915050565b60006060820190506146266000830186614160565b614633602083018561451b565b614640604083018461451b565b949350505050565b600060208201905061465d600083018461416f565b92915050565b6000602082019050818103600083015261467d81846141af565b905092915050565b6000602082019050818103600083015261469e81614219565b9050919050565b600060208201905081810360008301526146be8161423c565b9050919050565b600060208201905081810360008301526146de8161425f565b9050919050565b600060208201905081810360008301526146fe81614282565b9050919050565b6000602082019050818103600083015261471e816142a5565b9050919050565b6000602082019050818103600083015261473e816142c8565b9050919050565b6000602082019050818103600083015261475e816142eb565b9050919050565b6000602082019050818103600083015261477e8161430e565b9050919050565b6000602082019050818103600083015261479e81614331565b9050919050565b600060208201905081810360008301526147be81614354565b9050919050565b600060208201905081810360008301526147de81614377565b9050919050565b600060208201905081810360008301526147fe8161439a565b9050919050565b6000602082019050818103600083015261481e816143bd565b9050919050565b6000602082019050818103600083015261483e816143e0565b9050919050565b6000602082019050818103600083015261485e81614403565b9050919050565b6000602082019050818103600083015261487e81614426565b9050919050565b6000602082019050818103600083015261489e81614449565b9050919050565b600060208201905081810360008301526148be8161448f565b9050919050565b600060208201905081810360008301526148de816144b2565b9050919050565b600060208201905081810360008301526148fe816144f8565b9050919050565b600060208201905061491a600083018461451b565b92915050565b6000604082019050614935600083018561451b565b614942602083018461451b565b9392505050565b600060608201905061495e600083018661451b565b61496b602083018561451b565b614978604083018461451b565b949350505050565b600061498a61499b565b90506149968282614c56565b919050565b6000604051905090565b600067ffffffffffffffff8211156149c0576149bf614d72565b5b6149c982614db5565b9050602081019050919050565b600081519050919050565b600081519050919050565b600081905092915050565b600082825260208201905092915050565b600081905092915050565b6000614a1e82614bae565b9150614a2983614bae565b9250827fffffffffffffffffffffffffffffffffffffffffffffffffffffffffffffffff03821115614a5e57614a5d614c87565b5b828201905092915050565b6000614a7482614bae565b9150614a7f83614bae565b925082614a8f57614a8e614cb6565b5b828204905092915050565b6000614aa582614bae565b9150614ab083614bae565b9250817fffffffffffffffffffffffffffffffffffffffffffffffffffffffffffffffff0483118215151615614ae957614ae8614c87565b5b828202905092915050565b6000614aff82614bae565b9150614b0a83614bae565b925082821015614b1d57614b1c614c87565b5b828203905092915050565b6000614b3382614b8e565b9050919050565b6000614b4582614b8e565b9050919050565b60008115159050919050565b6000819050919050565b60007fffffffff0000000000000000000000000000000000000000000000000000000082169050919050565b600073ffffffffffffffffffffffffffffffffffffffff82169050919050565b6000819050919050565b82818337600083830152505050565b60005b83811015614be5578082015181840152602081019050614bca565b83811115614bf4576000848401525b50505050565b6000614c0582614bae565b91506000821415614c1957614c18614c87565b5b600182039050919050565b60006002820490506001821680614c3c57607f821691505b60208210811415614c5057614c4f614ce5565b5b50919050565b614c5f82614db5565b810181811067ffffffffffffffff82111715614c7e57614c7d614d72565b5b80604052505050565b7f4e487b7100000000000000000000000000000000000000000000000000000000600052601160045260246000fd5b7f4e487b7100000000000000000000000000000000000000000000000000000000600052601260045260246000fd5b7f4e487b7100000000000000000000000000000000000000000000000000000000600052602260045260246000fd5b7f4e487b7100000000000000000000000000000000000000000000000000000000600052603160045260246000fd5b7f4e487b7100000000000000000000000000000000000000000000000000000000600052603260045260246000fd5b7f4e487b7100000000000000000000000000000000000000000000000000000000600052604160045260246000fd5b600080fd5b600080fd5b600080fd5b600080fd5b6000601f19601f8301169050919050565b7f537472696e67733a20686578206c656e67746820696e73756666696369656e74600082015250565b7f4e4f5420454e4f55474820524553455256455300000000000000000000000000600082015250565b7f43414e4e4f54205245504159204d4f5245205448414e204f5745440000000000600082015250565b7f6e6f74206b6565706572206f722061646d696e00000000000000000000000000600082015250565b7f4e4f5420454e4f55474820434f4c4c41544552414c20494e2052455345525645600082015250565b7f416464726573733a20696e73756666696369656e742062616c616e636520666f60008201527f722063616c6c0000000000000000000000000000000000000000000000000000602082015250565b7f416d6f756e74206973207a65726f202121000000000000000000000000000000600082015250565b7f5641554c54204e4f5420554e444552434f4c4c41544552414c495a4544000000600082015250565b7f4e4f5420454e4f554748204445425420544f4b454e5320494e2052455345525660008201527f4500000000000000000000000000000000000000000000000000000000000000602082015250565b7f43414e4e4f54205749544844524157204d4f524520434f4c4c41544552414c00600082015250565b7f6f7065726174696f6e206e6f7420616c6c6f7765640000000000000000000000600082015250565b7f4953204e4f542042414e4b20464143544f5259204f574e455200000000000000600082015250565b7f4e4f5420454e4f55474820434f4c4c41544552414c0000000000000000000000600082015250565b7f496e697469616c697a61626c653a20636f6e747261637420697320616c72656160008201527f647920696e697469616c697a6564000000000000000000000000000000000000602082015250565b7f43414e4e4f5420554e444552434f4c4c41544552414c495a45205641554c5400600082015250565b7f416464726573733a2063616c6c20746f206e6f6e2d636f6e7472616374000000600082015250565b7f6e6f742070726963652075706461746572206f722061646d696e000000000000600082015250565b7f416363657373436f6e74726f6c3a206163636f756e7420000000000000000000600082015250565b7f5361666545524332303a204552433230206f7065726174696f6e20646964206e60008201527f6f74207375636365656400000000000000000000000000000000000000000000602082015250565b7f2173657461626c65000000000000000000000000000000000000000000000000600082015250565b7f206973206d697373696e6720726f6c6520000000000000000000000000000000600082015250565b7f416363657373436f6e74726f6c3a2063616e206f6e6c792072656e6f756e636560008201527f20726f6c657320666f722073656c660000000000000000000000000000000000602082015250565b61521381614b28565b811461521e57600080fd5b50565b61522a81614b3a565b811461523557600080fd5b50565b61524181614b4c565b811461524c57600080fd5b50565b61525881614b58565b811461526357600080fd5b50565b61526f81614b62565b811461527a57600080fd5b50565b61528681614bae565b811461529157600080fd5b5056fea2646970667358221220924a76c5255bc88fb11bc304d79640261db689589214ff20718b84b4e6aec0e064736f6c63430008060033",
      "opcodes": "PUSH1 0x80 PUSH1 0x40 MSTORE CALLVALUE DUP1 ISZERO PUSH3 0x11 JUMPI PUSH1 0x0 DUP1 REVERT JUMPDEST POP PUSH1 0x40 MLOAD PUSH3 0x53F8 CODESIZE SUB DUP1 PUSH3 0x53F8 DUP4 CODECOPY DUP2 DUP2 ADD PUSH1 0x40 MSTORE DUP2 ADD SWAP1 PUSH3 0x37 SWAP2 SWAP1 PUSH3 0x99 JUMP JUMPDEST DUP1 PUSH1 0xE PUSH1 0x6 ADD PUSH1 0x0 PUSH2 0x100 EXP DUP2 SLOAD DUP2 PUSH20 0xFFFFFFFFFFFFFFFFFFFFFFFFFFFFFFFFFFFFFFFF MUL NOT AND SWAP1 DUP4 PUSH20 0xFFFFFFFFFFFFFFFFFFFFFFFFFFFFFFFFFFFFFFFF AND MUL OR SWAP1 SSTORE POP POP PUSH3 0x11E JUMP JUMPDEST PUSH1 0x0 DUP2 MLOAD SWAP1 POP PUSH3 0x93 DUP2 PUSH3 0x104 JUMP JUMPDEST SWAP3 SWAP2 POP POP JUMP JUMPDEST PUSH1 0x0 PUSH1 0x20 DUP3 DUP5 SUB SLT ISZERO PUSH3 0xB2 JUMPI PUSH3 0xB1 PUSH3 0xFF JUMP JUMPDEST JUMPDEST PUSH1 0x0 PUSH3 0xC2 DUP5 DUP3 DUP6 ADD PUSH3 0x82 JUMP JUMPDEST SWAP2 POP POP SWAP3 SWAP2 POP POP JUMP JUMPDEST PUSH1 0x0 PUSH3 0xD8 DUP3 PUSH3 0xDF JUMP JUMPDEST SWAP1 POP SWAP2 SWAP1 POP JUMP JUMPDEST PUSH1 0x0 PUSH20 0xFFFFFFFFFFFFFFFFFFFFFFFFFFFFFFFFFFFFFFFF DUP3 AND SWAP1 POP SWAP2 SWAP1 POP JUMP JUMPDEST PUSH1 0x0 DUP1 REVERT JUMPDEST PUSH3 0x10F DUP2 PUSH3 0xCB JUMP JUMPDEST DUP2 EQ PUSH3 0x11B JUMPI PUSH1 0x0 DUP1 REVERT JUMPDEST POP JUMP JUMPDEST PUSH2 0x52CA DUP1 PUSH3 0x12E PUSH1 0x0 CODECOPY PUSH1 0x0 RETURN INVALID PUSH1 0x80 PUSH1 0x40 MSTORE CALLVALUE DUP1 ISZERO PUSH2 0x10 JUMPI PUSH1 0x0 DUP1 REVERT JUMPDEST POP PUSH1 0x4 CALLDATASIZE LT PUSH2 0x2F0 JUMPI PUSH1 0x0 CALLDATALOAD PUSH1 0xE0 SHR DUP1 PUSH4 0x685A5808 GT PUSH2 0x19D JUMPI DUP1 PUSH4 0xC14D0454 GT PUSH2 0xE9 JUMPI DUP1 PUSH4 0xE88456E7 GT PUSH2 0xA2 JUMPI DUP1 PUSH4 0xF91614EB GT PUSH2 0x7C JUMPI DUP1 PUSH4 0xF91614EB EQ PUSH2 0x8BF JUMPI DUP1 PUSH4 0xFB839DDA EQ PUSH2 0x8DD JUMPI DUP1 PUSH4 0xFB8D8101 EQ PUSH2 0x8F9 JUMPI DUP1 PUSH4 0xFC2E39A6 EQ PUSH2 0x917 JUMPI PUSH2 0x2F0 JUMP JUMPDEST DUP1 PUSH4 0xE88456E7 EQ PUSH2 0x869 JUMPI DUP1 PUSH4 0xEC5E5E7D EQ PUSH2 0x885 JUMPI DUP1 PUSH4 0xF327E324 EQ PUSH2 0x8A1 JUMPI PUSH2 0x2F0 JUMP JUMPDEST DUP1 PUSH4 0xC14D0454 EQ PUSH2 0x7A7 JUMPI DUP1 PUSH4 0xC969AC06 EQ PUSH2 0x7C3 JUMPI DUP1 PUSH4 0xCA15C873 EQ PUSH2 0x7E1 JUMPI DUP1 PUSH4 0xCB765C1D EQ PUSH2 0x811 JUMPI DUP1 PUSH4 0xD267974C EQ PUSH2 0x82F JUMPI DUP1 PUSH4 0xD547741F EQ PUSH2 0x84D JUMPI PUSH2 0x2F0 JUMP JUMPDEST DUP1 PUSH4 0x9010D07C GT PUSH2 0x156 JUMPI DUP1 PUSH4 0xA217FDDF GT PUSH2 0x130 JUMPI DUP1 PUSH4 0xA217FDDF EQ PUSH2 0x71B JUMPI DUP1 PUSH4 0xA622EE7C EQ PUSH2 0x739 JUMPI DUP1 PUSH4 0xA860988C EQ PUSH2 0x76B JUMPI DUP1 PUSH4 0xB71D7A6E EQ PUSH2 0x789 JUMPI PUSH2 0x2F0 JUMP JUMPDEST DUP1 PUSH4 0x9010D07C EQ PUSH2 0x69F JUMPI DUP1 PUSH4 0x91D14854 EQ PUSH2 0x6CF JUMPI DUP1 PUSH4 0x9D867679 EQ PUSH2 0x6FF JUMPI PUSH2 0x2F0 JUMP JUMPDEST DUP1 PUSH4 0x685A5808 EQ PUSH2 0x603 JUMPI DUP1 PUSH4 0x6D483FE6 EQ PUSH2 0x621 JUMPI DUP1 PUSH4 0x70C12F1E EQ PUSH2 0x63F JUMPI DUP1 PUSH4 0x7649B938 EQ PUSH2 0x65B JUMPI DUP1 PUSH4 0x85B4E543 EQ PUSH2 0x677 JUMPI DUP1 PUSH4 0x86EF5738 EQ PUSH2 0x681 JUMPI PUSH2 0x2F0 JUMP JUMPDEST DUP1 PUSH4 0x364BC15A GT PUSH2 0x25C JUMPI DUP1 PUSH4 0x45FD80E4 GT PUSH2 0x215 JUMPI DUP1 PUSH4 0x4FD88951 GT PUSH2 0x1EF JUMPI DUP1 PUSH4 0x4FD88951 EQ PUSH2 0x58F JUMPI DUP1 PUSH4 0x5257B566 EQ PUSH2 0x5AB JUMPI DUP1 PUSH4 0x53388F44 EQ PUSH2 0x5C9 JUMPI DUP1 PUSH4 0x5729B394 EQ PUSH2 0x5E7 JUMPI PUSH2 0x2F0 JUMP JUMPDEST DUP1 PUSH4 0x45FD80E4 EQ PUSH2 0x54D JUMPI DUP1 PUSH4 0x494F4188 EQ PUSH2 0x557 JUMPI DUP1 PUSH4 0x4B272D9A EQ PUSH2 0x573 JUMPI PUSH2 0x2F0 JUMP JUMPDEST DUP1 PUSH4 0x364BC15A EQ PUSH2 0x48D JUMPI DUP1 PUSH4 0x36568ABE EQ PUSH2 0x4AB JUMPI DUP1 PUSH4 0x38507FF5 EQ PUSH2 0x4C7 JUMPI DUP1 PUSH4 0x3FCAD964 EQ PUSH2 0x4E3 JUMPI DUP1 PUSH4 0x4032B72B EQ PUSH2 0x515 JUMPI DUP1 PUSH4 0x435726C4 EQ PUSH2 0x531 JUMPI PUSH2 0x2F0 JUMP JUMPDEST DUP1 PUSH4 0x1E522B29 GT PUSH2 0x2AE JUMPI DUP1 PUSH4 0x1E522B29 EQ PUSH2 0x3CB JUMPI DUP1 PUSH4 0x248A9CA3 EQ PUSH2 0x3E9 JUMPI DUP1 PUSH4 0x2F2FF15D EQ PUSH2 0x419 JUMPI DUP1 PUSH4 0x2F865568 EQ PUSH2 0x435 JUMPI DUP1 PUSH4 0x3149CB14 EQ PUSH2 0x451 JUMPI DUP1 PUSH4 0x317C9E42 EQ PUSH2 0x46F JUMPI PUSH2 0x2F0 JUMP JUMPDEST DUP1 PUSH3 0x91A446 EQ PUSH2 0x2F5 JUMPI DUP1 PUSH4 0x1FFC9A7 EQ PUSH2 0x311 JUMPI DUP1 PUSH4 0x8DCD7C6 EQ PUSH2 0x341 JUMPI DUP1 PUSH4 0x15143950 EQ PUSH2 0x35F JUMPI DUP1 PUSH4 0x17D7DE7C EQ PUSH2 0x37D JUMPI DUP1 PUSH4 0x1B9084B4 EQ PUSH2 0x39B JUMPI JUMPDEST PUSH1 0x0 DUP1 REVERT JUMPDEST PUSH2 0x30F PUSH1 0x4 DUP1 CALLDATASIZE SUB DUP2 ADD SWAP1 PUSH2 0x30A SWAP2 SWAP1 PUSH2 0x40F7 JUMP JUMPDEST PUSH2 0x935 JUMP JUMPDEST STOP JUMPDEST PUSH2 0x32B PUSH1 0x4 DUP1 CALLDATASIZE SUB DUP2 ADD SWAP1 PUSH2 0x326 SWAP2 SWAP1 PUSH2 0x40CA JUMP JUMPDEST PUSH2 0xA36 JUMP JUMPDEST PUSH1 0x40 MLOAD PUSH2 0x338 SWAP2 SWAP1 PUSH2 0x45F6 JUMP JUMPDEST PUSH1 0x40 MLOAD DUP1 SWAP2 SUB SWAP1 RETURN JUMPDEST PUSH2 0x349 PUSH2 0xAB0 JUMP JUMPDEST PUSH1 0x40 MLOAD PUSH2 0x356 SWAP2 SWAP1 PUSH2 0x4905 JUMP JUMPDEST PUSH1 0x40 MLOAD DUP1 SWAP2 SUB SWAP1 RETURN JUMPDEST PUSH2 0x367 PUSH2 0xABC JUMP JUMPDEST PUSH1 0x40 MLOAD PUSH2 0x374 SWAP2 SWAP1 PUSH2 0x4905 JUMP JUMPDEST PUSH1 0x40 MLOAD DUP1 SWAP2 SUB SWAP1 RETURN JUMPDEST PUSH2 0x385 PUSH2 0xAC9 JUMP JUMPDEST PUSH1 0x40 MLOAD PUSH2 0x392 SWAP2 SWAP1 PUSH2 0x4663 JUMP JUMPDEST PUSH1 0x40 MLOAD DUP1 SWAP2 SUB SWAP1 RETURN JUMPDEST PUSH2 0x3B5 PUSH1 0x4 DUP1 CALLDATASIZE SUB DUP2 ADD SWAP1 PUSH2 0x3B0 SWAP2 SWAP1 PUSH2 0x3E76 JUMP JUMPDEST PUSH2 0xB5B JUMP JUMPDEST PUSH1 0x40 MLOAD PUSH2 0x3C2 SWAP2 SWAP1 PUSH2 0x4905 JUMP JUMPDEST PUSH1 0x40 MLOAD DUP1 SWAP2 SUB SWAP1 RETURN JUMPDEST PUSH2 0x3D3 PUSH2 0xC94 JUMP JUMPDEST PUSH1 0x40 MLOAD PUSH2 0x3E0 SWAP2 SWAP1 PUSH2 0x4905 JUMP JUMPDEST PUSH1 0x40 MLOAD DUP1 SWAP2 SUB SWAP1 RETURN JUMPDEST PUSH2 0x403 PUSH1 0x4 DUP1 CALLDATASIZE SUB DUP2 ADD SWAP1 PUSH2 0x3FE SWAP2 SWAP1 PUSH2 0x401D JUMP JUMPDEST PUSH2 0xCA1 JUMP JUMPDEST PUSH1 0x40 MLOAD PUSH2 0x410 SWAP2 SWAP1 PUSH2 0x4648 JUMP JUMPDEST PUSH1 0x40 MLOAD DUP1 SWAP2 SUB SWAP1 RETURN JUMPDEST PUSH2 0x433 PUSH1 0x4 DUP1 CALLDATASIZE SUB DUP2 ADD SWAP1 PUSH2 0x42E SWAP2 SWAP1 PUSH2 0x404A JUMP JUMPDEST PUSH2 0xCC1 JUMP JUMPDEST STOP JUMPDEST PUSH2 0x44F PUSH1 0x4 DUP1 CALLDATASIZE SUB DUP2 ADD SWAP1 PUSH2 0x44A SWAP2 SWAP1 PUSH2 0x3E76 JUMP JUMPDEST PUSH2 0xCEA JUMP JUMPDEST STOP JUMPDEST PUSH2 0x459 PUSH2 0x10DD JUMP JUMPDEST PUSH1 0x40 MLOAD PUSH2 0x466 SWAP2 SWAP1 PUSH2 0x457B JUMP JUMPDEST PUSH1 0x40 MLOAD DUP1 SWAP2 SUB SWAP1 RETURN JUMPDEST PUSH2 0x477 PUSH2 0x1107 JUMP JUMPDEST PUSH1 0x40 MLOAD PUSH2 0x484 SWAP2 SWAP1 PUSH2 0x4905 JUMP JUMPDEST PUSH1 0x40 MLOAD DUP1 SWAP2 SUB SWAP1 RETURN JUMPDEST PUSH2 0x495 PUSH2 0x1114 JUMP JUMPDEST PUSH1 0x40 MLOAD PUSH2 0x4A2 SWAP2 SWAP1 PUSH2 0x4648 JUMP JUMPDEST PUSH1 0x40 MLOAD DUP1 SWAP2 SUB SWAP1 RETURN JUMPDEST PUSH2 0x4C5 PUSH1 0x4 DUP1 CALLDATASIZE SUB DUP2 ADD SWAP1 PUSH2 0x4C0 SWAP2 SWAP1 PUSH2 0x404A JUMP JUMPDEST PUSH2 0x1138 JUMP JUMPDEST STOP JUMPDEST PUSH2 0x4E1 PUSH1 0x4 DUP1 CALLDATASIZE SUB DUP2 ADD SWAP1 PUSH2 0x4DC SWAP2 SWAP1 PUSH2 0x3F89 JUMP JUMPDEST PUSH2 0x11BB JUMP JUMPDEST STOP JUMPDEST PUSH2 0x4FD PUSH1 0x4 DUP1 CALLDATASIZE SUB DUP2 ADD SWAP1 PUSH2 0x4F8 SWAP2 SWAP1 PUSH2 0x40F7 JUMP JUMPDEST PUSH2 0x1306 JUMP JUMPDEST PUSH1 0x40 MLOAD PUSH2 0x50C SWAP4 SWAP3 SWAP2 SWAP1 PUSH2 0x4611 JUMP JUMPDEST PUSH1 0x40 MLOAD DUP1 SWAP2 SUB SWAP1 RETURN JUMPDEST PUSH2 0x52F PUSH1 0x4 DUP1 CALLDATASIZE SUB DUP2 ADD SWAP1 PUSH2 0x52A SWAP2 SWAP1 PUSH2 0x3E76 JUMP JUMPDEST PUSH2 0x151D JUMP JUMPDEST STOP JUMPDEST PUSH2 0x54B PUSH1 0x4 DUP1 CALLDATASIZE SUB DUP2 ADD SWAP1 PUSH2 0x546 SWAP2 SWAP1 PUSH2 0x40F7 JUMP JUMPDEST PUSH2 0x15BA JUMP JUMPDEST STOP JUMPDEST PUSH2 0x555 PUSH2 0x1789 JUMP JUMPDEST STOP JUMPDEST PUSH2 0x571 PUSH1 0x4 DUP1 CALLDATASIZE SUB DUP2 ADD SWAP1 PUSH2 0x56C SWAP2 SWAP1 PUSH2 0x3E76 JUMP JUMPDEST PUSH2 0x18AB JUMP JUMPDEST STOP JUMPDEST PUSH2 0x58D PUSH1 0x4 DUP1 CALLDATASIZE SUB DUP2 ADD SWAP1 PUSH2 0x588 SWAP2 SWAP1 PUSH2 0x3E76 JUMP JUMPDEST PUSH2 0x18D8 JUMP JUMPDEST STOP JUMPDEST PUSH2 0x5A9 PUSH1 0x4 DUP1 CALLDATASIZE SUB DUP2 ADD SWAP1 PUSH2 0x5A4 SWAP2 SWAP1 PUSH2 0x40F7 JUMP JUMPDEST PUSH2 0x19AC JUMP JUMPDEST STOP JUMPDEST PUSH2 0x5B3 PUSH2 0x1E92 JUMP JUMPDEST PUSH1 0x40 MLOAD PUSH2 0x5C0 SWAP2 SWAP1 PUSH2 0x4905 JUMP JUMPDEST PUSH1 0x40 MLOAD DUP1 SWAP2 SUB SWAP1 RETURN JUMPDEST PUSH2 0x5D1 PUSH2 0x1E9F JUMP JUMPDEST PUSH1 0x40 MLOAD PUSH2 0x5DE SWAP2 SWAP1 PUSH2 0x4905 JUMP JUMPDEST PUSH1 0x40 MLOAD DUP1 SWAP2 SUB SWAP1 RETURN JUMPDEST PUSH2 0x601 PUSH1 0x4 DUP1 CALLDATASIZE SUB DUP2 ADD SWAP1 PUSH2 0x5FC SWAP2 SWAP1 PUSH2 0x40F7 JUMP JUMPDEST PUSH2 0x1EAC JUMP JUMPDEST STOP JUMPDEST PUSH2 0x60B PUSH2 0x2007 JUMP JUMPDEST PUSH1 0x40 MLOAD PUSH2 0x618 SWAP2 SWAP1 PUSH2 0x4905 JUMP JUMPDEST PUSH1 0x40 MLOAD DUP1 SWAP2 SUB SWAP1 RETURN JUMPDEST PUSH2 0x629 PUSH2 0x2051 JUMP JUMPDEST PUSH1 0x40 MLOAD PUSH2 0x636 SWAP2 SWAP1 PUSH2 0x457B JUMP JUMPDEST PUSH1 0x40 MLOAD DUP1 SWAP2 SUB SWAP1 RETURN JUMPDEST PUSH2 0x659 PUSH1 0x4 DUP1 CALLDATASIZE SUB DUP2 ADD SWAP1 PUSH2 0x654 SWAP2 SWAP1 PUSH2 0x3EA3 JUMP JUMPDEST PUSH2 0x207E JUMP JUMPDEST STOP JUMPDEST PUSH2 0x675 PUSH1 0x4 DUP1 CALLDATASIZE SUB DUP2 ADD SWAP1 PUSH2 0x670 SWAP2 SWAP1 PUSH2 0x40F7 JUMP JUMPDEST PUSH2 0x2240 JUMP JUMPDEST STOP JUMPDEST PUSH2 0x67F PUSH2 0x254A JUMP JUMPDEST STOP JUMPDEST PUSH2 0x689 PUSH2 0x266C JUMP JUMPDEST PUSH1 0x40 MLOAD PUSH2 0x696 SWAP2 SWAP1 PUSH2 0x4905 JUMP JUMPDEST PUSH1 0x40 MLOAD DUP1 SWAP2 SUB SWAP1 RETURN JUMPDEST PUSH2 0x6B9 PUSH1 0x4 DUP1 CALLDATASIZE SUB DUP2 ADD SWAP1 PUSH2 0x6B4 SWAP2 SWAP1 PUSH2 0x408A JUMP JUMPDEST PUSH2 0x2679 JUMP JUMPDEST PUSH1 0x40 MLOAD PUSH2 0x6C6 SWAP2 SWAP1 PUSH2 0x457B JUMP JUMPDEST PUSH1 0x40 MLOAD DUP1 SWAP2 SUB SWAP1 RETURN JUMPDEST PUSH2 0x6E9 PUSH1 0x4 DUP1 CALLDATASIZE SUB DUP2 ADD SWAP1 PUSH2 0x6E4 SWAP2 SWAP1 PUSH2 0x404A JUMP JUMPDEST PUSH2 0x26A8 JUMP JUMPDEST PUSH1 0x40 MLOAD PUSH2 0x6F6 SWAP2 SWAP1 PUSH2 0x45F6 JUMP JUMPDEST PUSH1 0x40 MLOAD DUP1 SWAP2 SUB SWAP1 RETURN JUMPDEST PUSH2 0x719 PUSH1 0x4 DUP1 CALLDATASIZE SUB DUP2 ADD SWAP1 PUSH2 0x714 SWAP2 SWAP1 PUSH2 0x3E76 JUMP JUMPDEST PUSH2 0x2713 JUMP JUMPDEST STOP JUMPDEST PUSH2 0x723 PUSH2 0x2740 JUMP JUMPDEST PUSH1 0x40 MLOAD PUSH2 0x730 SWAP2 SWAP1 PUSH2 0x4648 JUMP JUMPDEST PUSH1 0x40 MLOAD DUP1 SWAP2 SUB SWAP1 RETURN JUMPDEST PUSH2 0x753 PUSH1 0x4 DUP1 CALLDATASIZE SUB DUP2 ADD SWAP1 PUSH2 0x74E SWAP2 SWAP1 PUSH2 0x3E76 JUMP JUMPDEST PUSH2 0x2747 JUMP JUMPDEST PUSH1 0x40 MLOAD PUSH2 0x762 SWAP4 SWAP3 SWAP2 SWAP1 PUSH2 0x4949 JUMP JUMPDEST PUSH1 0x40 MLOAD DUP1 SWAP2 SUB SWAP1 RETURN JUMPDEST PUSH2 0x773 PUSH2 0x2771 JUMP JUMPDEST PUSH1 0x40 MLOAD PUSH2 0x780 SWAP2 SWAP1 PUSH2 0x4905 JUMP JUMPDEST PUSH1 0x40 MLOAD DUP1 SWAP2 SUB SWAP1 RETURN JUMPDEST PUSH2 0x791 PUSH2 0x27BB JUMP JUMPDEST PUSH1 0x40 MLOAD PUSH2 0x79E SWAP2 SWAP1 PUSH2 0x4905 JUMP JUMPDEST PUSH1 0x40 MLOAD DUP1 SWAP2 SUB SWAP1 RETURN JUMPDEST PUSH2 0x7C1 PUSH1 0x4 DUP1 CALLDATASIZE SUB DUP2 ADD SWAP1 PUSH2 0x7BC SWAP2 SWAP1 PUSH2 0x3F89 JUMP JUMPDEST PUSH2 0x28D3 JUMP JUMPDEST STOP JUMPDEST PUSH2 0x7CB PUSH2 0x2A1D JUMP JUMPDEST PUSH1 0x40 MLOAD PUSH2 0x7D8 SWAP2 SWAP1 PUSH2 0x4905 JUMP JUMPDEST PUSH1 0x40 MLOAD DUP1 SWAP2 SUB SWAP1 RETURN JUMPDEST PUSH2 0x7FB PUSH1 0x4 DUP1 CALLDATASIZE SUB DUP2 ADD SWAP1 PUSH2 0x7F6 SWAP2 SWAP1 PUSH2 0x401D JUMP JUMPDEST PUSH2 0x2A2A JUMP JUMPDEST PUSH1 0x40 MLOAD PUSH2 0x808 SWAP2 SWAP1 PUSH2 0x4905 JUMP JUMPDEST PUSH1 0x40 MLOAD DUP1 SWAP2 SUB SWAP1 RETURN JUMPDEST PUSH2 0x819 PUSH2 0x2A4E JUMP JUMPDEST PUSH1 0x40 MLOAD PUSH2 0x826 SWAP2 SWAP1 PUSH2 0x4905 JUMP JUMPDEST PUSH1 0x40 MLOAD DUP1 SWAP2 SUB SWAP1 RETURN JUMPDEST PUSH2 0x837 PUSH2 0x2A5B JUMP JUMPDEST PUSH1 0x40 MLOAD PUSH2 0x844 SWAP2 SWAP1 PUSH2 0x457B JUMP JUMPDEST PUSH1 0x40 MLOAD DUP1 SWAP2 SUB SWAP1 RETURN JUMPDEST PUSH2 0x867 PUSH1 0x4 DUP1 CALLDATASIZE SUB DUP2 ADD SWAP1 PUSH2 0x862 SWAP2 SWAP1 PUSH2 0x404A JUMP JUMPDEST PUSH2 0x2A88 JUMP JUMPDEST STOP JUMPDEST PUSH2 0x883 PUSH1 0x4 DUP1 CALLDATASIZE SUB DUP2 ADD SWAP1 PUSH2 0x87E SWAP2 SWAP1 PUSH2 0x3E76 JUMP JUMPDEST PUSH2 0x2AB1 JUMP JUMPDEST STOP JUMPDEST PUSH2 0x89F PUSH1 0x4 DUP1 CALLDATASIZE SUB DUP2 ADD SWAP1 PUSH2 0x89A SWAP2 SWAP1 PUSH2 0x40F7 JUMP JUMPDEST PUSH2 0x2B4E JUMP JUMPDEST STOP JUMPDEST PUSH2 0x8A9 PUSH2 0x2DC5 JUMP JUMPDEST PUSH1 0x40 MLOAD PUSH2 0x8B6 SWAP2 SWAP1 PUSH2 0x4905 JUMP JUMPDEST PUSH1 0x40 MLOAD DUP1 SWAP2 SUB SWAP1 RETURN JUMPDEST PUSH2 0x8C7 PUSH2 0x2DD2 JUMP JUMPDEST PUSH1 0x40 MLOAD PUSH2 0x8D4 SWAP2 SWAP1 PUSH2 0x4905 JUMP JUMPDEST PUSH1 0x40 MLOAD DUP1 SWAP2 SUB SWAP1 RETURN JUMPDEST PUSH2 0x8F7 PUSH1 0x4 DUP1 CALLDATASIZE SUB DUP2 ADD SWAP1 PUSH2 0x8F2 SWAP2 SWAP1 PUSH2 0x40F7 JUMP JUMPDEST PUSH2 0x2DDF JUMP JUMPDEST STOP JUMPDEST PUSH2 0x901 PUSH2 0x30B3 JUMP JUMPDEST PUSH1 0x40 MLOAD PUSH2 0x90E SWAP2 SWAP1 PUSH2 0x4648 JUMP JUMPDEST PUSH1 0x40 MLOAD DUP1 SWAP2 SUB SWAP1 RETURN JUMPDEST PUSH2 0x91F PUSH2 0x30D7 JUMP JUMPDEST PUSH1 0x40 MLOAD PUSH2 0x92C SWAP2 SWAP1 PUSH2 0x4905 JUMP JUMPDEST PUSH1 0x40 MLOAD DUP1 SWAP2 SUB SWAP1 RETURN JUMPDEST PUSH1 0x0 DUP1 SHL PUSH2 0x94A DUP2 PUSH2 0x945 PUSH2 0x30E4 JUMP JUMPDEST PUSH2 0x30EC JUMP JUMPDEST PUSH1 0x0 DUP3 GT PUSH2 0x98D JUMPI PUSH1 0x40 MLOAD PUSH32 0x8C379A000000000000000000000000000000000000000000000000000000000 DUP2 MSTORE PUSH1 0x4 ADD PUSH2 0x984 SWAP1 PUSH2 0x4745 JUMP JUMPDEST PUSH1 0x40 MLOAD DUP1 SWAP2 SUB SWAP1 REVERT JUMPDEST DUP2 PUSH1 0xE PUSH1 0x1 ADD PUSH1 0x0 DUP3 DUP3 SLOAD PUSH2 0x9A2 SWAP2 SWAP1 PUSH2 0x4A13 JUMP JUMPDEST SWAP3 POP POP DUP2 SWAP1 SSTORE POP PUSH2 0x9FB CALLER ADDRESS DUP5 PUSH1 0x2 PUSH1 0x0 ADD PUSH1 0x0 SWAP1 SLOAD SWAP1 PUSH2 0x100 EXP SWAP1 DIV PUSH20 0xFFFFFFFFFFFFFFFFFFFFFFFFFFFFFFFFFFFFFFFF AND PUSH20 0xFFFFFFFFFFFFFFFFFFFFFFFFFFFFFFFFFFFFFFFF AND PUSH2 0x3189 SWAP1 SWAP4 SWAP3 SWAP2 SWAP1 PUSH4 0xFFFFFFFF AND JUMP JUMPDEST PUSH32 0x71EB3E5DF75EF293B81B4C7B38DB51F7A6CEC007D12529CB74D4EAFB7FA53222 DUP3 PUSH1 0x40 MLOAD PUSH2 0xA2A SWAP2 SWAP1 PUSH2 0x4905 JUMP JUMPDEST PUSH1 0x40 MLOAD DUP1 SWAP2 SUB SWAP1 LOG1 POP POP JUMP JUMPDEST PUSH1 0x0 PUSH32 0x5A05180F00000000000000000000000000000000000000000000000000000000 PUSH28 0xFFFFFFFFFFFFFFFFFFFFFFFFFFFFFFFFFFFFFFFFFFFFFFFFFFFFFFFF NOT AND DUP3 PUSH28 0xFFFFFFFFFFFFFFFFFFFFFFFFFFFFFFFFFFFFFFFFFFFFFFFFFFFFFFFF NOT AND EQ DUP1 PUSH2 0xAA9 JUMPI POP PUSH2 0xAA8 DUP3 PUSH2 0x3212 JUMP JUMPDEST JUMPDEST SWAP1 POP SWAP2 SWAP1 POP JUMP JUMPDEST PUSH1 0x0 PUSH1 0x2 DUP1 ADD SLOAD SWAP1 POP SWAP1 JUMP JUMPDEST PUSH1 0x0 PUSH1 0x8 PUSH1 0x1 ADD SLOAD SWAP1 POP SWAP1 JUMP JUMPDEST PUSH1 0x60 PUSH1 0x0 DUP1 SLOAD PUSH2 0xAD8 SWAP1 PUSH2 0x4C24 JUMP JUMPDEST DUP1 PUSH1 0x1F ADD PUSH1 0x20 DUP1 SWAP2 DIV MUL PUSH1 0x20 ADD PUSH1 0x40 MLOAD SWAP1 DUP2 ADD PUSH1 0x40 MSTORE DUP1 SWAP3 SWAP2 SWAP1 DUP2 DUP2 MSTORE PUSH1 0x20 ADD DUP3 DUP1 SLOAD PUSH2 0xB04 SWAP1 PUSH2 0x4C24 JUMP JUMPDEST DUP1 ISZERO PUSH2 0xB51 JUMPI DUP1 PUSH1 0x1F LT PUSH2 0xB26 JUMPI PUSH2 0x100 DUP1 DUP4 SLOAD DIV MUL DUP4 MSTORE SWAP2 PUSH1 0x20 ADD SWAP2 PUSH2 0xB51 JUMP JUMPDEST DUP3 ADD SWAP2 SWAP1 PUSH1 0x0 MSTORE PUSH1 0x20 PUSH1 0x0 KECCAK256 SWAP1 JUMPDEST DUP2 SLOAD DUP2 MSTORE SWAP1 PUSH1 0x1 ADD SWAP1 PUSH1 0x20 ADD DUP1 DUP4 GT PUSH2 0xB34 JUMPI DUP3 SWAP1 SUB PUSH1 0x1F AND DUP3 ADD SWAP2 JUMPDEST POP POP POP POP POP SWAP1 POP SWAP1 JUMP JUMPDEST PUSH1 0x0 DUP1 PUSH1 0x1 PUSH1 0x0 DUP5 PUSH20 0xFFFFFFFFFFFFFFFFFFFFFFFFFFFFFFFFFFFFFFFF AND PUSH20 0xFFFFFFFFFFFFFFFFFFFFFFFFFFFFFFFFFFFFFFFF AND DUP2 MSTORE PUSH1 0x20 ADD SWAP1 DUP2 MSTORE PUSH1 0x20 ADD PUSH1 0x0 KECCAK256 PUSH1 0x1 ADD SLOAD EQ ISZERO PUSH2 0xBB0 JUMPI PUSH1 0x0 SWAP1 POP PUSH2 0xC8F JUMP JUMPDEST PUSH1 0x2 DUP1 ADD SLOAD PUSH1 0x2 PUSH1 0x1 ADD SLOAD PUSH1 0x1 PUSH1 0x0 DUP6 PUSH20 0xFFFFFFFFFFFFFFFFFFFFFFFFFFFFFFFFFFFFFFFF AND PUSH20 0xFFFFFFFFFFFFFFFFFFFFFFFFFFFFFFFFFFFFFFFF AND DUP2 MSTORE PUSH1 0x20 ADD SWAP1 DUP2 MSTORE PUSH1 0x20 ADD PUSH1 0x0 KECCAK256 PUSH1 0x1 ADD SLOAD PUSH2 0xC08 SWAP2 SWAP1 PUSH2 0x4A9A JUMP JUMPDEST PUSH2 0xC12 SWAP2 SWAP1 PUSH2 0x4A69 JUMP JUMPDEST PUSH2 0x2710 PUSH1 0x8 PUSH1 0x2 ADD SLOAD PUSH1 0x8 PUSH1 0x1 ADD SLOAD PUSH1 0x1 PUSH1 0x0 DUP8 PUSH20 0xFFFFFFFFFFFFFFFFFFFFFFFFFFFFFFFFFFFFFFFF AND PUSH20 0xFFFFFFFFFFFFFFFFFFFFFFFFFFFFFFFFFFFFFFFF AND DUP2 MSTORE PUSH1 0x20 ADD SWAP1 DUP2 MSTORE PUSH1 0x20 ADD PUSH1 0x0 KECCAK256 PUSH1 0x0 ADD SLOAD PUSH2 0xC6E SWAP2 SWAP1 PUSH2 0x4A9A JUMP JUMPDEST PUSH2 0xC78 SWAP2 SWAP1 PUSH2 0x4A69 JUMP JUMPDEST PUSH2 0xC82 SWAP2 SWAP1 PUSH2 0x4A9A JUMP JUMPDEST PUSH2 0xC8C SWAP2 SWAP1 PUSH2 0x4A69 JUMP JUMPDEST SWAP1 POP JUMPDEST SWAP2 SWAP1 POP JUMP JUMPDEST PUSH1 0x0 PUSH1 0xE PUSH1 0x5 ADD SLOAD SWAP1 POP SWAP1 JUMP JUMPDEST PUSH1 0x0 PUSH1 0x16 PUSH1 0x0 DUP4 DUP2 MSTORE PUSH1 0x20 ADD SWAP1 DUP2 MSTORE PUSH1 0x20 ADD PUSH1 0x0 KECCAK256 PUSH1 0x1 ADD SLOAD SWAP1 POP SWAP2 SWAP1 POP JUMP JUMPDEST PUSH2 0xCCA DUP3 PUSH2 0xCA1 JUMP JUMPDEST PUSH2 0xCDB DUP2 PUSH2 0xCD6 PUSH2 0x30E4 JUMP JUMPDEST PUSH2 0x30EC JUMP JUMPDEST PUSH2 0xCE5 DUP4 DUP4 PUSH2 0x328C JUMP JUMPDEST POP POP POP JUMP JUMPDEST PUSH2 0xD14 PUSH32 0xFC8737AB85EB45125971625A9EBDB75CC78E01D5C1FA80C4C6E5203F47BC4FAB CALLER PUSH2 0x26A8 JUMP JUMPDEST DUP1 PUSH2 0xD28 JUMPI POP PUSH2 0xD27 PUSH1 0x0 DUP1 SHL CALLER PUSH2 0x26A8 JUMP JUMPDEST JUMPDEST PUSH2 0xD67 JUMPI PUSH1 0x40 MLOAD PUSH32 0x8C379A000000000000000000000000000000000000000000000000000000000 DUP2 MSTORE PUSH1 0x4 ADD PUSH2 0xD5E SWAP1 PUSH2 0x46E5 JUMP JUMPDEST PUSH1 0x40 MLOAD DUP1 SWAP2 SUB SWAP1 REVERT JUMPDEST PUSH1 0x64 PUSH1 0xE PUSH1 0x4 ADD SLOAD PUSH2 0xD79 SWAP2 SWAP1 PUSH2 0x4A9A JUMP JUMPDEST PUSH2 0xD82 DUP3 PUSH2 0xB5B JUMP JUMPDEST LT PUSH2 0xDC2 JUMPI PUSH1 0x40 MLOAD PUSH32 0x8C379A000000000000000000000000000000000000000000000000000000000 DUP2 MSTORE PUSH1 0x4 ADD PUSH2 0xDB9 SWAP1 PUSH2 0x4765 JUMP JUMPDEST PUSH1 0x40 MLOAD DUP1 SWAP2 SUB SWAP1 REVERT JUMPDEST PUSH1 0x0 PUSH1 0x64 DUP1 PUSH1 0xE PUSH1 0x5 ADD SLOAD PUSH1 0x64 PUSH1 0x1 PUSH1 0x0 DUP8 PUSH20 0xFFFFFFFFFFFFFFFFFFFFFFFFFFFFFFFFFFFFFFFF AND PUSH20 0xFFFFFFFFFFFFFFFFFFFFFFFFFFFFFFFFFFFFFFFF AND DUP2 MSTORE PUSH1 0x20 ADD SWAP1 DUP2 MSTORE PUSH1 0x20 ADD PUSH1 0x0 KECCAK256 PUSH1 0x1 ADD SLOAD PUSH2 0xE1C SWAP2 SWAP1 PUSH2 0x4A9A JUMP JUMPDEST PUSH2 0xE26 SWAP2 SWAP1 PUSH2 0x4A9A JUMP JUMPDEST PUSH2 0xE30 SWAP2 SWAP1 PUSH2 0x4A69 JUMP JUMPDEST PUSH2 0xE3A SWAP2 SWAP1 PUSH2 0x4A69 JUMP JUMPDEST PUSH1 0x1 PUSH1 0x0 DUP5 PUSH20 0xFFFFFFFFFFFFFFFFFFFFFFFFFFFFFFFFFFFFFFFF AND PUSH20 0xFFFFFFFFFFFFFFFFFFFFFFFFFFFFFFFFFFFFFFFF AND DUP2 MSTORE PUSH1 0x20 ADD SWAP1 DUP2 MSTORE PUSH1 0x20 ADD PUSH1 0x0 KECCAK256 PUSH1 0x1 ADD SLOAD PUSH2 0xE87 SWAP2 SWAP1 PUSH2 0x4A13 JUMP JUMPDEST SWAP1 POP PUSH1 0x0 PUSH1 0x8 PUSH1 0x1 ADD SLOAD PUSH1 0x2 PUSH1 0x1 ADD SLOAD DUP4 PUSH2 0xEA2 SWAP2 SWAP1 PUSH2 0x4A9A JUMP JUMPDEST PUSH2 0xEAC SWAP2 SWAP1 PUSH2 0x4A69 JUMP JUMPDEST SWAP1 POP PUSH1 0x1 PUSH1 0x0 DUP5 PUSH20 0xFFFFFFFFFFFFFFFFFFFFFFFFFFFFFFFFFFFFFFFF AND PUSH20 0xFFFFFFFFFFFFFFFFFFFFFFFFFFFFFFFFFFFFFFFF AND DUP2 MSTORE PUSH1 0x20 ADD SWAP1 DUP2 MSTORE PUSH1 0x20 ADD PUSH1 0x0 KECCAK256 PUSH1 0x0 ADD SLOAD DUP2 GT ISZERO PUSH2 0xF3E JUMPI PUSH1 0x1 PUSH1 0x0 DUP5 PUSH20 0xFFFFFFFFFFFFFFFFFFFFFFFFFFFFFFFFFFFFFFFF AND PUSH20 0xFFFFFFFFFFFFFFFFFFFFFFFFFFFFFFFFFFFFFFFF AND DUP2 MSTORE PUSH1 0x20 ADD SWAP1 DUP2 MSTORE PUSH1 0x20 ADD PUSH1 0x0 KECCAK256 PUSH1 0x0 ADD SLOAD SWAP1 POP JUMPDEST PUSH1 0x0 PUSH1 0xA DUP3 PUSH2 0xF4D SWAP2 SWAP1 PUSH2 0x4A69 JUMP JUMPDEST SWAP1 POP DUP1 DUP3 PUSH2 0xF5B SWAP2 SWAP1 PUSH2 0x4AF4 JUMP JUMPDEST PUSH1 0xE PUSH1 0x0 ADD PUSH1 0x0 DUP3 DUP3 SLOAD PUSH2 0xF6F SWAP2 SWAP1 PUSH2 0x4A13 JUMP JUMPDEST SWAP3 POP POP DUP2 SWAP1 SSTORE POP DUP2 PUSH1 0x1 PUSH1 0x0 DUP7 PUSH20 0xFFFFFFFFFFFFFFFFFFFFFFFFFFFFFFFFFFFFFFFF AND PUSH20 0xFFFFFFFFFFFFFFFFFFFFFFFFFFFFFFFFFFFFFFFF AND DUP2 MSTORE PUSH1 0x20 ADD SWAP1 DUP2 MSTORE PUSH1 0x20 ADD PUSH1 0x0 KECCAK256 PUSH1 0x0 ADD PUSH1 0x0 DUP3 DUP3 SLOAD PUSH2 0xFC8 SWAP2 SWAP1 PUSH2 0x4AF4 JUMP JUMPDEST SWAP3 POP POP DUP2 SWAP1 SSTORE POP PUSH1 0x0 PUSH1 0x1 PUSH1 0x0 DUP7 PUSH20 0xFFFFFFFFFFFFFFFFFFFFFFFFFFFFFFFFFFFFFFFF AND PUSH20 0xFFFFFFFFFFFFFFFFFFFFFFFFFFFFFFFFFFFFFFFF AND DUP2 MSTORE PUSH1 0x20 ADD SWAP1 DUP2 MSTORE PUSH1 0x20 ADD PUSH1 0x0 KECCAK256 PUSH1 0x1 ADD DUP2 SWAP1 SSTORE POP PUSH2 0x1089 PUSH1 0x18 PUSH1 0x2 SWAP1 SLOAD SWAP1 PUSH2 0x100 EXP SWAP1 DIV PUSH20 0xFFFFFFFFFFFFFFFFFFFFFFFFFFFFFFFFFFFFFFFF AND DUP3 PUSH1 0x8 PUSH1 0x0 ADD PUSH1 0x0 SWAP1 SLOAD SWAP1 PUSH2 0x100 EXP SWAP1 DIV PUSH20 0xFFFFFFFFFFFFFFFFFFFFFFFFFFFFFFFFFFFFFFFF AND PUSH20 0xFFFFFFFFFFFFFFFFFFFFFFFFFFFFFFFFFFFFFFFF AND PUSH2 0x32C0 SWAP1 SWAP3 SWAP2 SWAP1 PUSH4 0xFFFFFFFF AND JUMP JUMPDEST DUP4 PUSH20 0xFFFFFFFFFFFFFFFFFFFFFFFFFFFFFFFFFFFFFFFF AND PUSH32 0x6DD29D11F8D1BCDBD79DA21BF92895417DCC2F8886B3DB11C8A4CE00B73DE9D0 DUP5 PUSH1 0x40 MLOAD PUSH2 0x10CF SWAP2 SWAP1 PUSH2 0x4905 JUMP JUMPDEST PUSH1 0x40 MLOAD DUP1 SWAP2 SUB SWAP1 LOG2 POP POP POP POP JUMP JUMPDEST PUSH1 0x0 PUSH1 0x18 PUSH1 0x2 SWAP1 SLOAD SWAP1 PUSH2 0x100 EXP SWAP1 DIV PUSH20 0xFFFFFFFFFFFFFFFFFFFFFFFFFFFFFFFFFFFFFFFF AND SWAP1 POP SWAP1 JUMP JUMPDEST PUSH1 0x0 PUSH1 0x8 PUSH1 0x2 ADD SLOAD SWAP1 POP SWAP1 JUMP JUMPDEST PUSH32 0xFC8737AB85EB45125971625A9EBDB75CC78E01D5C1FA80C4C6E5203F47BC4FAB DUP2 JUMP JUMPDEST PUSH2 0x1140 PUSH2 0x30E4 JUMP JUMPDEST PUSH20 0xFFFFFFFFFFFFFFFFFFFFFFFFFFFFFFFFFFFFFFFF AND DUP2 PUSH20 0xFFFFFFFFFFFFFFFFFFFFFFFFFFFFFFFFFFFFFFFF AND EQ PUSH2 0x11AD JUMPI PUSH1 0x40 MLOAD PUSH32 0x8C379A000000000000000000000000000000000000000000000000000000000 DUP2 MSTORE PUSH1 0x4 ADD PUSH2 0x11A4 SWAP1 PUSH2 0x48E5 JUMP JUMPDEST PUSH1 0x40 MLOAD DUP1 SWAP2 SUB SWAP1 REVERT JUMPDEST PUSH2 0x11B7 DUP3 DUP3 PUSH2 0x3346 JUMP JUMPDEST POP POP JUMP JUMPDEST PUSH1 0x0 DUP1 SHL PUSH2 0x11D0 DUP2 PUSH2 0x11CB PUSH2 0x30E4 JUMP JUMPDEST PUSH2 0x30EC JUMP JUMPDEST PUSH1 0x0 PUSH20 0xFFFFFFFFFFFFFFFFFFFFFFFFFFFFFFFFFFFFFFFF AND PUSH1 0x8 PUSH1 0x0 ADD PUSH1 0x0 SWAP1 SLOAD SWAP1 PUSH2 0x100 EXP SWAP1 DIV PUSH20 0xFFFFFFFFFFFFFFFFFFFFFFFFFFFFFFFFFFFFFFFF AND PUSH20 0xFFFFFFFFFFFFFFFFFFFFFFFFFFFFFFFFFFFFFFFF AND EQ DUP1 ISZERO PUSH2 0x125E JUMPI POP PUSH1 0x0 PUSH20 0xFFFFFFFFFFFFFFFFFFFFFFFFFFFFFFFFFFFFFFFF AND DUP6 PUSH20 0xFFFFFFFFFFFFFFFFFFFFFFFFFFFFFFFFFFFFFFFF AND EQ ISZERO JUMPDEST PUSH2 0x129D JUMPI PUSH1 0x40 MLOAD PUSH32 0x8C379A000000000000000000000000000000000000000000000000000000000 DUP2 MSTORE PUSH1 0x4 ADD PUSH2 0x1294 SWAP1 PUSH2 0x48C5 JUMP JUMPDEST PUSH1 0x40 MLOAD DUP1 SWAP2 SUB SWAP1 REVERT JUMPDEST DUP5 PUSH1 0x8 PUSH1 0x0 ADD PUSH1 0x0 PUSH2 0x100 EXP DUP2 SLOAD DUP2 PUSH20 0xFFFFFFFFFFFFFFFFFFFFFFFFFFFFFFFFFFFFFFFF MUL NOT AND SWAP1 DUP4 PUSH20 0xFFFFFFFFFFFFFFFFFFFFFFFFFFFFFFFFFFFFFFFF AND MUL OR SWAP1 SSTORE POP DUP2 PUSH1 0x8 PUSH1 0x1 ADD DUP2 SWAP1 SSTORE POP DUP3 PUSH1 0x8 PUSH1 0x2 ADD DUP2 SWAP1 SSTORE POP DUP4 PUSH1 0x8 PUSH1 0x3 ADD DUP2 SWAP1 SSTORE POP POP POP POP POP POP JUMP JUMPDEST PUSH1 0x0 DUP1 PUSH1 0x0 DUP1 PUSH1 0xE PUSH1 0x6 ADD PUSH1 0x0 SWAP1 SLOAD SWAP1 PUSH2 0x100 EXP SWAP1 DIV PUSH20 0xFFFFFFFFFFFFFFFFFFFFFFFFFFFFFFFFFFFFFFFF AND SWAP1 POP PUSH1 0x0 DUP2 PUSH20 0xFFFFFFFFFFFFFFFFFFFFFFFFFFFFFFFFFFFFFFFF AND PUSH4 0x46EEE1C4 DUP8 PUSH1 0x40 MLOAD DUP3 PUSH4 0xFFFFFFFF AND PUSH1 0xE0 SHL DUP2 MSTORE PUSH1 0x4 ADD PUSH2 0x136F SWAP2 SWAP1 PUSH2 0x4905 JUMP JUMPDEST PUSH1 0x20 PUSH1 0x40 MLOAD DUP1 DUP4 SUB DUP2 DUP7 DUP1 EXTCODESIZE ISZERO DUP1 ISZERO PUSH2 0x1387 JUMPI PUSH1 0x0 DUP1 REVERT JUMPDEST POP GAS STATICCALL ISZERO DUP1 ISZERO PUSH2 0x139B JUMPI RETURNDATASIZE PUSH1 0x0 DUP1 RETURNDATACOPY RETURNDATASIZE PUSH1 0x0 REVERT JUMPDEST POP POP POP POP PUSH1 0x40 MLOAD RETURNDATASIZE PUSH1 0x1F NOT PUSH1 0x1F DUP3 ADD AND DUP3 ADD DUP1 PUSH1 0x40 MSTORE POP DUP2 ADD SWAP1 PUSH2 0x13BF SWAP2 SWAP1 PUSH2 0x4124 JUMP JUMPDEST SWAP1 POP PUSH1 0x0 DUP3 PUSH20 0xFFFFFFFFFFFFFFFFFFFFFFFFFFFFFFFFFFFFFFFF AND PUSH4 0x77FBB663 DUP9 PUSH1 0x1 DUP6 PUSH2 0x13ED SWAP2 SWAP1 PUSH2 0x4AF4 JUMP JUMPDEST PUSH1 0x40 MLOAD DUP4 PUSH4 0xFFFFFFFF AND PUSH1 0xE0 SHL DUP2 MSTORE PUSH1 0x4 ADD PUSH2 0x140A SWAP3 SWAP2 SWAP1 PUSH2 0x4920 JUMP JUMPDEST PUSH1 0x20 PUSH1 0x40 MLOAD DUP1 DUP4 SUB DUP2 DUP7 DUP1 EXTCODESIZE ISZERO DUP1 ISZERO PUSH2 0x1422 JUMPI PUSH1 0x0 DUP1 REVERT JUMPDEST POP GAS STATICCALL ISZERO DUP1 ISZERO PUSH2 0x1436 JUMPI RETURNDATASIZE PUSH1 0x0 DUP1 RETURNDATACOPY RETURNDATASIZE PUSH1 0x0 REVERT JUMPDEST POP POP POP POP PUSH1 0x40 MLOAD RETURNDATASIZE PUSH1 0x1F NOT PUSH1 0x1F DUP3 ADD AND DUP3 ADD DUP1 PUSH1 0x40 MSTORE POP DUP2 ADD SWAP1 PUSH2 0x145A SWAP2 SWAP1 PUSH2 0x4124 JUMP JUMPDEST SWAP1 POP PUSH1 0x0 DUP4 PUSH20 0xFFFFFFFFFFFFFFFFFFFFFFFFFFFFFFFFFFFFFFFF AND PUSH4 0x93FA4915 DUP10 DUP5 PUSH1 0x40 MLOAD DUP4 PUSH4 0xFFFFFFFF AND PUSH1 0xE0 SHL DUP2 MSTORE PUSH1 0x4 ADD PUSH2 0x1499 SWAP3 SWAP2 SWAP1 PUSH2 0x4920 JUMP JUMPDEST PUSH1 0x20 PUSH1 0x40 MLOAD DUP1 DUP4 SUB DUP2 DUP7 DUP1 EXTCODESIZE ISZERO DUP1 ISZERO PUSH2 0x14B1 JUMPI PUSH1 0x0 DUP1 REVERT JUMPDEST POP GAS STATICCALL ISZERO DUP1 ISZERO PUSH2 0x14C5 JUMPI RETURNDATASIZE PUSH1 0x0 DUP1 RETURNDATACOPY RETURNDATASIZE PUSH1 0x0 REVERT JUMPDEST POP POP POP POP PUSH1 0x40 MLOAD RETURNDATASIZE PUSH1 0x1F NOT PUSH1 0x1F DUP3 ADD AND DUP3 ADD DUP1 PUSH1 0x40 MSTORE POP DUP2 ADD SWAP1 PUSH2 0x14E9 SWAP2 SWAP1 PUSH2 0x4124 JUMP JUMPDEST SWAP1 POP PUSH1 0x0 DUP2 GT ISZERO PUSH2 0x1507 JUMPI PUSH1 0x1 DUP2 DUP4 SWAP7 POP SWAP7 POP SWAP7 POP POP POP POP POP PUSH2 0x1516 JUMP JUMPDEST PUSH1 0x0 DUP1 DUP4 SWAP7 POP SWAP7 POP SWAP7 POP POP POP POP POP JUMPDEST SWAP2 SWAP4 SWAP1 SWAP3 POP JUMP JUMPDEST PUSH1 0x0 PUSH20 0xFFFFFFFFFFFFFFFFFFFFFFFFFFFFFFFFFFFFFFFF AND DUP2 PUSH20 0xFFFFFFFFFFFFFFFFFFFFFFFFFFFFFFFFFFFFFFFF AND EQ ISZERO PUSH2 0x158D JUMPI PUSH1 0x40 MLOAD PUSH32 0x8C379A000000000000000000000000000000000000000000000000000000000 DUP2 MSTORE PUSH1 0x4 ADD PUSH2 0x1584 SWAP1 PUSH2 0x47C5 JUMP JUMPDEST PUSH1 0x40 MLOAD DUP1 SWAP2 SUB SWAP1 REVERT JUMPDEST PUSH2 0x15B7 PUSH32 0xFC8737AB85EB45125971625A9EBDB75CC78E01D5C1FA80C4C6E5203F47BC4FAB DUP3 PUSH2 0xCC1 JUMP JUMPDEST POP JUMP JUMPDEST PUSH1 0x0 DUP1 SHL PUSH2 0x15CF DUP2 PUSH2 0x15CA PUSH2 0x30E4 JUMP JUMPDEST PUSH2 0x30EC JUMP JUMPDEST DUP2 PUSH1 0xE PUSH1 0x0 ADD SLOAD LT ISZERO PUSH2 0x1617 JUMPI PUSH1 0x40 MLOAD PUSH32 0x8C379A000000000000000000000000000000000000000000000000000000000 DUP2 MSTORE PUSH1 0x4 ADD PUSH2 0x160E SWAP1 PUSH2 0x4705 JUMP JUMPDEST PUSH1 0x40 MLOAD DUP1 SWAP2 SUB SWAP1 REVERT JUMPDEST PUSH1 0x0 PUSH1 0xC8 DUP4 PUSH2 0x1626 SWAP2 SWAP1 PUSH2 0x4A69 JUMP JUMPDEST SWAP1 POP DUP3 PUSH1 0xE PUSH1 0x0 ADD PUSH1 0x0 DUP3 DUP3 SLOAD PUSH2 0x163D SWAP2 SWAP1 PUSH2 0x4AF4 JUMP JUMPDEST SWAP3 POP POP DUP2 SWAP1 SSTORE POP PUSH1 0x8 PUSH1 0x0 ADD PUSH1 0x0 SWAP1 SLOAD SWAP1 PUSH2 0x100 EXP SWAP1 DIV PUSH20 0xFFFFFFFFFFFFFFFFFFFFFFFFFFFFFFFFFFFFFFFF AND PUSH20 0xFFFFFFFFFFFFFFFFFFFFFFFFFFFFFFFFFFFFFFFF AND PUSH32 0x529AFC4538720FE0B3EADC40486369AB962002D72FEAD1387B300C66073E7BF DUP5 PUSH1 0x40 MLOAD PUSH2 0x16AF SWAP2 SWAP1 PUSH2 0x4905 JUMP JUMPDEST PUSH1 0x40 MLOAD DUP1 SWAP2 SUB SWAP1 LOG2 PUSH2 0x1712 CALLER DUP3 DUP6 PUSH2 0x16C7 SWAP2 SWAP1 PUSH2 0x4AF4 JUMP JUMPDEST PUSH1 0x8 PUSH1 0x0 ADD PUSH1 0x0 SWAP1 SLOAD SWAP1 PUSH2 0x100 EXP SWAP1 DIV PUSH20 0xFFFFFFFFFFFFFFFFFFFFFFFFFFFFFFFFFFFFFFFF AND PUSH20 0xFFFFFFFFFFFFFFFFFFFFFFFFFFFFFFFFFFFFFFFF AND PUSH2 0x32C0 SWAP1 SWAP3 SWAP2 SWAP1 PUSH4 0xFFFFFFFF AND JUMP JUMPDEST PUSH2 0x1784 PUSH1 0x18 PUSH1 0x2 SWAP1 SLOAD SWAP1 PUSH2 0x100 EXP SWAP1 DIV PUSH20 0xFFFFFFFFFFFFFFFFFFFFFFFFFFFFFFFFFFFFFFFF AND DUP3 PUSH1 0x8 PUSH1 0x0 ADD PUSH1 0x0 SWAP1 SLOAD SWAP1 PUSH2 0x100 EXP SWAP1 DIV PUSH20 0xFFFFFFFFFFFFFFFFFFFFFFFFFFFFFFFFFFFFFFFF AND PUSH20 0xFFFFFFFFFFFFFFFFFFFFFFFFFFFFFFFFFFFFFFFF AND PUSH2 0x32C0 SWAP1 SWAP3 SWAP2 SWAP1 PUSH4 0xFFFFFFFF AND JUMP JUMPDEST POP POP POP JUMP JUMPDEST PUSH2 0x17B3 PUSH32 0xD96BA01D6560C2AB35F2940DD8D70C5F5FE06236C72674237120515918198FB0 CALLER PUSH2 0x26A8 JUMP JUMPDEST DUP1 PUSH2 0x17C7 JUMPI POP PUSH2 0x17C6 PUSH1 0x0 DUP1 SHL CALLER PUSH2 0x26A8 JUMP JUMPDEST JUMPDEST PUSH2 0x1806 JUMPI PUSH1 0x40 MLOAD PUSH32 0x8C379A000000000000000000000000000000000000000000000000000000000 DUP2 MSTORE PUSH1 0x4 ADD PUSH2 0x17FD SWAP1 PUSH2 0x4885 JUMP JUMPDEST PUSH1 0x40 MLOAD DUP1 SWAP2 SUB SWAP1 REVERT JUMPDEST PUSH2 0x1814 PUSH1 0x2 PUSH1 0x3 ADD SLOAD PUSH2 0x1306 JUMP JUMPDEST SWAP1 SWAP2 POP PUSH1 0x2 PUSH1 0x1 ADD PUSH1 0x0 PUSH1 0x2 PUSH1 0x5 ADD PUSH1 0x0 DUP5 SWAP2 SWAP1 POP SSTORE DUP4 SWAP2 SWAP1 POP SSTORE POP POP PUSH1 0x2 PUSH1 0x0 ADD PUSH1 0x0 SWAP1 SLOAD SWAP1 PUSH2 0x100 EXP SWAP1 DIV PUSH20 0xFFFFFFFFFFFFFFFFFFFFFFFFFFFFFFFFFFFFFFFF AND PUSH20 0xFFFFFFFFFFFFFFFFFFFFFFFFFFFFFFFFFFFFFFFF AND PUSH32 0x64E6E7BD72B853C4E62FD6CEACA05A104700C70A4CB567C75C7F2242BA7F037C PUSH1 0x2 PUSH1 0x1 ADD SLOAD PUSH1 0x40 MLOAD PUSH2 0x18A1 SWAP2 SWAP1 PUSH2 0x4905 JUMP JUMPDEST PUSH1 0x40 MLOAD DUP1 SWAP2 SUB SWAP1 LOG2 JUMP JUMPDEST PUSH2 0x18D5 PUSH32 0xFC8737AB85EB45125971625A9EBDB75CC78E01D5C1FA80C4C6E5203F47BC4FAB DUP3 PUSH2 0x2A88 JUMP JUMPDEST POP JUMP JUMPDEST CALLER PUSH20 0xFFFFFFFFFFFFFFFFFFFFFFFFFFFFFFFFFFFFFFFF AND PUSH1 0x18 PUSH1 0x2 SWAP1 SLOAD SWAP1 PUSH2 0x100 EXP SWAP1 DIV PUSH20 0xFFFFFFFFFFFFFFFFFFFFFFFFFFFFFFFFFFFFFFFF AND PUSH20 0xFFFFFFFFFFFFFFFFFFFFFFFFFFFFFFFFFFFFFFFF AND EQ PUSH2 0x1968 JUMPI PUSH1 0x40 MLOAD PUSH32 0x8C379A000000000000000000000000000000000000000000000000000000000 DUP2 MSTORE PUSH1 0x4 ADD PUSH2 0x195F SWAP1 PUSH2 0x47E5 JUMP JUMPDEST PUSH1 0x40 MLOAD DUP1 SWAP2 SUB SWAP1 REVERT JUMPDEST DUP1 PUSH1 0x18 PUSH1 0x2 PUSH2 0x100 EXP DUP2 SLOAD DUP2 PUSH20 0xFFFFFFFFFFFFFFFFFFFFFFFFFFFFFFFFFFFFFFFF MUL NOT AND SWAP1 DUP4 PUSH20 0xFFFFFFFFFFFFFFFFFFFFFFFFFFFFFFFFFFFFFFFF AND MUL OR SWAP1 SSTORE POP POP JUMP JUMPDEST PUSH1 0x0 PUSH1 0x1 PUSH1 0x0 CALLER PUSH20 0xFFFFFFFFFFFFFFFFFFFFFFFFFFFFFFFFFFFFFFFF AND PUSH20 0xFFFFFFFFFFFFFFFFFFFFFFFFFFFFFFFFFFFFFFFF AND DUP2 MSTORE PUSH1 0x20 ADD SWAP1 DUP2 MSTORE PUSH1 0x20 ADD PUSH1 0x0 KECCAK256 PUSH1 0x1 ADD SLOAD EQ PUSH2 0x1A45 JUMPI PUSH2 0x19FE PUSH2 0x27BB JUMP JUMPDEST PUSH1 0x1 PUSH1 0x0 CALLER PUSH20 0xFFFFFFFFFFFFFFFFFFFFFFFFFFFFFFFFFFFFFFFF AND PUSH20 0xFFFFFFFFFFFFFFFFFFFFFFFFFFFFFFFFFFFFFFFF AND DUP2 MSTORE PUSH1 0x20 ADD SWAP1 DUP2 MSTORE PUSH1 0x20 ADD PUSH1 0x0 KECCAK256 PUSH1 0x1 ADD DUP2 SWAP1 SSTORE POP JUMPDEST PUSH1 0x0 PUSH1 0x64 PUSH1 0xE PUSH1 0x4 ADD SLOAD PUSH1 0x2 PUSH1 0x1 ADD SLOAD PUSH1 0x8 PUSH1 0x1 ADD SLOAD PUSH1 0x1 PUSH1 0x0 CALLER PUSH20 0xFFFFFFFFFFFFFFFFFFFFFFFFFFFFFFFFFFFFFFFF AND PUSH20 0xFFFFFFFFFFFFFFFFFFFFFFFFFFFFFFFFFFFFFFFF AND DUP2 MSTORE PUSH1 0x20 ADD SWAP1 DUP2 MSTORE PUSH1 0x20 ADD PUSH1 0x0 KECCAK256 PUSH1 0x0 ADD SLOAD PUSH2 0x1AA8 SWAP2 SWAP1 PUSH2 0x4A9A JUMP JUMPDEST PUSH2 0x1AB2 SWAP2 SWAP1 PUSH2 0x4A69 JUMP JUMPDEST PUSH2 0x1ABC SWAP2 SWAP1 PUSH2 0x4A69 JUMP JUMPDEST PUSH2 0x1AC6 SWAP2 SWAP1 PUSH2 0x4A9A JUMP JUMPDEST SWAP1 POP PUSH1 0x2 DUP1 ADD SLOAD DUP2 PUSH2 0x1AD8 SWAP2 SWAP1 PUSH2 0x4A9A JUMP JUMPDEST SWAP1 POP PUSH1 0x8 PUSH1 0x2 ADD SLOAD DUP2 PUSH2 0x1AEB SWAP2 SWAP1 PUSH2 0x4A69 JUMP JUMPDEST SWAP1 POP PUSH1 0x1 PUSH1 0x0 CALLER PUSH20 0xFFFFFFFFFFFFFFFFFFFFFFFFFFFFFFFFFFFFFFFF AND PUSH20 0xFFFFFFFFFFFFFFFFFFFFFFFFFFFFFFFFFFFFFFFF AND DUP2 MSTORE PUSH1 0x20 ADD SWAP1 DUP2 MSTORE PUSH1 0x20 ADD PUSH1 0x0 KECCAK256 PUSH1 0x1 ADD SLOAD DUP2 PUSH2 0x1B3B SWAP2 SWAP1 PUSH2 0x4AF4 JUMP JUMPDEST SWAP1 POP PUSH2 0x2710 PUSH1 0xE PUSH1 0x3 ADD SLOAD DUP4 PUSH2 0x1B51 SWAP2 SWAP1 PUSH2 0x4A9A JUMP JUMPDEST PUSH2 0x1B5B SWAP2 SWAP1 PUSH2 0x4A69 JUMP JUMPDEST DUP3 PUSH2 0x1B66 SWAP2 SWAP1 PUSH2 0x4A13 JUMP JUMPDEST PUSH1 0x1 PUSH1 0x0 CALLER PUSH20 0xFFFFFFFFFFFFFFFFFFFFFFFFFFFFFFFFFFFFFFFF AND PUSH20 0xFFFFFFFFFFFFFFFFFFFFFFFFFFFFFFFFFFFFFFFF AND DUP2 MSTORE PUSH1 0x20 ADD SWAP1 DUP2 MSTORE PUSH1 0x20 ADD PUSH1 0x0 KECCAK256 PUSH1 0x1 ADD PUSH1 0x0 DUP3 DUP3 SLOAD PUSH2 0x1BB7 SWAP2 SWAP1 PUSH2 0x4A13 JUMP JUMPDEST SWAP3 POP POP DUP2 SWAP1 SSTORE POP DUP1 PUSH1 0x1 PUSH1 0x0 CALLER PUSH20 0xFFFFFFFFFFFFFFFFFFFFFFFFFFFFFFFFFFFFFFFF AND PUSH20 0xFFFFFFFFFFFFFFFFFFFFFFFFFFFFFFFFFFFFFFFF AND DUP2 MSTORE PUSH1 0x20 ADD SWAP1 DUP2 MSTORE PUSH1 0x20 ADD PUSH1 0x0 KECCAK256 PUSH1 0x1 ADD SLOAD LT PUSH2 0x1C42 JUMPI PUSH1 0x40 MLOAD PUSH32 0x8C379A000000000000000000000000000000000000000000000000000000000 DUP2 MSTORE PUSH1 0x4 ADD PUSH2 0x1C39 SWAP1 PUSH2 0x4805 JUMP JUMPDEST PUSH1 0x40 MLOAD DUP1 SWAP2 SUB SWAP1 REVERT JUMPDEST PUSH1 0x2 PUSH1 0x0 ADD PUSH1 0x0 SWAP1 SLOAD SWAP1 PUSH2 0x100 EXP SWAP1 DIV PUSH20 0xFFFFFFFFFFFFFFFFFFFFFFFFFFFFFFFFFFFFFFFF AND PUSH20 0xFFFFFFFFFFFFFFFFFFFFFFFFFFFFFFFFFFFFFFFF AND PUSH4 0x70A08231 ADDRESS PUSH1 0x40 MLOAD DUP3 PUSH4 0xFFFFFFFF AND PUSH1 0xE0 SHL DUP2 MSTORE PUSH1 0x4 ADD PUSH2 0x1CA0 SWAP2 SWAP1 PUSH2 0x457B JUMP JUMPDEST PUSH1 0x20 PUSH1 0x40 MLOAD DUP1 DUP4 SUB DUP2 DUP7 DUP1 EXTCODESIZE ISZERO DUP1 ISZERO PUSH2 0x1CB8 JUMPI PUSH1 0x0 DUP1 REVERT JUMPDEST POP GAS STATICCALL ISZERO DUP1 ISZERO PUSH2 0x1CCC JUMPI RETURNDATASIZE PUSH1 0x0 DUP1 RETURNDATACOPY RETURNDATASIZE PUSH1 0x0 REVERT JUMPDEST POP POP POP POP PUSH1 0x40 MLOAD RETURNDATASIZE PUSH1 0x1F NOT PUSH1 0x1F DUP3 ADD AND DUP3 ADD DUP1 PUSH1 0x40 MSTORE POP DUP2 ADD SWAP1 PUSH2 0x1CF0 SWAP2 SWAP1 PUSH2 0x4124 JUMP JUMPDEST DUP3 GT ISZERO PUSH2 0x1D32 JUMPI PUSH1 0x40 MLOAD PUSH32 0x8C379A000000000000000000000000000000000000000000000000000000000 DUP2 MSTORE PUSH1 0x4 ADD PUSH2 0x1D29 SWAP1 PUSH2 0x46A5 JUMP JUMPDEST PUSH1 0x40 MLOAD DUP1 SWAP2 SUB SWAP1 REVERT JUMPDEST PUSH1 0xE PUSH1 0x7 ADD SLOAD PUSH1 0x1 PUSH1 0x0 CALLER PUSH20 0xFFFFFFFFFFFFFFFFFFFFFFFFFFFFFFFFFFFFFFFF AND PUSH20 0xFFFFFFFFFFFFFFFFFFFFFFFFFFFFFFFFFFFFFFFF AND DUP2 MSTORE PUSH1 0x20 ADD SWAP1 DUP2 MSTORE PUSH1 0x20 ADD PUSH1 0x0 KECCAK256 PUSH1 0x2 ADD SLOAD TIMESTAMP PUSH2 0x1D86 SWAP2 SWAP1 PUSH2 0x4AF4 JUMP JUMPDEST GT ISZERO PUSH2 0x1DD4 JUMPI TIMESTAMP PUSH1 0x1 PUSH1 0x0 CALLER PUSH20 0xFFFFFFFFFFFFFFFFFFFFFFFFFFFFFFFFFFFFFFFF AND PUSH20 0xFFFFFFFFFFFFFFFFFFFFFFFFFFFFFFFFFFFFFFFF AND DUP2 MSTORE PUSH1 0x20 ADD SWAP1 DUP2 MSTORE PUSH1 0x20 ADD PUSH1 0x0 KECCAK256 PUSH1 0x2 ADD DUP2 SWAP1 SSTORE POP JUMPDEST DUP2 PUSH1 0xE PUSH1 0x1 ADD PUSH1 0x0 DUP3 DUP3 SLOAD PUSH2 0x1DE9 SWAP2 SWAP1 PUSH2 0x4AF4 JUMP JUMPDEST SWAP3 POP POP DUP2 SWAP1 SSTORE POP PUSH2 0x1E40 CALLER DUP4 PUSH1 0x2 PUSH1 0x0 ADD PUSH1 0x0 SWAP1 SLOAD SWAP1 PUSH2 0x100 EXP SWAP1 DIV PUSH20 0xFFFFFFFFFFFFFFFFFFFFFFFFFFFFFFFFFFFFFFFF AND PUSH20 0xFFFFFFFFFFFFFFFFFFFFFFFFFFFFFFFFFFFFFFFF AND PUSH2 0x32C0 SWAP1 SWAP3 SWAP2 SWAP1 PUSH4 0xFFFFFFFF AND JUMP JUMPDEST CALLER PUSH20 0xFFFFFFFFFFFFFFFFFFFFFFFFFFFFFFFFFFFFFFFF AND PUSH32 0x232862A021D33EA4A70F5D509B754F0F6986AAA0FFDD5C7DB4910422AFC768A DUP4 PUSH1 0x40 MLOAD PUSH2 0x1E86 SWAP2 SWAP1 PUSH2 0x4905 JUMP JUMPDEST PUSH1 0x40 MLOAD DUP1 SWAP2 SUB SWAP1 LOG2 POP POP JUMP JUMPDEST PUSH1 0x0 PUSH1 0xE PUSH1 0x2 ADD SLOAD SWAP1 POP SWAP1 JUMP JUMPDEST PUSH1 0x0 PUSH1 0x8 PUSH1 0x5 ADD SLOAD SWAP1 POP SWAP1 JUMP JUMPDEST PUSH1 0x0 DUP2 GT PUSH2 0x1EEF JUMPI PUSH1 0x40 MLOAD PUSH32 0x8C379A000000000000000000000000000000000000000000000000000000000 DUP2 MSTORE PUSH1 0x4 ADD PUSH2 0x1EE6 SWAP1 PUSH2 0x4745 JUMP JUMPDEST PUSH1 0x40 MLOAD DUP1 SWAP2 SUB SWAP1 REVERT JUMPDEST DUP1 PUSH1 0x1 PUSH1 0x0 CALLER PUSH20 0xFFFFFFFFFFFFFFFFFFFFFFFFFFFFFFFFFFFFFFFF AND PUSH20 0xFFFFFFFFFFFFFFFFFFFFFFFFFFFFFFFFFFFFFFFF AND DUP2 MSTORE PUSH1 0x20 ADD SWAP1 DUP2 MSTORE PUSH1 0x20 ADD PUSH1 0x0 KECCAK256 PUSH1 0x0 ADD PUSH1 0x0 DUP3 DUP3 SLOAD PUSH2 0x1F41 SWAP2 SWAP1 PUSH2 0x4A13 JUMP JUMPDEST SWAP3 POP POP DUP2 SWAP1 SSTORE POP DUP1 PUSH1 0xE PUSH1 0x0 ADD PUSH1 0x0 DUP3 DUP3 SLOAD PUSH2 0x1F5D SWAP2 SWAP1 PUSH2 0x4A13 JUMP JUMPDEST SWAP3 POP POP DUP2 SWAP1 SSTORE POP PUSH2 0x1FB6 CALLER ADDRESS DUP4 PUSH1 0x8 PUSH1 0x0 ADD PUSH1 0x0 SWAP1 SLOAD SWAP1 PUSH2 0x100 EXP SWAP1 DIV PUSH20 0xFFFFFFFFFFFFFFFFFFFFFFFFFFFFFFFFFFFFFFFF AND PUSH20 0xFFFFFFFFFFFFFFFFFFFFFFFFFFFFFFFFFFFFFFFF AND PUSH2 0x3189 SWAP1 SWAP4 SWAP3 SWAP2 SWAP1 PUSH4 0xFFFFFFFF AND JUMP JUMPDEST CALLER PUSH20 0xFFFFFFFFFFFFFFFFFFFFFFFFFFFFFFFFFFFFFFFF AND PUSH32 0x89D28CF06BDB2EE1B92CD046D58450042AD113E9F4CDABFC4D43E7C5557758D7 DUP3 PUSH1 0x40 MLOAD PUSH2 0x1FFC SWAP2 SWAP1 PUSH2 0x4905 JUMP JUMPDEST PUSH1 0x40 MLOAD DUP1 SWAP2 SUB SWAP1 LOG2 POP JUMP JUMPDEST PUSH1 0x0 PUSH1 0x1 PUSH1 0x0 CALLER PUSH20 0xFFFFFFFFFFFFFFFFFFFFFFFFFFFFFFFFFFFFFFFF AND PUSH20 0xFFFFFFFFFFFFFFFFFFFFFFFFFFFFFFFFFFFFFFFF AND DUP2 MSTORE PUSH1 0x20 ADD SWAP1 DUP2 MSTORE PUSH1 0x20 ADD PUSH1 0x0 KECCAK256 PUSH1 0x1 ADD SLOAD SWAP1 POP SWAP1 JUMP JUMPDEST PUSH1 0x0 PUSH1 0x8 PUSH1 0x0 ADD PUSH1 0x0 SWAP1 SLOAD SWAP1 PUSH2 0x100 EXP SWAP1 DIV PUSH20 0xFFFFFFFFFFFFFFFFFFFFFFFFFFFFFFFFFFFFFFFF AND SWAP1 POP SWAP1 JUMP JUMPDEST PUSH1 0x18 PUSH1 0x1 SWAP1 SLOAD SWAP1 PUSH2 0x100 EXP SWAP1 DIV PUSH1 0xFF AND DUP1 PUSH2 0x20A6 JUMPI POP PUSH1 0x18 PUSH1 0x0 SWAP1 SLOAD SWAP1 PUSH2 0x100 EXP SWAP1 DIV PUSH1 0xFF AND ISZERO JUMPDEST PUSH2 0x20E5 JUMPI PUSH1 0x40 MLOAD PUSH32 0x8C379A000000000000000000000000000000000000000000000000000000000 DUP2 MSTORE PUSH1 0x4 ADD PUSH2 0x20DC SWAP1 PUSH2 0x4825 JUMP JUMPDEST PUSH1 0x40 MLOAD DUP1 SWAP2 SUB SWAP1 REVERT JUMPDEST PUSH1 0x0 PUSH1 0x18 PUSH1 0x1 SWAP1 SLOAD SWAP1 PUSH2 0x100 EXP SWAP1 DIV PUSH1 0xFF AND ISZERO SWAP1 POP DUP1 ISZERO PUSH2 0x2137 JUMPI PUSH1 0x1 PUSH1 0x18 PUSH1 0x1 PUSH2 0x100 EXP DUP2 SLOAD DUP2 PUSH1 0xFF MUL NOT AND SWAP1 DUP4 ISZERO ISZERO MUL OR SWAP1 SSTORE POP PUSH1 0x1 PUSH1 0x18 PUSH1 0x0 PUSH2 0x100 EXP DUP2 SLOAD DUP2 PUSH1 0xFF MUL NOT AND SWAP1 DUP4 ISZERO ISZERO MUL OR SWAP1 SSTORE POP JUMPDEST PUSH2 0x2144 PUSH1 0x0 DUP1 SHL DUP12 PUSH2 0x337A JUMP JUMPDEST DUP8 PUSH1 0xE PUSH1 0x2 ADD DUP2 SWAP1 SSTORE POP DUP7 PUSH1 0xE PUSH1 0x3 ADD DUP2 SWAP1 SSTORE POP DUP6 PUSH1 0xE PUSH1 0x4 ADD DUP2 SWAP1 SSTORE POP DUP2 PUSH1 0xE PUSH1 0x6 ADD PUSH1 0x0 PUSH2 0x100 EXP DUP2 SLOAD DUP2 PUSH20 0xFFFFFFFFFFFFFFFFFFFFFFFFFFFFFFFFFFFFFFFF MUL NOT AND SWAP1 DUP4 PUSH20 0xFFFFFFFFFFFFFFFFFFFFFFFFFFFFFFFFFFFFFFFF AND MUL OR SWAP1 SSTORE POP DUP5 PUSH1 0xE PUSH1 0x5 ADD DUP2 SWAP1 SSTORE POP DUP4 PUSH1 0xE PUSH1 0x7 ADD DUP2 SWAP1 SSTORE POP DUP3 PUSH1 0x18 PUSH1 0x2 PUSH2 0x100 EXP DUP2 SLOAD DUP2 PUSH20 0xFFFFFFFFFFFFFFFFFFFFFFFFFFFFFFFFFFFFFFFF MUL NOT AND SWAP1 DUP4 PUSH20 0xFFFFFFFFFFFFFFFFFFFFFFFFFFFFFFFFFFFFFFFF AND MUL OR SWAP1 SSTORE POP DUP9 PUSH1 0x0 SWAP1 DUP1 MLOAD SWAP1 PUSH1 0x20 ADD SWAP1 PUSH2 0x2211 SWAP3 SWAP2 SWAP1 PUSH2 0x3CD0 JUMP JUMPDEST POP DUP1 ISZERO PUSH2 0x2234 JUMPI PUSH1 0x0 PUSH1 0x18 PUSH1 0x1 PUSH2 0x100 EXP DUP2 SLOAD DUP2 PUSH1 0xFF MUL NOT AND SWAP1 DUP4 ISZERO ISZERO MUL OR SWAP1 SSTORE POP JUMPDEST POP POP POP POP POP POP POP POP POP POP JUMP JUMPDEST PUSH1 0x0 DUP2 GT PUSH2 0x2283 JUMPI PUSH1 0x40 MLOAD PUSH32 0x8C379A000000000000000000000000000000000000000000000000000000000 DUP2 MSTORE PUSH1 0x4 ADD PUSH2 0x227A SWAP1 PUSH2 0x4745 JUMP JUMPDEST PUSH1 0x40 MLOAD DUP1 SWAP2 SUB SWAP1 REVERT JUMPDEST PUSH2 0x228B PUSH2 0x27BB JUMP JUMPDEST PUSH1 0x1 PUSH1 0x0 CALLER PUSH20 0xFFFFFFFFFFFFFFFFFFFFFFFFFFFFFFFFFFFFFFFF AND PUSH20 0xFFFFFFFFFFFFFFFFFFFFFFFFFFFFFFFFFFFFFFFF AND DUP2 MSTORE PUSH1 0x20 ADD SWAP1 DUP2 MSTORE PUSH1 0x20 ADD PUSH1 0x0 KECCAK256 PUSH1 0x1 ADD DUP2 SWAP1 SSTORE POP PUSH1 0x1 PUSH1 0x0 CALLER PUSH20 0xFFFFFFFFFFFFFFFFFFFFFFFFFFFFFFFFFFFFFFFF AND PUSH20 0xFFFFFFFFFFFFFFFFFFFFFFFFFFFFFFFFFFFFFFFF AND DUP2 MSTORE PUSH1 0x20 ADD SWAP1 DUP2 MSTORE PUSH1 0x20 ADD PUSH1 0x0 KECCAK256 PUSH1 0x1 ADD SLOAD DUP2 GT ISZERO PUSH2 0x2356 JUMPI PUSH1 0x40 MLOAD PUSH32 0x8C379A000000000000000000000000000000000000000000000000000000000 DUP2 MSTORE PUSH1 0x4 ADD PUSH2 0x234D SWAP1 PUSH2 0x46C5 JUMP JUMPDEST PUSH1 0x40 MLOAD DUP1 SWAP2 SUB SWAP1 REVERT JUMPDEST DUP1 PUSH1 0x1 PUSH1 0x0 CALLER PUSH20 0xFFFFFFFFFFFFFFFFFFFFFFFFFFFFFFFFFFFFFFFF AND PUSH20 0xFFFFFFFFFFFFFFFFFFFFFFFFFFFFFFFFFFFFFFFF AND DUP2 MSTORE PUSH1 0x20 ADD SWAP1 DUP2 MSTORE PUSH1 0x20 ADD PUSH1 0x0 KECCAK256 PUSH1 0x1 ADD PUSH1 0x0 DUP3 DUP3 SLOAD PUSH2 0x23A8 SWAP2 SWAP1 PUSH2 0x4AF4 JUMP JUMPDEST SWAP3 POP POP DUP2 SWAP1 SSTORE POP DUP1 PUSH1 0xE PUSH1 0x1 ADD PUSH1 0x0 DUP3 DUP3 SLOAD PUSH2 0x23C4 SWAP2 SWAP1 PUSH2 0x4A13 JUMP JUMPDEST SWAP3 POP POP DUP2 SWAP1 SSTORE POP PUSH1 0x0 PUSH1 0xE PUSH1 0x7 ADD SLOAD PUSH1 0x1 PUSH1 0x0 CALLER PUSH20 0xFFFFFFFFFFFFFFFFFFFFFFFFFFFFFFFFFFFFFFFF AND PUSH20 0xFFFFFFFFFFFFFFFFFFFFFFFFFFFFFFFFFFFFFFFF AND DUP2 MSTORE PUSH1 0x20 ADD SWAP1 DUP2 MSTORE PUSH1 0x20 ADD PUSH1 0x0 KECCAK256 PUSH1 0x2 ADD SLOAD PUSH2 0x2420 SWAP2 SWAP1 PUSH2 0x4A69 JUMP JUMPDEST PUSH1 0xE PUSH1 0x7 ADD SLOAD TIMESTAMP PUSH2 0x2431 SWAP2 SWAP1 PUSH2 0x4A69 JUMP JUMPDEST PUSH2 0x243B SWAP2 SWAP1 PUSH2 0x4AF4 JUMP JUMPDEST SWAP1 POP PUSH1 0xE PUSH1 0x7 ADD SLOAD DUP2 PUSH2 0x244E SWAP2 SWAP1 PUSH2 0x4A9A JUMP JUMPDEST PUSH1 0x1 PUSH1 0x0 CALLER PUSH20 0xFFFFFFFFFFFFFFFFFFFFFFFFFFFFFFFFFFFFFFFF AND PUSH20 0xFFFFFFFFFFFFFFFFFFFFFFFFFFFFFFFFFFFFFFFF AND DUP2 MSTORE PUSH1 0x20 ADD SWAP1 DUP2 MSTORE PUSH1 0x20 ADD PUSH1 0x0 KECCAK256 PUSH1 0x2 ADD PUSH1 0x0 DUP3 DUP3 SLOAD PUSH2 0x249F SWAP2 SWAP1 PUSH2 0x4A13 JUMP JUMPDEST SWAP3 POP POP DUP2 SWAP1 SSTORE POP PUSH2 0x24F8 CALLER ADDRESS DUP5 PUSH1 0x2 PUSH1 0x0 ADD PUSH1 0x0 SWAP1 SLOAD SWAP1 PUSH2 0x100 EXP SWAP1 DIV PUSH20 0xFFFFFFFFFFFFFFFFFFFFFFFFFFFFFFFFFFFFFFFF AND PUSH20 0xFFFFFFFFFFFFFFFFFFFFFFFFFFFFFFFFFFFFFFFF AND PUSH2 0x3189 SWAP1 SWAP4 SWAP3 SWAP2 SWAP1 PUSH4 0xFFFFFFFF AND JUMP JUMPDEST CALLER PUSH20 0xFFFFFFFFFFFFFFFFFFFFFFFFFFFFFFFFFFFFFFFF AND PUSH32 0x34D657CD4DEC79D6716CE5AC15B81DE5751705030CBEF01B43B15EAE44CBC112 DUP4 PUSH1 0x40 MLOAD PUSH2 0x253E SWAP2 SWAP1 PUSH2 0x4905 JUMP JUMPDEST PUSH1 0x40 MLOAD DUP1 SWAP2 SUB SWAP1 LOG2 POP POP JUMP JUMPDEST PUSH2 0x2574 PUSH32 0xD96BA01D6560C2AB35F2940DD8D70C5F5FE06236C72674237120515918198FB0 CALLER PUSH2 0x26A8 JUMP JUMPDEST DUP1 PUSH2 0x2588 JUMPI POP PUSH2 0x2587 PUSH1 0x0 DUP1 SHL CALLER PUSH2 0x26A8 JUMP JUMPDEST JUMPDEST PUSH2 0x25C7 JUMPI PUSH1 0x40 MLOAD PUSH32 0x8C379A000000000000000000000000000000000000000000000000000000000 DUP2 MSTORE PUSH1 0x4 ADD PUSH2 0x25BE SWAP1 PUSH2 0x4885 JUMP JUMPDEST PUSH1 0x40 MLOAD DUP1 SWAP2 SUB SWAP1 REVERT JUMPDEST PUSH2 0x25D5 PUSH1 0x8 PUSH1 0x3 ADD SLOAD PUSH2 0x1306 JUMP JUMPDEST SWAP1 SWAP2 POP PUSH1 0x8 PUSH1 0x1 ADD PUSH1 0x0 PUSH1 0x8 PUSH1 0x5 ADD PUSH1 0x0 DUP5 SWAP2 SWAP1 POP SSTORE DUP4 SWAP2 SWAP1 POP SSTORE POP POP PUSH1 0x8 PUSH1 0x0 ADD PUSH1 0x0 SWAP1 SLOAD SWAP1 PUSH2 0x100 EXP SWAP1 DIV PUSH20 0xFFFFFFFFFFFFFFFFFFFFFFFFFFFFFFFFFFFFFFFF AND PUSH20 0xFFFFFFFFFFFFFFFFFFFFFFFFFFFFFFFFFFFFFFFF AND PUSH32 0x64E6E7BD72B853C4E62FD6CEACA05A104700C70A4CB567C75C7F2242BA7F037C PUSH1 0x8 PUSH1 0x1 ADD SLOAD PUSH1 0x40 MLOAD PUSH2 0x2662 SWAP2 SWAP1 PUSH2 0x4905 JUMP JUMPDEST PUSH1 0x40 MLOAD DUP1 SWAP2 SUB SWAP1 LOG2 JUMP JUMPDEST PUSH1 0x0 PUSH1 0xE PUSH1 0x4 ADD SLOAD SWAP1 POP SWAP1 JUMP JUMPDEST PUSH1 0x0 PUSH2 0x26A0 DUP3 PUSH1 0x17 PUSH1 0x0 DUP7 DUP2 MSTORE PUSH1 0x20 ADD SWAP1 DUP2 MSTORE PUSH1 0x20 ADD PUSH1 0x0 KECCAK256 PUSH2 0x3388 SWAP1 SWAP2 SWAP1 PUSH4 0xFFFFFFFF AND JUMP JUMPDEST SWAP1 POP SWAP3 SWAP2 POP POP JUMP JUMPDEST PUSH1 0x0 PUSH1 0x16 PUSH1 0x0 DUP5 DUP2 MSTORE PUSH1 0x20 ADD SWAP1 DUP2 MSTORE PUSH1 0x20 ADD PUSH1 0x0 KECCAK256 PUSH1 0x0 ADD PUSH1 0x0 DUP4 PUSH20 0xFFFFFFFFFFFFFFFFFFFFFFFFFFFFFFFFFFFFFFFF AND PUSH20 0xFFFFFFFFFFFFFFFFFFFFFFFFFFFFFFFFFFFFFFFF AND DUP2 MSTORE PUSH1 0x20 ADD SWAP1 DUP2 MSTORE PUSH1 0x20 ADD PUSH1 0x0 KECCAK256 PUSH1 0x0 SWAP1 SLOAD SWAP1 PUSH2 0x100 EXP SWAP1 DIV PUSH1 0xFF AND SWAP1 POP SWAP3 SWAP2 POP POP JUMP JUMPDEST PUSH2 0x273D PUSH32 0xD96BA01D6560C2AB35F2940DD8D70C5F5FE06236C72674237120515918198FB0 DUP3 PUSH2 0x2A88 JUMP JUMPDEST POP JUMP JUMPDEST PUSH1 0x0 DUP1 SHL DUP2 JUMP JUMPDEST PUSH1 0x1 PUSH1 0x20 MSTORE DUP1 PUSH1 0x0 MSTORE PUSH1 0x40 PUSH1 0x0 KECCAK256 PUSH1 0x0 SWAP2 POP SWAP1 POP DUP1 PUSH1 0x0 ADD SLOAD SWAP1 DUP1 PUSH1 0x1 ADD SLOAD SWAP1 DUP1 PUSH1 0x2 ADD SLOAD SWAP1 POP DUP4 JUMP JUMPDEST PUSH1 0x0 PUSH1 0x1 PUSH1 0x0 CALLER PUSH20 0xFFFFFFFFFFFFFFFFFFFFFFFFFFFFFFFFFFFFFFFF AND PUSH20 0xFFFFFFFFFFFFFFFFFFFFFFFFFFFFFFFFFFFFFFFF AND DUP2 MSTORE PUSH1 0x20 ADD SWAP1 DUP2 MSTORE PUSH1 0x20 ADD PUSH1 0x0 KECCAK256 PUSH1 0x0 ADD SLOAD SWAP1 POP SWAP1 JUMP JUMPDEST PUSH1 0x0 PUSH1 0x1 PUSH1 0x0 CALLER PUSH20 0xFFFFFFFFFFFFFFFFFFFFFFFFFFFFFFFFFFFFFFFF AND PUSH20 0xFFFFFFFFFFFFFFFFFFFFFFFFFFFFFFFFFFFFFFFF AND DUP2 MSTORE PUSH1 0x20 ADD SWAP1 DUP2 MSTORE PUSH1 0x20 ADD PUSH1 0x0 KECCAK256 PUSH1 0x1 ADD SLOAD SWAP1 POP PUSH1 0x0 PUSH1 0xE PUSH1 0x7 ADD SLOAD PUSH4 0x1E13380 PUSH2 0x2819 SWAP2 SWAP1 PUSH2 0x4A69 JUMP JUMPDEST SWAP1 POP PUSH1 0x0 PUSH1 0xE PUSH1 0x7 ADD SLOAD PUSH1 0x1 PUSH1 0x0 CALLER PUSH20 0xFFFFFFFFFFFFFFFFFFFFFFFFFFFFFFFFFFFFFFFF AND PUSH20 0xFFFFFFFFFFFFFFFFFFFFFFFFFFFFFFFFFFFFFFFF AND DUP2 MSTORE PUSH1 0x20 ADD SWAP1 DUP2 MSTORE PUSH1 0x20 ADD PUSH1 0x0 KECCAK256 PUSH1 0x2 ADD SLOAD PUSH2 0x2870 SWAP2 SWAP1 PUSH2 0x4A69 JUMP JUMPDEST PUSH1 0xE PUSH1 0x7 ADD SLOAD TIMESTAMP PUSH2 0x2881 SWAP2 SWAP1 PUSH2 0x4A69 JUMP JUMPDEST PUSH2 0x288B SWAP2 SWAP1 PUSH2 0x4AF4 JUMP JUMPDEST SWAP1 POP DUP1 DUP3 PUSH2 0x2710 PUSH1 0xE PUSH1 0x2 ADD SLOAD DUP7 PUSH2 0x28A3 SWAP2 SWAP1 PUSH2 0x4A9A JUMP JUMPDEST PUSH2 0x28AD SWAP2 SWAP1 PUSH2 0x4A69 JUMP JUMPDEST PUSH2 0x28B7 SWAP2 SWAP1 PUSH2 0x4A69 JUMP JUMPDEST PUSH2 0x28C1 SWAP2 SWAP1 PUSH2 0x4A9A JUMP JUMPDEST DUP4 PUSH2 0x28CC SWAP2 SWAP1 PUSH2 0x4A13 JUMP JUMPDEST SWAP3 POP POP POP SWAP1 JUMP JUMPDEST PUSH1 0x0 DUP1 SHL PUSH2 0x28E8 DUP2 PUSH2 0x28E3 PUSH2 0x30E4 JUMP JUMPDEST PUSH2 0x30EC JUMP JUMPDEST PUSH1 0x0 PUSH20 0xFFFFFFFFFFFFFFFFFFFFFFFFFFFFFFFFFFFFFFFF AND PUSH1 0x2 PUSH1 0x0 ADD PUSH1 0x0 SWAP1 SLOAD SWAP1 PUSH2 0x100 EXP SWAP1 DIV PUSH20 0xFFFFFFFFFFFFFFFFFFFFFFFFFFFFFFFFFFFFFFFF AND PUSH20 0xFFFFFFFFFFFFFFFFFFFFFFFFFFFFFFFFFFFFFFFF AND EQ DUP1 ISZERO PUSH2 0x2976 JUMPI POP PUSH1 0x0 PUSH20 0xFFFFFFFFFFFFFFFFFFFFFFFFFFFFFFFFFFFFFFFF AND DUP6 PUSH20 0xFFFFFFFFFFFFFFFFFFFFFFFFFFFFFFFFFFFFFFFF AND EQ ISZERO JUMPDEST PUSH2 0x29B5 JUMPI PUSH1 0x40 MLOAD PUSH32 0x8C379A000000000000000000000000000000000000000000000000000000000 DUP2 MSTORE PUSH1 0x4 ADD PUSH2 0x29AC SWAP1 PUSH2 0x48C5 JUMP JUMPDEST PUSH1 0x40 MLOAD DUP1 SWAP2 SUB SWAP1 REVERT JUMPDEST DUP5 PUSH1 0x2 PUSH1 0x0 ADD PUSH1 0x0 PUSH2 0x100 EXP DUP2 SLOAD DUP2 PUSH20 0xFFFFFFFFFFFFFFFFFFFFFFFFFFFFFFFFFFFFFFFF MUL NOT AND SWAP1 DUP4 PUSH20 0xFFFFFFFFFFFFFFFFFFFFFFFFFFFFFFFFFFFFFFFF AND MUL OR SWAP1 SSTORE POP DUP2 PUSH1 0x2 PUSH1 0x1 ADD DUP2 SWAP1 SSTORE POP DUP3 PUSH1 0x2 DUP1 ADD DUP2 SWAP1 SSTORE POP DUP4 PUSH1 0x2 PUSH1 0x3 ADD DUP2 SWAP1 SSTORE POP POP POP POP POP POP JUMP JUMPDEST PUSH1 0x0 PUSH1 0x2 PUSH1 0x1 ADD SLOAD SWAP1 POP SWAP1 JUMP JUMPDEST PUSH1 0x0 PUSH2 0x2A47 PUSH1 0x17 PUSH1 0x0 DUP5 DUP2 MSTORE PUSH1 0x20 ADD SWAP1 DUP2 MSTORE PUSH1 0x20 ADD PUSH1 0x0 KECCAK256 PUSH2 0x33A2 JUMP JUMPDEST SWAP1 POP SWAP2 SWAP1 POP JUMP JUMPDEST PUSH1 0x0 PUSH1 0xE PUSH1 0x1 ADD SLOAD SWAP1 POP SWAP1 JUMP JUMPDEST PUSH1 0x0 PUSH1 0x2 PUSH1 0x0 ADD PUSH1 0x0 SWAP1 SLOAD SWAP1 PUSH2 0x100 EXP SWAP1 DIV PUSH20 0xFFFFFFFFFFFFFFFFFFFFFFFFFFFFFFFFFFFFFFFF AND SWAP1 POP SWAP1 JUMP JUMPDEST PUSH2 0x2A91 DUP3 PUSH2 0xCA1 JUMP JUMPDEST PUSH2 0x2AA2 DUP2 PUSH2 0x2A9D PUSH2 0x30E4 JUMP JUMPDEST PUSH2 0x30EC JUMP JUMPDEST PUSH2 0x2AAC DUP4 DUP4 PUSH2 0x3346 JUMP JUMPDEST POP POP POP JUMP JUMPDEST PUSH1 0x0 PUSH20 0xFFFFFFFFFFFFFFFFFFFFFFFFFFFFFFFFFFFFFFFF AND DUP2 PUSH20 0xFFFFFFFFFFFFFFFFFFFFFFFFFFFFFFFFFFFFFFFF AND EQ ISZERO PUSH2 0x2B21 JUMPI PUSH1 0x40 MLOAD PUSH32 0x8C379A000000000000000000000000000000000000000000000000000000000 DUP2 MSTORE PUSH1 0x4 ADD PUSH2 0x2B18 SWAP1 PUSH2 0x47C5 JUMP JUMPDEST PUSH1 0x40 MLOAD DUP1 SWAP2 SUB SWAP1 REVERT JUMPDEST PUSH2 0x2B4B PUSH32 0xD96BA01D6560C2AB35F2940DD8D70C5F5FE06236C72674237120515918198FB0 DUP3 PUSH2 0xCC1 JUMP JUMPDEST POP JUMP JUMPDEST PUSH1 0x0 DUP1 SHL PUSH2 0x2B63 DUP2 PUSH2 0x2B5E PUSH2 0x30E4 JUMP JUMPDEST PUSH2 0x30EC JUMP JUMPDEST DUP2 PUSH1 0x2 PUSH1 0x0 ADD PUSH1 0x0 SWAP1 SLOAD SWAP1 PUSH2 0x100 EXP SWAP1 DIV PUSH20 0xFFFFFFFFFFFFFFFFFFFFFFFFFFFFFFFFFFFFFFFF AND PUSH20 0xFFFFFFFFFFFFFFFFFFFFFFFFFFFFFFFFFFFFFFFF AND PUSH4 0x70A08231 ADDRESS PUSH1 0x40 MLOAD DUP3 PUSH4 0xFFFFFFFF AND PUSH1 0xE0 SHL DUP2 MSTORE PUSH1 0x4 ADD PUSH2 0x2BC2 SWAP2 SWAP1 PUSH2 0x457B JUMP JUMPDEST PUSH1 0x20 PUSH1 0x40 MLOAD DUP1 DUP4 SUB DUP2 DUP7 DUP1 EXTCODESIZE ISZERO DUP1 ISZERO PUSH2 0x2BDA JUMPI PUSH1 0x0 DUP1 REVERT JUMPDEST POP GAS STATICCALL ISZERO DUP1 ISZERO PUSH2 0x2BEE JUMPI RETURNDATASIZE PUSH1 0x0 DUP1 RETURNDATACOPY RETURNDATASIZE PUSH1 0x0 REVERT JUMPDEST POP POP POP POP PUSH1 0x40 MLOAD RETURNDATASIZE PUSH1 0x1F NOT PUSH1 0x1F DUP3 ADD AND DUP3 ADD DUP1 PUSH1 0x40 MSTORE POP DUP2 ADD SWAP1 PUSH2 0x2C12 SWAP2 SWAP1 PUSH2 0x4124 JUMP JUMPDEST LT ISZERO PUSH2 0x2C53 JUMPI PUSH1 0x40 MLOAD PUSH32 0x8C379A000000000000000000000000000000000000000000000000000000000 DUP2 MSTORE PUSH1 0x4 ADD PUSH2 0x2C4A SWAP1 PUSH2 0x4785 JUMP JUMPDEST PUSH1 0x40 MLOAD DUP1 SWAP2 SUB SWAP1 REVERT JUMPDEST PUSH1 0x0 PUSH1 0xC8 DUP4 PUSH2 0x2C62 SWAP2 SWAP1 PUSH2 0x4A69 JUMP JUMPDEST SWAP1 POP DUP3 PUSH1 0xE PUSH1 0x1 ADD PUSH1 0x0 DUP3 DUP3 SLOAD PUSH2 0x2C79 SWAP2 SWAP1 PUSH2 0x4AF4 JUMP JUMPDEST SWAP3 POP POP DUP2 SWAP1 SSTORE POP PUSH2 0x2CDB CALLER DUP3 DUP6 PUSH2 0x2C90 SWAP2 SWAP1 PUSH2 0x4AF4 JUMP JUMPDEST PUSH1 0x2 PUSH1 0x0 ADD PUSH1 0x0 SWAP1 SLOAD SWAP1 PUSH2 0x100 EXP SWAP1 DIV PUSH20 0xFFFFFFFFFFFFFFFFFFFFFFFFFFFFFFFFFFFFFFFF AND PUSH20 0xFFFFFFFFFFFFFFFFFFFFFFFFFFFFFFFFFFFFFFFF AND PUSH2 0x32C0 SWAP1 SWAP3 SWAP2 SWAP1 PUSH4 0xFFFFFFFF AND JUMP JUMPDEST PUSH2 0x2D4D PUSH1 0x18 PUSH1 0x2 SWAP1 SLOAD SWAP1 PUSH2 0x100 EXP SWAP1 DIV PUSH20 0xFFFFFFFFFFFFFFFFFFFFFFFFFFFFFFFFFFFFFFFF AND DUP3 PUSH1 0x2 PUSH1 0x0 ADD PUSH1 0x0 SWAP1 SLOAD SWAP1 PUSH2 0x100 EXP SWAP1 DIV PUSH20 0xFFFFFFFFFFFFFFFFFFFFFFFFFFFFFFFFFFFFFFFF AND PUSH20 0xFFFFFFFFFFFFFFFFFFFFFFFFFFFFFFFFFFFFFFFF AND PUSH2 0x32C0 SWAP1 SWAP3 SWAP2 SWAP1 PUSH4 0xFFFFFFFF AND JUMP JUMPDEST PUSH1 0x2 PUSH1 0x0 ADD PUSH1 0x0 SWAP1 SLOAD SWAP1 PUSH2 0x100 EXP SWAP1 DIV PUSH20 0xFFFFFFFFFFFFFFFFFFFFFFFFFFFFFFFFFFFFFFFF AND PUSH20 0xFFFFFFFFFFFFFFFFFFFFFFFFFFFFFFFFFFFFFFFF AND PUSH32 0x529AFC4538720FE0B3EADC40486369AB962002D72FEAD1387B300C66073E7BF DUP5 PUSH1 0x40 MLOAD PUSH2 0x2DB8 SWAP2 SWAP1 PUSH2 0x4905 JUMP JUMPDEST PUSH1 0x40 MLOAD DUP1 SWAP2 SUB SWAP1 LOG2 POP POP POP JUMP JUMPDEST PUSH1 0x0 PUSH1 0x2 PUSH1 0x5 ADD SLOAD SWAP1 POP SWAP1 JUMP JUMPDEST PUSH1 0x0 PUSH1 0xE PUSH1 0x0 ADD SLOAD SWAP1 POP SWAP1 JUMP JUMPDEST PUSH1 0x1 PUSH1 0x0 CALLER PUSH20 0xFFFFFFFFFFFFFFFFFFFFFFFFFFFFFFFFFFFFFFFF AND PUSH20 0xFFFFFFFFFFFFFFFFFFFFFFFFFFFFFFFFFFFFFFFF AND DUP2 MSTORE PUSH1 0x20 ADD SWAP1 DUP2 MSTORE PUSH1 0x20 ADD PUSH1 0x0 KECCAK256 PUSH1 0x0 ADD SLOAD DUP2 GT ISZERO PUSH2 0x2E64 JUMPI PUSH1 0x40 MLOAD PUSH32 0x8C379A000000000000000000000000000000000000000000000000000000000 DUP2 MSTORE PUSH1 0x4 ADD PUSH2 0x2E5B SWAP1 PUSH2 0x47A5 JUMP JUMPDEST PUSH1 0x40 MLOAD DUP1 SWAP2 SUB SWAP1 REVERT JUMPDEST PUSH1 0x0 PUSH1 0x64 PUSH1 0xE PUSH1 0x4 ADD SLOAD PUSH1 0x2 PUSH1 0x1 ADD SLOAD PUSH1 0x8 PUSH1 0x1 ADD SLOAD DUP6 PUSH1 0x1 PUSH1 0x0 CALLER PUSH20 0xFFFFFFFFFFFFFFFFFFFFFFFFFFFFFFFFFFFFFFFF AND PUSH20 0xFFFFFFFFFFFFFFFFFFFFFFFFFFFFFFFFFFFFFFFF AND DUP2 MSTORE PUSH1 0x20 ADD SWAP1 DUP2 MSTORE PUSH1 0x20 ADD PUSH1 0x0 KECCAK256 PUSH1 0x0 ADD SLOAD PUSH2 0x2EC8 SWAP2 SWAP1 PUSH2 0x4AF4 JUMP JUMPDEST PUSH2 0x2ED2 SWAP2 SWAP1 PUSH2 0x4A9A JUMP JUMPDEST PUSH2 0x2EDC SWAP2 SWAP1 PUSH2 0x4A69 JUMP JUMPDEST PUSH2 0x2EE6 SWAP2 SWAP1 PUSH2 0x4A69 JUMP JUMPDEST PUSH2 0x2EF0 SWAP2 SWAP1 PUSH2 0x4A9A JUMP JUMPDEST SWAP1 POP PUSH1 0x2 DUP1 ADD SLOAD DUP2 PUSH2 0x2F02 SWAP2 SWAP1 PUSH2 0x4A9A JUMP JUMPDEST SWAP1 POP PUSH1 0x8 PUSH1 0x2 ADD SLOAD DUP2 PUSH2 0x2F15 SWAP2 SWAP1 PUSH2 0x4A69 JUMP JUMPDEST SWAP1 POP DUP1 PUSH1 0x1 PUSH1 0x0 CALLER PUSH20 0xFFFFFFFFFFFFFFFFFFFFFFFFFFFFFFFFFFFFFFFF AND PUSH20 0xFFFFFFFFFFFFFFFFFFFFFFFFFFFFFFFFFFFFFFFF AND DUP2 MSTORE PUSH1 0x20 ADD SWAP1 DUP2 MSTORE PUSH1 0x20 ADD PUSH1 0x0 KECCAK256 PUSH1 0x1 ADD SLOAD GT ISZERO PUSH2 0x2F9C JUMPI PUSH1 0x40 MLOAD PUSH32 0x8C379A000000000000000000000000000000000000000000000000000000000 DUP2 MSTORE PUSH1 0x4 ADD PUSH2 0x2F93 SWAP1 PUSH2 0x4845 JUMP JUMPDEST PUSH1 0x40 MLOAD DUP1 SWAP2 SUB SWAP1 REVERT JUMPDEST DUP2 PUSH1 0x1 PUSH1 0x0 CALLER PUSH20 0xFFFFFFFFFFFFFFFFFFFFFFFFFFFFFFFFFFFFFFFF AND PUSH20 0xFFFFFFFFFFFFFFFFFFFFFFFFFFFFFFFFFFFFFFFF AND DUP2 MSTORE PUSH1 0x20 ADD SWAP1 DUP2 MSTORE PUSH1 0x20 ADD PUSH1 0x0 KECCAK256 PUSH1 0x0 ADD PUSH1 0x0 DUP3 DUP3 SLOAD PUSH2 0x2FEE SWAP2 SWAP1 PUSH2 0x4AF4 JUMP JUMPDEST SWAP3 POP POP DUP2 SWAP1 SSTORE POP DUP2 PUSH1 0xE PUSH1 0x0 ADD PUSH1 0x0 DUP3 DUP3 SLOAD PUSH2 0x300A SWAP2 SWAP1 PUSH2 0x4AF4 JUMP JUMPDEST SWAP3 POP POP DUP2 SWAP1 SSTORE POP PUSH2 0x3061 CALLER DUP4 PUSH1 0x8 PUSH1 0x0 ADD PUSH1 0x0 SWAP1 SLOAD SWAP1 PUSH2 0x100 EXP SWAP1 DIV PUSH20 0xFFFFFFFFFFFFFFFFFFFFFFFFFFFFFFFFFFFFFFFF AND PUSH20 0xFFFFFFFFFFFFFFFFFFFFFFFFFFFFFFFFFFFFFFFF AND PUSH2 0x32C0 SWAP1 SWAP3 SWAP2 SWAP1 PUSH4 0xFFFFFFFF AND JUMP JUMPDEST CALLER PUSH20 0xFFFFFFFFFFFFFFFFFFFFFFFFFFFFFFFFFFFFFFFF AND PUSH32 0xAC60FBF53B67F5A6A0C8031DD9D1610A06F01669B1A8B9AF98F3A6A477E8D7C DUP4 PUSH1 0x40 MLOAD PUSH2 0x30A7 SWAP2 SWAP1 PUSH2 0x4905 JUMP JUMPDEST PUSH1 0x40 MLOAD DUP1 SWAP2 SUB SWAP1 LOG2 POP POP JUMP JUMPDEST PUSH32 0xD96BA01D6560C2AB35F2940DD8D70C5F5FE06236C72674237120515918198FB0 DUP2 JUMP JUMPDEST PUSH1 0x0 PUSH1 0xE PUSH1 0x3 ADD SLOAD SWAP1 POP SWAP1 JUMP JUMPDEST PUSH1 0x0 CALLER SWAP1 POP SWAP1 JUMP JUMPDEST PUSH2 0x30F6 DUP3 DUP3 PUSH2 0x26A8 JUMP JUMPDEST PUSH2 0x3185 JUMPI PUSH2 0x311B DUP2 PUSH20 0xFFFFFFFFFFFFFFFFFFFFFFFFFFFFFFFFFFFFFFFF AND PUSH1 0x14 PUSH2 0x33B7 JUMP JUMPDEST PUSH2 0x3129 DUP4 PUSH1 0x0 SHR PUSH1 0x20 PUSH2 0x33B7 JUMP JUMPDEST PUSH1 0x40 MLOAD PUSH1 0x20 ADD PUSH2 0x313A SWAP3 SWAP2 SWAP1 PUSH2 0x4541 JUMP JUMPDEST PUSH1 0x40 MLOAD PUSH1 0x20 DUP2 DUP4 SUB SUB DUP2 MSTORE SWAP1 PUSH1 0x40 MSTORE PUSH1 0x40 MLOAD PUSH32 0x8C379A000000000000000000000000000000000000000000000000000000000 DUP2 MSTORE PUSH1 0x4 ADD PUSH2 0x317C SWAP2 SWAP1 PUSH2 0x4663 JUMP JUMPDEST PUSH1 0x40 MLOAD DUP1 SWAP2 SUB SWAP1 REVERT JUMPDEST POP POP JUMP JUMPDEST PUSH2 0x320C DUP5 PUSH4 0x23B872DD PUSH1 0xE0 SHL DUP6 DUP6 DUP6 PUSH1 0x40 MLOAD PUSH1 0x24 ADD PUSH2 0x31AA SWAP4 SWAP3 SWAP2 SWAP1 PUSH2 0x4596 JUMP JUMPDEST PUSH1 0x40 MLOAD PUSH1 0x20 DUP2 DUP4 SUB SUB DUP2 MSTORE SWAP1 PUSH1 0x40 MSTORE SWAP1 PUSH28 0xFFFFFFFFFFFFFFFFFFFFFFFFFFFFFFFFFFFFFFFFFFFFFFFFFFFFFFFF NOT AND PUSH1 0x20 DUP3 ADD DUP1 MLOAD PUSH28 0xFFFFFFFFFFFFFFFFFFFFFFFFFFFFFFFFFFFFFFFFFFFFFFFFFFFFFFFF DUP4 DUP2 DUP4 AND OR DUP4 MSTORE POP POP POP POP PUSH2 0x35F3 JUMP JUMPDEST POP POP POP POP JUMP JUMPDEST PUSH1 0x0 PUSH32 0x7965DB0B00000000000000000000000000000000000000000000000000000000 PUSH28 0xFFFFFFFFFFFFFFFFFFFFFFFFFFFFFFFFFFFFFFFFFFFFFFFFFFFFFFFF NOT AND DUP3 PUSH28 0xFFFFFFFFFFFFFFFFFFFFFFFFFFFFFFFFFFFFFFFFFFFFFFFFFFFFFFFF NOT AND EQ DUP1 PUSH2 0x3285 JUMPI POP PUSH2 0x3284 DUP3 PUSH2 0x36BA JUMP JUMPDEST JUMPDEST SWAP1 POP SWAP2 SWAP1 POP JUMP JUMPDEST PUSH2 0x3296 DUP3 DUP3 PUSH2 0x3724 JUMP JUMPDEST PUSH2 0x32BB DUP2 PUSH1 0x17 PUSH1 0x0 DUP6 DUP2 MSTORE PUSH1 0x20 ADD SWAP1 DUP2 MSTORE PUSH1 0x20 ADD PUSH1 0x0 KECCAK256 PUSH2 0x3805 SWAP1 SWAP2 SWAP1 PUSH4 0xFFFFFFFF AND JUMP JUMPDEST POP POP POP JUMP JUMPDEST PUSH2 0x3341 DUP4 PUSH4 0xA9059CBB PUSH1 0xE0 SHL DUP5 DUP5 PUSH1 0x40 MLOAD PUSH1 0x24 ADD PUSH2 0x32DF SWAP3 SWAP2 SWAP1 PUSH2 0x45CD JUMP JUMPDEST PUSH1 0x40 MLOAD PUSH1 0x20 DUP2 DUP4 SUB SUB DUP2 MSTORE SWAP1 PUSH1 0x40 MSTORE SWAP1 PUSH28 0xFFFFFFFFFFFFFFFFFFFFFFFFFFFFFFFFFFFFFFFFFFFFFFFFFFFFFFFF NOT AND PUSH1 0x20 DUP3 ADD DUP1 MLOAD PUSH28 0xFFFFFFFFFFFFFFFFFFFFFFFFFFFFFFFFFFFFFFFFFFFFFFFFFFFFFFFF DUP4 DUP2 DUP4 AND OR DUP4 MSTORE POP POP POP POP PUSH2 0x35F3 JUMP JUMPDEST POP POP POP JUMP JUMPDEST PUSH2 0x3350 DUP3 DUP3 PUSH2 0x3835 JUMP JUMPDEST PUSH2 0x3375 DUP2 PUSH1 0x17 PUSH1 0x0 DUP6 DUP2 MSTORE PUSH1 0x20 ADD SWAP1 DUP2 MSTORE PUSH1 0x20 ADD PUSH1 0x0 KECCAK256 PUSH2 0x3917 SWAP1 SWAP2 SWAP1 PUSH4 0xFFFFFFFF AND JUMP JUMPDEST POP POP POP JUMP JUMPDEST PUSH2 0x3384 DUP3 DUP3 PUSH2 0x328C JUMP JUMPDEST POP POP JUMP JUMPDEST PUSH1 0x0 PUSH2 0x3397 DUP4 PUSH1 0x0 ADD DUP4 PUSH2 0x3947 JUMP JUMPDEST PUSH1 0x0 SHR SWAP1 POP SWAP3 SWAP2 POP POP JUMP JUMPDEST PUSH1 0x0 PUSH2 0x33B0 DUP3 PUSH1 0x0 ADD PUSH2 0x3972 JUMP JUMPDEST SWAP1 POP SWAP2 SWAP1 POP JUMP JUMPDEST PUSH1 0x60 PUSH1 0x0 PUSH1 0x2 DUP4 PUSH1 0x2 PUSH2 0x33CA SWAP2 SWAP1 PUSH2 0x4A9A JUMP JUMPDEST PUSH2 0x33D4 SWAP2 SWAP1 PUSH2 0x4A13 JUMP JUMPDEST PUSH8 0xFFFFFFFFFFFFFFFF DUP2 GT ISZERO PUSH2 0x33ED JUMPI PUSH2 0x33EC PUSH2 0x4D72 JUMP JUMPDEST JUMPDEST PUSH1 0x40 MLOAD SWAP1 DUP1 DUP3 MSTORE DUP1 PUSH1 0x1F ADD PUSH1 0x1F NOT AND PUSH1 0x20 ADD DUP3 ADD PUSH1 0x40 MSTORE DUP1 ISZERO PUSH2 0x341F JUMPI DUP2 PUSH1 0x20 ADD PUSH1 0x1 DUP3 MUL DUP1 CALLDATASIZE DUP4 CALLDATACOPY DUP1 DUP3 ADD SWAP2 POP POP SWAP1 POP JUMPDEST POP SWAP1 POP PUSH32 0x3000000000000000000000000000000000000000000000000000000000000000 DUP2 PUSH1 0x0 DUP2 MLOAD DUP2 LT PUSH2 0x3457 JUMPI PUSH2 0x3456 PUSH2 0x4D43 JUMP JUMPDEST JUMPDEST PUSH1 0x20 ADD ADD SWAP1 PUSH31 0xFFFFFFFFFFFFFFFFFFFFFFFFFFFFFFFFFFFFFFFFFFFFFFFFFFFFFFFFFFFFFF NOT AND SWAP1 DUP2 PUSH1 0x0 BYTE SWAP1 MSTORE8 POP PUSH32 0x7800000000000000000000000000000000000000000000000000000000000000 DUP2 PUSH1 0x1 DUP2 MLOAD DUP2 LT PUSH2 0x34BB JUMPI PUSH2 0x34BA PUSH2 0x4D43 JUMP JUMPDEST JUMPDEST PUSH1 0x20 ADD ADD SWAP1 PUSH31 0xFFFFFFFFFFFFFFFFFFFFFFFFFFFFFFFFFFFFFFFFFFFFFFFFFFFFFFFFFFFFFF NOT AND SWAP1 DUP2 PUSH1 0x0 BYTE SWAP1 MSTORE8 POP PUSH1 0x0 PUSH1 0x1 DUP5 PUSH1 0x2 PUSH2 0x34FB SWAP2 SWAP1 PUSH2 0x4A9A JUMP JUMPDEST PUSH2 0x3505 SWAP2 SWAP1 PUSH2 0x4A13 JUMP JUMPDEST SWAP1 POP JUMPDEST PUSH1 0x1 DUP2 GT ISZERO PUSH2 0x35A5 JUMPI PUSH32 0x3031323334353637383961626364656600000000000000000000000000000000 PUSH1 0xF DUP7 AND PUSH1 0x10 DUP2 LT PUSH2 0x3547 JUMPI PUSH2 0x3546 PUSH2 0x4D43 JUMP JUMPDEST JUMPDEST BYTE PUSH1 0xF8 SHL DUP3 DUP3 DUP2 MLOAD DUP2 LT PUSH2 0x355E JUMPI PUSH2 0x355D PUSH2 0x4D43 JUMP JUMPDEST JUMPDEST PUSH1 0x20 ADD ADD SWAP1 PUSH31 0xFFFFFFFFFFFFFFFFFFFFFFFFFFFFFFFFFFFFFFFFFFFFFFFFFFFFFFFFFFFFFF NOT AND SWAP1 DUP2 PUSH1 0x0 BYTE SWAP1 MSTORE8 POP PUSH1 0x4 DUP6 SWAP1 SHR SWAP5 POP DUP1 PUSH2 0x359E SWAP1 PUSH2 0x4BFA JUMP JUMPDEST SWAP1 POP PUSH2 0x3508 JUMP JUMPDEST POP PUSH1 0x0 DUP5 EQ PUSH2 0x35E9 JUMPI PUSH1 0x40 MLOAD PUSH32 0x8C379A000000000000000000000000000000000000000000000000000000000 DUP2 MSTORE PUSH1 0x4 ADD PUSH2 0x35E0 SWAP1 PUSH2 0x4685 JUMP JUMPDEST PUSH1 0x40 MLOAD DUP1 SWAP2 SUB SWAP1 REVERT JUMPDEST DUP1 SWAP2 POP POP SWAP3 SWAP2 POP POP JUMP JUMPDEST PUSH1 0x0 PUSH2 0x3655 DUP3 PUSH1 0x40 MLOAD DUP1 PUSH1 0x40 ADD PUSH1 0x40 MSTORE DUP1 PUSH1 0x20 DUP2 MSTORE PUSH1 0x20 ADD PUSH32 0x5361666545524332303A206C6F772D6C6576656C2063616C6C206661696C6564 DUP2 MSTORE POP DUP6 PUSH20 0xFFFFFFFFFFFFFFFFFFFFFFFFFFFFFFFFFFFFFFFF AND PUSH2 0x3983 SWAP1 SWAP3 SWAP2 SWAP1 PUSH4 0xFFFFFFFF AND JUMP JUMPDEST SWAP1 POP PUSH1 0x0 DUP2 MLOAD GT ISZERO PUSH2 0x36B5 JUMPI DUP1 DUP1 PUSH1 0x20 ADD SWAP1 MLOAD DUP2 ADD SWAP1 PUSH2 0x3675 SWAP2 SWAP1 PUSH2 0x3FF0 JUMP JUMPDEST PUSH2 0x36B4 JUMPI PUSH1 0x40 MLOAD PUSH32 0x8C379A000000000000000000000000000000000000000000000000000000000 DUP2 MSTORE PUSH1 0x4 ADD PUSH2 0x36AB SWAP1 PUSH2 0x48A5 JUMP JUMPDEST PUSH1 0x40 MLOAD DUP1 SWAP2 SUB SWAP1 REVERT JUMPDEST JUMPDEST POP POP POP JUMP JUMPDEST PUSH1 0x0 PUSH32 0x1FFC9A700000000000000000000000000000000000000000000000000000000 PUSH28 0xFFFFFFFFFFFFFFFFFFFFFFFFFFFFFFFFFFFFFFFFFFFFFFFFFFFFFFFF NOT AND DUP3 PUSH28 0xFFFFFFFFFFFFFFFFFFFFFFFFFFFFFFFFFFFFFFFFFFFFFFFFFFFFFFFF NOT AND EQ SWAP1 POP SWAP2 SWAP1 POP JUMP JUMPDEST PUSH2 0x372E DUP3 DUP3 PUSH2 0x26A8 JUMP JUMPDEST PUSH2 0x3801 JUMPI PUSH1 0x1 PUSH1 0x16 PUSH1 0x0 DUP5 DUP2 MSTORE PUSH1 0x20 ADD SWAP1 DUP2 MSTORE PUSH1 0x20 ADD PUSH1 0x0 KECCAK256 PUSH1 0x0 ADD PUSH1 0x0 DUP4 PUSH20 0xFFFFFFFFFFFFFFFFFFFFFFFFFFFFFFFFFFFFFFFF AND PUSH20 0xFFFFFFFFFFFFFFFFFFFFFFFFFFFFFFFFFFFFFFFF AND DUP2 MSTORE PUSH1 0x20 ADD SWAP1 DUP2 MSTORE PUSH1 0x20 ADD PUSH1 0x0 KECCAK256 PUSH1 0x0 PUSH2 0x100 EXP DUP2 SLOAD DUP2 PUSH1 0xFF MUL NOT AND SWAP1 DUP4 ISZERO ISZERO MUL OR SWAP1 SSTORE POP PUSH2 0x37A6 PUSH2 0x30E4 JUMP JUMPDEST PUSH20 0xFFFFFFFFFFFFFFFFFFFFFFFFFFFFFFFFFFFFFFFF AND DUP2 PUSH20 0xFFFFFFFFFFFFFFFFFFFFFFFFFFFFFFFFFFFFFFFF AND DUP4 PUSH32 0x2F8788117E7EFF1D82E926EC794901D17C78024A50270940304540A733656F0D PUSH1 0x40 MLOAD PUSH1 0x40 MLOAD DUP1 SWAP2 SUB SWAP1 LOG4 JUMPDEST POP POP JUMP JUMPDEST PUSH1 0x0 PUSH2 0x382D DUP4 PUSH1 0x0 ADD DUP4 PUSH20 0xFFFFFFFFFFFFFFFFFFFFFFFFFFFFFFFFFFFFFFFF AND PUSH1 0x0 SHL PUSH2 0x399B JUMP JUMPDEST SWAP1 POP SWAP3 SWAP2 POP POP JUMP JUMPDEST PUSH2 0x383F DUP3 DUP3 PUSH2 0x26A8 JUMP JUMPDEST ISZERO PUSH2 0x3913 JUMPI PUSH1 0x0 PUSH1 0x16 PUSH1 0x0 DUP5 DUP2 MSTORE PUSH1 0x20 ADD SWAP1 DUP2 MSTORE PUSH1 0x20 ADD PUSH1 0x0 KECCAK256 PUSH1 0x0 ADD PUSH1 0x0 DUP4 PUSH20 0xFFFFFFFFFFFFFFFFFFFFFFFFFFFFFFFFFFFFFFFF AND PUSH20 0xFFFFFFFFFFFFFFFFFFFFFFFFFFFFFFFFFFFFFFFF AND DUP2 MSTORE PUSH1 0x20 ADD SWAP1 DUP2 MSTORE PUSH1 0x20 ADD PUSH1 0x0 KECCAK256 PUSH1 0x0 PUSH2 0x100 EXP DUP2 SLOAD DUP2 PUSH1 0xFF MUL NOT AND SWAP1 DUP4 ISZERO ISZERO MUL OR SWAP1 SSTORE POP PUSH2 0x38B8 PUSH2 0x30E4 JUMP JUMPDEST PUSH20 0xFFFFFFFFFFFFFFFFFFFFFFFFFFFFFFFFFFFFFFFF AND DUP2 PUSH20 0xFFFFFFFFFFFFFFFFFFFFFFFFFFFFFFFFFFFFFFFF AND DUP4 PUSH32 0xF6391F5C32D9C69D2A47EA670B442974B53935D1EDC7FD64EB21E047A839171B PUSH1 0x40 MLOAD PUSH1 0x40 MLOAD DUP1 SWAP2 SUB SWAP1 LOG4 JUMPDEST POP POP JUMP JUMPDEST PUSH1 0x0 PUSH2 0x393F DUP4 PUSH1 0x0 ADD DUP4 PUSH20 0xFFFFFFFFFFFFFFFFFFFFFFFFFFFFFFFFFFFFFFFF AND PUSH1 0x0 SHL PUSH2 0x3A0B JUMP JUMPDEST SWAP1 POP SWAP3 SWAP2 POP POP JUMP JUMPDEST PUSH1 0x0 DUP3 PUSH1 0x0 ADD DUP3 DUP2 SLOAD DUP2 LT PUSH2 0x395F JUMPI PUSH2 0x395E PUSH2 0x4D43 JUMP JUMPDEST JUMPDEST SWAP1 PUSH1 0x0 MSTORE PUSH1 0x20 PUSH1 0x0 KECCAK256 ADD SLOAD SWAP1 POP SWAP3 SWAP2 POP POP JUMP JUMPDEST PUSH1 0x0 DUP2 PUSH1 0x0 ADD DUP1 SLOAD SWAP1 POP SWAP1 POP SWAP2 SWAP1 POP JUMP JUMPDEST PUSH1 0x60 PUSH2 0x3992 DUP5 DUP5 PUSH1 0x0 DUP6 PUSH2 0x3B1F JUMP JUMPDEST SWAP1 POP SWAP4 SWAP3 POP POP POP JUMP JUMPDEST PUSH1 0x0 PUSH2 0x39A7 DUP4 DUP4 PUSH2 0x3C33 JUMP JUMPDEST PUSH2 0x3A00 JUMPI DUP3 PUSH1 0x0 ADD DUP3 SWAP1 DUP1 PUSH1 0x1 DUP2 SLOAD ADD DUP1 DUP3 SSTORE DUP1 SWAP2 POP POP PUSH1 0x1 SWAP1 SUB SWAP1 PUSH1 0x0 MSTORE PUSH1 0x20 PUSH1 0x0 KECCAK256 ADD PUSH1 0x0 SWAP1 SWAP2 SWAP1 SWAP2 SWAP1 SWAP2 POP SSTORE DUP3 PUSH1 0x0 ADD DUP1 SLOAD SWAP1 POP DUP4 PUSH1 0x1 ADD PUSH1 0x0 DUP5 DUP2 MSTORE PUSH1 0x20 ADD SWAP1 DUP2 MSTORE PUSH1 0x20 ADD PUSH1 0x0 KECCAK256 DUP2 SWAP1 SSTORE POP PUSH1 0x1 SWAP1 POP PUSH2 0x3A05 JUMP JUMPDEST PUSH1 0x0 SWAP1 POP JUMPDEST SWAP3 SWAP2 POP POP JUMP JUMPDEST PUSH1 0x0 DUP1 DUP4 PUSH1 0x1 ADD PUSH1 0x0 DUP5 DUP2 MSTORE PUSH1 0x20 ADD SWAP1 DUP2 MSTORE PUSH1 0x20 ADD PUSH1 0x0 KECCAK256 SLOAD SWAP1 POP PUSH1 0x0 DUP2 EQ PUSH2 0x3B13 JUMPI PUSH1 0x0 PUSH1 0x1 DUP3 PUSH2 0x3A3D SWAP2 SWAP1 PUSH2 0x4AF4 JUMP JUMPDEST SWAP1 POP PUSH1 0x0 PUSH1 0x1 DUP7 PUSH1 0x0 ADD DUP1 SLOAD SWAP1 POP PUSH2 0x3A55 SWAP2 SWAP1 PUSH2 0x4AF4 JUMP JUMPDEST SWAP1 POP DUP2 DUP2 EQ PUSH2 0x3AC4 JUMPI PUSH1 0x0 DUP7 PUSH1 0x0 ADD DUP3 DUP2 SLOAD DUP2 LT PUSH2 0x3A76 JUMPI PUSH2 0x3A75 PUSH2 0x4D43 JUMP JUMPDEST JUMPDEST SWAP1 PUSH1 0x0 MSTORE PUSH1 0x20 PUSH1 0x0 KECCAK256 ADD SLOAD SWAP1 POP DUP1 DUP8 PUSH1 0x0 ADD DUP5 DUP2 SLOAD DUP2 LT PUSH2 0x3A9A JUMPI PUSH2 0x3A99 PUSH2 0x4D43 JUMP JUMPDEST JUMPDEST SWAP1 PUSH1 0x0 MSTORE PUSH1 0x20 PUSH1 0x0 KECCAK256 ADD DUP2 SWAP1 SSTORE POP DUP4 DUP8 PUSH1 0x1 ADD PUSH1 0x0 DUP4 DUP2 MSTORE PUSH1 0x20 ADD SWAP1 DUP2 MSTORE PUSH1 0x20 ADD PUSH1 0x0 KECCAK256 DUP2 SWAP1 SSTORE POP POP JUMPDEST DUP6 PUSH1 0x0 ADD DUP1 SLOAD DUP1 PUSH2 0x3AD8 JUMPI PUSH2 0x3AD7 PUSH2 0x4D14 JUMP JUMPDEST JUMPDEST PUSH1 0x1 SWAP1 SUB DUP2 DUP2 SWAP1 PUSH1 0x0 MSTORE PUSH1 0x20 PUSH1 0x0 KECCAK256 ADD PUSH1 0x0 SWAP1 SSTORE SWAP1 SSTORE DUP6 PUSH1 0x1 ADD PUSH1 0x0 DUP7 DUP2 MSTORE PUSH1 0x20 ADD SWAP1 DUP2 MSTORE PUSH1 0x20 ADD PUSH1 0x0 KECCAK256 PUSH1 0x0 SWAP1 SSTORE PUSH1 0x1 SWAP4 POP POP POP POP PUSH2 0x3B19 JUMP JUMPDEST PUSH1 0x0 SWAP2 POP POP JUMPDEST SWAP3 SWAP2 POP POP JUMP JUMPDEST PUSH1 0x60 DUP3 SELFBALANCE LT ISZERO PUSH2 0x3B64 JUMPI PUSH1 0x40 MLOAD PUSH32 0x8C379A000000000000000000000000000000000000000000000000000000000 DUP2 MSTORE PUSH1 0x4 ADD PUSH2 0x3B5B SWAP1 PUSH2 0x4725 JUMP JUMPDEST PUSH1 0x40 MLOAD DUP1 SWAP2 SUB SWAP1 REVERT JUMPDEST PUSH2 0x3B6D DUP6 PUSH2 0x3C56 JUMP JUMPDEST PUSH2 0x3BAC JUMPI PUSH1 0x40 MLOAD PUSH32 0x8C379A000000000000000000000000000000000000000000000000000000000 DUP2 MSTORE PUSH1 0x4 ADD PUSH2 0x3BA3 SWAP1 PUSH2 0x4865 JUMP JUMPDEST PUSH1 0x40 MLOAD DUP1 SWAP2 SUB SWAP1 REVERT JUMPDEST PUSH1 0x0 DUP1 DUP7 PUSH20 0xFFFFFFFFFFFFFFFFFFFFFFFFFFFFFFFFFFFFFFFF AND DUP6 DUP8 PUSH1 0x40 MLOAD PUSH2 0x3BD5 SWAP2 SWAP1 PUSH2 0x452A JUMP JUMPDEST PUSH1 0x0 PUSH1 0x40 MLOAD DUP1 DUP4 SUB DUP2 DUP6 DUP8 GAS CALL SWAP3 POP POP POP RETURNDATASIZE DUP1 PUSH1 0x0 DUP2 EQ PUSH2 0x3C12 JUMPI PUSH1 0x40 MLOAD SWAP2 POP PUSH1 0x1F NOT PUSH1 0x3F RETURNDATASIZE ADD AND DUP3 ADD PUSH1 0x40 MSTORE RETURNDATASIZE DUP3 MSTORE RETURNDATASIZE PUSH1 0x0 PUSH1 0x20 DUP5 ADD RETURNDATACOPY PUSH2 0x3C17 JUMP JUMPDEST PUSH1 0x60 SWAP2 POP JUMPDEST POP SWAP2 POP SWAP2 POP PUSH2 0x3C27 DUP3 DUP3 DUP7 PUSH2 0x3C69 JUMP JUMPDEST SWAP3 POP POP POP SWAP5 SWAP4 POP POP POP POP JUMP JUMPDEST PUSH1 0x0 DUP1 DUP4 PUSH1 0x1 ADD PUSH1 0x0 DUP5 DUP2 MSTORE PUSH1 0x20 ADD SWAP1 DUP2 MSTORE PUSH1 0x20 ADD PUSH1 0x0 KECCAK256 SLOAD EQ ISZERO SWAP1 POP SWAP3 SWAP2 POP POP JUMP JUMPDEST PUSH1 0x0 DUP1 DUP3 EXTCODESIZE SWAP1 POP PUSH1 0x0 DUP2 GT SWAP2 POP POP SWAP2 SWAP1 POP JUMP JUMPDEST PUSH1 0x60 DUP4 ISZERO PUSH2 0x3C79 JUMPI DUP3 SWAP1 POP PUSH2 0x3CC9 JUMP JUMPDEST PUSH1 0x0 DUP4 MLOAD GT ISZERO PUSH2 0x3C8C JUMPI DUP3 MLOAD DUP1 DUP5 PUSH1 0x20 ADD REVERT JUMPDEST DUP2 PUSH1 0x40 MLOAD PUSH32 0x8C379A000000000000000000000000000000000000000000000000000000000 DUP2 MSTORE PUSH1 0x4 ADD PUSH2 0x3CC0 SWAP2 SWAP1 PUSH2 0x4663 JUMP JUMPDEST PUSH1 0x40 MLOAD DUP1 SWAP2 SUB SWAP1 REVERT JUMPDEST SWAP4 SWAP3 POP POP POP JUMP JUMPDEST DUP3 DUP1 SLOAD PUSH2 0x3CDC SWAP1 PUSH2 0x4C24 JUMP JUMPDEST SWAP1 PUSH1 0x0 MSTORE PUSH1 0x20 PUSH1 0x0 KECCAK256 SWAP1 PUSH1 0x1F ADD PUSH1 0x20 SWAP1 DIV DUP2 ADD SWAP3 DUP3 PUSH2 0x3CFE JUMPI PUSH1 0x0 DUP6 SSTORE PUSH2 0x3D45 JUMP JUMPDEST DUP3 PUSH1 0x1F LT PUSH2 0x3D17 JUMPI DUP1 MLOAD PUSH1 0xFF NOT AND DUP4 DUP1 ADD OR DUP6 SSTORE PUSH2 0x3D45 JUMP JUMPDEST DUP3 DUP1 ADD PUSH1 0x1 ADD DUP6 SSTORE DUP3 ISZERO PUSH2 0x3D45 JUMPI SWAP2 DUP3 ADD JUMPDEST DUP3 DUP2 GT ISZERO PUSH2 0x3D44 JUMPI DUP3 MLOAD DUP3 SSTORE SWAP2 PUSH1 0x20 ADD SWAP2 SWAP1 PUSH1 0x1 ADD SWAP1 PUSH2 0x3D29 JUMP JUMPDEST JUMPDEST POP SWAP1 POP PUSH2 0x3D52 SWAP2 SWAP1 PUSH2 0x3D56 JUMP JUMPDEST POP SWAP1 JUMP JUMPDEST JUMPDEST DUP1 DUP3 GT ISZERO PUSH2 0x3D6F JUMPI PUSH1 0x0 DUP2 PUSH1 0x0 SWAP1 SSTORE POP PUSH1 0x1 ADD PUSH2 0x3D57 JUMP JUMPDEST POP SWAP1 JUMP JUMPDEST PUSH1 0x0 PUSH2 0x3D86 PUSH2 0x3D81 DUP5 PUSH2 0x49A5 JUMP JUMPDEST PUSH2 0x4980 JUMP JUMPDEST SWAP1 POP DUP3 DUP2 MSTORE PUSH1 0x20 DUP2 ADD DUP5 DUP5 DUP5 ADD GT ISZERO PUSH2 0x3DA2 JUMPI PUSH2 0x3DA1 PUSH2 0x4DA6 JUMP JUMPDEST JUMPDEST PUSH2 0x3DAD DUP5 DUP3 DUP6 PUSH2 0x4BB8 JUMP JUMPDEST POP SWAP4 SWAP3 POP POP POP JUMP JUMPDEST PUSH1 0x0 DUP2 CALLDATALOAD SWAP1 POP PUSH2 0x3DC4 DUP2 PUSH2 0x520A JUMP JUMPDEST SWAP3 SWAP2 POP POP JUMP JUMPDEST PUSH1 0x0 DUP2 CALLDATALOAD SWAP1 POP PUSH2 0x3DD9 DUP2 PUSH2 0x5221 JUMP JUMPDEST SWAP3 SWAP2 POP POP JUMP JUMPDEST PUSH1 0x0 DUP2 MLOAD SWAP1 POP PUSH2 0x3DEE DUP2 PUSH2 0x5238 JUMP JUMPDEST SWAP3 SWAP2 POP POP JUMP JUMPDEST PUSH1 0x0 DUP2 CALLDATALOAD SWAP1 POP PUSH2 0x3E03 DUP2 PUSH2 0x524F JUMP JUMPDEST SWAP3 SWAP2 POP POP JUMP JUMPDEST PUSH1 0x0 DUP2 CALLDATALOAD SWAP1 POP PUSH2 0x3E18 DUP2 PUSH2 0x5266 JUMP JUMPDEST SWAP3 SWAP2 POP POP JUMP JUMPDEST PUSH1 0x0 DUP3 PUSH1 0x1F DUP4 ADD SLT PUSH2 0x3E33 JUMPI PUSH2 0x3E32 PUSH2 0x4DA1 JUMP JUMPDEST JUMPDEST DUP2 CALLDATALOAD PUSH2 0x3E43 DUP5 DUP3 PUSH1 0x20 DUP7 ADD PUSH2 0x3D73 JUMP JUMPDEST SWAP2 POP POP SWAP3 SWAP2 POP POP JUMP JUMPDEST PUSH1 0x0 DUP2 CALLDATALOAD SWAP1 POP PUSH2 0x3E5B DUP2 PUSH2 0x527D JUMP JUMPDEST SWAP3 SWAP2 POP POP JUMP JUMPDEST PUSH1 0x0 DUP2 MLOAD SWAP1 POP PUSH2 0x3E70 DUP2 PUSH2 0x527D JUMP JUMPDEST SWAP3 SWAP2 POP POP JUMP JUMPDEST PUSH1 0x0 PUSH1 0x20 DUP3 DUP5 SUB SLT ISZERO PUSH2 0x3E8C JUMPI PUSH2 0x3E8B PUSH2 0x4DB0 JUMP JUMPDEST JUMPDEST PUSH1 0x0 PUSH2 0x3E9A DUP5 DUP3 DUP6 ADD PUSH2 0x3DB5 JUMP JUMPDEST SWAP2 POP POP SWAP3 SWAP2 POP POP JUMP JUMPDEST PUSH1 0x0 DUP1 PUSH1 0x0 DUP1 PUSH1 0x0 DUP1 PUSH1 0x0 DUP1 PUSH1 0x0 PUSH2 0x120 DUP11 DUP13 SUB SLT ISZERO PUSH2 0x3EC6 JUMPI PUSH2 0x3EC5 PUSH2 0x4DB0 JUMP JUMPDEST JUMPDEST PUSH1 0x0 PUSH2 0x3ED4 DUP13 DUP3 DUP14 ADD PUSH2 0x3DB5 JUMP JUMPDEST SWAP10 POP POP PUSH1 0x20 DUP11 ADD CALLDATALOAD PUSH8 0xFFFFFFFFFFFFFFFF DUP2 GT ISZERO PUSH2 0x3EF5 JUMPI PUSH2 0x3EF4 PUSH2 0x4DAB JUMP JUMPDEST JUMPDEST PUSH2 0x3F01 DUP13 DUP3 DUP14 ADD PUSH2 0x3E1E JUMP JUMPDEST SWAP9 POP POP PUSH1 0x40 PUSH2 0x3F12 DUP13 DUP3 DUP14 ADD PUSH2 0x3E4C JUMP JUMPDEST SWAP8 POP POP PUSH1 0x60 PUSH2 0x3F23 DUP13 DUP3 DUP14 ADD PUSH2 0x3E4C JUMP JUMPDEST SWAP7 POP POP PUSH1 0x80 PUSH2 0x3F34 DUP13 DUP3 DUP14 ADD PUSH2 0x3E4C JUMP JUMPDEST SWAP6 POP POP PUSH1 0xA0 PUSH2 0x3F45 DUP13 DUP3 DUP14 ADD PUSH2 0x3E4C JUMP JUMPDEST SWAP5 POP POP PUSH1 0xC0 PUSH2 0x3F56 DUP13 DUP3 DUP14 ADD PUSH2 0x3E4C JUMP JUMPDEST SWAP4 POP POP PUSH1 0xE0 PUSH2 0x3F67 DUP13 DUP3 DUP14 ADD PUSH2 0x3DB5 JUMP JUMPDEST SWAP3 POP POP PUSH2 0x100 PUSH2 0x3F79 DUP13 DUP3 DUP14 ADD PUSH2 0x3DCA JUMP JUMPDEST SWAP2 POP POP SWAP3 SWAP6 SWAP9 POP SWAP3 SWAP6 SWAP9 POP SWAP3 SWAP6 SWAP9 JUMP JUMPDEST PUSH1 0x0 DUP1 PUSH1 0x0 DUP1 PUSH1 0x80 DUP6 DUP8 SUB SLT ISZERO PUSH2 0x3FA3 JUMPI PUSH2 0x3FA2 PUSH2 0x4DB0 JUMP JUMPDEST JUMPDEST PUSH1 0x0 PUSH2 0x3FB1 DUP8 DUP3 DUP9 ADD PUSH2 0x3DB5 JUMP JUMPDEST SWAP5 POP POP PUSH1 0x20 PUSH2 0x3FC2 DUP8 DUP3 DUP9 ADD PUSH2 0x3E4C JUMP JUMPDEST SWAP4 POP POP PUSH1 0x40 PUSH2 0x3FD3 DUP8 DUP3 DUP9 ADD PUSH2 0x3E4C JUMP JUMPDEST SWAP3 POP POP PUSH1 0x60 PUSH2 0x3FE4 DUP8 DUP3 DUP9 ADD PUSH2 0x3E4C JUMP JUMPDEST SWAP2 POP POP SWAP3 SWAP6 SWAP2 SWAP5 POP SWAP3 POP JUMP JUMPDEST PUSH1 0x0 PUSH1 0x20 DUP3 DUP5 SUB SLT ISZERO PUSH2 0x4006 JUMPI PUSH2 0x4005 PUSH2 0x4DB0 JUMP JUMPDEST JUMPDEST PUSH1 0x0 PUSH2 0x4014 DUP5 DUP3 DUP6 ADD PUSH2 0x3DDF JUMP JUMPDEST SWAP2 POP POP SWAP3 SWAP2 POP POP JUMP JUMPDEST PUSH1 0x0 PUSH1 0x20 DUP3 DUP5 SUB SLT ISZERO PUSH2 0x4033 JUMPI PUSH2 0x4032 PUSH2 0x4DB0 JUMP JUMPDEST JUMPDEST PUSH1 0x0 PUSH2 0x4041 DUP5 DUP3 DUP6 ADD PUSH2 0x3DF4 JUMP JUMPDEST SWAP2 POP POP SWAP3 SWAP2 POP POP JUMP JUMPDEST PUSH1 0x0 DUP1 PUSH1 0x40 DUP4 DUP6 SUB SLT ISZERO PUSH2 0x4061 JUMPI PUSH2 0x4060 PUSH2 0x4DB0 JUMP JUMPDEST JUMPDEST PUSH1 0x0 PUSH2 0x406F DUP6 DUP3 DUP7 ADD PUSH2 0x3DF4 JUMP JUMPDEST SWAP3 POP POP PUSH1 0x20 PUSH2 0x4080 DUP6 DUP3 DUP7 ADD PUSH2 0x3DB5 JUMP JUMPDEST SWAP2 POP POP SWAP3 POP SWAP3 SWAP1 POP JUMP JUMPDEST PUSH1 0x0 DUP1 PUSH1 0x40 DUP4 DUP6 SUB SLT ISZERO PUSH2 0x40A1 JUMPI PUSH2 0x40A0 PUSH2 0x4DB0 JUMP JUMPDEST JUMPDEST PUSH1 0x0 PUSH2 0x40AF DUP6 DUP3 DUP7 ADD PUSH2 0x3DF4 JUMP JUMPDEST SWAP3 POP POP PUSH1 0x20 PUSH2 0x40C0 DUP6 DUP3 DUP7 ADD PUSH2 0x3E4C JUMP JUMPDEST SWAP2 POP POP SWAP3 POP SWAP3 SWAP1 POP JUMP JUMPDEST PUSH1 0x0 PUSH1 0x20 DUP3 DUP5 SUB SLT ISZERO PUSH2 0x40E0 JUMPI PUSH2 0x40DF PUSH2 0x4DB0 JUMP JUMPDEST JUMPDEST PUSH1 0x0 PUSH2 0x40EE DUP5 DUP3 DUP6 ADD PUSH2 0x3E09 JUMP JUMPDEST SWAP2 POP POP SWAP3 SWAP2 POP POP JUMP JUMPDEST PUSH1 0x0 PUSH1 0x20 DUP3 DUP5 SUB SLT ISZERO PUSH2 0x410D JUMPI PUSH2 0x410C PUSH2 0x4DB0 JUMP JUMPDEST JUMPDEST PUSH1 0x0 PUSH2 0x411B DUP5 DUP3 DUP6 ADD PUSH2 0x3E4C JUMP JUMPDEST SWAP2 POP POP SWAP3 SWAP2 POP POP JUMP JUMPDEST PUSH1 0x0 PUSH1 0x20 DUP3 DUP5 SUB SLT ISZERO PUSH2 0x413A JUMPI PUSH2 0x4139 PUSH2 0x4DB0 JUMP JUMPDEST JUMPDEST PUSH1 0x0 PUSH2 0x4148 DUP5 DUP3 DUP6 ADD PUSH2 0x3E61 JUMP JUMPDEST SWAP2 POP POP SWAP3 SWAP2 POP POP JUMP JUMPDEST PUSH2 0x415A DUP2 PUSH2 0x4B28 JUMP JUMPDEST DUP3 MSTORE POP POP JUMP JUMPDEST PUSH2 0x4169 DUP2 PUSH2 0x4B4C JUMP JUMPDEST DUP3 MSTORE POP POP JUMP JUMPDEST PUSH2 0x4178 DUP2 PUSH2 0x4B58 JUMP JUMPDEST DUP3 MSTORE POP POP JUMP JUMPDEST PUSH1 0x0 PUSH2 0x4189 DUP3 PUSH2 0x49D6 JUMP JUMPDEST PUSH2 0x4193 DUP2 DUP6 PUSH2 0x49EC JUMP JUMPDEST SWAP4 POP PUSH2 0x41A3 DUP2 DUP6 PUSH1 0x20 DUP7 ADD PUSH2 0x4BC7 JUMP JUMPDEST DUP1 DUP5 ADD SWAP2 POP POP SWAP3 SWAP2 POP POP JUMP JUMPDEST PUSH1 0x0 PUSH2 0x41BA DUP3 PUSH2 0x49E1 JUMP JUMPDEST PUSH2 0x41C4 DUP2 DUP6 PUSH2 0x49F7 JUMP JUMPDEST SWAP4 POP PUSH2 0x41D4 DUP2 DUP6 PUSH1 0x20 DUP7 ADD PUSH2 0x4BC7 JUMP JUMPDEST PUSH2 0x41DD DUP2 PUSH2 0x4DB5 JUMP JUMPDEST DUP5 ADD SWAP2 POP POP SWAP3 SWAP2 POP POP JUMP JUMPDEST PUSH1 0x0 PUSH2 0x41F3 DUP3 PUSH2 0x49E1 JUMP JUMPDEST PUSH2 0x41FD DUP2 DUP6 PUSH2 0x4A08 JUMP JUMPDEST SWAP4 POP PUSH2 0x420D DUP2 DUP6 PUSH1 0x20 DUP7 ADD PUSH2 0x4BC7 JUMP JUMPDEST DUP1 DUP5 ADD SWAP2 POP POP SWAP3 SWAP2 POP POP JUMP JUMPDEST PUSH1 0x0 PUSH2 0x4226 PUSH1 0x20 DUP4 PUSH2 0x49F7 JUMP JUMPDEST SWAP2 POP PUSH2 0x4231 DUP3 PUSH2 0x4DC6 JUMP JUMPDEST PUSH1 0x20 DUP3 ADD SWAP1 POP SWAP2 SWAP1 POP JUMP JUMPDEST PUSH1 0x0 PUSH2 0x4249 PUSH1 0x13 DUP4 PUSH2 0x49F7 JUMP JUMPDEST SWAP2 POP PUSH2 0x4254 DUP3 PUSH2 0x4DEF JUMP JUMPDEST PUSH1 0x20 DUP3 ADD SWAP1 POP SWAP2 SWAP1 POP JUMP JUMPDEST PUSH1 0x0 PUSH2 0x426C PUSH1 0x1B DUP4 PUSH2 0x49F7 JUMP JUMPDEST SWAP2 POP PUSH2 0x4277 DUP3 PUSH2 0x4E18 JUMP JUMPDEST PUSH1 0x20 DUP3 ADD SWAP1 POP SWAP2 SWAP1 POP JUMP JUMPDEST PUSH1 0x0 PUSH2 0x428F PUSH1 0x13 DUP4 PUSH2 0x49F7 JUMP JUMPDEST SWAP2 POP PUSH2 0x429A DUP3 PUSH2 0x4E41 JUMP JUMPDEST PUSH1 0x20 DUP3 ADD SWAP1 POP SWAP2 SWAP1 POP JUMP JUMPDEST PUSH1 0x0 PUSH2 0x42B2 PUSH1 0x20 DUP4 PUSH2 0x49F7 JUMP JUMPDEST SWAP2 POP PUSH2 0x42BD DUP3 PUSH2 0x4E6A JUMP JUMPDEST PUSH1 0x20 DUP3 ADD SWAP1 POP SWAP2 SWAP1 POP JUMP JUMPDEST PUSH1 0x0 PUSH2 0x42D5 PUSH1 0x26 DUP4 PUSH2 0x49F7 JUMP JUMPDEST SWAP2 POP PUSH2 0x42E0 DUP3 PUSH2 0x4E93 JUMP JUMPDEST PUSH1 0x40 DUP3 ADD SWAP1 POP SWAP2 SWAP1 POP JUMP JUMPDEST PUSH1 0x0 PUSH2 0x42F8 PUSH1 0x11 DUP4 PUSH2 0x49F7 JUMP JUMPDEST SWAP2 POP PUSH2 0x4303 DUP3 PUSH2 0x4EE2 JUMP JUMPDEST PUSH1 0x20 DUP3 ADD SWAP1 POP SWAP2 SWAP1 POP JUMP JUMPDEST PUSH1 0x0 PUSH2 0x431B PUSH1 0x1D DUP4 PUSH2 0x49F7 JUMP JUMPDEST SWAP2 POP PUSH2 0x4326 DUP3 PUSH2 0x4F0B JUMP JUMPDEST PUSH1 0x20 DUP3 ADD SWAP1 POP SWAP2 SWAP1 POP JUMP JUMPDEST PUSH1 0x0 PUSH2 0x433E PUSH1 0x21 DUP4 PUSH2 0x49F7 JUMP JUMPDEST SWAP2 POP PUSH2 0x4349 DUP3 PUSH2 0x4F34 JUMP JUMPDEST PUSH1 0x40 DUP3 ADD SWAP1 POP SWAP2 SWAP1 POP JUMP JUMPDEST PUSH1 0x0 PUSH2 0x4361 PUSH1 0x1F DUP4 PUSH2 0x49F7 JUMP JUMPDEST SWAP2 POP PUSH2 0x436C DUP3 PUSH2 0x4F83 JUMP JUMPDEST PUSH1 0x20 DUP3 ADD SWAP1 POP SWAP2 SWAP1 POP JUMP JUMPDEST PUSH1 0x0 PUSH2 0x4384 PUSH1 0x15 DUP4 PUSH2 0x49F7 JUMP JUMPDEST SWAP2 POP PUSH2 0x438F DUP3 PUSH2 0x4FAC JUMP JUMPDEST PUSH1 0x20 DUP3 ADD SWAP1 POP SWAP2 SWAP1 POP JUMP JUMPDEST PUSH1 0x0 PUSH2 0x43A7 PUSH1 0x19 DUP4 PUSH2 0x49F7 JUMP JUMPDEST SWAP2 POP PUSH2 0x43B2 DUP3 PUSH2 0x4FD5 JUMP JUMPDEST PUSH1 0x20 DUP3 ADD SWAP1 POP SWAP2 SWAP1 POP JUMP JUMPDEST PUSH1 0x0 PUSH2 0x43CA PUSH1 0x15 DUP4 PUSH2 0x49F7 JUMP JUMPDEST SWAP2 POP PUSH2 0x43D5 DUP3 PUSH2 0x4FFE JUMP JUMPDEST PUSH1 0x20 DUP3 ADD SWAP1 POP SWAP2 SWAP1 POP JUMP JUMPDEST PUSH1 0x0 PUSH2 0x43ED PUSH1 0x2E DUP4 PUSH2 0x49F7 JUMP JUMPDEST SWAP2 POP PUSH2 0x43F8 DUP3 PUSH2 0x5027 JUMP JUMPDEST PUSH1 0x40 DUP3 ADD SWAP1 POP SWAP2 SWAP1 POP JUMP JUMPDEST PUSH1 0x0 PUSH2 0x4410 PUSH1 0x1F DUP4 PUSH2 0x49F7 JUMP JUMPDEST SWAP2 POP PUSH2 0x441B DUP3 PUSH2 0x5076 JUMP JUMPDEST PUSH1 0x20 DUP3 ADD SWAP1 POP SWAP2 SWAP1 POP JUMP JUMPDEST PUSH1 0x0 PUSH2 0x4433 PUSH1 0x1D DUP4 PUSH2 0x49F7 JUMP JUMPDEST SWAP2 POP PUSH2 0x443E DUP3 PUSH2 0x509F JUMP JUMPDEST PUSH1 0x20 DUP3 ADD SWAP1 POP SWAP2 SWAP1 POP JUMP JUMPDEST PUSH1 0x0 PUSH2 0x4456 PUSH1 0x1A DUP4 PUSH2 0x49F7 JUMP JUMPDEST SWAP2 POP PUSH2 0x4461 DUP3 PUSH2 0x50C8 JUMP JUMPDEST PUSH1 0x20 DUP3 ADD SWAP1 POP SWAP2 SWAP1 POP JUMP JUMPDEST PUSH1 0x0 PUSH2 0x4479 PUSH1 0x17 DUP4 PUSH2 0x4A08 JUMP JUMPDEST SWAP2 POP PUSH2 0x4484 DUP3 PUSH2 0x50F1 JUMP JUMPDEST PUSH1 0x17 DUP3 ADD SWAP1 POP SWAP2 SWAP1 POP JUMP JUMPDEST PUSH1 0x0 PUSH2 0x449C PUSH1 0x2A DUP4 PUSH2 0x49F7 JUMP JUMPDEST SWAP2 POP PUSH2 0x44A7 DUP3 PUSH2 0x511A JUMP JUMPDEST PUSH1 0x40 DUP3 ADD SWAP1 POP SWAP2 SWAP1 POP JUMP JUMPDEST PUSH1 0x0 PUSH2 0x44BF PUSH1 0x8 DUP4 PUSH2 0x49F7 JUMP JUMPDEST SWAP2 POP PUSH2 0x44CA DUP3 PUSH2 0x5169 JUMP JUMPDEST PUSH1 0x20 DUP3 ADD SWAP1 POP SWAP2 SWAP1 POP JUMP JUMPDEST PUSH1 0x0 PUSH2 0x44E2 PUSH1 0x11 DUP4 PUSH2 0x4A08 JUMP JUMPDEST SWAP2 POP PUSH2 0x44ED DUP3 PUSH2 0x5192 JUMP JUMPDEST PUSH1 0x11 DUP3 ADD SWAP1 POP SWAP2 SWAP1 POP JUMP JUMPDEST PUSH1 0x0 PUSH2 0x4505 PUSH1 0x2F DUP4 PUSH2 0x49F7 JUMP JUMPDEST SWAP2 POP PUSH2 0x4510 DUP3 PUSH2 0x51BB JUMP JUMPDEST PUSH1 0x40 DUP3 ADD SWAP1 POP SWAP2 SWAP1 POP JUMP JUMPDEST PUSH2 0x4524 DUP2 PUSH2 0x4BAE JUMP JUMPDEST DUP3 MSTORE POP POP JUMP JUMPDEST PUSH1 0x0 PUSH2 0x4536 DUP3 DUP5 PUSH2 0x417E JUMP JUMPDEST SWAP2 POP DUP2 SWAP1 POP SWAP3 SWAP2 POP POP JUMP JUMPDEST PUSH1 0x0 PUSH2 0x454C DUP3 PUSH2 0x446C JUMP JUMPDEST SWAP2 POP PUSH2 0x4558 DUP3 DUP6 PUSH2 0x41E8 JUMP JUMPDEST SWAP2 POP PUSH2 0x4563 DUP3 PUSH2 0x44D5 JUMP JUMPDEST SWAP2 POP PUSH2 0x456F DUP3 DUP5 PUSH2 0x41E8 JUMP JUMPDEST SWAP2 POP DUP2 SWAP1 POP SWAP4 SWAP3 POP POP POP JUMP JUMPDEST PUSH1 0x0 PUSH1 0x20 DUP3 ADD SWAP1 POP PUSH2 0x4590 PUSH1 0x0 DUP4 ADD DUP5 PUSH2 0x4151 JUMP JUMPDEST SWAP3 SWAP2 POP POP JUMP JUMPDEST PUSH1 0x0 PUSH1 0x60 DUP3 ADD SWAP1 POP PUSH2 0x45AB PUSH1 0x0 DUP4 ADD DUP7 PUSH2 0x4151 JUMP JUMPDEST PUSH2 0x45B8 PUSH1 0x20 DUP4 ADD DUP6 PUSH2 0x4151 JUMP JUMPDEST PUSH2 0x45C5 PUSH1 0x40 DUP4 ADD DUP5 PUSH2 0x451B JUMP JUMPDEST SWAP5 SWAP4 POP POP POP POP JUMP JUMPDEST PUSH1 0x0 PUSH1 0x40 DUP3 ADD SWAP1 POP PUSH2 0x45E2 PUSH1 0x0 DUP4 ADD DUP6 PUSH2 0x4151 JUMP JUMPDEST PUSH2 0x45EF PUSH1 0x20 DUP4 ADD DUP5 PUSH2 0x451B JUMP JUMPDEST SWAP4 SWAP3 POP POP POP JUMP JUMPDEST PUSH1 0x0 PUSH1 0x20 DUP3 ADD SWAP1 POP PUSH2 0x460B PUSH1 0x0 DUP4 ADD DUP5 PUSH2 0x4160 JUMP JUMPDEST SWAP3 SWAP2 POP POP JUMP JUMPDEST PUSH1 0x0 PUSH1 0x60 DUP3 ADD SWAP1 POP PUSH2 0x4626 PUSH1 0x0 DUP4 ADD DUP7 PUSH2 0x4160 JUMP JUMPDEST PUSH2 0x4633 PUSH1 0x20 DUP4 ADD DUP6 PUSH2 0x451B JUMP JUMPDEST PUSH2 0x4640 PUSH1 0x40 DUP4 ADD DUP5 PUSH2 0x451B JUMP JUMPDEST SWAP5 SWAP4 POP POP POP POP JUMP JUMPDEST PUSH1 0x0 PUSH1 0x20 DUP3 ADD SWAP1 POP PUSH2 0x465D PUSH1 0x0 DUP4 ADD DUP5 PUSH2 0x416F JUMP JUMPDEST SWAP3 SWAP2 POP POP JUMP JUMPDEST PUSH1 0x0 PUSH1 0x20 DUP3 ADD SWAP1 POP DUP2 DUP2 SUB PUSH1 0x0 DUP4 ADD MSTORE PUSH2 0x467D DUP2 DUP5 PUSH2 0x41AF JUMP JUMPDEST SWAP1 POP SWAP3 SWAP2 POP POP JUMP JUMPDEST PUSH1 0x0 PUSH1 0x20 DUP3 ADD SWAP1 POP DUP2 DUP2 SUB PUSH1 0x0 DUP4 ADD MSTORE PUSH2 0x469E DUP2 PUSH2 0x4219 JUMP JUMPDEST SWAP1 POP SWAP2 SWAP1 POP JUMP JUMPDEST PUSH1 0x0 PUSH1 0x20 DUP3 ADD SWAP1 POP DUP2 DUP2 SUB PUSH1 0x0 DUP4 ADD MSTORE PUSH2 0x46BE DUP2 PUSH2 0x423C JUMP JUMPDEST SWAP1 POP SWAP2 SWAP1 POP JUMP JUMPDEST PUSH1 0x0 PUSH1 0x20 DUP3 ADD SWAP1 POP DUP2 DUP2 SUB PUSH1 0x0 DUP4 ADD MSTORE PUSH2 0x46DE DUP2 PUSH2 0x425F JUMP JUMPDEST SWAP1 POP SWAP2 SWAP1 POP JUMP JUMPDEST PUSH1 0x0 PUSH1 0x20 DUP3 ADD SWAP1 POP DUP2 DUP2 SUB PUSH1 0x0 DUP4 ADD MSTORE PUSH2 0x46FE DUP2 PUSH2 0x4282 JUMP JUMPDEST SWAP1 POP SWAP2 SWAP1 POP JUMP JUMPDEST PUSH1 0x0 PUSH1 0x20 DUP3 ADD SWAP1 POP DUP2 DUP2 SUB PUSH1 0x0 DUP4 ADD MSTORE PUSH2 0x471E DUP2 PUSH2 0x42A5 JUMP JUMPDEST SWAP1 POP SWAP2 SWAP1 POP JUMP JUMPDEST PUSH1 0x0 PUSH1 0x20 DUP3 ADD SWAP1 POP DUP2 DUP2 SUB PUSH1 0x0 DUP4 ADD MSTORE PUSH2 0x473E DUP2 PUSH2 0x42C8 JUMP JUMPDEST SWAP1 POP SWAP2 SWAP1 POP JUMP JUMPDEST PUSH1 0x0 PUSH1 0x20 DUP3 ADD SWAP1 POP DUP2 DUP2 SUB PUSH1 0x0 DUP4 ADD MSTORE PUSH2 0x475E DUP2 PUSH2 0x42EB JUMP JUMPDEST SWAP1 POP SWAP2 SWAP1 POP JUMP JUMPDEST PUSH1 0x0 PUSH1 0x20 DUP3 ADD SWAP1 POP DUP2 DUP2 SUB PUSH1 0x0 DUP4 ADD MSTORE PUSH2 0x477E DUP2 PUSH2 0x430E JUMP JUMPDEST SWAP1 POP SWAP2 SWAP1 POP JUMP JUMPDEST PUSH1 0x0 PUSH1 0x20 DUP3 ADD SWAP1 POP DUP2 DUP2 SUB PUSH1 0x0 DUP4 ADD MSTORE PUSH2 0x479E DUP2 PUSH2 0x4331 JUMP JUMPDEST SWAP1 POP SWAP2 SWAP1 POP JUMP JUMPDEST PUSH1 0x0 PUSH1 0x20 DUP3 ADD SWAP1 POP DUP2 DUP2 SUB PUSH1 0x0 DUP4 ADD MSTORE PUSH2 0x47BE DUP2 PUSH2 0x4354 JUMP JUMPDEST SWAP1 POP SWAP2 SWAP1 POP JUMP JUMPDEST PUSH1 0x0 PUSH1 0x20 DUP3 ADD SWAP1 POP DUP2 DUP2 SUB PUSH1 0x0 DUP4 ADD MSTORE PUSH2 0x47DE DUP2 PUSH2 0x4377 JUMP JUMPDEST SWAP1 POP SWAP2 SWAP1 POP JUMP JUMPDEST PUSH1 0x0 PUSH1 0x20 DUP3 ADD SWAP1 POP DUP2 DUP2 SUB PUSH1 0x0 DUP4 ADD MSTORE PUSH2 0x47FE DUP2 PUSH2 0x439A JUMP JUMPDEST SWAP1 POP SWAP2 SWAP1 POP JUMP JUMPDEST PUSH1 0x0 PUSH1 0x20 DUP3 ADD SWAP1 POP DUP2 DUP2 SUB PUSH1 0x0 DUP4 ADD MSTORE PUSH2 0x481E DUP2 PUSH2 0x43BD JUMP JUMPDEST SWAP1 POP SWAP2 SWAP1 POP JUMP JUMPDEST PUSH1 0x0 PUSH1 0x20 DUP3 ADD SWAP1 POP DUP2 DUP2 SUB PUSH1 0x0 DUP4 ADD MSTORE PUSH2 0x483E DUP2 PUSH2 0x43E0 JUMP JUMPDEST SWAP1 POP SWAP2 SWAP1 POP JUMP JUMPDEST PUSH1 0x0 PUSH1 0x20 DUP3 ADD SWAP1 POP DUP2 DUP2 SUB PUSH1 0x0 DUP4 ADD MSTORE PUSH2 0x485E DUP2 PUSH2 0x4403 JUMP JUMPDEST SWAP1 POP SWAP2 SWAP1 POP JUMP JUMPDEST PUSH1 0x0 PUSH1 0x20 DUP3 ADD SWAP1 POP DUP2 DUP2 SUB PUSH1 0x0 DUP4 ADD MSTORE PUSH2 0x487E DUP2 PUSH2 0x4426 JUMP JUMPDEST SWAP1 POP SWAP2 SWAP1 POP JUMP JUMPDEST PUSH1 0x0 PUSH1 0x20 DUP3 ADD SWAP1 POP DUP2 DUP2 SUB PUSH1 0x0 DUP4 ADD MSTORE PUSH2 0x489E DUP2 PUSH2 0x4449 JUMP JUMPDEST SWAP1 POP SWAP2 SWAP1 POP JUMP JUMPDEST PUSH1 0x0 PUSH1 0x20 DUP3 ADD SWAP1 POP DUP2 DUP2 SUB PUSH1 0x0 DUP4 ADD MSTORE PUSH2 0x48BE DUP2 PUSH2 0x448F JUMP JUMPDEST SWAP1 POP SWAP2 SWAP1 POP JUMP JUMPDEST PUSH1 0x0 PUSH1 0x20 DUP3 ADD SWAP1 POP DUP2 DUP2 SUB PUSH1 0x0 DUP4 ADD MSTORE PUSH2 0x48DE DUP2 PUSH2 0x44B2 JUMP JUMPDEST SWAP1 POP SWAP2 SWAP1 POP JUMP JUMPDEST PUSH1 0x0 PUSH1 0x20 DUP3 ADD SWAP1 POP DUP2 DUP2 SUB PUSH1 0x0 DUP4 ADD MSTORE PUSH2 0x48FE DUP2 PUSH2 0x44F8 JUMP JUMPDEST SWAP1 POP SWAP2 SWAP1 POP JUMP JUMPDEST PUSH1 0x0 PUSH1 0x20 DUP3 ADD SWAP1 POP PUSH2 0x491A PUSH1 0x0 DUP4 ADD DUP5 PUSH2 0x451B JUMP JUMPDEST SWAP3 SWAP2 POP POP JUMP JUMPDEST PUSH1 0x0 PUSH1 0x40 DUP3 ADD SWAP1 POP PUSH2 0x4935 PUSH1 0x0 DUP4 ADD DUP6 PUSH2 0x451B JUMP JUMPDEST PUSH2 0x4942 PUSH1 0x20 DUP4 ADD DUP5 PUSH2 0x451B JUMP JUMPDEST SWAP4 SWAP3 POP POP POP JUMP JUMPDEST PUSH1 0x0 PUSH1 0x60 DUP3 ADD SWAP1 POP PUSH2 0x495E PUSH1 0x0 DUP4 ADD DUP7 PUSH2 0x451B JUMP JUMPDEST PUSH2 0x496B PUSH1 0x20 DUP4 ADD DUP6 PUSH2 0x451B JUMP JUMPDEST PUSH2 0x4978 PUSH1 0x40 DUP4 ADD DUP5 PUSH2 0x451B JUMP JUMPDEST SWAP5 SWAP4 POP POP POP POP JUMP JUMPDEST PUSH1 0x0 PUSH2 0x498A PUSH2 0x499B JUMP JUMPDEST SWAP1 POP PUSH2 0x4996 DUP3 DUP3 PUSH2 0x4C56 JUMP JUMPDEST SWAP2 SWAP1 POP JUMP JUMPDEST PUSH1 0x0 PUSH1 0x40 MLOAD SWAP1 POP SWAP1 JUMP JUMPDEST PUSH1 0x0 PUSH8 0xFFFFFFFFFFFFFFFF DUP3 GT ISZERO PUSH2 0x49C0 JUMPI PUSH2 0x49BF PUSH2 0x4D72 JUMP JUMPDEST JUMPDEST PUSH2 0x49C9 DUP3 PUSH2 0x4DB5 JUMP JUMPDEST SWAP1 POP PUSH1 0x20 DUP2 ADD SWAP1 POP SWAP2 SWAP1 POP JUMP JUMPDEST PUSH1 0x0 DUP2 MLOAD SWAP1 POP SWAP2 SWAP1 POP JUMP JUMPDEST PUSH1 0x0 DUP2 MLOAD SWAP1 POP SWAP2 SWAP1 POP JUMP JUMPDEST PUSH1 0x0 DUP2 SWAP1 POP SWAP3 SWAP2 POP POP JUMP JUMPDEST PUSH1 0x0 DUP3 DUP3 MSTORE PUSH1 0x20 DUP3 ADD SWAP1 POP SWAP3 SWAP2 POP POP JUMP JUMPDEST PUSH1 0x0 DUP2 SWAP1 POP SWAP3 SWAP2 POP POP JUMP JUMPDEST PUSH1 0x0 PUSH2 0x4A1E DUP3 PUSH2 0x4BAE JUMP JUMPDEST SWAP2 POP PUSH2 0x4A29 DUP4 PUSH2 0x4BAE JUMP JUMPDEST SWAP3 POP DUP3 PUSH32 0xFFFFFFFFFFFFFFFFFFFFFFFFFFFFFFFFFFFFFFFFFFFFFFFFFFFFFFFFFFFFFFFF SUB DUP3 GT ISZERO PUSH2 0x4A5E JUMPI PUSH2 0x4A5D PUSH2 0x4C87 JUMP JUMPDEST JUMPDEST DUP3 DUP3 ADD SWAP1 POP SWAP3 SWAP2 POP POP JUMP JUMPDEST PUSH1 0x0 PUSH2 0x4A74 DUP3 PUSH2 0x4BAE JUMP JUMPDEST SWAP2 POP PUSH2 0x4A7F DUP4 PUSH2 0x4BAE JUMP JUMPDEST SWAP3 POP DUP3 PUSH2 0x4A8F JUMPI PUSH2 0x4A8E PUSH2 0x4CB6 JUMP JUMPDEST JUMPDEST DUP3 DUP3 DIV SWAP1 POP SWAP3 SWAP2 POP POP JUMP JUMPDEST PUSH1 0x0 PUSH2 0x4AA5 DUP3 PUSH2 0x4BAE JUMP JUMPDEST SWAP2 POP PUSH2 0x4AB0 DUP4 PUSH2 0x4BAE JUMP JUMPDEST SWAP3 POP DUP2 PUSH32 0xFFFFFFFFFFFFFFFFFFFFFFFFFFFFFFFFFFFFFFFFFFFFFFFFFFFFFFFFFFFFFFFF DIV DUP4 GT DUP3 ISZERO ISZERO AND ISZERO PUSH2 0x4AE9 JUMPI PUSH2 0x4AE8 PUSH2 0x4C87 JUMP JUMPDEST JUMPDEST DUP3 DUP3 MUL SWAP1 POP SWAP3 SWAP2 POP POP JUMP JUMPDEST PUSH1 0x0 PUSH2 0x4AFF DUP3 PUSH2 0x4BAE JUMP JUMPDEST SWAP2 POP PUSH2 0x4B0A DUP4 PUSH2 0x4BAE JUMP JUMPDEST SWAP3 POP DUP3 DUP3 LT ISZERO PUSH2 0x4B1D JUMPI PUSH2 0x4B1C PUSH2 0x4C87 JUMP JUMPDEST JUMPDEST DUP3 DUP3 SUB SWAP1 POP SWAP3 SWAP2 POP POP JUMP JUMPDEST PUSH1 0x0 PUSH2 0x4B33 DUP3 PUSH2 0x4B8E JUMP JUMPDEST SWAP1 POP SWAP2 SWAP1 POP JUMP JUMPDEST PUSH1 0x0 PUSH2 0x4B45 DUP3 PUSH2 0x4B8E JUMP JUMPDEST SWAP1 POP SWAP2 SWAP1 POP JUMP JUMPDEST PUSH1 0x0 DUP2 ISZERO ISZERO SWAP1 POP SWAP2 SWAP1 POP JUMP JUMPDEST PUSH1 0x0 DUP2 SWAP1 POP SWAP2 SWAP1 POP JUMP JUMPDEST PUSH1 0x0 PUSH32 0xFFFFFFFF00000000000000000000000000000000000000000000000000000000 DUP3 AND SWAP1 POP SWAP2 SWAP1 POP JUMP JUMPDEST PUSH1 0x0 PUSH20 0xFFFFFFFFFFFFFFFFFFFFFFFFFFFFFFFFFFFFFFFF DUP3 AND SWAP1 POP SWAP2 SWAP1 POP JUMP JUMPDEST PUSH1 0x0 DUP2 SWAP1 POP SWAP2 SWAP1 POP JUMP JUMPDEST DUP3 DUP2 DUP4 CALLDATACOPY PUSH1 0x0 DUP4 DUP4 ADD MSTORE POP POP POP JUMP JUMPDEST PUSH1 0x0 JUMPDEST DUP4 DUP2 LT ISZERO PUSH2 0x4BE5 JUMPI DUP1 DUP3 ADD MLOAD DUP2 DUP5 ADD MSTORE PUSH1 0x20 DUP2 ADD SWAP1 POP PUSH2 0x4BCA JUMP JUMPDEST DUP4 DUP2 GT ISZERO PUSH2 0x4BF4 JUMPI PUSH1 0x0 DUP5 DUP5 ADD MSTORE JUMPDEST POP POP POP POP JUMP JUMPDEST PUSH1 0x0 PUSH2 0x4C05 DUP3 PUSH2 0x4BAE JUMP JUMPDEST SWAP2 POP PUSH1 0x0 DUP3 EQ ISZERO PUSH2 0x4C19 JUMPI PUSH2 0x4C18 PUSH2 0x4C87 JUMP JUMPDEST JUMPDEST PUSH1 0x1 DUP3 SUB SWAP1 POP SWAP2 SWAP1 POP JUMP JUMPDEST PUSH1 0x0 PUSH1 0x2 DUP3 DIV SWAP1 POP PUSH1 0x1 DUP3 AND DUP1 PUSH2 0x4C3C JUMPI PUSH1 0x7F DUP3 AND SWAP2 POP JUMPDEST PUSH1 0x20 DUP3 LT DUP2 EQ ISZERO PUSH2 0x4C50 JUMPI PUSH2 0x4C4F PUSH2 0x4CE5 JUMP JUMPDEST JUMPDEST POP SWAP2 SWAP1 POP JUMP JUMPDEST PUSH2 0x4C5F DUP3 PUSH2 0x4DB5 JUMP JUMPDEST DUP2 ADD DUP2 DUP2 LT PUSH8 0xFFFFFFFFFFFFFFFF DUP3 GT OR ISZERO PUSH2 0x4C7E JUMPI PUSH2 0x4C7D PUSH2 0x4D72 JUMP JUMPDEST JUMPDEST DUP1 PUSH1 0x40 MSTORE POP POP POP JUMP JUMPDEST PUSH32 0x4E487B7100000000000000000000000000000000000000000000000000000000 PUSH1 0x0 MSTORE PUSH1 0x11 PUSH1 0x4 MSTORE PUSH1 0x24 PUSH1 0x0 REVERT JUMPDEST PUSH32 0x4E487B7100000000000000000000000000000000000000000000000000000000 PUSH1 0x0 MSTORE PUSH1 0x12 PUSH1 0x4 MSTORE PUSH1 0x24 PUSH1 0x0 REVERT JUMPDEST PUSH32 0x4E487B7100000000000000000000000000000000000000000000000000000000 PUSH1 0x0 MSTORE PUSH1 0x22 PUSH1 0x4 MSTORE PUSH1 0x24 PUSH1 0x0 REVERT JUMPDEST PUSH32 0x4E487B7100000000000000000000000000000000000000000000000000000000 PUSH1 0x0 MSTORE PUSH1 0x31 PUSH1 0x4 MSTORE PUSH1 0x24 PUSH1 0x0 REVERT JUMPDEST PUSH32 0x4E487B7100000000000000000000000000000000000000000000000000000000 PUSH1 0x0 MSTORE PUSH1 0x32 PUSH1 0x4 MSTORE PUSH1 0x24 PUSH1 0x0 REVERT JUMPDEST PUSH32 0x4E487B7100000000000000000000000000000000000000000000000000000000 PUSH1 0x0 MSTORE PUSH1 0x41 PUSH1 0x4 MSTORE PUSH1 0x24 PUSH1 0x0 REVERT JUMPDEST PUSH1 0x0 DUP1 REVERT JUMPDEST PUSH1 0x0 DUP1 REVERT JUMPDEST PUSH1 0x0 DUP1 REVERT JUMPDEST PUSH1 0x0 DUP1 REVERT JUMPDEST PUSH1 0x0 PUSH1 0x1F NOT PUSH1 0x1F DUP4 ADD AND SWAP1 POP SWAP2 SWAP1 POP JUMP JUMPDEST PUSH32 0x537472696E67733A20686578206C656E67746820696E73756666696369656E74 PUSH1 0x0 DUP3 ADD MSTORE POP JUMP JUMPDEST PUSH32 0x4E4F5420454E4F55474820524553455256455300000000000000000000000000 PUSH1 0x0 DUP3 ADD MSTORE POP JUMP JUMPDEST PUSH32 0x43414E4E4F54205245504159204D4F5245205448414E204F5745440000000000 PUSH1 0x0 DUP3 ADD MSTORE POP JUMP JUMPDEST PUSH32 0x6E6F74206B6565706572206F722061646D696E00000000000000000000000000 PUSH1 0x0 DUP3 ADD MSTORE POP JUMP JUMPDEST PUSH32 0x4E4F5420454E4F55474820434F4C4C41544552414C20494E2052455345525645 PUSH1 0x0 DUP3 ADD MSTORE POP JUMP JUMPDEST PUSH32 0x416464726573733A20696E73756666696369656E742062616C616E636520666F PUSH1 0x0 DUP3 ADD MSTORE PUSH32 0x722063616C6C0000000000000000000000000000000000000000000000000000 PUSH1 0x20 DUP3 ADD MSTORE POP JUMP JUMPDEST PUSH32 0x416D6F756E74206973207A65726F202121000000000000000000000000000000 PUSH1 0x0 DUP3 ADD MSTORE POP JUMP JUMPDEST PUSH32 0x5641554C54204E4F5420554E444552434F4C4C41544552414C495A4544000000 PUSH1 0x0 DUP3 ADD MSTORE POP JUMP JUMPDEST PUSH32 0x4E4F5420454E4F554748204445425420544F4B454E5320494E20524553455256 PUSH1 0x0 DUP3 ADD MSTORE PUSH32 0x4500000000000000000000000000000000000000000000000000000000000000 PUSH1 0x20 DUP3 ADD MSTORE POP JUMP JUMPDEST PUSH32 0x43414E4E4F54205749544844524157204D4F524520434F4C4C41544552414C00 PUSH1 0x0 DUP3 ADD MSTORE POP JUMP JUMPDEST PUSH32 0x6F7065726174696F6E206E6F7420616C6C6F7765640000000000000000000000 PUSH1 0x0 DUP3 ADD MSTORE POP JUMP JUMPDEST PUSH32 0x4953204E4F542042414E4B20464143544F5259204F574E455200000000000000 PUSH1 0x0 DUP3 ADD MSTORE POP JUMP JUMPDEST PUSH32 0x4E4F5420454E4F55474820434F4C4C41544552414C0000000000000000000000 PUSH1 0x0 DUP3 ADD MSTORE POP JUMP JUMPDEST PUSH32 0x496E697469616C697A61626C653A20636F6E747261637420697320616C726561 PUSH1 0x0 DUP3 ADD MSTORE PUSH32 0x647920696E697469616C697A6564000000000000000000000000000000000000 PUSH1 0x20 DUP3 ADD MSTORE POP JUMP JUMPDEST PUSH32 0x43414E4E4F5420554E444552434F4C4C41544552414C495A45205641554C5400 PUSH1 0x0 DUP3 ADD MSTORE POP JUMP JUMPDEST PUSH32 0x416464726573733A2063616C6C20746F206E6F6E2D636F6E7472616374000000 PUSH1 0x0 DUP3 ADD MSTORE POP JUMP JUMPDEST PUSH32 0x6E6F742070726963652075706461746572206F722061646D696E000000000000 PUSH1 0x0 DUP3 ADD MSTORE POP JUMP JUMPDEST PUSH32 0x416363657373436F6E74726F6C3A206163636F756E7420000000000000000000 PUSH1 0x0 DUP3 ADD MSTORE POP JUMP JUMPDEST PUSH32 0x5361666545524332303A204552433230206F7065726174696F6E20646964206E PUSH1 0x0 DUP3 ADD MSTORE PUSH32 0x6F74207375636365656400000000000000000000000000000000000000000000 PUSH1 0x20 DUP3 ADD MSTORE POP JUMP JUMPDEST PUSH32 0x2173657461626C65000000000000000000000000000000000000000000000000 PUSH1 0x0 DUP3 ADD MSTORE POP JUMP JUMPDEST PUSH32 0x206973206D697373696E6720726F6C6520000000000000000000000000000000 PUSH1 0x0 DUP3 ADD MSTORE POP JUMP JUMPDEST PUSH32 0x416363657373436F6E74726F6C3A2063616E206F6E6C792072656E6F756E6365 PUSH1 0x0 DUP3 ADD MSTORE PUSH32 0x20726F6C657320666F722073656C660000000000000000000000000000000000 PUSH1 0x20 DUP3 ADD MSTORE POP JUMP JUMPDEST PUSH2 0x5213 DUP2 PUSH2 0x4B28 JUMP JUMPDEST DUP2 EQ PUSH2 0x521E JUMPI PUSH1 0x0 DUP1 REVERT JUMPDEST POP JUMP JUMPDEST PUSH2 0x522A DUP2 PUSH2 0x4B3A JUMP JUMPDEST DUP2 EQ PUSH2 0x5235 JUMPI PUSH1 0x0 DUP1 REVERT JUMPDEST POP JUMP JUMPDEST PUSH2 0x5241 DUP2 PUSH2 0x4B4C JUMP JUMPDEST DUP2 EQ PUSH2 0x524C JUMPI PUSH1 0x0 DUP1 REVERT JUMPDEST POP JUMP JUMPDEST PUSH2 0x5258 DUP2 PUSH2 0x4B58 JUMP JUMPDEST DUP2 EQ PUSH2 0x5263 JUMPI PUSH1 0x0 DUP1 REVERT JUMPDEST POP JUMP JUMPDEST PUSH2 0x526F DUP2 PUSH2 0x4B62 JUMP JUMPDEST DUP2 EQ PUSH2 0x527A JUMPI PUSH1 0x0 DUP1 REVERT JUMPDEST POP JUMP JUMPDEST PUSH2 0x5286 DUP2 PUSH2 0x4BAE JUMP JUMPDEST DUP2 EQ PUSH2 0x5291 JUMPI PUSH1 0x0 DUP1 REVERT JUMPDEST POP JUMP INVALID LOG2 PUSH5 0x6970667358 0x22 SLT KECCAK256 SWAP3 0x4A PUSH23 0xC5255BC88FB11BC304D79640261DB689589214FF20718B DUP5 0xB4 0xE6 0xAE 0xC0 0xE0 PUSH5 0x736F6C6343 STOP ADDMOD MOD STOP CALLER "
    }
  }
}