{
  "abi": [
    {
      "inputs": [
        {
          "internalType": "address",
          "name": "_bankAddress",
          "type": "address"
        }
      ],
      "stateMutability": "nonpayable",
      "type": "constructor"
    },
    {
      "anonymous": false,
      "inputs": [
        {
          "indexed": false,
          "internalType": "address",
          "name": "newBankAddress",
          "type": "address"
        },
        {
          "indexed": false,
          "internalType": "address",
          "name": "owner",
          "type": "address"
        }
      ],
      "name": "BankCreated",
      "type": "event"
    },
    {
      "anonymous": false,
      "inputs": [
        {
          "indexed": true,
          "internalType": "address",
          "name": "previousOwner",
          "type": "address"
        },
        {
          "indexed": true,
          "internalType": "address",
          "name": "newOwner",
          "type": "address"
        }
      ],
      "name": "OwnershipTransferred",
      "type": "event"
    },
    {
      "inputs": [],
      "name": "bankAddress",
      "outputs": [
        {
          "internalType": "address",
          "name": "",
          "type": "address"
        }
      ],
      "stateMutability": "view",
      "type": "function"
    },
    {
      "inputs": [
        {
          "internalType": "string",
          "name": "name",
          "type": "string"
        },
        {
          "internalType": "uint256",
          "name": "interestRate",
          "type": "uint256"
        },
        {
          "internalType": "uint256",
          "name": "originationFee",
          "type": "uint256"
        },
        {
          "internalType": "uint256",
          "name": "collateralizationRatio",
          "type": "uint256"
        },
        {
          "internalType": "uint256",
          "name": "liquidationPenalty",
          "type": "uint256"
        },
        {
          "internalType": "uint256",
          "name": "period",
          "type": "uint256"
        },
        {
          "internalType": "address payable",
          "name": "oracleAddress",
          "type": "address"
        }
      ],
      "name": "createBank",
      "outputs": [],
      "stateMutability": "nonpayable",
      "type": "function"
    },
    {
      "inputs": [
        {
          "internalType": "uint256",
          "name": "index",
          "type": "uint256"
        }
      ],
      "name": "getBankAddressAtIndex",
      "outputs": [
        {
          "internalType": "address",
          "name": "",
          "type": "address"
        }
      ],
      "stateMutability": "view",
      "type": "function"
    },
    {
      "inputs": [],
      "name": "getNumberOfBanks",
      "outputs": [
        {
          "internalType": "uint256",
          "name": "",
          "type": "uint256"
        }
      ],
      "stateMutability": "view",
      "type": "function"
    },
    {
      "inputs": [],
      "name": "owner",
      "outputs": [
        {
          "internalType": "address",
          "name": "",
          "type": "address"
        }
      ],
      "stateMutability": "view",
      "type": "function"
    },
    {
      "inputs": [],
      "name": "renounceOwnership",
      "outputs": [],
      "stateMutability": "nonpayable",
      "type": "function"
    },
    {
      "inputs": [
        {
          "internalType": "address",
          "name": "newOwner",
          "type": "address"
        }
      ],
      "name": "transferOwnership",
      "outputs": [],
      "stateMutability": "nonpayable",
      "type": "function"
    }
  ],
  "evm": {
    "bytecode": {
      "linkReferences": {},
      "object": "60806040523480156200001157600080fd5b50604051620014ff380380620014ff833981810160405281019062000037919062000358565b620000576200004b6200010660201b60201c565b6200010e60201b60201c565b80600160006101000a81548173ffffffffffffffffffffffffffffffffffffffff021916908373ffffffffffffffffffffffffffffffffffffffff160217905550620000c7604051806060016040528060318152602001620014ce60319139620001d260201b6200054e1760201c565b620000ff600160009054906101000a900473ffffffffffffffffffffffffffffffffffffffff166200027560201b620005e71760201c565b50620004d3565b600033905090565b60008060009054906101000a900473ffffffffffffffffffffffffffffffffffffffff169050816000806101000a81548173ffffffffffffffffffffffffffffffffffffffff021916908373ffffffffffffffffffffffffffffffffffffffff1602179055508173ffffffffffffffffffffffffffffffffffffffff168173ffffffffffffffffffffffffffffffffffffffff167f8be0079c531659141344cd1fd0a4f28419497f9722a3daafe3b4186f6b6457e060405160405180910390a35050565b6200027281604051602401620001e99190620003f9565b6040516020818303038152906040527f41304fac000000000000000000000000000000000000000000000000000000007bffffffffffffffffffffffffffffffffffffffffffffffffffffffff19166020820180517bffffffffffffffffffffffffffffffffffffffffffffffffffffffff83818316178352505050506200031860201b60201c565b50565b62000315816040516024016200028c9190620003dc565b6040516020818303038152906040527f2c2ecbc2000000000000000000000000000000000000000000000000000000007bffffffffffffffffffffffffffffffffffffffffffffffffffffffff19166020820180517bffffffffffffffffffffffffffffffffffffffffffffffffffffffff83818316178352505050506200031860201b60201c565b50565b60008151905060006a636f6e736f6c652e6c6f679050602083016000808483855afa5050505050565b6000815190506200035281620004b9565b92915050565b600060208284031215620003715762000370620004a3565b5b6000620003818482850162000341565b91505092915050565b620003958162000439565b82525050565b6000620003a8826200041d565b620003b4818562000428565b9350620003c68185602086016200046d565b620003d181620004a8565b840191505092915050565b6000602082019050620003f360008301846200038a565b92915050565b600060208201905081810360008301526200041581846200039b565b905092915050565b600081519050919050565b600082825260208201905092915050565b600062000446826200044d565b9050919050565b600073ffffffffffffffffffffffffffffffffffffffff82169050919050565b60005b838110156200048d57808201518184015260208101905062000470565b838111156200049d576000848401525b50505050565b600080fd5b6000601f19601f8301169050919050565b620004c48162000439565b8114620004d057600080fd5b50565b610feb80620004e36000396000f3fe608060405234801561001057600080fd5b506004361061007d5760003560e01c8063715018a61161005b578063715018a6146100ec5780637822ed49146100f65780638da5cb5b14610114578063f2fde38b146101325761007d565b806304c660da14610082578063396bbcff146100b2578063438d7be8146100d0575b600080fd5b61009c60048036038101906100979190610a7d565b61014e565b6040516100a99190610b79565b60405180910390f35b6100ba61019e565b6040516100c79190610cd3565b60405180910390f35b6100ea60048036038101906100e591906109bf565b6101ab565b005b6100f461037f565b005b6100fe610407565b60405161010b9190610b79565b60405180910390f35b61011c61042d565b6040516101299190610b79565b60405180910390f35b61014c60048036038101906101479190610992565b610456565b005b6000806002838154811061016557610164610e21565b5b9060005260206000200190508060000160009054906101000a900473ffffffffffffffffffffffffffffffffffffffff16915050919050565b6000600280549050905090565b6101cc6040518060600160405280602b8152602001610f8b602b913961054e565b6101d586610680565b6101de85610680565b6101e782610680565b6101f0816105e7565b600061021d600160009054906101000a900473ffffffffffffffffffffffffffffffffffffffff16610719565b90508073ffffffffffffffffffffffffffffffffffffffff166370c12f1e338a8a8a8a8a8a61024a61042d565b8b6040518a63ffffffff1660e01b815260040161026f99989796959493929190610bbd565b600060405180830381600087803b15801561028957600080fd5b505af115801561029d573d6000803e3d6000fd5b50505050600060405180602001604052808373ffffffffffffffffffffffffffffffffffffffff1681525090506002819080600181540180825580915050600190039060005260206000200160009091909190915060008201518160000160006101000a81548173ffffffffffffffffffffffffffffffffffffffff021916908373ffffffffffffffffffffffffffffffffffffffff16021790555050507f7e5337f187d761895980242ae2148ec29fc88dbfb602b00846d90ae73f9edda7823360405161036c929190610b94565b60405180910390a1505050505050505050565b6103876107ee565b73ffffffffffffffffffffffffffffffffffffffff166103a561042d565b73ffffffffffffffffffffffffffffffffffffffff16146103fb576040517f08c379a00000000000000000000000000000000000000000000000000000000081526004016103f290610cb3565b60405180910390fd5b61040560006107f6565b565b600160009054906101000a900473ffffffffffffffffffffffffffffffffffffffff1681565b60008060009054906101000a900473ffffffffffffffffffffffffffffffffffffffff16905090565b61045e6107ee565b73ffffffffffffffffffffffffffffffffffffffff1661047c61042d565b73ffffffffffffffffffffffffffffffffffffffff16146104d2576040517f08c379a00000000000000000000000000000000000000000000000000000000081526004016104c990610cb3565b60405180910390fd5b600073ffffffffffffffffffffffffffffffffffffffff168173ffffffffffffffffffffffffffffffffffffffff161415610542576040517f08c379a000000000000000000000000000000000000000000000000000000000815260040161053990610c73565b60405180910390fd5b61054b816107f6565b50565b6105e4816040516024016105629190610c51565b6040516020818303038152906040527f41304fac000000000000000000000000000000000000000000000000000000007bffffffffffffffffffffffffffffffffffffffffffffffffffffffff19166020820180517bffffffffffffffffffffffffffffffffffffffffffffffffffffffff83818316178352505050506108ba565b50565b61067d816040516024016105fb9190610b79565b6040516020818303038152906040527f2c2ecbc2000000000000000000000000000000000000000000000000000000007bffffffffffffffffffffffffffffffffffffffffffffffffffffffff19166020820180517bffffffffffffffffffffffffffffffffffffffffffffffffffffffff83818316178352505050506108ba565b50565b610716816040516024016106949190610cd3565b6040516020818303038152906040527ff5b1bba9000000000000000000000000000000000000000000000000000000007bffffffffffffffffffffffffffffffffffffffffffffffffffffffff19166020820180517bffffffffffffffffffffffffffffffffffffffffffffffffffffffff83818316178352505050506108ba565b50565b60006040517f3d602d80600a3d3981f3363d3d373d3d3d363d7300000000000000000000000081528260601b60148201527f5af43d82803e903d91602b57fd5bf3000000000000000000000000000000000060288201526037816000f0915050600073ffffffffffffffffffffffffffffffffffffffff168173ffffffffffffffffffffffffffffffffffffffff1614156107e9576040517f08c379a00000000000000000000000000000000000000000000000000000000081526004016107e090610c93565b60405180910390fd5b919050565b600033905090565b60008060009054906101000a900473ffffffffffffffffffffffffffffffffffffffff169050816000806101000a81548173ffffffffffffffffffffffffffffffffffffffff021916908373ffffffffffffffffffffffffffffffffffffffff1602179055508173ffffffffffffffffffffffffffffffffffffffff168173ffffffffffffffffffffffffffffffffffffffff167f8be0079c531659141344cd1fd0a4f28419497f9722a3daafe3b4186f6b6457e060405160405180910390a35050565b60008151905060006a636f6e736f6c652e6c6f679050602083016000808483855afa5050505050565b60006108f66108f184610d13565b610cee565b90508281526020810184848401111561091257610911610e84565b5b61091d848285610dae565b509392505050565b60008135905061093481610f45565b92915050565b60008135905061094981610f5c565b92915050565b600082601f83011261096457610963610e7f565b5b81356109748482602086016108e3565b91505092915050565b60008135905061098c81610f73565b92915050565b6000602082840312156109a8576109a7610e8e565b5b60006109b684828501610925565b91505092915050565b600080600080600080600060e0888a0312156109de576109dd610e8e565b5b600088013567ffffffffffffffff8111156109fc576109fb610e89565b5b610a088a828b0161094f565b9750506020610a198a828b0161097d565b9650506040610a2a8a828b0161097d565b9550506060610a3b8a828b0161097d565b9450506080610a4c8a828b0161097d565b93505060a0610a5d8a828b0161097d565b92505060c0610a6e8a828b0161093a565b91505092959891949750929550565b600060208284031215610a9357610a92610e8e565b5b6000610aa18482850161097d565b91505092915050565b610ab381610d72565b82525050565b610ac281610d60565b82525050565b6000610ad382610d44565b610add8185610d4f565b9350610aed818560208601610dbd565b610af681610e93565b840191505092915050565b6000610b0e602683610d4f565b9150610b1982610ea4565b604082019050919050565b6000610b31601683610d4f565b9150610b3c82610ef3565b602082019050919050565b6000610b54602083610d4f565b9150610b5f82610f1c565b602082019050919050565b610b7381610da4565b82525050565b6000602082019050610b8e6000830184610ab9565b92915050565b6000604082019050610ba96000830185610ab9565b610bb66020830184610ab9565b9392505050565b600061012082019050610bd3600083018c610ab9565b8181036020830152610be5818b610ac8565b9050610bf4604083018a610b6a565b610c016060830189610b6a565b610c0e6080830188610b6a565b610c1b60a0830187610b6a565b610c2860c0830186610b6a565b610c3560e0830185610ab9565b610c43610100830184610aaa565b9a9950505050505050505050565b60006020820190508181036000830152610c6b8184610ac8565b905092915050565b60006020820190508181036000830152610c8c81610b01565b9050919050565b60006020820190508181036000830152610cac81610b24565b9050919050565b60006020820190508181036000830152610ccc81610b47565b9050919050565b6000602082019050610ce86000830184610b6a565b92915050565b6000610cf8610d09565b9050610d048282610df0565b919050565b6000604051905090565b600067ffffffffffffffff821115610d2e57610d2d610e50565b5b610d3782610e93565b9050602081019050919050565b600081519050919050565b600082825260208201905092915050565b6000610d6b82610d84565b9050919050565b6000610d7d82610d84565b9050919050565b600073ffffffffffffffffffffffffffffffffffffffff82169050919050565b6000819050919050565b82818337600083830152505050565b60005b83811015610ddb578082015181840152602081019050610dc0565b83811115610dea576000848401525b50505050565b610df982610e93565b810181811067ffffffffffffffff82111715610e1857610e17610e50565b5b80604052505050565b7f4e487b7100000000000000000000000000000000000000000000000000000000600052603260045260246000fd5b7f4e487b7100000000000000000000000000000000000000000000000000000000600052604160045260246000fd5b600080fd5b600080fd5b600080fd5b600080fd5b6000601f19601f8301169050919050565b7f4f776e61626c653a206e6577206f776e657220697320746865207a65726f206160008201527f6464726573730000000000000000000000000000000000000000000000000000602082015250565b7f455243313136373a20637265617465206661696c656400000000000000000000600082015250565b7f4f776e61626c653a2063616c6c6572206973206e6f7420746865206f776e6572600082015250565b610f4e81610d60565b8114610f5957600080fd5b50565b610f6581610d72565b8114610f7057600080fd5b50565b610f7c81610da4565b8114610f8757600080fd5b5056fe496e736964652042616e6b466163746f72792e63726561746542616e6b2e20506172616d65746572733a20a264697066735822122095421816e1819e10750538e7e99d401ddebe1e8356991b897fdf211929f6ed4564736f6c6343000806003342616e6b466163746f727920636f6e7374727563746f722063616c6c656420776974682062616e6b416464726573733a20",
      "opcodes": "PUSH1 0x80 PUSH1 0x40 MSTORE CALLVALUE DUP1 ISZERO PUSH3 0x11 JUMPI PUSH1 0x0 DUP1 REVERT JUMPDEST POP PUSH1 0x40 MLOAD PUSH3 0x14FF CODESIZE SUB DUP1 PUSH3 0x14FF DUP4 CODECOPY DUP2 DUP2 ADD PUSH1 0x40 MSTORE DUP2 ADD SWAP1 PUSH3 0x37 SWAP2 SWAP1 PUSH3 0x358 JUMP JUMPDEST PUSH3 0x57 PUSH3 0x4B PUSH3 0x106 PUSH1 0x20 SHL PUSH1 0x20 SHR JUMP JUMPDEST PUSH3 0x10E PUSH1 0x20 SHL PUSH1 0x20 SHR JUMP JUMPDEST DUP1 PUSH1 0x1 PUSH1 0x0 PUSH2 0x100 EXP DUP2 SLOAD DUP2 PUSH20 0xFFFFFFFFFFFFFFFFFFFFFFFFFFFFFFFFFFFFFFFF MUL NOT AND SWAP1 DUP4 PUSH20 0xFFFFFFFFFFFFFFFFFFFFFFFFFFFFFFFFFFFFFFFF AND MUL OR SWAP1 SSTORE POP PUSH3 0xC7 PUSH1 0x40 MLOAD DUP1 PUSH1 0x60 ADD PUSH1 0x40 MSTORE DUP1 PUSH1 0x31 DUP2 MSTORE PUSH1 0x20 ADD PUSH3 0x14CE PUSH1 0x31 SWAP2 CODECOPY PUSH3 0x1D2 PUSH1 0x20 SHL PUSH3 0x54E OR PUSH1 0x20 SHR JUMP JUMPDEST PUSH3 0xFF PUSH1 0x1 PUSH1 0x0 SWAP1 SLOAD SWAP1 PUSH2 0x100 EXP SWAP1 DIV PUSH20 0xFFFFFFFFFFFFFFFFFFFFFFFFFFFFFFFFFFFFFFFF AND PUSH3 0x275 PUSH1 0x20 SHL PUSH3 0x5E7 OR PUSH1 0x20 SHR JUMP JUMPDEST POP PUSH3 0x4D3 JUMP JUMPDEST PUSH1 0x0 CALLER SWAP1 POP SWAP1 JUMP JUMPDEST PUSH1 0x0 DUP1 PUSH1 0x0 SWAP1 SLOAD SWAP1 PUSH2 0x100 EXP SWAP1 DIV PUSH20 0xFFFFFFFFFFFFFFFFFFFFFFFFFFFFFFFFFFFFFFFF AND SWAP1 POP DUP2 PUSH1 0x0 DUP1 PUSH2 0x100 EXP DUP2 SLOAD DUP2 PUSH20 0xFFFFFFFFFFFFFFFFFFFFFFFFFFFFFFFFFFFFFFFF MUL NOT AND SWAP1 DUP4 PUSH20 0xFFFFFFFFFFFFFFFFFFFFFFFFFFFFFFFFFFFFFFFF AND MUL OR SWAP1 SSTORE POP DUP2 PUSH20 0xFFFFFFFFFFFFFFFFFFFFFFFFFFFFFFFFFFFFFFFF AND DUP2 PUSH20 0xFFFFFFFFFFFFFFFFFFFFFFFFFFFFFFFFFFFFFFFF AND PUSH32 0x8BE0079C531659141344CD1FD0A4F28419497F9722A3DAAFE3B4186F6B6457E0 PUSH1 0x40 MLOAD PUSH1 0x40 MLOAD DUP1 SWAP2 SUB SWAP1 LOG3 POP POP JUMP JUMPDEST PUSH3 0x272 DUP2 PUSH1 0x40 MLOAD PUSH1 0x24 ADD PUSH3 0x1E9 SWAP2 SWAP1 PUSH3 0x3F9 JUMP JUMPDEST PUSH1 0x40 MLOAD PUSH1 0x20 DUP2 DUP4 SUB SUB DUP2 MSTORE SWAP1 PUSH1 0x40 MSTORE PUSH32 0x41304FAC00000000000000000000000000000000000000000000000000000000 PUSH28 0xFFFFFFFFFFFFFFFFFFFFFFFFFFFFFFFFFFFFFFFFFFFFFFFFFFFFFFFF NOT AND PUSH1 0x20 DUP3 ADD DUP1 MLOAD PUSH28 0xFFFFFFFFFFFFFFFFFFFFFFFFFFFFFFFFFFFFFFFFFFFFFFFFFFFFFFFF DUP4 DUP2 DUP4 AND OR DUP4 MSTORE POP POP POP POP PUSH3 0x318 PUSH1 0x20 SHL PUSH1 0x20 SHR JUMP JUMPDEST POP JUMP JUMPDEST PUSH3 0x315 DUP2 PUSH1 0x40 MLOAD PUSH1 0x24 ADD PUSH3 0x28C SWAP2 SWAP1 PUSH3 0x3DC JUMP JUMPDEST PUSH1 0x40 MLOAD PUSH1 0x20 DUP2 DUP4 SUB SUB DUP2 MSTORE SWAP1 PUSH1 0x40 MSTORE PUSH32 0x2C2ECBC200000000000000000000000000000000000000000000000000000000 PUSH28 0xFFFFFFFFFFFFFFFFFFFFFFFFFFFFFFFFFFFFFFFFFFFFFFFFFFFFFFFF NOT AND PUSH1 0x20 DUP3 ADD DUP1 MLOAD PUSH28 0xFFFFFFFFFFFFFFFFFFFFFFFFFFFFFFFFFFFFFFFFFFFFFFFFFFFFFFFF DUP4 DUP2 DUP4 AND OR DUP4 MSTORE POP POP POP POP PUSH3 0x318 PUSH1 0x20 SHL PUSH1 0x20 SHR JUMP JUMPDEST POP JUMP JUMPDEST PUSH1 0x0 DUP2 MLOAD SWAP1 POP PUSH1 0x0 PUSH11 0x636F6E736F6C652E6C6F67 SWAP1 POP PUSH1 0x20 DUP4 ADD PUSH1 0x0 DUP1 DUP5 DUP4 DUP6 GAS STATICCALL POP POP POP POP POP JUMP JUMPDEST PUSH1 0x0 DUP2 MLOAD SWAP1 POP PUSH3 0x352 DUP2 PUSH3 0x4B9 JUMP JUMPDEST SWAP3 SWAP2 POP POP JUMP JUMPDEST PUSH1 0x0 PUSH1 0x20 DUP3 DUP5 SUB SLT ISZERO PUSH3 0x371 JUMPI PUSH3 0x370 PUSH3 0x4A3 JUMP JUMPDEST JUMPDEST PUSH1 0x0 PUSH3 0x381 DUP5 DUP3 DUP6 ADD PUSH3 0x341 JUMP JUMPDEST SWAP2 POP POP SWAP3 SWAP2 POP POP JUMP JUMPDEST PUSH3 0x395 DUP2 PUSH3 0x439 JUMP JUMPDEST DUP3 MSTORE POP POP JUMP JUMPDEST PUSH1 0x0 PUSH3 0x3A8 DUP3 PUSH3 0x41D JUMP JUMPDEST PUSH3 0x3B4 DUP2 DUP6 PUSH3 0x428 JUMP JUMPDEST SWAP4 POP PUSH3 0x3C6 DUP2 DUP6 PUSH1 0x20 DUP7 ADD PUSH3 0x46D JUMP JUMPDEST PUSH3 0x3D1 DUP2 PUSH3 0x4A8 JUMP JUMPDEST DUP5 ADD SWAP2 POP POP SWAP3 SWAP2 POP POP JUMP JUMPDEST PUSH1 0x0 PUSH1 0x20 DUP3 ADD SWAP1 POP PUSH3 0x3F3 PUSH1 0x0 DUP4 ADD DUP5 PUSH3 0x38A JUMP JUMPDEST SWAP3 SWAP2 POP POP JUMP JUMPDEST PUSH1 0x0 PUSH1 0x20 DUP3 ADD SWAP1 POP DUP2 DUP2 SUB PUSH1 0x0 DUP4 ADD MSTORE PUSH3 0x415 DUP2 DUP5 PUSH3 0x39B JUMP JUMPDEST SWAP1 POP SWAP3 SWAP2 POP POP JUMP JUMPDEST PUSH1 0x0 DUP2 MLOAD SWAP1 POP SWAP2 SWAP1 POP JUMP JUMPDEST PUSH1 0x0 DUP3 DUP3 MSTORE PUSH1 0x20 DUP3 ADD SWAP1 POP SWAP3 SWAP2 POP POP JUMP JUMPDEST PUSH1 0x0 PUSH3 0x446 DUP3 PUSH3 0x44D JUMP JUMPDEST SWAP1 POP SWAP2 SWAP1 POP JUMP JUMPDEST PUSH1 0x0 PUSH20 0xFFFFFFFFFFFFFFFFFFFFFFFFFFFFFFFFFFFFFFFF DUP3 AND SWAP1 POP SWAP2 SWAP1 POP JUMP JUMPDEST PUSH1 0x0 JUMPDEST DUP4 DUP2 LT ISZERO PUSH3 0x48D JUMPI DUP1 DUP3 ADD MLOAD DUP2 DUP5 ADD MSTORE PUSH1 0x20 DUP2 ADD SWAP1 POP PUSH3 0x470 JUMP JUMPDEST DUP4 DUP2 GT ISZERO PUSH3 0x49D JUMPI PUSH1 0x0 DUP5 DUP5 ADD MSTORE JUMPDEST POP POP POP POP JUMP JUMPDEST PUSH1 0x0 DUP1 REVERT JUMPDEST PUSH1 0x0 PUSH1 0x1F NOT PUSH1 0x1F DUP4 ADD AND SWAP1 POP SWAP2 SWAP1 POP JUMP JUMPDEST PUSH3 0x4C4 DUP2 PUSH3 0x439 JUMP JUMPDEST DUP2 EQ PUSH3 0x4D0 JUMPI PUSH1 0x0 DUP1 REVERT JUMPDEST POP JUMP JUMPDEST PUSH2 0xFEB DUP1 PUSH3 0x4E3 PUSH1 0x0 CODECOPY PUSH1 0x0 RETURN INVALID PUSH1 0x80 PUSH1 0x40 MSTORE CALLVALUE DUP1 ISZERO PUSH2 0x10 JUMPI PUSH1 0x0 DUP1 REVERT JUMPDEST POP PUSH1 0x4 CALLDATASIZE LT PUSH2 0x7D JUMPI PUSH1 0x0 CALLDATALOAD PUSH1 0xE0 SHR DUP1 PUSH4 0x715018A6 GT PUSH2 0x5B JUMPI DUP1 PUSH4 0x715018A6 EQ PUSH2 0xEC JUMPI DUP1 PUSH4 0x7822ED49 EQ PUSH2 0xF6 JUMPI DUP1 PUSH4 0x8DA5CB5B EQ PUSH2 0x114 JUMPI DUP1 PUSH4 0xF2FDE38B EQ PUSH2 0x132 JUMPI PUSH2 0x7D JUMP JUMPDEST DUP1 PUSH4 0x4C660DA EQ PUSH2 0x82 JUMPI DUP1 PUSH4 0x396BBCFF EQ PUSH2 0xB2 JUMPI DUP1 PUSH4 0x438D7BE8 EQ PUSH2 0xD0 JUMPI JUMPDEST PUSH1 0x0 DUP1 REVERT JUMPDEST PUSH2 0x9C PUSH1 0x4 DUP1 CALLDATASIZE SUB DUP2 ADD SWAP1 PUSH2 0x97 SWAP2 SWAP1 PUSH2 0xA7D JUMP JUMPDEST PUSH2 0x14E JUMP JUMPDEST PUSH1 0x40 MLOAD PUSH2 0xA9 SWAP2 SWAP1 PUSH2 0xB79 JUMP JUMPDEST PUSH1 0x40 MLOAD DUP1 SWAP2 SUB SWAP1 RETURN JUMPDEST PUSH2 0xBA PUSH2 0x19E JUMP JUMPDEST PUSH1 0x40 MLOAD PUSH2 0xC7 SWAP2 SWAP1 PUSH2 0xCD3 JUMP JUMPDEST PUSH1 0x40 MLOAD DUP1 SWAP2 SUB SWAP1 RETURN JUMPDEST PUSH2 0xEA PUSH1 0x4 DUP1 CALLDATASIZE SUB DUP2 ADD SWAP1 PUSH2 0xE5 SWAP2 SWAP1 PUSH2 0x9BF JUMP JUMPDEST PUSH2 0x1AB JUMP JUMPDEST STOP JUMPDEST PUSH2 0xF4 PUSH2 0x37F JUMP JUMPDEST STOP JUMPDEST PUSH2 0xFE PUSH2 0x407 JUMP JUMPDEST PUSH1 0x40 MLOAD PUSH2 0x10B SWAP2 SWAP1 PUSH2 0xB79 JUMP JUMPDEST PUSH1 0x40 MLOAD DUP1 SWAP2 SUB SWAP1 RETURN JUMPDEST PUSH2 0x11C PUSH2 0x42D JUMP JUMPDEST PUSH1 0x40 MLOAD PUSH2 0x129 SWAP2 SWAP1 PUSH2 0xB79 JUMP JUMPDEST PUSH1 0x40 MLOAD DUP1 SWAP2 SUB SWAP1 RETURN JUMPDEST PUSH2 0x14C PUSH1 0x4 DUP1 CALLDATASIZE SUB DUP2 ADD SWAP1 PUSH2 0x147 SWAP2 SWAP1 PUSH2 0x992 JUMP JUMPDEST PUSH2 0x456 JUMP JUMPDEST STOP JUMPDEST PUSH1 0x0 DUP1 PUSH1 0x2 DUP4 DUP2 SLOAD DUP2 LT PUSH2 0x165 JUMPI PUSH2 0x164 PUSH2 0xE21 JUMP JUMPDEST JUMPDEST SWAP1 PUSH1 0x0 MSTORE PUSH1 0x20 PUSH1 0x0 KECCAK256 ADD SWAP1 POP DUP1 PUSH1 0x0 ADD PUSH1 0x0 SWAP1 SLOAD SWAP1 PUSH2 0x100 EXP SWAP1 DIV PUSH20 0xFFFFFFFFFFFFFFFFFFFFFFFFFFFFFFFFFFFFFFFF AND SWAP2 POP POP SWAP2 SWAP1 POP JUMP JUMPDEST PUSH1 0x0 PUSH1 0x2 DUP1 SLOAD SWAP1 POP SWAP1 POP SWAP1 JUMP JUMPDEST PUSH2 0x1CC PUSH1 0x40 MLOAD DUP1 PUSH1 0x60 ADD PUSH1 0x40 MSTORE DUP1 PUSH1 0x2B DUP2 MSTORE PUSH1 0x20 ADD PUSH2 0xF8B PUSH1 0x2B SWAP2 CODECOPY PUSH2 0x54E JUMP JUMPDEST PUSH2 0x1D5 DUP7 PUSH2 0x680 JUMP JUMPDEST PUSH2 0x1DE DUP6 PUSH2 0x680 JUMP JUMPDEST PUSH2 0x1E7 DUP3 PUSH2 0x680 JUMP JUMPDEST PUSH2 0x1F0 DUP2 PUSH2 0x5E7 JUMP JUMPDEST PUSH1 0x0 PUSH2 0x21D PUSH1 0x1 PUSH1 0x0 SWAP1 SLOAD SWAP1 PUSH2 0x100 EXP SWAP1 DIV PUSH20 0xFFFFFFFFFFFFFFFFFFFFFFFFFFFFFFFFFFFFFFFF AND PUSH2 0x719 JUMP JUMPDEST SWAP1 POP DUP1 PUSH20 0xFFFFFFFFFFFFFFFFFFFFFFFFFFFFFFFFFFFFFFFF AND PUSH4 0x70C12F1E CALLER DUP11 DUP11 DUP11 DUP11 DUP11 DUP11 PUSH2 0x24A PUSH2 0x42D JUMP JUMPDEST DUP12 PUSH1 0x40 MLOAD DUP11 PUSH4 0xFFFFFFFF AND PUSH1 0xE0 SHL DUP2 MSTORE PUSH1 0x4 ADD PUSH2 0x26F SWAP10 SWAP9 SWAP8 SWAP7 SWAP6 SWAP5 SWAP4 SWAP3 SWAP2 SWAP1 PUSH2 0xBBD JUMP JUMPDEST PUSH1 0x0 PUSH1 0x40 MLOAD DUP1 DUP4 SUB DUP2 PUSH1 0x0 DUP8 DUP1 EXTCODESIZE ISZERO DUP1 ISZERO PUSH2 0x289 JUMPI PUSH1 0x0 DUP1 REVERT JUMPDEST POP GAS CALL ISZERO DUP1 ISZERO PUSH2 0x29D JUMPI RETURNDATASIZE PUSH1 0x0 DUP1 RETURNDATACOPY RETURNDATASIZE PUSH1 0x0 REVERT JUMPDEST POP POP POP POP PUSH1 0x0 PUSH1 0x40 MLOAD DUP1 PUSH1 0x20 ADD PUSH1 0x40 MSTORE DUP1 DUP4 PUSH20 0xFFFFFFFFFFFFFFFFFFFFFFFFFFFFFFFFFFFFFFFF AND DUP2 MSTORE POP SWAP1 POP PUSH1 0x2 DUP2 SWAP1 DUP1 PUSH1 0x1 DUP2 SLOAD ADD DUP1 DUP3 SSTORE DUP1 SWAP2 POP POP PUSH1 0x1 SWAP1 SUB SWAP1 PUSH1 0x0 MSTORE PUSH1 0x20 PUSH1 0x0 KECCAK256 ADD PUSH1 0x0 SWAP1 SWAP2 SWAP1 SWAP2 SWAP1 SWAP2 POP PUSH1 0x0 DUP3 ADD MLOAD DUP2 PUSH1 0x0 ADD PUSH1 0x0 PUSH2 0x100 EXP DUP2 SLOAD DUP2 PUSH20 0xFFFFFFFFFFFFFFFFFFFFFFFFFFFFFFFFFFFFFFFF MUL NOT AND SWAP1 DUP4 PUSH20 0xFFFFFFFFFFFFFFFFFFFFFFFFFFFFFFFFFFFFFFFF AND MUL OR SWAP1 SSTORE POP POP POP PUSH32 0x7E5337F187D761895980242AE2148EC29FC88DBFB602B00846D90AE73F9EDDA7 DUP3 CALLER PUSH1 0x40 MLOAD PUSH2 0x36C SWAP3 SWAP2 SWAP1 PUSH2 0xB94 JUMP JUMPDEST PUSH1 0x40 MLOAD DUP1 SWAP2 SUB SWAP1 LOG1 POP POP POP POP POP POP POP POP POP JUMP JUMPDEST PUSH2 0x387 PUSH2 0x7EE JUMP JUMPDEST PUSH20 0xFFFFFFFFFFFFFFFFFFFFFFFFFFFFFFFFFFFFFFFF AND PUSH2 0x3A5 PUSH2 0x42D JUMP JUMPDEST PUSH20 0xFFFFFFFFFFFFFFFFFFFFFFFFFFFFFFFFFFFFFFFF AND EQ PUSH2 0x3FB JUMPI PUSH1 0x40 MLOAD PUSH32 0x8C379A000000000000000000000000000000000000000000000000000000000 DUP2 MSTORE PUSH1 0x4 ADD PUSH2 0x3F2 SWAP1 PUSH2 0xCB3 JUMP JUMPDEST PUSH1 0x40 MLOAD DUP1 SWAP2 SUB SWAP1 REVERT JUMPDEST PUSH2 0x405 PUSH1 0x0 PUSH2 0x7F6 JUMP JUMPDEST JUMP JUMPDEST PUSH1 0x1 PUSH1 0x0 SWAP1 SLOAD SWAP1 PUSH2 0x100 EXP SWAP1 DIV PUSH20 0xFFFFFFFFFFFFFFFFFFFFFFFFFFFFFFFFFFFFFFFF AND DUP2 JUMP JUMPDEST PUSH1 0x0 DUP1 PUSH1 0x0 SWAP1 SLOAD SWAP1 PUSH2 0x100 EXP SWAP1 DIV PUSH20 0xFFFFFFFFFFFFFFFFFFFFFFFFFFFFFFFFFFFFFFFF AND SWAP1 POP SWAP1 JUMP JUMPDEST PUSH2 0x45E PUSH2 0x7EE JUMP JUMPDEST PUSH20 0xFFFFFFFFFFFFFFFFFFFFFFFFFFFFFFFFFFFFFFFF AND PUSH2 0x47C PUSH2 0x42D JUMP JUMPDEST PUSH20 0xFFFFFFFFFFFFFFFFFFFFFFFFFFFFFFFFFFFFFFFF AND EQ PUSH2 0x4D2 JUMPI PUSH1 0x40 MLOAD PUSH32 0x8C379A000000000000000000000000000000000000000000000000000000000 DUP2 MSTORE PUSH1 0x4 ADD PUSH2 0x4C9 SWAP1 PUSH2 0xCB3 JUMP JUMPDEST PUSH1 0x40 MLOAD DUP1 SWAP2 SUB SWAP1 REVERT JUMPDEST PUSH1 0x0 PUSH20 0xFFFFFFFFFFFFFFFFFFFFFFFFFFFFFFFFFFFFFFFF AND DUP2 PUSH20 0xFFFFFFFFFFFFFFFFFFFFFFFFFFFFFFFFFFFFFFFF AND EQ ISZERO PUSH2 0x542 JUMPI PUSH1 0x40 MLOAD PUSH32 0x8C379A000000000000000000000000000000000000000000000000000000000 DUP2 MSTORE PUSH1 0x4 ADD PUSH2 0x539 SWAP1 PUSH2 0xC73 JUMP JUMPDEST PUSH1 0x40 MLOAD DUP1 SWAP2 SUB SWAP1 REVERT JUMPDEST PUSH2 0x54B DUP2 PUSH2 0x7F6 JUMP JUMPDEST POP JUMP JUMPDEST PUSH2 0x5E4 DUP2 PUSH1 0x40 MLOAD PUSH1 0x24 ADD PUSH2 0x562 SWAP2 SWAP1 PUSH2 0xC51 JUMP JUMPDEST PUSH1 0x40 MLOAD PUSH1 0x20 DUP2 DUP4 SUB SUB DUP2 MSTORE SWAP1 PUSH1 0x40 MSTORE PUSH32 0x41304FAC00000000000000000000000000000000000000000000000000000000 PUSH28 0xFFFFFFFFFFFFFFFFFFFFFFFFFFFFFFFFFFFFFFFFFFFFFFFFFFFFFFFF NOT AND PUSH1 0x20 DUP3 ADD DUP1 MLOAD PUSH28 0xFFFFFFFFFFFFFFFFFFFFFFFFFFFFFFFFFFFFFFFFFFFFFFFFFFFFFFFF DUP4 DUP2 DUP4 AND OR DUP4 MSTORE POP POP POP POP PUSH2 0x8BA JUMP JUMPDEST POP JUMP JUMPDEST PUSH2 0x67D DUP2 PUSH1 0x40 MLOAD PUSH1 0x24 ADD PUSH2 0x5FB SWAP2 SWAP1 PUSH2 0xB79 JUMP JUMPDEST PUSH1 0x40 MLOAD PUSH1 0x20 DUP2 DUP4 SUB SUB DUP2 MSTORE SWAP1 PUSH1 0x40 MSTORE PUSH32 0x2C2ECBC200000000000000000000000000000000000000000000000000000000 PUSH28 0xFFFFFFFFFFFFFFFFFFFFFFFFFFFFFFFFFFFFFFFFFFFFFFFFFFFFFFFF NOT AND PUSH1 0x20 DUP3 ADD DUP1 MLOAD PUSH28 0xFFFFFFFFFFFFFFFFFFFFFFFFFFFFFFFFFFFFFFFFFFFFFFFFFFFFFFFF DUP4 DUP2 DUP4 AND OR DUP4 MSTORE POP POP POP POP PUSH2 0x8BA JUMP JUMPDEST POP JUMP JUMPDEST PUSH2 0x716 DUP2 PUSH1 0x40 MLOAD PUSH1 0x24 ADD PUSH2 0x694 SWAP2 SWAP1 PUSH2 0xCD3 JUMP JUMPDEST PUSH1 0x40 MLOAD PUSH1 0x20 DUP2 DUP4 SUB SUB DUP2 MSTORE SWAP1 PUSH1 0x40 MSTORE PUSH32 0xF5B1BBA900000000000000000000000000000000000000000000000000000000 PUSH28 0xFFFFFFFFFFFFFFFFFFFFFFFFFFFFFFFFFFFFFFFFFFFFFFFFFFFFFFFF NOT AND PUSH1 0x20 DUP3 ADD DUP1 MLOAD PUSH28 0xFFFFFFFFFFFFFFFFFFFFFFFFFFFFFFFFFFFFFFFFFFFFFFFFFFFFFFFF DUP4 DUP2 DUP4 AND OR DUP4 MSTORE POP POP POP POP PUSH2 0x8BA JUMP JUMPDEST POP JUMP JUMPDEST PUSH1 0x0 PUSH1 0x40 MLOAD PUSH32 0x3D602D80600A3D3981F3363D3D373D3D3D363D73000000000000000000000000 DUP2 MSTORE DUP3 PUSH1 0x60 SHL PUSH1 0x14 DUP3 ADD MSTORE PUSH32 0x5AF43D82803E903D91602B57FD5BF30000000000000000000000000000000000 PUSH1 0x28 DUP3 ADD MSTORE PUSH1 0x37 DUP2 PUSH1 0x0 CREATE SWAP2 POP POP PUSH1 0x0 PUSH20 0xFFFFFFFFFFFFFFFFFFFFFFFFFFFFFFFFFFFFFFFF AND DUP2 PUSH20 0xFFFFFFFFFFFFFFFFFFFFFFFFFFFFFFFFFFFFFFFF AND EQ ISZERO PUSH2 0x7E9 JUMPI PUSH1 0x40 MLOAD PUSH32 0x8C379A000000000000000000000000000000000000000000000000000000000 DUP2 MSTORE PUSH1 0x4 ADD PUSH2 0x7E0 SWAP1 PUSH2 0xC93 JUMP JUMPDEST PUSH1 0x40 MLOAD DUP1 SWAP2 SUB SWAP1 REVERT JUMPDEST SWAP2 SWAP1 POP JUMP JUMPDEST PUSH1 0x0 CALLER SWAP1 POP SWAP1 JUMP JUMPDEST PUSH1 0x0 DUP1 PUSH1 0x0 SWAP1 SLOAD SWAP1 PUSH2 0x100 EXP SWAP1 DIV PUSH20 0xFFFFFFFFFFFFFFFFFFFFFFFFFFFFFFFFFFFFFFFF AND SWAP1 POP DUP2 PUSH1 0x0 DUP1 PUSH2 0x100 EXP DUP2 SLOAD DUP2 PUSH20 0xFFFFFFFFFFFFFFFFFFFFFFFFFFFFFFFFFFFFFFFF MUL NOT AND SWAP1 DUP4 PUSH20 0xFFFFFFFFFFFFFFFFFFFFFFFFFFFFFFFFFFFFFFFF AND MUL OR SWAP1 SSTORE POP DUP2 PUSH20 0xFFFFFFFFFFFFFFFFFFFFFFFFFFFFFFFFFFFFFFFF AND DUP2 PUSH20 0xFFFFFFFFFFFFFFFFFFFFFFFFFFFFFFFFFFFFFFFF AND PUSH32 0x8BE0079C531659141344CD1FD0A4F28419497F9722A3DAAFE3B4186F6B6457E0 PUSH1 0x40 MLOAD PUSH1 0x40 MLOAD DUP1 SWAP2 SUB SWAP1 LOG3 POP POP JUMP JUMPDEST PUSH1 0x0 DUP2 MLOAD SWAP1 POP PUSH1 0x0 PUSH11 0x636F6E736F6C652E6C6F67 SWAP1 POP PUSH1 0x20 DUP4 ADD PUSH1 0x0 DUP1 DUP5 DUP4 DUP6 GAS STATICCALL POP POP POP POP POP JUMP JUMPDEST PUSH1 0x0 PUSH2 0x8F6 PUSH2 0x8F1 DUP5 PUSH2 0xD13 JUMP JUMPDEST PUSH2 0xCEE JUMP JUMPDEST SWAP1 POP DUP3 DUP2 MSTORE PUSH1 0x20 DUP2 ADD DUP5 DUP5 DUP5 ADD GT ISZERO PUSH2 0x912 JUMPI PUSH2 0x911 PUSH2 0xE84 JUMP JUMPDEST JUMPDEST PUSH2 0x91D DUP5 DUP3 DUP6 PUSH2 0xDAE JUMP JUMPDEST POP SWAP4 SWAP3 POP POP POP JUMP JUMPDEST PUSH1 0x0 DUP2 CALLDATALOAD SWAP1 POP PUSH2 0x934 DUP2 PUSH2 0xF45 JUMP JUMPDEST SWAP3 SWAP2 POP POP JUMP JUMPDEST PUSH1 0x0 DUP2 CALLDATALOAD SWAP1 POP PUSH2 0x949 DUP2 PUSH2 0xF5C JUMP JUMPDEST SWAP3 SWAP2 POP POP JUMP JUMPDEST PUSH1 0x0 DUP3 PUSH1 0x1F DUP4 ADD SLT PUSH2 0x964 JUMPI PUSH2 0x963 PUSH2 0xE7F JUMP JUMPDEST JUMPDEST DUP2 CALLDATALOAD PUSH2 0x974 DUP5 DUP3 PUSH1 0x20 DUP7 ADD PUSH2 0x8E3 JUMP JUMPDEST SWAP2 POP POP SWAP3 SWAP2 POP POP JUMP JUMPDEST PUSH1 0x0 DUP2 CALLDATALOAD SWAP1 POP PUSH2 0x98C DUP2 PUSH2 0xF73 JUMP JUMPDEST SWAP3 SWAP2 POP POP JUMP JUMPDEST PUSH1 0x0 PUSH1 0x20 DUP3 DUP5 SUB SLT ISZERO PUSH2 0x9A8 JUMPI PUSH2 0x9A7 PUSH2 0xE8E JUMP JUMPDEST JUMPDEST PUSH1 0x0 PUSH2 0x9B6 DUP5 DUP3 DUP6 ADD PUSH2 0x925 JUMP JUMPDEST SWAP2 POP POP SWAP3 SWAP2 POP POP JUMP JUMPDEST PUSH1 0x0 DUP1 PUSH1 0x0 DUP1 PUSH1 0x0 DUP1 PUSH1 0x0 PUSH1 0xE0 DUP9 DUP11 SUB SLT ISZERO PUSH2 0x9DE JUMPI PUSH2 0x9DD PUSH2 0xE8E JUMP JUMPDEST JUMPDEST PUSH1 0x0 DUP9 ADD CALLDATALOAD PUSH8 0xFFFFFFFFFFFFFFFF DUP2 GT ISZERO PUSH2 0x9FC JUMPI PUSH2 0x9FB PUSH2 0xE89 JUMP JUMPDEST JUMPDEST PUSH2 0xA08 DUP11 DUP3 DUP12 ADD PUSH2 0x94F JUMP JUMPDEST SWAP8 POP POP PUSH1 0x20 PUSH2 0xA19 DUP11 DUP3 DUP12 ADD PUSH2 0x97D JUMP JUMPDEST SWAP7 POP POP PUSH1 0x40 PUSH2 0xA2A DUP11 DUP3 DUP12 ADD PUSH2 0x97D JUMP JUMPDEST SWAP6 POP POP PUSH1 0x60 PUSH2 0xA3B DUP11 DUP3 DUP12 ADD PUSH2 0x97D JUMP JUMPDEST SWAP5 POP POP PUSH1 0x80 PUSH2 0xA4C DUP11 DUP3 DUP12 ADD PUSH2 0x97D JUMP JUMPDEST SWAP4 POP POP PUSH1 0xA0 PUSH2 0xA5D DUP11 DUP3 DUP12 ADD PUSH2 0x97D JUMP JUMPDEST SWAP3 POP POP PUSH1 0xC0 PUSH2 0xA6E DUP11 DUP3 DUP12 ADD PUSH2 0x93A JUMP JUMPDEST SWAP2 POP POP SWAP3 SWAP6 SWAP9 SWAP2 SWAP5 SWAP8 POP SWAP3 SWAP6 POP JUMP JUMPDEST PUSH1 0x0 PUSH1 0x20 DUP3 DUP5 SUB SLT ISZERO PUSH2 0xA93 JUMPI PUSH2 0xA92 PUSH2 0xE8E JUMP JUMPDEST JUMPDEST PUSH1 0x0 PUSH2 0xAA1 DUP5 DUP3 DUP6 ADD PUSH2 0x97D JUMP JUMPDEST SWAP2 POP POP SWAP3 SWAP2 POP POP JUMP JUMPDEST PUSH2 0xAB3 DUP2 PUSH2 0xD72 JUMP JUMPDEST DUP3 MSTORE POP POP JUMP JUMPDEST PUSH2 0xAC2 DUP2 PUSH2 0xD60 JUMP JUMPDEST DUP3 MSTORE POP POP JUMP JUMPDEST PUSH1 0x0 PUSH2 0xAD3 DUP3 PUSH2 0xD44 JUMP JUMPDEST PUSH2 0xADD DUP2 DUP6 PUSH2 0xD4F JUMP JUMPDEST SWAP4 POP PUSH2 0xAED DUP2 DUP6 PUSH1 0x20 DUP7 ADD PUSH2 0xDBD JUMP JUMPDEST PUSH2 0xAF6 DUP2 PUSH2 0xE93 JUMP JUMPDEST DUP5 ADD SWAP2 POP POP SWAP3 SWAP2 POP POP JUMP JUMPDEST PUSH1 0x0 PUSH2 0xB0E PUSH1 0x26 DUP4 PUSH2 0xD4F JUMP JUMPDEST SWAP2 POP PUSH2 0xB19 DUP3 PUSH2 0xEA4 JUMP JUMPDEST PUSH1 0x40 DUP3 ADD SWAP1 POP SWAP2 SWAP1 POP JUMP JUMPDEST PUSH1 0x0 PUSH2 0xB31 PUSH1 0x16 DUP4 PUSH2 0xD4F JUMP JUMPDEST SWAP2 POP PUSH2 0xB3C DUP3 PUSH2 0xEF3 JUMP JUMPDEST PUSH1 0x20 DUP3 ADD SWAP1 POP SWAP2 SWAP1 POP JUMP JUMPDEST PUSH1 0x0 PUSH2 0xB54 PUSH1 0x20 DUP4 PUSH2 0xD4F JUMP JUMPDEST SWAP2 POP PUSH2 0xB5F DUP3 PUSH2 0xF1C JUMP JUMPDEST PUSH1 0x20 DUP3 ADD SWAP1 POP SWAP2 SWAP1 POP JUMP JUMPDEST PUSH2 0xB73 DUP2 PUSH2 0xDA4 JUMP JUMPDEST DUP3 MSTORE POP POP JUMP JUMPDEST PUSH1 0x0 PUSH1 0x20 DUP3 ADD SWAP1 POP PUSH2 0xB8E PUSH1 0x0 DUP4 ADD DUP5 PUSH2 0xAB9 JUMP JUMPDEST SWAP3 SWAP2 POP POP JUMP JUMPDEST PUSH1 0x0 PUSH1 0x40 DUP3 ADD SWAP1 POP PUSH2 0xBA9 PUSH1 0x0 DUP4 ADD DUP6 PUSH2 0xAB9 JUMP JUMPDEST PUSH2 0xBB6 PUSH1 0x20 DUP4 ADD DUP5 PUSH2 0xAB9 JUMP JUMPDEST SWAP4 SWAP3 POP POP POP JUMP JUMPDEST PUSH1 0x0 PUSH2 0x120 DUP3 ADD SWAP1 POP PUSH2 0xBD3 PUSH1 0x0 DUP4 ADD DUP13 PUSH2 0xAB9 JUMP JUMPDEST DUP2 DUP2 SUB PUSH1 0x20 DUP4 ADD MSTORE PUSH2 0xBE5 DUP2 DUP12 PUSH2 0xAC8 JUMP JUMPDEST SWAP1 POP PUSH2 0xBF4 PUSH1 0x40 DUP4 ADD DUP11 PUSH2 0xB6A JUMP JUMPDEST PUSH2 0xC01 PUSH1 0x60 DUP4 ADD DUP10 PUSH2 0xB6A JUMP JUMPDEST PUSH2 0xC0E PUSH1 0x80 DUP4 ADD DUP9 PUSH2 0xB6A JUMP JUMPDEST PUSH2 0xC1B PUSH1 0xA0 DUP4 ADD DUP8 PUSH2 0xB6A JUMP JUMPDEST PUSH2 0xC28 PUSH1 0xC0 DUP4 ADD DUP7 PUSH2 0xB6A JUMP JUMPDEST PUSH2 0xC35 PUSH1 0xE0 DUP4 ADD DUP6 PUSH2 0xAB9 JUMP JUMPDEST PUSH2 0xC43 PUSH2 0x100 DUP4 ADD DUP5 PUSH2 0xAAA JUMP JUMPDEST SWAP11 SWAP10 POP POP POP POP POP POP POP POP POP POP JUMP JUMPDEST PUSH1 0x0 PUSH1 0x20 DUP3 ADD SWAP1 POP DUP2 DUP2 SUB PUSH1 0x0 DUP4 ADD MSTORE PUSH2 0xC6B DUP2 DUP5 PUSH2 0xAC8 JUMP JUMPDEST SWAP1 POP SWAP3 SWAP2 POP POP JUMP JUMPDEST PUSH1 0x0 PUSH1 0x20 DUP3 ADD SWAP1 POP DUP2 DUP2 SUB PUSH1 0x0 DUP4 ADD MSTORE PUSH2 0xC8C DUP2 PUSH2 0xB01 JUMP JUMPDEST SWAP1 POP SWAP2 SWAP1 POP JUMP JUMPDEST PUSH1 0x0 PUSH1 0x20 DUP3 ADD SWAP1 POP DUP2 DUP2 SUB PUSH1 0x0 DUP4 ADD MSTORE PUSH2 0xCAC DUP2 PUSH2 0xB24 JUMP JUMPDEST SWAP1 POP SWAP2 SWAP1 POP JUMP JUMPDEST PUSH1 0x0 PUSH1 0x20 DUP3 ADD SWAP1 POP DUP2 DUP2 SUB PUSH1 0x0 DUP4 ADD MSTORE PUSH2 0xCCC DUP2 PUSH2 0xB47 JUMP JUMPDEST SWAP1 POP SWAP2 SWAP1 POP JUMP JUMPDEST PUSH1 0x0 PUSH1 0x20 DUP3 ADD SWAP1 POP PUSH2 0xCE8 PUSH1 0x0 DUP4 ADD DUP5 PUSH2 0xB6A JUMP JUMPDEST SWAP3 SWAP2 POP POP JUMP JUMPDEST PUSH1 0x0 PUSH2 0xCF8 PUSH2 0xD09 JUMP JUMPDEST SWAP1 POP PUSH2 0xD04 DUP3 DUP3 PUSH2 0xDF0 JUMP JUMPDEST SWAP2 SWAP1 POP JUMP JUMPDEST PUSH1 0x0 PUSH1 0x40 MLOAD SWAP1 POP SWAP1 JUMP JUMPDEST PUSH1 0x0 PUSH8 0xFFFFFFFFFFFFFFFF DUP3 GT ISZERO PUSH2 0xD2E JUMPI PUSH2 0xD2D PUSH2 0xE50 JUMP JUMPDEST JUMPDEST PUSH2 0xD37 DUP3 PUSH2 0xE93 JUMP JUMPDEST SWAP1 POP PUSH1 0x20 DUP2 ADD SWAP1 POP SWAP2 SWAP1 POP JUMP JUMPDEST PUSH1 0x0 DUP2 MLOAD SWAP1 POP SWAP2 SWAP1 POP JUMP JUMPDEST PUSH1 0x0 DUP3 DUP3 MSTORE PUSH1 0x20 DUP3 ADD SWAP1 POP SWAP3 SWAP2 POP POP JUMP JUMPDEST PUSH1 0x0 PUSH2 0xD6B DUP3 PUSH2 0xD84 JUMP JUMPDEST SWAP1 POP SWAP2 SWAP1 POP JUMP JUMPDEST PUSH1 0x0 PUSH2 0xD7D DUP3 PUSH2 0xD84 JUMP JUMPDEST SWAP1 POP SWAP2 SWAP1 POP JUMP JUMPDEST PUSH1 0x0 PUSH20 0xFFFFFFFFFFFFFFFFFFFFFFFFFFFFFFFFFFFFFFFF DUP3 AND SWAP1 POP SWAP2 SWAP1 POP JUMP JUMPDEST PUSH1 0x0 DUP2 SWAP1 POP SWAP2 SWAP1 POP JUMP JUMPDEST DUP3 DUP2 DUP4 CALLDATACOPY PUSH1 0x0 DUP4 DUP4 ADD MSTORE POP POP POP JUMP JUMPDEST PUSH1 0x0 JUMPDEST DUP4 DUP2 LT ISZERO PUSH2 0xDDB JUMPI DUP1 DUP3 ADD MLOAD DUP2 DUP5 ADD MSTORE PUSH1 0x20 DUP2 ADD SWAP1 POP PUSH2 0xDC0 JUMP JUMPDEST DUP4 DUP2 GT ISZERO PUSH2 0xDEA JUMPI PUSH1 0x0 DUP5 DUP5 ADD MSTORE JUMPDEST POP POP POP POP JUMP JUMPDEST PUSH2 0xDF9 DUP3 PUSH2 0xE93 JUMP JUMPDEST DUP2 ADD DUP2 DUP2 LT PUSH8 0xFFFFFFFFFFFFFFFF DUP3 GT OR ISZERO PUSH2 0xE18 JUMPI PUSH2 0xE17 PUSH2 0xE50 JUMP JUMPDEST JUMPDEST DUP1 PUSH1 0x40 MSTORE POP POP POP JUMP JUMPDEST PUSH32 0x4E487B7100000000000000000000000000000000000000000000000000000000 PUSH1 0x0 MSTORE PUSH1 0x32 PUSH1 0x4 MSTORE PUSH1 0x24 PUSH1 0x0 REVERT JUMPDEST PUSH32 0x4E487B7100000000000000000000000000000000000000000000000000000000 PUSH1 0x0 MSTORE PUSH1 0x41 PUSH1 0x4 MSTORE PUSH1 0x24 PUSH1 0x0 REVERT JUMPDEST PUSH1 0x0 DUP1 REVERT JUMPDEST PUSH1 0x0 DUP1 REVERT JUMPDEST PUSH1 0x0 DUP1 REVERT JUMPDEST PUSH1 0x0 DUP1 REVERT JUMPDEST PUSH1 0x0 PUSH1 0x1F NOT PUSH1 0x1F DUP4 ADD AND SWAP1 POP SWAP2 SWAP1 POP JUMP JUMPDEST PUSH32 0x4F776E61626C653A206E6577206F776E657220697320746865207A65726F2061 PUSH1 0x0 DUP3 ADD MSTORE PUSH32 0x6464726573730000000000000000000000000000000000000000000000000000 PUSH1 0x20 DUP3 ADD MSTORE POP JUMP JUMPDEST PUSH32 0x455243313136373A20637265617465206661696C656400000000000000000000 PUSH1 0x0 DUP3 ADD MSTORE POP JUMP JUMPDEST PUSH32 0x4F776E61626C653A2063616C6C6572206973206E6F7420746865206F776E6572 PUSH1 0x0 DUP3 ADD MSTORE POP JUMP JUMPDEST PUSH2 0xF4E DUP2 PUSH2 0xD60 JUMP JUMPDEST DUP2 EQ PUSH2 0xF59 JUMPI PUSH1 0x0 DUP1 REVERT JUMPDEST POP JUMP JUMPDEST PUSH2 0xF65 DUP2 PUSH2 0xD72 JUMP JUMPDEST DUP2 EQ PUSH2 0xF70 JUMPI PUSH1 0x0 DUP1 REVERT JUMPDEST POP JUMP JUMPDEST PUSH2 0xF7C DUP2 PUSH2 0xDA4 JUMP JUMPDEST DUP2 EQ PUSH2 0xF87 JUMPI PUSH1 0x0 DUP1 REVERT JUMPDEST POP JUMP INVALID 0x49 PUSH15 0x736964652042616E6B466163746F72 PUSH26 0x2E63726561746542616E6B2E20506172616D65746572733A20A2 PUSH5 0x6970667358 0x22 SLT KECCAK256 SWAP6 TIMESTAMP XOR AND 0xE1 DUP2 SWAP15 LT PUSH22 0x538E7E99D401DDEBE1E8356991B897FDF211929F6ED GASLIMIT PUSH5 0x736F6C6343 STOP ADDMOD MOD STOP CALLER TIMESTAMP PUSH2 0x6E6B CHAINID PUSH2 0x6374 PUSH16 0x727920636F6E7374727563746F722063 PUSH2 0x6C6C PUSH6 0x642077697468 KECCAK256 PUSH3 0x616E6B COINBASE PUSH5 0x6472657373 GASPRICE KECCAK256 "
    }
  }
}