{
  "contractName": "Bank",
  "abi": [
    {
      "inputs": [
        {
          "internalType": "uint256",
          "name": "interestRate",
          "type": "uint256"
        },
        {
          "internalType": "uint256",
          "name": "originationFee",
          "type": "uint256"
        },
        {
          "internalType": "uint256",
          "name": "collateralizationRatio",
          "type": "uint256"
        },
        {
          "internalType": "uint256",
          "name": "liquidationPenalty",
          "type": "uint256"
        },
        {
          "internalType": "uint256",
          "name": "period",
          "type": "uint256"
        },
        {
          "internalType": "address",
          "name": "collateralToken",
          "type": "address"
        },
        {
          "internalType": "uint256",
          "name": "collateralTokenTellorRequestId",
          "type": "uint256"
        },
        {
          "internalType": "uint256",
          "name": "collateralTokenPriceGranularity",
          "type": "uint256"
        },
        {
          "internalType": "uint256",
          "name": "collateralTokenPrice",
          "type": "uint256"
        },
        {
          "internalType": "address",
          "name": "debtToken",
          "type": "address"
        },
        {
          "internalType": "uint256",
          "name": "debtTokenTellorRequestId",
          "type": "uint256"
        },
        {
          "internalType": "uint256",
          "name": "debtTokenPriceGranularity",
          "type": "uint256"
        },
        {
          "internalType": "uint256",
          "name": "debtTokenPrice",
          "type": "uint256"
        },
        {
          "internalType": "address payable",
          "name": "oracleContract",
          "type": "address"
        }
      ],
      "payable": false,
      "stateMutability": "nonpayable",
      "type": "constructor"
    },
    {
      "anonymous": false,
      "inputs": [
        {
          "indexed": false,
          "internalType": "address",
          "name": "borrower",
          "type": "address"
        },
        {
          "indexed": false,
          "internalType": "uint256",
          "name": "debtAmount",
          "type": "uint256"
        }
      ],
      "name": "Liquidation",
      "type": "event"
    },
    {
      "anonymous": false,
      "inputs": [
        {
          "indexed": false,
          "internalType": "address",
          "name": "_descriptorSet",
          "type": "address"
        }
      ],
      "name": "NewDescriptorSet",
      "type": "event"
    },
    {
      "anonymous": false,
      "inputs": [
        {
          "indexed": true,
          "internalType": "address",
          "name": "previousOwner",
          "type": "address"
        },
        {
          "indexed": true,
          "internalType": "address",
          "name": "newOwner",
          "type": "address"
        }
      ],
      "name": "OwnershipTransferred",
      "type": "event"
    },
    {
      "anonymous": false,
      "inputs": [
        {
          "indexed": false,
          "internalType": "address",
          "name": "token",
          "type": "address"
        },
        {
          "indexed": false,
          "internalType": "uint256",
          "name": "price",
          "type": "uint256"
        }
      ],
      "name": "PriceUpdate",
      "type": "event"
    },
    {
      "anonymous": false,
      "inputs": [
        {
          "indexed": false,
          "internalType": "uint256",
          "name": "amount",
          "type": "uint256"
        }
      ],
      "name": "ReserveDeposit",
      "type": "event"
    },
    {
      "anonymous": false,
      "inputs": [
        {
          "indexed": false,
          "internalType": "address",
          "name": "token",
          "type": "address"
        },
        {
          "indexed": false,
          "internalType": "uint256",
          "name": "amount",
          "type": "uint256"
        }
      ],
      "name": "ReserveWithdraw",
      "type": "event"
    },
    {
      "anonymous": false,
      "inputs": [
        {
          "indexed": false,
          "internalType": "address",
          "name": "borrower",
          "type": "address"
        },
        {
          "indexed": false,
          "internalType": "uint256",
          "name": "amount",
          "type": "uint256"
        }
      ],
      "name": "VaultBorrow",
      "type": "event"
    },
    {
      "anonymous": false,
      "inputs": [
        {
          "indexed": false,
          "internalType": "address",
          "name": "owner",
          "type": "address"
        },
        {
          "indexed": false,
          "internalType": "uint256",
          "name": "amount",
          "type": "uint256"
        }
      ],
      "name": "VaultDeposit",
      "type": "event"
    },
    {
      "anonymous": false,
      "inputs": [
        {
          "indexed": false,
          "internalType": "address",
          "name": "borrower",
          "type": "address"
        },
        {
          "indexed": false,
          "internalType": "uint256",
          "name": "amount",
          "type": "uint256"
        }
      ],
      "name": "VaultRepay",
      "type": "event"
    },
    {
      "anonymous": false,
      "inputs": [
        {
          "indexed": false,
          "internalType": "address",
          "name": "borrower",
          "type": "address"
        },
        {
          "indexed": false,
          "internalType": "uint256",
          "name": "amount",
          "type": "uint256"
        }
      ],
      "name": "VaultWithdraw",
      "type": "event"
    },
    {
      "constant": true,
      "inputs": [],
      "name": "getCollateralTokenAddress",
      "outputs": [
        {
          "internalType": "address",
          "name": "",
          "type": "address"
        }
      ],
      "payable": false,
      "stateMutability": "view",
      "type": "function"
    },
    {
      "constant": true,
      "inputs": [],
      "name": "getCollateralTokenPrice",
      "outputs": [
        {
          "internalType": "uint256",
          "name": "",
          "type": "uint256"
        }
      ],
      "payable": false,
      "stateMutability": "view",
      "type": "function"
    },
    {
      "constant": true,
      "inputs": [],
      "name": "getCollateralTokenPriceGranularity",
      "outputs": [
        {
          "internalType": "uint256",
          "name": "",
          "type": "uint256"
        }
      ],
      "payable": false,
      "stateMutability": "view",
      "type": "function"
    },
    {
      "constant": true,
      "inputs": [],
      "name": "getCollateralizationRatio",
      "outputs": [
        {
          "internalType": "uint256",
          "name": "",
          "type": "uint256"
        }
      ],
      "payable": false,
      "stateMutability": "view",
      "type": "function"
    },
    {
      "constant": true,
      "inputs": [
        {
          "internalType": "uint256",
          "name": "_requestId",
          "type": "uint256"
        }
      ],
      "name": "getCurrentValue",
      "outputs": [
        {
          "internalType": "bool",
          "name": "ifRetrieve",
          "type": "bool"
        },
        {
          "internalType": "uint256",
          "name": "value",
          "type": "uint256"
        },
        {
          "internalType": "uint256",
          "name": "_timestampRetrieved",
          "type": "uint256"
        }
      ],
      "payable": false,
      "stateMutability": "view",
      "type": "function"
    },
    {
      "constant": true,
      "inputs": [],
      "name": "getDebtTokenAddress",
      "outputs": [
        {
          "internalType": "address",
          "name": "",
          "type": "address"
        }
      ],
      "payable": false,
      "stateMutability": "view",
      "type": "function"
    },
    {
      "constant": true,
      "inputs": [],
      "name": "getDebtTokenPrice",
      "outputs": [
        {
          "internalType": "uint256",
          "name": "",
          "type": "uint256"
        }
      ],
      "payable": false,
      "stateMutability": "view",
      "type": "function"
    },
    {
      "constant": true,
      "inputs": [],
      "name": "getDebtTokenPriceGranularity",
      "outputs": [
        {
          "internalType": "uint256",
          "name": "",
          "type": "uint256"
        }
      ],
      "payable": false,
      "stateMutability": "view",
      "type": "function"
    },
    {
      "constant": true,
      "inputs": [],
      "name": "getInterestRate",
      "outputs": [
        {
          "internalType": "uint256",
          "name": "",
          "type": "uint256"
        }
      ],
      "payable": false,
      "stateMutability": "view",
      "type": "function"
    },
    {
      "constant": true,
      "inputs": [],
      "name": "getLiquidationPenalty",
      "outputs": [
        {
          "internalType": "uint256",
          "name": "",
          "type": "uint256"
        }
      ],
      "payable": false,
      "stateMutability": "view",
      "type": "function"
    },
    {
      "constant": true,
      "inputs": [],
      "name": "getOriginationFee",
      "outputs": [
        {
          "internalType": "uint256",
          "name": "",
          "type": "uint256"
        }
      ],
      "payable": false,
      "stateMutability": "view",
      "type": "function"
    },
    {
      "constant": true,
      "inputs": [],
      "name": "getReserveBalance",
      "outputs": [
        {
          "internalType": "uint256",
          "name": "",
          "type": "uint256"
        }
      ],
      "payable": false,
      "stateMutability": "view",
      "type": "function"
    },
    {
      "constant": true,
      "inputs": [],
      "name": "getReserveCollateralBalance",
      "outputs": [
        {
          "internalType": "uint256",
          "name": "",
          "type": "uint256"
        }
      ],
      "payable": false,
      "stateMutability": "view",
      "type": "function"
    },
    {
      "constant": true,
      "inputs": [],
      "name": "getVaultCollateralAmount",
      "outputs": [
        {
          "internalType": "uint256",
          "name": "",
          "type": "uint256"
        }
      ],
      "payable": false,
      "stateMutability": "view",
      "type": "function"
    },
    {
      "constant": true,
      "inputs": [
        {
          "internalType": "address",
          "name": "vaultOwner",
          "type": "address"
        }
      ],
      "name": "getVaultCollateralizationRatio",
      "outputs": [
        {
          "internalType": "uint256",
          "name": "",
          "type": "uint256"
        }
      ],
      "payable": false,
      "stateMutability": "view",
      "type": "function"
    },
    {
      "constant": true,
      "inputs": [],
      "name": "getVaultDebtAmount",
      "outputs": [
        {
          "internalType": "uint256",
          "name": "",
          "type": "uint256"
        }
      ],
      "payable": false,
      "stateMutability": "view",
      "type": "function"
    },
    {
      "constant": true,
      "inputs": [],
      "name": "getVaultRepayAmount",
      "outputs": [
        {
          "internalType": "uint256",
          "name": "principal",
          "type": "uint256"
        }
      ],
      "payable": false,
      "stateMutability": "view",
      "type": "function"
    },
    {
      "constant": true,
      "inputs": [],
      "name": "isOwner",
      "outputs": [
        {
          "internalType": "bool",
          "name": "",
          "type": "bool"
        }
      ],
      "payable": false,
      "stateMutability": "view",
      "type": "function"
    },
    {
      "constant": true,
      "inputs": [],
      "name": "oracleIDDescriptionsAddress",
      "outputs": [
        {
          "internalType": "address",
          "name": "",
          "type": "address"
        }
      ],
      "payable": false,
      "stateMutability": "view",
      "type": "function"
    },
    {
      "constant": true,
      "inputs": [],
      "name": "owner",
      "outputs": [
        {
          "internalType": "address",
          "name": "",
          "type": "address"
        }
      ],
      "payable": false,
      "stateMutability": "view",
      "type": "function"
    },
    {
      "constant": false,
      "inputs": [],
      "name": "renounceOwnership",
      "outputs": [],
      "payable": false,
      "stateMutability": "nonpayable",
      "type": "function"
    },
    {
      "constant": false,
      "inputs": [
        {
          "internalType": "address",
          "name": "_oracleDescriptors",
          "type": "address"
        }
      ],
      "name": "setOracleIDDescriptors",
      "outputs": [],
      "payable": false,
      "stateMutability": "nonpayable",
      "type": "function"
    },
    {
      "constant": true,
      "inputs": [],
      "name": "tellorStorageAddress",
      "outputs": [
        {
          "internalType": "address payable",
          "name": "",
          "type": "address"
        }
      ],
      "payable": false,
      "stateMutability": "view",
      "type": "function"
    },
    {
      "constant": false,
      "inputs": [
        {
          "internalType": "address",
          "name": "newOwner",
          "type": "address"
        }
      ],
      "name": "transferOwnership",
      "outputs": [],
      "payable": false,
      "stateMutability": "nonpayable",
      "type": "function"
    },
    {
      "constant": true,
      "inputs": [
        {
          "internalType": "bytes32",
          "name": "_bytesId",
          "type": "bytes32"
        }
      ],
      "name": "valueFor",
      "outputs": [
        {
          "internalType": "int256",
          "name": "value",
          "type": "int256"
        },
        {
          "internalType": "uint256",
          "name": "timestamp",
          "type": "uint256"
        },
        {
          "internalType": "uint256",
          "name": "status",
          "type": "uint256"
        }
      ],
      "payable": false,
      "stateMutability": "view",
      "type": "function"
    },
    {
      "constant": true,
      "inputs": [
        {
          "internalType": "address",
          "name": "",
          "type": "address"
        }
      ],
      "name": "vaults",
      "outputs": [
        {
          "internalType": "uint256",
          "name": "collateralAmount",
          "type": "uint256"
        },
        {
          "internalType": "uint256",
          "name": "debtAmount",
          "type": "uint256"
        },
        {
          "internalType": "uint256",
          "name": "createdAt",
          "type": "uint256"
        }
      ],
      "payable": false,
      "stateMutability": "view",
      "type": "function"
    },
    {
      "constant": false,
      "inputs": [
        {
          "internalType": "uint256",
          "name": "amount",
          "type": "uint256"
        }
      ],
      "name": "reserveDeposit",
      "outputs": [],
      "payable": false,
      "stateMutability": "nonpayable",
      "type": "function"
    },
    {
      "constant": false,
      "inputs": [
        {
          "internalType": "uint256",
          "name": "amount",
          "type": "uint256"
        }
      ],
      "name": "reserveWithdraw",
      "outputs": [],
      "payable": false,
      "stateMutability": "nonpayable",
      "type": "function"
    },
    {
      "constant": false,
      "inputs": [
        {
          "internalType": "uint256",
          "name": "amount",
          "type": "uint256"
        }
      ],
      "name": "reserveWithdrawCollateral",
      "outputs": [],
      "payable": false,
      "stateMutability": "nonpayable",
      "type": "function"
    },
    {
      "constant": false,
      "inputs": [],
      "name": "updateCollateralPrice",
      "outputs": [],
      "payable": false,
      "stateMutability": "nonpayable",
      "type": "function"
    },
    {
      "constant": false,
      "inputs": [],
      "name": "updateDebtPrice",
      "outputs": [],
      "payable": false,
      "stateMutability": "nonpayable",
      "type": "function"
    },
    {
      "constant": false,
      "inputs": [
        {
          "internalType": "address",
          "name": "vaultOwner",
          "type": "address"
        }
      ],
      "name": "liquidate",
      "outputs": [],
      "payable": false,
      "stateMutability": "nonpayable",
      "type": "function"
    },
    {
      "constant": false,
      "inputs": [
        {
          "internalType": "uint256",
          "name": "amount",
          "type": "uint256"
        }
      ],
      "name": "vaultDeposit",
      "outputs": [],
      "payable": false,
      "stateMutability": "nonpayable",
      "type": "function"
    },
    {
      "constant": false,
      "inputs": [
        {
          "internalType": "uint256",
          "name": "amount",
          "type": "uint256"
        }
      ],
      "name": "vaultBorrow",
      "outputs": [],
      "payable": false,
      "stateMutability": "nonpayable",
      "type": "function"
    },
    {
      "constant": false,
      "inputs": [
        {
          "internalType": "uint256",
          "name": "amount",
          "type": "uint256"
        }
      ],
      "name": "vaultRepay",
      "outputs": [],
      "payable": false,
      "stateMutability": "nonpayable",
      "type": "function"
    },
    {
      "constant": false,
      "inputs": [
        {
          "internalType": "uint256",
          "name": "amount",
          "type": "uint256"
        }
      ],
      "name": "vaultWithdraw",
      "outputs": [],
      "payable": false,
      "stateMutability": "nonpayable",
      "type": "function"
    },
    {
      "constant": true,
      "inputs": [
        {
          "internalType": "uint256",
          "name": "_requestId",
          "type": "uint256"
        },
        {
          "internalType": "uint256",
          "name": "_timestamp",
          "type": "uint256"
        }
      ],
      "name": "getDataBefore",
      "outputs": [
        {
          "internalType": "bool",
          "name": "_ifRetrieve",
          "type": "bool"
        },
        {
          "internalType": "uint256",
          "name": "_value",
          "type": "uint256"
        },
        {
          "internalType": "uint256",
          "name": "_timestampRetrieved",
          "type": "uint256"
        }
      ],
      "payable": false,
      "stateMutability": "view",
      "type": "function"
    },
    {
      "constant": true,
      "inputs": [
        {
          "internalType": "uint256",
          "name": "_requestId",
          "type": "uint256"
        },
        {
          "internalType": "uint256",
          "name": "_timestamp",
          "type": "uint256"
        },
        {
          "internalType": "uint256",
          "name": "_limit",
          "type": "uint256"
        },
        {
          "internalType": "uint256",
          "name": "_offset",
          "type": "uint256"
        }
      ],
      "name": "getDataBefore",
      "outputs": [
        {
          "internalType": "bool",
          "name": "_ifRetrieve",
          "type": "bool"
        },
        {
          "internalType": "uint256",
          "name": "_value",
          "type": "uint256"
        },
        {
          "internalType": "uint256",
          "name": "_timestampRetrieved",
          "type": "uint256"
        }
      ],
      "payable": false,
      "stateMutability": "view",
      "type": "function"
    }
  ],
  "bytecode": "0x608060405234801561001057600080fd5b50604051613af5380380613af583398181016040526101c081101561003457600080fd5b8101908080519060200190929190805190602001909291908051906020019092919080519060200190929190805190602001909291908051906020019092919080519060200190929190805190602001909291908051906020019092919080519060200190929190805190602001909291908051906020019092919080519060200190929190805190602001909291905050508033601360006101000a81548173ffffffffffffffffffffffffffffffffffffffff021916908373ffffffffffffffffffffffffffffffffffffffff160217905550601360009054906101000a900473ffffffffffffffffffffffffffffffffffffffff1673ffffffffffffffffffffffffffffffffffffffff16600073ffffffffffffffffffffffffffffffffffffffff167f8be0079c531659141344cd1fd0a4f28419497f9722a3daafe3b4186f6b6457e060405160405180910390a380601460006101000a81548173ffffffffffffffffffffffffffffffffffffffff021916908373ffffffffffffffffffffffffffffffffffffffff160217905550601460009054906101000a900473ffffffffffffffffffffffffffffffffffffffff16601660006101000a81548173ffffffffffffffffffffffffffffffffffffffff021916908373ffffffffffffffffffffffffffffffffffffffff160217905550508d600b600201819055508c600b600301819055508b600b600401819055508a600b6005018190555089600b6007018190555084600160000160006101000a81548173ffffffffffffffffffffffffffffffffffffffff021916908373ffffffffffffffffffffffffffffffffffffffff160217905550816001800181905550826001600201819055508360016003018190555088600660000160006101000a81548173ffffffffffffffffffffffffffffffffffffffff021916908373ffffffffffffffffffffffffffffffffffffffff16021790555085600660010181905550866006600201819055508760066003018190555080600b60060160006101000a81548173ffffffffffffffffffffffffffffffffffffffff021916908373ffffffffffffffffffffffffffffffffffffffff1602179055505050505050505050505050505050613774806103816000396000f3fe608060405234801561001057600080fd5b50600436106102315760003560e01c806385b4e54311610130578063c969ac06116100b8578063f2fde38b1161007c578063f2fde38b146108b0578063f78eea83146108f4578063f91614eb14610944578063fb839dda14610962578063fc2e39a61461099057610231565b8063c969ac061461078a578063cb765c1d146107a8578063d267974c146107c6578063ddb2d6c514610810578063ec5e5e7d1461088257610231565b8063a622ee7c116100ff578063a622ee7c1461065a578063a8020973146106c0578063a860988c1461070a578063b71d7a6e14610728578063bb97f31d1461074657610231565b806385b4e543146105c657806386ef5738146105d05780638da5cb5b146105ee5780638f32d59b1461063857610231565b806345fd80e4116101be57806366b446111161018257806366b44611146104c8578063685a5808146105265780636d483fe614610544578063715018a61461058e5780637649b9381461059857610231565b806345fd80e4146103fa5780634fd88951146104045780635257b56614610432578063526366b4146104505780635729b3941461049a57610231565b80631e522b29116102055780631e522b29146102f85780632f86556814610316578063317c9e421461035a5780633fcad96414610378578063435726c4146103cc57610231565b806291a4461461023657806308dcd7c61461026457806315143950146102825780631b9084b4146102a0575b600080fd5b6102626004803603602081101561024c57600080fd5b81019080803590602001909291905050506109ae565b005b61026c610b99565b6040518082815260200191505060405180910390f35b61028a610ba6565b6040518082815260200191505060405180910390f35b6102e2600480360360208110156102b657600080fd5b81019080803573ffffffffffffffffffffffffffffffffffffffff169060200190929190505050610bb3565b6040518082815260200191505060405180910390f35b610300610cce565b6040518082815260200191505060405180910390f35b6103586004803603602081101561032c57600080fd5b81019080803573ffffffffffffffffffffffffffffffffffffffff169060200190929190505050610cdb565b005b610362611075565b6040518082815260200191505060405180910390f35b6103a46004803603602081101561038e57600080fd5b8101908080359060200190929190505050611082565b6040518084151515158152602001838152602001828152602001935050505060405180910390f35b6103f8600480360360208110156103e257600080fd5b81019080803590602001909291905050506110a2565b005b61040261132d565b005b6104306004803603602081101561041a57600080fd5b81019080803590602001909291905050506113ea565b005b61043a6118a8565b6040518082815260200191505060405180910390f35b6104586118b5565b604051808273ffffffffffffffffffffffffffffffffffffffff1673ffffffffffffffffffffffffffffffffffffffff16815260200191505060405180910390f35b6104c6600480360360208110156104b057600080fd5b81019080803590602001909291905050506118db565b005b6104fe600480360360408110156104de57600080fd5b810190808035906020019092919080359060200190929190505050611abc565b6040518084151515158152602001838152602001828152602001935050505060405180910390f35b61052e611e10565b6040518082815260200191505060405180910390f35b61054c611e59565b604051808273ffffffffffffffffffffffffffffffffffffffff1673ffffffffffffffffffffffffffffffffffffffff16815260200191505060405180910390f35b610596611e86565b005b6105c4600480360360208110156105ae57600080fd5b8101908080359060200190929190505050611fc1565b005b6105ce612374565b005b6105d8612433565b6040518082815260200191505060405180910390f35b6105f6612440565b604051808273ffffffffffffffffffffffffffffffffffffffff1673ffffffffffffffffffffffffffffffffffffffff16815260200191505060405180910390f35b61064061246a565b604051808215151515815260200191505060405180910390f35b61069c6004803603602081101561067057600080fd5b81019080803573ffffffffffffffffffffffffffffffffffffffff1690602001909291905050506124c2565b60405180848152602001838152602001828152602001935050505060405180910390f35b6106c86124ec565b604051808273ffffffffffffffffffffffffffffffffffffffff1673ffffffffffffffffffffffffffffffffffffffff16815260200191505060405180910390f35b610712612512565b6040518082815260200191505060405180910390f35b61073061255b565b6040518082815260200191505060405180910390f35b6107886004803603602081101561075c57600080fd5b81019080803573ffffffffffffffffffffffffffffffffffffffff169060200190929190505050612642565b005b6107926127ee565b6040518082815260200191505060405180910390f35b6107b06127fa565b6040518082815260200191505060405180910390f35b6107ce612807565b604051808273ffffffffffffffffffffffffffffffffffffffff1673ffffffffffffffffffffffffffffffffffffffff16815260200191505060405180910390f35b61085a6004803603608081101561082657600080fd5b8101908080359060200190929190803590602001909291908035906020019092919080359060200190929190505050612834565b6040518084151515158152602001838152602001828152602001935050505060405180910390f35b6108ae6004803603602081101561089857600080fd5b8101908080359060200190929190505050612b91565b005b6108f2600480360360208110156108c657600080fd5b81019080803573ffffffffffffffffffffffffffffffffffffffff169060200190929190505050612dff565b005b6109206004803603602081101561090a57600080fd5b8101908080359060200190929190505050612e85565b60405180848152602001838152602001828152602001935050505060405180910390f35b61094c61326e565b6040518082815260200191505060405180910390f35b61098e6004803603602081101561097857600080fd5b810190808035906020019092919050505061327b565b005b61099861357b565b6040518082815260200191505060405180910390f35b6109b661246a565b610a28576040517f08c379a00000000000000000000000000000000000000000000000000000000081526004018080602001828103825260208152602001807f4f776e61626c653a2063616c6c6572206973206e6f7420746865206f776e657281525060200191505060405180910390fd5b600160000160009054906101000a900473ffffffffffffffffffffffffffffffffffffffff1673ffffffffffffffffffffffffffffffffffffffff166323b872dd3330846040518463ffffffff1660e01b8152600401808473ffffffffffffffffffffffffffffffffffffffff1673ffffffffffffffffffffffffffffffffffffffff1681526020018373ffffffffffffffffffffffffffffffffffffffff1673ffffffffffffffffffffffffffffffffffffffff1681526020018281526020019350505050602060405180830381600087803b158015610b0857600080fd5b505af1158015610b1c573d6000803e3d6000fd5b505050506040513d6020811015610b3257600080fd5b8101908080519060200190929190505050610b4c57600080fd5b80600b600101600082825401925050819055507f71eb3e5df75ef293b81b4c7b38db51f7a6cec007d12529cb74d4eafb7fa53222816040518082815260200191505060405180910390a150565b6000600160020154905090565b6000600660010154905090565b6000806000808473ffffffffffffffffffffffffffffffffffffffff1673ffffffffffffffffffffffffffffffffffffffff168152602001908152602001600020600101541415610c075760009050610cc9565b610cc66006600201546103e86006600101546000808773ffffffffffffffffffffffffffffffffffffffff1673ffffffffffffffffffffffffffffffffffffffff16815260200190815260200160002060000154020281610c6457fe5b046001600201546103e860018001546000808873ffffffffffffffffffffffffffffffffffffffff1673ffffffffffffffffffffffffffffffffffffffff16815260200190815260200160002060010154020281610cbe57fe5b046004613588565b90505b919050565b6000600b60050154905090565b6064600b6004015402610ced82610bb3565b10610d60576040517f08c379a000000000000000000000000000000000000000000000000000000000815260040180806020018281038252601d8152602001807f5641554c54204e4f5420554e444552434f4c4c41544552414c495a454400000081525060200191505060405180910390fd5b6000606480600b6005015460646000808773ffffffffffffffffffffffffffffffffffffffff1673ffffffffffffffffffffffffffffffffffffffff16815260200190815260200160002060010154020281610db857fe5b0481610dc057fe5b046000808473ffffffffffffffffffffffffffffffffffffffff1673ffffffffffffffffffffffffffffffffffffffff1681526020019081526020016000206001015401905060006006600101546001800154830281610e1c57fe5b0490506000808473ffffffffffffffffffffffffffffffffffffffff1673ffffffffffffffffffffffffffffffffffffffff168152602001908152602001600020600001548111610ece5780600b60000160008282540192505081905550806000808573ffffffffffffffffffffffffffffffffffffffff1673ffffffffffffffffffffffffffffffffffffffff16815260200190815260200160002060000160008282540392505081905550610f6a565b6000808473ffffffffffffffffffffffffffffffffffffffff1673ffffffffffffffffffffffffffffffffffffffff16815260200190815260200160002060000154600b6000016000828254019250508190555060008060008573ffffffffffffffffffffffffffffffffffffffff1673ffffffffffffffffffffffffffffffffffffffff168152602001908152602001600020600001819055505b6000808473ffffffffffffffffffffffffffffffffffffffff1673ffffffffffffffffffffffffffffffffffffffff16815260200190815260200160002060010154600b6001016000828254019250508190555060008060008573ffffffffffffffffffffffffffffffffffffffff1673ffffffffffffffffffffffffffffffffffffffff168152602001908152602001600020600101819055507f6dd29d11f8d1bcdbd79da21bf92895417dcc2f8886b3db11c8a4ce00b73de9d08383604051808373ffffffffffffffffffffffffffffffffffffffff1673ffffffffffffffffffffffffffffffffffffffff1681526020018281526020019250505060405180910390a1505050565b6000600660020154905090565b6000806000611095844260016000612834565b9250925092509193909250565b6110aa61246a565b61111c576040517f08c379a00000000000000000000000000000000000000000000000000000000081526004018080602001828103825260208152602001807f4f776e61626c653a2063616c6c6572206973206e6f7420746865206f776e657281525060200191505060405180910390fd5b80600b600001541015611197576040517f08c379a00000000000000000000000000000000000000000000000000000000081526004018080602001828103825260208152602001807f4e4f5420454e4f55474820434f4c4c41544552414c20494e205245534552564581525060200191505060405180910390fd5b600660000160009054906101000a900473ffffffffffffffffffffffffffffffffffffffff1673ffffffffffffffffffffffffffffffffffffffff1663a9059cbb33836040518363ffffffff1660e01b8152600401808373ffffffffffffffffffffffffffffffffffffffff1673ffffffffffffffffffffffffffffffffffffffff16815260200182815260200192505050602060405180830381600087803b15801561124357600080fd5b505af1158015611257573d6000803e3d6000fd5b505050506040513d602081101561126d57600080fd5b810190808051906020019092919050505061128757600080fd5b80600b600001600082825403925050819055507f0529afc4538720fe0b3eadc40486369ab962002d72fead1387b300c66073e7bf600660000160009054906101000a900473ffffffffffffffffffffffffffffffffffffffff1682604051808373ffffffffffffffffffffffffffffffffffffffff1673ffffffffffffffffffffffffffffffffffffffff1681526020018281526020019250505060405180910390a150565b60008061133e600160030154611082565b60018001600082955083919050558294505050507f64e6e7bd72b853c4e62fd6ceaca05a104700c70a4cb567c75c7f2242ba7f037c600160000160009054906101000a900473ffffffffffffffffffffffffffffffffffffffff166001800154604051808373ffffffffffffffffffffffffffffffffffffffff1673ffffffffffffffffffffffffffffffffffffffff1681526020018281526020019250505060405180910390a15050565b60008060003373ffffffffffffffffffffffffffffffffffffffff1673ffffffffffffffffffffffffffffffffffffffff16815260200190815260200160002060010154146114815761143b61255b565b6000803373ffffffffffffffffffffffffffffffffffffffff1673ffffffffffffffffffffffffffffffffffffffff168152602001908152602001600020600101819055505b60006064600b6004015460018001546006600101546000803373ffffffffffffffffffffffffffffffffffffffff1673ffffffffffffffffffffffffffffffffffffffff1681526020019081526020016000206000015402816114e057fe5b04816114e857fe5b0402905060016002015481029050600660020154818161150457fe5b0490506000803373ffffffffffffffffffffffffffffffffffffffff1673ffffffffffffffffffffffffffffffffffffffff16815260200190815260200160002060010154810390508082106115c2576040517f08c379a00000000000000000000000000000000000000000000000000000000081526004018080602001828103825260158152602001807f4e4f5420454e4f55474820434f4c4c41544552414c000000000000000000000081525060200191505060405180910390fd5b600b6001015482111561163d576040517f08c379a00000000000000000000000000000000000000000000000000000000081526004018080602001828103825260138152602001807f4e4f5420454e4f5547482052455345525645530000000000000000000000000081525060200191505060405180910390fd5b6064600b6003015483028161164e57fe5b0482016000803373ffffffffffffffffffffffffffffffffffffffff1673ffffffffffffffffffffffffffffffffffffffff16815260200190815260200160002060010160008282540192505081905550600b600701546000803373ffffffffffffffffffffffffffffffffffffffff1673ffffffffffffffffffffffffffffffffffffffff168152602001908152602001600020600201544203111561173657426000803373ffffffffffffffffffffffffffffffffffffffff1673ffffffffffffffffffffffffffffffffffffffff168152602001908152602001600020600201819055505b81600b60010160008282540392505081905550600160000160009054906101000a900473ffffffffffffffffffffffffffffffffffffffff1673ffffffffffffffffffffffffffffffffffffffff1663a9059cbb33846040518363ffffffff1660e01b8152600401808373ffffffffffffffffffffffffffffffffffffffff1673ffffffffffffffffffffffffffffffffffffffff16815260200182815260200192505050602060405180830381600087803b1580156117f557600080fd5b505af1158015611809573d6000803e3d6000fd5b505050506040513d602081101561181f57600080fd5b810190808051906020019092919050505061183957600080fd5b7f0232862a021d33ea4a70f5d509b754f0f6986aaa0ffdd5c7db4910422afc768a3383604051808373ffffffffffffffffffffffffffffffffffffffff1673ffffffffffffffffffffffffffffffffffffffff1681526020018281526020019250505060405180910390a15050565b6000600b60020154905090565b601560009054906101000a900473ffffffffffffffffffffffffffffffffffffffff1681565b600660000160009054906101000a900473ffffffffffffffffffffffffffffffffffffffff1673ffffffffffffffffffffffffffffffffffffffff166323b872dd3330846040518463ffffffff1660e01b8152600401808473ffffffffffffffffffffffffffffffffffffffff1673ffffffffffffffffffffffffffffffffffffffff1681526020018373ffffffffffffffffffffffffffffffffffffffff1673ffffffffffffffffffffffffffffffffffffffff1681526020018281526020019350505050602060405180830381600087803b1580156119bb57600080fd5b505af11580156119cf573d6000803e3d6000fd5b505050506040513d60208110156119e557600080fd5b81019080805190602001909291905050506119ff57600080fd5b806000803373ffffffffffffffffffffffffffffffffffffffff1673ffffffffffffffffffffffffffffffffffffffff168152602001908152602001600020600001600082825401925050819055507f89d28cf06bdb2ee1b92cd046d58450042ad113e9f4cdabfc4d43e7c5557758d73382604051808373ffffffffffffffffffffffffffffffffffffffff1673ffffffffffffffffffffffffffffffffffffffff1681526020018281526020019250505060405180910390a150565b600080600080601660009054906101000a900473ffffffffffffffffffffffffffffffffffffffff1673ffffffffffffffffffffffffffffffffffffffff166346eee1c4876040518263ffffffff1660e01b81526004018082815260200191505060206040518083038186803b158015611b3557600080fd5b505afa158015611b49573d6000803e3d6000fd5b505050506040513d6020811015611b5f57600080fd5b810190808051906020019092919050505090506000811115611df6576000600190505b818111611d26576000601660009054906101000a900473ffffffffffffffffffffffffffffffffffffffff1673ffffffffffffffffffffffffffffffffffffffff166377fbb66389600185036040518363ffffffff1660e01b8152600401808381526020018281526020019250505060206040518083038186803b158015611c0957600080fd5b505afa158015611c1d573d6000803e3d6000fd5b505050506040513d6020811015611c3357600080fd5b81019080805190602001909291905050509050868111158015611d0f575060001515601660009054906101000a900473ffffffffffffffffffffffffffffffffffffffff1673ffffffffffffffffffffffffffffffffffffffff16633df0777b8a846040518363ffffffff1660e01b8152600401808381526020018281526020019250505060206040518083038186803b158015611cd057600080fd5b505afa158015611ce4573d6000803e3d6000fd5b505050506040513d6020811015611cfa57600080fd5b81019080805190602001909291905050501515145b15611d18578093505b508080600101915050611b82565b506000821115611df5576001601660009054906101000a900473ffffffffffffffffffffffffffffffffffffffff1673ffffffffffffffffffffffffffffffffffffffff166393fa491588856040518363ffffffff1660e01b8152600401808381526020018281526020019250505060206040518083038186803b158015611dad57600080fd5b505afa158015611dc1573d6000803e3d6000fd5b505050506040513d6020811015611dd757600080fd5b81019080805190602001909291905050508393509350935050611e09565b5b6000806000819150809050935093509350505b9250925092565b60008060003373ffffffffffffffffffffffffffffffffffffffff1673ffffffffffffffffffffffffffffffffffffffff16815260200190815260200160002060010154905090565b6000600660000160009054906101000a900473ffffffffffffffffffffffffffffffffffffffff16905090565b611e8e61246a565b611f00576040517f08c379a00000000000000000000000000000000000000000000000000000000081526004018080602001828103825260208152602001807f4f776e61626c653a2063616c6c6572206973206e6f7420746865206f776e657281525060200191505060405180910390fd5b600073ffffffffffffffffffffffffffffffffffffffff16601360009054906101000a900473ffffffffffffffffffffffffffffffffffffffff1673ffffffffffffffffffffffffffffffffffffffff167f8be0079c531659141344cd1fd0a4f28419497f9722a3daafe3b4186f6b6457e060405160405180910390a36000601360006101000a81548173ffffffffffffffffffffffffffffffffffffffff021916908373ffffffffffffffffffffffffffffffffffffffff160217905550565b611fc961255b565b6000803373ffffffffffffffffffffffffffffffffffffffff1673ffffffffffffffffffffffffffffffffffffffff168152602001908152602001600020600101819055506000803373ffffffffffffffffffffffffffffffffffffffff1673ffffffffffffffffffffffffffffffffffffffff168152602001908152602001600020600101548111156120c5576040517f08c379a000000000000000000000000000000000000000000000000000000000815260040180806020018281038252601b8152602001807f43414e4e4f54205245504159204d4f5245205448414e204f574544000000000081525060200191505060405180910390fd5b600160000160009054906101000a900473ffffffffffffffffffffffffffffffffffffffff1673ffffffffffffffffffffffffffffffffffffffff166323b872dd3330846040518463ffffffff1660e01b8152600401808473ffffffffffffffffffffffffffffffffffffffff1673ffffffffffffffffffffffffffffffffffffffff1681526020018373ffffffffffffffffffffffffffffffffffffffff1673ffffffffffffffffffffffffffffffffffffffff1681526020018281526020019350505050602060405180830381600087803b1580156121a557600080fd5b505af11580156121b9573d6000803e3d6000fd5b505050506040513d60208110156121cf57600080fd5b81019080805190602001909291905050506121e957600080fd5b806000803373ffffffffffffffffffffffffffffffffffffffff1673ffffffffffffffffffffffffffffffffffffffff1681526020019081526020016000206001016000828254039250508190555080600b600101600082825401925050819055506000600b600701546000803373ffffffffffffffffffffffffffffffffffffffff1673ffffffffffffffffffffffffffffffffffffffff168152602001908152602001600020600201548161229c57fe5b04600b6007015442816122ab57fe5b04039050600b6007015481026000803373ffffffffffffffffffffffffffffffffffffffff1673ffffffffffffffffffffffffffffffffffffffff168152602001908152602001600020600201600082825401925050819055507f34d657cd4dec79d6716ce5ac15b81de5751705030cbef01b43b15eae44cbc1123383604051808373ffffffffffffffffffffffffffffffffffffffff1673ffffffffffffffffffffffffffffffffffffffff1681526020018281526020019250505060405180910390a15050565b600080612385600660030154611082565b6006600101600082955083919050558294505050507f64e6e7bd72b853c4e62fd6ceaca05a104700c70a4cb567c75c7f2242ba7f037c600660000160009054906101000a900473ffffffffffffffffffffffffffffffffffffffff16600660010154604051808373ffffffffffffffffffffffffffffffffffffffff1673ffffffffffffffffffffffffffffffffffffffff1681526020018281526020019250505060405180910390a15050565b6000600b60040154905090565b6000601360009054906101000a900473ffffffffffffffffffffffffffffffffffffffff16905090565b6000601360009054906101000a900473ffffffffffffffffffffffffffffffffffffffff1673ffffffffffffffffffffffffffffffffffffffff163373ffffffffffffffffffffffffffffffffffffffff1614905090565b60006020528060005260406000206000915090508060000154908060010154908060020154905083565b601460009054906101000a900473ffffffffffffffffffffffffffffffffffffffff1681565b60008060003373ffffffffffffffffffffffffffffffffffffffff1673ffffffffffffffffffffffffffffffffffffffff16815260200190815260200160002060000154905090565b60008060003373ffffffffffffffffffffffffffffffffffffffff1673ffffffffffffffffffffffffffffffffffffffff1681526020019081526020016000206001015490506000600b600701546301e13380816125b557fe5b0490506000600b600701546000803373ffffffffffffffffffffffffffffffffffffffff1673ffffffffffffffffffffffffffffffffffffffff168152602001908152602001600020600201548161260957fe5b04600b60070154428161261857fe5b0403905080826064600b6002015486028161262f57fe5b048161263757fe5b040283019250505090565b600073ffffffffffffffffffffffffffffffffffffffff16601560009054906101000a900473ffffffffffffffffffffffffffffffffffffffff1673ffffffffffffffffffffffffffffffffffffffff1614612706576040517f08c379a000000000000000000000000000000000000000000000000000000000815260040180806020018281038252600b8152602001807f416c72656164792053657400000000000000000000000000000000000000000081525060200191505060405180910390fd5b80601560006101000a81548173ffffffffffffffffffffffffffffffffffffffff021916908373ffffffffffffffffffffffffffffffffffffffff16021790555080601760006101000a81548173ffffffffffffffffffffffffffffffffffffffff021916908373ffffffffffffffffffffffffffffffffffffffff1602179055507f5c6c85f31e475f047482022539bfe2a3941c15e582053b7420f22e5e8cc5d7f681604051808273ffffffffffffffffffffffffffffffffffffffff1673ffffffffffffffffffffffffffffffffffffffff16815260200191505060405180910390a150565b60006001800154905090565b6000600b60010154905090565b6000600160000160009054906101000a900473ffffffffffffffffffffffffffffffffffffffff16905090565b60008060008084601660009054906101000a900473ffffffffffffffffffffffffffffffffffffffff1673ffffffffffffffffffffffffffffffffffffffff166346eee1c48a6040518263ffffffff1660e01b81526004018082815260200191505060206040518083038186803b1580156128ae57600080fd5b505afa1580156128c2573d6000803e3d6000fd5b505050506040513d60208110156128d857600080fd5b81019080805190602001909291905050500390506000811115612b745760008190505b868203811115612b72576000601660009054906101000a900473ffffffffffffffffffffffffffffffffffffffff1673ffffffffffffffffffffffffffffffffffffffff166377fbb6638b600185036040518363ffffffff1660e01b8152600401808381526020018281526020019250505060206040518083038186803b15801561298557600080fd5b505afa158015612999573d6000803e3d6000fd5b505050506040513d60208110156129af57600080fd5b810190808051906020019092919050505090506000811180156129d25750888111155b8015612a97575060001515601660009054906101000a900473ffffffffffffffffffffffffffffffffffffffff1673ffffffffffffffffffffffffffffffffffffffff16633df0777b8c846040518363ffffffff1660e01b8152600401808381526020018281526020019250505060206040518083038186803b158015612a5857600080fd5b505afa158015612a6c573d6000803e3d6000fd5b505050506040513d6020811015612a8257600080fd5b81019080805190602001909291905050501515145b15612b63576001601660009054906101000a900473ffffffffffffffffffffffffffffffffffffffff1673ffffffffffffffffffffffffffffffffffffffff166393fa49158c846040518363ffffffff1660e01b8152600401808381526020018281526020019250505060206040518083038186803b158015612b1957600080fd5b505afa158015612b2d573d6000803e3d6000fd5b505050506040513d6020811015612b4357600080fd5b810190808051906020019092919050505082955095509550505050612b87565b508080600190039150506128fb565b505b6000806000819150809050935093509350505b9450945094915050565b612b9961246a565b612c0b576040517f08c379a00000000000000000000000000000000000000000000000000000000081526004018080602001828103825260208152602001807f4f776e61626c653a2063616c6c6572206973206e6f7420746865206f776e657281525060200191505060405180910390fd5b80600b600101541015612c69576040517f08c379a000000000000000000000000000000000000000000000000000000000815260040180806020018281038252602181526020018061371f6021913960400191505060405180910390fd5b600160000160009054906101000a900473ffffffffffffffffffffffffffffffffffffffff1673ffffffffffffffffffffffffffffffffffffffff1663a9059cbb33836040518363ffffffff1660e01b8152600401808373ffffffffffffffffffffffffffffffffffffffff1673ffffffffffffffffffffffffffffffffffffffff16815260200182815260200192505050602060405180830381600087803b158015612d1557600080fd5b505af1158015612d29573d6000803e3d6000fd5b505050506040513d6020811015612d3f57600080fd5b8101908080519060200190929190505050612d5957600080fd5b80600b600101600082825403925050819055507f0529afc4538720fe0b3eadc40486369ab962002d72fead1387b300c66073e7bf600160000160009054906101000a900473ffffffffffffffffffffffffffffffffffffffff1682604051808373ffffffffffffffffffffffffffffffffffffffff1673ffffffffffffffffffffffffffffffffffffffff1681526020018281526020019250505060405180910390a150565b612e0761246a565b612e79576040517f08c379a00000000000000000000000000000000000000000000000000000000081526004018080602001828103825260208152602001807f4f776e61626c653a2063616c6c6572206973206e6f7420746865206f776e657281525060200191505060405180910390fd5b612e82816135b2565b50565b600080600080601760009054906101000a900473ffffffffffffffffffffffffffffffffffffffff1673ffffffffffffffffffffffffffffffffffffffff1663c4e9e950866040518263ffffffff1660e01b81526004018082815260200191505060206040518083038186803b158015612efe57600080fd5b505afa158015612f12573d6000803e3d6000fd5b505050506040513d6020811015612f2857600080fd5b810190808051906020019092919050505090506000601760009054906101000a900473ffffffffffffffffffffffffffffffffffffffff1673ffffffffffffffffffffffffffffffffffffffff166373b33318876040518263ffffffff1660e01b81526004018082815260200191505060206040518083038186803b158015612fb057600080fd5b505afa158015612fc4573d6000803e3d6000fd5b505050506040513d6020811015612fda57600080fd5b8101908080519060200190929190505050905060008211156131a6576000806000613009854260016000612834565b80935081945082955050505082156130de5783820281601760009054906101000a900473ffffffffffffffffffffffffffffffffffffffff1673ffffffffffffffffffffffffffffffffffffffff166367cfa3f860016040518263ffffffff1660e01b81526004018082815260200191505060206040518083038186803b15801561309357600080fd5b505afa1580156130a7573d6000803e3d6000fd5b505050506040513d60208110156130bd57600080fd5b81019080805190602001909291905050509750975097505050505050613267565b600080601760009054906101000a900473ffffffffffffffffffffffffffffffffffffffff1673ffffffffffffffffffffffffffffffffffffffff166367cfa3f860026040518263ffffffff1660e01b81526004018082815260200191505060206040518083038186803b15801561315557600080fd5b505afa158015613169573d6000803e3d6000fd5b505050506040513d602081101561317f57600080fd5b81019080805190602001909291905050508292508191509750975097505050505050613267565b600080601760009054906101000a900473ffffffffffffffffffffffffffffffffffffffff1673ffffffffffffffffffffffffffffffffffffffff166367cfa3f860006040518263ffffffff1660e01b81526004018082815260200191505060206040518083038186803b15801561321d57600080fd5b505afa158015613231573d6000803e3d6000fd5b505050506040513d602081101561324757600080fd5b810190808051906020019092919050505082925081915094509450945050505b9193909250565b6000600b60000154905090565b60006064600b600401546001800154600660010154856000803373ffffffffffffffffffffffffffffffffffffffff1673ffffffffffffffffffffffffffffffffffffffff168152602001908152602001600020600001540302816132dc57fe5b04816132e457fe5b0402905060016002015481029050600660020154818161330057fe5b049050806000803373ffffffffffffffffffffffffffffffffffffffff1673ffffffffffffffffffffffffffffffffffffffff1681526020019081526020016000206001015411156133ba576040517f08c379a000000000000000000000000000000000000000000000000000000000815260040180806020018281038252601f8152602001807f43414e4e4f5420554e444552434f4c4c41544552414c495a45205641554c540081525060200191505060405180910390fd5b600660000160009054906101000a900473ffffffffffffffffffffffffffffffffffffffff1673ffffffffffffffffffffffffffffffffffffffff1663a9059cbb33846040518363ffffffff1660e01b8152600401808373ffffffffffffffffffffffffffffffffffffffff1673ffffffffffffffffffffffffffffffffffffffff16815260200182815260200192505050602060405180830381600087803b15801561346657600080fd5b505af115801561347a573d6000803e3d6000fd5b505050506040513d602081101561349057600080fd5b81019080805190602001909291905050506134aa57600080fd5b816000803373ffffffffffffffffffffffffffffffffffffffff1673ffffffffffffffffffffffffffffffffffffffff1681526020019081526020016000206000016000828254039250508190555081600b600001600082825403925050819055507f0ac60fbf53b67f5a6a0c8031dd9d1610a06f01669b1a8b9af98f3a6a477e8d7c3383604051808373ffffffffffffffffffffffffffffffffffffffff1673ffffffffffffffffffffffffffffffffffffffff1681526020018281526020019250505060405180910390a15050565b6000600b60030154905090565b6000600a60058460018501600a0a87028161359f57fe5b0401816135a857fe5b0490509392505050565b600073ffffffffffffffffffffffffffffffffffffffff168173ffffffffffffffffffffffffffffffffffffffff161415613638576040517f08c379a00000000000000000000000000000000000000000000000000000000081526004018080602001828103825260268152602001806136f96026913960400191505060405180910390fd5b8073ffffffffffffffffffffffffffffffffffffffff16601360009054906101000a900473ffffffffffffffffffffffffffffffffffffffff1673ffffffffffffffffffffffffffffffffffffffff167f8be0079c531659141344cd1fd0a4f28419497f9722a3daafe3b4186f6b6457e060405160405180910390a380601360006101000a81548173ffffffffffffffffffffffffffffffffffffffff021916908373ffffffffffffffffffffffffffffffffffffffff1602179055505056fe4f776e61626c653a206e6577206f776e657220697320746865207a65726f20616464726573734e4f5420454e4f554748204445425420544f4b454e5320494e2052455345525645a265627a7a72315820cb89dcb9b557d972bf6566339fddacbe0ff7a3adc8caac243737dd9c53e359d664736f6c63430005100032",
  "source": "pragma solidity ^0.5.0;\n\nimport \"./BankStorage.sol\";\nimport \"@openzeppelin/contracts/token/ERC20/IERC20.sol\";\nimport \"@openzeppelin/contracts/ownership/Ownable.sol\";\n\n/**\n* @title Bank\n* This contract allows the owner to deposit reserves(debt token), earn interest and\n* origination fees from users that borrow against their collateral.\n* The oracle for Bank is Tellor.\n*/\ncontract Bank is BankStorage, Ownable, UsingTellor {\n  /*Events*/\n  event ReserveDeposit(uint256 amount);\n  event ReserveWithdraw(address token, uint256 amount);\n  event VaultDeposit(address owner, uint256 amount);\n  event VaultBorrow(address borrower, uint256 amount);\n  event VaultRepay(address borrower, uint256 amount);\n  event VaultWithdraw(address borrower, uint256 amount);\n  event PriceUpdate(address token, uint256 price);\n  event Liquidation(address borrower, uint256 debtAmount);\n\n  /*Constructor*/\n  constructor(\n    uint256 interestRate,\n    uint256 originationFee,\n    uint256 collateralizationRatio,\n    uint256 liquidationPenalty,\n    uint256 period,\n    address collateralToken,\n    uint256 collateralTokenTellorRequestId,\n    uint256 collateralTokenPriceGranularity,\n    uint256 collateralTokenPrice,\n    address debtToken,\n    uint256 debtTokenTellorRequestId,\n    uint256 debtTokenPriceGranularity,\n    uint256 debtTokenPrice,\n    address payable oracleContract ) public UsingTellor(oracleContract) {\n    reserve.interestRate = interestRate;\n    reserve.originationFee = originationFee;\n    reserve.collateralizationRatio = collateralizationRatio;\n    reserve.liquidationPenalty = liquidationPenalty;\n    reserve.period = period;\n    debt.tokenAddress = debtToken;\n    debt.price = debtTokenPrice;\n    debt.priceGranularity = debtTokenPriceGranularity;\n    debt.tellorRequestId = debtTokenTellorRequestId;\n    collateral.tokenAddress = collateralToken;\n    collateral.price = collateralTokenPrice;\n    collateral.priceGranularity = collateralTokenPriceGranularity;\n    collateral.tellorRequestId = collateralTokenTellorRequestId;\n    reserve.oracleContract = oracleContract;\n  }\n\n  /*Functions*/\n  /**\n  * @dev This function allows the Bank owner to deposit the reserve (debt tokens)\n  * @param amount is the amount to deposit\n  */\n  function reserveDeposit(uint256 amount) external onlyOwner {\n    require(IERC20(debt.tokenAddress).transferFrom(msg.sender, address(this), amount));\n    reserve.debtBalance += amount;\n    emit ReserveDeposit(amount);\n  }\n\n  /**\n  * @dev This function allows the Bank owner to withdraw the reserve (debt tokens)\n  * @param amount is the amount to withdraw\n  */\n  function reserveWithdraw(uint256 amount) external onlyOwner {\n    require(reserve.debtBalance >= amount, \"NOT ENOUGH DEBT TOKENS IN RESERVE\");\n    require(IERC20(debt.tokenAddress).transfer(msg.sender, amount));\n    reserve.debtBalance -= amount;\n    emit ReserveWithdraw(debt.tokenAddress, amount);\n  }\n\n  /**\n  * @dev This function allows the user to withdraw their collateral\n  * @param amount is the amount to withdraw\n  */\n  function reserveWithdrawCollateral(uint256 amount) external onlyOwner {\n    require(reserve.collateralBalance >= amount, \"NOT ENOUGH COLLATERAL IN RESERVE\");\n    require(IERC20(collateral.tokenAddress).transfer(msg.sender, amount));\n    reserve.collateralBalance -= amount;\n    emit ReserveWithdraw(collateral.tokenAddress, amount);\n  }\n\n  /**\n  * @dev Use this function to get and update the price for the collateral token\n  * using the Tellor Oracle.\n  */\n  function updateCollateralPrice() external {\n    bool ifRetrieve;\n    uint256 _timestampRetrieved;\n    (ifRetrieve, collateral.price, _timestampRetrieved) = getCurrentValue(collateral.tellorRequestId); //,now - 1 hours);\n    emit PriceUpdate(collateral.tokenAddress, collateral.price);\n  }\n\n  /**\n  * @dev Use this function to get and update the price for the debt token\n  * using the Tellor Oracle.\n  */\n  function updateDebtPrice() external {\n    bool ifRetrieve;\n    uint256 _timestampRetrieved;\n    (ifRetrieve, debt.price, _timestampRetrieved) = getCurrentValue(debt.tellorRequestId); //,now - 1 hours);\n    emit PriceUpdate(debt.tokenAddress, debt.price);\n  }\n\n  /**\n  * @dev Anyone can use this function to liquidate a vault's debt,\n  * the bank owner gets the collateral liquidated\n  * @param vaultOwner is the user the bank owner wants to liquidate\n  */\n  function liquidate(address vaultOwner) external {\n    // Require undercollateralization\n    require(getVaultCollateralizationRatio(vaultOwner) < reserve.collateralizationRatio * 100, \"VAULT NOT UNDERCOLLATERALIZED\");\n    uint256 debtOwned = vaults[vaultOwner].debtAmount + (vaults[vaultOwner].debtAmount * 100 * reserve.liquidationPenalty / 100 / 100);\n    uint256 collateralToLiquidate = debtOwned * debt.price / collateral.price;\n\n    if(collateralToLiquidate <= vaults[vaultOwner].collateralAmount) {\n      reserve.collateralBalance +=  collateralToLiquidate;\n      vaults[vaultOwner].collateralAmount -= collateralToLiquidate;\n    } else {\n      reserve.collateralBalance +=  vaults[vaultOwner].collateralAmount;\n      vaults[vaultOwner].collateralAmount = 0;\n    }\n    reserve.debtBalance += vaults[vaultOwner].debtAmount;\n    vaults[vaultOwner].debtAmount = 0;\n    emit Liquidation(vaultOwner, debtOwned);\n  }\n\n\n  /**\n  * @dev Use this function to allow users to deposit collateral to the vault\n  * @param amount is the collateral amount\n  */\n  function vaultDeposit(uint256 amount) external {\n    require(IERC20(collateral.tokenAddress).transferFrom(msg.sender, address(this), amount));\n    vaults[msg.sender].collateralAmount += amount;\n    emit VaultDeposit(msg.sender, amount);\n  }\n\n  /**\n  * @dev Use this function to allow users to borrow against their collateral\n  * @param amount to borrow\n  */\n  function vaultBorrow(uint256 amount) external {\n    if (vaults[msg.sender].debtAmount != 0) {\n      vaults[msg.sender].debtAmount = getVaultRepayAmount();\n    }\n    uint256 maxBorrow = vaults[msg.sender].collateralAmount * collateral.price / debt.price / reserve.collateralizationRatio * 100;\n    maxBorrow *= debt.priceGranularity;\n    maxBorrow /= collateral.priceGranularity;\n    maxBorrow -= vaults[msg.sender].debtAmount;\n    require(amount < maxBorrow, \"NOT ENOUGH COLLATERAL\");\n    require(amount <= reserve.debtBalance, \"NOT ENOUGH RESERVES\");\n    vaults[msg.sender].debtAmount += amount + ((amount * reserve.originationFee) / 100);\n    if (block.timestamp - vaults[msg.sender].createdAt > reserve.period) {\n      // Only adjust if more than 1 interest rate period has past\n      vaults[msg.sender].createdAt = block.timestamp;\n    }\n    reserve.debtBalance -= amount;\n    require(IERC20(debt.tokenAddress).transfer(msg.sender, amount));\n    emit VaultBorrow(msg.sender, amount);\n  }\n\n  /**\n  * @dev This function allows users to pay the interest and origination fee to the\n  *  vault before being able to withdraw\n  * @param amount owed\n  */\n  function vaultRepay(uint256 amount) external {\n    vaults[msg.sender].debtAmount = getVaultRepayAmount();\n    require(amount <= vaults[msg.sender].debtAmount, \"CANNOT REPAY MORE THAN OWED\");\n    require(IERC20(debt.tokenAddress).transferFrom(msg.sender, address(this), amount));\n    vaults[msg.sender].debtAmount -= amount;\n    reserve.debtBalance += amount;\n    uint256 periodsElapsed = (block.timestamp / reserve.period) - (vaults[msg.sender].createdAt / reserve.period);\n    vaults[msg.sender].createdAt += periodsElapsed * reserve.period;\n    emit VaultRepay(msg.sender, amount);\n  }\n\n  /**\n  * @dev Allows users to withdraw their collateral from the vault\n  */\n  function vaultWithdraw(uint256 amount) external {\n    uint256 maxBorrowAfterWithdraw = (vaults[msg.sender].collateralAmount - amount) * collateral.price / debt.price / reserve.collateralizationRatio * 100;\n    maxBorrowAfterWithdraw *= debt.priceGranularity;\n    maxBorrowAfterWithdraw /= collateral.priceGranularity;\n    require(vaults[msg.sender].debtAmount <= maxBorrowAfterWithdraw, \"CANNOT UNDERCOLLATERALIZE VAULT\");\n    require(IERC20(collateral.tokenAddress).transfer(msg.sender, amount));\n    vaults[msg.sender].collateralAmount -= amount;\n    reserve.collateralBalance -= amount;\n    emit VaultWithdraw(msg.sender, amount);\n  }\n\n  /**\n  * @dev Allows the user to get the first value for the requestId after the specified timestamp\n  * @param _requestId is the requestId to look up the value for\n  * @param _timestamp after which to search for first verified value\n  * @return bool true if it is able to retreive a value, the value, and the value's timestamp\n  */\n  function getDataBefore(uint256 _requestId, uint256 _timestamp)\n      public\n      view\n      returns (bool _ifRetrieve, uint256 _value, uint256 _timestampRetrieved)\n  {\n      uint256 _count = _tellorm.getNewValueCountbyRequestId(_requestId);\n      if (_count > 0) {\n          for (uint256 i = 1; i <= _count; i++) {\n              uint256 _time = _tellorm.getTimestampbyRequestIDandIndex(_requestId, i - 1);\n              if (_time <= _timestamp && _tellorm.isInDispute(_requestId,_time) == false) {\n                  _timestampRetrieved = _time;\n              }\n          }\n          if (_timestampRetrieved > 0) {\n              return (true, _tellorm.retrieveData(_requestId, _timestampRetrieved), _timestampRetrieved);\n          }\n      }\n      return (false, 0, 0);\n  }\n\n}\n",
  "sourcePath": "/Users/mikeghen/Documents/Projects/bank/contracts/Bank.sol",
  "compiler": {
    "name": "solc",
    "version": "0.5.16+commit.9c3226ce.Emscripten.clang"
  },
  "schemaVersion": "3.2.0",
  "updatedAt": "2020-06-27T13:57:40.398Z",
  "networkType": "ethereum",
  "devdoc": {
    "methods": {
      "getCollateralTokenAddress()": {
        "details": "Getter function for debt token address",
        "return": "debt token price"
      },
      "getCollateralTokenPrice()": {
        "details": "Getter function for the collateral token price",
        "return": "collateral token price"
      },
      "getCollateralTokenPriceGranularity()": {
        "details": "Getter function for the collateral token price granularity",
        "return": "collateral token price granularity"
      },
      "getCollateralizationRatio()": {
        "details": "Getter function for the current collateralization ratio",
        "return": "collateralization ratio"
      },
      "getCurrentValue(uint256)": {
        "details": "Allows the user to get the latest value for the requestId specified",
        "params": {
          "_requestId": "is the requestId to look up the value for"
        },
        "return": "bool true if it is able to retreive a value, the value, and the value's timestamp"
      },
      "getDataBefore(uint256,uint256)": {
        "details": "Allows the user to get the first value for the requestId after the specified timestamp",
        "params": {
          "_requestId": "is the requestId to look up the value for",
          "_timestamp": "after which to search for first verified value"
        },
        "return": "bool true if it is able to retreive a value, the value, and the value's timestamp"
      },
      "getDataBefore(uint256,uint256,uint256,uint256)": {
        "details": "Allows the user to get the first value for the requestId after the specified timestamp",
        "params": {
          "_limit": "a limit on the number of values to look at",
          "_offset": "the number of values to go back before looking for data values",
          "_requestId": "is the requestId to look up the value for",
          "_timestamp": "after which to search for first verified value"
        },
        "return": "bool true if it is able to retreive a value, the value, and the value's timestamp"
      },
      "getDebtTokenAddress()": {
        "details": "Getter function for debt token address",
        "return": "debt token price"
      },
      "getDebtTokenPrice()": {
        "details": "Getter function for the debt token(reserve) price",
        "return": "debt token price"
      },
      "getDebtTokenPriceGranularity()": {
        "details": "Getter function for the debt token price granularity",
        "return": "debt token price granularity"
      },
      "getInterestRate()": {
        "details": "Getter function for the current interest rate",
        "return": "interest rate"
      },
      "getLiquidationPenalty()": {
        "details": "Getter function for the liquidation penalty",
        "return": "liquidation penalty"
      },
      "getOriginationFee()": {
        "details": "Getter function for the origination fee",
        "return": "origination fee"
      },
      "getReserveBalance()": {
        "details": "Getter function for the debt token(reserve) balance",
        "return": "debt reserve balance"
      },
      "getReserveCollateralBalance()": {
        "details": "Getter function for the debt reserve collateral balance",
        "return": "collateral reserve balance"
      },
      "getVaultCollateralAmount()": {
        "details": "Getter function for the user's vault collateral amount",
        "return": "collateral amount"
      },
      "getVaultCollateralizationRatio(address)": {
        "details": "Getter function for the collateralization ratio",
        "return": "collateralization ratio"
      },
      "getVaultDebtAmount()": {
        "details": "Getter function for the user's vault debt amount",
        "return": "debt amount"
      },
      "getVaultRepayAmount()": {
        "details": "Getter function for the user's vault debt amount",
        "return": "debt amount"
      },
      "isOwner()": {
        "details": "Returns true if the caller is the current owner."
      },
      "liquidate(address)": {
        "details": "Anyone can use this function to liquidate a vault's debt, the bank owner gets the collateral liquidated",
        "params": {
          "vaultOwner": "is the user the bank owner wants to liquidate"
        }
      },
      "owner()": {
        "details": "Returns the address of the current owner."
      },
      "renounceOwnership()": {
        "details": "Leaves the contract without owner. It will not be possible to call `onlyOwner` functions anymore. Can only be called by the current owner.     * > Note: Renouncing ownership will leave the contract without an owner, thereby removing any functionality that is only available to the owner."
      },
      "reserveDeposit(uint256)": {
        "details": "This function allows the Bank owner to deposit the reserve (debt tokens)",
        "params": {
          "amount": "is the amount to deposit"
        }
      },
      "reserveWithdraw(uint256)": {
        "details": "This function allows the Bank owner to withdraw the reserve (debt tokens)",
        "params": {
          "amount": "is the amount to withdraw"
        }
      },
      "reserveWithdrawCollateral(uint256)": {
        "details": "This function allows the user to withdraw their collateral",
        "params": {
          "amount": "is the amount to withdraw"
        }
      },
      "transferOwnership(address)": {
        "details": "Transfers ownership of the contract to a new account (`newOwner`). Can only be called by the current owner."
      },
      "updateCollateralPrice()": {
        "details": "Use this function to get and update the price for the collateral token using the Tellor Oracle."
      },
      "updateDebtPrice()": {
        "details": "Use this function to get and update the price for the debt token using the Tellor Oracle."
      },
      "valueFor(bytes32)": {
        "details": "Allows the user to get the latest value for the requestId specified using the ADO specification for the standard inteface for price oracles",
        "params": {
          "_bytesId": "is the ADO standarized bytes32 price/key value pair identifier"
        },
        "return": "the timestamp, outcome or value/ and the status code (for retreived, null, etc...)"
      },
      "vaultBorrow(uint256)": {
        "details": "Use this function to allow users to borrow against their collateral",
        "params": {
          "amount": "to borrow"
        }
      },
      "vaultDeposit(uint256)": {
        "details": "Use this function to allow users to deposit collateral to the vault",
        "params": {
          "amount": "is the collateral amount"
        }
      },
      "vaultRepay(uint256)": {
        "details": "This function allows users to pay the interest and origination fee to the vault before being able to withdraw",
        "params": {
          "amount": "owed"
        }
      },
      "vaultWithdraw(uint256)": {
        "details": "Allows users to withdraw their collateral from the vault"
      }
    },
    "title": "Bank This contract allows the owner to deposit reserves(debt token), earn interest and origination fees from users that borrow against their collateral. The oracle for Bank is Tellor."
  },
  "userdoc": {
    "methods": {}
  }
}